{
	"tokenbank.sol": {
		"TokenBank": {
			"abi": [
				{
					"inputs": [
						{
							"internalType": "address",
							"name": "_tokenAddress",
							"type": "address"
						}
					],
					"stateMutability": "nonpayable",
					"type": "constructor"
				},
				{
					"inputs": [
						{
							"internalType": "address",
							"name": "_user",
							"type": "address"
						}
					],
					"name": "balanceOf",
					"outputs": [
						{
							"internalType": "uint256",
							"name": "",
							"type": "uint256"
						}
					],
					"stateMutability": "view",
					"type": "function"
				},
				{
					"inputs": [
						{
							"internalType": "uint256",
							"name": "_amount",
							"type": "uint256"
						}
					],
					"name": "deposit",
					"outputs": [],
					"stateMutability": "nonpayable",
					"type": "function"
				},
				{
					"inputs": [
						{
							"internalType": "address",
							"name": "",
							"type": "address"
						}
					],
					"name": "deposits",
					"outputs": [
						{
							"internalType": "uint256",
							"name": "",
							"type": "uint256"
						}
					],
					"stateMutability": "view",
					"type": "function"
				},
				{
					"inputs": [],
					"name": "token",
					"outputs": [
						{
							"internalType": "contract BaseERC20",
							"name": "",
							"type": "address"
						}
					],
					"stateMutability": "view",
					"type": "function"
				},
				{
					"inputs": [
						{
							"internalType": "uint256",
							"name": "_amount",
							"type": "uint256"
						}
					],
					"name": "withdraw",
					"outputs": [],
					"stateMutability": "nonpayable",
					"type": "function"
				}
			],
			"devdoc": {
				"kind": "dev",
				"methods": {},
				"version": 1
			},
			"evm": {
				"assembly": "    /* \"tokenbank.sol\":408:1632  contract TokenBank {... */\n  mstore(0x40, 0x80)\n    /* \"tokenbank.sol\":573:689  constructor(address _tokenAddress) {... */\n  callvalue\n  dup1\n  iszero\n  tag_1\n  jumpi\n  0x00\n  dup1\n  revert\ntag_1:\n  pop\n  mload(0x40)\n  sub(codesize, bytecodeSize)\n  dup1\n  bytecodeSize\n  dup4\n  codecopy\n  dup2\n  dup2\n  add\n  0x40\n  mstore\n  dup2\n  add\n  swap1\n  tag_2\n  swap2\n  swap1\n  tag_3\n  jump\t// in\ntag_2:\n    /* \"tokenbank.sol\":637:650  _tokenAddress */\n  dup1\n    /* \"tokenbank.sol\":619:624  token */\n  0x01\n  0x00\n    /* \"tokenbank.sol\":619:651  token = BaseERC20(_tokenAddress) */\n  0x0100\n  exp\n  dup2\n  sload\n  dup2\n  0xffffffffffffffffffffffffffffffffffffffff\n  mul\n  not\n  and\n  swap1\n  dup4\n  0xffffffffffffffffffffffffffffffffffffffff\n  and\n  mul\n  or\n  swap1\n  sstore\n  pop\n    /* \"tokenbank.sol\":573:689  constructor(address _tokenAddress) {... */\n  pop\n    /* \"tokenbank.sol\":408:1632  contract TokenBank {... */\n  jump(tag_6)\n    /* \"#utility.yul\":88:205   */\ntag_8:\n    /* \"#utility.yul\":197:198   */\n  0x00\n    /* \"#utility.yul\":194:195   */\n  dup1\n    /* \"#utility.yul\":187:199   */\n  revert\n    /* \"#utility.yul\":334:460   */\ntag_10:\n    /* \"#utility.yul\":371:378   */\n  0x00\n    /* \"#utility.yul\":411:453   */\n  0xffffffffffffffffffffffffffffffffffffffff\n    /* \"#utility.yul\":404:409   */\n  dup3\n    /* \"#utility.yul\":400:454   */\n  and\n    /* \"#utility.yul\":389:454   */\n  swap1\n  pop\n    /* \"#utility.yul\":334:460   */\n  swap2\n  swap1\n  pop\n  jump\t// out\n    /* \"#utility.yul\":466:562   */\ntag_11:\n    /* \"#utility.yul\":503:510   */\n  0x00\n    /* \"#utility.yul\":532:556   */\n  tag_20\n    /* \"#utility.yul\":550:555   */\n  dup3\n    /* \"#utility.yul\":532:556   */\n  tag_10\n  jump\t// in\ntag_20:\n    /* \"#utility.yul\":521:556   */\n  swap1\n  pop\n    /* \"#utility.yul\":466:562   */\n  swap2\n  swap1\n  pop\n  jump\t// out\n    /* \"#utility.yul\":568:690   */\ntag_12:\n    /* \"#utility.yul\":641:665   */\n  tag_22\n    /* \"#utility.yul\":659:664   */\n  dup2\n    /* \"#utility.yul\":641:665   */\n  tag_11\n  jump\t// in\ntag_22:\n    /* \"#utility.yul\":634:639   */\n  dup2\n    /* \"#utility.yul\":631:666   */\n  eq\n    /* \"#utility.yul\":621:684   */\n  tag_23\n  jumpi\n    /* \"#utility.yul\":680:681   */\n  0x00\n    /* \"#utility.yul\":677:678   */\n  dup1\n    /* \"#utility.yul\":670:682   */\n  revert\n    /* \"#utility.yul\":621:684   */\ntag_23:\n    /* \"#utility.yul\":568:690   */\n  pop\n  jump\t// out\n    /* \"#utility.yul\":696:839   */\ntag_13:\n    /* \"#utility.yul\":753:758   */\n  0x00\n    /* \"#utility.yul\":784:790   */\n  dup2\n    /* \"#utility.yul\":778:791   */\n  mload\n    /* \"#utility.yul\":769:791   */\n  swap1\n  pop\n    /* \"#utility.yul\":800:833   */\n  tag_25\n    /* \"#utility.yul\":827:832   */\n  dup2\n    /* \"#utility.yul\":800:833   */\n  tag_12\n  jump\t// in\ntag_25:\n    /* \"#utility.yul\":696:839   */\n  swap3\n  swap2\n  pop\n  pop\n  jump\t// out\n    /* \"#utility.yul\":845:1196   */\ntag_3:\n    /* \"#utility.yul\":915:921   */\n  0x00\n    /* \"#utility.yul\":964:966   */\n  0x20\n    /* \"#utility.yul\":952:961   */\n  dup3\n    /* \"#utility.yul\":943:950   */\n  dup5\n    /* \"#utility.yul\":939:962   */\n  sub\n    /* \"#utility.yul\":935:967   */\n  slt\n    /* \"#utility.yul\":932:1051   */\n  iszero\n  tag_27\n  jumpi\n    /* \"#utility.yul\":970:1049   */\n  tag_28\n  tag_8\n  jump\t// in\ntag_28:\n    /* \"#utility.yul\":932:1051   */\ntag_27:\n    /* \"#utility.yul\":1090:1091   */\n  0x00\n    /* \"#utility.yul\":1115:1179   */\n  tag_29\n    /* \"#utility.yul\":1171:1178   */\n  dup5\n    /* \"#utility.yul\":1162:1168   */\n  dup3\n    /* \"#utility.yul\":1151:1160   */\n  dup6\n    /* \"#utility.yul\":1147:1169   */\n  add\n    /* \"#utility.yul\":1115:1179   */\n  tag_13\n  jump\t// in\ntag_29:\n    /* \"#utility.yul\":1105:1179   */\n  swap2\n  pop\n    /* \"#utility.yul\":1061:1189   */\n  pop\n    /* \"#utility.yul\":845:1196   */\n  swap3\n  swap2\n  pop\n  pop\n  jump\t// out\n    /* \"tokenbank.sol\":408:1632  contract TokenBank {... */\ntag_6:\n  dataSize(sub_0)\n  dup1\n  dataOffset(sub_0)\n  0x00\n  codecopy\n  0x00\n  return\nstop\n\nsub_0: assembly {\n        /* \"tokenbank.sol\":408:1632  contract TokenBank {... */\n      mstore(0x40, 0x80)\n      callvalue\n      dup1\n      iszero\n      tag_1\n      jumpi\n      0x00\n      dup1\n      revert\n    tag_1:\n      pop\n      jumpi(tag_2, lt(calldatasize, 0x04))\n      shr(0xe0, calldataload(0x00))\n      dup1\n      0x2e1a7d4d\n      eq\n      tag_3\n      jumpi\n      dup1\n      0x70a08231\n      eq\n      tag_4\n      jumpi\n      dup1\n      0xb6b55f25\n      eq\n      tag_5\n      jumpi\n      dup1\n      0xfc0c546a\n      eq\n      tag_6\n      jumpi\n      dup1\n      0xfc7e286d\n      eq\n      tag_7\n      jumpi\n    tag_2:\n      0x00\n      dup1\n      revert\n        /* \"tokenbank.sol\":1026:1432  function withdraw(uint256 _amount) public {... */\n    tag_3:\n      tag_8\n      0x04\n      dup1\n      calldatasize\n      sub\n      dup2\n      add\n      swap1\n      tag_9\n      swap2\n      swap1\n      tag_10\n      jump\t// in\n    tag_9:\n      tag_11\n      jump\t// in\n    tag_8:\n      stop\n        /* \"tokenbank.sol\":1524:1629  function balanceOf(address _user) public view returns (uint256) {... */\n    tag_4:\n      tag_12\n      0x04\n      dup1\n      calldatasize\n      sub\n      dup2\n      add\n      swap1\n      tag_13\n      swap2\n      swap1\n      tag_14\n      jump\t// in\n    tag_13:\n      tag_15\n      jump\t// in\n    tag_12:\n      mload(0x40)\n      tag_16\n      swap2\n      swap1\n      tag_17\n      jump\t// in\n    tag_16:\n      mload(0x40)\n      dup1\n      swap2\n      sub\n      swap1\n      return\n        /* \"tokenbank.sol\":697:1018  function deposit(uint256 _amount) public {... */\n    tag_5:\n      tag_18\n      0x04\n      dup1\n      calldatasize\n      sub\n      dup2\n      add\n      swap1\n      tag_19\n      swap2\n      swap1\n      tag_10\n      jump\t// in\n    tag_19:\n      tag_20\n      jump\t// in\n    tag_18:\n      stop\n        /* \"tokenbank.sol\":521:543  BaseERC20 public token */\n    tag_6:\n      tag_21\n      tag_22\n      jump\t// in\n    tag_21:\n      mload(0x40)\n      tag_23\n      swap2\n      swap1\n      tag_24\n      jump\t// in\n    tag_23:\n      mload(0x40)\n      dup1\n      swap2\n      sub\n      swap1\n      return\n        /* \"tokenbank.sol\":434:477  mapping(address => uint256) public deposits */\n    tag_7:\n      tag_25\n      0x04\n      dup1\n      calldatasize\n      sub\n      dup2\n      add\n      swap1\n      tag_26\n      swap2\n      swap1\n      tag_14\n      jump\t// in\n    tag_26:\n      tag_27\n      jump\t// in\n    tag_25:\n      mload(0x40)\n      tag_28\n      swap2\n      swap1\n      tag_17\n      jump\t// in\n    tag_28:\n      mload(0x40)\n      dup1\n      swap2\n      sub\n      swap1\n      return\n        /* \"tokenbank.sol\":1026:1432  function withdraw(uint256 _amount) public {... */\n    tag_11:\n        /* \"tokenbank.sol\":1097:1098  0 */\n      0x00\n        /* \"tokenbank.sol\":1087:1094  _amount */\n      dup2\n        /* \"tokenbank.sol\":1087:1098  _amount > 0 */\n      gt\n        /* \"tokenbank.sol\":1079:1135  require(_amount > 0, \"Amount must be greater than zero\") */\n      tag_30\n      jumpi\n      mload(0x40)\n      0x08c379a000000000000000000000000000000000000000000000000000000000\n      dup2\n      mstore\n      0x04\n      add\n      tag_31\n      swap1\n      tag_32\n      jump\t// in\n    tag_31:\n      mload(0x40)\n      dup1\n      swap2\n      sub\n      swap1\n      revert\n    tag_30:\n        /* \"tokenbank.sol\":1178:1185  _amount */\n      dup1\n        /* \"tokenbank.sol\":1154:1162  deposits */\n      0x00\n        /* \"tokenbank.sol\":1154:1174  deposits[msg.sender] */\n      dup1\n        /* \"tokenbank.sol\":1163:1173  msg.sender */\n      caller\n        /* \"tokenbank.sol\":1154:1174  deposits[msg.sender] */\n      0xffffffffffffffffffffffffffffffffffffffff\n      and\n      0xffffffffffffffffffffffffffffffffffffffff\n      and\n      dup2\n      mstore\n      0x20\n      add\n      swap1\n      dup2\n      mstore\n      0x20\n      add\n      0x00\n      keccak256\n      sload\n        /* \"tokenbank.sol\":1154:1185  deposits[msg.sender] >= _amount */\n      lt\n      iszero\n        /* \"tokenbank.sol\":1146:1210  require(deposits[msg.sender] >= _amount, \"Insufficient balance\") */\n      tag_33\n      jumpi\n      mload(0x40)\n      0x08c379a000000000000000000000000000000000000000000000000000000000\n      dup2\n      mstore\n      0x04\n      add\n      tag_34\n      swap1\n      tag_35\n      jump\t// in\n    tag_34:\n      mload(0x40)\n      dup1\n      swap2\n      sub\n      swap1\n      revert\n    tag_33:\n        /* \"tokenbank.sol\":1257:1262  token */\n      0x01\n      0x00\n      swap1\n      sload\n      swap1\n      0x0100\n      exp\n      swap1\n      div\n      0xffffffffffffffffffffffffffffffffffffffff\n      and\n        /* \"tokenbank.sol\":1257:1271  token.transfer */\n      0xffffffffffffffffffffffffffffffffffffffff\n      and\n      0xa9059cbb\n        /* \"tokenbank.sol\":1272:1282  msg.sender */\n      caller\n        /* \"tokenbank.sol\":1284:1291  _amount */\n      dup4\n        /* \"tokenbank.sol\":1257:1292  token.transfer(msg.sender, _amount) */\n      mload(0x40)\n      dup4\n      0xffffffff\n      and\n      0xe0\n      shl\n      dup2\n      mstore\n      0x04\n      add\n      tag_36\n      swap3\n      swap2\n      swap1\n      tag_37\n      jump\t// in\n    tag_36:\n      0x20\n      mload(0x40)\n      dup1\n      dup4\n      sub\n      dup2\n      0x00\n      dup8\n      gas\n      call\n      iszero\n      dup1\n      iszero\n      tag_39\n      jumpi\n      returndatasize\n      0x00\n      dup1\n      returndatacopy\n      revert(0x00, returndatasize)\n    tag_39:\n      pop\n      pop\n      pop\n      pop\n      mload(0x40)\n      returndatasize\n      not(0x1f)\n      0x1f\n      dup3\n      add\n      and\n      dup3\n      add\n      dup1\n      0x40\n      mstore\n      pop\n      dup2\n      add\n      swap1\n      tag_40\n      swap2\n      swap1\n      tag_41\n      jump\t// in\n    tag_40:\n        /* \"tokenbank.sol\":1249:1312  require(token.transfer(msg.sender, _amount), \"Transfer failed\") */\n      tag_42\n      jumpi\n      mload(0x40)\n      0x08c379a000000000000000000000000000000000000000000000000000000000\n      dup2\n      mstore\n      0x04\n      add\n      tag_43\n      swap1\n      tag_44\n      jump\t// in\n    tag_43:\n      mload(0x40)\n      dup1\n      swap2\n      sub\n      swap1\n      revert\n    tag_42:\n        /* \"tokenbank.sol\":1395:1402  _amount */\n      dup1\n        /* \"tokenbank.sol\":1371:1379  deposits */\n      0x00\n        /* \"tokenbank.sol\":1371:1391  deposits[msg.sender] */\n      dup1\n        /* \"tokenbank.sol\":1380:1390  msg.sender */\n      caller\n        /* \"tokenbank.sol\":1371:1391  deposits[msg.sender] */\n      0xffffffffffffffffffffffffffffffffffffffff\n      and\n      0xffffffffffffffffffffffffffffffffffffffff\n      and\n      dup2\n      mstore\n      0x20\n      add\n      swap1\n      dup2\n      mstore\n      0x20\n      add\n      0x00\n      keccak256\n      0x00\n        /* \"tokenbank.sol\":1371:1402  deposits[msg.sender] -= _amount */\n      dup3\n      dup3\n      sload\n      tag_45\n      swap2\n      swap1\n      tag_46\n      jump\t// in\n    tag_45:\n      swap3\n      pop\n      pop\n      dup2\n      swap1\n      sstore\n      pop\n        /* \"tokenbank.sol\":1026:1432  function withdraw(uint256 _amount) public {... */\n      pop\n      jump\t// out\n        /* \"tokenbank.sol\":1524:1629  function balanceOf(address _user) public view returns (uint256) {... */\n    tag_15:\n        /* \"tokenbank.sol\":1579:1586  uint256 */\n      0x00\n        /* \"tokenbank.sol\":1606:1614  deposits */\n      dup1\n        /* \"tokenbank.sol\":1606:1621  deposits[_user] */\n      0x00\n        /* \"tokenbank.sol\":1615:1620  _user */\n      dup4\n        /* \"tokenbank.sol\":1606:1621  deposits[_user] */\n      0xffffffffffffffffffffffffffffffffffffffff\n      and\n      0xffffffffffffffffffffffffffffffffffffffff\n      and\n      dup2\n      mstore\n      0x20\n      add\n      swap1\n      dup2\n      mstore\n      0x20\n      add\n      0x00\n      keccak256\n      sload\n        /* \"tokenbank.sol\":1599:1621  return deposits[_user] */\n      swap1\n      pop\n        /* \"tokenbank.sol\":1524:1629  function balanceOf(address _user) public view returns (uint256) {... */\n      swap2\n      swap1\n      pop\n      jump\t// out\n        /* \"tokenbank.sol\":697:1018  function deposit(uint256 _amount) public {... */\n    tag_20:\n        /* \"tokenbank.sol\":767:768  0 */\n      0x00\n        /* \"tokenbank.sol\":757:764  _amount */\n      dup2\n        /* \"tokenbank.sol\":757:768  _amount > 0 */\n      gt\n        /* \"tokenbank.sol\":749:805  require(_amount > 0, \"Amount must be greater than zero\") */\n      tag_49\n      jumpi\n      mload(0x40)\n      0x08c379a000000000000000000000000000000000000000000000000000000000\n      dup2\n      mstore\n      0x04\n      add\n      tag_50\n      swap1\n      tag_32\n      jump\t// in\n    tag_50:\n      mload(0x40)\n      dup1\n      swap2\n      sub\n      swap1\n      revert\n    tag_49:\n        /* \"tokenbank.sol\":824:829  token */\n      0x01\n      0x00\n      swap1\n      sload\n      swap1\n      0x0100\n      exp\n      swap1\n      div\n      0xffffffffffffffffffffffffffffffffffffffff\n      and\n        /* \"tokenbank.sol\":824:842  token.transferFrom */\n      0xffffffffffffffffffffffffffffffffffffffff\n      and\n      0x23b872dd\n        /* \"tokenbank.sol\":843:853  msg.sender */\n      caller\n        /* \"tokenbank.sol\":863:867  this */\n      address\n        /* \"tokenbank.sol\":870:877  _amount */\n      dup5\n        /* \"tokenbank.sol\":824:878  token.transferFrom(msg.sender, address(this), _amount) */\n      mload(0x40)\n      dup5\n      0xffffffff\n      and\n      0xe0\n      shl\n      dup2\n      mstore\n      0x04\n      add\n      tag_51\n      swap4\n      swap3\n      swap2\n      swap1\n      tag_52\n      jump\t// in\n    tag_51:\n      0x20\n      mload(0x40)\n      dup1\n      dup4\n      sub\n      dup2\n      0x00\n      dup8\n      gas\n      call\n      iszero\n      dup1\n      iszero\n      tag_54\n      jumpi\n      returndatasize\n      0x00\n      dup1\n      returndatacopy\n      revert(0x00, returndatasize)\n    tag_54:\n      pop\n      pop\n      pop\n      pop\n      mload(0x40)\n      returndatasize\n      not(0x1f)\n      0x1f\n      dup3\n      add\n      and\n      dup3\n      add\n      dup1\n      0x40\n      mstore\n      pop\n      dup2\n      add\n      swap1\n      tag_55\n      swap2\n      swap1\n      tag_41\n      jump\t// in\n    tag_55:\n        /* \"tokenbank.sol\":816:898  require(token.transferFrom(msg.sender, address(this), _amount), \"Transfer failed\") */\n      tag_56\n      jumpi\n      mload(0x40)\n      0x08c379a000000000000000000000000000000000000000000000000000000000\n      dup2\n      mstore\n      0x04\n      add\n      tag_57\n      swap1\n      tag_44\n      jump\t// in\n    tag_57:\n      mload(0x40)\n      dup1\n      swap2\n      sub\n      swap1\n      revert\n    tag_56:\n        /* \"tokenbank.sol\":981:988  _amount */\n      dup1\n        /* \"tokenbank.sol\":957:965  deposits */\n      0x00\n        /* \"tokenbank.sol\":957:977  deposits[msg.sender] */\n      dup1\n        /* \"tokenbank.sol\":966:976  msg.sender */\n      caller\n        /* \"tokenbank.sol\":957:977  deposits[msg.sender] */\n      0xffffffffffffffffffffffffffffffffffffffff\n      and\n      0xffffffffffffffffffffffffffffffffffffffff\n      and\n      dup2\n      mstore\n      0x20\n      add\n      swap1\n      dup2\n      mstore\n      0x20\n      add\n      0x00\n      keccak256\n      0x00\n        /* \"tokenbank.sol\":957:988  deposits[msg.sender] += _amount */\n      dup3\n      dup3\n      sload\n      tag_58\n      swap2\n      swap1\n      tag_59\n      jump\t// in\n    tag_58:\n      swap3\n      pop\n      pop\n      dup2\n      swap1\n      sstore\n      pop\n        /* \"tokenbank.sol\":697:1018  function deposit(uint256 _amount) public {... */\n      pop\n      jump\t// out\n        /* \"tokenbank.sol\":521:543  BaseERC20 public token */\n    tag_22:\n      0x01\n      0x00\n      swap1\n      sload\n      swap1\n      0x0100\n      exp\n      swap1\n      div\n      0xffffffffffffffffffffffffffffffffffffffff\n      and\n      dup2\n      jump\t// out\n        /* \"tokenbank.sol\":434:477  mapping(address => uint256) public deposits */\n    tag_27:\n      mstore(0x20, 0x00)\n      dup1\n      0x00\n      mstore\n      keccak256(0x00, 0x40)\n      0x00\n      swap2\n      pop\n      swap1\n      pop\n      sload\n      dup2\n      jump\t// out\n        /* \"#utility.yul\":88:205   */\n    tag_61:\n        /* \"#utility.yul\":197:198   */\n      0x00\n        /* \"#utility.yul\":194:195   */\n      dup1\n        /* \"#utility.yul\":187:199   */\n      revert\n        /* \"#utility.yul\":334:411   */\n    tag_63:\n        /* \"#utility.yul\":371:378   */\n      0x00\n        /* \"#utility.yul\":400:405   */\n      dup2\n        /* \"#utility.yul\":389:405   */\n      swap1\n      pop\n        /* \"#utility.yul\":334:411   */\n      swap2\n      swap1\n      pop\n      jump\t// out\n        /* \"#utility.yul\":417:539   */\n    tag_64:\n        /* \"#utility.yul\":490:514   */\n      tag_94\n        /* \"#utility.yul\":508:513   */\n      dup2\n        /* \"#utility.yul\":490:514   */\n      tag_63\n      jump\t// in\n    tag_94:\n        /* \"#utility.yul\":483:488   */\n      dup2\n        /* \"#utility.yul\":480:515   */\n      eq\n        /* \"#utility.yul\":470:533   */\n      tag_95\n      jumpi\n        /* \"#utility.yul\":529:530   */\n      0x00\n        /* \"#utility.yul\":526:527   */\n      dup1\n        /* \"#utility.yul\":519:531   */\n      revert\n        /* \"#utility.yul\":470:533   */\n    tag_95:\n        /* \"#utility.yul\":417:539   */\n      pop\n      jump\t// out\n        /* \"#utility.yul\":545:684   */\n    tag_65:\n        /* \"#utility.yul\":591:596   */\n      0x00\n        /* \"#utility.yul\":629:635   */\n      dup2\n        /* \"#utility.yul\":616:636   */\n      calldataload\n        /* \"#utility.yul\":607:636   */\n      swap1\n      pop\n        /* \"#utility.yul\":645:678   */\n      tag_97\n        /* \"#utility.yul\":672:677   */\n      dup2\n        /* \"#utility.yul\":645:678   */\n      tag_64\n      jump\t// in\n    tag_97:\n        /* \"#utility.yul\":545:684   */\n      swap3\n      swap2\n      pop\n      pop\n      jump\t// out\n        /* \"#utility.yul\":690:1019   */\n    tag_10:\n        /* \"#utility.yul\":749:755   */\n      0x00\n        /* \"#utility.yul\":798:800   */\n      0x20\n        /* \"#utility.yul\":786:795   */\n      dup3\n        /* \"#utility.yul\":777:784   */\n      dup5\n        /* \"#utility.yul\":773:796   */\n      sub\n        /* \"#utility.yul\":769:801   */\n      slt\n        /* \"#utility.yul\":766:885   */\n      iszero\n      tag_99\n      jumpi\n        /* \"#utility.yul\":804:883   */\n      tag_100\n      tag_61\n      jump\t// in\n    tag_100:\n        /* \"#utility.yul\":766:885   */\n    tag_99:\n        /* \"#utility.yul\":924:925   */\n      0x00\n        /* \"#utility.yul\":949:1002   */\n      tag_101\n        /* \"#utility.yul\":994:1001   */\n      dup5\n        /* \"#utility.yul\":985:991   */\n      dup3\n        /* \"#utility.yul\":974:983   */\n      dup6\n        /* \"#utility.yul\":970:992   */\n      add\n        /* \"#utility.yul\":949:1002   */\n      tag_65\n      jump\t// in\n    tag_101:\n        /* \"#utility.yul\":939:1002   */\n      swap2\n      pop\n        /* \"#utility.yul\":895:1012   */\n      pop\n        /* \"#utility.yul\":690:1019   */\n      swap3\n      swap2\n      pop\n      pop\n      jump\t// out\n        /* \"#utility.yul\":1025:1151   */\n    tag_66:\n        /* \"#utility.yul\":1062:1069   */\n      0x00\n        /* \"#utility.yul\":1102:1144   */\n      0xffffffffffffffffffffffffffffffffffffffff\n        /* \"#utility.yul\":1095:1100   */\n      dup3\n        /* \"#utility.yul\":1091:1145   */\n      and\n        /* \"#utility.yul\":1080:1145   */\n      swap1\n      pop\n        /* \"#utility.yul\":1025:1151   */\n      swap2\n      swap1\n      pop\n      jump\t// out\n        /* \"#utility.yul\":1157:1253   */\n    tag_67:\n        /* \"#utility.yul\":1194:1201   */\n      0x00\n        /* \"#utility.yul\":1223:1247   */\n      tag_104\n        /* \"#utility.yul\":1241:1246   */\n      dup3\n        /* \"#utility.yul\":1223:1247   */\n      tag_66\n      jump\t// in\n    tag_104:\n        /* \"#utility.yul\":1212:1247   */\n      swap1\n      pop\n        /* \"#utility.yul\":1157:1253   */\n      swap2\n      swap1\n      pop\n      jump\t// out\n        /* \"#utility.yul\":1259:1381   */\n    tag_68:\n        /* \"#utility.yul\":1332:1356   */\n      tag_106\n        /* \"#utility.yul\":1350:1355   */\n      dup2\n        /* \"#utility.yul\":1332:1356   */\n      tag_67\n      jump\t// in\n    tag_106:\n        /* \"#utility.yul\":1325:1330   */\n      dup2\n        /* \"#utility.yul\":1322:1357   */\n      eq\n        /* \"#utility.yul\":1312:1375   */\n      tag_107\n      jumpi\n        /* \"#utility.yul\":1371:1372   */\n      0x00\n        /* \"#utility.yul\":1368:1369   */\n      dup1\n        /* \"#utility.yul\":1361:1373   */\n      revert\n        /* \"#utility.yul\":1312:1375   */\n    tag_107:\n        /* \"#utility.yul\":1259:1381   */\n      pop\n      jump\t// out\n        /* \"#utility.yul\":1387:1526   */\n    tag_69:\n        /* \"#utility.yul\":1433:1438   */\n      0x00\n        /* \"#utility.yul\":1471:1477   */\n      dup2\n        /* \"#utility.yul\":1458:1478   */\n      calldataload\n        /* \"#utility.yul\":1449:1478   */\n      swap1\n      pop\n        /* \"#utility.yul\":1487:1520   */\n      tag_109\n        /* \"#utility.yul\":1514:1519   */\n      dup2\n        /* \"#utility.yul\":1487:1520   */\n      tag_68\n      jump\t// in\n    tag_109:\n        /* \"#utility.yul\":1387:1526   */\n      swap3\n      swap2\n      pop\n      pop\n      jump\t// out\n        /* \"#utility.yul\":1532:1861   */\n    tag_14:\n        /* \"#utility.yul\":1591:1597   */\n      0x00\n        /* \"#utility.yul\":1640:1642   */\n      0x20\n        /* \"#utility.yul\":1628:1637   */\n      dup3\n        /* \"#utility.yul\":1619:1626   */\n      dup5\n        /* \"#utility.yul\":1615:1638   */\n      sub\n        /* \"#utility.yul\":1611:1643   */\n      slt\n        /* \"#utility.yul\":1608:1727   */\n      iszero\n      tag_111\n      jumpi\n        /* \"#utility.yul\":1646:1725   */\n      tag_112\n      tag_61\n      jump\t// in\n    tag_112:\n        /* \"#utility.yul\":1608:1727   */\n    tag_111:\n        /* \"#utility.yul\":1766:1767   */\n      0x00\n        /* \"#utility.yul\":1791:1844   */\n      tag_113\n        /* \"#utility.yul\":1836:1843   */\n      dup5\n        /* \"#utility.yul\":1827:1833   */\n      dup3\n        /* \"#utility.yul\":1816:1825   */\n      dup6\n        /* \"#utility.yul\":1812:1834   */\n      add\n        /* \"#utility.yul\":1791:1844   */\n      tag_69\n      jump\t// in\n    tag_113:\n        /* \"#utility.yul\":1781:1844   */\n      swap2\n      pop\n        /* \"#utility.yul\":1737:1854   */\n      pop\n        /* \"#utility.yul\":1532:1861   */\n      swap3\n      swap2\n      pop\n      pop\n      jump\t// out\n        /* \"#utility.yul\":1867:1985   */\n    tag_70:\n        /* \"#utility.yul\":1954:1978   */\n      tag_115\n        /* \"#utility.yul\":1972:1977   */\n      dup2\n        /* \"#utility.yul\":1954:1978   */\n      tag_63\n      jump\t// in\n    tag_115:\n        /* \"#utility.yul\":1949:1952   */\n      dup3\n        /* \"#utility.yul\":1942:1979   */\n      mstore\n        /* \"#utility.yul\":1867:1985   */\n      pop\n      pop\n      jump\t// out\n        /* \"#utility.yul\":1991:2213   */\n    tag_17:\n        /* \"#utility.yul\":2084:2088   */\n      0x00\n        /* \"#utility.yul\":2122:2124   */\n      0x20\n        /* \"#utility.yul\":2111:2120   */\n      dup3\n        /* \"#utility.yul\":2107:2125   */\n      add\n        /* \"#utility.yul\":2099:2125   */\n      swap1\n      pop\n        /* \"#utility.yul\":2135:2206   */\n      tag_117\n        /* \"#utility.yul\":2203:2204   */\n      0x00\n        /* \"#utility.yul\":2192:2201   */\n      dup4\n        /* \"#utility.yul\":2188:2205   */\n      add\n        /* \"#utility.yul\":2179:2185   */\n      dup5\n        /* \"#utility.yul\":2135:2206   */\n      tag_70\n      jump\t// in\n    tag_117:\n        /* \"#utility.yul\":1991:2213   */\n      swap3\n      swap2\n      pop\n      pop\n      jump\t// out\n        /* \"#utility.yul\":2219:2279   */\n    tag_71:\n        /* \"#utility.yul\":2247:2250   */\n      0x00\n        /* \"#utility.yul\":2268:2273   */\n      dup2\n        /* \"#utility.yul\":2261:2273   */\n      swap1\n      pop\n        /* \"#utility.yul\":2219:2279   */\n      swap2\n      swap1\n      pop\n      jump\t// out\n        /* \"#utility.yul\":2285:2427   */\n    tag_72:\n        /* \"#utility.yul\":2335:2344   */\n      0x00\n        /* \"#utility.yul\":2368:2421   */\n      tag_120\n        /* \"#utility.yul\":2386:2420   */\n      tag_121\n        /* \"#utility.yul\":2395:2419   */\n      tag_122\n        /* \"#utility.yul\":2413:2418   */\n      dup5\n        /* \"#utility.yul\":2395:2419   */\n      tag_66\n      jump\t// in\n    tag_122:\n        /* \"#utility.yul\":2386:2420   */\n      tag_71\n      jump\t// in\n    tag_121:\n        /* \"#utility.yul\":2368:2421   */\n      tag_66\n      jump\t// in\n    tag_120:\n        /* \"#utility.yul\":2355:2421   */\n      swap1\n      pop\n        /* \"#utility.yul\":2285:2427   */\n      swap2\n      swap1\n      pop\n      jump\t// out\n        /* \"#utility.yul\":2433:2559   */\n    tag_73:\n        /* \"#utility.yul\":2483:2492   */\n      0x00\n        /* \"#utility.yul\":2516:2553   */\n      tag_124\n        /* \"#utility.yul\":2547:2552   */\n      dup3\n        /* \"#utility.yul\":2516:2553   */\n      tag_72\n      jump\t// in\n    tag_124:\n        /* \"#utility.yul\":2503:2553   */\n      swap1\n      pop\n        /* \"#utility.yul\":2433:2559   */\n      swap2\n      swap1\n      pop\n      jump\t// out\n        /* \"#utility.yul\":2565:2708   */\n    tag_74:\n        /* \"#utility.yul\":2632:2641   */\n      0x00\n        /* \"#utility.yul\":2665:2702   */\n      tag_126\n        /* \"#utility.yul\":2696:2701   */\n      dup3\n        /* \"#utility.yul\":2665:2702   */\n      tag_73\n      jump\t// in\n    tag_126:\n        /* \"#utility.yul\":2652:2702   */\n      swap1\n      pop\n        /* \"#utility.yul\":2565:2708   */\n      swap2\n      swap1\n      pop\n      jump\t// out\n        /* \"#utility.yul\":2714:2879   */\n    tag_75:\n        /* \"#utility.yul\":2818:2872   */\n      tag_128\n        /* \"#utility.yul\":2866:2871   */\n      dup2\n        /* \"#utility.yul\":2818:2872   */\n      tag_74\n      jump\t// in\n    tag_128:\n        /* \"#utility.yul\":2813:2816   */\n      dup3\n        /* \"#utility.yul\":2806:2873   */\n      mstore\n        /* \"#utility.yul\":2714:2879   */\n      pop\n      pop\n      jump\t// out\n        /* \"#utility.yul\":2885:3141   */\n    tag_24:\n        /* \"#utility.yul\":2995:2999   */\n      0x00\n        /* \"#utility.yul\":3033:3035   */\n      0x20\n        /* \"#utility.yul\":3022:3031   */\n      dup3\n        /* \"#utility.yul\":3018:3036   */\n      add\n        /* \"#utility.yul\":3010:3036   */\n      swap1\n      pop\n        /* \"#utility.yul\":3046:3134   */\n      tag_130\n        /* \"#utility.yul\":3131:3132   */\n      0x00\n        /* \"#utility.yul\":3120:3129   */\n      dup4\n        /* \"#utility.yul\":3116:3133   */\n      add\n        /* \"#utility.yul\":3107:3113   */\n      dup5\n        /* \"#utility.yul\":3046:3134   */\n      tag_75\n      jump\t// in\n    tag_130:\n        /* \"#utility.yul\":2885:3141   */\n      swap3\n      swap2\n      pop\n      pop\n      jump\t// out\n        /* \"#utility.yul\":3147:3316   */\n    tag_76:\n        /* \"#utility.yul\":3231:3242   */\n      0x00\n        /* \"#utility.yul\":3265:3271   */\n      dup3\n        /* \"#utility.yul\":3260:3263   */\n      dup3\n        /* \"#utility.yul\":3253:3272   */\n      mstore\n        /* \"#utility.yul\":3305:3309   */\n      0x20\n        /* \"#utility.yul\":3300:3303   */\n      dup3\n        /* \"#utility.yul\":3296:3310   */\n      add\n        /* \"#utility.yul\":3281:3310   */\n      swap1\n      pop\n        /* \"#utility.yul\":3147:3316   */\n      swap3\n      swap2\n      pop\n      pop\n      jump\t// out\n        /* \"#utility.yul\":3322:3504   */\n    tag_77:\n        /* \"#utility.yul\":3462:3496   */\n      0x416d6f756e74206d7573742062652067726561746572207468616e207a65726f\n        /* \"#utility.yul\":3458:3459   */\n      0x00\n        /* \"#utility.yul\":3450:3456   */\n      dup3\n        /* \"#utility.yul\":3446:3460   */\n      add\n        /* \"#utility.yul\":3439:3497   */\n      mstore\n        /* \"#utility.yul\":3322:3504   */\n      pop\n      jump\t// out\n        /* \"#utility.yul\":3510:3876   */\n    tag_78:\n        /* \"#utility.yul\":3652:3655   */\n      0x00\n        /* \"#utility.yul\":3673:3740   */\n      tag_134\n        /* \"#utility.yul\":3737:3739   */\n      0x20\n        /* \"#utility.yul\":3732:3735   */\n      dup4\n        /* \"#utility.yul\":3673:3740   */\n      tag_76\n      jump\t// in\n    tag_134:\n        /* \"#utility.yul\":3666:3740   */\n      swap2\n      pop\n        /* \"#utility.yul\":3749:3842   */\n      tag_135\n        /* \"#utility.yul\":3838:3841   */\n      dup3\n        /* \"#utility.yul\":3749:3842   */\n      tag_77\n      jump\t// in\n    tag_135:\n        /* \"#utility.yul\":3867:3869   */\n      0x20\n        /* \"#utility.yul\":3862:3865   */\n      dup3\n        /* \"#utility.yul\":3858:3870   */\n      add\n        /* \"#utility.yul\":3851:3870   */\n      swap1\n      pop\n        /* \"#utility.yul\":3510:3876   */\n      swap2\n      swap1\n      pop\n      jump\t// out\n        /* \"#utility.yul\":3882:4301   */\n    tag_32:\n        /* \"#utility.yul\":4048:4052   */\n      0x00\n        /* \"#utility.yul\":4086:4088   */\n      0x20\n        /* \"#utility.yul\":4075:4084   */\n      dup3\n        /* \"#utility.yul\":4071:4089   */\n      add\n        /* \"#utility.yul\":4063:4089   */\n      swap1\n      pop\n        /* \"#utility.yul\":4135:4144   */\n      dup2\n        /* \"#utility.yul\":4129:4133   */\n      dup2\n        /* \"#utility.yul\":4125:4145   */\n      sub\n        /* \"#utility.yul\":4121:4122   */\n      0x00\n        /* \"#utility.yul\":4110:4119   */\n      dup4\n        /* \"#utility.yul\":4106:4123   */\n      add\n        /* \"#utility.yul\":4099:4146   */\n      mstore\n        /* \"#utility.yul\":4163:4294   */\n      tag_137\n        /* \"#utility.yul\":4289:4293   */\n      dup2\n        /* \"#utility.yul\":4163:4294   */\n      tag_78\n      jump\t// in\n    tag_137:\n        /* \"#utility.yul\":4155:4294   */\n      swap1\n      pop\n        /* \"#utility.yul\":3882:4301   */\n      swap2\n      swap1\n      pop\n      jump\t// out\n        /* \"#utility.yul\":4307:4477   */\n    tag_79:\n        /* \"#utility.yul\":4447:4469   */\n      0x496e73756666696369656e742062616c616e6365000000000000000000000000\n        /* \"#utility.yul\":4443:4444   */\n      0x00\n        /* \"#utility.yul\":4435:4441   */\n      dup3\n        /* \"#utility.yul\":4431:4445   */\n      add\n        /* \"#utility.yul\":4424:4470   */\n      mstore\n        /* \"#utility.yul\":4307:4477   */\n      pop\n      jump\t// out\n        /* \"#utility.yul\":4483:4849   */\n    tag_80:\n        /* \"#utility.yul\":4625:4628   */\n      0x00\n        /* \"#utility.yul\":4646:4713   */\n      tag_140\n        /* \"#utility.yul\":4710:4712   */\n      0x14\n        /* \"#utility.yul\":4705:4708   */\n      dup4\n        /* \"#utility.yul\":4646:4713   */\n      tag_76\n      jump\t// in\n    tag_140:\n        /* \"#utility.yul\":4639:4713   */\n      swap2\n      pop\n        /* \"#utility.yul\":4722:4815   */\n      tag_141\n        /* \"#utility.yul\":4811:4814   */\n      dup3\n        /* \"#utility.yul\":4722:4815   */\n      tag_79\n      jump\t// in\n    tag_141:\n        /* \"#utility.yul\":4840:4842   */\n      0x20\n        /* \"#utility.yul\":4835:4838   */\n      dup3\n        /* \"#utility.yul\":4831:4843   */\n      add\n        /* \"#utility.yul\":4824:4843   */\n      swap1\n      pop\n        /* \"#utility.yul\":4483:4849   */\n      swap2\n      swap1\n      pop\n      jump\t// out\n        /* \"#utility.yul\":4855:5274   */\n    tag_35:\n        /* \"#utility.yul\":5021:5025   */\n      0x00\n        /* \"#utility.yul\":5059:5061   */\n      0x20\n        /* \"#utility.yul\":5048:5057   */\n      dup3\n        /* \"#utility.yul\":5044:5062   */\n      add\n        /* \"#utility.yul\":5036:5062   */\n      swap1\n      pop\n        /* \"#utility.yul\":5108:5117   */\n      dup2\n        /* \"#utility.yul\":5102:5106   */\n      dup2\n        /* \"#utility.yul\":5098:5118   */\n      sub\n        /* \"#utility.yul\":5094:5095   */\n      0x00\n        /* \"#utility.yul\":5083:5092   */\n      dup4\n        /* \"#utility.yul\":5079:5096   */\n      add\n        /* \"#utility.yul\":5072:5119   */\n      mstore\n        /* \"#utility.yul\":5136:5267   */\n      tag_143\n        /* \"#utility.yul\":5262:5266   */\n      dup2\n        /* \"#utility.yul\":5136:5267   */\n      tag_80\n      jump\t// in\n    tag_143:\n        /* \"#utility.yul\":5128:5267   */\n      swap1\n      pop\n        /* \"#utility.yul\":4855:5274   */\n      swap2\n      swap1\n      pop\n      jump\t// out\n        /* \"#utility.yul\":5280:5398   */\n    tag_81:\n        /* \"#utility.yul\":5367:5391   */\n      tag_145\n        /* \"#utility.yul\":5385:5390   */\n      dup2\n        /* \"#utility.yul\":5367:5391   */\n      tag_67\n      jump\t// in\n    tag_145:\n        /* \"#utility.yul\":5362:5365   */\n      dup3\n        /* \"#utility.yul\":5355:5392   */\n      mstore\n        /* \"#utility.yul\":5280:5398   */\n      pop\n      pop\n      jump\t// out\n        /* \"#utility.yul\":5404:5736   */\n    tag_37:\n        /* \"#utility.yul\":5525:5529   */\n      0x00\n        /* \"#utility.yul\":5563:5565   */\n      0x40\n        /* \"#utility.yul\":5552:5561   */\n      dup3\n        /* \"#utility.yul\":5548:5566   */\n      add\n        /* \"#utility.yul\":5540:5566   */\n      swap1\n      pop\n        /* \"#utility.yul\":5576:5647   */\n      tag_147\n        /* \"#utility.yul\":5644:5645   */\n      0x00\n        /* \"#utility.yul\":5633:5642   */\n      dup4\n        /* \"#utility.yul\":5629:5646   */\n      add\n        /* \"#utility.yul\":5620:5626   */\n      dup6\n        /* \"#utility.yul\":5576:5647   */\n      tag_81\n      jump\t// in\n    tag_147:\n        /* \"#utility.yul\":5657:5729   */\n      tag_148\n        /* \"#utility.yul\":5725:5727   */\n      0x20\n        /* \"#utility.yul\":5714:5723   */\n      dup4\n        /* \"#utility.yul\":5710:5728   */\n      add\n        /* \"#utility.yul\":5701:5707   */\n      dup5\n        /* \"#utility.yul\":5657:5729   */\n      tag_70\n      jump\t// in\n    tag_148:\n        /* \"#utility.yul\":5404:5736   */\n      swap4\n      swap3\n      pop\n      pop\n      pop\n      jump\t// out\n        /* \"#utility.yul\":5742:5832   */\n    tag_82:\n        /* \"#utility.yul\":5776:5783   */\n      0x00\n        /* \"#utility.yul\":5819:5824   */\n      dup2\n        /* \"#utility.yul\":5812:5825   */\n      iszero\n        /* \"#utility.yul\":5805:5826   */\n      iszero\n        /* \"#utility.yul\":5794:5826   */\n      swap1\n      pop\n        /* \"#utility.yul\":5742:5832   */\n      swap2\n      swap1\n      pop\n      jump\t// out\n        /* \"#utility.yul\":5838:5954   */\n    tag_83:\n        /* \"#utility.yul\":5908:5929   */\n      tag_151\n        /* \"#utility.yul\":5923:5928   */\n      dup2\n        /* \"#utility.yul\":5908:5929   */\n      tag_82\n      jump\t// in\n    tag_151:\n        /* \"#utility.yul\":5901:5906   */\n      dup2\n        /* \"#utility.yul\":5898:5930   */\n      eq\n        /* \"#utility.yul\":5888:5948   */\n      tag_152\n      jumpi\n        /* \"#utility.yul\":5944:5945   */\n      0x00\n        /* \"#utility.yul\":5941:5942   */\n      dup1\n        /* \"#utility.yul\":5934:5946   */\n      revert\n        /* \"#utility.yul\":5888:5948   */\n    tag_152:\n        /* \"#utility.yul\":5838:5954   */\n      pop\n      jump\t// out\n        /* \"#utility.yul\":5960:6097   */\n    tag_84:\n        /* \"#utility.yul\":6014:6019   */\n      0x00\n        /* \"#utility.yul\":6045:6051   */\n      dup2\n        /* \"#utility.yul\":6039:6052   */\n      mload\n        /* \"#utility.yul\":6030:6052   */\n      swap1\n      pop\n        /* \"#utility.yul\":6061:6091   */\n      tag_154\n        /* \"#utility.yul\":6085:6090   */\n      dup2\n        /* \"#utility.yul\":6061:6091   */\n      tag_83\n      jump\t// in\n    tag_154:\n        /* \"#utility.yul\":5960:6097   */\n      swap3\n      swap2\n      pop\n      pop\n      jump\t// out\n        /* \"#utility.yul\":6103:6448   */\n    tag_41:\n        /* \"#utility.yul\":6170:6176   */\n      0x00\n        /* \"#utility.yul\":6219:6221   */\n      0x20\n        /* \"#utility.yul\":6207:6216   */\n      dup3\n        /* \"#utility.yul\":6198:6205   */\n      dup5\n        /* \"#utility.yul\":6194:6217   */\n      sub\n        /* \"#utility.yul\":6190:6222   */\n      slt\n        /* \"#utility.yul\":6187:6306   */\n      iszero\n      tag_156\n      jumpi\n        /* \"#utility.yul\":6225:6304   */\n      tag_157\n      tag_61\n      jump\t// in\n    tag_157:\n        /* \"#utility.yul\":6187:6306   */\n    tag_156:\n        /* \"#utility.yul\":6345:6346   */\n      0x00\n        /* \"#utility.yul\":6370:6431   */\n      tag_158\n        /* \"#utility.yul\":6423:6430   */\n      dup5\n        /* \"#utility.yul\":6414:6420   */\n      dup3\n        /* \"#utility.yul\":6403:6412   */\n      dup6\n        /* \"#utility.yul\":6399:6421   */\n      add\n        /* \"#utility.yul\":6370:6431   */\n      tag_84\n      jump\t// in\n    tag_158:\n        /* \"#utility.yul\":6360:6431   */\n      swap2\n      pop\n        /* \"#utility.yul\":6316:6441   */\n      pop\n        /* \"#utility.yul\":6103:6448   */\n      swap3\n      swap2\n      pop\n      pop\n      jump\t// out\n        /* \"#utility.yul\":6454:6619   */\n    tag_85:\n        /* \"#utility.yul\":6594:6611   */\n      0x5472616e73666572206661696c65640000000000000000000000000000000000\n        /* \"#utility.yul\":6590:6591   */\n      0x00\n        /* \"#utility.yul\":6582:6588   */\n      dup3\n        /* \"#utility.yul\":6578:6592   */\n      add\n        /* \"#utility.yul\":6571:6612   */\n      mstore\n        /* \"#utility.yul\":6454:6619   */\n      pop\n      jump\t// out\n        /* \"#utility.yul\":6625:6991   */\n    tag_86:\n        /* \"#utility.yul\":6767:6770   */\n      0x00\n        /* \"#utility.yul\":6788:6855   */\n      tag_161\n        /* \"#utility.yul\":6852:6854   */\n      0x0f\n        /* \"#utility.yul\":6847:6850   */\n      dup4\n        /* \"#utility.yul\":6788:6855   */\n      tag_76\n      jump\t// in\n    tag_161:\n        /* \"#utility.yul\":6781:6855   */\n      swap2\n      pop\n        /* \"#utility.yul\":6864:6957   */\n      tag_162\n        /* \"#utility.yul\":6953:6956   */\n      dup3\n        /* \"#utility.yul\":6864:6957   */\n      tag_85\n      jump\t// in\n    tag_162:\n        /* \"#utility.yul\":6982:6984   */\n      0x20\n        /* \"#utility.yul\":6977:6980   */\n      dup3\n        /* \"#utility.yul\":6973:6985   */\n      add\n        /* \"#utility.yul\":6966:6985   */\n      swap1\n      pop\n        /* \"#utility.yul\":6625:6991   */\n      swap2\n      swap1\n      pop\n      jump\t// out\n        /* \"#utility.yul\":6997:7416   */\n    tag_44:\n        /* \"#utility.yul\":7163:7167   */\n      0x00\n        /* \"#utility.yul\":7201:7203   */\n      0x20\n        /* \"#utility.yul\":7190:7199   */\n      dup3\n        /* \"#utility.yul\":7186:7204   */\n      add\n        /* \"#utility.yul\":7178:7204   */\n      swap1\n      pop\n        /* \"#utility.yul\":7250:7259   */\n      dup2\n        /* \"#utility.yul\":7244:7248   */\n      dup2\n        /* \"#utility.yul\":7240:7260   */\n      sub\n        /* \"#utility.yul\":7236:7237   */\n      0x00\n        /* \"#utility.yul\":7225:7234   */\n      dup4\n        /* \"#utility.yul\":7221:7238   */\n      add\n        /* \"#utility.yul\":7214:7261   */\n      mstore\n        /* \"#utility.yul\":7278:7409   */\n      tag_164\n        /* \"#utility.yul\":7404:7408   */\n      dup2\n        /* \"#utility.yul\":7278:7409   */\n      tag_86\n      jump\t// in\n    tag_164:\n        /* \"#utility.yul\":7270:7409   */\n      swap1\n      pop\n        /* \"#utility.yul\":6997:7416   */\n      swap2\n      swap1\n      pop\n      jump\t// out\n        /* \"#utility.yul\":7422:7602   */\n    tag_87:\n        /* \"#utility.yul\":7470:7547   */\n      0x4e487b7100000000000000000000000000000000000000000000000000000000\n        /* \"#utility.yul\":7467:7468   */\n      0x00\n        /* \"#utility.yul\":7460:7548   */\n      mstore\n        /* \"#utility.yul\":7567:7571   */\n      0x11\n        /* \"#utility.yul\":7564:7565   */\n      0x04\n        /* \"#utility.yul\":7557:7572   */\n      mstore\n        /* \"#utility.yul\":7591:7595   */\n      0x24\n        /* \"#utility.yul\":7588:7589   */\n      0x00\n        /* \"#utility.yul\":7581:7596   */\n      revert\n        /* \"#utility.yul\":7608:7802   */\n    tag_46:\n        /* \"#utility.yul\":7648:7652   */\n      0x00\n        /* \"#utility.yul\":7668:7688   */\n      tag_167\n        /* \"#utility.yul\":7686:7687   */\n      dup3\n        /* \"#utility.yul\":7668:7688   */\n      tag_63\n      jump\t// in\n    tag_167:\n        /* \"#utility.yul\":7663:7688   */\n      swap2\n      pop\n        /* \"#utility.yul\":7702:7722   */\n      tag_168\n        /* \"#utility.yul\":7720:7721   */\n      dup4\n        /* \"#utility.yul\":7702:7722   */\n      tag_63\n      jump\t// in\n    tag_168:\n        /* \"#utility.yul\":7697:7722   */\n      swap3\n      pop\n        /* \"#utility.yul\":7746:7747   */\n      dup3\n        /* \"#utility.yul\":7743:7744   */\n      dup3\n        /* \"#utility.yul\":7739:7748   */\n      sub\n        /* \"#utility.yul\":7731:7748   */\n      swap1\n      pop\n        /* \"#utility.yul\":7770:7771   */\n      dup2\n        /* \"#utility.yul\":7764:7768   */\n      dup2\n        /* \"#utility.yul\":7761:7772   */\n      gt\n        /* \"#utility.yul\":7758:7795   */\n      iszero\n      tag_169\n      jumpi\n        /* \"#utility.yul\":7775:7793   */\n      tag_170\n      tag_87\n      jump\t// in\n    tag_170:\n        /* \"#utility.yul\":7758:7795   */\n    tag_169:\n        /* \"#utility.yul\":7608:7802   */\n      swap3\n      swap2\n      pop\n      pop\n      jump\t// out\n        /* \"#utility.yul\":7808:8250   */\n    tag_52:\n        /* \"#utility.yul\":7957:7961   */\n      0x00\n        /* \"#utility.yul\":7995:7997   */\n      0x60\n        /* \"#utility.yul\":7984:7993   */\n      dup3\n        /* \"#utility.yul\":7980:7998   */\n      add\n        /* \"#utility.yul\":7972:7998   */\n      swap1\n      pop\n        /* \"#utility.yul\":8008:8079   */\n      tag_172\n        /* \"#utility.yul\":8076:8077   */\n      0x00\n        /* \"#utility.yul\":8065:8074   */\n      dup4\n        /* \"#utility.yul\":8061:8078   */\n      add\n        /* \"#utility.yul\":8052:8058   */\n      dup7\n        /* \"#utility.yul\":8008:8079   */\n      tag_81\n      jump\t// in\n    tag_172:\n        /* \"#utility.yul\":8089:8161   */\n      tag_173\n        /* \"#utility.yul\":8157:8159   */\n      0x20\n        /* \"#utility.yul\":8146:8155   */\n      dup4\n        /* \"#utility.yul\":8142:8160   */\n      add\n        /* \"#utility.yul\":8133:8139   */\n      dup6\n        /* \"#utility.yul\":8089:8161   */\n      tag_81\n      jump\t// in\n    tag_173:\n        /* \"#utility.yul\":8171:8243   */\n      tag_174\n        /* \"#utility.yul\":8239:8241   */\n      0x40\n        /* \"#utility.yul\":8228:8237   */\n      dup4\n        /* \"#utility.yul\":8224:8242   */\n      add\n        /* \"#utility.yul\":8215:8221   */\n      dup5\n        /* \"#utility.yul\":8171:8243   */\n      tag_70\n      jump\t// in\n    tag_174:\n        /* \"#utility.yul\":7808:8250   */\n      swap5\n      swap4\n      pop\n      pop\n      pop\n      pop\n      jump\t// out\n        /* \"#utility.yul\":8256:8447   */\n    tag_59:\n        /* \"#utility.yul\":8296:8299   */\n      0x00\n        /* \"#utility.yul\":8315:8335   */\n      tag_176\n        /* \"#utility.yul\":8333:8334   */\n      dup3\n        /* \"#utility.yul\":8315:8335   */\n      tag_63\n      jump\t// in\n    tag_176:\n        /* \"#utility.yul\":8310:8335   */\n      swap2\n      pop\n        /* \"#utility.yul\":8349:8369   */\n      tag_177\n        /* \"#utility.yul\":8367:8368   */\n      dup4\n        /* \"#utility.yul\":8349:8369   */\n      tag_63\n      jump\t// in\n    tag_177:\n        /* \"#utility.yul\":8344:8369   */\n      swap3\n      pop\n        /* \"#utility.yul\":8392:8393   */\n      dup3\n        /* \"#utility.yul\":8389:8390   */\n      dup3\n        /* \"#utility.yul\":8385:8394   */\n      add\n        /* \"#utility.yul\":8378:8394   */\n      swap1\n      pop\n        /* \"#utility.yul\":8413:8416   */\n      dup1\n        /* \"#utility.yul\":8410:8411   */\n      dup3\n        /* \"#utility.yul\":8407:8417   */\n      gt\n        /* \"#utility.yul\":8404:8440   */\n      iszero\n      tag_178\n      jumpi\n        /* \"#utility.yul\":8420:8438   */\n      tag_179\n      tag_87\n      jump\t// in\n    tag_179:\n        /* \"#utility.yul\":8404:8440   */\n    tag_178:\n        /* \"#utility.yul\":8256:8447   */\n      swap3\n      swap2\n      pop\n      pop\n      jump\t// out\n\n    auxdata: 0xa2646970667358221220e942d6959b08133bdd77b3e341693b33105fceea2da4d04c3527b7c9edf15a3164736f6c634300081a0033\n}\n",
				"bytecode": {
					"linkReferences": {},
					"object": "608060405234801561000f575f80fd5b50604051610a5e380380610a5e833981810160405281019061003191906100d5565b8060015f6101000a81548173ffffffffffffffffffffffffffffffffffffffff021916908373ffffffffffffffffffffffffffffffffffffffff16021790555050610100565b5f80fd5b5f73ffffffffffffffffffffffffffffffffffffffff82169050919050565b5f6100a48261007b565b9050919050565b6100b48161009a565b81146100be575f80fd5b50565b5f815190506100cf816100ab565b92915050565b5f602082840312156100ea576100e9610077565b5b5f6100f7848285016100c1565b91505092915050565b6109518061010d5f395ff3fe608060405234801561000f575f80fd5b5060043610610055575f3560e01c80632e1a7d4d1461005957806370a0823114610075578063b6b55f25146100a5578063fc0c546a146100c1578063fc7e286d146100df575b5f80fd5b610073600480360381019061006e9190610529565b61010f565b005b61008f600480360381019061008a91906105ae565b610300565b60405161009c91906105e8565b60405180910390f35b6100bf60048036038101906100ba9190610529565b610345565b005b6100c96104b9565b6040516100d6919061065c565b60405180910390f35b6100f960048036038101906100f491906105ae565b6104de565b60405161010691906105e8565b60405180910390f35b5f8111610151576040517f08c379a0000000000000000000000000000000000000000000000000000000008152600401610148906106cf565b60405180910390fd5b805f803373ffffffffffffffffffffffffffffffffffffffff1673ffffffffffffffffffffffffffffffffffffffff1681526020019081526020015f205410156101d0576040517f08c379a00000000000000000000000000000000000000000000000000000000081526004016101c790610737565b60405180910390fd5b60015f9054906101000a900473ffffffffffffffffffffffffffffffffffffffff1673ffffffffffffffffffffffffffffffffffffffff1663a9059cbb33836040518363ffffffff1660e01b815260040161022c929190610764565b6020604051808303815f875af1158015610248573d5f803e3d5ffd5b505050506040513d601f19601f8201168201806040525081019061026c91906107c0565b6102ab576040517f08c379a00000000000000000000000000000000000000000000000000000000081526004016102a290610835565b60405180910390fd5b805f803373ffffffffffffffffffffffffffffffffffffffff1673ffffffffffffffffffffffffffffffffffffffff1681526020019081526020015f205f8282546102f69190610880565b9250508190555050565b5f805f8373ffffffffffffffffffffffffffffffffffffffff1673ffffffffffffffffffffffffffffffffffffffff1681526020019081526020015f20549050919050565b5f8111610387576040517f08c379a000000000000000000000000000000000000000000000000000000000815260040161037e906106cf565b60405180910390fd5b60015f9054906101000a900473ffffffffffffffffffffffffffffffffffffffff1673ffffffffffffffffffffffffffffffffffffffff166323b872dd3330846040518463ffffffff1660e01b81526004016103e5939291906108b3565b6020604051808303815f875af1158015610401573d5f803e3d5ffd5b505050506040513d601f19601f8201168201806040525081019061042591906107c0565b610464576040517f08c379a000000000000000000000000000000000000000000000000000000000815260040161045b90610835565b60405180910390fd5b805f803373ffffffffffffffffffffffffffffffffffffffff1673ffffffffffffffffffffffffffffffffffffffff1681526020019081526020015f205f8282546104af91906108e8565b9250508190555050565b60015f9054906101000a900473ffffffffffffffffffffffffffffffffffffffff1681565b5f602052805f5260405f205f915090505481565b5f80fd5b5f819050919050565b610508816104f6565b8114610512575f80fd5b50565b5f81359050610523816104ff565b92915050565b5f6020828403121561053e5761053d6104f2565b5b5f61054b84828501610515565b91505092915050565b5f73ffffffffffffffffffffffffffffffffffffffff82169050919050565b5f61057d82610554565b9050919050565b61058d81610573565b8114610597575f80fd5b50565b5f813590506105a881610584565b92915050565b5f602082840312156105c3576105c26104f2565b5b5f6105d08482850161059a565b91505092915050565b6105e2816104f6565b82525050565b5f6020820190506105fb5f8301846105d9565b92915050565b5f819050919050565b5f61062461061f61061a84610554565b610601565b610554565b9050919050565b5f6106358261060a565b9050919050565b5f6106468261062b565b9050919050565b6106568161063c565b82525050565b5f60208201905061066f5f83018461064d565b92915050565b5f82825260208201905092915050565b7f416d6f756e74206d7573742062652067726561746572207468616e207a65726f5f82015250565b5f6106b9602083610675565b91506106c482610685565b602082019050919050565b5f6020820190508181035f8301526106e6816106ad565b9050919050565b7f496e73756666696369656e742062616c616e63650000000000000000000000005f82015250565b5f610721601483610675565b915061072c826106ed565b602082019050919050565b5f6020820190508181035f83015261074e81610715565b9050919050565b61075e81610573565b82525050565b5f6040820190506107775f830185610755565b61078460208301846105d9565b9392505050565b5f8115159050919050565b61079f8161078b565b81146107a9575f80fd5b50565b5f815190506107ba81610796565b92915050565b5f602082840312156107d5576107d46104f2565b5b5f6107e2848285016107ac565b91505092915050565b7f5472616e73666572206661696c656400000000000000000000000000000000005f82015250565b5f61081f600f83610675565b915061082a826107eb565b602082019050919050565b5f6020820190508181035f83015261084c81610813565b9050919050565b7f4e487b71000000000000000000000000000000000000000000000000000000005f52601160045260245ffd5b5f61088a826104f6565b9150610895836104f6565b92508282039050818111156108ad576108ac610853565b5b92915050565b5f6060820190506108c65f830186610755565b6108d36020830185610755565b6108e060408301846105d9565b949350505050565b5f6108f2826104f6565b91506108fd836104f6565b925082820190508082111561091557610914610853565b5b9291505056fea2646970667358221220e942d6959b08133bdd77b3e341693b33105fceea2da4d04c3527b7c9edf15a3164736f6c634300081a0033",
					"opcodes": "PUSH1 0x80 PUSH1 0x40 MSTORE CALLVALUE DUP1 ISZERO PUSH2 0xF JUMPI PUSH0 DUP1 REVERT JUMPDEST POP PUSH1 0x40 MLOAD PUSH2 0xA5E CODESIZE SUB DUP1 PUSH2 0xA5E DUP4 CODECOPY DUP2 DUP2 ADD PUSH1 0x40 MSTORE DUP2 ADD SWAP1 PUSH2 0x31 SWAP2 SWAP1 PUSH2 0xD5 JUMP JUMPDEST DUP1 PUSH1 0x1 PUSH0 PUSH2 0x100 EXP DUP2 SLOAD DUP2 PUSH20 0xFFFFFFFFFFFFFFFFFFFFFFFFFFFFFFFFFFFFFFFF MUL NOT AND SWAP1 DUP4 PUSH20 0xFFFFFFFFFFFFFFFFFFFFFFFFFFFFFFFFFFFFFFFF AND MUL OR SWAP1 SSTORE POP POP PUSH2 0x100 JUMP JUMPDEST PUSH0 DUP1 REVERT JUMPDEST PUSH0 PUSH20 0xFFFFFFFFFFFFFFFFFFFFFFFFFFFFFFFFFFFFFFFF DUP3 AND SWAP1 POP SWAP2 SWAP1 POP JUMP JUMPDEST PUSH0 PUSH2 0xA4 DUP3 PUSH2 0x7B JUMP JUMPDEST SWAP1 POP SWAP2 SWAP1 POP JUMP JUMPDEST PUSH2 0xB4 DUP2 PUSH2 0x9A JUMP JUMPDEST DUP2 EQ PUSH2 0xBE JUMPI PUSH0 DUP1 REVERT JUMPDEST POP JUMP JUMPDEST PUSH0 DUP2 MLOAD SWAP1 POP PUSH2 0xCF DUP2 PUSH2 0xAB JUMP JUMPDEST SWAP3 SWAP2 POP POP JUMP JUMPDEST PUSH0 PUSH1 0x20 DUP3 DUP5 SUB SLT ISZERO PUSH2 0xEA JUMPI PUSH2 0xE9 PUSH2 0x77 JUMP JUMPDEST JUMPDEST PUSH0 PUSH2 0xF7 DUP5 DUP3 DUP6 ADD PUSH2 0xC1 JUMP JUMPDEST SWAP2 POP POP SWAP3 SWAP2 POP POP JUMP JUMPDEST PUSH2 0x951 DUP1 PUSH2 0x10D PUSH0 CODECOPY PUSH0 RETURN INVALID PUSH1 0x80 PUSH1 0x40 MSTORE CALLVALUE DUP1 ISZERO PUSH2 0xF JUMPI PUSH0 DUP1 REVERT JUMPDEST POP PUSH1 0x4 CALLDATASIZE LT PUSH2 0x55 JUMPI PUSH0 CALLDATALOAD PUSH1 0xE0 SHR DUP1 PUSH4 0x2E1A7D4D EQ PUSH2 0x59 JUMPI DUP1 PUSH4 0x70A08231 EQ PUSH2 0x75 JUMPI DUP1 PUSH4 0xB6B55F25 EQ PUSH2 0xA5 JUMPI DUP1 PUSH4 0xFC0C546A EQ PUSH2 0xC1 JUMPI DUP1 PUSH4 0xFC7E286D EQ PUSH2 0xDF JUMPI JUMPDEST PUSH0 DUP1 REVERT JUMPDEST PUSH2 0x73 PUSH1 0x4 DUP1 CALLDATASIZE SUB DUP2 ADD SWAP1 PUSH2 0x6E SWAP2 SWAP1 PUSH2 0x529 JUMP JUMPDEST PUSH2 0x10F JUMP JUMPDEST STOP JUMPDEST PUSH2 0x8F PUSH1 0x4 DUP1 CALLDATASIZE SUB DUP2 ADD SWAP1 PUSH2 0x8A SWAP2 SWAP1 PUSH2 0x5AE JUMP JUMPDEST PUSH2 0x300 JUMP JUMPDEST PUSH1 0x40 MLOAD PUSH2 0x9C SWAP2 SWAP1 PUSH2 0x5E8 JUMP JUMPDEST PUSH1 0x40 MLOAD DUP1 SWAP2 SUB SWAP1 RETURN JUMPDEST PUSH2 0xBF PUSH1 0x4 DUP1 CALLDATASIZE SUB DUP2 ADD SWAP1 PUSH2 0xBA SWAP2 SWAP1 PUSH2 0x529 JUMP JUMPDEST PUSH2 0x345 JUMP JUMPDEST STOP JUMPDEST PUSH2 0xC9 PUSH2 0x4B9 JUMP JUMPDEST PUSH1 0x40 MLOAD PUSH2 0xD6 SWAP2 SWAP1 PUSH2 0x65C JUMP JUMPDEST PUSH1 0x40 MLOAD DUP1 SWAP2 SUB SWAP1 RETURN JUMPDEST PUSH2 0xF9 PUSH1 0x4 DUP1 CALLDATASIZE SUB DUP2 ADD SWAP1 PUSH2 0xF4 SWAP2 SWAP1 PUSH2 0x5AE JUMP JUMPDEST PUSH2 0x4DE JUMP JUMPDEST PUSH1 0x40 MLOAD PUSH2 0x106 SWAP2 SWAP1 PUSH2 0x5E8 JUMP JUMPDEST PUSH1 0x40 MLOAD DUP1 SWAP2 SUB SWAP1 RETURN JUMPDEST PUSH0 DUP2 GT PUSH2 0x151 JUMPI PUSH1 0x40 MLOAD PUSH32 0x8C379A000000000000000000000000000000000000000000000000000000000 DUP2 MSTORE PUSH1 0x4 ADD PUSH2 0x148 SWAP1 PUSH2 0x6CF JUMP JUMPDEST PUSH1 0x40 MLOAD DUP1 SWAP2 SUB SWAP1 REVERT JUMPDEST DUP1 PUSH0 DUP1 CALLER PUSH20 0xFFFFFFFFFFFFFFFFFFFFFFFFFFFFFFFFFFFFFFFF AND PUSH20 0xFFFFFFFFFFFFFFFFFFFFFFFFFFFFFFFFFFFFFFFF AND DUP2 MSTORE PUSH1 0x20 ADD SWAP1 DUP2 MSTORE PUSH1 0x20 ADD PUSH0 KECCAK256 SLOAD LT ISZERO PUSH2 0x1D0 JUMPI PUSH1 0x40 MLOAD PUSH32 0x8C379A000000000000000000000000000000000000000000000000000000000 DUP2 MSTORE PUSH1 0x4 ADD PUSH2 0x1C7 SWAP1 PUSH2 0x737 JUMP JUMPDEST PUSH1 0x40 MLOAD DUP1 SWAP2 SUB SWAP1 REVERT JUMPDEST PUSH1 0x1 PUSH0 SWAP1 SLOAD SWAP1 PUSH2 0x100 EXP SWAP1 DIV PUSH20 0xFFFFFFFFFFFFFFFFFFFFFFFFFFFFFFFFFFFFFFFF AND PUSH20 0xFFFFFFFFFFFFFFFFFFFFFFFFFFFFFFFFFFFFFFFF AND PUSH4 0xA9059CBB CALLER DUP4 PUSH1 0x40 MLOAD DUP4 PUSH4 0xFFFFFFFF AND PUSH1 0xE0 SHL DUP2 MSTORE PUSH1 0x4 ADD PUSH2 0x22C SWAP3 SWAP2 SWAP1 PUSH2 0x764 JUMP JUMPDEST PUSH1 0x20 PUSH1 0x40 MLOAD DUP1 DUP4 SUB DUP2 PUSH0 DUP8 GAS CALL ISZERO DUP1 ISZERO PUSH2 0x248 JUMPI RETURNDATASIZE PUSH0 DUP1 RETURNDATACOPY RETURNDATASIZE PUSH0 REVERT JUMPDEST POP POP POP POP PUSH1 0x40 MLOAD RETURNDATASIZE PUSH1 0x1F NOT PUSH1 0x1F DUP3 ADD AND DUP3 ADD DUP1 PUSH1 0x40 MSTORE POP DUP2 ADD SWAP1 PUSH2 0x26C SWAP2 SWAP1 PUSH2 0x7C0 JUMP JUMPDEST PUSH2 0x2AB JUMPI PUSH1 0x40 MLOAD PUSH32 0x8C379A000000000000000000000000000000000000000000000000000000000 DUP2 MSTORE PUSH1 0x4 ADD PUSH2 0x2A2 SWAP1 PUSH2 0x835 JUMP JUMPDEST PUSH1 0x40 MLOAD DUP1 SWAP2 SUB SWAP1 REVERT JUMPDEST DUP1 PUSH0 DUP1 CALLER PUSH20 0xFFFFFFFFFFFFFFFFFFFFFFFFFFFFFFFFFFFFFFFF AND PUSH20 0xFFFFFFFFFFFFFFFFFFFFFFFFFFFFFFFFFFFFFFFF AND DUP2 MSTORE PUSH1 0x20 ADD SWAP1 DUP2 MSTORE PUSH1 0x20 ADD PUSH0 KECCAK256 PUSH0 DUP3 DUP3 SLOAD PUSH2 0x2F6 SWAP2 SWAP1 PUSH2 0x880 JUMP JUMPDEST SWAP3 POP POP DUP2 SWAP1 SSTORE POP POP JUMP JUMPDEST PUSH0 DUP1 PUSH0 DUP4 PUSH20 0xFFFFFFFFFFFFFFFFFFFFFFFFFFFFFFFFFFFFFFFF AND PUSH20 0xFFFFFFFFFFFFFFFFFFFFFFFFFFFFFFFFFFFFFFFF AND DUP2 MSTORE PUSH1 0x20 ADD SWAP1 DUP2 MSTORE PUSH1 0x20 ADD PUSH0 KECCAK256 SLOAD SWAP1 POP SWAP2 SWAP1 POP JUMP JUMPDEST PUSH0 DUP2 GT PUSH2 0x387 JUMPI PUSH1 0x40 MLOAD PUSH32 0x8C379A000000000000000000000000000000000000000000000000000000000 DUP2 MSTORE PUSH1 0x4 ADD PUSH2 0x37E SWAP1 PUSH2 0x6CF JUMP JUMPDEST PUSH1 0x40 MLOAD DUP1 SWAP2 SUB SWAP1 REVERT JUMPDEST PUSH1 0x1 PUSH0 SWAP1 SLOAD SWAP1 PUSH2 0x100 EXP SWAP1 DIV PUSH20 0xFFFFFFFFFFFFFFFFFFFFFFFFFFFFFFFFFFFFFFFF AND PUSH20 0xFFFFFFFFFFFFFFFFFFFFFFFFFFFFFFFFFFFFFFFF AND PUSH4 0x23B872DD CALLER ADDRESS DUP5 PUSH1 0x40 MLOAD DUP5 PUSH4 0xFFFFFFFF AND PUSH1 0xE0 SHL DUP2 MSTORE PUSH1 0x4 ADD PUSH2 0x3E5 SWAP4 SWAP3 SWAP2 SWAP1 PUSH2 0x8B3 JUMP JUMPDEST PUSH1 0x20 PUSH1 0x40 MLOAD DUP1 DUP4 SUB DUP2 PUSH0 DUP8 GAS CALL ISZERO DUP1 ISZERO PUSH2 0x401 JUMPI RETURNDATASIZE PUSH0 DUP1 RETURNDATACOPY RETURNDATASIZE PUSH0 REVERT JUMPDEST POP POP POP POP PUSH1 0x40 MLOAD RETURNDATASIZE PUSH1 0x1F NOT PUSH1 0x1F DUP3 ADD AND DUP3 ADD DUP1 PUSH1 0x40 MSTORE POP DUP2 ADD SWAP1 PUSH2 0x425 SWAP2 SWAP1 PUSH2 0x7C0 JUMP JUMPDEST PUSH2 0x464 JUMPI PUSH1 0x40 MLOAD PUSH32 0x8C379A000000000000000000000000000000000000000000000000000000000 DUP2 MSTORE PUSH1 0x4 ADD PUSH2 0x45B SWAP1 PUSH2 0x835 JUMP JUMPDEST PUSH1 0x40 MLOAD DUP1 SWAP2 SUB SWAP1 REVERT JUMPDEST DUP1 PUSH0 DUP1 CALLER PUSH20 0xFFFFFFFFFFFFFFFFFFFFFFFFFFFFFFFFFFFFFFFF AND PUSH20 0xFFFFFFFFFFFFFFFFFFFFFFFFFFFFFFFFFFFFFFFF AND DUP2 MSTORE PUSH1 0x20 ADD SWAP1 DUP2 MSTORE PUSH1 0x20 ADD PUSH0 KECCAK256 PUSH0 DUP3 DUP3 SLOAD PUSH2 0x4AF SWAP2 SWAP1 PUSH2 0x8E8 JUMP JUMPDEST SWAP3 POP POP DUP2 SWAP1 SSTORE POP POP JUMP JUMPDEST PUSH1 0x1 PUSH0 SWAP1 SLOAD SWAP1 PUSH2 0x100 EXP SWAP1 DIV PUSH20 0xFFFFFFFFFFFFFFFFFFFFFFFFFFFFFFFFFFFFFFFF AND DUP2 JUMP JUMPDEST PUSH0 PUSH1 0x20 MSTORE DUP1 PUSH0 MSTORE PUSH1 0x40 PUSH0 KECCAK256 PUSH0 SWAP2 POP SWAP1 POP SLOAD DUP2 JUMP JUMPDEST PUSH0 DUP1 REVERT JUMPDEST PUSH0 DUP2 SWAP1 POP SWAP2 SWAP1 POP JUMP JUMPDEST PUSH2 0x508 DUP2 PUSH2 0x4F6 JUMP JUMPDEST DUP2 EQ PUSH2 0x512 JUMPI PUSH0 DUP1 REVERT JUMPDEST POP JUMP JUMPDEST PUSH0 DUP2 CALLDATALOAD SWAP1 POP PUSH2 0x523 DUP2 PUSH2 0x4FF JUMP JUMPDEST SWAP3 SWAP2 POP POP JUMP JUMPDEST PUSH0 PUSH1 0x20 DUP3 DUP5 SUB SLT ISZERO PUSH2 0x53E JUMPI PUSH2 0x53D PUSH2 0x4F2 JUMP JUMPDEST JUMPDEST PUSH0 PUSH2 0x54B DUP5 DUP3 DUP6 ADD PUSH2 0x515 JUMP JUMPDEST SWAP2 POP POP SWAP3 SWAP2 POP POP JUMP JUMPDEST PUSH0 PUSH20 0xFFFFFFFFFFFFFFFFFFFFFFFFFFFFFFFFFFFFFFFF DUP3 AND SWAP1 POP SWAP2 SWAP1 POP JUMP JUMPDEST PUSH0 PUSH2 0x57D DUP3 PUSH2 0x554 JUMP JUMPDEST SWAP1 POP SWAP2 SWAP1 POP JUMP JUMPDEST PUSH2 0x58D DUP2 PUSH2 0x573 JUMP JUMPDEST DUP2 EQ PUSH2 0x597 JUMPI PUSH0 DUP1 REVERT JUMPDEST POP JUMP JUMPDEST PUSH0 DUP2 CALLDATALOAD SWAP1 POP PUSH2 0x5A8 DUP2 PUSH2 0x584 JUMP JUMPDEST SWAP3 SWAP2 POP POP JUMP JUMPDEST PUSH0 PUSH1 0x20 DUP3 DUP5 SUB SLT ISZERO PUSH2 0x5C3 JUMPI PUSH2 0x5C2 PUSH2 0x4F2 JUMP JUMPDEST JUMPDEST PUSH0 PUSH2 0x5D0 DUP5 DUP3 DUP6 ADD PUSH2 0x59A JUMP JUMPDEST SWAP2 POP POP SWAP3 SWAP2 POP POP JUMP JUMPDEST PUSH2 0x5E2 DUP2 PUSH2 0x4F6 JUMP JUMPDEST DUP3 MSTORE POP POP JUMP JUMPDEST PUSH0 PUSH1 0x20 DUP3 ADD SWAP1 POP PUSH2 0x5FB PUSH0 DUP4 ADD DUP5 PUSH2 0x5D9 JUMP JUMPDEST SWAP3 SWAP2 POP POP JUMP JUMPDEST PUSH0 DUP2 SWAP1 POP SWAP2 SWAP1 POP JUMP JUMPDEST PUSH0 PUSH2 0x624 PUSH2 0x61F PUSH2 0x61A DUP5 PUSH2 0x554 JUMP JUMPDEST PUSH2 0x601 JUMP JUMPDEST PUSH2 0x554 JUMP JUMPDEST SWAP1 POP SWAP2 SWAP1 POP JUMP JUMPDEST PUSH0 PUSH2 0x635 DUP3 PUSH2 0x60A JUMP JUMPDEST SWAP1 POP SWAP2 SWAP1 POP JUMP JUMPDEST PUSH0 PUSH2 0x646 DUP3 PUSH2 0x62B JUMP JUMPDEST SWAP1 POP SWAP2 SWAP1 POP JUMP JUMPDEST PUSH2 0x656 DUP2 PUSH2 0x63C JUMP JUMPDEST DUP3 MSTORE POP POP JUMP JUMPDEST PUSH0 PUSH1 0x20 DUP3 ADD SWAP1 POP PUSH2 0x66F PUSH0 DUP4 ADD DUP5 PUSH2 0x64D JUMP JUMPDEST SWAP3 SWAP2 POP POP JUMP JUMPDEST PUSH0 DUP3 DUP3 MSTORE PUSH1 0x20 DUP3 ADD SWAP1 POP SWAP3 SWAP2 POP POP JUMP JUMPDEST PUSH32 0x416D6F756E74206D7573742062652067726561746572207468616E207A65726F PUSH0 DUP3 ADD MSTORE POP JUMP JUMPDEST PUSH0 PUSH2 0x6B9 PUSH1 0x20 DUP4 PUSH2 0x675 JUMP JUMPDEST SWAP2 POP PUSH2 0x6C4 DUP3 PUSH2 0x685 JUMP JUMPDEST PUSH1 0x20 DUP3 ADD SWAP1 POP SWAP2 SWAP1 POP JUMP JUMPDEST PUSH0 PUSH1 0x20 DUP3 ADD SWAP1 POP DUP2 DUP2 SUB PUSH0 DUP4 ADD MSTORE PUSH2 0x6E6 DUP2 PUSH2 0x6AD JUMP JUMPDEST SWAP1 POP SWAP2 SWAP1 POP JUMP JUMPDEST PUSH32 0x496E73756666696369656E742062616C616E6365000000000000000000000000 PUSH0 DUP3 ADD MSTORE POP JUMP JUMPDEST PUSH0 PUSH2 0x721 PUSH1 0x14 DUP4 PUSH2 0x675 JUMP JUMPDEST SWAP2 POP PUSH2 0x72C DUP3 PUSH2 0x6ED JUMP JUMPDEST PUSH1 0x20 DUP3 ADD SWAP1 POP SWAP2 SWAP1 POP JUMP JUMPDEST PUSH0 PUSH1 0x20 DUP3 ADD SWAP1 POP DUP2 DUP2 SUB PUSH0 DUP4 ADD MSTORE PUSH2 0x74E DUP2 PUSH2 0x715 JUMP JUMPDEST SWAP1 POP SWAP2 SWAP1 POP JUMP JUMPDEST PUSH2 0x75E DUP2 PUSH2 0x573 JUMP JUMPDEST DUP3 MSTORE POP POP JUMP JUMPDEST PUSH0 PUSH1 0x40 DUP3 ADD SWAP1 POP PUSH2 0x777 PUSH0 DUP4 ADD DUP6 PUSH2 0x755 JUMP JUMPDEST PUSH2 0x784 PUSH1 0x20 DUP4 ADD DUP5 PUSH2 0x5D9 JUMP JUMPDEST SWAP4 SWAP3 POP POP POP JUMP JUMPDEST PUSH0 DUP2 ISZERO ISZERO SWAP1 POP SWAP2 SWAP1 POP JUMP JUMPDEST PUSH2 0x79F DUP2 PUSH2 0x78B JUMP JUMPDEST DUP2 EQ PUSH2 0x7A9 JUMPI PUSH0 DUP1 REVERT JUMPDEST POP JUMP JUMPDEST PUSH0 DUP2 MLOAD SWAP1 POP PUSH2 0x7BA DUP2 PUSH2 0x796 JUMP JUMPDEST SWAP3 SWAP2 POP POP JUMP JUMPDEST PUSH0 PUSH1 0x20 DUP3 DUP5 SUB SLT ISZERO PUSH2 0x7D5 JUMPI PUSH2 0x7D4 PUSH2 0x4F2 JUMP JUMPDEST JUMPDEST PUSH0 PUSH2 0x7E2 DUP5 DUP3 DUP6 ADD PUSH2 0x7AC JUMP JUMPDEST SWAP2 POP POP SWAP3 SWAP2 POP POP JUMP JUMPDEST PUSH32 0x5472616E73666572206661696C65640000000000000000000000000000000000 PUSH0 DUP3 ADD MSTORE POP JUMP JUMPDEST PUSH0 PUSH2 0x81F PUSH1 0xF DUP4 PUSH2 0x675 JUMP JUMPDEST SWAP2 POP PUSH2 0x82A DUP3 PUSH2 0x7EB JUMP JUMPDEST PUSH1 0x20 DUP3 ADD SWAP1 POP SWAP2 SWAP1 POP JUMP JUMPDEST PUSH0 PUSH1 0x20 DUP3 ADD SWAP1 POP DUP2 DUP2 SUB PUSH0 DUP4 ADD MSTORE PUSH2 0x84C DUP2 PUSH2 0x813 JUMP JUMPDEST SWAP1 POP SWAP2 SWAP1 POP JUMP JUMPDEST PUSH32 0x4E487B7100000000000000000000000000000000000000000000000000000000 PUSH0 MSTORE PUSH1 0x11 PUSH1 0x4 MSTORE PUSH1 0x24 PUSH0 REVERT JUMPDEST PUSH0 PUSH2 0x88A DUP3 PUSH2 0x4F6 JUMP JUMPDEST SWAP2 POP PUSH2 0x895 DUP4 PUSH2 0x4F6 JUMP JUMPDEST SWAP3 POP DUP3 DUP3 SUB SWAP1 POP DUP2 DUP2 GT ISZERO PUSH2 0x8AD JUMPI PUSH2 0x8AC PUSH2 0x853 JUMP JUMPDEST JUMPDEST SWAP3 SWAP2 POP POP JUMP JUMPDEST PUSH0 PUSH1 0x60 DUP3 ADD SWAP1 POP PUSH2 0x8C6 PUSH0 DUP4 ADD DUP7 PUSH2 0x755 JUMP JUMPDEST PUSH2 0x8D3 PUSH1 0x20 DUP4 ADD DUP6 PUSH2 0x755 JUMP JUMPDEST PUSH2 0x8E0 PUSH1 0x40 DUP4 ADD DUP5 PUSH2 0x5D9 JUMP JUMPDEST SWAP5 SWAP4 POP POP POP POP JUMP JUMPDEST PUSH0 PUSH2 0x8F2 DUP3 PUSH2 0x4F6 JUMP JUMPDEST SWAP2 POP PUSH2 0x8FD DUP4 PUSH2 0x4F6 JUMP JUMPDEST SWAP3 POP DUP3 DUP3 ADD SWAP1 POP DUP1 DUP3 GT ISZERO PUSH2 0x915 JUMPI PUSH2 0x914 PUSH2 0x853 JUMP JUMPDEST JUMPDEST SWAP3 SWAP2 POP POP JUMP INVALID LOG2 PUSH5 0x6970667358 0x22 SLT KECCAK256 0xE9 TIMESTAMP 0xD6 SWAP6 SWAP12 ADDMOD SGT EXTCODESIZE 0xDD PUSH24 0xB3E341693B33105FCEEA2DA4D04C3527B7C9EDF15A316473 PUSH16 0x6C634300081A00330000000000000000 "
				},
				"gasEstimates": {
					"creation": {
						"codeDepositCost": "477000",
						"executionCost": "infinite",
						"totalCost": "infinite"
					},
					"external": {
						"balanceOf(address)": "2829",
						"deposit(uint256)": "infinite",
						"deposits(address)": "2867",
						"token()": "infinite",
						"withdraw(uint256)": "infinite"
					}
				},
				"methodIdentifiers": {
					"balanceOf(address)": "70a08231",
					"deposit(uint256)": "b6b55f25",
					"deposits(address)": "fc7e286d",
					"token()": "fc0c546a",
					"withdraw(uint256)": "2e1a7d4d"
				}
			},
			"storageLayout": {
				"storage": [
					{
						"astId": 266,
						"contract": "tokenbank.sol:TokenBank",
						"label": "deposits",
						"offset": 0,
						"slot": "0",
						"type": "t_mapping(t_address,t_uint256)"
					},
					{
						"astId": 269,
						"contract": "tokenbank.sol:TokenBank",
						"label": "token",
						"offset": 0,
						"slot": "1",
						"type": "t_contract(BaseERC20)258"
					}
				],
				"types": {
					"t_address": {
						"encoding": "inplace",
						"label": "address",
						"numberOfBytes": "20"
					},
					"t_contract(BaseERC20)258": {
						"encoding": "inplace",
						"label": "contract BaseERC20",
						"numberOfBytes": "20"
					},
					"t_mapping(t_address,t_uint256)": {
						"encoding": "mapping",
						"key": "t_address",
						"label": "mapping(address => uint256)",
						"numberOfBytes": "32",
						"value": "t_uint256"
					},
					"t_uint256": {
						"encoding": "inplace",
						"label": "uint256",
						"numberOfBytes": "32"
					}
				}
			},
			"userdoc": {
				"kind": "user",
				"methods": {},
				"version": 1
			}
		}
	}
}