{
	"testmodifer.sol": {
		"modifysample": {
			"abi": [
				{
					"inputs": [],
					"name": "get_a",
					"outputs": [
						{
							"internalType": "uint256",
							"name": "",
							"type": "uint256"
						}
					],
					"stateMutability": "view",
					"type": "function"
				},
				{
					"inputs": [],
					"name": "test1",
					"outputs": [],
					"stateMutability": "nonpayable",
					"type": "function"
				}
			],
			"devdoc": {
				"kind": "dev",
				"methods": {},
				"version": 1
			},
			"evm": {
				"assembly": "    /* \"testmodifer.sol\":56:497  contract modifysample {... */\n  mstore(0x40, 0x80)\n    /* \"testmodifer.sol\":96:98  10 */\n  0x0a\n    /* \"testmodifer.sol\":84:98  uint256 a = 10 */\n  0x00\n  sstore\n    /* \"testmodifer.sol\":56:497  contract modifysample {... */\n  callvalue\n  dup1\n  iszero\n  tag_1\n  jumpi\n  0x00\n  dup1\n  revert\ntag_1:\n  pop\n  dataSize(sub_0)\n  dup1\n  dataOffset(sub_0)\n  0x00\n  codecopy\n  0x00\n  return\nstop\n\nsub_0: assembly {\n        /* \"testmodifer.sol\":56:497  contract modifysample {... */\n      mstore(0x40, 0x80)\n      callvalue\n      dup1\n      iszero\n      tag_1\n      jumpi\n      0x00\n      dup1\n      revert\n    tag_1:\n      pop\n      jumpi(tag_2, lt(calldatasize, 0x04))\n      shr(0xe0, calldataload(0x00))\n      dup1\n      0x48159181\n      eq\n      tag_3\n      jumpi\n      dup1\n      0x6b59084d\n      eq\n      tag_4\n      jumpi\n    tag_2:\n      0x00\n      dup1\n      revert\n        /* \"testmodifer.sol\":423:495  function get_a() public view returns (uint256) {... */\n    tag_3:\n      tag_5\n      tag_6\n      jump\t// in\n    tag_5:\n      mload(0x40)\n      tag_7\n      swap2\n      swap1\n      tag_8\n      jump\t// in\n    tag_7:\n      mload(0x40)\n      dup1\n      swap2\n      sub\n      swap1\n      return\n        /* \"testmodifer.sol\":356:417  function test1() public mf1(a) mf2 mf3 {... */\n    tag_4:\n      tag_9\n      tag_10\n      jump\t// in\n    tag_9:\n      stop\n        /* \"testmodifer.sol\":423:495  function get_a() public view returns (uint256) {... */\n    tag_6:\n        /* \"testmodifer.sol\":461:468  uint256 */\n      0x00\n        /* \"testmodifer.sol\":487:488  a */\n      dup1\n      sload\n        /* \"testmodifer.sol\":480:488  return a */\n      swap1\n      pop\n        /* \"testmodifer.sol\":423:495  function get_a() public view returns (uint256) {... */\n      swap1\n      jump\t// out\n        /* \"testmodifer.sol\":356:417  function test1() public mf1(a) mf2 mf3 {... */\n    tag_10:\n        /* \"testmodifer.sol\":384:385  a */\n      sload(0x00)\n        /* \"testmodifer.sol\":139:148  uint256 c */\n      0x00\n        /* \"testmodifer.sol\":151:152  b */\n      dup2\n        /* \"testmodifer.sol\":139:152  uint256 c = b */\n      swap1\n      pop\n        /* \"testmodifer.sol\":232:241  uint256 c */\n      0x00\n        /* \"testmodifer.sol\":244:245  a */\n      dup1\n      sload\n        /* \"testmodifer.sol\":232:245  uint256 c = a */\n      swap1\n      pop\n        /* \"testmodifer.sol\":298:300  12 */\n      0x0c\n        /* \"testmodifer.sol\":294:295  a */\n      0x00\n        /* \"testmodifer.sol\":294:300  a = 12 */\n      dup2\n      swap1\n      sstore\n      pop\n        /* \"testmodifer.sol\":222:263  {... */\n      pop\n        /* \"testmodifer.sol\":177:178  a */\n      sload(0x00)\n        /* \"testmodifer.sol\":173:178  c = a */\n      swap1\n      pop\n        /* \"testmodifer.sol\":192:194  11 */\n      0x0b\n        /* \"testmodifer.sol\":188:189  a */\n      0x00\n        /* \"testmodifer.sol\":188:194  a = 11 */\n      dup2\n      swap1\n      sstore\n      pop\n        /* \"testmodifer.sol\":129:201  {... */\n      pop\n        /* \"testmodifer.sol\":356:417  function test1() public mf1(a) mf2 mf3 {... */\n      pop\n      jump\t// out\n        /* \"#utility.yul\":7:84   */\n    tag_16:\n        /* \"#utility.yul\":44:51   */\n      0x00\n        /* \"#utility.yul\":73:78   */\n      dup2\n        /* \"#utility.yul\":62:78   */\n      swap1\n      pop\n        /* \"#utility.yul\":7:84   */\n      swap2\n      swap1\n      pop\n      jump\t// out\n        /* \"#utility.yul\":90:208   */\n    tag_17:\n        /* \"#utility.yul\":177:201   */\n      tag_21\n        /* \"#utility.yul\":195:200   */\n      dup2\n        /* \"#utility.yul\":177:201   */\n      tag_16\n      jump\t// in\n    tag_21:\n        /* \"#utility.yul\":172:175   */\n      dup3\n        /* \"#utility.yul\":165:202   */\n      mstore\n        /* \"#utility.yul\":90:208   */\n      pop\n      pop\n      jump\t// out\n        /* \"#utility.yul\":214:436   */\n    tag_8:\n        /* \"#utility.yul\":307:311   */\n      0x00\n        /* \"#utility.yul\":345:347   */\n      0x20\n        /* \"#utility.yul\":334:343   */\n      dup3\n        /* \"#utility.yul\":330:348   */\n      add\n        /* \"#utility.yul\":322:348   */\n      swap1\n      pop\n        /* \"#utility.yul\":358:429   */\n      tag_23\n        /* \"#utility.yul\":426:427   */\n      0x00\n        /* \"#utility.yul\":415:424   */\n      dup4\n        /* \"#utility.yul\":411:428   */\n      add\n        /* \"#utility.yul\":402:408   */\n      dup5\n        /* \"#utility.yul\":358:429   */\n      tag_17\n      jump\t// in\n    tag_23:\n        /* \"#utility.yul\":214:436   */\n      swap3\n      swap2\n      pop\n      pop\n      jump\t// out\n\n    auxdata: 0xa264697066735822122083ca8e891254a7e2c23000dc0faa5317de96de42f62aa6d713d3adb35ae146ea64736f6c634300081a0033\n}\n",
				"bytecode": {
					"linkReferences": {},
					"object": "6080604052600a5f553480156012575f80fd5b5060e38061001f5f395ff3fe6080604052348015600e575f80fd5b50600436106030575f3560e01c8063481591811460345780636b59084d14604e575b5f80fd5b603a6056565b604051604591906096565b60405180910390f35b6054605e565b005b5f8054905090565b5f545f8190505f80549050600c5f81905550505f549050600b5f819055505050565b5f819050919050565b6090816080565b82525050565b5f60208201905060a75f8301846089565b9291505056fea264697066735822122083ca8e891254a7e2c23000dc0faa5317de96de42f62aa6d713d3adb35ae146ea64736f6c634300081a0033",
					"opcodes": "PUSH1 0x80 PUSH1 0x40 MSTORE PUSH1 0xA PUSH0 SSTORE CALLVALUE DUP1 ISZERO PUSH1 0x12 JUMPI PUSH0 DUP1 REVERT JUMPDEST POP PUSH1 0xE3 DUP1 PUSH2 0x1F PUSH0 CODECOPY PUSH0 RETURN INVALID PUSH1 0x80 PUSH1 0x40 MSTORE CALLVALUE DUP1 ISZERO PUSH1 0xE JUMPI PUSH0 DUP1 REVERT JUMPDEST POP PUSH1 0x4 CALLDATASIZE LT PUSH1 0x30 JUMPI PUSH0 CALLDATALOAD PUSH1 0xE0 SHR DUP1 PUSH4 0x48159181 EQ PUSH1 0x34 JUMPI DUP1 PUSH4 0x6B59084D EQ PUSH1 0x4E JUMPI JUMPDEST PUSH0 DUP1 REVERT JUMPDEST PUSH1 0x3A PUSH1 0x56 JUMP JUMPDEST PUSH1 0x40 MLOAD PUSH1 0x45 SWAP2 SWAP1 PUSH1 0x96 JUMP JUMPDEST PUSH1 0x40 MLOAD DUP1 SWAP2 SUB SWAP1 RETURN JUMPDEST PUSH1 0x54 PUSH1 0x5E JUMP JUMPDEST STOP JUMPDEST PUSH0 DUP1 SLOAD SWAP1 POP SWAP1 JUMP JUMPDEST PUSH0 SLOAD PUSH0 DUP2 SWAP1 POP PUSH0 DUP1 SLOAD SWAP1 POP PUSH1 0xC PUSH0 DUP2 SWAP1 SSTORE POP POP PUSH0 SLOAD SWAP1 POP PUSH1 0xB PUSH0 DUP2 SWAP1 SSTORE POP POP POP JUMP JUMPDEST PUSH0 DUP2 SWAP1 POP SWAP2 SWAP1 POP JUMP JUMPDEST PUSH1 0x90 DUP2 PUSH1 0x80 JUMP JUMPDEST DUP3 MSTORE POP POP JUMP JUMPDEST PUSH0 PUSH1 0x20 DUP3 ADD SWAP1 POP PUSH1 0xA7 PUSH0 DUP4 ADD DUP5 PUSH1 0x89 JUMP JUMPDEST SWAP3 SWAP2 POP POP JUMP INVALID LOG2 PUSH5 0x6970667358 0x22 SLT KECCAK256 DUP4 0xCA DUP15 DUP10 SLT SLOAD 0xA7 0xE2 0xC2 ADDRESS STOP 0xDC 0xF 0xAA MSTORE8 OR 0xDE SWAP7 0xDE TIMESTAMP 0xF6 0x2A 0xA6 0xD7 SGT 0xD3 0xAD 0xB3 GAS 0xE1 CHAINID 0xEA PUSH5 0x736F6C6343 STOP ADDMOD BYTE STOP CALLER "
				},
				"gasEstimates": {
					"creation": {
						"codeDepositCost": "45400",
						"executionCost": "22202",
						"totalCost": "67602"
					},
					"external": {
						"get_a()": "2410",
						"test1()": "33604"
					}
				},
				"methodIdentifiers": {
					"get_a()": "48159181",
					"test1()": "6b59084d"
				}
			},
			"storageLayout": {
				"storage": [
					{
						"astId": 4,
						"contract": "testmodifer.sol:modifysample",
						"label": "a",
						"offset": 0,
						"slot": "0",
						"type": "t_uint256"
					}
				],
				"types": {
					"t_uint256": {
						"encoding": "inplace",
						"label": "uint256",
						"numberOfBytes": "32"
					}
				}
			},
			"userdoc": {
				"kind": "user",
				"methods": {},
				"version": 1
			}
		}
	}
}