{
	"stake.sol": {
		"StakingPool": {
			"abi": [
				{
					"inputs": [
						{
							"internalType": "address",
							"name": "_rnt",
							"type": "address"
						},
						{
							"internalType": "address",
							"name": "_esrnt",
							"type": "address"
						},
						{
							"internalType": "address",
							"name": "initialOwner",
							"type": "address"
						}
					],
					"stateMutability": "nonpayable",
					"type": "constructor"
				},
				{
					"inputs": [
						{
							"internalType": "address",
							"name": "owner",
							"type": "address"
						}
					],
					"name": "OwnableInvalidOwner",
					"type": "error"
				},
				{
					"inputs": [
						{
							"internalType": "address",
							"name": "account",
							"type": "address"
						}
					],
					"name": "OwnableUnauthorizedAccount",
					"type": "error"
				},
				{
					"anonymous": false,
					"inputs": [
						{
							"indexed": true,
							"internalType": "address",
							"name": "previousOwner",
							"type": "address"
						},
						{
							"indexed": true,
							"internalType": "address",
							"name": "newOwner",
							"type": "address"
						}
					],
					"name": "OwnershipTransferred",
					"type": "event"
				},
				{
					"anonymous": false,
					"inputs": [
						{
							"indexed": true,
							"internalType": "address",
							"name": "user",
							"type": "address"
						},
						{
							"indexed": false,
							"internalType": "uint256",
							"name": "unlocked",
							"type": "uint256"
						},
						{
							"indexed": false,
							"internalType": "uint256",
							"name": "burned",
							"type": "uint256"
						}
					],
					"name": "Redeemed",
					"type": "event"
				},
				{
					"anonymous": false,
					"inputs": [
						{
							"indexed": true,
							"internalType": "address",
							"name": "user",
							"type": "address"
						},
						{
							"indexed": false,
							"internalType": "uint256",
							"name": "amount",
							"type": "uint256"
						}
					],
					"name": "RewardsClaimed",
					"type": "event"
				},
				{
					"anonymous": false,
					"inputs": [
						{
							"indexed": true,
							"internalType": "address",
							"name": "user",
							"type": "address"
						},
						{
							"indexed": false,
							"internalType": "uint256",
							"name": "amount",
							"type": "uint256"
						}
					],
					"name": "Staked",
					"type": "event"
				},
				{
					"anonymous": false,
					"inputs": [
						{
							"indexed": true,
							"internalType": "address",
							"name": "user",
							"type": "address"
						},
						{
							"indexed": false,
							"internalType": "uint256",
							"name": "amount",
							"type": "uint256"
						}
					],
					"name": "Unstaked",
					"type": "event"
				},
				{
					"anonymous": false,
					"inputs": [
						{
							"indexed": true,
							"internalType": "address",
							"name": "user",
							"type": "address"
						},
						{
							"indexed": false,
							"internalType": "uint256",
							"name": "amount",
							"type": "uint256"
						}
					],
					"name": "Vested",
					"type": "event"
				},
				{
					"inputs": [],
					"name": "RNT",
					"outputs": [
						{
							"internalType": "contract IERC20",
							"name": "",
							"type": "address"
						}
					],
					"stateMutability": "view",
					"type": "function"
				},
				{
					"inputs": [],
					"name": "claimRewards",
					"outputs": [],
					"stateMutability": "nonpayable",
					"type": "function"
				},
				{
					"inputs": [],
					"name": "esRNT",
					"outputs": [
						{
							"internalType": "contract IERC20",
							"name": "",
							"type": "address"
						}
					],
					"stateMutability": "view",
					"type": "function"
				},
				{
					"inputs": [
						{
							"internalType": "address",
							"name": "user",
							"type": "address"
						}
					],
					"name": "getRedeemableAmount",
					"outputs": [
						{
							"internalType": "uint256",
							"name": "unlocked",
							"type": "uint256"
						},
						{
							"internalType": "uint256",
							"name": "total",
							"type": "uint256"
						}
					],
					"stateMutability": "view",
					"type": "function"
				},
				{
					"inputs": [
						{
							"internalType": "address",
							"name": "user",
							"type": "address"
						}
					],
					"name": "getStakeInfo",
					"outputs": [
						{
							"internalType": "uint256",
							"name": "amount",
							"type": "uint256"
						},
						{
							"internalType": "uint256",
							"name": "rewards",
							"type": "uint256"
						}
					],
					"stateMutability": "view",
					"type": "function"
				},
				{
					"inputs": [],
					"name": "owner",
					"outputs": [
						{
							"internalType": "address",
							"name": "",
							"type": "address"
						}
					],
					"stateMutability": "view",
					"type": "function"
				},
				{
					"inputs": [
						{
							"internalType": "uint256",
							"name": "amount",
							"type": "uint256"
						}
					],
					"name": "redeem",
					"outputs": [],
					"stateMutability": "nonpayable",
					"type": "function"
				},
				{
					"inputs": [],
					"name": "renounceOwnership",
					"outputs": [],
					"stateMutability": "nonpayable",
					"type": "function"
				},
				{
					"inputs": [
						{
							"internalType": "uint256",
							"name": "amount",
							"type": "uint256"
						}
					],
					"name": "stake",
					"outputs": [],
					"stateMutability": "nonpayable",
					"type": "function"
				},
				{
					"inputs": [
						{
							"internalType": "address",
							"name": "",
							"type": "address"
						}
					],
					"name": "stakes",
					"outputs": [
						{
							"internalType": "uint256",
							"name": "amount",
							"type": "uint256"
						},
						{
							"internalType": "uint256",
							"name": "lastUpdateTime",
							"type": "uint256"
						},
						{
							"internalType": "uint256",
							"name": "pendingRewards",
							"type": "uint256"
						}
					],
					"stateMutability": "view",
					"type": "function"
				},
				{
					"inputs": [
						{
							"internalType": "address",
							"name": "newOwner",
							"type": "address"
						}
					],
					"name": "transferOwnership",
					"outputs": [],
					"stateMutability": "nonpayable",
					"type": "function"
				},
				{
					"inputs": [
						{
							"internalType": "uint256",
							"name": "amount",
							"type": "uint256"
						}
					],
					"name": "unstake",
					"outputs": [],
					"stateMutability": "nonpayable",
					"type": "function"
				},
				{
					"inputs": [
						{
							"internalType": "address",
							"name": "",
							"type": "address"
						},
						{
							"internalType": "uint256",
							"name": "",
							"type": "uint256"
						}
					],
					"name": "vestings",
					"outputs": [
						{
							"internalType": "uint256",
							"name": "amount",
							"type": "uint256"
						},
						{
							"internalType": "uint256",
							"name": "startTime",
							"type": "uint256"
						}
					],
					"stateMutability": "view",
					"type": "function"
				}
			],
			"devdoc": {
				"errors": {
					"OwnableInvalidOwner(address)": [
						{
							"details": "The owner is not a valid owner account. (eg. `address(0)`)"
						}
					],
					"OwnableUnauthorizedAccount(address)": [
						{
							"details": "The caller account is not authorized to perform an operation."
						}
					]
				},
				"kind": "dev",
				"methods": {
					"owner()": {
						"details": "Returns the address of the current owner."
					},
					"renounceOwnership()": {
						"details": "Leaves the contract without owner. It will not be possible to call `onlyOwner` functions. Can only be called by the current owner. NOTE: Renouncing ownership will leave the contract without an owner, thereby disabling any functionality that is only available to the owner."
					},
					"transferOwnership(address)": {
						"details": "Transfers ownership of the contract to a new account (`newOwner`). Can only be called by the current owner."
					}
				},
				"version": 1
			},
			"evm": {
				"assembly": "    /* \"stake.sol\":238:6532  contract StakingPool is ReentrancyGuard, Ownable {... */\n  mstore(0x40, 0xc0)\n    /* \"stake.sol\":1341:1547  constructor(address _rnt, address _esrnt, address initialOwner) ... */\n  callvalue\n  dup1\n  iszero\n  tag_1\n  jumpi\n  0x00\n  dup1\n  revert\ntag_1:\n  pop\n  mload(0x40)\n  sub(codesize, bytecodeSize)\n  dup1\n  bytecodeSize\n  dup4\n  codecopy\n  dup2\n  dup2\n  add\n  0x40\n  mstore\n  dup2\n  add\n  swap1\n  tag_2\n  swap2\n  swap1\n  tag_3\n  jump\t// in\ntag_2:\n    /* \"stake.sol\":1423:1435  initialOwner */\n  dup1\n    /* \"@openzeppelin/contracts/security/ReentrancyGuard.sol\":1716:1717  1 */\n  0x01\n    /* \"@openzeppelin/contracts/security/ReentrancyGuard.sol\":1821:1828  _status */\n  0x00\n    /* \"@openzeppelin/contracts/security/ReentrancyGuard.sol\":1821:1843  _status = _NOT_ENTERED */\n  dup2\n  swap1\n  sstore\n  pop\n    /* \"@openzeppelin/contracts/access/Ownable.sol\":1297:1298  0 */\n  0x00\n    /* \"@openzeppelin/contracts/access/Ownable.sol\":1273:1299  initialOwner == address(0) */\n  0xffffffffffffffffffffffffffffffffffffffff\n  and\n    /* \"@openzeppelin/contracts/access/Ownable.sol\":1273:1285  initialOwner */\n  dup2\n    /* \"@openzeppelin/contracts/access/Ownable.sol\":1273:1299  initialOwner == address(0) */\n  0xffffffffffffffffffffffffffffffffffffffff\n  and\n  sub\n    /* \"@openzeppelin/contracts/access/Ownable.sol\":1269:1364  if (initialOwner == address(0)) {... */\n  tag_9\n  jumpi\n    /* \"@openzeppelin/contracts/access/Ownable.sol\":1350:1351  0 */\n  0x00\n    /* \"@openzeppelin/contracts/access/Ownable.sol\":1322:1353  OwnableInvalidOwner(address(0)) */\n  mload(0x40)\n  0x1e4fbdf700000000000000000000000000000000000000000000000000000000\n  dup2\n  mstore\n  0x04\n  add\n  tag_10\n  swap2\n  swap1\n  tag_11\n  jump\t// in\ntag_10:\n  mload(0x40)\n  dup1\n  swap2\n  sub\n  swap1\n  revert\n    /* \"@openzeppelin/contracts/access/Ownable.sol\":1269:1364  if (initialOwner == address(0)) {... */\ntag_9:\n    /* \"@openzeppelin/contracts/access/Ownable.sol\":1373:1405  _transferOwnership(initialOwner) */\n  tag_12\n    /* \"@openzeppelin/contracts/access/Ownable.sol\":1392:1404  initialOwner */\n  dup2\n    /* \"@openzeppelin/contracts/access/Ownable.sol\":1373:1391  _transferOwnership */\n  shl(0x20, tag_13)\n    /* \"@openzeppelin/contracts/access/Ownable.sol\":1373:1405  _transferOwnership(initialOwner) */\n  0x20\n  shr\n  jump\t// in\ntag_12:\n    /* \"@openzeppelin/contracts/access/Ownable.sol\":1225:1412  constructor(address initialOwner) {... */\n  pop\n    /* \"stake.sol\":1501:1505  _rnt */\n  dup3\n    /* \"stake.sol\":1488:1506  RNT = IERC20(_rnt) */\n  0xffffffffffffffffffffffffffffffffffffffff\n  and\n  0x80\n  dup2\n  0xffffffffffffffffffffffffffffffffffffffff\n  and\n  dup2\n  mstore\n  pop\n  pop\n    /* \"stake.sol\":1532:1538  _esrnt */\n  dup2\n    /* \"stake.sol\":1517:1539  esRNT = IERC20(_esrnt) */\n  0xffffffffffffffffffffffffffffffffffffffff\n  and\n  0xa0\n  dup2\n  0xffffffffffffffffffffffffffffffffffffffff\n  and\n  dup2\n  mstore\n  pop\n  pop\n    /* \"stake.sol\":1341:1547  constructor(address _rnt, address _esrnt, address initialOwner) ... */\n  pop\n  pop\n  pop\n    /* \"stake.sol\":238:6532  contract StakingPool is ReentrancyGuard, Ownable {... */\n  jump(tag_15)\n    /* \"@openzeppelin/contracts/access/Ownable.sol\":2912:3099  function _transferOwnership(address newOwner) internal virtual {... */\ntag_13:\n    /* \"@openzeppelin/contracts/access/Ownable.sol\":2985:3001  address oldOwner */\n  0x00\n    /* \"@openzeppelin/contracts/access/Ownable.sol\":3004:3010  _owner */\n  0x01\n  0x00\n  swap1\n  sload\n  swap1\n  0x0100\n  exp\n  swap1\n  div\n  0xffffffffffffffffffffffffffffffffffffffff\n  and\n    /* \"@openzeppelin/contracts/access/Ownable.sol\":2985:3010  address oldOwner = _owner */\n  swap1\n  pop\n    /* \"@openzeppelin/contracts/access/Ownable.sol\":3029:3037  newOwner */\n  dup2\n    /* \"@openzeppelin/contracts/access/Ownable.sol\":3020:3026  _owner */\n  0x01\n  0x00\n    /* \"@openzeppelin/contracts/access/Ownable.sol\":3020:3037  _owner = newOwner */\n  0x0100\n  exp\n  dup2\n  sload\n  dup2\n  0xffffffffffffffffffffffffffffffffffffffff\n  mul\n  not\n  and\n  swap1\n  dup4\n  0xffffffffffffffffffffffffffffffffffffffff\n  and\n  mul\n  or\n  swap1\n  sstore\n  pop\n    /* \"@openzeppelin/contracts/access/Ownable.sol\":3083:3091  newOwner */\n  dup2\n    /* \"@openzeppelin/contracts/access/Ownable.sol\":3052:3092  OwnershipTransferred(oldOwner, newOwner) */\n  0xffffffffffffffffffffffffffffffffffffffff\n  and\n    /* \"@openzeppelin/contracts/access/Ownable.sol\":3073:3081  oldOwner */\n  dup2\n    /* \"@openzeppelin/contracts/access/Ownable.sol\":3052:3092  OwnershipTransferred(oldOwner, newOwner) */\n  0xffffffffffffffffffffffffffffffffffffffff\n  and\n  0x8be0079c531659141344cd1fd0a4f28419497f9722a3daafe3b4186f6b6457e0\n  mload(0x40)\n  mload(0x40)\n  dup1\n  swap2\n  sub\n  swap1\n  log3\n    /* \"@openzeppelin/contracts/access/Ownable.sol\":2975:3099  {... */\n  pop\n    /* \"@openzeppelin/contracts/access/Ownable.sol\":2912:3099  function _transferOwnership(address newOwner) internal virtual {... */\n  pop\n  jump\t// out\n    /* \"#utility.yul\":88:205   */\ntag_18:\n    /* \"#utility.yul\":197:198   */\n  0x00\n    /* \"#utility.yul\":194:195   */\n  dup1\n    /* \"#utility.yul\":187:199   */\n  revert\n    /* \"#utility.yul\":334:460   */\ntag_20:\n    /* \"#utility.yul\":371:378   */\n  0x00\n    /* \"#utility.yul\":411:453   */\n  0xffffffffffffffffffffffffffffffffffffffff\n    /* \"#utility.yul\":404:409   */\n  dup3\n    /* \"#utility.yul\":400:454   */\n  and\n    /* \"#utility.yul\":389:454   */\n  swap1\n  pop\n    /* \"#utility.yul\":334:460   */\n  swap2\n  swap1\n  pop\n  jump\t// out\n    /* \"#utility.yul\":466:562   */\ntag_21:\n    /* \"#utility.yul\":503:510   */\n  0x00\n    /* \"#utility.yul\":532:556   */\n  tag_31\n    /* \"#utility.yul\":550:555   */\n  dup3\n    /* \"#utility.yul\":532:556   */\n  tag_20\n  jump\t// in\ntag_31:\n    /* \"#utility.yul\":521:556   */\n  swap1\n  pop\n    /* \"#utility.yul\":466:562   */\n  swap2\n  swap1\n  pop\n  jump\t// out\n    /* \"#utility.yul\":568:690   */\ntag_22:\n    /* \"#utility.yul\":641:665   */\n  tag_33\n    /* \"#utility.yul\":659:664   */\n  dup2\n    /* \"#utility.yul\":641:665   */\n  tag_21\n  jump\t// in\ntag_33:\n    /* \"#utility.yul\":634:639   */\n  dup2\n    /* \"#utility.yul\":631:666   */\n  eq\n    /* \"#utility.yul\":621:684   */\n  tag_34\n  jumpi\n    /* \"#utility.yul\":680:681   */\n  0x00\n    /* \"#utility.yul\":677:678   */\n  dup1\n    /* \"#utility.yul\":670:682   */\n  revert\n    /* \"#utility.yul\":621:684   */\ntag_34:\n    /* \"#utility.yul\":568:690   */\n  pop\n  jump\t// out\n    /* \"#utility.yul\":696:839   */\ntag_23:\n    /* \"#utility.yul\":753:758   */\n  0x00\n    /* \"#utility.yul\":784:790   */\n  dup2\n    /* \"#utility.yul\":778:791   */\n  mload\n    /* \"#utility.yul\":769:791   */\n  swap1\n  pop\n    /* \"#utility.yul\":800:833   */\n  tag_36\n    /* \"#utility.yul\":827:832   */\n  dup2\n    /* \"#utility.yul\":800:833   */\n  tag_22\n  jump\t// in\ntag_36:\n    /* \"#utility.yul\":696:839   */\n  swap3\n  swap2\n  pop\n  pop\n  jump\t// out\n    /* \"#utility.yul\":845:1508   */\ntag_3:\n    /* \"#utility.yul\":933:939   */\n  0x00\n    /* \"#utility.yul\":941:947   */\n  dup1\n    /* \"#utility.yul\":949:955   */\n  0x00\n    /* \"#utility.yul\":998:1000   */\n  0x60\n    /* \"#utility.yul\":986:995   */\n  dup5\n    /* \"#utility.yul\":977:984   */\n  dup7\n    /* \"#utility.yul\":973:996   */\n  sub\n    /* \"#utility.yul\":969:1001   */\n  slt\n    /* \"#utility.yul\":966:1085   */\n  iszero\n  tag_38\n  jumpi\n    /* \"#utility.yul\":1004:1083   */\n  tag_39\n  tag_18\n  jump\t// in\ntag_39:\n    /* \"#utility.yul\":966:1085   */\ntag_38:\n    /* \"#utility.yul\":1124:1125   */\n  0x00\n    /* \"#utility.yul\":1149:1213   */\n  tag_40\n    /* \"#utility.yul\":1205:1212   */\n  dup7\n    /* \"#utility.yul\":1196:1202   */\n  dup3\n    /* \"#utility.yul\":1185:1194   */\n  dup8\n    /* \"#utility.yul\":1181:1203   */\n  add\n    /* \"#utility.yul\":1149:1213   */\n  tag_23\n  jump\t// in\ntag_40:\n    /* \"#utility.yul\":1139:1213   */\n  swap4\n  pop\n    /* \"#utility.yul\":1095:1223   */\n  pop\n    /* \"#utility.yul\":1262:1264   */\n  0x20\n    /* \"#utility.yul\":1288:1352   */\n  tag_41\n    /* \"#utility.yul\":1344:1351   */\n  dup7\n    /* \"#utility.yul\":1335:1341   */\n  dup3\n    /* \"#utility.yul\":1324:1333   */\n  dup8\n    /* \"#utility.yul\":1320:1342   */\n  add\n    /* \"#utility.yul\":1288:1352   */\n  tag_23\n  jump\t// in\ntag_41:\n    /* \"#utility.yul\":1278:1352   */\n  swap3\n  pop\n    /* \"#utility.yul\":1233:1362   */\n  pop\n    /* \"#utility.yul\":1401:1403   */\n  0x40\n    /* \"#utility.yul\":1427:1491   */\n  tag_42\n    /* \"#utility.yul\":1483:1490   */\n  dup7\n    /* \"#utility.yul\":1474:1480   */\n  dup3\n    /* \"#utility.yul\":1463:1472   */\n  dup8\n    /* \"#utility.yul\":1459:1481   */\n  add\n    /* \"#utility.yul\":1427:1491   */\n  tag_23\n  jump\t// in\ntag_42:\n    /* \"#utility.yul\":1417:1491   */\n  swap2\n  pop\n    /* \"#utility.yul\":1372:1501   */\n  pop\n    /* \"#utility.yul\":845:1508   */\n  swap3\n  pop\n  swap3\n  pop\n  swap3\n  jump\t// out\n    /* \"#utility.yul\":1514:1632   */\ntag_24:\n    /* \"#utility.yul\":1601:1625   */\n  tag_44\n    /* \"#utility.yul\":1619:1624   */\n  dup2\n    /* \"#utility.yul\":1601:1625   */\n  tag_21\n  jump\t// in\ntag_44:\n    /* \"#utility.yul\":1596:1599   */\n  dup3\n    /* \"#utility.yul\":1589:1626   */\n  mstore\n    /* \"#utility.yul\":1514:1632   */\n  pop\n  pop\n  jump\t// out\n    /* \"#utility.yul\":1638:1860   */\ntag_11:\n    /* \"#utility.yul\":1731:1735   */\n  0x00\n    /* \"#utility.yul\":1769:1771   */\n  0x20\n    /* \"#utility.yul\":1758:1767   */\n  dup3\n    /* \"#utility.yul\":1754:1772   */\n  add\n    /* \"#utility.yul\":1746:1772   */\n  swap1\n  pop\n    /* \"#utility.yul\":1782:1853   */\n  tag_46\n    /* \"#utility.yul\":1850:1851   */\n  0x00\n    /* \"#utility.yul\":1839:1848   */\n  dup4\n    /* \"#utility.yul\":1835:1852   */\n  add\n    /* \"#utility.yul\":1826:1832   */\n  dup5\n    /* \"#utility.yul\":1782:1853   */\n  tag_24\n  jump\t// in\ntag_46:\n    /* \"#utility.yul\":1638:1860   */\n  swap3\n  swap2\n  pop\n  pop\n  jump\t// out\n    /* \"stake.sol\":238:6532  contract StakingPool is ReentrancyGuard, Ownable {... */\ntag_15:\n  mload(0x80)\n  mload(0xa0)\n  codecopy(0x00, dataOffset(sub_0), dataSize(sub_0))\n  0x00\n  assignImmutable(\"0xc3e7a0f00dec549e28e164b0a86acf4e2ca38757a351368e18554e74f2a07bf0\")\n  0x00\n  assignImmutable(\"0x7af96f1f1efc65ed484a0803de1d90713519e6ec663d7600835d02d7249d71c5\")\n  return(0x00, dataSize(sub_0))\nstop\n\nsub_0: assembly {\n        /* \"stake.sol\":238:6532  contract StakingPool is ReentrancyGuard, Ownable {... */\n      mstore(0x40, 0x80)\n      callvalue\n      dup1\n      iszero\n      tag_1\n      jumpi\n      0x00\n      dup1\n      revert\n    tag_1:\n      pop\n      jumpi(tag_2, lt(calldatasize, 0x04))\n      shr(0xe0, calldataload(0x00))\n      dup1\n      0x8da5cb5b\n      gt\n      tag_16\n      jumpi\n      dup1\n      0xbd84477d\n      gt\n      tag_17\n      jumpi\n      dup1\n      0xbd84477d\n      eq\n      tag_12\n      jumpi\n      dup1\n      0xc3453153\n      eq\n      tag_13\n      jumpi\n      dup1\n      0xdb006a75\n      eq\n      tag_14\n      jumpi\n      dup1\n      0xf2fde38b\n      eq\n      tag_15\n      jumpi\n      jump(tag_2)\n    tag_17:\n      dup1\n      0x8da5cb5b\n      eq\n      tag_9\n      jumpi\n      dup1\n      0x93dea9e6\n      eq\n      tag_10\n      jumpi\n      dup1\n      0xa694fc3a\n      eq\n      tag_11\n      jumpi\n      jump(tag_2)\n    tag_16:\n      dup1\n      0x16934fc4\n      eq\n      tag_3\n      jumpi\n      dup1\n      0x2370b07b\n      eq\n      tag_4\n      jumpi\n      dup1\n      0x2e17de78\n      eq\n      tag_5\n      jumpi\n      dup1\n      0x372500ab\n      eq\n      tag_6\n      jumpi\n      dup1\n      0x619cfc35\n      eq\n      tag_7\n      jumpi\n      dup1\n      0x715018a6\n      eq\n      tag_8\n      jumpi\n    tag_2:\n      0x00\n      dup1\n      revert\n        /* \"stake.sol\":916:959  mapping(address => StakeInfo) public stakes */\n    tag_3:\n      tag_18\n      0x04\n      dup1\n      calldatasize\n      sub\n      dup2\n      add\n      swap1\n      tag_19\n      swap2\n      swap1\n      tag_20\n      jump\t// in\n    tag_19:\n      tag_21\n      jump\t// in\n    tag_18:\n      mload(0x40)\n      tag_22\n      swap4\n      swap3\n      swap2\n      swap1\n      tag_23\n      jump\t// in\n    tag_22:\n      mload(0x40)\n      dup1\n      swap2\n      sub\n      swap1\n      return\n        /* \"stake.sol\":294:321  IERC20 public immutable RNT */\n    tag_4:\n      tag_24\n      tag_25\n      jump\t// in\n    tag_24:\n      mload(0x40)\n      tag_26\n      swap2\n      swap1\n      tag_27\n      jump\t// in\n    tag_26:\n      mload(0x40)\n      dup1\n      swap2\n      sub\n      swap1\n      return\n        /* \"stake.sol\":2543:3042  function unstake(uint256 amount) external nonReentrant {... */\n    tag_5:\n      tag_28\n      0x04\n      dup1\n      calldatasize\n      sub\n      dup2\n      add\n      swap1\n      tag_29\n      swap2\n      swap1\n      tag_30\n      jump\t// in\n    tag_29:\n      tag_31\n      jump\t// in\n    tag_28:\n      stop\n        /* \"stake.sol\":3071:3707  function claimRewards() external nonReentrant {... */\n    tag_6:\n      tag_32\n      tag_33\n      jump\t// in\n    tag_32:\n      stop\n        /* \"stake.sol\":3751:4556  function getRedeemableAmount(address user) public view returns (uint256 unlocked, uint256 total) {... */\n    tag_7:\n      tag_34\n      0x04\n      dup1\n      calldatasize\n      sub\n      dup2\n      add\n      swap1\n      tag_35\n      swap2\n      swap1\n      tag_20\n      jump\t// in\n    tag_35:\n      tag_36\n      jump\t// in\n    tag_34:\n      mload(0x40)\n      tag_37\n      swap3\n      swap2\n      swap1\n      tag_38\n      jump\t// in\n    tag_37:\n      mload(0x40)\n      dup1\n      swap2\n      sub\n      swap1\n      return\n        /* \"@openzeppelin/contracts/access/Ownable.sol\":2293:2394  function renounceOwnership() public virtual onlyOwner {... */\n    tag_8:\n      tag_39\n      tag_40\n      jump\t// in\n    tag_39:\n      stop\n        /* \"@openzeppelin/contracts/access/Ownable.sol\":1638:1723  function owner() public view virtual returns (address) {... */\n    tag_9:\n      tag_41\n      tag_42\n      jump\t// in\n    tag_41:\n      mload(0x40)\n      tag_43\n      swap2\n      swap1\n      tag_44\n      jump\t// in\n    tag_43:\n      mload(0x40)\n      dup1\n      swap2\n      sub\n      swap1\n      return\n        /* \"stake.sol\":347:376  IERC20 public immutable esRNT */\n    tag_10:\n      tag_45\n      tag_46\n      jump\t// in\n    tag_45:\n      mload(0x40)\n      tag_47\n      swap2\n      swap1\n      tag_27\n      jump\t// in\n    tag_47:\n      mload(0x40)\n      dup1\n      swap2\n      sub\n      swap1\n      return\n        /* \"stake.sol\":2074:2520  function stake(uint256 amount) external nonReentrant {... */\n    tag_11:\n      tag_48\n      0x04\n      dup1\n      calldatasize\n      sub\n      dup2\n      add\n      swap1\n      tag_49\n      swap2\n      swap1\n      tag_30\n      jump\t// in\n    tag_49:\n      tag_50\n      jump\t// in\n    tag_48:\n      stop\n        /* \"stake.sol\":966:1015  mapping(address => VestingInfo[]) public vestings */\n    tag_12:\n      tag_51\n      0x04\n      dup1\n      calldatasize\n      sub\n      dup2\n      add\n      swap1\n      tag_52\n      swap2\n      swap1\n      tag_53\n      jump\t// in\n    tag_52:\n      tag_54\n      jump\t// in\n    tag_51:\n      mload(0x40)\n      tag_55\n      swap3\n      swap2\n      swap1\n      tag_38\n      jump\t// in\n    tag_55:\n      mload(0x40)\n      dup1\n      swap2\n      sub\n      swap1\n      return\n        /* \"stake.sol\":6027:6529  function getStakeInfo(address user) external view returns (uint256 amount, uint256 rewards) {... */\n    tag_13:\n      tag_56\n      0x04\n      dup1\n      calldatasize\n      sub\n      dup2\n      add\n      swap1\n      tag_57\n      swap2\n      swap1\n      tag_20\n      jump\t// in\n    tag_57:\n      tag_58\n      jump\t// in\n    tag_56:\n      mload(0x40)\n      tag_59\n      swap3\n      swap2\n      swap1\n      tag_38\n      jump\t// in\n    tag_59:\n      mload(0x40)\n      dup1\n      swap2\n      sub\n      swap1\n      return\n        /* \"stake.sol\":4584:5992  function redeem(uint256 amount) external nonReentrant {... */\n    tag_14:\n      tag_60\n      0x04\n      dup1\n      calldatasize\n      sub\n      dup2\n      add\n      swap1\n      tag_61\n      swap2\n      swap1\n      tag_30\n      jump\t// in\n    tag_61:\n      tag_62\n      jump\t// in\n    tag_60:\n      stop\n        /* \"@openzeppelin/contracts/access/Ownable.sol\":2543:2758  function transferOwnership(address newOwner) public virtual onlyOwner {... */\n    tag_15:\n      tag_63\n      0x04\n      dup1\n      calldatasize\n      sub\n      dup2\n      add\n      swap1\n      tag_64\n      swap2\n      swap1\n      tag_20\n      jump\t// in\n    tag_64:\n      tag_65\n      jump\t// in\n    tag_63:\n      stop\n        /* \"stake.sol\":916:959  mapping(address => StakeInfo) public stakes */\n    tag_21:\n      mstore(0x20, 0x02)\n      dup1\n      0x00\n      mstore\n      keccak256(0x00, 0x40)\n      0x00\n      swap2\n      pop\n      swap1\n      pop\n      dup1\n      0x00\n      add\n      sload\n      swap1\n      dup1\n      0x01\n      add\n      sload\n      swap1\n      dup1\n      0x02\n      add\n      sload\n      swap1\n      pop\n      dup4\n      jump\t// out\n        /* \"stake.sol\":294:321  IERC20 public immutable RNT */\n    tag_25:\n      immutable(\"0x7af96f1f1efc65ed484a0803de1d90713519e6ec663d7600835d02d7249d71c5\")\n      dup2\n      jump\t// out\n        /* \"stake.sol\":2543:3042  function unstake(uint256 amount) external nonReentrant {... */\n    tag_31:\n        /* \"@openzeppelin/contracts/security/ReentrancyGuard.sol\":2261:2282  _nonReentrantBefore() */\n      tag_67\n        /* \"@openzeppelin/contracts/security/ReentrancyGuard.sol\":2261:2280  _nonReentrantBefore */\n      tag_68\n        /* \"@openzeppelin/contracts/security/ReentrancyGuard.sol\":2261:2282  _nonReentrantBefore() */\n      jump\t// in\n    tag_67:\n        /* \"stake.sol\":2626:2627  0 */\n      0x00\n        /* \"stake.sol\":2617:2623  amount */\n      dup2\n        /* \"stake.sol\":2617:2627  amount > 0 */\n      gt\n        /* \"stake.sol\":2609:2661  require(amount > 0, \"Amount must be greater than 0\") */\n      tag_70\n      jumpi\n      mload(0x40)\n      0x08c379a000000000000000000000000000000000000000000000000000000000\n      dup2\n      mstore\n      0x04\n      add\n      tag_71\n      swap1\n      tag_72\n      jump\t// in\n    tag_71:\n      mload(0x40)\n      dup1\n      swap2\n      sub\n      swap1\n      revert\n    tag_70:\n        /* \"stake.sol\":2672:2699  StakeInfo storage userStake */\n      0x00\n        /* \"stake.sol\":2702:2708  stakes */\n      0x02\n        /* \"stake.sol\":2702:2720  stakes[msg.sender] */\n      0x00\n        /* \"stake.sol\":2709:2719  msg.sender */\n      caller\n        /* \"stake.sol\":2702:2720  stakes[msg.sender] */\n      0xffffffffffffffffffffffffffffffffffffffff\n      and\n      0xffffffffffffffffffffffffffffffffffffffff\n      and\n      dup2\n      mstore\n      0x20\n      add\n      swap1\n      dup2\n      mstore\n      0x20\n      add\n      0x00\n      keccak256\n        /* \"stake.sol\":2672:2720  StakeInfo storage userStake = stakes[msg.sender] */\n      swap1\n      pop\n        /* \"stake.sol\":2787:2793  amount */\n      dup2\n        /* \"stake.sol\":2767:2776  userStake */\n      dup2\n        /* \"stake.sol\":2767:2783  userStake.amount */\n      0x00\n      add\n      sload\n        /* \"stake.sol\":2767:2793  userStake.amount >= amount */\n      lt\n      iszero\n        /* \"stake.sol\":2759:2824  require(userStake.amount >= amount, \"Insufficient staked amount\") */\n      tag_73\n      jumpi\n      mload(0x40)\n      0x08c379a000000000000000000000000000000000000000000000000000000000\n      dup2\n      mstore\n      0x04\n      add\n      tag_74\n      swap1\n      tag_75\n      jump\t// in\n    tag_74:\n      mload(0x40)\n      dup1\n      swap2\n      sub\n      swap1\n      revert\n    tag_73:\n        /* \"stake.sol\":2837:2862  updateRewards(msg.sender) */\n      tag_76\n        /* \"stake.sol\":2851:2861  msg.sender */\n      caller\n        /* \"stake.sol\":2837:2850  updateRewards */\n      tag_77\n        /* \"stake.sol\":2837:2862  updateRewards(msg.sender) */\n      jump\t// in\n    tag_76:\n        /* \"stake.sol\":2903:2909  amount */\n      dup2\n        /* \"stake.sol\":2883:2892  userStake */\n      dup2\n        /* \"stake.sol\":2883:2899  userStake.amount */\n      0x00\n      add\n      0x00\n        /* \"stake.sol\":2883:2909  userStake.amount -= amount */\n      dup3\n      dup3\n      sload\n      tag_78\n      swap2\n      swap1\n      tag_79\n      jump\t// in\n    tag_78:\n      swap3\n      pop\n      pop\n      dup2\n      swap1\n      sstore\n      pop\n        /* \"stake.sol\":2928:2931  RNT */\n      immutable(\"0x7af96f1f1efc65ed484a0803de1d90713519e6ec663d7600835d02d7249d71c5\")\n        /* \"stake.sol\":2928:2940  RNT.transfer */\n      0xffffffffffffffffffffffffffffffffffffffff\n      and\n      0xa9059cbb\n        /* \"stake.sol\":2941:2951  msg.sender */\n      caller\n        /* \"stake.sol\":2953:2959  amount */\n      dup5\n        /* \"stake.sol\":2928:2960  RNT.transfer(msg.sender, amount) */\n      mload(0x40)\n      dup4\n      0xffffffff\n      and\n      0xe0\n      shl\n      dup2\n      mstore\n      0x04\n      add\n      tag_80\n      swap3\n      swap2\n      swap1\n      tag_81\n      jump\t// in\n    tag_80:\n      0x20\n      mload(0x40)\n      dup1\n      dup4\n      sub\n      dup2\n      0x00\n      dup8\n      gas\n      call\n      iszero\n      dup1\n      iszero\n      tag_83\n      jumpi\n      returndatasize\n      0x00\n      dup1\n      returndatacopy\n      revert(0x00, returndatasize)\n    tag_83:\n      pop\n      pop\n      pop\n      pop\n      mload(0x40)\n      returndatasize\n      not(0x1f)\n      0x1f\n      dup3\n      add\n      and\n      dup3\n      add\n      dup1\n      0x40\n      mstore\n      pop\n      dup2\n      add\n      swap1\n      tag_84\n      swap2\n      swap1\n      tag_85\n      jump\t// in\n    tag_84:\n        /* \"stake.sol\":2920:2980  require(RNT.transfer(msg.sender, amount), \"Transfer failed\") */\n      tag_86\n      jumpi\n      mload(0x40)\n      0x08c379a000000000000000000000000000000000000000000000000000000000\n      dup2\n      mstore\n      0x04\n      add\n      tag_87\n      swap1\n      tag_88\n      jump\t// in\n    tag_87:\n      mload(0x40)\n      dup1\n      swap2\n      sub\n      swap1\n      revert\n    tag_86:\n        /* \"stake.sol\":3015:3025  msg.sender */\n      caller\n        /* \"stake.sol\":3006:3034  Unstaked(msg.sender, amount) */\n      0xffffffffffffffffffffffffffffffffffffffff\n      and\n      0x0f5bb82176feb1b5e747e28471aa92156a04d9f3ab9f45f28e2d704232b93f75\n        /* \"stake.sol\":3027:3033  amount */\n      dup4\n        /* \"stake.sol\":3006:3034  Unstaked(msg.sender, amount) */\n      mload(0x40)\n      tag_89\n      swap2\n      swap1\n      tag_90\n      jump\t// in\n    tag_89:\n      mload(0x40)\n      dup1\n      swap2\n      sub\n      swap1\n      log2\n        /* \"stake.sol\":2598:3042  {... */\n      pop\n        /* \"@openzeppelin/contracts/security/ReentrancyGuard.sol\":2303:2323  _nonReentrantAfter() */\n      tag_91\n        /* \"@openzeppelin/contracts/security/ReentrancyGuard.sol\":2303:2321  _nonReentrantAfter */\n      tag_92\n        /* \"@openzeppelin/contracts/security/ReentrancyGuard.sol\":2303:2323  _nonReentrantAfter() */\n      jump\t// in\n    tag_91:\n        /* \"stake.sol\":2543:3042  function unstake(uint256 amount) external nonReentrant {... */\n      pop\n      jump\t// out\n        /* \"stake.sol\":3071:3707  function claimRewards() external nonReentrant {... */\n    tag_33:\n        /* \"@openzeppelin/contracts/security/ReentrancyGuard.sol\":2261:2282  _nonReentrantBefore() */\n      tag_94\n        /* \"@openzeppelin/contracts/security/ReentrancyGuard.sol\":2261:2280  _nonReentrantBefore */\n      tag_68\n        /* \"@openzeppelin/contracts/security/ReentrancyGuard.sol\":2261:2282  _nonReentrantBefore() */\n      jump\t// in\n    tag_94:\n        /* \"stake.sol\":3128:3153  updateRewards(msg.sender) */\n      tag_96\n        /* \"stake.sol\":3142:3152  msg.sender */\n      caller\n        /* \"stake.sol\":3128:3141  updateRewards */\n      tag_77\n        /* \"stake.sol\":3128:3153  updateRewards(msg.sender) */\n      jump\t// in\n    tag_96:\n        /* \"stake.sol\":3174:3201  StakeInfo storage userStake */\n      0x00\n        /* \"stake.sol\":3204:3210  stakes */\n      0x02\n        /* \"stake.sol\":3204:3222  stakes[msg.sender] */\n      0x00\n        /* \"stake.sol\":3211:3221  msg.sender */\n      caller\n        /* \"stake.sol\":3204:3222  stakes[msg.sender] */\n      0xffffffffffffffffffffffffffffffffffffffff\n      and\n      0xffffffffffffffffffffffffffffffffffffffff\n      and\n      dup2\n      mstore\n      0x20\n      add\n      swap1\n      dup2\n      mstore\n      0x20\n      add\n      0x00\n      keccak256\n        /* \"stake.sol\":3174:3222  StakeInfo storage userStake = stakes[msg.sender] */\n      swap1\n      pop\n        /* \"stake.sol\":3233:3248  uint256 rewards */\n      0x00\n        /* \"stake.sol\":3251:3260  userStake */\n      dup2\n        /* \"stake.sol\":3251:3275  userStake.pendingRewards */\n      0x02\n      add\n      sload\n        /* \"stake.sol\":3233:3275  uint256 rewards = userStake.pendingRewards */\n      swap1\n      pop\n        /* \"stake.sol\":3304:3305  0 */\n      0x00\n        /* \"stake.sol\":3294:3301  rewards */\n      dup2\n        /* \"stake.sol\":3294:3305  rewards > 0 */\n      gt\n        /* \"stake.sol\":3286:3329  require(rewards > 0, \"No rewards to claim\") */\n      tag_97\n      jumpi\n      mload(0x40)\n      0x08c379a000000000000000000000000000000000000000000000000000000000\n      dup2\n      mstore\n      0x04\n      add\n      tag_98\n      swap1\n      tag_99\n      jump\t// in\n    tag_98:\n      mload(0x40)\n      dup1\n      swap2\n      sub\n      swap1\n      revert\n    tag_97:\n        /* \"stake.sol\":3377:3378  0 */\n      0x00\n        /* \"stake.sol\":3350:3359  userStake */\n      dup3\n        /* \"stake.sol\":3350:3374  userStake.pendingRewards */\n      0x02\n      add\n        /* \"stake.sol\":3350:3378  userStake.pendingRewards = 0 */\n      dup2\n      swap1\n      sstore\n      pop\n        /* \"stake.sol\":3397:3402  esRNT */\n      immutable(\"0xc3e7a0f00dec549e28e164b0a86acf4e2ca38757a351368e18554e74f2a07bf0\")\n        /* \"stake.sol\":3397:3411  esRNT.transfer */\n      0xffffffffffffffffffffffffffffffffffffffff\n      and\n      0xa9059cbb\n        /* \"stake.sol\":3412:3422  msg.sender */\n      caller\n        /* \"stake.sol\":3424:3431  rewards */\n      dup4\n        /* \"stake.sol\":3397:3432  esRNT.transfer(msg.sender, rewards) */\n      mload(0x40)\n      dup4\n      0xffffffff\n      and\n      0xe0\n      shl\n      dup2\n      mstore\n      0x04\n      add\n      tag_100\n      swap3\n      swap2\n      swap1\n      tag_81\n      jump\t// in\n    tag_100:\n      0x20\n      mload(0x40)\n      dup1\n      dup4\n      sub\n      dup2\n      0x00\n      dup8\n      gas\n      call\n      iszero\n      dup1\n      iszero\n      tag_102\n      jumpi\n      returndatasize\n      0x00\n      dup1\n      returndatacopy\n      revert(0x00, returndatasize)\n    tag_102:\n      pop\n      pop\n      pop\n      pop\n      mload(0x40)\n      returndatasize\n      not(0x1f)\n      0x1f\n      dup3\n      add\n      and\n      dup3\n      add\n      dup1\n      0x40\n      mstore\n      pop\n      dup2\n      add\n      swap1\n      tag_103\n      swap2\n      swap1\n      tag_85\n      jump\t// in\n    tag_103:\n        /* \"stake.sol\":3389:3452  require(esRNT.transfer(msg.sender, rewards), \"Transfer failed\") */\n      tag_104\n      jumpi\n      mload(0x40)\n      0x08c379a000000000000000000000000000000000000000000000000000000000\n      dup2\n      mstore\n      0x04\n      add\n      tag_105\n      swap1\n      tag_88\n      jump\t// in\n    tag_105:\n      mload(0x40)\n      dup1\n      swap2\n      sub\n      swap1\n      revert\n    tag_104:\n        /* \"stake.sol\":3473:3481  vestings */\n      0x03\n        /* \"stake.sol\":3473:3493  vestings[msg.sender] */\n      0x00\n        /* \"stake.sol\":3482:3492  msg.sender */\n      caller\n        /* \"stake.sol\":3473:3493  vestings[msg.sender] */\n      0xffffffffffffffffffffffffffffffffffffffff\n      and\n      0xffffffffffffffffffffffffffffffffffffffff\n      and\n      dup2\n      mstore\n      0x20\n      add\n      swap1\n      dup2\n      mstore\n      0x20\n      add\n      0x00\n      keccak256\n        /* \"stake.sol\":3499:3594  VestingInfo({... */\n      mload(0x40)\n      dup1\n      0x40\n      add\n      0x40\n      mstore\n      dup1\n        /* \"stake.sol\":3534:3541  rewards */\n      dup4\n        /* \"stake.sol\":3499:3594  VestingInfo({... */\n      dup2\n      mstore\n      0x20\n      add\n        /* \"stake.sol\":3567:3582  block.timestamp */\n      timestamp\n        /* \"stake.sol\":3499:3594  VestingInfo({... */\n      dup2\n      mstore\n      pop\n        /* \"stake.sol\":3473:3595  vestings[msg.sender].push(VestingInfo({... */\n      swap1\n      dup1\n      0x01\n      dup2\n      sload\n      add\n      dup1\n      dup3\n      sstore\n      dup1\n      swap2\n      pop\n      pop\n      0x01\n      swap1\n      sub\n      swap1\n      0x00\n      mstore\n      keccak256(0x00, 0x20)\n      swap1\n      0x02\n      mul\n      add\n      0x00\n      swap1\n      swap2\n      swap1\n      swap2\n      swap1\n      swap2\n      pop\n      0x00\n      dup3\n      add\n      mload\n      dup2\n      0x00\n      add\n      sstore\n      0x20\n      dup3\n      add\n      mload\n      dup2\n      0x01\n      add\n      sstore\n      pop\n      pop\n        /* \"stake.sol\":3636:3646  msg.sender */\n      caller\n        /* \"stake.sol\":3621:3656  RewardsClaimed(msg.sender, rewards) */\n      0xffffffffffffffffffffffffffffffffffffffff\n      and\n      0xfc30cddea38e2bf4d6ea7d3f9ed3b6ad7f176419f4963bd81318067a4aee73fe\n        /* \"stake.sol\":3648:3655  rewards */\n      dup3\n        /* \"stake.sol\":3621:3656  RewardsClaimed(msg.sender, rewards) */\n      mload(0x40)\n      tag_107\n      swap2\n      swap1\n      tag_90\n      jump\t// in\n    tag_107:\n      mload(0x40)\n      dup1\n      swap2\n      sub\n      swap1\n      log2\n        /* \"stake.sol\":3679:3689  msg.sender */\n      caller\n        /* \"stake.sol\":3672:3699  Vested(msg.sender, rewards) */\n      0xffffffffffffffffffffffffffffffffffffffff\n      and\n      0xd5958799b183a7b738d3ad5e711305293dd5076a37a4e3b7e6611dea6114f3\n        /* \"stake.sol\":3691:3698  rewards */\n      dup3\n        /* \"stake.sol\":3672:3699  Vested(msg.sender, rewards) */\n      mload(0x40)\n      tag_108\n      swap2\n      swap1\n      tag_90\n      jump\t// in\n    tag_108:\n      mload(0x40)\n      dup1\n      swap2\n      sub\n      swap1\n      log2\n        /* \"stake.sol\":3117:3707  {... */\n      pop\n      pop\n        /* \"@openzeppelin/contracts/security/ReentrancyGuard.sol\":2303:2323  _nonReentrantAfter() */\n      tag_109\n        /* \"@openzeppelin/contracts/security/ReentrancyGuard.sol\":2303:2321  _nonReentrantAfter */\n      tag_92\n        /* \"@openzeppelin/contracts/security/ReentrancyGuard.sol\":2303:2323  _nonReentrantAfter() */\n      jump\t// in\n    tag_109:\n        /* \"stake.sol\":3071:3707  function claimRewards() external nonReentrant {... */\n      jump\t// out\n        /* \"stake.sol\":3751:4556  function getRedeemableAmount(address user) public view returns (uint256 unlocked, uint256 total) {... */\n    tag_36:\n        /* \"stake.sol\":3815:3831  uint256 unlocked */\n      0x00\n        /* \"stake.sol\":3833:3846  uint256 total */\n      dup1\n        /* \"stake.sol\":3859:3893  VestingInfo[] storage userVestings */\n      0x00\n        /* \"stake.sol\":3896:3904  vestings */\n      0x03\n        /* \"stake.sol\":3896:3910  vestings[user] */\n      0x00\n        /* \"stake.sol\":3905:3909  user */\n      dup6\n        /* \"stake.sol\":3896:3910  vestings[user] */\n      0xffffffffffffffffffffffffffffffffffffffff\n      and\n      0xffffffffffffffffffffffffffffffffffffffff\n      and\n      dup2\n      mstore\n      0x20\n      add\n      swap1\n      dup2\n      mstore\n      0x20\n      add\n      0x00\n      keccak256\n        /* \"stake.sol\":3859:3910  VestingInfo[] storage userVestings = vestings[user] */\n      swap1\n      pop\n        /* \"stake.sol\":3921:3940  uint256 currentTime */\n      0x00\n        /* \"stake.sol\":3943:3958  block.timestamp */\n      timestamp\n        /* \"stake.sol\":3921:3958  uint256 currentTime = block.timestamp */\n      swap1\n      pop\n        /* \"stake.sol\":3984:3993  uint256 i */\n      0x00\n        /* \"stake.sol\":3979:4549  for (uint256 i = 0; i < userVestings.length; i++) {... */\n    tag_111:\n        /* \"stake.sol\":4003:4015  userVestings */\n      dup3\n        /* \"stake.sol\":4003:4022  userVestings.length */\n      dup1\n      sload\n      swap1\n      pop\n        /* \"stake.sol\":3999:4000  i */\n      dup2\n        /* \"stake.sol\":3999:4022  i < userVestings.length */\n      lt\n        /* \"stake.sol\":3979:4549  for (uint256 i = 0; i < userVestings.length; i++) {... */\n      iszero\n      tag_112\n      jumpi\n        /* \"stake.sol\":4073:4074  0 */\n      0x00\n        /* \"stake.sol\":4048:4060  userVestings */\n      dup4\n        /* \"stake.sol\":4061:4062  i */\n      dup3\n        /* \"stake.sol\":4048:4063  userVestings[i] */\n      dup2\n      sload\n      dup2\n      lt\n      tag_114\n      jumpi\n      tag_115\n      tag_116\n      jump\t// in\n    tag_115:\n    tag_114:\n      swap1\n      0x00\n      mstore\n      keccak256(0x00, 0x20)\n      swap1\n      0x02\n      mul\n      add\n        /* \"stake.sol\":4048:4070  userVestings[i].amount */\n      0x00\n      add\n      sload\n        /* \"stake.sol\":4048:4074  userVestings[i].amount > 0 */\n      gt\n        /* \"stake.sol\":4044:4538  if (userVestings[i].amount > 0) {... */\n      iszero\n      tag_118\n      jumpi\n        /* \"stake.sol\":4104:4116  userVestings */\n      dup3\n        /* \"stake.sol\":4117:4118  i */\n      dup2\n        /* \"stake.sol\":4104:4119  userVestings[i] */\n      dup2\n      sload\n      dup2\n      lt\n      tag_119\n      jumpi\n      tag_120\n      tag_116\n      jump\t// in\n    tag_120:\n    tag_119:\n      swap1\n      0x00\n      mstore\n      keccak256(0x00, 0x20)\n      swap1\n      0x02\n      mul\n      add\n        /* \"stake.sol\":4104:4126  userVestings[i].amount */\n      0x00\n      add\n      sload\n        /* \"stake.sol\":4095:4126  total += userVestings[i].amount */\n      dup5\n      tag_122\n      swap2\n      swap1\n      tag_123\n      jump\t// in\n    tag_122:\n      swap4\n      pop\n        /* \"stake.sol\":4145:4164  uint256 timeElapsed */\n      0x00\n        /* \"stake.sol\":4181:4193  userVestings */\n      dup4\n        /* \"stake.sol\":4194:4195  i */\n      dup3\n        /* \"stake.sol\":4181:4196  userVestings[i] */\n      dup2\n      sload\n      dup2\n      lt\n      tag_124\n      jumpi\n      tag_125\n      tag_116\n      jump\t// in\n    tag_125:\n    tag_124:\n      swap1\n      0x00\n      mstore\n      keccak256(0x00, 0x20)\n      swap1\n      0x02\n      mul\n      add\n        /* \"stake.sol\":4181:4206  userVestings[i].startTime */\n      0x01\n      add\n      sload\n        /* \"stake.sol\":4167:4178  currentTime */\n      dup4\n        /* \"stake.sol\":4167:4206  currentTime - userVestings[i].startTime */\n      tag_127\n      swap2\n      swap1\n      tag_79\n      jump\t// in\n    tag_127:\n        /* \"stake.sol\":4145:4206  uint256 timeElapsed = currentTime - userVestings[i].startTime */\n      swap1\n      pop\n        /* \"stake.sol\":484:491  30 days */\n      0x278d00\n        /* \"stake.sol\":4247:4258  timeElapsed */\n      dup2\n        /* \"stake.sol\":4247:4273  timeElapsed >= LOCK_PERIOD */\n      lt\n        /* \"stake.sol\":4243:4523  if (timeElapsed >= LOCK_PERIOD) {... */\n      tag_128\n      jumpi\n        /* \"stake.sol\":4310:4322  userVestings */\n      dup4\n        /* \"stake.sol\":4323:4324  i */\n      dup3\n        /* \"stake.sol\":4310:4325  userVestings[i] */\n      dup2\n      sload\n      dup2\n      lt\n      tag_129\n      jumpi\n      tag_130\n      tag_116\n      jump\t// in\n    tag_130:\n    tag_129:\n      swap1\n      0x00\n      mstore\n      keccak256(0x00, 0x20)\n      swap1\n      0x02\n      mul\n      add\n        /* \"stake.sol\":4310:4332  userVestings[i].amount */\n      0x00\n      add\n      sload\n        /* \"stake.sol\":4298:4332  unlocked += userVestings[i].amount */\n      dup7\n      tag_132\n      swap2\n      swap1\n      tag_123\n      jump\t// in\n    tag_132:\n      swap6\n      pop\n        /* \"stake.sol\":4243:4523  if (timeElapsed >= LOCK_PERIOD) {... */\n      jump(tag_133)\n    tag_128:\n        /* \"stake.sol\":4381:4401  uint256 unlockedPart */\n      0x00\n        /* \"stake.sol\":484:491  30 days */\n      0x278d00\n        /* \"stake.sol\":4430:4441  timeElapsed */\n      dup3\n        /* \"stake.sol\":4405:4417  userVestings */\n      dup7\n        /* \"stake.sol\":4418:4419  i */\n      dup6\n        /* \"stake.sol\":4405:4420  userVestings[i] */\n      dup2\n      sload\n      dup2\n      lt\n      tag_134\n      jumpi\n      tag_135\n      tag_116\n      jump\t// in\n    tag_135:\n    tag_134:\n      swap1\n      0x00\n      mstore\n      keccak256(0x00, 0x20)\n      swap1\n      0x02\n      mul\n      add\n        /* \"stake.sol\":4405:4427  userVestings[i].amount */\n      0x00\n      add\n      sload\n        /* \"stake.sol\":4405:4441  userVestings[i].amount * timeElapsed */\n      tag_137\n      swap2\n      swap1\n      tag_138\n      jump\t// in\n    tag_137:\n        /* \"stake.sol\":4404:4456  (userVestings[i].amount * timeElapsed) / LOCK_PERIOD */\n      tag_139\n      swap2\n      swap1\n      tag_140\n      jump\t// in\n    tag_139:\n        /* \"stake.sol\":4381:4456  uint256 unlockedPart = (userVestings[i].amount * timeElapsed) / LOCK_PERIOD */\n      swap1\n      pop\n        /* \"stake.sol\":4491:4503  unlockedPart */\n      dup1\n        /* \"stake.sol\":4479:4503  unlocked += unlockedPart */\n      dup8\n      tag_141\n      swap2\n      swap1\n      tag_123\n      jump\t// in\n    tag_141:\n      swap7\n      pop\n        /* \"stake.sol\":4358:4523  {... */\n      pop\n        /* \"stake.sol\":4243:4523  if (timeElapsed >= LOCK_PERIOD) {... */\n    tag_133:\n        /* \"stake.sol\":4076:4538  {... */\n      pop\n        /* \"stake.sol\":4044:4538  if (userVestings[i].amount > 0) {... */\n    tag_118:\n        /* \"stake.sol\":4024:4027  i++ */\n      dup1\n      dup1\n      0x01\n      add\n      swap2\n      pop\n      pop\n        /* \"stake.sol\":3979:4549  for (uint256 i = 0; i < userVestings.length; i++) {... */\n      jump(tag_111)\n    tag_112:\n      pop\n        /* \"stake.sol\":3848:4556  {... */\n      pop\n      pop\n        /* \"stake.sol\":3751:4556  function getRedeemableAmount(address user) public view returns (uint256 unlocked, uint256 total) {... */\n      swap2\n      pop\n      swap2\n      jump\t// out\n        /* \"@openzeppelin/contracts/access/Ownable.sol\":2293:2394  function renounceOwnership() public virtual onlyOwner {... */\n    tag_40:\n        /* \"@openzeppelin/contracts/access/Ownable.sol\":1531:1544  _checkOwner() */\n      tag_143\n        /* \"@openzeppelin/contracts/access/Ownable.sol\":1531:1542  _checkOwner */\n      tag_144\n        /* \"@openzeppelin/contracts/access/Ownable.sol\":1531:1544  _checkOwner() */\n      jump\t// in\n    tag_143:\n        /* \"@openzeppelin/contracts/access/Ownable.sol\":2357:2387  _transferOwnership(address(0)) */\n      tag_146\n        /* \"@openzeppelin/contracts/access/Ownable.sol\":2384:2385  0 */\n      0x00\n        /* \"@openzeppelin/contracts/access/Ownable.sol\":2357:2375  _transferOwnership */\n      tag_147\n        /* \"@openzeppelin/contracts/access/Ownable.sol\":2357:2387  _transferOwnership(address(0)) */\n      jump\t// in\n    tag_146:\n        /* \"@openzeppelin/contracts/access/Ownable.sol\":2293:2394  function renounceOwnership() public virtual onlyOwner {... */\n      jump\t// out\n        /* \"@openzeppelin/contracts/access/Ownable.sol\":1638:1723  function owner() public view virtual returns (address) {... */\n    tag_42:\n        /* \"@openzeppelin/contracts/access/Ownable.sol\":1684:1691  address */\n      0x00\n        /* \"@openzeppelin/contracts/access/Ownable.sol\":1710:1716  _owner */\n      0x01\n      0x00\n      swap1\n      sload\n      swap1\n      0x0100\n      exp\n      swap1\n      div\n      0xffffffffffffffffffffffffffffffffffffffff\n      and\n        /* \"@openzeppelin/contracts/access/Ownable.sol\":1703:1716  return _owner */\n      swap1\n      pop\n        /* \"@openzeppelin/contracts/access/Ownable.sol\":1638:1723  function owner() public view virtual returns (address) {... */\n      swap1\n      jump\t// out\n        /* \"stake.sol\":347:376  IERC20 public immutable esRNT */\n    tag_46:\n      immutable(\"0xc3e7a0f00dec549e28e164b0a86acf4e2ca38757a351368e18554e74f2a07bf0\")\n      dup2\n      jump\t// out\n        /* \"stake.sol\":2074:2520  function stake(uint256 amount) external nonReentrant {... */\n    tag_50:\n        /* \"@openzeppelin/contracts/security/ReentrancyGuard.sol\":2261:2282  _nonReentrantBefore() */\n      tag_150\n        /* \"@openzeppelin/contracts/security/ReentrancyGuard.sol\":2261:2280  _nonReentrantBefore */\n      tag_68\n        /* \"@openzeppelin/contracts/security/ReentrancyGuard.sol\":2261:2282  _nonReentrantBefore() */\n      jump\t// in\n    tag_150:\n        /* \"stake.sol\":2155:2156  0 */\n      0x00\n        /* \"stake.sol\":2146:2152  amount */\n      dup2\n        /* \"stake.sol\":2146:2156  amount > 0 */\n      gt\n        /* \"stake.sol\":2138:2190  require(amount > 0, \"Amount must be greater than 0\") */\n      tag_152\n      jumpi\n      mload(0x40)\n      0x08c379a000000000000000000000000000000000000000000000000000000000\n      dup2\n      mstore\n      0x04\n      add\n      tag_153\n      swap1\n      tag_72\n      jump\t// in\n    tag_153:\n      mload(0x40)\n      dup1\n      swap2\n      sub\n      swap1\n      revert\n    tag_152:\n        /* \"stake.sol\":2211:2236  updateRewards(msg.sender) */\n      tag_154\n        /* \"stake.sol\":2225:2235  msg.sender */\n      caller\n        /* \"stake.sol\":2211:2224  updateRewards */\n      tag_77\n        /* \"stake.sol\":2211:2236  updateRewards(msg.sender) */\n      jump\t// in\n    tag_154:\n        /* \"stake.sol\":2257:2284  StakeInfo storage userStake */\n      0x00\n        /* \"stake.sol\":2287:2293  stakes */\n      0x02\n        /* \"stake.sol\":2287:2305  stakes[msg.sender] */\n      0x00\n        /* \"stake.sol\":2294:2304  msg.sender */\n      caller\n        /* \"stake.sol\":2287:2305  stakes[msg.sender] */\n      0xffffffffffffffffffffffffffffffffffffffff\n      and\n      0xffffffffffffffffffffffffffffffffffffffff\n      and\n      dup2\n      mstore\n      0x20\n      add\n      swap1\n      dup2\n      mstore\n      0x20\n      add\n      0x00\n      keccak256\n        /* \"stake.sol\":2257:2305  StakeInfo storage userStake = stakes[msg.sender] */\n      swap1\n      pop\n        /* \"stake.sol\":2364:2370  amount */\n      dup2\n        /* \"stake.sol\":2344:2353  userStake */\n      dup2\n        /* \"stake.sol\":2344:2360  userStake.amount */\n      0x00\n      add\n      0x00\n        /* \"stake.sol\":2344:2370  userStake.amount += amount */\n      dup3\n      dup3\n      sload\n      tag_155\n      swap2\n      swap1\n      tag_123\n      jump\t// in\n    tag_155:\n      swap3\n      pop\n      pop\n      dup2\n      swap1\n      sstore\n      pop\n        /* \"stake.sol\":2389:2392  RNT */\n      immutable(\"0x7af96f1f1efc65ed484a0803de1d90713519e6ec663d7600835d02d7249d71c5\")\n        /* \"stake.sol\":2389:2405  RNT.transferFrom */\n      0xffffffffffffffffffffffffffffffffffffffff\n      and\n      0x23b872dd\n        /* \"stake.sol\":2406:2416  msg.sender */\n      caller\n        /* \"stake.sol\":2426:2430  this */\n      address\n        /* \"stake.sol\":2433:2439  amount */\n      dup6\n        /* \"stake.sol\":2389:2440  RNT.transferFrom(msg.sender, address(this), amount) */\n      mload(0x40)\n      dup5\n      0xffffffff\n      and\n      0xe0\n      shl\n      dup2\n      mstore\n      0x04\n      add\n      tag_156\n      swap4\n      swap3\n      swap2\n      swap1\n      tag_157\n      jump\t// in\n    tag_156:\n      0x20\n      mload(0x40)\n      dup1\n      dup4\n      sub\n      dup2\n      0x00\n      dup8\n      gas\n      call\n      iszero\n      dup1\n      iszero\n      tag_159\n      jumpi\n      returndatasize\n      0x00\n      dup1\n      returndatacopy\n      revert(0x00, returndatasize)\n    tag_159:\n      pop\n      pop\n      pop\n      pop\n      mload(0x40)\n      returndatasize\n      not(0x1f)\n      0x1f\n      dup3\n      add\n      and\n      dup3\n      add\n      dup1\n      0x40\n      mstore\n      pop\n      dup2\n      add\n      swap1\n      tag_160\n      swap2\n      swap1\n      tag_85\n      jump\t// in\n    tag_160:\n        /* \"stake.sol\":2381:2460  require(RNT.transferFrom(msg.sender, address(this), amount), \"Transfer failed\") */\n      tag_161\n      jumpi\n      mload(0x40)\n      0x08c379a000000000000000000000000000000000000000000000000000000000\n      dup2\n      mstore\n      0x04\n      add\n      tag_162\n      swap1\n      tag_88\n      jump\t// in\n    tag_162:\n      mload(0x40)\n      dup1\n      swap2\n      sub\n      swap1\n      revert\n    tag_161:\n        /* \"stake.sol\":2493:2503  msg.sender */\n      caller\n        /* \"stake.sol\":2486:2512  Staked(msg.sender, amount) */\n      0xffffffffffffffffffffffffffffffffffffffff\n      and\n      0x9e71bc8eea02a63969f509818f2dafb9254532904319f9dbda79b67bd34a5f3d\n        /* \"stake.sol\":2505:2511  amount */\n      dup4\n        /* \"stake.sol\":2486:2512  Staked(msg.sender, amount) */\n      mload(0x40)\n      tag_163\n      swap2\n      swap1\n      tag_90\n      jump\t// in\n    tag_163:\n      mload(0x40)\n      dup1\n      swap2\n      sub\n      swap1\n      log2\n        /* \"stake.sol\":2127:2520  {... */\n      pop\n        /* \"@openzeppelin/contracts/security/ReentrancyGuard.sol\":2303:2323  _nonReentrantAfter() */\n      tag_164\n        /* \"@openzeppelin/contracts/security/ReentrancyGuard.sol\":2303:2321  _nonReentrantAfter */\n      tag_92\n        /* \"@openzeppelin/contracts/security/ReentrancyGuard.sol\":2303:2323  _nonReentrantAfter() */\n      jump\t// in\n    tag_164:\n        /* \"stake.sol\":2074:2520  function stake(uint256 amount) external nonReentrant {... */\n      pop\n      jump\t// out\n        /* \"stake.sol\":966:1015  mapping(address => VestingInfo[]) public vestings */\n    tag_54:\n      mstore(0x20, 0x03)\n      dup2\n      0x00\n      mstore\n      keccak256(0x00, 0x40)\n      dup2\n      dup2\n      sload\n      dup2\n      lt\n      tag_165\n      jumpi\n      0x00\n      dup1\n      revert\n    tag_165:\n      swap1\n      0x00\n      mstore\n      keccak256(0x00, 0x20)\n      swap1\n      0x02\n      mul\n      add\n      0x00\n      swap2\n      pop\n      swap2\n      pop\n      pop\n      dup1\n      0x00\n      add\n      sload\n      swap1\n      dup1\n      0x01\n      add\n      sload\n      swap1\n      pop\n      dup3\n      jump\t// out\n        /* \"stake.sol\":6027:6529  function getStakeInfo(address user) external view returns (uint256 amount, uint256 rewards) {... */\n    tag_58:\n        /* \"stake.sol\":6086:6100  uint256 amount */\n      0x00\n        /* \"stake.sol\":6102:6117  uint256 rewards */\n      dup1\n        /* \"stake.sol\":6130:6156  StakeInfo memory userStake */\n      0x00\n        /* \"stake.sol\":6159:6165  stakes */\n      0x02\n        /* \"stake.sol\":6159:6171  stakes[user] */\n      0x00\n        /* \"stake.sol\":6166:6170  user */\n      dup6\n        /* \"stake.sol\":6159:6171  stakes[user] */\n      0xffffffffffffffffffffffffffffffffffffffff\n      and\n      0xffffffffffffffffffffffffffffffffffffffff\n      and\n      dup2\n      mstore\n      0x20\n      add\n      swap1\n      dup2\n      mstore\n      0x20\n      add\n      0x00\n      keccak256\n        /* \"stake.sol\":6130:6171  StakeInfo memory userStake = stakes[user] */\n      mload(0x40)\n      dup1\n      0x60\n      add\n      0x40\n      mstore\n      swap1\n      dup2\n      0x00\n      dup3\n      add\n      sload\n      dup2\n      mstore\n      0x20\n      add\n      0x01\n      dup3\n      add\n      sload\n      dup2\n      mstore\n      0x20\n      add\n      0x02\n      dup3\n      add\n      sload\n      dup2\n      mstore\n      pop\n      pop\n      swap1\n      pop\n        /* \"stake.sol\":6210:6225  uint256 pending */\n      0x00\n        /* \"stake.sol\":6228:6237  userStake */\n      dup2\n        /* \"stake.sol\":6228:6252  userStake.pendingRewards */\n      0x40\n      add\n      mload\n        /* \"stake.sol\":6210:6252  uint256 pending = userStake.pendingRewards */\n      swap1\n      pop\n        /* \"stake.sol\":6286:6287  0 */\n      0x00\n        /* \"stake.sol\":6267:6276  userStake */\n      dup3\n        /* \"stake.sol\":6267:6283  userStake.amount */\n      0x00\n      add\n      mload\n        /* \"stake.sol\":6267:6287  userStake.amount > 0 */\n      gt\n        /* \"stake.sol\":6263:6477  if (userStake.amount > 0) {... */\n      iszero\n      tag_168\n      jumpi\n        /* \"stake.sol\":6304:6323  uint256 timeElapsed */\n      0x00\n        /* \"stake.sol\":6344:6353  userStake */\n      dup3\n        /* \"stake.sol\":6344:6368  userStake.lastUpdateTime */\n      0x20\n      add\n      mload\n        /* \"stake.sol\":6326:6341  block.timestamp */\n      timestamp\n        /* \"stake.sol\":6326:6368  block.timestamp - userStake.lastUpdateTime */\n      tag_169\n      swap2\n      swap1\n      tag_79\n      jump\t// in\n    tag_169:\n        /* \"stake.sol\":6304:6368  uint256 timeElapsed = block.timestamp - userStake.lastUpdateTime */\n      swap1\n      pop\n        /* \"stake.sol\":6461:6465  1e18 */\n      0x0de0b6b3a7640000\n        /* \"stake.sol\":441:446  86400 */\n      0x015180\n        /* \"stake.sol\":529:533  1e18 */\n      0x0de0b6b3a7640000\n        /* \"stake.sol\":6414:6425  timeElapsed */\n      dup4\n        /* \"stake.sol\":6395:6404  userStake */\n      dup7\n        /* \"stake.sol\":6395:6411  userStake.amount */\n      0x00\n      add\n      mload\n        /* \"stake.sol\":6395:6425  userStake.amount * timeElapsed */\n      tag_170\n      swap2\n      swap1\n      tag_138\n      jump\t// in\n    tag_170:\n        /* \"stake.sol\":6395:6439  userStake.amount * timeElapsed * REWARD_RATE */\n      tag_171\n      swap2\n      swap1\n      tag_138\n      jump\t// in\n    tag_171:\n        /* \"stake.sol\":6394:6458  (userStake.amount * timeElapsed * REWARD_RATE) / SECONDS_PER_DAY */\n      tag_172\n      swap2\n      swap1\n      tag_140\n      jump\t// in\n    tag_172:\n        /* \"stake.sol\":6394:6465  (userStake.amount * timeElapsed * REWARD_RATE) / SECONDS_PER_DAY / 1e18 */\n      tag_173\n      swap2\n      swap1\n      tag_140\n      jump\t// in\n    tag_173:\n        /* \"stake.sol\":6383:6465  pending += (userStake.amount * timeElapsed * REWARD_RATE) / SECONDS_PER_DAY / 1e18 */\n      dup3\n      tag_174\n      swap2\n      swap1\n      tag_123\n      jump\t// in\n    tag_174:\n      swap2\n      pop\n        /* \"stake.sol\":6289:6477  {... */\n      pop\n        /* \"stake.sol\":6263:6477  if (userStake.amount > 0) {... */\n    tag_168:\n        /* \"stake.sol\":6495:6504  userStake */\n      dup2\n        /* \"stake.sol\":6495:6511  userStake.amount */\n      0x00\n      add\n      mload\n        /* \"stake.sol\":6513:6520  pending */\n      dup2\n        /* \"stake.sol\":6487:6521  return (userStake.amount, pending) */\n      swap4\n      pop\n      swap4\n      pop\n      pop\n      pop\n        /* \"stake.sol\":6027:6529  function getStakeInfo(address user) external view returns (uint256 amount, uint256 rewards) {... */\n      swap2\n      pop\n      swap2\n      jump\t// out\n        /* \"stake.sol\":4584:5992  function redeem(uint256 amount) external nonReentrant {... */\n    tag_62:\n        /* \"@openzeppelin/contracts/security/ReentrancyGuard.sol\":2261:2282  _nonReentrantBefore() */\n      tag_176\n        /* \"@openzeppelin/contracts/security/ReentrancyGuard.sol\":2261:2280  _nonReentrantBefore */\n      tag_68\n        /* \"@openzeppelin/contracts/security/ReentrancyGuard.sol\":2261:2282  _nonReentrantBefore() */\n      jump\t// in\n    tag_176:\n        /* \"stake.sol\":4650:4666  uint256 unlocked */\n      0x00\n        /* \"stake.sol\":4668:4681  uint256 total */\n      dup1\n        /* \"stake.sol\":4685:4716  getRedeemableAmount(msg.sender) */\n      tag_178\n        /* \"stake.sol\":4705:4715  msg.sender */\n      caller\n        /* \"stake.sol\":4685:4704  getRedeemableAmount */\n      tag_36\n        /* \"stake.sol\":4685:4716  getRedeemableAmount(msg.sender) */\n      jump\t// in\n    tag_178:\n        /* \"stake.sol\":4649:4716  (uint256 unlocked, uint256 total) = getRedeemableAmount(msg.sender) */\n      swap2\n      pop\n      swap2\n      pop\n        /* \"stake.sol\":4744:4750  amount */\n      dup3\n        /* \"stake.sol\":4735:4740  total */\n      dup2\n        /* \"stake.sol\":4735:4750  total >= amount */\n      lt\n      iszero\n        /* \"stake.sol\":4727:4781  require(total >= amount, \"Insufficient vested amount\") */\n      tag_179\n      jumpi\n      mload(0x40)\n      0x08c379a000000000000000000000000000000000000000000000000000000000\n      dup2\n      mstore\n      0x04\n      add\n      tag_180\n      swap1\n      tag_181\n      jump\t// in\n    tag_180:\n      mload(0x40)\n      dup1\n      swap2\n      sub\n      swap1\n      revert\n    tag_179:\n        /* \"stake.sol\":4802:4820  uint256 burnAmount */\n      0x00\n        /* \"stake.sol\":4835:4855  uint256 redeemAmount */\n      dup1\n        /* \"stake.sol\":4894:4902  unlocked */\n      dup4\n        /* \"stake.sol\":4884:4890  amount */\n      dup6\n        /* \"stake.sol\":4884:4902  amount <= unlocked */\n      gt\n        /* \"stake.sol\":4880:5053  if (amount <= unlocked) {... */\n      tag_182\n      jumpi\n        /* \"stake.sol\":4934:4940  amount */\n      dup5\n        /* \"stake.sol\":4919:4940  redeemAmount = amount */\n      swap1\n      pop\n        /* \"stake.sol\":4880:5053  if (amount <= unlocked) {... */\n      jump(tag_183)\n    tag_182:\n        /* \"stake.sol\":4988:4996  unlocked */\n      dup4\n        /* \"stake.sol\":4973:4996  redeemAmount = unlocked */\n      swap1\n      pop\n        /* \"stake.sol\":5033:5041  unlocked */\n      dup4\n        /* \"stake.sol\":5024:5030  amount */\n      dup6\n        /* \"stake.sol\":5024:5041  amount - unlocked */\n      tag_184\n      swap2\n      swap1\n      tag_79\n      jump\t// in\n    tag_184:\n        /* \"stake.sol\":5011:5041  burnAmount = amount - unlocked */\n      swap2\n      pop\n        /* \"stake.sol\":4880:5053  if (amount <= unlocked) {... */\n    tag_183:\n        /* \"stake.sol\":5097:5131  VestingInfo[] storage userVestings */\n      0x00\n        /* \"stake.sol\":5134:5142  vestings */\n      0x03\n        /* \"stake.sol\":5134:5154  vestings[msg.sender] */\n      0x00\n        /* \"stake.sol\":5143:5153  msg.sender */\n      caller\n        /* \"stake.sol\":5134:5154  vestings[msg.sender] */\n      0xffffffffffffffffffffffffffffffffffffffff\n      and\n      0xffffffffffffffffffffffffffffffffffffffff\n      and\n      dup2\n      mstore\n      0x20\n      add\n      swap1\n      dup2\n      mstore\n      0x20\n      add\n      0x00\n      keccak256\n        /* \"stake.sol\":5097:5154  VestingInfo[] storage userVestings = vestings[msg.sender] */\n      swap1\n      pop\n        /* \"stake.sol\":5165:5182  uint256 remaining */\n      0x00\n        /* \"stake.sol\":5185:5191  amount */\n      dup7\n        /* \"stake.sol\":5165:5191  uint256 remaining = amount */\n      swap1\n      pop\n        /* \"stake.sol\":5217:5226  uint256 i */\n      0x00\n        /* \"stake.sol\":5212:5659  for (uint256 i = 0; i < userVestings.length && remaining > 0; i++) {... */\n    tag_185:\n        /* \"stake.sol\":5236:5248  userVestings */\n      dup3\n        /* \"stake.sol\":5236:5255  userVestings.length */\n      dup1\n      sload\n      swap1\n      pop\n        /* \"stake.sol\":5232:5233  i */\n      dup2\n        /* \"stake.sol\":5232:5255  i < userVestings.length */\n      lt\n        /* \"stake.sol\":5232:5272  i < userVestings.length && remaining > 0 */\n      dup1\n      iszero\n      tag_188\n      jumpi\n      pop\n        /* \"stake.sol\":5271:5272  0 */\n      0x00\n        /* \"stake.sol\":5259:5268  remaining */\n      dup3\n        /* \"stake.sol\":5259:5272  remaining > 0 */\n      gt\n        /* \"stake.sol\":5232:5272  i < userVestings.length && remaining > 0 */\n    tag_188:\n        /* \"stake.sol\":5212:5659  for (uint256 i = 0; i < userVestings.length && remaining > 0; i++) {... */\n      iszero\n      tag_186\n      jumpi\n        /* \"stake.sol\":5323:5324  0 */\n      0x00\n        /* \"stake.sol\":5298:5310  userVestings */\n      dup4\n        /* \"stake.sol\":5311:5312  i */\n      dup3\n        /* \"stake.sol\":5298:5313  userVestings[i] */\n      dup2\n      sload\n      dup2\n      lt\n      tag_189\n      jumpi\n      tag_190\n      tag_116\n      jump\t// in\n    tag_190:\n    tag_189:\n      swap1\n      0x00\n      mstore\n      keccak256(0x00, 0x20)\n      swap1\n      0x02\n      mul\n      add\n        /* \"stake.sol\":5298:5320  userVestings[i].amount */\n      0x00\n      add\n      sload\n        /* \"stake.sol\":5298:5324  userVestings[i].amount > 0 */\n      gt\n        /* \"stake.sol\":5294:5648  if (userVestings[i].amount > 0) {... */\n      iszero\n      tag_192\n      jumpi\n        /* \"stake.sol\":5375:5384  remaining */\n      dup2\n        /* \"stake.sol\":5349:5361  userVestings */\n      dup4\n        /* \"stake.sol\":5362:5363  i */\n      dup3\n        /* \"stake.sol\":5349:5364  userVestings[i] */\n      dup2\n      sload\n      dup2\n      lt\n      tag_193\n      jumpi\n      tag_194\n      tag_116\n      jump\t// in\n    tag_194:\n    tag_193:\n      swap1\n      0x00\n      mstore\n      keccak256(0x00, 0x20)\n      swap1\n      0x02\n      mul\n      add\n        /* \"stake.sol\":5349:5371  userVestings[i].amount */\n      0x00\n      add\n      sload\n        /* \"stake.sol\":5349:5384  userVestings[i].amount <= remaining */\n      gt\n        /* \"stake.sol\":5345:5633  if (userVestings[i].amount <= remaining) {... */\n      tag_196\n      jumpi\n        /* \"stake.sol\":5422:5434  userVestings */\n      dup3\n        /* \"stake.sol\":5435:5436  i */\n      dup2\n        /* \"stake.sol\":5422:5437  userVestings[i] */\n      dup2\n      sload\n      dup2\n      lt\n      tag_197\n      jumpi\n      tag_198\n      tag_116\n      jump\t// in\n    tag_198:\n    tag_197:\n      swap1\n      0x00\n      mstore\n      keccak256(0x00, 0x20)\n      swap1\n      0x02\n      mul\n      add\n        /* \"stake.sol\":5422:5444  userVestings[i].amount */\n      0x00\n      add\n      sload\n        /* \"stake.sol\":5409:5444  remaining -= userVestings[i].amount */\n      dup3\n      tag_200\n      swap2\n      swap1\n      tag_79\n      jump\t// in\n    tag_200:\n      swap2\n      pop\n        /* \"stake.sol\":5492:5493  0 */\n      0x00\n        /* \"stake.sol\":5467:5479  userVestings */\n      dup4\n        /* \"stake.sol\":5480:5481  i */\n      dup3\n        /* \"stake.sol\":5467:5482  userVestings[i] */\n      dup2\n      sload\n      dup2\n      lt\n      tag_201\n      jumpi\n      tag_202\n      tag_116\n      jump\t// in\n    tag_202:\n    tag_201:\n      swap1\n      0x00\n      mstore\n      keccak256(0x00, 0x20)\n      swap1\n      0x02\n      mul\n      add\n        /* \"stake.sol\":5467:5489  userVestings[i].amount */\n      0x00\n      add\n        /* \"stake.sol\":5467:5493  userVestings[i].amount = 0 */\n      dup2\n      swap1\n      sstore\n      pop\n        /* \"stake.sol\":5345:5633  if (userVestings[i].amount <= remaining) {... */\n      jump(tag_204)\n    tag_196:\n        /* \"stake.sol\":5568:5577  remaining */\n      dup2\n        /* \"stake.sol\":5542:5554  userVestings */\n      dup4\n        /* \"stake.sol\":5555:5556  i */\n      dup3\n        /* \"stake.sol\":5542:5557  userVestings[i] */\n      dup2\n      sload\n      dup2\n      lt\n      tag_205\n      jumpi\n      tag_206\n      tag_116\n      jump\t// in\n    tag_206:\n    tag_205:\n      swap1\n      0x00\n      mstore\n      keccak256(0x00, 0x20)\n      swap1\n      0x02\n      mul\n      add\n        /* \"stake.sol\":5542:5564  userVestings[i].amount */\n      0x00\n      add\n      0x00\n        /* \"stake.sol\":5542:5577  userVestings[i].amount -= remaining */\n      dup3\n      dup3\n      sload\n      tag_208\n      swap2\n      swap1\n      tag_79\n      jump\t// in\n    tag_208:\n      swap3\n      pop\n      pop\n      dup2\n      swap1\n      sstore\n      pop\n        /* \"stake.sol\":5612:5613  0 */\n      0x00\n        /* \"stake.sol\":5600:5613  remaining = 0 */\n      swap2\n      pop\n        /* \"stake.sol\":5345:5633  if (userVestings[i].amount <= remaining) {... */\n    tag_204:\n        /* \"stake.sol\":5294:5648  if (userVestings[i].amount > 0) {... */\n    tag_192:\n        /* \"stake.sol\":5274:5277  i++ */\n      dup1\n      dup1\n      tag_209\n      swap1\n      tag_210\n      jump\t// in\n    tag_209:\n      swap2\n      pop\n      pop\n        /* \"stake.sol\":5212:5659  for (uint256 i = 0; i < userVestings.length && remaining > 0; i++) {... */\n      jump(tag_185)\n    tag_186:\n      pop\n        /* \"stake.sol\":5704:5709  esRNT */\n      immutable(\"0xc3e7a0f00dec549e28e164b0a86acf4e2ca38757a351368e18554e74f2a07bf0\")\n        /* \"stake.sol\":5704:5722  esRNT.transferFrom */\n      0xffffffffffffffffffffffffffffffffffffffff\n      and\n      0x23b872dd\n        /* \"stake.sol\":5723:5733  msg.sender */\n      caller\n        /* \"stake.sol\":5743:5747  this */\n      address\n        /* \"stake.sol\":5750:5756  amount */\n      dup11\n        /* \"stake.sol\":5704:5757  esRNT.transferFrom(msg.sender, address(this), amount) */\n      mload(0x40)\n      dup5\n      0xffffffff\n      and\n      0xe0\n      shl\n      dup2\n      mstore\n      0x04\n      add\n      tag_211\n      swap4\n      swap3\n      swap2\n      swap1\n      tag_157\n      jump\t// in\n    tag_211:\n      0x20\n      mload(0x40)\n      dup1\n      dup4\n      sub\n      dup2\n      0x00\n      dup8\n      gas\n      call\n      iszero\n      dup1\n      iszero\n      tag_213\n      jumpi\n      returndatasize\n      0x00\n      dup1\n      returndatacopy\n      revert(0x00, returndatasize)\n    tag_213:\n      pop\n      pop\n      pop\n      pop\n      mload(0x40)\n      returndatasize\n      not(0x1f)\n      0x1f\n      dup3\n      add\n      and\n      dup3\n      add\n      dup1\n      0x40\n      mstore\n      pop\n      dup2\n      add\n      swap1\n      tag_214\n      swap2\n      swap1\n      tag_85\n      jump\t// in\n    tag_214:\n        /* \"stake.sol\":5696:5783  require(esRNT.transferFrom(msg.sender, address(this), amount), \"esRNT transfer failed\") */\n      tag_215\n      jumpi\n      mload(0x40)\n      0x08c379a000000000000000000000000000000000000000000000000000000000\n      dup2\n      mstore\n      0x04\n      add\n      tag_216\n      swap1\n      tag_217\n      jump\t// in\n    tag_216:\n      mload(0x40)\n      dup1\n      swap2\n      sub\n      swap1\n      revert\n    tag_215:\n        /* \"stake.sol\":5813:5814  0 */\n      0x00\n        /* \"stake.sol\":5798:5810  redeemAmount */\n      dup4\n        /* \"stake.sol\":5798:5814  redeemAmount > 0 */\n      gt\n        /* \"stake.sol\":5794:5913  if (redeemAmount > 0) {... */\n      iszero\n      tag_218\n      jumpi\n        /* \"stake.sol\":5839:5842  RNT */\n      immutable(\"0x7af96f1f1efc65ed484a0803de1d90713519e6ec663d7600835d02d7249d71c5\")\n        /* \"stake.sol\":5839:5851  RNT.transfer */\n      0xffffffffffffffffffffffffffffffffffffffff\n      and\n      0xa9059cbb\n        /* \"stake.sol\":5852:5862  msg.sender */\n      caller\n        /* \"stake.sol\":5864:5876  redeemAmount */\n      dup6\n        /* \"stake.sol\":5839:5877  RNT.transfer(msg.sender, redeemAmount) */\n      mload(0x40)\n      dup4\n      0xffffffff\n      and\n      0xe0\n      shl\n      dup2\n      mstore\n      0x04\n      add\n      tag_219\n      swap3\n      swap2\n      swap1\n      tag_81\n      jump\t// in\n    tag_219:\n      0x20\n      mload(0x40)\n      dup1\n      dup4\n      sub\n      dup2\n      0x00\n      dup8\n      gas\n      call\n      iszero\n      dup1\n      iszero\n      tag_221\n      jumpi\n      returndatasize\n      0x00\n      dup1\n      returndatacopy\n      revert(0x00, returndatasize)\n    tag_221:\n      pop\n      pop\n      pop\n      pop\n      mload(0x40)\n      returndatasize\n      not(0x1f)\n      0x1f\n      dup3\n      add\n      and\n      dup3\n      add\n      dup1\n      0x40\n      mstore\n      pop\n      dup2\n      add\n      swap1\n      tag_222\n      swap2\n      swap1\n      tag_85\n      jump\t// in\n    tag_222:\n        /* \"stake.sol\":5831:5901  require(RNT.transfer(msg.sender, redeemAmount), \"RNT transfer failed\") */\n      tag_223\n      jumpi\n      mload(0x40)\n      0x08c379a000000000000000000000000000000000000000000000000000000000\n      dup2\n      mstore\n      0x04\n      add\n      tag_224\n      swap1\n      tag_225\n      jump\t// in\n    tag_224:\n      mload(0x40)\n      dup1\n      swap2\n      sub\n      swap1\n      revert\n    tag_223:\n        /* \"stake.sol\":5794:5913  if (redeemAmount > 0) {... */\n    tag_218:\n        /* \"stake.sol\":5947:5957  msg.sender */\n      caller\n        /* \"stake.sol\":5938:5984  Redeemed(msg.sender, redeemAmount, burnAmount) */\n      0xffffffffffffffffffffffffffffffffffffffff\n      and\n      0xf3a670cd3af7d64b488926880889d08a8585a138ff455227af6737339a1ec262\n        /* \"stake.sol\":5959:5971  redeemAmount */\n      dup5\n        /* \"stake.sol\":5973:5983  burnAmount */\n      dup7\n        /* \"stake.sol\":5938:5984  Redeemed(msg.sender, redeemAmount, burnAmount) */\n      mload(0x40)\n      tag_226\n      swap3\n      swap2\n      swap1\n      tag_38\n      jump\t// in\n    tag_226:\n      mload(0x40)\n      dup1\n      swap2\n      sub\n      swap1\n      log2\n        /* \"stake.sol\":4638:5992  {... */\n      pop\n      pop\n      pop\n      pop\n      pop\n      pop\n        /* \"@openzeppelin/contracts/security/ReentrancyGuard.sol\":2303:2323  _nonReentrantAfter() */\n      tag_227\n        /* \"@openzeppelin/contracts/security/ReentrancyGuard.sol\":2303:2321  _nonReentrantAfter */\n      tag_92\n        /* \"@openzeppelin/contracts/security/ReentrancyGuard.sol\":2303:2323  _nonReentrantAfter() */\n      jump\t// in\n    tag_227:\n        /* \"stake.sol\":4584:5992  function redeem(uint256 amount) external nonReentrant {... */\n      pop\n      jump\t// out\n        /* \"@openzeppelin/contracts/access/Ownable.sol\":2543:2758  function transferOwnership(address newOwner) public virtual onlyOwner {... */\n    tag_65:\n        /* \"@openzeppelin/contracts/access/Ownable.sol\":1531:1544  _checkOwner() */\n      tag_229\n        /* \"@openzeppelin/contracts/access/Ownable.sol\":1531:1542  _checkOwner */\n      tag_144\n        /* \"@openzeppelin/contracts/access/Ownable.sol\":1531:1544  _checkOwner() */\n      jump\t// in\n    tag_229:\n        /* \"@openzeppelin/contracts/access/Ownable.sol\":2647:2648  0 */\n      0x00\n        /* \"@openzeppelin/contracts/access/Ownable.sol\":2627:2649  newOwner == address(0) */\n      0xffffffffffffffffffffffffffffffffffffffff\n      and\n        /* \"@openzeppelin/contracts/access/Ownable.sol\":2627:2635  newOwner */\n      dup2\n        /* \"@openzeppelin/contracts/access/Ownable.sol\":2627:2649  newOwner == address(0) */\n      0xffffffffffffffffffffffffffffffffffffffff\n      and\n      sub\n        /* \"@openzeppelin/contracts/access/Ownable.sol\":2623:2714  if (newOwner == address(0)) {... */\n      tag_231\n      jumpi\n        /* \"@openzeppelin/contracts/access/Ownable.sol\":2700:2701  0 */\n      0x00\n        /* \"@openzeppelin/contracts/access/Ownable.sol\":2672:2703  OwnableInvalidOwner(address(0)) */\n      mload(0x40)\n      0x1e4fbdf700000000000000000000000000000000000000000000000000000000\n      dup2\n      mstore\n      0x04\n      add\n      tag_232\n      swap2\n      swap1\n      tag_44\n      jump\t// in\n    tag_232:\n      mload(0x40)\n      dup1\n      swap2\n      sub\n      swap1\n      revert\n        /* \"@openzeppelin/contracts/access/Ownable.sol\":2623:2714  if (newOwner == address(0)) {... */\n    tag_231:\n        /* \"@openzeppelin/contracts/access/Ownable.sol\":2723:2751  _transferOwnership(newOwner) */\n      tag_233\n        /* \"@openzeppelin/contracts/access/Ownable.sol\":2742:2750  newOwner */\n      dup2\n        /* \"@openzeppelin/contracts/access/Ownable.sol\":2723:2741  _transferOwnership */\n      tag_147\n        /* \"@openzeppelin/contracts/access/Ownable.sol\":2723:2751  _transferOwnership(newOwner) */\n      jump\t// in\n    tag_233:\n        /* \"@openzeppelin/contracts/access/Ownable.sol\":2543:2758  function transferOwnership(address newOwner) public virtual onlyOwner {... */\n      pop\n      jump\t// out\n        /* \"@openzeppelin/contracts/security/ReentrancyGuard.sol\":2336:2623  function _nonReentrantBefore() private {... */\n    tag_68:\n        /* \"@openzeppelin/contracts/security/ReentrancyGuard.sol\":1759:1760  2 */\n      0x02\n        /* \"@openzeppelin/contracts/security/ReentrancyGuard.sol\":2468:2475  _status */\n      sload(0x00)\n        /* \"@openzeppelin/contracts/security/ReentrancyGuard.sol\":2468:2487  _status != _ENTERED */\n      sub\n        /* \"@openzeppelin/contracts/security/ReentrancyGuard.sol\":2460:2523  require(_status != _ENTERED, \"ReentrancyGuard: reentrant call\") */\n      tag_235\n      jumpi\n      mload(0x40)\n      0x08c379a000000000000000000000000000000000000000000000000000000000\n      dup2\n      mstore\n      0x04\n      add\n      tag_236\n      swap1\n      tag_237\n      jump\t// in\n    tag_236:\n      mload(0x40)\n      dup1\n      swap2\n      sub\n      swap1\n      revert\n    tag_235:\n        /* \"@openzeppelin/contracts/security/ReentrancyGuard.sol\":1759:1760  2 */\n      0x02\n        /* \"@openzeppelin/contracts/security/ReentrancyGuard.sol\":2598:2605  _status */\n      0x00\n        /* \"@openzeppelin/contracts/security/ReentrancyGuard.sol\":2598:2616  _status = _ENTERED */\n      dup2\n      swap1\n      sstore\n      pop\n        /* \"@openzeppelin/contracts/security/ReentrancyGuard.sol\":2336:2623  function _nonReentrantBefore() private {... */\n      jump\t// out\n        /* \"stake.sol\":1576:2051  function updateRewards(address user) internal {... */\n    tag_77:\n        /* \"stake.sol\":1633:1660  StakeInfo storage userStake */\n      0x00\n        /* \"stake.sol\":1663:1669  stakes */\n      0x02\n        /* \"stake.sol\":1663:1675  stakes[user] */\n      0x00\n        /* \"stake.sol\":1670:1674  user */\n      dup4\n        /* \"stake.sol\":1663:1675  stakes[user] */\n      0xffffffffffffffffffffffffffffffffffffffff\n      and\n      0xffffffffffffffffffffffffffffffffffffffff\n      and\n      dup2\n      mstore\n      0x20\n      add\n      swap1\n      dup2\n      mstore\n      0x20\n      add\n      0x00\n      keccak256\n        /* \"stake.sol\":1633:1675  StakeInfo storage userStake = stakes[user] */\n      swap1\n      pop\n        /* \"stake.sol\":1737:1738  0 */\n      0x00\n        /* \"stake.sol\":1718:1727  userStake */\n      dup2\n        /* \"stake.sol\":1718:1734  userStake.amount */\n      0x00\n      add\n      sload\n        /* \"stake.sol\":1718:1738  userStake.amount > 0 */\n      gt\n        /* \"stake.sol\":1714:1991  if (userStake.amount > 0) {... */\n      iszero\n      tag_239\n      jumpi\n        /* \"stake.sol\":1755:1774  uint256 timeElapsed */\n      0x00\n        /* \"stake.sol\":1795:1804  userStake */\n      dup2\n        /* \"stake.sol\":1795:1819  userStake.lastUpdateTime */\n      0x01\n      add\n      sload\n        /* \"stake.sol\":1777:1792  block.timestamp */\n      timestamp\n        /* \"stake.sol\":1777:1819  block.timestamp - userStake.lastUpdateTime */\n      tag_240\n      swap2\n      swap1\n      tag_79\n      jump\t// in\n    tag_240:\n        /* \"stake.sol\":1755:1819  uint256 timeElapsed = block.timestamp - userStake.lastUpdateTime */\n      swap1\n      pop\n        /* \"stake.sol\":1834:1852  uint256 newRewards */\n      0x00\n        /* \"stake.sol\":1922:1926  1e18 */\n      0x0de0b6b3a7640000\n        /* \"stake.sol\":441:446  86400 */\n      0x015180\n        /* \"stake.sol\":529:533  1e18 */\n      0x0de0b6b3a7640000\n        /* \"stake.sol\":1875:1886  timeElapsed */\n      dup5\n        /* \"stake.sol\":1856:1865  userStake */\n      dup7\n        /* \"stake.sol\":1856:1872  userStake.amount */\n      0x00\n      add\n      sload\n        /* \"stake.sol\":1856:1886  userStake.amount * timeElapsed */\n      tag_241\n      swap2\n      swap1\n      tag_138\n      jump\t// in\n    tag_241:\n        /* \"stake.sol\":1856:1900  userStake.amount * timeElapsed * REWARD_RATE */\n      tag_242\n      swap2\n      swap1\n      tag_138\n      jump\t// in\n    tag_242:\n        /* \"stake.sol\":1855:1919  (userStake.amount * timeElapsed * REWARD_RATE) / SECONDS_PER_DAY */\n      tag_243\n      swap2\n      swap1\n      tag_140\n      jump\t// in\n    tag_243:\n        /* \"stake.sol\":1855:1926  (userStake.amount * timeElapsed * REWARD_RATE) / SECONDS_PER_DAY / 1e18 */\n      tag_244\n      swap2\n      swap1\n      tag_140\n      jump\t// in\n    tag_244:\n        /* \"stake.sol\":1834:1926  uint256 newRewards = (userStake.amount * timeElapsed * REWARD_RATE) / SECONDS_PER_DAY / 1e18 */\n      swap1\n      pop\n        /* \"stake.sol\":1969:1979  newRewards */\n      dup1\n        /* \"stake.sol\":1941:1950  userStake */\n      dup4\n        /* \"stake.sol\":1941:1965  userStake.pendingRewards */\n      0x02\n      add\n      0x00\n        /* \"stake.sol\":1941:1979  userStake.pendingRewards += newRewards */\n      dup3\n      dup3\n      sload\n      tag_245\n      swap2\n      swap1\n      tag_123\n      jump\t// in\n    tag_245:\n      swap3\n      pop\n      pop\n      dup2\n      swap1\n      sstore\n      pop\n        /* \"stake.sol\":1740:1991  {... */\n      pop\n      pop\n        /* \"stake.sol\":1714:1991  if (userStake.amount > 0) {... */\n    tag_239:\n        /* \"stake.sol\":2028:2043  block.timestamp */\n      timestamp\n        /* \"stake.sol\":2001:2010  userStake */\n      dup2\n        /* \"stake.sol\":2001:2025  userStake.lastUpdateTime */\n      0x01\n      add\n        /* \"stake.sol\":2001:2043  userStake.lastUpdateTime = block.timestamp */\n      dup2\n      swap1\n      sstore\n      pop\n        /* \"stake.sol\":1622:2051  {... */\n      pop\n        /* \"stake.sol\":1576:2051  function updateRewards(address user) internal {... */\n      pop\n      jump\t// out\n        /* \"@openzeppelin/contracts/security/ReentrancyGuard.sol\":2629:2838  function _nonReentrantAfter() private {... */\n    tag_92:\n        /* \"@openzeppelin/contracts/security/ReentrancyGuard.sol\":1716:1717  1 */\n      0x01\n        /* \"@openzeppelin/contracts/security/ReentrancyGuard.sol\":2809:2816  _status */\n      0x00\n        /* \"@openzeppelin/contracts/security/ReentrancyGuard.sol\":2809:2831  _status = _NOT_ENTERED */\n      dup2\n      swap1\n      sstore\n      pop\n        /* \"@openzeppelin/contracts/security/ReentrancyGuard.sol\":2629:2838  function _nonReentrantAfter() private {... */\n      jump\t// out\n        /* \"@openzeppelin/contracts/access/Ownable.sol\":1796:1958  function _checkOwner() internal view virtual {... */\n    tag_144:\n        /* \"@openzeppelin/contracts/access/Ownable.sol\":1866:1878  _msgSender() */\n      tag_248\n        /* \"@openzeppelin/contracts/access/Ownable.sol\":1866:1876  _msgSender */\n      tag_249\n        /* \"@openzeppelin/contracts/access/Ownable.sol\":1866:1878  _msgSender() */\n      jump\t// in\n    tag_248:\n        /* \"@openzeppelin/contracts/access/Ownable.sol\":1855:1878  owner() != _msgSender() */\n      0xffffffffffffffffffffffffffffffffffffffff\n      and\n        /* \"@openzeppelin/contracts/access/Ownable.sol\":1855:1862  owner() */\n      tag_250\n        /* \"@openzeppelin/contracts/access/Ownable.sol\":1855:1860  owner */\n      tag_42\n        /* \"@openzeppelin/contracts/access/Ownable.sol\":1855:1862  owner() */\n      jump\t// in\n    tag_250:\n        /* \"@openzeppelin/contracts/access/Ownable.sol\":1855:1878  owner() != _msgSender() */\n      0xffffffffffffffffffffffffffffffffffffffff\n      and\n      eq\n        /* \"@openzeppelin/contracts/access/Ownable.sol\":1851:1952  if (owner() != _msgSender()) {... */\n      tag_251\n      jumpi\n        /* \"@openzeppelin/contracts/access/Ownable.sol\":1928:1940  _msgSender() */\n      tag_252\n        /* \"@openzeppelin/contracts/access/Ownable.sol\":1928:1938  _msgSender */\n      tag_249\n        /* \"@openzeppelin/contracts/access/Ownable.sol\":1928:1940  _msgSender() */\n      jump\t// in\n    tag_252:\n        /* \"@openzeppelin/contracts/access/Ownable.sol\":1901:1941  OwnableUnauthorizedAccount(_msgSender()) */\n      mload(0x40)\n      0x118cdaa700000000000000000000000000000000000000000000000000000000\n      dup2\n      mstore\n      0x04\n      add\n      tag_253\n      swap2\n      swap1\n      tag_44\n      jump\t// in\n    tag_253:\n      mload(0x40)\n      dup1\n      swap2\n      sub\n      swap1\n      revert\n        /* \"@openzeppelin/contracts/access/Ownable.sol\":1851:1952  if (owner() != _msgSender()) {... */\n    tag_251:\n        /* \"@openzeppelin/contracts/access/Ownable.sol\":1796:1958  function _checkOwner() internal view virtual {... */\n      jump\t// out\n        /* \"@openzeppelin/contracts/access/Ownable.sol\":2912:3099  function _transferOwnership(address newOwner) internal virtual {... */\n    tag_147:\n        /* \"@openzeppelin/contracts/access/Ownable.sol\":2985:3001  address oldOwner */\n      0x00\n        /* \"@openzeppelin/contracts/access/Ownable.sol\":3004:3010  _owner */\n      0x01\n      0x00\n      swap1\n      sload\n      swap1\n      0x0100\n      exp\n      swap1\n      div\n      0xffffffffffffffffffffffffffffffffffffffff\n      and\n        /* \"@openzeppelin/contracts/access/Ownable.sol\":2985:3010  address oldOwner = _owner */\n      swap1\n      pop\n        /* \"@openzeppelin/contracts/access/Ownable.sol\":3029:3037  newOwner */\n      dup2\n        /* \"@openzeppelin/contracts/access/Ownable.sol\":3020:3026  _owner */\n      0x01\n      0x00\n        /* \"@openzeppelin/contracts/access/Ownable.sol\":3020:3037  _owner = newOwner */\n      0x0100\n      exp\n      dup2\n      sload\n      dup2\n      0xffffffffffffffffffffffffffffffffffffffff\n      mul\n      not\n      and\n      swap1\n      dup4\n      0xffffffffffffffffffffffffffffffffffffffff\n      and\n      mul\n      or\n      swap1\n      sstore\n      pop\n        /* \"@openzeppelin/contracts/access/Ownable.sol\":3083:3091  newOwner */\n      dup2\n        /* \"@openzeppelin/contracts/access/Ownable.sol\":3052:3092  OwnershipTransferred(oldOwner, newOwner) */\n      0xffffffffffffffffffffffffffffffffffffffff\n      and\n        /* \"@openzeppelin/contracts/access/Ownable.sol\":3073:3081  oldOwner */\n      dup2\n        /* \"@openzeppelin/contracts/access/Ownable.sol\":3052:3092  OwnershipTransferred(oldOwner, newOwner) */\n      0xffffffffffffffffffffffffffffffffffffffff\n      and\n      0x8be0079c531659141344cd1fd0a4f28419497f9722a3daafe3b4186f6b6457e0\n      mload(0x40)\n      mload(0x40)\n      dup1\n      swap2\n      sub\n      swap1\n      log3\n        /* \"@openzeppelin/contracts/access/Ownable.sol\":2975:3099  {... */\n      pop\n        /* \"@openzeppelin/contracts/access/Ownable.sol\":2912:3099  function _transferOwnership(address newOwner) internal virtual {... */\n      pop\n      jump\t// out\n        /* \"@openzeppelin/contracts/utils/Context.sol\":656:752  function _msgSender() internal view virtual returns (address) {... */\n    tag_249:\n        /* \"@openzeppelin/contracts/utils/Context.sol\":709:716  address */\n      0x00\n        /* \"@openzeppelin/contracts/utils/Context.sol\":735:745  msg.sender */\n      caller\n        /* \"@openzeppelin/contracts/utils/Context.sol\":728:745  return msg.sender */\n      swap1\n      pop\n        /* \"@openzeppelin/contracts/utils/Context.sol\":656:752  function _msgSender() internal view virtual returns (address) {... */\n      swap1\n      jump\t// out\n        /* \"#utility.yul\":88:205   */\n    tag_257:\n        /* \"#utility.yul\":197:198   */\n      0x00\n        /* \"#utility.yul\":194:195   */\n      dup1\n        /* \"#utility.yul\":187:199   */\n      revert\n        /* \"#utility.yul\":334:460   */\n    tag_259:\n        /* \"#utility.yul\":371:378   */\n      0x00\n        /* \"#utility.yul\":411:453   */\n      0xffffffffffffffffffffffffffffffffffffffff\n        /* \"#utility.yul\":404:409   */\n      dup3\n        /* \"#utility.yul\":400:454   */\n      and\n        /* \"#utility.yul\":389:454   */\n      swap1\n      pop\n        /* \"#utility.yul\":334:460   */\n      swap2\n      swap1\n      pop\n      jump\t// out\n        /* \"#utility.yul\":466:562   */\n    tag_260:\n        /* \"#utility.yul\":503:510   */\n      0x00\n        /* \"#utility.yul\":532:556   */\n      tag_301\n        /* \"#utility.yul\":550:555   */\n      dup3\n        /* \"#utility.yul\":532:556   */\n      tag_259\n      jump\t// in\n    tag_301:\n        /* \"#utility.yul\":521:556   */\n      swap1\n      pop\n        /* \"#utility.yul\":466:562   */\n      swap2\n      swap1\n      pop\n      jump\t// out\n        /* \"#utility.yul\":568:690   */\n    tag_261:\n        /* \"#utility.yul\":641:665   */\n      tag_303\n        /* \"#utility.yul\":659:664   */\n      dup2\n        /* \"#utility.yul\":641:665   */\n      tag_260\n      jump\t// in\n    tag_303:\n        /* \"#utility.yul\":634:639   */\n      dup2\n        /* \"#utility.yul\":631:666   */\n      eq\n        /* \"#utility.yul\":621:684   */\n      tag_304\n      jumpi\n        /* \"#utility.yul\":680:681   */\n      0x00\n        /* \"#utility.yul\":677:678   */\n      dup1\n        /* \"#utility.yul\":670:682   */\n      revert\n        /* \"#utility.yul\":621:684   */\n    tag_304:\n        /* \"#utility.yul\":568:690   */\n      pop\n      jump\t// out\n        /* \"#utility.yul\":696:835   */\n    tag_262:\n        /* \"#utility.yul\":742:747   */\n      0x00\n        /* \"#utility.yul\":780:786   */\n      dup2\n        /* \"#utility.yul\":767:787   */\n      calldataload\n        /* \"#utility.yul\":758:787   */\n      swap1\n      pop\n        /* \"#utility.yul\":796:829   */\n      tag_306\n        /* \"#utility.yul\":823:828   */\n      dup2\n        /* \"#utility.yul\":796:829   */\n      tag_261\n      jump\t// in\n    tag_306:\n        /* \"#utility.yul\":696:835   */\n      swap3\n      swap2\n      pop\n      pop\n      jump\t// out\n        /* \"#utility.yul\":841:1170   */\n    tag_20:\n        /* \"#utility.yul\":900:906   */\n      0x00\n        /* \"#utility.yul\":949:951   */\n      0x20\n        /* \"#utility.yul\":937:946   */\n      dup3\n        /* \"#utility.yul\":928:935   */\n      dup5\n        /* \"#utility.yul\":924:947   */\n      sub\n        /* \"#utility.yul\":920:952   */\n      slt\n        /* \"#utility.yul\":917:1036   */\n      iszero\n      tag_308\n      jumpi\n        /* \"#utility.yul\":955:1034   */\n      tag_309\n      tag_257\n      jump\t// in\n    tag_309:\n        /* \"#utility.yul\":917:1036   */\n    tag_308:\n        /* \"#utility.yul\":1075:1076   */\n      0x00\n        /* \"#utility.yul\":1100:1153   */\n      tag_310\n        /* \"#utility.yul\":1145:1152   */\n      dup5\n        /* \"#utility.yul\":1136:1142   */\n      dup3\n        /* \"#utility.yul\":1125:1134   */\n      dup6\n        /* \"#utility.yul\":1121:1143   */\n      add\n        /* \"#utility.yul\":1100:1153   */\n      tag_262\n      jump\t// in\n    tag_310:\n        /* \"#utility.yul\":1090:1153   */\n      swap2\n      pop\n        /* \"#utility.yul\":1046:1163   */\n      pop\n        /* \"#utility.yul\":841:1170   */\n      swap3\n      swap2\n      pop\n      pop\n      jump\t// out\n        /* \"#utility.yul\":1176:1253   */\n    tag_263:\n        /* \"#utility.yul\":1213:1220   */\n      0x00\n        /* \"#utility.yul\":1242:1247   */\n      dup2\n        /* \"#utility.yul\":1231:1247   */\n      swap1\n      pop\n        /* \"#utility.yul\":1176:1253   */\n      swap2\n      swap1\n      pop\n      jump\t// out\n        /* \"#utility.yul\":1259:1377   */\n    tag_264:\n        /* \"#utility.yul\":1346:1370   */\n      tag_313\n        /* \"#utility.yul\":1364:1369   */\n      dup2\n        /* \"#utility.yul\":1346:1370   */\n      tag_263\n      jump\t// in\n    tag_313:\n        /* \"#utility.yul\":1341:1344   */\n      dup3\n        /* \"#utility.yul\":1334:1371   */\n      mstore\n        /* \"#utility.yul\":1259:1377   */\n      pop\n      pop\n      jump\t// out\n        /* \"#utility.yul\":1383:1825   */\n    tag_23:\n        /* \"#utility.yul\":1532:1536   */\n      0x00\n        /* \"#utility.yul\":1570:1572   */\n      0x60\n        /* \"#utility.yul\":1559:1568   */\n      dup3\n        /* \"#utility.yul\":1555:1573   */\n      add\n        /* \"#utility.yul\":1547:1573   */\n      swap1\n      pop\n        /* \"#utility.yul\":1583:1654   */\n      tag_315\n        /* \"#utility.yul\":1651:1652   */\n      0x00\n        /* \"#utility.yul\":1640:1649   */\n      dup4\n        /* \"#utility.yul\":1636:1653   */\n      add\n        /* \"#utility.yul\":1627:1633   */\n      dup7\n        /* \"#utility.yul\":1583:1654   */\n      tag_264\n      jump\t// in\n    tag_315:\n        /* \"#utility.yul\":1664:1736   */\n      tag_316\n        /* \"#utility.yul\":1732:1734   */\n      0x20\n        /* \"#utility.yul\":1721:1730   */\n      dup4\n        /* \"#utility.yul\":1717:1735   */\n      add\n        /* \"#utility.yul\":1708:1714   */\n      dup6\n        /* \"#utility.yul\":1664:1736   */\n      tag_264\n      jump\t// in\n    tag_316:\n        /* \"#utility.yul\":1746:1818   */\n      tag_317\n        /* \"#utility.yul\":1814:1816   */\n      0x40\n        /* \"#utility.yul\":1803:1812   */\n      dup4\n        /* \"#utility.yul\":1799:1817   */\n      add\n        /* \"#utility.yul\":1790:1796   */\n      dup5\n        /* \"#utility.yul\":1746:1818   */\n      tag_264\n      jump\t// in\n    tag_317:\n        /* \"#utility.yul\":1383:1825   */\n      swap5\n      swap4\n      pop\n      pop\n      pop\n      pop\n      jump\t// out\n        /* \"#utility.yul\":1831:1891   */\n    tag_265:\n        /* \"#utility.yul\":1859:1862   */\n      0x00\n        /* \"#utility.yul\":1880:1885   */\n      dup2\n        /* \"#utility.yul\":1873:1885   */\n      swap1\n      pop\n        /* \"#utility.yul\":1831:1891   */\n      swap2\n      swap1\n      pop\n      jump\t// out\n        /* \"#utility.yul\":1897:2039   */\n    tag_266:\n        /* \"#utility.yul\":1947:1956   */\n      0x00\n        /* \"#utility.yul\":1980:2033   */\n      tag_320\n        /* \"#utility.yul\":1998:2032   */\n      tag_321\n        /* \"#utility.yul\":2007:2031   */\n      tag_322\n        /* \"#utility.yul\":2025:2030   */\n      dup5\n        /* \"#utility.yul\":2007:2031   */\n      tag_259\n      jump\t// in\n    tag_322:\n        /* \"#utility.yul\":1998:2032   */\n      tag_265\n      jump\t// in\n    tag_321:\n        /* \"#utility.yul\":1980:2033   */\n      tag_259\n      jump\t// in\n    tag_320:\n        /* \"#utility.yul\":1967:2033   */\n      swap1\n      pop\n        /* \"#utility.yul\":1897:2039   */\n      swap2\n      swap1\n      pop\n      jump\t// out\n        /* \"#utility.yul\":2045:2171   */\n    tag_267:\n        /* \"#utility.yul\":2095:2104   */\n      0x00\n        /* \"#utility.yul\":2128:2165   */\n      tag_324\n        /* \"#utility.yul\":2159:2164   */\n      dup3\n        /* \"#utility.yul\":2128:2165   */\n      tag_266\n      jump\t// in\n    tag_324:\n        /* \"#utility.yul\":2115:2165   */\n      swap1\n      pop\n        /* \"#utility.yul\":2045:2171   */\n      swap2\n      swap1\n      pop\n      jump\t// out\n        /* \"#utility.yul\":2177:2317   */\n    tag_268:\n        /* \"#utility.yul\":2241:2250   */\n      0x00\n        /* \"#utility.yul\":2274:2311   */\n      tag_326\n        /* \"#utility.yul\":2305:2310   */\n      dup3\n        /* \"#utility.yul\":2274:2311   */\n      tag_267\n      jump\t// in\n    tag_326:\n        /* \"#utility.yul\":2261:2311   */\n      swap1\n      pop\n        /* \"#utility.yul\":2177:2317   */\n      swap2\n      swap1\n      pop\n      jump\t// out\n        /* \"#utility.yul\":2323:2482   */\n    tag_269:\n        /* \"#utility.yul\":2424:2475   */\n      tag_328\n        /* \"#utility.yul\":2469:2474   */\n      dup2\n        /* \"#utility.yul\":2424:2475   */\n      tag_268\n      jump\t// in\n    tag_328:\n        /* \"#utility.yul\":2419:2422   */\n      dup3\n        /* \"#utility.yul\":2412:2476   */\n      mstore\n        /* \"#utility.yul\":2323:2482   */\n      pop\n      pop\n      jump\t// out\n        /* \"#utility.yul\":2488:2738   */\n    tag_27:\n        /* \"#utility.yul\":2595:2599   */\n      0x00\n        /* \"#utility.yul\":2633:2635   */\n      0x20\n        /* \"#utility.yul\":2622:2631   */\n      dup3\n        /* \"#utility.yul\":2618:2636   */\n      add\n        /* \"#utility.yul\":2610:2636   */\n      swap1\n      pop\n        /* \"#utility.yul\":2646:2731   */\n      tag_330\n        /* \"#utility.yul\":2728:2729   */\n      0x00\n        /* \"#utility.yul\":2717:2726   */\n      dup4\n        /* \"#utility.yul\":2713:2730   */\n      add\n        /* \"#utility.yul\":2704:2710   */\n      dup5\n        /* \"#utility.yul\":2646:2731   */\n      tag_269\n      jump\t// in\n    tag_330:\n        /* \"#utility.yul\":2488:2738   */\n      swap3\n      swap2\n      pop\n      pop\n      jump\t// out\n        /* \"#utility.yul\":2744:2866   */\n    tag_270:\n        /* \"#utility.yul\":2817:2841   */\n      tag_332\n        /* \"#utility.yul\":2835:2840   */\n      dup2\n        /* \"#utility.yul\":2817:2841   */\n      tag_263\n      jump\t// in\n    tag_332:\n        /* \"#utility.yul\":2810:2815   */\n      dup2\n        /* \"#utility.yul\":2807:2842   */\n      eq\n        /* \"#utility.yul\":2797:2860   */\n      tag_333\n      jumpi\n        /* \"#utility.yul\":2856:2857   */\n      0x00\n        /* \"#utility.yul\":2853:2854   */\n      dup1\n        /* \"#utility.yul\":2846:2858   */\n      revert\n        /* \"#utility.yul\":2797:2860   */\n    tag_333:\n        /* \"#utility.yul\":2744:2866   */\n      pop\n      jump\t// out\n        /* \"#utility.yul\":2872:3011   */\n    tag_271:\n        /* \"#utility.yul\":2918:2923   */\n      0x00\n        /* \"#utility.yul\":2956:2962   */\n      dup2\n        /* \"#utility.yul\":2943:2963   */\n      calldataload\n        /* \"#utility.yul\":2934:2963   */\n      swap1\n      pop\n        /* \"#utility.yul\":2972:3005   */\n      tag_335\n        /* \"#utility.yul\":2999:3004   */\n      dup2\n        /* \"#utility.yul\":2972:3005   */\n      tag_270\n      jump\t// in\n    tag_335:\n        /* \"#utility.yul\":2872:3011   */\n      swap3\n      swap2\n      pop\n      pop\n      jump\t// out\n        /* \"#utility.yul\":3017:3346   */\n    tag_30:\n        /* \"#utility.yul\":3076:3082   */\n      0x00\n        /* \"#utility.yul\":3125:3127   */\n      0x20\n        /* \"#utility.yul\":3113:3122   */\n      dup3\n        /* \"#utility.yul\":3104:3111   */\n      dup5\n        /* \"#utility.yul\":3100:3123   */\n      sub\n        /* \"#utility.yul\":3096:3128   */\n      slt\n        /* \"#utility.yul\":3093:3212   */\n      iszero\n      tag_337\n      jumpi\n        /* \"#utility.yul\":3131:3210   */\n      tag_338\n      tag_257\n      jump\t// in\n    tag_338:\n        /* \"#utility.yul\":3093:3212   */\n    tag_337:\n        /* \"#utility.yul\":3251:3252   */\n      0x00\n        /* \"#utility.yul\":3276:3329   */\n      tag_339\n        /* \"#utility.yul\":3321:3328   */\n      dup5\n        /* \"#utility.yul\":3312:3318   */\n      dup3\n        /* \"#utility.yul\":3301:3310   */\n      dup6\n        /* \"#utility.yul\":3297:3319   */\n      add\n        /* \"#utility.yul\":3276:3329   */\n      tag_271\n      jump\t// in\n    tag_339:\n        /* \"#utility.yul\":3266:3329   */\n      swap2\n      pop\n        /* \"#utility.yul\":3222:3339   */\n      pop\n        /* \"#utility.yul\":3017:3346   */\n      swap3\n      swap2\n      pop\n      pop\n      jump\t// out\n        /* \"#utility.yul\":3352:3684   */\n    tag_38:\n        /* \"#utility.yul\":3473:3477   */\n      0x00\n        /* \"#utility.yul\":3511:3513   */\n      0x40\n        /* \"#utility.yul\":3500:3509   */\n      dup3\n        /* \"#utility.yul\":3496:3514   */\n      add\n        /* \"#utility.yul\":3488:3514   */\n      swap1\n      pop\n        /* \"#utility.yul\":3524:3595   */\n      tag_341\n        /* \"#utility.yul\":3592:3593   */\n      0x00\n        /* \"#utility.yul\":3581:3590   */\n      dup4\n        /* \"#utility.yul\":3577:3594   */\n      add\n        /* \"#utility.yul\":3568:3574   */\n      dup6\n        /* \"#utility.yul\":3524:3595   */\n      tag_264\n      jump\t// in\n    tag_341:\n        /* \"#utility.yul\":3605:3677   */\n      tag_342\n        /* \"#utility.yul\":3673:3675   */\n      0x20\n        /* \"#utility.yul\":3662:3671   */\n      dup4\n        /* \"#utility.yul\":3658:3676   */\n      add\n        /* \"#utility.yul\":3649:3655   */\n      dup5\n        /* \"#utility.yul\":3605:3677   */\n      tag_264\n      jump\t// in\n    tag_342:\n        /* \"#utility.yul\":3352:3684   */\n      swap4\n      swap3\n      pop\n      pop\n      pop\n      jump\t// out\n        /* \"#utility.yul\":3690:3808   */\n    tag_272:\n        /* \"#utility.yul\":3777:3801   */\n      tag_344\n        /* \"#utility.yul\":3795:3800   */\n      dup2\n        /* \"#utility.yul\":3777:3801   */\n      tag_260\n      jump\t// in\n    tag_344:\n        /* \"#utility.yul\":3772:3775   */\n      dup3\n        /* \"#utility.yul\":3765:3802   */\n      mstore\n        /* \"#utility.yul\":3690:3808   */\n      pop\n      pop\n      jump\t// out\n        /* \"#utility.yul\":3814:4036   */\n    tag_44:\n        /* \"#utility.yul\":3907:3911   */\n      0x00\n        /* \"#utility.yul\":3945:3947   */\n      0x20\n        /* \"#utility.yul\":3934:3943   */\n      dup3\n        /* \"#utility.yul\":3930:3948   */\n      add\n        /* \"#utility.yul\":3922:3948   */\n      swap1\n      pop\n        /* \"#utility.yul\":3958:4029   */\n      tag_346\n        /* \"#utility.yul\":4026:4027   */\n      0x00\n        /* \"#utility.yul\":4015:4024   */\n      dup4\n        /* \"#utility.yul\":4011:4028   */\n      add\n        /* \"#utility.yul\":4002:4008   */\n      dup5\n        /* \"#utility.yul\":3958:4029   */\n      tag_272\n      jump\t// in\n    tag_346:\n        /* \"#utility.yul\":3814:4036   */\n      swap3\n      swap2\n      pop\n      pop\n      jump\t// out\n        /* \"#utility.yul\":4042:4516   */\n    tag_53:\n        /* \"#utility.yul\":4110:4116   */\n      0x00\n        /* \"#utility.yul\":4118:4124   */\n      dup1\n        /* \"#utility.yul\":4167:4169   */\n      0x40\n        /* \"#utility.yul\":4155:4164   */\n      dup4\n        /* \"#utility.yul\":4146:4153   */\n      dup6\n        /* \"#utility.yul\":4142:4165   */\n      sub\n        /* \"#utility.yul\":4138:4170   */\n      slt\n        /* \"#utility.yul\":4135:4254   */\n      iszero\n      tag_348\n      jumpi\n        /* \"#utility.yul\":4173:4252   */\n      tag_349\n      tag_257\n      jump\t// in\n    tag_349:\n        /* \"#utility.yul\":4135:4254   */\n    tag_348:\n        /* \"#utility.yul\":4293:4294   */\n      0x00\n        /* \"#utility.yul\":4318:4371   */\n      tag_350\n        /* \"#utility.yul\":4363:4370   */\n      dup6\n        /* \"#utility.yul\":4354:4360   */\n      dup3\n        /* \"#utility.yul\":4343:4352   */\n      dup7\n        /* \"#utility.yul\":4339:4361   */\n      add\n        /* \"#utility.yul\":4318:4371   */\n      tag_262\n      jump\t// in\n    tag_350:\n        /* \"#utility.yul\":4308:4371   */\n      swap3\n      pop\n        /* \"#utility.yul\":4264:4381   */\n      pop\n        /* \"#utility.yul\":4420:4422   */\n      0x20\n        /* \"#utility.yul\":4446:4499   */\n      tag_351\n        /* \"#utility.yul\":4491:4498   */\n      dup6\n        /* \"#utility.yul\":4482:4488   */\n      dup3\n        /* \"#utility.yul\":4471:4480   */\n      dup7\n        /* \"#utility.yul\":4467:4489   */\n      add\n        /* \"#utility.yul\":4446:4499   */\n      tag_271\n      jump\t// in\n    tag_351:\n        /* \"#utility.yul\":4436:4499   */\n      swap2\n      pop\n        /* \"#utility.yul\":4391:4509   */\n      pop\n        /* \"#utility.yul\":4042:4516   */\n      swap3\n      pop\n      swap3\n      swap1\n      pop\n      jump\t// out\n        /* \"#utility.yul\":4522:4691   */\n    tag_273:\n        /* \"#utility.yul\":4606:4617   */\n      0x00\n        /* \"#utility.yul\":4640:4646   */\n      dup3\n        /* \"#utility.yul\":4635:4638   */\n      dup3\n        /* \"#utility.yul\":4628:4647   */\n      mstore\n        /* \"#utility.yul\":4680:4684   */\n      0x20\n        /* \"#utility.yul\":4675:4678   */\n      dup3\n        /* \"#utility.yul\":4671:4685   */\n      add\n        /* \"#utility.yul\":4656:4685   */\n      swap1\n      pop\n        /* \"#utility.yul\":4522:4691   */\n      swap3\n      swap2\n      pop\n      pop\n      jump\t// out\n        /* \"#utility.yul\":4697:4876   */\n    tag_274:\n        /* \"#utility.yul\":4837:4868   */\n      0x416d6f756e74206d7573742062652067726561746572207468616e2030000000\n        /* \"#utility.yul\":4833:4834   */\n      0x00\n        /* \"#utility.yul\":4825:4831   */\n      dup3\n        /* \"#utility.yul\":4821:4835   */\n      add\n        /* \"#utility.yul\":4814:4869   */\n      mstore\n        /* \"#utility.yul\":4697:4876   */\n      pop\n      jump\t// out\n        /* \"#utility.yul\":4882:5248   */\n    tag_275:\n        /* \"#utility.yul\":5024:5027   */\n      0x00\n        /* \"#utility.yul\":5045:5112   */\n      tag_355\n        /* \"#utility.yul\":5109:5111   */\n      0x1d\n        /* \"#utility.yul\":5104:5107   */\n      dup4\n        /* \"#utility.yul\":5045:5112   */\n      tag_273\n      jump\t// in\n    tag_355:\n        /* \"#utility.yul\":5038:5112   */\n      swap2\n      pop\n        /* \"#utility.yul\":5121:5214   */\n      tag_356\n        /* \"#utility.yul\":5210:5213   */\n      dup3\n        /* \"#utility.yul\":5121:5214   */\n      tag_274\n      jump\t// in\n    tag_356:\n        /* \"#utility.yul\":5239:5241   */\n      0x20\n        /* \"#utility.yul\":5234:5237   */\n      dup3\n        /* \"#utility.yul\":5230:5242   */\n      add\n        /* \"#utility.yul\":5223:5242   */\n      swap1\n      pop\n        /* \"#utility.yul\":4882:5248   */\n      swap2\n      swap1\n      pop\n      jump\t// out\n        /* \"#utility.yul\":5254:5673   */\n    tag_72:\n        /* \"#utility.yul\":5420:5424   */\n      0x00\n        /* \"#utility.yul\":5458:5460   */\n      0x20\n        /* \"#utility.yul\":5447:5456   */\n      dup3\n        /* \"#utility.yul\":5443:5461   */\n      add\n        /* \"#utility.yul\":5435:5461   */\n      swap1\n      pop\n        /* \"#utility.yul\":5507:5516   */\n      dup2\n        /* \"#utility.yul\":5501:5505   */\n      dup2\n        /* \"#utility.yul\":5497:5517   */\n      sub\n        /* \"#utility.yul\":5493:5494   */\n      0x00\n        /* \"#utility.yul\":5482:5491   */\n      dup4\n        /* \"#utility.yul\":5478:5495   */\n      add\n        /* \"#utility.yul\":5471:5518   */\n      mstore\n        /* \"#utility.yul\":5535:5666   */\n      tag_358\n        /* \"#utility.yul\":5661:5665   */\n      dup2\n        /* \"#utility.yul\":5535:5666   */\n      tag_275\n      jump\t// in\n    tag_358:\n        /* \"#utility.yul\":5527:5666   */\n      swap1\n      pop\n        /* \"#utility.yul\":5254:5673   */\n      swap2\n      swap1\n      pop\n      jump\t// out\n        /* \"#utility.yul\":5679:5855   */\n    tag_276:\n        /* \"#utility.yul\":5819:5847   */\n      0x496e73756666696369656e74207374616b656420616d6f756e74000000000000\n        /* \"#utility.yul\":5815:5816   */\n      0x00\n        /* \"#utility.yul\":5807:5813   */\n      dup3\n        /* \"#utility.yul\":5803:5817   */\n      add\n        /* \"#utility.yul\":5796:5848   */\n      mstore\n        /* \"#utility.yul\":5679:5855   */\n      pop\n      jump\t// out\n        /* \"#utility.yul\":5861:6227   */\n    tag_277:\n        /* \"#utility.yul\":6003:6006   */\n      0x00\n        /* \"#utility.yul\":6024:6091   */\n      tag_361\n        /* \"#utility.yul\":6088:6090   */\n      0x1a\n        /* \"#utility.yul\":6083:6086   */\n      dup4\n        /* \"#utility.yul\":6024:6091   */\n      tag_273\n      jump\t// in\n    tag_361:\n        /* \"#utility.yul\":6017:6091   */\n      swap2\n      pop\n        /* \"#utility.yul\":6100:6193   */\n      tag_362\n        /* \"#utility.yul\":6189:6192   */\n      dup3\n        /* \"#utility.yul\":6100:6193   */\n      tag_276\n      jump\t// in\n    tag_362:\n        /* \"#utility.yul\":6218:6220   */\n      0x20\n        /* \"#utility.yul\":6213:6216   */\n      dup3\n        /* \"#utility.yul\":6209:6221   */\n      add\n        /* \"#utility.yul\":6202:6221   */\n      swap1\n      pop\n        /* \"#utility.yul\":5861:6227   */\n      swap2\n      swap1\n      pop\n      jump\t// out\n        /* \"#utility.yul\":6233:6652   */\n    tag_75:\n        /* \"#utility.yul\":6399:6403   */\n      0x00\n        /* \"#utility.yul\":6437:6439   */\n      0x20\n        /* \"#utility.yul\":6426:6435   */\n      dup3\n        /* \"#utility.yul\":6422:6440   */\n      add\n        /* \"#utility.yul\":6414:6440   */\n      swap1\n      pop\n        /* \"#utility.yul\":6486:6495   */\n      dup2\n        /* \"#utility.yul\":6480:6484   */\n      dup2\n        /* \"#utility.yul\":6476:6496   */\n      sub\n        /* \"#utility.yul\":6472:6473   */\n      0x00\n        /* \"#utility.yul\":6461:6470   */\n      dup4\n        /* \"#utility.yul\":6457:6474   */\n      add\n        /* \"#utility.yul\":6450:6497   */\n      mstore\n        /* \"#utility.yul\":6514:6645   */\n      tag_364\n        /* \"#utility.yul\":6640:6644   */\n      dup2\n        /* \"#utility.yul\":6514:6645   */\n      tag_277\n      jump\t// in\n    tag_364:\n        /* \"#utility.yul\":6506:6645   */\n      swap1\n      pop\n        /* \"#utility.yul\":6233:6652   */\n      swap2\n      swap1\n      pop\n      jump\t// out\n        /* \"#utility.yul\":6658:6838   */\n    tag_278:\n        /* \"#utility.yul\":6706:6783   */\n      0x4e487b7100000000000000000000000000000000000000000000000000000000\n        /* \"#utility.yul\":6703:6704   */\n      0x00\n        /* \"#utility.yul\":6696:6784   */\n      mstore\n        /* \"#utility.yul\":6803:6807   */\n      0x11\n        /* \"#utility.yul\":6800:6801   */\n      0x04\n        /* \"#utility.yul\":6793:6808   */\n      mstore\n        /* \"#utility.yul\":6827:6831   */\n      0x24\n        /* \"#utility.yul\":6824:6825   */\n      0x00\n        /* \"#utility.yul\":6817:6832   */\n      revert\n        /* \"#utility.yul\":6844:7038   */\n    tag_79:\n        /* \"#utility.yul\":6884:6888   */\n      0x00\n        /* \"#utility.yul\":6904:6924   */\n      tag_367\n        /* \"#utility.yul\":6922:6923   */\n      dup3\n        /* \"#utility.yul\":6904:6924   */\n      tag_263\n      jump\t// in\n    tag_367:\n        /* \"#utility.yul\":6899:6924   */\n      swap2\n      pop\n        /* \"#utility.yul\":6938:6958   */\n      tag_368\n        /* \"#utility.yul\":6956:6957   */\n      dup4\n        /* \"#utility.yul\":6938:6958   */\n      tag_263\n      jump\t// in\n    tag_368:\n        /* \"#utility.yul\":6933:6958   */\n      swap3\n      pop\n        /* \"#utility.yul\":6982:6983   */\n      dup3\n        /* \"#utility.yul\":6979:6980   */\n      dup3\n        /* \"#utility.yul\":6975:6984   */\n      sub\n        /* \"#utility.yul\":6967:6984   */\n      swap1\n      pop\n        /* \"#utility.yul\":7006:7007   */\n      dup2\n        /* \"#utility.yul\":7000:7004   */\n      dup2\n        /* \"#utility.yul\":6997:7008   */\n      gt\n        /* \"#utility.yul\":6994:7031   */\n      iszero\n      tag_369\n      jumpi\n        /* \"#utility.yul\":7011:7029   */\n      tag_370\n      tag_278\n      jump\t// in\n    tag_370:\n        /* \"#utility.yul\":6994:7031   */\n    tag_369:\n        /* \"#utility.yul\":6844:7038   */\n      swap3\n      swap2\n      pop\n      pop\n      jump\t// out\n        /* \"#utility.yul\":7044:7376   */\n    tag_81:\n        /* \"#utility.yul\":7165:7169   */\n      0x00\n        /* \"#utility.yul\":7203:7205   */\n      0x40\n        /* \"#utility.yul\":7192:7201   */\n      dup3\n        /* \"#utility.yul\":7188:7206   */\n      add\n        /* \"#utility.yul\":7180:7206   */\n      swap1\n      pop\n        /* \"#utility.yul\":7216:7287   */\n      tag_372\n        /* \"#utility.yul\":7284:7285   */\n      0x00\n        /* \"#utility.yul\":7273:7282   */\n      dup4\n        /* \"#utility.yul\":7269:7286   */\n      add\n        /* \"#utility.yul\":7260:7266   */\n      dup6\n        /* \"#utility.yul\":7216:7287   */\n      tag_272\n      jump\t// in\n    tag_372:\n        /* \"#utility.yul\":7297:7369   */\n      tag_373\n        /* \"#utility.yul\":7365:7367   */\n      0x20\n        /* \"#utility.yul\":7354:7363   */\n      dup4\n        /* \"#utility.yul\":7350:7368   */\n      add\n        /* \"#utility.yul\":7341:7347   */\n      dup5\n        /* \"#utility.yul\":7297:7369   */\n      tag_264\n      jump\t// in\n    tag_373:\n        /* \"#utility.yul\":7044:7376   */\n      swap4\n      swap3\n      pop\n      pop\n      pop\n      jump\t// out\n        /* \"#utility.yul\":7382:7472   */\n    tag_279:\n        /* \"#utility.yul\":7416:7423   */\n      0x00\n        /* \"#utility.yul\":7459:7464   */\n      dup2\n        /* \"#utility.yul\":7452:7465   */\n      iszero\n        /* \"#utility.yul\":7445:7466   */\n      iszero\n        /* \"#utility.yul\":7434:7466   */\n      swap1\n      pop\n        /* \"#utility.yul\":7382:7472   */\n      swap2\n      swap1\n      pop\n      jump\t// out\n        /* \"#utility.yul\":7478:7594   */\n    tag_280:\n        /* \"#utility.yul\":7548:7569   */\n      tag_376\n        /* \"#utility.yul\":7563:7568   */\n      dup2\n        /* \"#utility.yul\":7548:7569   */\n      tag_279\n      jump\t// in\n    tag_376:\n        /* \"#utility.yul\":7541:7546   */\n      dup2\n        /* \"#utility.yul\":7538:7570   */\n      eq\n        /* \"#utility.yul\":7528:7588   */\n      tag_377\n      jumpi\n        /* \"#utility.yul\":7584:7585   */\n      0x00\n        /* \"#utility.yul\":7581:7582   */\n      dup1\n        /* \"#utility.yul\":7574:7586   */\n      revert\n        /* \"#utility.yul\":7528:7588   */\n    tag_377:\n        /* \"#utility.yul\":7478:7594   */\n      pop\n      jump\t// out\n        /* \"#utility.yul\":7600:7737   */\n    tag_281:\n        /* \"#utility.yul\":7654:7659   */\n      0x00\n        /* \"#utility.yul\":7685:7691   */\n      dup2\n        /* \"#utility.yul\":7679:7692   */\n      mload\n        /* \"#utility.yul\":7670:7692   */\n      swap1\n      pop\n        /* \"#utility.yul\":7701:7731   */\n      tag_379\n        /* \"#utility.yul\":7725:7730   */\n      dup2\n        /* \"#utility.yul\":7701:7731   */\n      tag_280\n      jump\t// in\n    tag_379:\n        /* \"#utility.yul\":7600:7737   */\n      swap3\n      swap2\n      pop\n      pop\n      jump\t// out\n        /* \"#utility.yul\":7743:8088   */\n    tag_85:\n        /* \"#utility.yul\":7810:7816   */\n      0x00\n        /* \"#utility.yul\":7859:7861   */\n      0x20\n        /* \"#utility.yul\":7847:7856   */\n      dup3\n        /* \"#utility.yul\":7838:7845   */\n      dup5\n        /* \"#utility.yul\":7834:7857   */\n      sub\n        /* \"#utility.yul\":7830:7862   */\n      slt\n        /* \"#utility.yul\":7827:7946   */\n      iszero\n      tag_381\n      jumpi\n        /* \"#utility.yul\":7865:7944   */\n      tag_382\n      tag_257\n      jump\t// in\n    tag_382:\n        /* \"#utility.yul\":7827:7946   */\n    tag_381:\n        /* \"#utility.yul\":7985:7986   */\n      0x00\n        /* \"#utility.yul\":8010:8071   */\n      tag_383\n        /* \"#utility.yul\":8063:8070   */\n      dup5\n        /* \"#utility.yul\":8054:8060   */\n      dup3\n        /* \"#utility.yul\":8043:8052   */\n      dup6\n        /* \"#utility.yul\":8039:8061   */\n      add\n        /* \"#utility.yul\":8010:8071   */\n      tag_281\n      jump\t// in\n    tag_383:\n        /* \"#utility.yul\":8000:8071   */\n      swap2\n      pop\n        /* \"#utility.yul\":7956:8081   */\n      pop\n        /* \"#utility.yul\":7743:8088   */\n      swap3\n      swap2\n      pop\n      pop\n      jump\t// out\n        /* \"#utility.yul\":8094:8259   */\n    tag_282:\n        /* \"#utility.yul\":8234:8251   */\n      0x5472616e73666572206661696c65640000000000000000000000000000000000\n        /* \"#utility.yul\":8230:8231   */\n      0x00\n        /* \"#utility.yul\":8222:8228   */\n      dup3\n        /* \"#utility.yul\":8218:8232   */\n      add\n        /* \"#utility.yul\":8211:8252   */\n      mstore\n        /* \"#utility.yul\":8094:8259   */\n      pop\n      jump\t// out\n        /* \"#utility.yul\":8265:8631   */\n    tag_283:\n        /* \"#utility.yul\":8407:8410   */\n      0x00\n        /* \"#utility.yul\":8428:8495   */\n      tag_386\n        /* \"#utility.yul\":8492:8494   */\n      0x0f\n        /* \"#utility.yul\":8487:8490   */\n      dup4\n        /* \"#utility.yul\":8428:8495   */\n      tag_273\n      jump\t// in\n    tag_386:\n        /* \"#utility.yul\":8421:8495   */\n      swap2\n      pop\n        /* \"#utility.yul\":8504:8597   */\n      tag_387\n        /* \"#utility.yul\":8593:8596   */\n      dup3\n        /* \"#utility.yul\":8504:8597   */\n      tag_282\n      jump\t// in\n    tag_387:\n        /* \"#utility.yul\":8622:8624   */\n      0x20\n        /* \"#utility.yul\":8617:8620   */\n      dup3\n        /* \"#utility.yul\":8613:8625   */\n      add\n        /* \"#utility.yul\":8606:8625   */\n      swap1\n      pop\n        /* \"#utility.yul\":8265:8631   */\n      swap2\n      swap1\n      pop\n      jump\t// out\n        /* \"#utility.yul\":8637:9056   */\n    tag_88:\n        /* \"#utility.yul\":8803:8807   */\n      0x00\n        /* \"#utility.yul\":8841:8843   */\n      0x20\n        /* \"#utility.yul\":8830:8839   */\n      dup3\n        /* \"#utility.yul\":8826:8844   */\n      add\n        /* \"#utility.yul\":8818:8844   */\n      swap1\n      pop\n        /* \"#utility.yul\":8890:8899   */\n      dup2\n        /* \"#utility.yul\":8884:8888   */\n      dup2\n        /* \"#utility.yul\":8880:8900   */\n      sub\n        /* \"#utility.yul\":8876:8877   */\n      0x00\n        /* \"#utility.yul\":8865:8874   */\n      dup4\n        /* \"#utility.yul\":8861:8878   */\n      add\n        /* \"#utility.yul\":8854:8901   */\n      mstore\n        /* \"#utility.yul\":8918:9049   */\n      tag_389\n        /* \"#utility.yul\":9044:9048   */\n      dup2\n        /* \"#utility.yul\":8918:9049   */\n      tag_283\n      jump\t// in\n    tag_389:\n        /* \"#utility.yul\":8910:9049   */\n      swap1\n      pop\n        /* \"#utility.yul\":8637:9056   */\n      swap2\n      swap1\n      pop\n      jump\t// out\n        /* \"#utility.yul\":9062:9284   */\n    tag_90:\n        /* \"#utility.yul\":9155:9159   */\n      0x00\n        /* \"#utility.yul\":9193:9195   */\n      0x20\n        /* \"#utility.yul\":9182:9191   */\n      dup3\n        /* \"#utility.yul\":9178:9196   */\n      add\n        /* \"#utility.yul\":9170:9196   */\n      swap1\n      pop\n        /* \"#utility.yul\":9206:9277   */\n      tag_391\n        /* \"#utility.yul\":9274:9275   */\n      0x00\n        /* \"#utility.yul\":9263:9272   */\n      dup4\n        /* \"#utility.yul\":9259:9276   */\n      add\n        /* \"#utility.yul\":9250:9256   */\n      dup5\n        /* \"#utility.yul\":9206:9277   */\n      tag_264\n      jump\t// in\n    tag_391:\n        /* \"#utility.yul\":9062:9284   */\n      swap3\n      swap2\n      pop\n      pop\n      jump\t// out\n        /* \"#utility.yul\":9290:9459   */\n    tag_284:\n        /* \"#utility.yul\":9430:9451   */\n      0x4e6f207265776172647320746f20636c61696d00000000000000000000000000\n        /* \"#utility.yul\":9426:9427   */\n      0x00\n        /* \"#utility.yul\":9418:9424   */\n      dup3\n        /* \"#utility.yul\":9414:9428   */\n      add\n        /* \"#utility.yul\":9407:9452   */\n      mstore\n        /* \"#utility.yul\":9290:9459   */\n      pop\n      jump\t// out\n        /* \"#utility.yul\":9465:9831   */\n    tag_285:\n        /* \"#utility.yul\":9607:9610   */\n      0x00\n        /* \"#utility.yul\":9628:9695   */\n      tag_394\n        /* \"#utility.yul\":9692:9694   */\n      0x13\n        /* \"#utility.yul\":9687:9690   */\n      dup4\n        /* \"#utility.yul\":9628:9695   */\n      tag_273\n      jump\t// in\n    tag_394:\n        /* \"#utility.yul\":9621:9695   */\n      swap2\n      pop\n        /* \"#utility.yul\":9704:9797   */\n      tag_395\n        /* \"#utility.yul\":9793:9796   */\n      dup3\n        /* \"#utility.yul\":9704:9797   */\n      tag_284\n      jump\t// in\n    tag_395:\n        /* \"#utility.yul\":9822:9824   */\n      0x20\n        /* \"#utility.yul\":9817:9820   */\n      dup3\n        /* \"#utility.yul\":9813:9825   */\n      add\n        /* \"#utility.yul\":9806:9825   */\n      swap1\n      pop\n        /* \"#utility.yul\":9465:9831   */\n      swap2\n      swap1\n      pop\n      jump\t// out\n        /* \"#utility.yul\":9837:10256   */\n    tag_99:\n        /* \"#utility.yul\":10003:10007   */\n      0x00\n        /* \"#utility.yul\":10041:10043   */\n      0x20\n        /* \"#utility.yul\":10030:10039   */\n      dup3\n        /* \"#utility.yul\":10026:10044   */\n      add\n        /* \"#utility.yul\":10018:10044   */\n      swap1\n      pop\n        /* \"#utility.yul\":10090:10099   */\n      dup2\n        /* \"#utility.yul\":10084:10088   */\n      dup2\n        /* \"#utility.yul\":10080:10100   */\n      sub\n        /* \"#utility.yul\":10076:10077   */\n      0x00\n        /* \"#utility.yul\":10065:10074   */\n      dup4\n        /* \"#utility.yul\":10061:10078   */\n      add\n        /* \"#utility.yul\":10054:10101   */\n      mstore\n        /* \"#utility.yul\":10118:10249   */\n      tag_397\n        /* \"#utility.yul\":10244:10248   */\n      dup2\n        /* \"#utility.yul\":10118:10249   */\n      tag_285\n      jump\t// in\n    tag_397:\n        /* \"#utility.yul\":10110:10249   */\n      swap1\n      pop\n        /* \"#utility.yul\":9837:10256   */\n      swap2\n      swap1\n      pop\n      jump\t// out\n        /* \"#utility.yul\":10262:10442   */\n    tag_116:\n        /* \"#utility.yul\":10310:10387   */\n      0x4e487b7100000000000000000000000000000000000000000000000000000000\n        /* \"#utility.yul\":10307:10308   */\n      0x00\n        /* \"#utility.yul\":10300:10388   */\n      mstore\n        /* \"#utility.yul\":10407:10411   */\n      0x32\n        /* \"#utility.yul\":10404:10405   */\n      0x04\n        /* \"#utility.yul\":10397:10412   */\n      mstore\n        /* \"#utility.yul\":10431:10435   */\n      0x24\n        /* \"#utility.yul\":10428:10429   */\n      0x00\n        /* \"#utility.yul\":10421:10436   */\n      revert\n        /* \"#utility.yul\":10448:10639   */\n    tag_123:\n        /* \"#utility.yul\":10488:10491   */\n      0x00\n        /* \"#utility.yul\":10507:10527   */\n      tag_400\n        /* \"#utility.yul\":10525:10526   */\n      dup3\n        /* \"#utility.yul\":10507:10527   */\n      tag_263\n      jump\t// in\n    tag_400:\n        /* \"#utility.yul\":10502:10527   */\n      swap2\n      pop\n        /* \"#utility.yul\":10541:10561   */\n      tag_401\n        /* \"#utility.yul\":10559:10560   */\n      dup4\n        /* \"#utility.yul\":10541:10561   */\n      tag_263\n      jump\t// in\n    tag_401:\n        /* \"#utility.yul\":10536:10561   */\n      swap3\n      pop\n        /* \"#utility.yul\":10584:10585   */\n      dup3\n        /* \"#utility.yul\":10581:10582   */\n      dup3\n        /* \"#utility.yul\":10577:10586   */\n      add\n        /* \"#utility.yul\":10570:10586   */\n      swap1\n      pop\n        /* \"#utility.yul\":10605:10608   */\n      dup1\n        /* \"#utility.yul\":10602:10603   */\n      dup3\n        /* \"#utility.yul\":10599:10609   */\n      gt\n        /* \"#utility.yul\":10596:10632   */\n      iszero\n      tag_402\n      jumpi\n        /* \"#utility.yul\":10612:10630   */\n      tag_403\n      tag_278\n      jump\t// in\n    tag_403:\n        /* \"#utility.yul\":10596:10632   */\n    tag_402:\n        /* \"#utility.yul\":10448:10639   */\n      swap3\n      swap2\n      pop\n      pop\n      jump\t// out\n        /* \"#utility.yul\":10645:11055   */\n    tag_138:\n        /* \"#utility.yul\":10685:10692   */\n      0x00\n        /* \"#utility.yul\":10708:10728   */\n      tag_405\n        /* \"#utility.yul\":10726:10727   */\n      dup3\n        /* \"#utility.yul\":10708:10728   */\n      tag_263\n      jump\t// in\n    tag_405:\n        /* \"#utility.yul\":10703:10728   */\n      swap2\n      pop\n        /* \"#utility.yul\":10742:10762   */\n      tag_406\n        /* \"#utility.yul\":10760:10761   */\n      dup4\n        /* \"#utility.yul\":10742:10762   */\n      tag_263\n      jump\t// in\n    tag_406:\n        /* \"#utility.yul\":10737:10762   */\n      swap3\n      pop\n        /* \"#utility.yul\":10797:10798   */\n      dup3\n        /* \"#utility.yul\":10794:10795   */\n      dup3\n        /* \"#utility.yul\":10790:10799   */\n      mul\n        /* \"#utility.yul\":10819:10849   */\n      tag_407\n        /* \"#utility.yul\":10837:10848   */\n      dup2\n        /* \"#utility.yul\":10819:10849   */\n      tag_263\n      jump\t// in\n    tag_407:\n        /* \"#utility.yul\":10808:10849   */\n      swap2\n      pop\n        /* \"#utility.yul\":10998:10999   */\n      dup3\n        /* \"#utility.yul\":10989:10996   */\n      dup3\n        /* \"#utility.yul\":10985:11000   */\n      div\n        /* \"#utility.yul\":10982:10983   */\n      dup5\n        /* \"#utility.yul\":10979:11001   */\n      eq\n        /* \"#utility.yul\":10959:10960   */\n      dup4\n        /* \"#utility.yul\":10952:10961   */\n      iszero\n        /* \"#utility.yul\":10932:11015   */\n      or\n        /* \"#utility.yul\":10909:11048   */\n      tag_408\n      jumpi\n        /* \"#utility.yul\":11028:11046   */\n      tag_409\n      tag_278\n      jump\t// in\n    tag_409:\n        /* \"#utility.yul\":10909:11048   */\n    tag_408:\n        /* \"#utility.yul\":10693:11055   */\n      pop\n        /* \"#utility.yul\":10645:11055   */\n      swap3\n      swap2\n      pop\n      pop\n      jump\t// out\n        /* \"#utility.yul\":11061:11241   */\n    tag_286:\n        /* \"#utility.yul\":11109:11186   */\n      0x4e487b7100000000000000000000000000000000000000000000000000000000\n        /* \"#utility.yul\":11106:11107   */\n      0x00\n        /* \"#utility.yul\":11099:11187   */\n      mstore\n        /* \"#utility.yul\":11206:11210   */\n      0x12\n        /* \"#utility.yul\":11203:11204   */\n      0x04\n        /* \"#utility.yul\":11196:11211   */\n      mstore\n        /* \"#utility.yul\":11230:11234   */\n      0x24\n        /* \"#utility.yul\":11227:11228   */\n      0x00\n        /* \"#utility.yul\":11220:11235   */\n      revert\n        /* \"#utility.yul\":11247:11432   */\n    tag_140:\n        /* \"#utility.yul\":11287:11288   */\n      0x00\n        /* \"#utility.yul\":11304:11324   */\n      tag_412\n        /* \"#utility.yul\":11322:11323   */\n      dup3\n        /* \"#utility.yul\":11304:11324   */\n      tag_263\n      jump\t// in\n    tag_412:\n        /* \"#utility.yul\":11299:11324   */\n      swap2\n      pop\n        /* \"#utility.yul\":11338:11358   */\n      tag_413\n        /* \"#utility.yul\":11356:11357   */\n      dup4\n        /* \"#utility.yul\":11338:11358   */\n      tag_263\n      jump\t// in\n    tag_413:\n        /* \"#utility.yul\":11333:11358   */\n      swap3\n      pop\n        /* \"#utility.yul\":11377:11378   */\n      dup3\n        /* \"#utility.yul\":11367:11402   */\n      tag_414\n      jumpi\n        /* \"#utility.yul\":11382:11400   */\n      tag_415\n      tag_286\n      jump\t// in\n    tag_415:\n        /* \"#utility.yul\":11367:11402   */\n    tag_414:\n        /* \"#utility.yul\":11424:11425   */\n      dup3\n        /* \"#utility.yul\":11421:11422   */\n      dup3\n        /* \"#utility.yul\":11417:11426   */\n      div\n        /* \"#utility.yul\":11412:11426   */\n      swap1\n      pop\n        /* \"#utility.yul\":11247:11432   */\n      swap3\n      swap2\n      pop\n      pop\n      jump\t// out\n        /* \"#utility.yul\":11438:11880   */\n    tag_157:\n        /* \"#utility.yul\":11587:11591   */\n      0x00\n        /* \"#utility.yul\":11625:11627   */\n      0x60\n        /* \"#utility.yul\":11614:11623   */\n      dup3\n        /* \"#utility.yul\":11610:11628   */\n      add\n        /* \"#utility.yul\":11602:11628   */\n      swap1\n      pop\n        /* \"#utility.yul\":11638:11709   */\n      tag_417\n        /* \"#utility.yul\":11706:11707   */\n      0x00\n        /* \"#utility.yul\":11695:11704   */\n      dup4\n        /* \"#utility.yul\":11691:11708   */\n      add\n        /* \"#utility.yul\":11682:11688   */\n      dup7\n        /* \"#utility.yul\":11638:11709   */\n      tag_272\n      jump\t// in\n    tag_417:\n        /* \"#utility.yul\":11719:11791   */\n      tag_418\n        /* \"#utility.yul\":11787:11789   */\n      0x20\n        /* \"#utility.yul\":11776:11785   */\n      dup4\n        /* \"#utility.yul\":11772:11790   */\n      add\n        /* \"#utility.yul\":11763:11769   */\n      dup6\n        /* \"#utility.yul\":11719:11791   */\n      tag_272\n      jump\t// in\n    tag_418:\n        /* \"#utility.yul\":11801:11873   */\n      tag_419\n        /* \"#utility.yul\":11869:11871   */\n      0x40\n        /* \"#utility.yul\":11858:11867   */\n      dup4\n        /* \"#utility.yul\":11854:11872   */\n      add\n        /* \"#utility.yul\":11845:11851   */\n      dup5\n        /* \"#utility.yul\":11801:11873   */\n      tag_264\n      jump\t// in\n    tag_419:\n        /* \"#utility.yul\":11438:11880   */\n      swap5\n      swap4\n      pop\n      pop\n      pop\n      pop\n      jump\t// out\n        /* \"#utility.yul\":11886:12062   */\n    tag_287:\n        /* \"#utility.yul\":12026:12054   */\n      0x496e73756666696369656e742076657374656420616d6f756e74000000000000\n        /* \"#utility.yul\":12022:12023   */\n      0x00\n        /* \"#utility.yul\":12014:12020   */\n      dup3\n        /* \"#utility.yul\":12010:12024   */\n      add\n        /* \"#utility.yul\":12003:12055   */\n      mstore\n        /* \"#utility.yul\":11886:12062   */\n      pop\n      jump\t// out\n        /* \"#utility.yul\":12068:12434   */\n    tag_288:\n        /* \"#utility.yul\":12210:12213   */\n      0x00\n        /* \"#utility.yul\":12231:12298   */\n      tag_422\n        /* \"#utility.yul\":12295:12297   */\n      0x1a\n        /* \"#utility.yul\":12290:12293   */\n      dup4\n        /* \"#utility.yul\":12231:12298   */\n      tag_273\n      jump\t// in\n    tag_422:\n        /* \"#utility.yul\":12224:12298   */\n      swap2\n      pop\n        /* \"#utility.yul\":12307:12400   */\n      tag_423\n        /* \"#utility.yul\":12396:12399   */\n      dup3\n        /* \"#utility.yul\":12307:12400   */\n      tag_287\n      jump\t// in\n    tag_423:\n        /* \"#utility.yul\":12425:12427   */\n      0x20\n        /* \"#utility.yul\":12420:12423   */\n      dup3\n        /* \"#utility.yul\":12416:12428   */\n      add\n        /* \"#utility.yul\":12409:12428   */\n      swap1\n      pop\n        /* \"#utility.yul\":12068:12434   */\n      swap2\n      swap1\n      pop\n      jump\t// out\n        /* \"#utility.yul\":12440:12859   */\n    tag_181:\n        /* \"#utility.yul\":12606:12610   */\n      0x00\n        /* \"#utility.yul\":12644:12646   */\n      0x20\n        /* \"#utility.yul\":12633:12642   */\n      dup3\n        /* \"#utility.yul\":12629:12647   */\n      add\n        /* \"#utility.yul\":12621:12647   */\n      swap1\n      pop\n        /* \"#utility.yul\":12693:12702   */\n      dup2\n        /* \"#utility.yul\":12687:12691   */\n      dup2\n        /* \"#utility.yul\":12683:12703   */\n      sub\n        /* \"#utility.yul\":12679:12680   */\n      0x00\n        /* \"#utility.yul\":12668:12677   */\n      dup4\n        /* \"#utility.yul\":12664:12681   */\n      add\n        /* \"#utility.yul\":12657:12704   */\n      mstore\n        /* \"#utility.yul\":12721:12852   */\n      tag_425\n        /* \"#utility.yul\":12847:12851   */\n      dup2\n        /* \"#utility.yul\":12721:12852   */\n      tag_288\n      jump\t// in\n    tag_425:\n        /* \"#utility.yul\":12713:12852   */\n      swap1\n      pop\n        /* \"#utility.yul\":12440:12859   */\n      swap2\n      swap1\n      pop\n      jump\t// out\n        /* \"#utility.yul\":12865:13098   */\n    tag_210:\n        /* \"#utility.yul\":12904:12907   */\n      0x00\n        /* \"#utility.yul\":12927:12951   */\n      tag_427\n        /* \"#utility.yul\":12945:12950   */\n      dup3\n        /* \"#utility.yul\":12927:12951   */\n      tag_263\n      jump\t// in\n    tag_427:\n        /* \"#utility.yul\":12918:12951   */\n      swap2\n      pop\n        /* \"#utility.yul\":12973:13039   */\n      0xffffffffffffffffffffffffffffffffffffffffffffffffffffffffffffffff\n        /* \"#utility.yul\":12966:12971   */\n      dup3\n        /* \"#utility.yul\":12963:13040   */\n      sub\n        /* \"#utility.yul\":12960:13063   */\n      tag_428\n      jumpi\n        /* \"#utility.yul\":13043:13061   */\n      tag_429\n      tag_278\n      jump\t// in\n    tag_429:\n        /* \"#utility.yul\":12960:13063   */\n    tag_428:\n        /* \"#utility.yul\":13090:13091   */\n      0x01\n        /* \"#utility.yul\":13083:13088   */\n      dup3\n        /* \"#utility.yul\":13079:13092   */\n      add\n        /* \"#utility.yul\":13072:13092   */\n      swap1\n      pop\n        /* \"#utility.yul\":12865:13098   */\n      swap2\n      swap1\n      pop\n      jump\t// out\n        /* \"#utility.yul\":13104:13275   */\n    tag_289:\n        /* \"#utility.yul\":13244:13267   */\n      0x6573524e54207472616e73666572206661696c65640000000000000000000000\n        /* \"#utility.yul\":13240:13241   */\n      0x00\n        /* \"#utility.yul\":13232:13238   */\n      dup3\n        /* \"#utility.yul\":13228:13242   */\n      add\n        /* \"#utility.yul\":13221:13268   */\n      mstore\n        /* \"#utility.yul\":13104:13275   */\n      pop\n      jump\t// out\n        /* \"#utility.yul\":13281:13647   */\n    tag_290:\n        /* \"#utility.yul\":13423:13426   */\n      0x00\n        /* \"#utility.yul\":13444:13511   */\n      tag_432\n        /* \"#utility.yul\":13508:13510   */\n      0x15\n        /* \"#utility.yul\":13503:13506   */\n      dup4\n        /* \"#utility.yul\":13444:13511   */\n      tag_273\n      jump\t// in\n    tag_432:\n        /* \"#utility.yul\":13437:13511   */\n      swap2\n      pop\n        /* \"#utility.yul\":13520:13613   */\n      tag_433\n        /* \"#utility.yul\":13609:13612   */\n      dup3\n        /* \"#utility.yul\":13520:13613   */\n      tag_289\n      jump\t// in\n    tag_433:\n        /* \"#utility.yul\":13638:13640   */\n      0x20\n        /* \"#utility.yul\":13633:13636   */\n      dup3\n        /* \"#utility.yul\":13629:13641   */\n      add\n        /* \"#utility.yul\":13622:13641   */\n      swap1\n      pop\n        /* \"#utility.yul\":13281:13647   */\n      swap2\n      swap1\n      pop\n      jump\t// out\n        /* \"#utility.yul\":13653:14072   */\n    tag_217:\n        /* \"#utility.yul\":13819:13823   */\n      0x00\n        /* \"#utility.yul\":13857:13859   */\n      0x20\n        /* \"#utility.yul\":13846:13855   */\n      dup3\n        /* \"#utility.yul\":13842:13860   */\n      add\n        /* \"#utility.yul\":13834:13860   */\n      swap1\n      pop\n        /* \"#utility.yul\":13906:13915   */\n      dup2\n        /* \"#utility.yul\":13900:13904   */\n      dup2\n        /* \"#utility.yul\":13896:13916   */\n      sub\n        /* \"#utility.yul\":13892:13893   */\n      0x00\n        /* \"#utility.yul\":13881:13890   */\n      dup4\n        /* \"#utility.yul\":13877:13894   */\n      add\n        /* \"#utility.yul\":13870:13917   */\n      mstore\n        /* \"#utility.yul\":13934:14065   */\n      tag_435\n        /* \"#utility.yul\":14060:14064   */\n      dup2\n        /* \"#utility.yul\":13934:14065   */\n      tag_290\n      jump\t// in\n    tag_435:\n        /* \"#utility.yul\":13926:14065   */\n      swap1\n      pop\n        /* \"#utility.yul\":13653:14072   */\n      swap2\n      swap1\n      pop\n      jump\t// out\n        /* \"#utility.yul\":14078:14247   */\n    tag_291:\n        /* \"#utility.yul\":14218:14239   */\n      0x524e54207472616e73666572206661696c656400000000000000000000000000\n        /* \"#utility.yul\":14214:14215   */\n      0x00\n        /* \"#utility.yul\":14206:14212   */\n      dup3\n        /* \"#utility.yul\":14202:14216   */\n      add\n        /* \"#utility.yul\":14195:14240   */\n      mstore\n        /* \"#utility.yul\":14078:14247   */\n      pop\n      jump\t// out\n        /* \"#utility.yul\":14253:14619   */\n    tag_292:\n        /* \"#utility.yul\":14395:14398   */\n      0x00\n        /* \"#utility.yul\":14416:14483   */\n      tag_438\n        /* \"#utility.yul\":14480:14482   */\n      0x13\n        /* \"#utility.yul\":14475:14478   */\n      dup4\n        /* \"#utility.yul\":14416:14483   */\n      tag_273\n      jump\t// in\n    tag_438:\n        /* \"#utility.yul\":14409:14483   */\n      swap2\n      pop\n        /* \"#utility.yul\":14492:14585   */\n      tag_439\n        /* \"#utility.yul\":14581:14584   */\n      dup3\n        /* \"#utility.yul\":14492:14585   */\n      tag_291\n      jump\t// in\n    tag_439:\n        /* \"#utility.yul\":14610:14612   */\n      0x20\n        /* \"#utility.yul\":14605:14608   */\n      dup3\n        /* \"#utility.yul\":14601:14613   */\n      add\n        /* \"#utility.yul\":14594:14613   */\n      swap1\n      pop\n        /* \"#utility.yul\":14253:14619   */\n      swap2\n      swap1\n      pop\n      jump\t// out\n        /* \"#utility.yul\":14625:15044   */\n    tag_225:\n        /* \"#utility.yul\":14791:14795   */\n      0x00\n        /* \"#utility.yul\":14829:14831   */\n      0x20\n        /* \"#utility.yul\":14818:14827   */\n      dup3\n        /* \"#utility.yul\":14814:14832   */\n      add\n        /* \"#utility.yul\":14806:14832   */\n      swap1\n      pop\n        /* \"#utility.yul\":14878:14887   */\n      dup2\n        /* \"#utility.yul\":14872:14876   */\n      dup2\n        /* \"#utility.yul\":14868:14888   */\n      sub\n        /* \"#utility.yul\":14864:14865   */\n      0x00\n        /* \"#utility.yul\":14853:14862   */\n      dup4\n        /* \"#utility.yul\":14849:14866   */\n      add\n        /* \"#utility.yul\":14842:14889   */\n      mstore\n        /* \"#utility.yul\":14906:15037   */\n      tag_441\n        /* \"#utility.yul\":15032:15036   */\n      dup2\n        /* \"#utility.yul\":14906:15037   */\n      tag_292\n      jump\t// in\n    tag_441:\n        /* \"#utility.yul\":14898:15037   */\n      swap1\n      pop\n        /* \"#utility.yul\":14625:15044   */\n      swap2\n      swap1\n      pop\n      jump\t// out\n        /* \"#utility.yul\":15050:15231   */\n    tag_293:\n        /* \"#utility.yul\":15190:15223   */\n      0x5265656e7472616e637947756172643a207265656e7472616e742063616c6c00\n        /* \"#utility.yul\":15186:15187   */\n      0x00\n        /* \"#utility.yul\":15178:15184   */\n      dup3\n        /* \"#utility.yul\":15174:15188   */\n      add\n        /* \"#utility.yul\":15167:15224   */\n      mstore\n        /* \"#utility.yul\":15050:15231   */\n      pop\n      jump\t// out\n        /* \"#utility.yul\":15237:15603   */\n    tag_294:\n        /* \"#utility.yul\":15379:15382   */\n      0x00\n        /* \"#utility.yul\":15400:15467   */\n      tag_444\n        /* \"#utility.yul\":15464:15466   */\n      0x1f\n        /* \"#utility.yul\":15459:15462   */\n      dup4\n        /* \"#utility.yul\":15400:15467   */\n      tag_273\n      jump\t// in\n    tag_444:\n        /* \"#utility.yul\":15393:15467   */\n      swap2\n      pop\n        /* \"#utility.yul\":15476:15569   */\n      tag_445\n        /* \"#utility.yul\":15565:15568   */\n      dup3\n        /* \"#utility.yul\":15476:15569   */\n      tag_293\n      jump\t// in\n    tag_445:\n        /* \"#utility.yul\":15594:15596   */\n      0x20\n        /* \"#utility.yul\":15589:15592   */\n      dup3\n        /* \"#utility.yul\":15585:15597   */\n      add\n        /* \"#utility.yul\":15578:15597   */\n      swap1\n      pop\n        /* \"#utility.yul\":15237:15603   */\n      swap2\n      swap1\n      pop\n      jump\t// out\n        /* \"#utility.yul\":15609:16028   */\n    tag_237:\n        /* \"#utility.yul\":15775:15779   */\n      0x00\n        /* \"#utility.yul\":15813:15815   */\n      0x20\n        /* \"#utility.yul\":15802:15811   */\n      dup3\n        /* \"#utility.yul\":15798:15816   */\n      add\n        /* \"#utility.yul\":15790:15816   */\n      swap1\n      pop\n        /* \"#utility.yul\":15862:15871   */\n      dup2\n        /* \"#utility.yul\":15856:15860   */\n      dup2\n        /* \"#utility.yul\":15852:15872   */\n      sub\n        /* \"#utility.yul\":15848:15849   */\n      0x00\n        /* \"#utility.yul\":15837:15846   */\n      dup4\n        /* \"#utility.yul\":15833:15850   */\n      add\n        /* \"#utility.yul\":15826:15873   */\n      mstore\n        /* \"#utility.yul\":15890:16021   */\n      tag_447\n        /* \"#utility.yul\":16016:16020   */\n      dup2\n        /* \"#utility.yul\":15890:16021   */\n      tag_294\n      jump\t// in\n    tag_447:\n        /* \"#utility.yul\":15882:16021   */\n      swap1\n      pop\n        /* \"#utility.yul\":15609:16028   */\n      swap2\n      swap1\n      pop\n      jump\t// out\n\n    auxdata: 0xa2646970667358221220efd8835d483ac02c7e272ddd2431aec46d5e3546170732c34189b69fc251336c64736f6c634300081a0033\n}\n",
				"bytecode": {
					"linkReferences": {},
					"object": "60c060405234801561000f575f80fd5b50604051611ea2380380611ea28339818101604052810190610031919061024a565b8060015f819055505f73ffffffffffffffffffffffffffffffffffffffff168173ffffffffffffffffffffffffffffffffffffffff16036100a9575f6040517f1e4fbdf70000000000000000000000000000000000000000000000000000000081526004016100a091906102a9565b60405180910390fd5b6100b88161012960201b60201c565b508273ffffffffffffffffffffffffffffffffffffffff1660808173ffffffffffffffffffffffffffffffffffffffff16815250508173ffffffffffffffffffffffffffffffffffffffff1660a08173ffffffffffffffffffffffffffffffffffffffff16815250505050506102c2565b5f60015f9054906101000a900473ffffffffffffffffffffffffffffffffffffffff1690508160015f6101000a81548173ffffffffffffffffffffffffffffffffffffffff021916908373ffffffffffffffffffffffffffffffffffffffff1602179055508173ffffffffffffffffffffffffffffffffffffffff168173ffffffffffffffffffffffffffffffffffffffff167f8be0079c531659141344cd1fd0a4f28419497f9722a3daafe3b4186f6b6457e060405160405180910390a35050565b5f80fd5b5f73ffffffffffffffffffffffffffffffffffffffff82169050919050565b5f610219826101f0565b9050919050565b6102298161020f565b8114610233575f80fd5b50565b5f8151905061024481610220565b92915050565b5f805f60608486031215610261576102606101ec565b5b5f61026e86828701610236565b935050602061027f86828701610236565b925050604061029086828701610236565b9150509250925092565b6102a38161020f565b82525050565b5f6020820190506102bc5f83018461029a565b92915050565b60805160a051611b9c6103065f395f818161058a015281816109520152610e5901525f818161029c015281816103b201528181610a220152610f3d0152611b9c5ff3fe608060405234801561000f575f80fd5b50600436106100cd575f3560e01c80638da5cb5b1161008a578063bd84477d11610064578063bd84477d146101da578063c34531531461020b578063db006a751461023c578063f2fde38b14610258576100cd565b80638da5cb5b1461018257806393dea9e6146101a0578063a694fc3a146101be576100cd565b806316934fc4146100d15780632370b07b146101035780632e17de7814610121578063372500ab1461013d578063619cfc3514610147578063715018a614610178575b5f80fd5b6100eb60048036038101906100e691906113ce565b610274565b6040516100fa93929190611411565b60405180910390f35b61010b61029a565b60405161011891906114a1565b60405180910390f35b61013b600480360381019061013691906114e4565b6102be565b005b6101456104e4565b005b610161600480360381019061015c91906113ce565b610795565b60405161016f92919061150f565b60405180910390f35b610180610915565b005b61018a610928565b6040516101979190611545565b60405180910390f35b6101a8610950565b6040516101b591906114a1565b60405180910390f35b6101d860048036038101906101d391906114e4565b610974565b005b6101f460048036038101906101ef919061155e565b610b56565b60405161020292919061150f565b60405180910390f35b610225600480360381019061022091906113ce565b610b90565b60405161023392919061150f565b60405180910390f35b610256600480360381019061025191906114e4565b610c82565b005b610272600480360381019061026d91906113ce565b611077565b005b6002602052805f5260405f205f91509050805f0154908060010154908060020154905083565b7f000000000000000000000000000000000000000000000000000000000000000081565b6102c66110fb565b5f8111610308576040517f08c379a00000000000000000000000000000000000000000000000000000000081526004016102ff906115f6565b60405180910390fd5b5f60025f3373ffffffffffffffffffffffffffffffffffffffff1673ffffffffffffffffffffffffffffffffffffffff1681526020019081526020015f20905081815f0154101561038e576040517f08c379a00000000000000000000000000000000000000000000000000000000081526004016103859061165e565b60405180910390fd5b61039733611148565b81815f015f8282546103a991906116a9565b925050819055507f000000000000000000000000000000000000000000000000000000000000000073ffffffffffffffffffffffffffffffffffffffff1663a9059cbb33846040518363ffffffff1660e01b815260040161040b9291906116dc565b6020604051808303815f875af1158015610427573d5f803e3d5ffd5b505050506040513d601f19601f8201168201806040525081019061044b9190611738565b61048a576040517f08c379a0000000000000000000000000000000000000000000000000000000008152600401610481906117ad565b60405180910390fd5b3373ffffffffffffffffffffffffffffffffffffffff167f0f5bb82176feb1b5e747e28471aa92156a04d9f3ab9f45f28e2d704232b93f75836040516104d091906117cb565b60405180910390a2506104e1611216565b50565b6104ec6110fb565b6104f533611148565b5f60025f3373ffffffffffffffffffffffffffffffffffffffff1673ffffffffffffffffffffffffffffffffffffffff1681526020019081526020015f2090505f816002015490505f811161057f576040517f08c379a00000000000000000000000000000000000000000000000000000000081526004016105769061182e565b60405180910390fd5b5f82600201819055507f000000000000000000000000000000000000000000000000000000000000000073ffffffffffffffffffffffffffffffffffffffff1663a9059cbb33836040518363ffffffff1660e01b81526004016105e39291906116dc565b6020604051808303815f875af11580156105ff573d5f803e3d5ffd5b505050506040513d601f19601f820116820180604052508101906106239190611738565b610662576040517f08c379a0000000000000000000000000000000000000000000000000000000008152600401610659906117ad565b60405180910390fd5b60035f3373ffffffffffffffffffffffffffffffffffffffff1673ffffffffffffffffffffffffffffffffffffffff1681526020019081526020015f20604051806040016040528083815260200142815250908060018154018082558091505060019003905f5260205f2090600202015f909190919091505f820151815f01556020820151816001015550503373ffffffffffffffffffffffffffffffffffffffff167ffc30cddea38e2bf4d6ea7d3f9ed3b6ad7f176419f4963bd81318067a4aee73fe8260405161073491906117cb565b60405180910390a23373ffffffffffffffffffffffffffffffffffffffff167ed5958799b183a7b738d3ad5e711305293dd5076a37a4e3b7e6611dea6114f38260405161078191906117cb565b60405180910390a25050610793611216565b565b5f805f60035f8573ffffffffffffffffffffffffffffffffffffffff1673ffffffffffffffffffffffffffffffffffffffff1681526020019081526020015f2090505f4290505f5b828054905081101561090d575f8382815481106107fd576107fc61184c565b5b905f5260205f2090600202015f01541115610900578281815481106108255761082461184c565b5b905f5260205f2090600202015f01548461083f9190611879565b93505f8382815481106108555761085461184c565b5b905f5260205f209060020201600101548361087091906116a9565b905062278d0081106108b05783828154811061088f5761088e61184c565b5b905f5260205f2090600202015f0154866108a99190611879565b95506108fe565b5f62278d00828685815481106108c9576108c861184c565b5b905f5260205f2090600202015f01546108e291906118ac565b6108ec919061191a565b905080876108fa9190611879565b9650505b505b80806001019150506107dd565b505050915091565b61091d61121f565b6109265f6112a6565b565b5f60015f9054906101000a900473ffffffffffffffffffffffffffffffffffffffff16905090565b7f000000000000000000000000000000000000000000000000000000000000000081565b61097c6110fb565b5f81116109be576040517f08c379a00000000000000000000000000000000000000000000000000000000081526004016109b5906115f6565b60405180910390fd5b6109c733611148565b5f60025f3373ffffffffffffffffffffffffffffffffffffffff1673ffffffffffffffffffffffffffffffffffffffff1681526020019081526020015f20905081815f015f828254610a199190611879565b925050819055507f000000000000000000000000000000000000000000000000000000000000000073ffffffffffffffffffffffffffffffffffffffff166323b872dd3330856040518463ffffffff1660e01b8152600401610a7d9392919061194a565b6020604051808303815f875af1158015610a99573d5f803e3d5ffd5b505050506040513d601f19601f82011682018060405250810190610abd9190611738565b610afc576040517f08c379a0000000000000000000000000000000000000000000000000000000008152600401610af3906117ad565b60405180910390fd5b3373ffffffffffffffffffffffffffffffffffffffff167f9e71bc8eea02a63969f509818f2dafb9254532904319f9dbda79b67bd34a5f3d83604051610b4291906117cb565b60405180910390a250610b53611216565b50565b6003602052815f5260405f208181548110610b6f575f80fd5b905f5260205f2090600202015f9150915050805f0154908060010154905082565b5f805f60025f8573ffffffffffffffffffffffffffffffffffffffff1673ffffffffffffffffffffffffffffffffffffffff1681526020019081526020015f206040518060600160405290815f82015481526020016001820154815260200160028201548152505090505f816040015190505f825f01511115610c72575f826020015142610c1e91906116a9565b9050670de0b6b3a764000062015180670de0b6b3a764000083865f0151610c4591906118ac565b610c4f91906118ac565b610c59919061191a565b610c63919061191a565b82610c6e9190611879565b9150505b815f015181935093505050915091565b610c8a6110fb565b5f80610c9533610795565b9150915082811015610cdc576040517f08c379a0000000000000000000000000000000000000000000000000000000008152600401610cd3906119c9565b60405180910390fd5b5f80838511610ced57849050610cff565b8390508385610cfc91906116a9565b91505b5f60035f3373ffffffffffffffffffffffffffffffffffffffff1673ffffffffffffffffffffffffffffffffffffffff1681526020019081526020015f2090505f8690505f5b828054905081108015610d5757505f82115b15610e56575f838281548110610d7057610d6f61184c565b5b905f5260205f2090600202015f01541115610e435781838281548110610d9957610d9861184c565b5b905f5260205f2090600202015f015411610e0757828181548110610dc057610dbf61184c565b5b905f5260205f2090600202015f015482610dda91906116a9565b91505f838281548110610df057610def61184c565b5b905f5260205f2090600202015f0181905550610e42565b81838281548110610e1b57610e1a61184c565b5b905f5260205f2090600202015f015f828254610e3791906116a9565b925050819055505f91505b5b8080610e4e906119e7565b915050610d45565b507f000000000000000000000000000000000000000000000000000000000000000073ffffffffffffffffffffffffffffffffffffffff166323b872dd33308a6040518463ffffffff1660e01b8152600401610eb49392919061194a565b6020604051808303815f875af1158015610ed0573d5f803e3d5ffd5b505050506040513d601f19601f82011682018060405250810190610ef49190611738565b610f33576040517f08c379a0000000000000000000000000000000000000000000000000000000008152600401610f2a90611a78565b60405180910390fd5b5f831115611016577f000000000000000000000000000000000000000000000000000000000000000073ffffffffffffffffffffffffffffffffffffffff1663a9059cbb33856040518363ffffffff1660e01b8152600401610f969291906116dc565b6020604051808303815f875af1158015610fb2573d5f803e3d5ffd5b505050506040513d601f19601f82011682018060405250810190610fd69190611738565b611015576040517f08c379a000000000000000000000000000000000000000000000000000000000815260040161100c90611ae0565b60405180910390fd5b5b3373ffffffffffffffffffffffffffffffffffffffff167ff3a670cd3af7d64b488926880889d08a8585a138ff455227af6737339a1ec262848660405161105e92919061150f565b60405180910390a2505050505050611074611216565b50565b61107f61121f565b5f73ffffffffffffffffffffffffffffffffffffffff168173ffffffffffffffffffffffffffffffffffffffff16036110ef575f6040517f1e4fbdf70000000000000000000000000000000000000000000000000000000081526004016110e69190611545565b60405180910390fd5b6110f8816112a6565b50565b60025f540361113f576040517f08c379a000000000000000000000000000000000000000000000000000000000815260040161113690611b48565b60405180910390fd5b60025f81905550565b5f60025f8373ffffffffffffffffffffffffffffffffffffffff1673ffffffffffffffffffffffffffffffffffffffff1681526020019081526020015f2090505f815f01541115611209575f8160010154426111a491906116a9565b90505f670de0b6b3a764000062015180670de0b6b3a764000084865f01546111cc91906118ac565b6111d691906118ac565b6111e0919061191a565b6111ea919061191a565b905080836002015f8282546111ff9190611879565b9250508190555050505b4281600101819055505050565b60015f81905550565b611227611369565b73ffffffffffffffffffffffffffffffffffffffff16611245610928565b73ffffffffffffffffffffffffffffffffffffffff16146112a457611268611369565b6040517f118cdaa700000000000000000000000000000000000000000000000000000000815260040161129b9190611545565b60405180910390fd5b565b5f60015f9054906101000a900473ffffffffffffffffffffffffffffffffffffffff1690508160015f6101000a81548173ffffffffffffffffffffffffffffffffffffffff021916908373ffffffffffffffffffffffffffffffffffffffff1602179055508173ffffffffffffffffffffffffffffffffffffffff168173ffffffffffffffffffffffffffffffffffffffff167f8be0079c531659141344cd1fd0a4f28419497f9722a3daafe3b4186f6b6457e060405160405180910390a35050565b5f33905090565b5f80fd5b5f73ffffffffffffffffffffffffffffffffffffffff82169050919050565b5f61139d82611374565b9050919050565b6113ad81611393565b81146113b7575f80fd5b50565b5f813590506113c8816113a4565b92915050565b5f602082840312156113e3576113e2611370565b5b5f6113f0848285016113ba565b91505092915050565b5f819050919050565b61140b816113f9565b82525050565b5f6060820190506114245f830186611402565b6114316020830185611402565b61143e6040830184611402565b949350505050565b5f819050919050565b5f61146961146461145f84611374565b611446565b611374565b9050919050565b5f61147a8261144f565b9050919050565b5f61148b82611470565b9050919050565b61149b81611481565b82525050565b5f6020820190506114b45f830184611492565b92915050565b6114c3816113f9565b81146114cd575f80fd5b50565b5f813590506114de816114ba565b92915050565b5f602082840312156114f9576114f8611370565b5b5f611506848285016114d0565b91505092915050565b5f6040820190506115225f830185611402565b61152f6020830184611402565b9392505050565b61153f81611393565b82525050565b5f6020820190506115585f830184611536565b92915050565b5f806040838503121561157457611573611370565b5b5f611581858286016113ba565b9250506020611592858286016114d0565b9150509250929050565b5f82825260208201905092915050565b7f416d6f756e74206d7573742062652067726561746572207468616e20300000005f82015250565b5f6115e0601d8361159c565b91506115eb826115ac565b602082019050919050565b5f6020820190508181035f83015261160d816115d4565b9050919050565b7f496e73756666696369656e74207374616b656420616d6f756e740000000000005f82015250565b5f611648601a8361159c565b915061165382611614565b602082019050919050565b5f6020820190508181035f8301526116758161163c565b9050919050565b7f4e487b71000000000000000000000000000000000000000000000000000000005f52601160045260245ffd5b5f6116b3826113f9565b91506116be836113f9565b92508282039050818111156116d6576116d561167c565b5b92915050565b5f6040820190506116ef5f830185611536565b6116fc6020830184611402565b9392505050565b5f8115159050919050565b61171781611703565b8114611721575f80fd5b50565b5f815190506117328161170e565b92915050565b5f6020828403121561174d5761174c611370565b5b5f61175a84828501611724565b91505092915050565b7f5472616e73666572206661696c656400000000000000000000000000000000005f82015250565b5f611797600f8361159c565b91506117a282611763565b602082019050919050565b5f6020820190508181035f8301526117c48161178b565b9050919050565b5f6020820190506117de5f830184611402565b92915050565b7f4e6f207265776172647320746f20636c61696d000000000000000000000000005f82015250565b5f61181860138361159c565b9150611823826117e4565b602082019050919050565b5f6020820190508181035f8301526118458161180c565b9050919050565b7f4e487b71000000000000000000000000000000000000000000000000000000005f52603260045260245ffd5b5f611883826113f9565b915061188e836113f9565b92508282019050808211156118a6576118a561167c565b5b92915050565b5f6118b6826113f9565b91506118c1836113f9565b92508282026118cf816113f9565b915082820484148315176118e6576118e561167c565b5b5092915050565b7f4e487b71000000000000000000000000000000000000000000000000000000005f52601260045260245ffd5b5f611924826113f9565b915061192f836113f9565b92508261193f5761193e6118ed565b5b828204905092915050565b5f60608201905061195d5f830186611536565b61196a6020830185611536565b6119776040830184611402565b949350505050565b7f496e73756666696369656e742076657374656420616d6f756e740000000000005f82015250565b5f6119b3601a8361159c565b91506119be8261197f565b602082019050919050565b5f6020820190508181035f8301526119e0816119a7565b9050919050565b5f6119f1826113f9565b91507fffffffffffffffffffffffffffffffffffffffffffffffffffffffffffffffff8203611a2357611a2261167c565b5b600182019050919050565b7f6573524e54207472616e73666572206661696c656400000000000000000000005f82015250565b5f611a6260158361159c565b9150611a6d82611a2e565b602082019050919050565b5f6020820190508181035f830152611a8f81611a56565b9050919050565b7f524e54207472616e73666572206661696c6564000000000000000000000000005f82015250565b5f611aca60138361159c565b9150611ad582611a96565b602082019050919050565b5f6020820190508181035f830152611af781611abe565b9050919050565b7f5265656e7472616e637947756172643a207265656e7472616e742063616c6c005f82015250565b5f611b32601f8361159c565b9150611b3d82611afe565b602082019050919050565b5f6020820190508181035f830152611b5f81611b26565b905091905056fea2646970667358221220efd8835d483ac02c7e272ddd2431aec46d5e3546170732c34189b69fc251336c64736f6c634300081a0033",
					"opcodes": "PUSH1 0xC0 PUSH1 0x40 MSTORE CALLVALUE DUP1 ISZERO PUSH2 0xF JUMPI PUSH0 DUP1 REVERT JUMPDEST POP PUSH1 0x40 MLOAD PUSH2 0x1EA2 CODESIZE SUB DUP1 PUSH2 0x1EA2 DUP4 CODECOPY DUP2 DUP2 ADD PUSH1 0x40 MSTORE DUP2 ADD SWAP1 PUSH2 0x31 SWAP2 SWAP1 PUSH2 0x24A JUMP JUMPDEST DUP1 PUSH1 0x1 PUSH0 DUP2 SWAP1 SSTORE POP PUSH0 PUSH20 0xFFFFFFFFFFFFFFFFFFFFFFFFFFFFFFFFFFFFFFFF AND DUP2 PUSH20 0xFFFFFFFFFFFFFFFFFFFFFFFFFFFFFFFFFFFFFFFF AND SUB PUSH2 0xA9 JUMPI PUSH0 PUSH1 0x40 MLOAD PUSH32 0x1E4FBDF700000000000000000000000000000000000000000000000000000000 DUP2 MSTORE PUSH1 0x4 ADD PUSH2 0xA0 SWAP2 SWAP1 PUSH2 0x2A9 JUMP JUMPDEST PUSH1 0x40 MLOAD DUP1 SWAP2 SUB SWAP1 REVERT JUMPDEST PUSH2 0xB8 DUP2 PUSH2 0x129 PUSH1 0x20 SHL PUSH1 0x20 SHR JUMP JUMPDEST POP DUP3 PUSH20 0xFFFFFFFFFFFFFFFFFFFFFFFFFFFFFFFFFFFFFFFF AND PUSH1 0x80 DUP2 PUSH20 0xFFFFFFFFFFFFFFFFFFFFFFFFFFFFFFFFFFFFFFFF AND DUP2 MSTORE POP POP DUP2 PUSH20 0xFFFFFFFFFFFFFFFFFFFFFFFFFFFFFFFFFFFFFFFF AND PUSH1 0xA0 DUP2 PUSH20 0xFFFFFFFFFFFFFFFFFFFFFFFFFFFFFFFFFFFFFFFF AND DUP2 MSTORE POP POP POP POP POP PUSH2 0x2C2 JUMP JUMPDEST PUSH0 PUSH1 0x1 PUSH0 SWAP1 SLOAD SWAP1 PUSH2 0x100 EXP SWAP1 DIV PUSH20 0xFFFFFFFFFFFFFFFFFFFFFFFFFFFFFFFFFFFFFFFF AND SWAP1 POP DUP2 PUSH1 0x1 PUSH0 PUSH2 0x100 EXP DUP2 SLOAD DUP2 PUSH20 0xFFFFFFFFFFFFFFFFFFFFFFFFFFFFFFFFFFFFFFFF MUL NOT AND SWAP1 DUP4 PUSH20 0xFFFFFFFFFFFFFFFFFFFFFFFFFFFFFFFFFFFFFFFF AND MUL OR SWAP1 SSTORE POP DUP2 PUSH20 0xFFFFFFFFFFFFFFFFFFFFFFFFFFFFFFFFFFFFFFFF AND DUP2 PUSH20 0xFFFFFFFFFFFFFFFFFFFFFFFFFFFFFFFFFFFFFFFF AND PUSH32 0x8BE0079C531659141344CD1FD0A4F28419497F9722A3DAAFE3B4186F6B6457E0 PUSH1 0x40 MLOAD PUSH1 0x40 MLOAD DUP1 SWAP2 SUB SWAP1 LOG3 POP POP JUMP JUMPDEST PUSH0 DUP1 REVERT JUMPDEST PUSH0 PUSH20 0xFFFFFFFFFFFFFFFFFFFFFFFFFFFFFFFFFFFFFFFF DUP3 AND SWAP1 POP SWAP2 SWAP1 POP JUMP JUMPDEST PUSH0 PUSH2 0x219 DUP3 PUSH2 0x1F0 JUMP JUMPDEST SWAP1 POP SWAP2 SWAP1 POP JUMP JUMPDEST PUSH2 0x229 DUP2 PUSH2 0x20F JUMP JUMPDEST DUP2 EQ PUSH2 0x233 JUMPI PUSH0 DUP1 REVERT JUMPDEST POP JUMP JUMPDEST PUSH0 DUP2 MLOAD SWAP1 POP PUSH2 0x244 DUP2 PUSH2 0x220 JUMP JUMPDEST SWAP3 SWAP2 POP POP JUMP JUMPDEST PUSH0 DUP1 PUSH0 PUSH1 0x60 DUP5 DUP7 SUB SLT ISZERO PUSH2 0x261 JUMPI PUSH2 0x260 PUSH2 0x1EC JUMP JUMPDEST JUMPDEST PUSH0 PUSH2 0x26E DUP7 DUP3 DUP8 ADD PUSH2 0x236 JUMP JUMPDEST SWAP4 POP POP PUSH1 0x20 PUSH2 0x27F DUP7 DUP3 DUP8 ADD PUSH2 0x236 JUMP JUMPDEST SWAP3 POP POP PUSH1 0x40 PUSH2 0x290 DUP7 DUP3 DUP8 ADD PUSH2 0x236 JUMP JUMPDEST SWAP2 POP POP SWAP3 POP SWAP3 POP SWAP3 JUMP JUMPDEST PUSH2 0x2A3 DUP2 PUSH2 0x20F JUMP JUMPDEST DUP3 MSTORE POP POP JUMP JUMPDEST PUSH0 PUSH1 0x20 DUP3 ADD SWAP1 POP PUSH2 0x2BC PUSH0 DUP4 ADD DUP5 PUSH2 0x29A JUMP JUMPDEST SWAP3 SWAP2 POP POP JUMP JUMPDEST PUSH1 0x80 MLOAD PUSH1 0xA0 MLOAD PUSH2 0x1B9C PUSH2 0x306 PUSH0 CODECOPY PUSH0 DUP2 DUP2 PUSH2 0x58A ADD MSTORE DUP2 DUP2 PUSH2 0x952 ADD MSTORE PUSH2 0xE59 ADD MSTORE PUSH0 DUP2 DUP2 PUSH2 0x29C ADD MSTORE DUP2 DUP2 PUSH2 0x3B2 ADD MSTORE DUP2 DUP2 PUSH2 0xA22 ADD MSTORE PUSH2 0xF3D ADD MSTORE PUSH2 0x1B9C PUSH0 RETURN INVALID PUSH1 0x80 PUSH1 0x40 MSTORE CALLVALUE DUP1 ISZERO PUSH2 0xF JUMPI PUSH0 DUP1 REVERT JUMPDEST POP PUSH1 0x4 CALLDATASIZE LT PUSH2 0xCD JUMPI PUSH0 CALLDATALOAD PUSH1 0xE0 SHR DUP1 PUSH4 0x8DA5CB5B GT PUSH2 0x8A JUMPI DUP1 PUSH4 0xBD84477D GT PUSH2 0x64 JUMPI DUP1 PUSH4 0xBD84477D EQ PUSH2 0x1DA JUMPI DUP1 PUSH4 0xC3453153 EQ PUSH2 0x20B JUMPI DUP1 PUSH4 0xDB006A75 EQ PUSH2 0x23C JUMPI DUP1 PUSH4 0xF2FDE38B EQ PUSH2 0x258 JUMPI PUSH2 0xCD JUMP JUMPDEST DUP1 PUSH4 0x8DA5CB5B EQ PUSH2 0x182 JUMPI DUP1 PUSH4 0x93DEA9E6 EQ PUSH2 0x1A0 JUMPI DUP1 PUSH4 0xA694FC3A EQ PUSH2 0x1BE JUMPI PUSH2 0xCD JUMP JUMPDEST DUP1 PUSH4 0x16934FC4 EQ PUSH2 0xD1 JUMPI DUP1 PUSH4 0x2370B07B EQ PUSH2 0x103 JUMPI DUP1 PUSH4 0x2E17DE78 EQ PUSH2 0x121 JUMPI DUP1 PUSH4 0x372500AB EQ PUSH2 0x13D JUMPI DUP1 PUSH4 0x619CFC35 EQ PUSH2 0x147 JUMPI DUP1 PUSH4 0x715018A6 EQ PUSH2 0x178 JUMPI JUMPDEST PUSH0 DUP1 REVERT JUMPDEST PUSH2 0xEB PUSH1 0x4 DUP1 CALLDATASIZE SUB DUP2 ADD SWAP1 PUSH2 0xE6 SWAP2 SWAP1 PUSH2 0x13CE JUMP JUMPDEST PUSH2 0x274 JUMP JUMPDEST PUSH1 0x40 MLOAD PUSH2 0xFA SWAP4 SWAP3 SWAP2 SWAP1 PUSH2 0x1411 JUMP JUMPDEST PUSH1 0x40 MLOAD DUP1 SWAP2 SUB SWAP1 RETURN JUMPDEST PUSH2 0x10B PUSH2 0x29A JUMP JUMPDEST PUSH1 0x40 MLOAD PUSH2 0x118 SWAP2 SWAP1 PUSH2 0x14A1 JUMP JUMPDEST PUSH1 0x40 MLOAD DUP1 SWAP2 SUB SWAP1 RETURN JUMPDEST PUSH2 0x13B PUSH1 0x4 DUP1 CALLDATASIZE SUB DUP2 ADD SWAP1 PUSH2 0x136 SWAP2 SWAP1 PUSH2 0x14E4 JUMP JUMPDEST PUSH2 0x2BE JUMP JUMPDEST STOP JUMPDEST PUSH2 0x145 PUSH2 0x4E4 JUMP JUMPDEST STOP JUMPDEST PUSH2 0x161 PUSH1 0x4 DUP1 CALLDATASIZE SUB DUP2 ADD SWAP1 PUSH2 0x15C SWAP2 SWAP1 PUSH2 0x13CE JUMP JUMPDEST PUSH2 0x795 JUMP JUMPDEST PUSH1 0x40 MLOAD PUSH2 0x16F SWAP3 SWAP2 SWAP1 PUSH2 0x150F JUMP JUMPDEST PUSH1 0x40 MLOAD DUP1 SWAP2 SUB SWAP1 RETURN JUMPDEST PUSH2 0x180 PUSH2 0x915 JUMP JUMPDEST STOP JUMPDEST PUSH2 0x18A PUSH2 0x928 JUMP JUMPDEST PUSH1 0x40 MLOAD PUSH2 0x197 SWAP2 SWAP1 PUSH2 0x1545 JUMP JUMPDEST PUSH1 0x40 MLOAD DUP1 SWAP2 SUB SWAP1 RETURN JUMPDEST PUSH2 0x1A8 PUSH2 0x950 JUMP JUMPDEST PUSH1 0x40 MLOAD PUSH2 0x1B5 SWAP2 SWAP1 PUSH2 0x14A1 JUMP JUMPDEST PUSH1 0x40 MLOAD DUP1 SWAP2 SUB SWAP1 RETURN JUMPDEST PUSH2 0x1D8 PUSH1 0x4 DUP1 CALLDATASIZE SUB DUP2 ADD SWAP1 PUSH2 0x1D3 SWAP2 SWAP1 PUSH2 0x14E4 JUMP JUMPDEST PUSH2 0x974 JUMP JUMPDEST STOP JUMPDEST PUSH2 0x1F4 PUSH1 0x4 DUP1 CALLDATASIZE SUB DUP2 ADD SWAP1 PUSH2 0x1EF SWAP2 SWAP1 PUSH2 0x155E JUMP JUMPDEST PUSH2 0xB56 JUMP JUMPDEST PUSH1 0x40 MLOAD PUSH2 0x202 SWAP3 SWAP2 SWAP1 PUSH2 0x150F JUMP JUMPDEST PUSH1 0x40 MLOAD DUP1 SWAP2 SUB SWAP1 RETURN JUMPDEST PUSH2 0x225 PUSH1 0x4 DUP1 CALLDATASIZE SUB DUP2 ADD SWAP1 PUSH2 0x220 SWAP2 SWAP1 PUSH2 0x13CE JUMP JUMPDEST PUSH2 0xB90 JUMP JUMPDEST PUSH1 0x40 MLOAD PUSH2 0x233 SWAP3 SWAP2 SWAP1 PUSH2 0x150F JUMP JUMPDEST PUSH1 0x40 MLOAD DUP1 SWAP2 SUB SWAP1 RETURN JUMPDEST PUSH2 0x256 PUSH1 0x4 DUP1 CALLDATASIZE SUB DUP2 ADD SWAP1 PUSH2 0x251 SWAP2 SWAP1 PUSH2 0x14E4 JUMP JUMPDEST PUSH2 0xC82 JUMP JUMPDEST STOP JUMPDEST PUSH2 0x272 PUSH1 0x4 DUP1 CALLDATASIZE SUB DUP2 ADD SWAP1 PUSH2 0x26D SWAP2 SWAP1 PUSH2 0x13CE JUMP JUMPDEST PUSH2 0x1077 JUMP JUMPDEST STOP JUMPDEST PUSH1 0x2 PUSH1 0x20 MSTORE DUP1 PUSH0 MSTORE PUSH1 0x40 PUSH0 KECCAK256 PUSH0 SWAP2 POP SWAP1 POP DUP1 PUSH0 ADD SLOAD SWAP1 DUP1 PUSH1 0x1 ADD SLOAD SWAP1 DUP1 PUSH1 0x2 ADD SLOAD SWAP1 POP DUP4 JUMP JUMPDEST PUSH32 0x0 DUP2 JUMP JUMPDEST PUSH2 0x2C6 PUSH2 0x10FB JUMP JUMPDEST PUSH0 DUP2 GT PUSH2 0x308 JUMPI PUSH1 0x40 MLOAD PUSH32 0x8C379A000000000000000000000000000000000000000000000000000000000 DUP2 MSTORE PUSH1 0x4 ADD PUSH2 0x2FF SWAP1 PUSH2 0x15F6 JUMP JUMPDEST PUSH1 0x40 MLOAD DUP1 SWAP2 SUB SWAP1 REVERT JUMPDEST PUSH0 PUSH1 0x2 PUSH0 CALLER PUSH20 0xFFFFFFFFFFFFFFFFFFFFFFFFFFFFFFFFFFFFFFFF AND PUSH20 0xFFFFFFFFFFFFFFFFFFFFFFFFFFFFFFFFFFFFFFFF AND DUP2 MSTORE PUSH1 0x20 ADD SWAP1 DUP2 MSTORE PUSH1 0x20 ADD PUSH0 KECCAK256 SWAP1 POP DUP2 DUP2 PUSH0 ADD SLOAD LT ISZERO PUSH2 0x38E JUMPI PUSH1 0x40 MLOAD PUSH32 0x8C379A000000000000000000000000000000000000000000000000000000000 DUP2 MSTORE PUSH1 0x4 ADD PUSH2 0x385 SWAP1 PUSH2 0x165E JUMP JUMPDEST PUSH1 0x40 MLOAD DUP1 SWAP2 SUB SWAP1 REVERT JUMPDEST PUSH2 0x397 CALLER PUSH2 0x1148 JUMP JUMPDEST DUP2 DUP2 PUSH0 ADD PUSH0 DUP3 DUP3 SLOAD PUSH2 0x3A9 SWAP2 SWAP1 PUSH2 0x16A9 JUMP JUMPDEST SWAP3 POP POP DUP2 SWAP1 SSTORE POP PUSH32 0x0 PUSH20 0xFFFFFFFFFFFFFFFFFFFFFFFFFFFFFFFFFFFFFFFF AND PUSH4 0xA9059CBB CALLER DUP5 PUSH1 0x40 MLOAD DUP4 PUSH4 0xFFFFFFFF AND PUSH1 0xE0 SHL DUP2 MSTORE PUSH1 0x4 ADD PUSH2 0x40B SWAP3 SWAP2 SWAP1 PUSH2 0x16DC JUMP JUMPDEST PUSH1 0x20 PUSH1 0x40 MLOAD DUP1 DUP4 SUB DUP2 PUSH0 DUP8 GAS CALL ISZERO DUP1 ISZERO PUSH2 0x427 JUMPI RETURNDATASIZE PUSH0 DUP1 RETURNDATACOPY RETURNDATASIZE PUSH0 REVERT JUMPDEST POP POP POP POP PUSH1 0x40 MLOAD RETURNDATASIZE PUSH1 0x1F NOT PUSH1 0x1F DUP3 ADD AND DUP3 ADD DUP1 PUSH1 0x40 MSTORE POP DUP2 ADD SWAP1 PUSH2 0x44B SWAP2 SWAP1 PUSH2 0x1738 JUMP JUMPDEST PUSH2 0x48A JUMPI PUSH1 0x40 MLOAD PUSH32 0x8C379A000000000000000000000000000000000000000000000000000000000 DUP2 MSTORE PUSH1 0x4 ADD PUSH2 0x481 SWAP1 PUSH2 0x17AD JUMP JUMPDEST PUSH1 0x40 MLOAD DUP1 SWAP2 SUB SWAP1 REVERT JUMPDEST CALLER PUSH20 0xFFFFFFFFFFFFFFFFFFFFFFFFFFFFFFFFFFFFFFFF AND PUSH32 0xF5BB82176FEB1B5E747E28471AA92156A04D9F3AB9F45F28E2D704232B93F75 DUP4 PUSH1 0x40 MLOAD PUSH2 0x4D0 SWAP2 SWAP1 PUSH2 0x17CB JUMP JUMPDEST PUSH1 0x40 MLOAD DUP1 SWAP2 SUB SWAP1 LOG2 POP PUSH2 0x4E1 PUSH2 0x1216 JUMP JUMPDEST POP JUMP JUMPDEST PUSH2 0x4EC PUSH2 0x10FB JUMP JUMPDEST PUSH2 0x4F5 CALLER PUSH2 0x1148 JUMP JUMPDEST PUSH0 PUSH1 0x2 PUSH0 CALLER PUSH20 0xFFFFFFFFFFFFFFFFFFFFFFFFFFFFFFFFFFFFFFFF AND PUSH20 0xFFFFFFFFFFFFFFFFFFFFFFFFFFFFFFFFFFFFFFFF AND DUP2 MSTORE PUSH1 0x20 ADD SWAP1 DUP2 MSTORE PUSH1 0x20 ADD PUSH0 KECCAK256 SWAP1 POP PUSH0 DUP2 PUSH1 0x2 ADD SLOAD SWAP1 POP PUSH0 DUP2 GT PUSH2 0x57F JUMPI PUSH1 0x40 MLOAD PUSH32 0x8C379A000000000000000000000000000000000000000000000000000000000 DUP2 MSTORE PUSH1 0x4 ADD PUSH2 0x576 SWAP1 PUSH2 0x182E JUMP JUMPDEST PUSH1 0x40 MLOAD DUP1 SWAP2 SUB SWAP1 REVERT JUMPDEST PUSH0 DUP3 PUSH1 0x2 ADD DUP2 SWAP1 SSTORE POP PUSH32 0x0 PUSH20 0xFFFFFFFFFFFFFFFFFFFFFFFFFFFFFFFFFFFFFFFF AND PUSH4 0xA9059CBB CALLER DUP4 PUSH1 0x40 MLOAD DUP4 PUSH4 0xFFFFFFFF AND PUSH1 0xE0 SHL DUP2 MSTORE PUSH1 0x4 ADD PUSH2 0x5E3 SWAP3 SWAP2 SWAP1 PUSH2 0x16DC JUMP JUMPDEST PUSH1 0x20 PUSH1 0x40 MLOAD DUP1 DUP4 SUB DUP2 PUSH0 DUP8 GAS CALL ISZERO DUP1 ISZERO PUSH2 0x5FF JUMPI RETURNDATASIZE PUSH0 DUP1 RETURNDATACOPY RETURNDATASIZE PUSH0 REVERT JUMPDEST POP POP POP POP PUSH1 0x40 MLOAD RETURNDATASIZE PUSH1 0x1F NOT PUSH1 0x1F DUP3 ADD AND DUP3 ADD DUP1 PUSH1 0x40 MSTORE POP DUP2 ADD SWAP1 PUSH2 0x623 SWAP2 SWAP1 PUSH2 0x1738 JUMP JUMPDEST PUSH2 0x662 JUMPI PUSH1 0x40 MLOAD PUSH32 0x8C379A000000000000000000000000000000000000000000000000000000000 DUP2 MSTORE PUSH1 0x4 ADD PUSH2 0x659 SWAP1 PUSH2 0x17AD JUMP JUMPDEST PUSH1 0x40 MLOAD DUP1 SWAP2 SUB SWAP1 REVERT JUMPDEST PUSH1 0x3 PUSH0 CALLER PUSH20 0xFFFFFFFFFFFFFFFFFFFFFFFFFFFFFFFFFFFFFFFF AND PUSH20 0xFFFFFFFFFFFFFFFFFFFFFFFFFFFFFFFFFFFFFFFF AND DUP2 MSTORE PUSH1 0x20 ADD SWAP1 DUP2 MSTORE PUSH1 0x20 ADD PUSH0 KECCAK256 PUSH1 0x40 MLOAD DUP1 PUSH1 0x40 ADD PUSH1 0x40 MSTORE DUP1 DUP4 DUP2 MSTORE PUSH1 0x20 ADD TIMESTAMP DUP2 MSTORE POP SWAP1 DUP1 PUSH1 0x1 DUP2 SLOAD ADD DUP1 DUP3 SSTORE DUP1 SWAP2 POP POP PUSH1 0x1 SWAP1 SUB SWAP1 PUSH0 MSTORE PUSH1 0x20 PUSH0 KECCAK256 SWAP1 PUSH1 0x2 MUL ADD PUSH0 SWAP1 SWAP2 SWAP1 SWAP2 SWAP1 SWAP2 POP PUSH0 DUP3 ADD MLOAD DUP2 PUSH0 ADD SSTORE PUSH1 0x20 DUP3 ADD MLOAD DUP2 PUSH1 0x1 ADD SSTORE POP POP CALLER PUSH20 0xFFFFFFFFFFFFFFFFFFFFFFFFFFFFFFFFFFFFFFFF AND PUSH32 0xFC30CDDEA38E2BF4D6EA7D3F9ED3B6AD7F176419F4963BD81318067A4AEE73FE DUP3 PUSH1 0x40 MLOAD PUSH2 0x734 SWAP2 SWAP1 PUSH2 0x17CB JUMP JUMPDEST PUSH1 0x40 MLOAD DUP1 SWAP2 SUB SWAP1 LOG2 CALLER PUSH20 0xFFFFFFFFFFFFFFFFFFFFFFFFFFFFFFFFFFFFFFFF AND PUSH31 0xD5958799B183A7B738D3AD5E711305293DD5076A37A4E3B7E6611DEA6114F3 DUP3 PUSH1 0x40 MLOAD PUSH2 0x781 SWAP2 SWAP1 PUSH2 0x17CB JUMP JUMPDEST PUSH1 0x40 MLOAD DUP1 SWAP2 SUB SWAP1 LOG2 POP POP PUSH2 0x793 PUSH2 0x1216 JUMP JUMPDEST JUMP JUMPDEST PUSH0 DUP1 PUSH0 PUSH1 0x3 PUSH0 DUP6 PUSH20 0xFFFFFFFFFFFFFFFFFFFFFFFFFFFFFFFFFFFFFFFF AND PUSH20 0xFFFFFFFFFFFFFFFFFFFFFFFFFFFFFFFFFFFFFFFF AND DUP2 MSTORE PUSH1 0x20 ADD SWAP1 DUP2 MSTORE PUSH1 0x20 ADD PUSH0 KECCAK256 SWAP1 POP PUSH0 TIMESTAMP SWAP1 POP PUSH0 JUMPDEST DUP3 DUP1 SLOAD SWAP1 POP DUP2 LT ISZERO PUSH2 0x90D JUMPI PUSH0 DUP4 DUP3 DUP2 SLOAD DUP2 LT PUSH2 0x7FD JUMPI PUSH2 0x7FC PUSH2 0x184C JUMP JUMPDEST JUMPDEST SWAP1 PUSH0 MSTORE PUSH1 0x20 PUSH0 KECCAK256 SWAP1 PUSH1 0x2 MUL ADD PUSH0 ADD SLOAD GT ISZERO PUSH2 0x900 JUMPI DUP3 DUP2 DUP2 SLOAD DUP2 LT PUSH2 0x825 JUMPI PUSH2 0x824 PUSH2 0x184C JUMP JUMPDEST JUMPDEST SWAP1 PUSH0 MSTORE PUSH1 0x20 PUSH0 KECCAK256 SWAP1 PUSH1 0x2 MUL ADD PUSH0 ADD SLOAD DUP5 PUSH2 0x83F SWAP2 SWAP1 PUSH2 0x1879 JUMP JUMPDEST SWAP4 POP PUSH0 DUP4 DUP3 DUP2 SLOAD DUP2 LT PUSH2 0x855 JUMPI PUSH2 0x854 PUSH2 0x184C JUMP JUMPDEST JUMPDEST SWAP1 PUSH0 MSTORE PUSH1 0x20 PUSH0 KECCAK256 SWAP1 PUSH1 0x2 MUL ADD PUSH1 0x1 ADD SLOAD DUP4 PUSH2 0x870 SWAP2 SWAP1 PUSH2 0x16A9 JUMP JUMPDEST SWAP1 POP PUSH3 0x278D00 DUP2 LT PUSH2 0x8B0 JUMPI DUP4 DUP3 DUP2 SLOAD DUP2 LT PUSH2 0x88F JUMPI PUSH2 0x88E PUSH2 0x184C JUMP JUMPDEST JUMPDEST SWAP1 PUSH0 MSTORE PUSH1 0x20 PUSH0 KECCAK256 SWAP1 PUSH1 0x2 MUL ADD PUSH0 ADD SLOAD DUP7 PUSH2 0x8A9 SWAP2 SWAP1 PUSH2 0x1879 JUMP JUMPDEST SWAP6 POP PUSH2 0x8FE JUMP JUMPDEST PUSH0 PUSH3 0x278D00 DUP3 DUP7 DUP6 DUP2 SLOAD DUP2 LT PUSH2 0x8C9 JUMPI PUSH2 0x8C8 PUSH2 0x184C JUMP JUMPDEST JUMPDEST SWAP1 PUSH0 MSTORE PUSH1 0x20 PUSH0 KECCAK256 SWAP1 PUSH1 0x2 MUL ADD PUSH0 ADD SLOAD PUSH2 0x8E2 SWAP2 SWAP1 PUSH2 0x18AC JUMP JUMPDEST PUSH2 0x8EC SWAP2 SWAP1 PUSH2 0x191A JUMP JUMPDEST SWAP1 POP DUP1 DUP8 PUSH2 0x8FA SWAP2 SWAP1 PUSH2 0x1879 JUMP JUMPDEST SWAP7 POP POP JUMPDEST POP JUMPDEST DUP1 DUP1 PUSH1 0x1 ADD SWAP2 POP POP PUSH2 0x7DD JUMP JUMPDEST POP POP POP SWAP2 POP SWAP2 JUMP JUMPDEST PUSH2 0x91D PUSH2 0x121F JUMP JUMPDEST PUSH2 0x926 PUSH0 PUSH2 0x12A6 JUMP JUMPDEST JUMP JUMPDEST PUSH0 PUSH1 0x1 PUSH0 SWAP1 SLOAD SWAP1 PUSH2 0x100 EXP SWAP1 DIV PUSH20 0xFFFFFFFFFFFFFFFFFFFFFFFFFFFFFFFFFFFFFFFF AND SWAP1 POP SWAP1 JUMP JUMPDEST PUSH32 0x0 DUP2 JUMP JUMPDEST PUSH2 0x97C PUSH2 0x10FB JUMP JUMPDEST PUSH0 DUP2 GT PUSH2 0x9BE JUMPI PUSH1 0x40 MLOAD PUSH32 0x8C379A000000000000000000000000000000000000000000000000000000000 DUP2 MSTORE PUSH1 0x4 ADD PUSH2 0x9B5 SWAP1 PUSH2 0x15F6 JUMP JUMPDEST PUSH1 0x40 MLOAD DUP1 SWAP2 SUB SWAP1 REVERT JUMPDEST PUSH2 0x9C7 CALLER PUSH2 0x1148 JUMP JUMPDEST PUSH0 PUSH1 0x2 PUSH0 CALLER PUSH20 0xFFFFFFFFFFFFFFFFFFFFFFFFFFFFFFFFFFFFFFFF AND PUSH20 0xFFFFFFFFFFFFFFFFFFFFFFFFFFFFFFFFFFFFFFFF AND DUP2 MSTORE PUSH1 0x20 ADD SWAP1 DUP2 MSTORE PUSH1 0x20 ADD PUSH0 KECCAK256 SWAP1 POP DUP2 DUP2 PUSH0 ADD PUSH0 DUP3 DUP3 SLOAD PUSH2 0xA19 SWAP2 SWAP1 PUSH2 0x1879 JUMP JUMPDEST SWAP3 POP POP DUP2 SWAP1 SSTORE POP PUSH32 0x0 PUSH20 0xFFFFFFFFFFFFFFFFFFFFFFFFFFFFFFFFFFFFFFFF AND PUSH4 0x23B872DD CALLER ADDRESS DUP6 PUSH1 0x40 MLOAD DUP5 PUSH4 0xFFFFFFFF AND PUSH1 0xE0 SHL DUP2 MSTORE PUSH1 0x4 ADD PUSH2 0xA7D SWAP4 SWAP3 SWAP2 SWAP1 PUSH2 0x194A JUMP JUMPDEST PUSH1 0x20 PUSH1 0x40 MLOAD DUP1 DUP4 SUB DUP2 PUSH0 DUP8 GAS CALL ISZERO DUP1 ISZERO PUSH2 0xA99 JUMPI RETURNDATASIZE PUSH0 DUP1 RETURNDATACOPY RETURNDATASIZE PUSH0 REVERT JUMPDEST POP POP POP POP PUSH1 0x40 MLOAD RETURNDATASIZE PUSH1 0x1F NOT PUSH1 0x1F DUP3 ADD AND DUP3 ADD DUP1 PUSH1 0x40 MSTORE POP DUP2 ADD SWAP1 PUSH2 0xABD SWAP2 SWAP1 PUSH2 0x1738 JUMP JUMPDEST PUSH2 0xAFC JUMPI PUSH1 0x40 MLOAD PUSH32 0x8C379A000000000000000000000000000000000000000000000000000000000 DUP2 MSTORE PUSH1 0x4 ADD PUSH2 0xAF3 SWAP1 PUSH2 0x17AD JUMP JUMPDEST PUSH1 0x40 MLOAD DUP1 SWAP2 SUB SWAP1 REVERT JUMPDEST CALLER PUSH20 0xFFFFFFFFFFFFFFFFFFFFFFFFFFFFFFFFFFFFFFFF AND PUSH32 0x9E71BC8EEA02A63969F509818F2DAFB9254532904319F9DBDA79B67BD34A5F3D DUP4 PUSH1 0x40 MLOAD PUSH2 0xB42 SWAP2 SWAP1 PUSH2 0x17CB JUMP JUMPDEST PUSH1 0x40 MLOAD DUP1 SWAP2 SUB SWAP1 LOG2 POP PUSH2 0xB53 PUSH2 0x1216 JUMP JUMPDEST POP JUMP JUMPDEST PUSH1 0x3 PUSH1 0x20 MSTORE DUP2 PUSH0 MSTORE PUSH1 0x40 PUSH0 KECCAK256 DUP2 DUP2 SLOAD DUP2 LT PUSH2 0xB6F JUMPI PUSH0 DUP1 REVERT JUMPDEST SWAP1 PUSH0 MSTORE PUSH1 0x20 PUSH0 KECCAK256 SWAP1 PUSH1 0x2 MUL ADD PUSH0 SWAP2 POP SWAP2 POP POP DUP1 PUSH0 ADD SLOAD SWAP1 DUP1 PUSH1 0x1 ADD SLOAD SWAP1 POP DUP3 JUMP JUMPDEST PUSH0 DUP1 PUSH0 PUSH1 0x2 PUSH0 DUP6 PUSH20 0xFFFFFFFFFFFFFFFFFFFFFFFFFFFFFFFFFFFFFFFF AND PUSH20 0xFFFFFFFFFFFFFFFFFFFFFFFFFFFFFFFFFFFFFFFF AND DUP2 MSTORE PUSH1 0x20 ADD SWAP1 DUP2 MSTORE PUSH1 0x20 ADD PUSH0 KECCAK256 PUSH1 0x40 MLOAD DUP1 PUSH1 0x60 ADD PUSH1 0x40 MSTORE SWAP1 DUP2 PUSH0 DUP3 ADD SLOAD DUP2 MSTORE PUSH1 0x20 ADD PUSH1 0x1 DUP3 ADD SLOAD DUP2 MSTORE PUSH1 0x20 ADD PUSH1 0x2 DUP3 ADD SLOAD DUP2 MSTORE POP POP SWAP1 POP PUSH0 DUP2 PUSH1 0x40 ADD MLOAD SWAP1 POP PUSH0 DUP3 PUSH0 ADD MLOAD GT ISZERO PUSH2 0xC72 JUMPI PUSH0 DUP3 PUSH1 0x20 ADD MLOAD TIMESTAMP PUSH2 0xC1E SWAP2 SWAP1 PUSH2 0x16A9 JUMP JUMPDEST SWAP1 POP PUSH8 0xDE0B6B3A7640000 PUSH3 0x15180 PUSH8 0xDE0B6B3A7640000 DUP4 DUP7 PUSH0 ADD MLOAD PUSH2 0xC45 SWAP2 SWAP1 PUSH2 0x18AC JUMP JUMPDEST PUSH2 0xC4F SWAP2 SWAP1 PUSH2 0x18AC JUMP JUMPDEST PUSH2 0xC59 SWAP2 SWAP1 PUSH2 0x191A JUMP JUMPDEST PUSH2 0xC63 SWAP2 SWAP1 PUSH2 0x191A JUMP JUMPDEST DUP3 PUSH2 0xC6E SWAP2 SWAP1 PUSH2 0x1879 JUMP JUMPDEST SWAP2 POP POP JUMPDEST DUP2 PUSH0 ADD MLOAD DUP2 SWAP4 POP SWAP4 POP POP POP SWAP2 POP SWAP2 JUMP JUMPDEST PUSH2 0xC8A PUSH2 0x10FB JUMP JUMPDEST PUSH0 DUP1 PUSH2 0xC95 CALLER PUSH2 0x795 JUMP JUMPDEST SWAP2 POP SWAP2 POP DUP3 DUP2 LT ISZERO PUSH2 0xCDC JUMPI PUSH1 0x40 MLOAD PUSH32 0x8C379A000000000000000000000000000000000000000000000000000000000 DUP2 MSTORE PUSH1 0x4 ADD PUSH2 0xCD3 SWAP1 PUSH2 0x19C9 JUMP JUMPDEST PUSH1 0x40 MLOAD DUP1 SWAP2 SUB SWAP1 REVERT JUMPDEST PUSH0 DUP1 DUP4 DUP6 GT PUSH2 0xCED JUMPI DUP5 SWAP1 POP PUSH2 0xCFF JUMP JUMPDEST DUP4 SWAP1 POP DUP4 DUP6 PUSH2 0xCFC SWAP2 SWAP1 PUSH2 0x16A9 JUMP JUMPDEST SWAP2 POP JUMPDEST PUSH0 PUSH1 0x3 PUSH0 CALLER PUSH20 0xFFFFFFFFFFFFFFFFFFFFFFFFFFFFFFFFFFFFFFFF AND PUSH20 0xFFFFFFFFFFFFFFFFFFFFFFFFFFFFFFFFFFFFFFFF AND DUP2 MSTORE PUSH1 0x20 ADD SWAP1 DUP2 MSTORE PUSH1 0x20 ADD PUSH0 KECCAK256 SWAP1 POP PUSH0 DUP7 SWAP1 POP PUSH0 JUMPDEST DUP3 DUP1 SLOAD SWAP1 POP DUP2 LT DUP1 ISZERO PUSH2 0xD57 JUMPI POP PUSH0 DUP3 GT JUMPDEST ISZERO PUSH2 0xE56 JUMPI PUSH0 DUP4 DUP3 DUP2 SLOAD DUP2 LT PUSH2 0xD70 JUMPI PUSH2 0xD6F PUSH2 0x184C JUMP JUMPDEST JUMPDEST SWAP1 PUSH0 MSTORE PUSH1 0x20 PUSH0 KECCAK256 SWAP1 PUSH1 0x2 MUL ADD PUSH0 ADD SLOAD GT ISZERO PUSH2 0xE43 JUMPI DUP2 DUP4 DUP3 DUP2 SLOAD DUP2 LT PUSH2 0xD99 JUMPI PUSH2 0xD98 PUSH2 0x184C JUMP JUMPDEST JUMPDEST SWAP1 PUSH0 MSTORE PUSH1 0x20 PUSH0 KECCAK256 SWAP1 PUSH1 0x2 MUL ADD PUSH0 ADD SLOAD GT PUSH2 0xE07 JUMPI DUP3 DUP2 DUP2 SLOAD DUP2 LT PUSH2 0xDC0 JUMPI PUSH2 0xDBF PUSH2 0x184C JUMP JUMPDEST JUMPDEST SWAP1 PUSH0 MSTORE PUSH1 0x20 PUSH0 KECCAK256 SWAP1 PUSH1 0x2 MUL ADD PUSH0 ADD SLOAD DUP3 PUSH2 0xDDA SWAP2 SWAP1 PUSH2 0x16A9 JUMP JUMPDEST SWAP2 POP PUSH0 DUP4 DUP3 DUP2 SLOAD DUP2 LT PUSH2 0xDF0 JUMPI PUSH2 0xDEF PUSH2 0x184C JUMP JUMPDEST JUMPDEST SWAP1 PUSH0 MSTORE PUSH1 0x20 PUSH0 KECCAK256 SWAP1 PUSH1 0x2 MUL ADD PUSH0 ADD DUP2 SWAP1 SSTORE POP PUSH2 0xE42 JUMP JUMPDEST DUP2 DUP4 DUP3 DUP2 SLOAD DUP2 LT PUSH2 0xE1B JUMPI PUSH2 0xE1A PUSH2 0x184C JUMP JUMPDEST JUMPDEST SWAP1 PUSH0 MSTORE PUSH1 0x20 PUSH0 KECCAK256 SWAP1 PUSH1 0x2 MUL ADD PUSH0 ADD PUSH0 DUP3 DUP3 SLOAD PUSH2 0xE37 SWAP2 SWAP1 PUSH2 0x16A9 JUMP JUMPDEST SWAP3 POP POP DUP2 SWAP1 SSTORE POP PUSH0 SWAP2 POP JUMPDEST JUMPDEST DUP1 DUP1 PUSH2 0xE4E SWAP1 PUSH2 0x19E7 JUMP JUMPDEST SWAP2 POP POP PUSH2 0xD45 JUMP JUMPDEST POP PUSH32 0x0 PUSH20 0xFFFFFFFFFFFFFFFFFFFFFFFFFFFFFFFFFFFFFFFF AND PUSH4 0x23B872DD CALLER ADDRESS DUP11 PUSH1 0x40 MLOAD DUP5 PUSH4 0xFFFFFFFF AND PUSH1 0xE0 SHL DUP2 MSTORE PUSH1 0x4 ADD PUSH2 0xEB4 SWAP4 SWAP3 SWAP2 SWAP1 PUSH2 0x194A JUMP JUMPDEST PUSH1 0x20 PUSH1 0x40 MLOAD DUP1 DUP4 SUB DUP2 PUSH0 DUP8 GAS CALL ISZERO DUP1 ISZERO PUSH2 0xED0 JUMPI RETURNDATASIZE PUSH0 DUP1 RETURNDATACOPY RETURNDATASIZE PUSH0 REVERT JUMPDEST POP POP POP POP PUSH1 0x40 MLOAD RETURNDATASIZE PUSH1 0x1F NOT PUSH1 0x1F DUP3 ADD AND DUP3 ADD DUP1 PUSH1 0x40 MSTORE POP DUP2 ADD SWAP1 PUSH2 0xEF4 SWAP2 SWAP1 PUSH2 0x1738 JUMP JUMPDEST PUSH2 0xF33 JUMPI PUSH1 0x40 MLOAD PUSH32 0x8C379A000000000000000000000000000000000000000000000000000000000 DUP2 MSTORE PUSH1 0x4 ADD PUSH2 0xF2A SWAP1 PUSH2 0x1A78 JUMP JUMPDEST PUSH1 0x40 MLOAD DUP1 SWAP2 SUB SWAP1 REVERT JUMPDEST PUSH0 DUP4 GT ISZERO PUSH2 0x1016 JUMPI PUSH32 0x0 PUSH20 0xFFFFFFFFFFFFFFFFFFFFFFFFFFFFFFFFFFFFFFFF AND PUSH4 0xA9059CBB CALLER DUP6 PUSH1 0x40 MLOAD DUP4 PUSH4 0xFFFFFFFF AND PUSH1 0xE0 SHL DUP2 MSTORE PUSH1 0x4 ADD PUSH2 0xF96 SWAP3 SWAP2 SWAP1 PUSH2 0x16DC JUMP JUMPDEST PUSH1 0x20 PUSH1 0x40 MLOAD DUP1 DUP4 SUB DUP2 PUSH0 DUP8 GAS CALL ISZERO DUP1 ISZERO PUSH2 0xFB2 JUMPI RETURNDATASIZE PUSH0 DUP1 RETURNDATACOPY RETURNDATASIZE PUSH0 REVERT JUMPDEST POP POP POP POP PUSH1 0x40 MLOAD RETURNDATASIZE PUSH1 0x1F NOT PUSH1 0x1F DUP3 ADD AND DUP3 ADD DUP1 PUSH1 0x40 MSTORE POP DUP2 ADD SWAP1 PUSH2 0xFD6 SWAP2 SWAP1 PUSH2 0x1738 JUMP JUMPDEST PUSH2 0x1015 JUMPI PUSH1 0x40 MLOAD PUSH32 0x8C379A000000000000000000000000000000000000000000000000000000000 DUP2 MSTORE PUSH1 0x4 ADD PUSH2 0x100C SWAP1 PUSH2 0x1AE0 JUMP JUMPDEST PUSH1 0x40 MLOAD DUP1 SWAP2 SUB SWAP1 REVERT JUMPDEST JUMPDEST CALLER PUSH20 0xFFFFFFFFFFFFFFFFFFFFFFFFFFFFFFFFFFFFFFFF AND PUSH32 0xF3A670CD3AF7D64B488926880889D08A8585A138FF455227AF6737339A1EC262 DUP5 DUP7 PUSH1 0x40 MLOAD PUSH2 0x105E SWAP3 SWAP2 SWAP1 PUSH2 0x150F JUMP JUMPDEST PUSH1 0x40 MLOAD DUP1 SWAP2 SUB SWAP1 LOG2 POP POP POP POP POP POP PUSH2 0x1074 PUSH2 0x1216 JUMP JUMPDEST POP JUMP JUMPDEST PUSH2 0x107F PUSH2 0x121F JUMP JUMPDEST PUSH0 PUSH20 0xFFFFFFFFFFFFFFFFFFFFFFFFFFFFFFFFFFFFFFFF AND DUP2 PUSH20 0xFFFFFFFFFFFFFFFFFFFFFFFFFFFFFFFFFFFFFFFF AND SUB PUSH2 0x10EF JUMPI PUSH0 PUSH1 0x40 MLOAD PUSH32 0x1E4FBDF700000000000000000000000000000000000000000000000000000000 DUP2 MSTORE PUSH1 0x4 ADD PUSH2 0x10E6 SWAP2 SWAP1 PUSH2 0x1545 JUMP JUMPDEST PUSH1 0x40 MLOAD DUP1 SWAP2 SUB SWAP1 REVERT JUMPDEST PUSH2 0x10F8 DUP2 PUSH2 0x12A6 JUMP JUMPDEST POP JUMP JUMPDEST PUSH1 0x2 PUSH0 SLOAD SUB PUSH2 0x113F JUMPI PUSH1 0x40 MLOAD PUSH32 0x8C379A000000000000000000000000000000000000000000000000000000000 DUP2 MSTORE PUSH1 0x4 ADD PUSH2 0x1136 SWAP1 PUSH2 0x1B48 JUMP JUMPDEST PUSH1 0x40 MLOAD DUP1 SWAP2 SUB SWAP1 REVERT JUMPDEST PUSH1 0x2 PUSH0 DUP2 SWAP1 SSTORE POP JUMP JUMPDEST PUSH0 PUSH1 0x2 PUSH0 DUP4 PUSH20 0xFFFFFFFFFFFFFFFFFFFFFFFFFFFFFFFFFFFFFFFF AND PUSH20 0xFFFFFFFFFFFFFFFFFFFFFFFFFFFFFFFFFFFFFFFF AND DUP2 MSTORE PUSH1 0x20 ADD SWAP1 DUP2 MSTORE PUSH1 0x20 ADD PUSH0 KECCAK256 SWAP1 POP PUSH0 DUP2 PUSH0 ADD SLOAD GT ISZERO PUSH2 0x1209 JUMPI PUSH0 DUP2 PUSH1 0x1 ADD SLOAD TIMESTAMP PUSH2 0x11A4 SWAP2 SWAP1 PUSH2 0x16A9 JUMP JUMPDEST SWAP1 POP PUSH0 PUSH8 0xDE0B6B3A7640000 PUSH3 0x15180 PUSH8 0xDE0B6B3A7640000 DUP5 DUP7 PUSH0 ADD SLOAD PUSH2 0x11CC SWAP2 SWAP1 PUSH2 0x18AC JUMP JUMPDEST PUSH2 0x11D6 SWAP2 SWAP1 PUSH2 0x18AC JUMP JUMPDEST PUSH2 0x11E0 SWAP2 SWAP1 PUSH2 0x191A JUMP JUMPDEST PUSH2 0x11EA SWAP2 SWAP1 PUSH2 0x191A JUMP JUMPDEST SWAP1 POP DUP1 DUP4 PUSH1 0x2 ADD PUSH0 DUP3 DUP3 SLOAD PUSH2 0x11FF SWAP2 SWAP1 PUSH2 0x1879 JUMP JUMPDEST SWAP3 POP POP DUP2 SWAP1 SSTORE POP POP POP JUMPDEST TIMESTAMP DUP2 PUSH1 0x1 ADD DUP2 SWAP1 SSTORE POP POP POP JUMP JUMPDEST PUSH1 0x1 PUSH0 DUP2 SWAP1 SSTORE POP JUMP JUMPDEST PUSH2 0x1227 PUSH2 0x1369 JUMP JUMPDEST PUSH20 0xFFFFFFFFFFFFFFFFFFFFFFFFFFFFFFFFFFFFFFFF AND PUSH2 0x1245 PUSH2 0x928 JUMP JUMPDEST PUSH20 0xFFFFFFFFFFFFFFFFFFFFFFFFFFFFFFFFFFFFFFFF AND EQ PUSH2 0x12A4 JUMPI PUSH2 0x1268 PUSH2 0x1369 JUMP JUMPDEST PUSH1 0x40 MLOAD PUSH32 0x118CDAA700000000000000000000000000000000000000000000000000000000 DUP2 MSTORE PUSH1 0x4 ADD PUSH2 0x129B SWAP2 SWAP1 PUSH2 0x1545 JUMP JUMPDEST PUSH1 0x40 MLOAD DUP1 SWAP2 SUB SWAP1 REVERT JUMPDEST JUMP JUMPDEST PUSH0 PUSH1 0x1 PUSH0 SWAP1 SLOAD SWAP1 PUSH2 0x100 EXP SWAP1 DIV PUSH20 0xFFFFFFFFFFFFFFFFFFFFFFFFFFFFFFFFFFFFFFFF AND SWAP1 POP DUP2 PUSH1 0x1 PUSH0 PUSH2 0x100 EXP DUP2 SLOAD DUP2 PUSH20 0xFFFFFFFFFFFFFFFFFFFFFFFFFFFFFFFFFFFFFFFF MUL NOT AND SWAP1 DUP4 PUSH20 0xFFFFFFFFFFFFFFFFFFFFFFFFFFFFFFFFFFFFFFFF AND MUL OR SWAP1 SSTORE POP DUP2 PUSH20 0xFFFFFFFFFFFFFFFFFFFFFFFFFFFFFFFFFFFFFFFF AND DUP2 PUSH20 0xFFFFFFFFFFFFFFFFFFFFFFFFFFFFFFFFFFFFFFFF AND PUSH32 0x8BE0079C531659141344CD1FD0A4F28419497F9722A3DAAFE3B4186F6B6457E0 PUSH1 0x40 MLOAD PUSH1 0x40 MLOAD DUP1 SWAP2 SUB SWAP1 LOG3 POP POP JUMP JUMPDEST PUSH0 CALLER SWAP1 POP SWAP1 JUMP JUMPDEST PUSH0 DUP1 REVERT JUMPDEST PUSH0 PUSH20 0xFFFFFFFFFFFFFFFFFFFFFFFFFFFFFFFFFFFFFFFF DUP3 AND SWAP1 POP SWAP2 SWAP1 POP JUMP JUMPDEST PUSH0 PUSH2 0x139D DUP3 PUSH2 0x1374 JUMP JUMPDEST SWAP1 POP SWAP2 SWAP1 POP JUMP JUMPDEST PUSH2 0x13AD DUP2 PUSH2 0x1393 JUMP JUMPDEST DUP2 EQ PUSH2 0x13B7 JUMPI PUSH0 DUP1 REVERT JUMPDEST POP JUMP JUMPDEST PUSH0 DUP2 CALLDATALOAD SWAP1 POP PUSH2 0x13C8 DUP2 PUSH2 0x13A4 JUMP JUMPDEST SWAP3 SWAP2 POP POP JUMP JUMPDEST PUSH0 PUSH1 0x20 DUP3 DUP5 SUB SLT ISZERO PUSH2 0x13E3 JUMPI PUSH2 0x13E2 PUSH2 0x1370 JUMP JUMPDEST JUMPDEST PUSH0 PUSH2 0x13F0 DUP5 DUP3 DUP6 ADD PUSH2 0x13BA JUMP JUMPDEST SWAP2 POP POP SWAP3 SWAP2 POP POP JUMP JUMPDEST PUSH0 DUP2 SWAP1 POP SWAP2 SWAP1 POP JUMP JUMPDEST PUSH2 0x140B DUP2 PUSH2 0x13F9 JUMP JUMPDEST DUP3 MSTORE POP POP JUMP JUMPDEST PUSH0 PUSH1 0x60 DUP3 ADD SWAP1 POP PUSH2 0x1424 PUSH0 DUP4 ADD DUP7 PUSH2 0x1402 JUMP JUMPDEST PUSH2 0x1431 PUSH1 0x20 DUP4 ADD DUP6 PUSH2 0x1402 JUMP JUMPDEST PUSH2 0x143E PUSH1 0x40 DUP4 ADD DUP5 PUSH2 0x1402 JUMP JUMPDEST SWAP5 SWAP4 POP POP POP POP JUMP JUMPDEST PUSH0 DUP2 SWAP1 POP SWAP2 SWAP1 POP JUMP JUMPDEST PUSH0 PUSH2 0x1469 PUSH2 0x1464 PUSH2 0x145F DUP5 PUSH2 0x1374 JUMP JUMPDEST PUSH2 0x1446 JUMP JUMPDEST PUSH2 0x1374 JUMP JUMPDEST SWAP1 POP SWAP2 SWAP1 POP JUMP JUMPDEST PUSH0 PUSH2 0x147A DUP3 PUSH2 0x144F JUMP JUMPDEST SWAP1 POP SWAP2 SWAP1 POP JUMP JUMPDEST PUSH0 PUSH2 0x148B DUP3 PUSH2 0x1470 JUMP JUMPDEST SWAP1 POP SWAP2 SWAP1 POP JUMP JUMPDEST PUSH2 0x149B DUP2 PUSH2 0x1481 JUMP JUMPDEST DUP3 MSTORE POP POP JUMP JUMPDEST PUSH0 PUSH1 0x20 DUP3 ADD SWAP1 POP PUSH2 0x14B4 PUSH0 DUP4 ADD DUP5 PUSH2 0x1492 JUMP JUMPDEST SWAP3 SWAP2 POP POP JUMP JUMPDEST PUSH2 0x14C3 DUP2 PUSH2 0x13F9 JUMP JUMPDEST DUP2 EQ PUSH2 0x14CD JUMPI PUSH0 DUP1 REVERT JUMPDEST POP JUMP JUMPDEST PUSH0 DUP2 CALLDATALOAD SWAP1 POP PUSH2 0x14DE DUP2 PUSH2 0x14BA JUMP JUMPDEST SWAP3 SWAP2 POP POP JUMP JUMPDEST PUSH0 PUSH1 0x20 DUP3 DUP5 SUB SLT ISZERO PUSH2 0x14F9 JUMPI PUSH2 0x14F8 PUSH2 0x1370 JUMP JUMPDEST JUMPDEST PUSH0 PUSH2 0x1506 DUP5 DUP3 DUP6 ADD PUSH2 0x14D0 JUMP JUMPDEST SWAP2 POP POP SWAP3 SWAP2 POP POP JUMP JUMPDEST PUSH0 PUSH1 0x40 DUP3 ADD SWAP1 POP PUSH2 0x1522 PUSH0 DUP4 ADD DUP6 PUSH2 0x1402 JUMP JUMPDEST PUSH2 0x152F PUSH1 0x20 DUP4 ADD DUP5 PUSH2 0x1402 JUMP JUMPDEST SWAP4 SWAP3 POP POP POP JUMP JUMPDEST PUSH2 0x153F DUP2 PUSH2 0x1393 JUMP JUMPDEST DUP3 MSTORE POP POP JUMP JUMPDEST PUSH0 PUSH1 0x20 DUP3 ADD SWAP1 POP PUSH2 0x1558 PUSH0 DUP4 ADD DUP5 PUSH2 0x1536 JUMP JUMPDEST SWAP3 SWAP2 POP POP JUMP JUMPDEST PUSH0 DUP1 PUSH1 0x40 DUP4 DUP6 SUB SLT ISZERO PUSH2 0x1574 JUMPI PUSH2 0x1573 PUSH2 0x1370 JUMP JUMPDEST JUMPDEST PUSH0 PUSH2 0x1581 DUP6 DUP3 DUP7 ADD PUSH2 0x13BA JUMP JUMPDEST SWAP3 POP POP PUSH1 0x20 PUSH2 0x1592 DUP6 DUP3 DUP7 ADD PUSH2 0x14D0 JUMP JUMPDEST SWAP2 POP POP SWAP3 POP SWAP3 SWAP1 POP JUMP JUMPDEST PUSH0 DUP3 DUP3 MSTORE PUSH1 0x20 DUP3 ADD SWAP1 POP SWAP3 SWAP2 POP POP JUMP JUMPDEST PUSH32 0x416D6F756E74206D7573742062652067726561746572207468616E2030000000 PUSH0 DUP3 ADD MSTORE POP JUMP JUMPDEST PUSH0 PUSH2 0x15E0 PUSH1 0x1D DUP4 PUSH2 0x159C JUMP JUMPDEST SWAP2 POP PUSH2 0x15EB DUP3 PUSH2 0x15AC JUMP JUMPDEST PUSH1 0x20 DUP3 ADD SWAP1 POP SWAP2 SWAP1 POP JUMP JUMPDEST PUSH0 PUSH1 0x20 DUP3 ADD SWAP1 POP DUP2 DUP2 SUB PUSH0 DUP4 ADD MSTORE PUSH2 0x160D DUP2 PUSH2 0x15D4 JUMP JUMPDEST SWAP1 POP SWAP2 SWAP1 POP JUMP JUMPDEST PUSH32 0x496E73756666696369656E74207374616B656420616D6F756E74000000000000 PUSH0 DUP3 ADD MSTORE POP JUMP JUMPDEST PUSH0 PUSH2 0x1648 PUSH1 0x1A DUP4 PUSH2 0x159C JUMP JUMPDEST SWAP2 POP PUSH2 0x1653 DUP3 PUSH2 0x1614 JUMP JUMPDEST PUSH1 0x20 DUP3 ADD SWAP1 POP SWAP2 SWAP1 POP JUMP JUMPDEST PUSH0 PUSH1 0x20 DUP3 ADD SWAP1 POP DUP2 DUP2 SUB PUSH0 DUP4 ADD MSTORE PUSH2 0x1675 DUP2 PUSH2 0x163C JUMP JUMPDEST SWAP1 POP SWAP2 SWAP1 POP JUMP JUMPDEST PUSH32 0x4E487B7100000000000000000000000000000000000000000000000000000000 PUSH0 MSTORE PUSH1 0x11 PUSH1 0x4 MSTORE PUSH1 0x24 PUSH0 REVERT JUMPDEST PUSH0 PUSH2 0x16B3 DUP3 PUSH2 0x13F9 JUMP JUMPDEST SWAP2 POP PUSH2 0x16BE DUP4 PUSH2 0x13F9 JUMP JUMPDEST SWAP3 POP DUP3 DUP3 SUB SWAP1 POP DUP2 DUP2 GT ISZERO PUSH2 0x16D6 JUMPI PUSH2 0x16D5 PUSH2 0x167C JUMP JUMPDEST JUMPDEST SWAP3 SWAP2 POP POP JUMP JUMPDEST PUSH0 PUSH1 0x40 DUP3 ADD SWAP1 POP PUSH2 0x16EF PUSH0 DUP4 ADD DUP6 PUSH2 0x1536 JUMP JUMPDEST PUSH2 0x16FC PUSH1 0x20 DUP4 ADD DUP5 PUSH2 0x1402 JUMP JUMPDEST SWAP4 SWAP3 POP POP POP JUMP JUMPDEST PUSH0 DUP2 ISZERO ISZERO SWAP1 POP SWAP2 SWAP1 POP JUMP JUMPDEST PUSH2 0x1717 DUP2 PUSH2 0x1703 JUMP JUMPDEST DUP2 EQ PUSH2 0x1721 JUMPI PUSH0 DUP1 REVERT JUMPDEST POP JUMP JUMPDEST PUSH0 DUP2 MLOAD SWAP1 POP PUSH2 0x1732 DUP2 PUSH2 0x170E JUMP JUMPDEST SWAP3 SWAP2 POP POP JUMP JUMPDEST PUSH0 PUSH1 0x20 DUP3 DUP5 SUB SLT ISZERO PUSH2 0x174D JUMPI PUSH2 0x174C PUSH2 0x1370 JUMP JUMPDEST JUMPDEST PUSH0 PUSH2 0x175A DUP5 DUP3 DUP6 ADD PUSH2 0x1724 JUMP JUMPDEST SWAP2 POP POP SWAP3 SWAP2 POP POP JUMP JUMPDEST PUSH32 0x5472616E73666572206661696C65640000000000000000000000000000000000 PUSH0 DUP3 ADD MSTORE POP JUMP JUMPDEST PUSH0 PUSH2 0x1797 PUSH1 0xF DUP4 PUSH2 0x159C JUMP JUMPDEST SWAP2 POP PUSH2 0x17A2 DUP3 PUSH2 0x1763 JUMP JUMPDEST PUSH1 0x20 DUP3 ADD SWAP1 POP SWAP2 SWAP1 POP JUMP JUMPDEST PUSH0 PUSH1 0x20 DUP3 ADD SWAP1 POP DUP2 DUP2 SUB PUSH0 DUP4 ADD MSTORE PUSH2 0x17C4 DUP2 PUSH2 0x178B JUMP JUMPDEST SWAP1 POP SWAP2 SWAP1 POP JUMP JUMPDEST PUSH0 PUSH1 0x20 DUP3 ADD SWAP1 POP PUSH2 0x17DE PUSH0 DUP4 ADD DUP5 PUSH2 0x1402 JUMP JUMPDEST SWAP3 SWAP2 POP POP JUMP JUMPDEST PUSH32 0x4E6F207265776172647320746F20636C61696D00000000000000000000000000 PUSH0 DUP3 ADD MSTORE POP JUMP JUMPDEST PUSH0 PUSH2 0x1818 PUSH1 0x13 DUP4 PUSH2 0x159C JUMP JUMPDEST SWAP2 POP PUSH2 0x1823 DUP3 PUSH2 0x17E4 JUMP JUMPDEST PUSH1 0x20 DUP3 ADD SWAP1 POP SWAP2 SWAP1 POP JUMP JUMPDEST PUSH0 PUSH1 0x20 DUP3 ADD SWAP1 POP DUP2 DUP2 SUB PUSH0 DUP4 ADD MSTORE PUSH2 0x1845 DUP2 PUSH2 0x180C JUMP JUMPDEST SWAP1 POP SWAP2 SWAP1 POP JUMP JUMPDEST PUSH32 0x4E487B7100000000000000000000000000000000000000000000000000000000 PUSH0 MSTORE PUSH1 0x32 PUSH1 0x4 MSTORE PUSH1 0x24 PUSH0 REVERT JUMPDEST PUSH0 PUSH2 0x1883 DUP3 PUSH2 0x13F9 JUMP JUMPDEST SWAP2 POP PUSH2 0x188E DUP4 PUSH2 0x13F9 JUMP JUMPDEST SWAP3 POP DUP3 DUP3 ADD SWAP1 POP DUP1 DUP3 GT ISZERO PUSH2 0x18A6 JUMPI PUSH2 0x18A5 PUSH2 0x167C JUMP JUMPDEST JUMPDEST SWAP3 SWAP2 POP POP JUMP JUMPDEST PUSH0 PUSH2 0x18B6 DUP3 PUSH2 0x13F9 JUMP JUMPDEST SWAP2 POP PUSH2 0x18C1 DUP4 PUSH2 0x13F9 JUMP JUMPDEST SWAP3 POP DUP3 DUP3 MUL PUSH2 0x18CF DUP2 PUSH2 0x13F9 JUMP JUMPDEST SWAP2 POP DUP3 DUP3 DIV DUP5 EQ DUP4 ISZERO OR PUSH2 0x18E6 JUMPI PUSH2 0x18E5 PUSH2 0x167C JUMP JUMPDEST JUMPDEST POP SWAP3 SWAP2 POP POP JUMP JUMPDEST PUSH32 0x4E487B7100000000000000000000000000000000000000000000000000000000 PUSH0 MSTORE PUSH1 0x12 PUSH1 0x4 MSTORE PUSH1 0x24 PUSH0 REVERT JUMPDEST PUSH0 PUSH2 0x1924 DUP3 PUSH2 0x13F9 JUMP JUMPDEST SWAP2 POP PUSH2 0x192F DUP4 PUSH2 0x13F9 JUMP JUMPDEST SWAP3 POP DUP3 PUSH2 0x193F JUMPI PUSH2 0x193E PUSH2 0x18ED JUMP JUMPDEST JUMPDEST DUP3 DUP3 DIV SWAP1 POP SWAP3 SWAP2 POP POP JUMP JUMPDEST PUSH0 PUSH1 0x60 DUP3 ADD SWAP1 POP PUSH2 0x195D PUSH0 DUP4 ADD DUP7 PUSH2 0x1536 JUMP JUMPDEST PUSH2 0x196A PUSH1 0x20 DUP4 ADD DUP6 PUSH2 0x1536 JUMP JUMPDEST PUSH2 0x1977 PUSH1 0x40 DUP4 ADD DUP5 PUSH2 0x1402 JUMP JUMPDEST SWAP5 SWAP4 POP POP POP POP JUMP JUMPDEST PUSH32 0x496E73756666696369656E742076657374656420616D6F756E74000000000000 PUSH0 DUP3 ADD MSTORE POP JUMP JUMPDEST PUSH0 PUSH2 0x19B3 PUSH1 0x1A DUP4 PUSH2 0x159C JUMP JUMPDEST SWAP2 POP PUSH2 0x19BE DUP3 PUSH2 0x197F JUMP JUMPDEST PUSH1 0x20 DUP3 ADD SWAP1 POP SWAP2 SWAP1 POP JUMP JUMPDEST PUSH0 PUSH1 0x20 DUP3 ADD SWAP1 POP DUP2 DUP2 SUB PUSH0 DUP4 ADD MSTORE PUSH2 0x19E0 DUP2 PUSH2 0x19A7 JUMP JUMPDEST SWAP1 POP SWAP2 SWAP1 POP JUMP JUMPDEST PUSH0 PUSH2 0x19F1 DUP3 PUSH2 0x13F9 JUMP JUMPDEST SWAP2 POP PUSH32 0xFFFFFFFFFFFFFFFFFFFFFFFFFFFFFFFFFFFFFFFFFFFFFFFFFFFFFFFFFFFFFFFF DUP3 SUB PUSH2 0x1A23 JUMPI PUSH2 0x1A22 PUSH2 0x167C JUMP JUMPDEST JUMPDEST PUSH1 0x1 DUP3 ADD SWAP1 POP SWAP2 SWAP1 POP JUMP JUMPDEST PUSH32 0x6573524E54207472616E73666572206661696C65640000000000000000000000 PUSH0 DUP3 ADD MSTORE POP JUMP JUMPDEST PUSH0 PUSH2 0x1A62 PUSH1 0x15 DUP4 PUSH2 0x159C JUMP JUMPDEST SWAP2 POP PUSH2 0x1A6D DUP3 PUSH2 0x1A2E JUMP JUMPDEST PUSH1 0x20 DUP3 ADD SWAP1 POP SWAP2 SWAP1 POP JUMP JUMPDEST PUSH0 PUSH1 0x20 DUP3 ADD SWAP1 POP DUP2 DUP2 SUB PUSH0 DUP4 ADD MSTORE PUSH2 0x1A8F DUP2 PUSH2 0x1A56 JUMP JUMPDEST SWAP1 POP SWAP2 SWAP1 POP JUMP JUMPDEST PUSH32 0x524E54207472616E73666572206661696C656400000000000000000000000000 PUSH0 DUP3 ADD MSTORE POP JUMP JUMPDEST PUSH0 PUSH2 0x1ACA PUSH1 0x13 DUP4 PUSH2 0x159C JUMP JUMPDEST SWAP2 POP PUSH2 0x1AD5 DUP3 PUSH2 0x1A96 JUMP JUMPDEST PUSH1 0x20 DUP3 ADD SWAP1 POP SWAP2 SWAP1 POP JUMP JUMPDEST PUSH0 PUSH1 0x20 DUP3 ADD SWAP1 POP DUP2 DUP2 SUB PUSH0 DUP4 ADD MSTORE PUSH2 0x1AF7 DUP2 PUSH2 0x1ABE JUMP JUMPDEST SWAP1 POP SWAP2 SWAP1 POP JUMP JUMPDEST PUSH32 0x5265656E7472616E637947756172643A207265656E7472616E742063616C6C00 PUSH0 DUP3 ADD MSTORE POP JUMP JUMPDEST PUSH0 PUSH2 0x1B32 PUSH1 0x1F DUP4 PUSH2 0x159C JUMP JUMPDEST SWAP2 POP PUSH2 0x1B3D DUP3 PUSH2 0x1AFE JUMP JUMPDEST PUSH1 0x20 DUP3 ADD SWAP1 POP SWAP2 SWAP1 POP JUMP JUMPDEST PUSH0 PUSH1 0x20 DUP3 ADD SWAP1 POP DUP2 DUP2 SUB PUSH0 DUP4 ADD MSTORE PUSH2 0x1B5F DUP2 PUSH2 0x1B26 JUMP JUMPDEST SWAP1 POP SWAP2 SWAP1 POP JUMP INVALID LOG2 PUSH5 0x6970667358 0x22 SLT KECCAK256 0xEF 0xD8 DUP4 TSTORE BASEFEE GASPRICE 0xC0 0x2C PUSH31 0x272DDD2431AEC46D5E3546170732C34189B69FC251336C64736F6C63430008 BYTE STOP CALLER "
				},
				"gasEstimates": {
					"creation": {
						"codeDepositCost": "1413600",
						"executionCost": "infinite",
						"totalCost": "infinite"
					},
					"external": {
						"RNT()": "infinite",
						"claimRewards()": "infinite",
						"esRNT()": "infinite",
						"getRedeemableAmount(address)": "infinite",
						"getStakeInfo(address)": "infinite",
						"owner()": "2538",
						"redeem(uint256)": "infinite",
						"renounceOwnership()": "infinite",
						"stake(uint256)": "infinite",
						"stakes(address)": "infinite",
						"transferOwnership(address)": "infinite",
						"unstake(uint256)": "infinite",
						"vestings(address,uint256)": "infinite"
					},
					"internal": {
						"updateRewards(address)": "infinite"
					}
				},
				"methodIdentifiers": {
					"RNT()": "2370b07b",
					"claimRewards()": "372500ab",
					"esRNT()": "93dea9e6",
					"getRedeemableAmount(address)": "619cfc35",
					"getStakeInfo(address)": "c3453153",
					"owner()": "8da5cb5b",
					"redeem(uint256)": "db006a75",
					"renounceOwnership()": "715018a6",
					"stake(uint256)": "a694fc3a",
					"stakes(address)": "16934fc4",
					"transferOwnership(address)": "f2fde38b",
					"unstake(uint256)": "2e17de78",
					"vestings(address,uint256)": "bd84477d"
				}
			},
			"storageLayout": {
				"storage": [
					{
						"astId": 158,
						"contract": "stake.sol:StakingPool",
						"label": "_status",
						"offset": 0,
						"slot": "0",
						"type": "t_uint256"
					},
					{
						"astId": 8,
						"contract": "stake.sol:StakingPool",
						"label": "_owner",
						"offset": 0,
						"slot": "1",
						"type": "t_address"
					},
					{
						"astId": 361,
						"contract": "stake.sol:StakingPool",
						"label": "stakes",
						"offset": 0,
						"slot": "2",
						"type": "t_mapping(t_address,t_struct(StakeInfo)351_storage)"
					},
					{
						"astId": 367,
						"contract": "stake.sol:StakingPool",
						"label": "vestings",
						"offset": 0,
						"slot": "3",
						"type": "t_mapping(t_address,t_array(t_struct(VestingInfo)356_storage)dyn_storage)"
					}
				],
				"types": {
					"t_address": {
						"encoding": "inplace",
						"label": "address",
						"numberOfBytes": "20"
					},
					"t_array(t_struct(VestingInfo)356_storage)dyn_storage": {
						"base": "t_struct(VestingInfo)356_storage",
						"encoding": "dynamic_array",
						"label": "struct StakingPool.VestingInfo[]",
						"numberOfBytes": "32"
					},
					"t_mapping(t_address,t_array(t_struct(VestingInfo)356_storage)dyn_storage)": {
						"encoding": "mapping",
						"key": "t_address",
						"label": "mapping(address => struct StakingPool.VestingInfo[])",
						"numberOfBytes": "32",
						"value": "t_array(t_struct(VestingInfo)356_storage)dyn_storage"
					},
					"t_mapping(t_address,t_struct(StakeInfo)351_storage)": {
						"encoding": "mapping",
						"key": "t_address",
						"label": "mapping(address => struct StakingPool.StakeInfo)",
						"numberOfBytes": "32",
						"value": "t_struct(StakeInfo)351_storage"
					},
					"t_struct(StakeInfo)351_storage": {
						"encoding": "inplace",
						"label": "struct StakingPool.StakeInfo",
						"members": [
							{
								"astId": 346,
								"contract": "stake.sol:StakingPool",
								"label": "amount",
								"offset": 0,
								"slot": "0",
								"type": "t_uint256"
							},
							{
								"astId": 348,
								"contract": "stake.sol:StakingPool",
								"label": "lastUpdateTime",
								"offset": 0,
								"slot": "1",
								"type": "t_uint256"
							},
							{
								"astId": 350,
								"contract": "stake.sol:StakingPool",
								"label": "pendingRewards",
								"offset": 0,
								"slot": "2",
								"type": "t_uint256"
							}
						],
						"numberOfBytes": "96"
					},
					"t_struct(VestingInfo)356_storage": {
						"encoding": "inplace",
						"label": "struct StakingPool.VestingInfo",
						"members": [
							{
								"astId": 353,
								"contract": "stake.sol:StakingPool",
								"label": "amount",
								"offset": 0,
								"slot": "0",
								"type": "t_uint256"
							},
							{
								"astId": 355,
								"contract": "stake.sol:StakingPool",
								"label": "startTime",
								"offset": 0,
								"slot": "1",
								"type": "t_uint256"
							}
						],
						"numberOfBytes": "64"
					},
					"t_uint256": {
						"encoding": "inplace",
						"label": "uint256",
						"numberOfBytes": "32"
					}
				}
			},
			"userdoc": {
				"kind": "user",
				"methods": {},
				"version": 1
			}
		}
	}
}