{
	"bank.sol": {
		"Bank": {
			"abi": [
				{
					"inputs": [
						{
							"internalType": "address payable",
							"name": "_admin",
							"type": "address"
						}
					],
					"stateMutability": "payable",
					"type": "constructor"
				},
				{
					"inputs": [],
					"name": "admin",
					"outputs": [
						{
							"internalType": "address payable",
							"name": "",
							"type": "address"
						}
					],
					"stateMutability": "view",
					"type": "function"
				},
				{
					"inputs": [
						{
							"internalType": "address",
							"name": "",
							"type": "address"
						}
					],
					"name": "balances",
					"outputs": [
						{
							"internalType": "uint256",
							"name": "",
							"type": "uint256"
						}
					],
					"stateMutability": "view",
					"type": "function"
				},
				{
					"inputs": [
						{
							"internalType": "address",
							"name": "user",
							"type": "address"
						}
					],
					"name": "checkUserInTopUsers",
					"outputs": [
						{
							"internalType": "bool",
							"name": "found",
							"type": "bool"
						},
						{
							"internalType": "uint256",
							"name": "balance",
							"type": "uint256"
						},
						{
							"internalType": "uint256",
							"name": "position",
							"type": "uint256"
						}
					],
					"stateMutability": "view",
					"type": "function"
				},
				{
					"inputs": [],
					"name": "getRankings",
					"outputs": [
						{
							"components": [
								{
									"internalType": "address",
									"name": "addr",
									"type": "address"
								},
								{
									"internalType": "uint256",
									"name": "balance",
									"type": "uint256"
								}
							],
							"internalType": "struct Bank.RankingStruct[3]",
							"name": "",
							"type": "tuple[3]"
						}
					],
					"stateMutability": "view",
					"type": "function"
				},
				{
					"inputs": [
						{
							"internalType": "uint256",
							"name": "",
							"type": "uint256"
						}
					],
					"name": "topUsers",
					"outputs": [
						{
							"internalType": "address",
							"name": "addr",
							"type": "address"
						},
						{
							"internalType": "uint256",
							"name": "balance",
							"type": "uint256"
						}
					],
					"stateMutability": "view",
					"type": "function"
				},
				{
					"inputs": [],
					"name": "withdraw",
					"outputs": [
						{
							"internalType": "uint256",
							"name": "",
							"type": "uint256"
						}
					],
					"stateMutability": "nonpayable",
					"type": "function"
				},
				{
					"stateMutability": "payable",
					"type": "receive"
				}
			],
			"devdoc": {
				"kind": "dev",
				"methods": {},
				"version": 1
			},
			"evm": {
				"assembly": "    /* \"bank.sol\":57:3106  contract Bank {... */\n  mstore(0x40, 0x80)\n    /* \"bank.sol\":279:510  constructor(address payable _admin) payable {... */\n  mload(0x40)\n  sub(codesize, bytecodeSize)\n  dup1\n  bytecodeSize\n  dup4\n  codecopy\n  dup2\n  dup2\n  add\n  0x40\n  mstore\n  dup2\n  add\n  swap1\n  tag_1\n  swap2\n  swap1\n  tag_2\n  jump\t// in\ntag_1:\n    /* \"bank.sol\":341:347  _admin */\n  dup1\n    /* \"bank.sol\":333:338  admin */\n  0x00\n  dup1\n    /* \"bank.sol\":333:347  admin = _admin */\n  0x0100\n  exp\n  dup2\n  sload\n  dup2\n  0xffffffffffffffffffffffffffffffffffffffff\n  mul\n  not\n  and\n  swap1\n  dup4\n  0xffffffffffffffffffffffffffffffffffffffff\n  and\n  mul\n  or\n  swap1\n  sstore\n  pop\n    /* \"bank.sol\":371:399  RankingStruct(address(0), 0) */\n  mload(0x40)\n  dup1\n  0x40\n  add\n  0x40\n  mstore\n  dup1\n    /* \"bank.sol\":393:394  0 */\n  0x00\n    /* \"bank.sol\":371:399  RankingStruct(address(0), 0) */\n  0xffffffffffffffffffffffffffffffffffffffff\n  and\n  dup2\n  mstore\n  0x20\n  add\n    /* \"bank.sol\":397:398  0 */\n  0x00\n    /* \"bank.sol\":371:399  RankingStruct(address(0), 0) */\n  dup2\n  mstore\n  pop\n    /* \"bank.sol\":357:365  topUsers */\n  0x02\n    /* \"bank.sol\":366:367  0 */\n  0x00\n    /* \"bank.sol\":357:368  topUsers[0] */\n  0x03\n  dup2\n  lt\n  tag_5\n  jumpi\n  tag_6\n  tag_7\n  jump\t// in\ntag_6:\ntag_5:\n  0x02\n  mul\n  add\n    /* \"bank.sol\":357:399  topUsers[0] = RankingStruct(address(0), 0) */\n  0x00\n  dup3\n  add\n  mload\n  dup2\n  0x00\n  add\n  exp(0x0100, 0x00)\n  dup2\n  sload\n  dup2\n  0xffffffffffffffffffffffffffffffffffffffff\n  mul\n  not\n  and\n  swap1\n  dup4\n  0xffffffffffffffffffffffffffffffffffffffff\n  and\n  mul\n  or\n  swap1\n  sstore\n  pop\n  0x20\n  dup3\n  add\n  mload\n  dup2\n  0x01\n  add\n  sstore\n  swap1\n  pop\n  pop\n    /* \"bank.sol\":423:451  RankingStruct(address(0), 0) */\n  mload(0x40)\n  dup1\n  0x40\n  add\n  0x40\n  mstore\n  dup1\n    /* \"bank.sol\":445:446  0 */\n  0x00\n    /* \"bank.sol\":423:451  RankingStruct(address(0), 0) */\n  0xffffffffffffffffffffffffffffffffffffffff\n  and\n  dup2\n  mstore\n  0x20\n  add\n    /* \"bank.sol\":449:450  0 */\n  0x00\n    /* \"bank.sol\":423:451  RankingStruct(address(0), 0) */\n  dup2\n  mstore\n  pop\n    /* \"bank.sol\":409:417  topUsers */\n  0x02\n    /* \"bank.sol\":418:419  1 */\n  0x01\n    /* \"bank.sol\":409:420  topUsers[1] */\n  0x03\n  dup2\n  lt\n  tag_9\n  jumpi\n  tag_10\n  tag_7\n  jump\t// in\ntag_10:\ntag_9:\n  0x02\n  mul\n  add\n    /* \"bank.sol\":409:451  topUsers[1] = RankingStruct(address(0), 0) */\n  0x00\n  dup3\n  add\n  mload\n  dup2\n  0x00\n  add\n  exp(0x0100, 0x00)\n  dup2\n  sload\n  dup2\n  0xffffffffffffffffffffffffffffffffffffffff\n  mul\n  not\n  and\n  swap1\n  dup4\n  0xffffffffffffffffffffffffffffffffffffffff\n  and\n  mul\n  or\n  swap1\n  sstore\n  pop\n  0x20\n  dup3\n  add\n  mload\n  dup2\n  0x01\n  add\n  sstore\n  swap1\n  pop\n  pop\n    /* \"bank.sol\":475:503  RankingStruct(address(0), 0) */\n  mload(0x40)\n  dup1\n  0x40\n  add\n  0x40\n  mstore\n  dup1\n    /* \"bank.sol\":497:498  0 */\n  0x00\n    /* \"bank.sol\":475:503  RankingStruct(address(0), 0) */\n  0xffffffffffffffffffffffffffffffffffffffff\n  and\n  dup2\n  mstore\n  0x20\n  add\n    /* \"bank.sol\":501:502  0 */\n  0x00\n    /* \"bank.sol\":475:503  RankingStruct(address(0), 0) */\n  dup2\n  mstore\n  pop\n    /* \"bank.sol\":461:469  topUsers */\n  0x02\n    /* \"bank.sol\":470:471  2 */\n  dup1\n    /* \"bank.sol\":461:472  topUsers[2] */\n  0x03\n  dup2\n  lt\n  tag_12\n  jumpi\n  tag_13\n  tag_7\n  jump\t// in\ntag_13:\ntag_12:\n  0x02\n  mul\n  add\n    /* \"bank.sol\":461:503  topUsers[2] = RankingStruct(address(0), 0) */\n  0x00\n  dup3\n  add\n  mload\n  dup2\n  0x00\n  add\n  exp(0x0100, 0x00)\n  dup2\n  sload\n  dup2\n  0xffffffffffffffffffffffffffffffffffffffff\n  mul\n  not\n  and\n  swap1\n  dup4\n  0xffffffffffffffffffffffffffffffffffffffff\n  and\n  mul\n  or\n  swap1\n  sstore\n  pop\n  0x20\n  dup3\n  add\n  mload\n  dup2\n  0x01\n  add\n  sstore\n  swap1\n  pop\n  pop\n    /* \"bank.sol\":279:510  constructor(address payable _admin) payable {... */\n  pop\n    /* \"bank.sol\":57:3106  contract Bank {... */\n  jump(tag_15)\n    /* \"#utility.yul\":88:205   */\ntag_17:\n    /* \"#utility.yul\":197:198   */\n  0x00\n    /* \"#utility.yul\":194:195   */\n  dup1\n    /* \"#utility.yul\":187:199   */\n  revert\n    /* \"#utility.yul\":334:460   */\ntag_19:\n    /* \"#utility.yul\":371:378   */\n  0x00\n    /* \"#utility.yul\":411:453   */\n  0xffffffffffffffffffffffffffffffffffffffff\n    /* \"#utility.yul\":404:409   */\n  dup3\n    /* \"#utility.yul\":400:454   */\n  and\n    /* \"#utility.yul\":389:454   */\n  swap1\n  pop\n    /* \"#utility.yul\":334:460   */\n  swap2\n  swap1\n  pop\n  jump\t// out\n    /* \"#utility.yul\":466:570   */\ntag_20:\n    /* \"#utility.yul\":511:518   */\n  0x00\n    /* \"#utility.yul\":540:564   */\n  tag_29\n    /* \"#utility.yul\":558:563   */\n  dup3\n    /* \"#utility.yul\":540:564   */\n  tag_19\n  jump\t// in\ntag_29:\n    /* \"#utility.yul\":529:564   */\n  swap1\n  pop\n    /* \"#utility.yul\":466:570   */\n  swap2\n  swap1\n  pop\n  jump\t// out\n    /* \"#utility.yul\":576:714   */\ntag_21:\n    /* \"#utility.yul\":657:689   */\n  tag_31\n    /* \"#utility.yul\":683:688   */\n  dup2\n    /* \"#utility.yul\":657:689   */\n  tag_20\n  jump\t// in\ntag_31:\n    /* \"#utility.yul\":650:655   */\n  dup2\n    /* \"#utility.yul\":647:690   */\n  eq\n    /* \"#utility.yul\":637:708   */\n  tag_32\n  jumpi\n    /* \"#utility.yul\":704:705   */\n  0x00\n    /* \"#utility.yul\":701:702   */\n  dup1\n    /* \"#utility.yul\":694:706   */\n  revert\n    /* \"#utility.yul\":637:708   */\ntag_32:\n    /* \"#utility.yul\":576:714   */\n  pop\n  jump\t// out\n    /* \"#utility.yul\":720:879   */\ntag_22:\n    /* \"#utility.yul\":785:790   */\n  0x00\n    /* \"#utility.yul\":816:822   */\n  dup2\n    /* \"#utility.yul\":810:823   */\n  mload\n    /* \"#utility.yul\":801:823   */\n  swap1\n  pop\n    /* \"#utility.yul\":832:873   */\n  tag_34\n    /* \"#utility.yul\":867:872   */\n  dup2\n    /* \"#utility.yul\":832:873   */\n  tag_21\n  jump\t// in\ntag_34:\n    /* \"#utility.yul\":720:879   */\n  swap3\n  swap2\n  pop\n  pop\n  jump\t// out\n    /* \"#utility.yul\":885:1252   */\ntag_2:\n    /* \"#utility.yul\":963:969   */\n  0x00\n    /* \"#utility.yul\":1012:1014   */\n  0x20\n    /* \"#utility.yul\":1000:1009   */\n  dup3\n    /* \"#utility.yul\":991:998   */\n  dup5\n    /* \"#utility.yul\":987:1010   */\n  sub\n    /* \"#utility.yul\":983:1015   */\n  slt\n    /* \"#utility.yul\":980:1099   */\n  iszero\n  tag_36\n  jumpi\n    /* \"#utility.yul\":1018:1097   */\n  tag_37\n  tag_17\n  jump\t// in\ntag_37:\n    /* \"#utility.yul\":980:1099   */\ntag_36:\n    /* \"#utility.yul\":1138:1139   */\n  0x00\n    /* \"#utility.yul\":1163:1235   */\n  tag_38\n    /* \"#utility.yul\":1227:1234   */\n  dup5\n    /* \"#utility.yul\":1218:1224   */\n  dup3\n    /* \"#utility.yul\":1207:1216   */\n  dup6\n    /* \"#utility.yul\":1203:1225   */\n  add\n    /* \"#utility.yul\":1163:1235   */\n  tag_22\n  jump\t// in\ntag_38:\n    /* \"#utility.yul\":1153:1235   */\n  swap2\n  pop\n    /* \"#utility.yul\":1109:1245   */\n  pop\n    /* \"#utility.yul\":885:1252   */\n  swap3\n  swap2\n  pop\n  pop\n  jump\t// out\n    /* \"#utility.yul\":1258:1438   */\ntag_7:\n    /* \"#utility.yul\":1306:1383   */\n  0x4e487b7100000000000000000000000000000000000000000000000000000000\n    /* \"#utility.yul\":1303:1304   */\n  0x00\n    /* \"#utility.yul\":1296:1384   */\n  mstore\n    /* \"#utility.yul\":1403:1407   */\n  0x32\n    /* \"#utility.yul\":1400:1401   */\n  0x04\n    /* \"#utility.yul\":1393:1408   */\n  mstore\n    /* \"#utility.yul\":1427:1431   */\n  0x24\n    /* \"#utility.yul\":1424:1425   */\n  0x00\n    /* \"#utility.yul\":1417:1432   */\n  revert\n    /* \"bank.sol\":57:3106  contract Bank {... */\ntag_15:\n  dataSize(sub_0)\n  dup1\n  dataOffset(sub_0)\n  0x00\n  codecopy\n  0x00\n  return\nstop\n\nsub_0: assembly {\n        /* \"bank.sol\":57:3106  contract Bank {... */\n      mstore(0x40, 0x80)\n      jumpi(tag_1, lt(calldatasize, 0x04))\n      shr(0xe0, calldataload(0x00))\n      dup1\n      0x27e235e3\n      eq\n      tag_3\n      jumpi\n      dup1\n      0x2c83b4b2\n      eq\n      tag_4\n      jumpi\n      dup1\n      0x3ccfd60b\n      eq\n      tag_5\n      jumpi\n      dup1\n      0x689dbf4e\n      eq\n      tag_6\n      jumpi\n      dup1\n      0xb5fc70f7\n      eq\n      tag_7\n      jumpi\n      dup1\n      0xf851a440\n      eq\n      tag_8\n      jumpi\n      jump(tag_2)\n    tag_1:\n      jumpi(tag_2, calldatasize)\n        /* \"bank.sol\":599:608  msg.value */\n      callvalue\n        /* \"bank.sol\":576:584  balances */\n      0x01\n        /* \"bank.sol\":576:596  balances[msg.sender] */\n      0x00\n        /* \"bank.sol\":585:595  msg.sender */\n      caller\n        /* \"bank.sol\":576:596  balances[msg.sender] */\n      0xffffffffffffffffffffffffffffffffffffffff\n      and\n      0xffffffffffffffffffffffffffffffffffffffff\n      and\n      dup2\n      mstore\n      0x20\n      add\n      swap1\n      dup2\n      mstore\n      0x20\n      add\n      0x00\n      keccak256\n      sload\n        /* \"bank.sol\":576:608  balances[msg.sender] + msg.value */\n      tag_11\n      swap2\n      swap1\n      tag_12\n      jump\t// in\n    tag_11:\n        /* \"bank.sol\":553:561  balances */\n      0x01\n        /* \"bank.sol\":553:573  balances[msg.sender] */\n      0x00\n        /* \"bank.sol\":562:572  msg.sender */\n      caller\n        /* \"bank.sol\":553:573  balances[msg.sender] */\n      0xffffffffffffffffffffffffffffffffffffffff\n      and\n      0xffffffffffffffffffffffffffffffffffffffff\n      and\n      dup2\n      mstore\n      0x20\n      add\n      swap1\n      dup2\n      mstore\n      0x20\n      add\n      0x00\n      keccak256\n        /* \"bank.sol\":553:608  balances[msg.sender] = balances[msg.sender] + msg.value */\n      dup2\n      swap1\n      sstore\n      pop\n        /* \"bank.sol\":618:627  bool flag */\n      0x00\n        /* \"bank.sol\":650:659  uint256 i */\n      dup1\n        /* \"bank.sol\":645:864  for (uint256 i = 0; i < 3; i++) {... */\n    tag_13:\n        /* \"bank.sol\":669:670  3 */\n      0x03\n        /* \"bank.sol\":665:666  i */\n      dup2\n        /* \"bank.sol\":665:670  i < 3 */\n      lt\n        /* \"bank.sol\":645:864  for (uint256 i = 0; i < 3; i++) {... */\n      iszero\n      tag_14\n      jumpi\n        /* \"bank.sol\":709:717  topUsers */\n      0x02\n        /* \"bank.sol\":718:719  i */\n      dup2\n        /* \"bank.sol\":709:720  topUsers[i] */\n      0x03\n      dup2\n      lt\n      tag_16\n      jumpi\n      tag_17\n      tag_18\n      jump\t// in\n    tag_17:\n    tag_16:\n      0x02\n      mul\n      add\n        /* \"bank.sol\":709:725  topUsers[i].addr */\n      0x00\n      add\n      0x00\n      swap1\n      sload\n      swap1\n      0x0100\n      exp\n      swap1\n      div\n      0xffffffffffffffffffffffffffffffffffffffff\n      and\n        /* \"bank.sol\":695:725  msg.sender == topUsers[i].addr */\n      0xffffffffffffffffffffffffffffffffffffffff\n      and\n        /* \"bank.sol\":695:705  msg.sender */\n      caller\n        /* \"bank.sol\":695:725  msg.sender == topUsers[i].addr */\n      0xffffffffffffffffffffffffffffffffffffffff\n      and\n      sub\n        /* \"bank.sol\":691:854  if (msg.sender == topUsers[i].addr) {... */\n      tag_20\n      jumpi\n        /* \"bank.sol\":752:756  true */\n      0x01\n        /* \"bank.sol\":745:756  flag = true */\n      swap2\n      pop\n        /* \"bank.sol\":796:804  balances */\n      0x01\n        /* \"bank.sol\":796:816  balances[msg.sender] */\n      0x00\n        /* \"bank.sol\":805:815  msg.sender */\n      caller\n        /* \"bank.sol\":796:816  balances[msg.sender] */\n      0xffffffffffffffffffffffffffffffffffffffff\n      and\n      0xffffffffffffffffffffffffffffffffffffffff\n      and\n      dup2\n      mstore\n      0x20\n      add\n      swap1\n      dup2\n      mstore\n      0x20\n      add\n      0x00\n      keccak256\n      sload\n        /* \"bank.sol\":774:782  topUsers */\n      0x02\n        /* \"bank.sol\":783:784  i */\n      dup3\n        /* \"bank.sol\":774:785  topUsers[i] */\n      0x03\n      dup2\n      lt\n      tag_21\n      jumpi\n      tag_22\n      tag_18\n      jump\t// in\n    tag_22:\n    tag_21:\n      0x02\n      mul\n      add\n        /* \"bank.sol\":774:793  topUsers[i].balance */\n      0x01\n      add\n        /* \"bank.sol\":774:816  topUsers[i].balance = balances[msg.sender] */\n      dup2\n      swap1\n      sstore\n      pop\n        /* \"bank.sol\":834:839  break */\n      jump(tag_14)\n        /* \"bank.sol\":691:854  if (msg.sender == topUsers[i].addr) {... */\n    tag_20:\n        /* \"bank.sol\":672:675  i++ */\n      dup1\n      dup1\n      0x01\n      add\n      swap2\n      pop\n      pop\n        /* \"bank.sol\":645:864  for (uint256 i = 0; i < 3; i++) {... */\n      jump(tag_13)\n    tag_14:\n      pop\n        /* \"bank.sol\":878:882  flag */\n      dup1\n        /* \"bank.sol\":873:1456  if (!flag) {... */\n      tag_24\n      jumpi\n        /* \"bank.sol\":925:933  topUsers */\n      0x02\n        /* \"bank.sol\":934:935  0 */\n      0x00\n        /* \"bank.sol\":925:936  topUsers[0] */\n      0x03\n      dup2\n      lt\n      tag_25\n      jumpi\n      tag_26\n      tag_18\n      jump\t// in\n    tag_26:\n    tag_25:\n      0x02\n      mul\n      add\n        /* \"bank.sol\":925:944  topUsers[0].balance */\n      0x01\n      add\n      sload\n        /* \"bank.sol\":902:910  balances */\n      0x01\n        /* \"bank.sol\":902:922  balances[msg.sender] */\n      0x00\n        /* \"bank.sol\":911:921  msg.sender */\n      caller\n        /* \"bank.sol\":902:922  balances[msg.sender] */\n      0xffffffffffffffffffffffffffffffffffffffff\n      and\n      0xffffffffffffffffffffffffffffffffffffffff\n      and\n      dup2\n      mstore\n      0x20\n      add\n      swap1\n      dup2\n      mstore\n      0x20\n      add\n      0x00\n      keccak256\n      sload\n        /* \"bank.sol\":902:944  balances[msg.sender] > topUsers[0].balance */\n      gt\n        /* \"bank.sol\":898:1420  if (balances[msg.sender] > topUsers[0].balance) {... */\n      iszero\n      tag_28\n      jumpi\n        /* \"bank.sol\":983:993  msg.sender */\n      caller\n        /* \"bank.sol\":964:972  topUsers */\n      0x02\n        /* \"bank.sol\":973:974  0 */\n      0x00\n        /* \"bank.sol\":964:975  topUsers[0] */\n      0x03\n      dup2\n      lt\n      tag_29\n      jumpi\n      tag_30\n      tag_18\n      jump\t// in\n    tag_30:\n    tag_29:\n      0x02\n      mul\n      add\n        /* \"bank.sol\":964:980  topUsers[0].addr */\n      0x00\n      add\n      0x00\n        /* \"bank.sol\":964:993  topUsers[0].addr = msg.sender */\n      0x0100\n      exp\n      dup2\n      sload\n      dup2\n      0xffffffffffffffffffffffffffffffffffffffff\n      mul\n      not\n      and\n      swap1\n      dup4\n      0xffffffffffffffffffffffffffffffffffffffff\n      and\n      mul\n      or\n      swap1\n      sstore\n      pop\n        /* \"bank.sol\":1033:1041  balances */\n      0x01\n        /* \"bank.sol\":1033:1053  balances[msg.sender] */\n      0x00\n        /* \"bank.sol\":1042:1052  msg.sender */\n      caller\n        /* \"bank.sol\":1033:1053  balances[msg.sender] */\n      0xffffffffffffffffffffffffffffffffffffffff\n      and\n      0xffffffffffffffffffffffffffffffffffffffff\n      and\n      dup2\n      mstore\n      0x20\n      add\n      swap1\n      dup2\n      mstore\n      0x20\n      add\n      0x00\n      keccak256\n      sload\n        /* \"bank.sol\":1011:1019  topUsers */\n      0x02\n        /* \"bank.sol\":1020:1021  0 */\n      0x00\n        /* \"bank.sol\":1011:1022  topUsers[0] */\n      0x03\n      dup2\n      lt\n      tag_32\n      jumpi\n      tag_33\n      tag_18\n      jump\t// in\n    tag_33:\n    tag_32:\n      0x02\n      mul\n      add\n        /* \"bank.sol\":1011:1030  topUsers[0].balance */\n      0x01\n      add\n        /* \"bank.sol\":1011:1053  topUsers[0].balance = balances[msg.sender] */\n      dup2\n      swap1\n      sstore\n      pop\n        /* \"bank.sol\":898:1420  if (balances[msg.sender] > topUsers[0].balance) {... */\n      jump(tag_35)\n    tag_28:\n        /* \"bank.sol\":1101:1109  topUsers */\n      0x02\n        /* \"bank.sol\":1110:1111  1 */\n      0x01\n        /* \"bank.sol\":1101:1112  topUsers[1] */\n      0x03\n      dup2\n      lt\n      tag_36\n      jumpi\n      tag_37\n      tag_18\n      jump\t// in\n    tag_37:\n    tag_36:\n      0x02\n      mul\n      add\n        /* \"bank.sol\":1101:1120  topUsers[1].balance */\n      0x01\n      add\n      sload\n        /* \"bank.sol\":1078:1086  balances */\n      0x01\n        /* \"bank.sol\":1078:1098  balances[msg.sender] */\n      0x00\n        /* \"bank.sol\":1087:1097  msg.sender */\n      caller\n        /* \"bank.sol\":1078:1098  balances[msg.sender] */\n      0xffffffffffffffffffffffffffffffffffffffff\n      and\n      0xffffffffffffffffffffffffffffffffffffffff\n      and\n      dup2\n      mstore\n      0x20\n      add\n      swap1\n      dup2\n      mstore\n      0x20\n      add\n      0x00\n      keccak256\n      sload\n        /* \"bank.sol\":1078:1120  balances[msg.sender] > topUsers[1].balance */\n      gt\n        /* \"bank.sol\":1074:1420  if (balances[msg.sender] > topUsers[1].balance) {... */\n      iszero\n      tag_39\n      jumpi\n        /* \"bank.sol\":1159:1169  msg.sender */\n      caller\n        /* \"bank.sol\":1140:1148  topUsers */\n      0x02\n        /* \"bank.sol\":1149:1150  1 */\n      0x01\n        /* \"bank.sol\":1140:1151  topUsers[1] */\n      0x03\n      dup2\n      lt\n      tag_40\n      jumpi\n      tag_41\n      tag_18\n      jump\t// in\n    tag_41:\n    tag_40:\n      0x02\n      mul\n      add\n        /* \"bank.sol\":1140:1156  topUsers[1].addr */\n      0x00\n      add\n      0x00\n        /* \"bank.sol\":1140:1169  topUsers[1].addr = msg.sender */\n      0x0100\n      exp\n      dup2\n      sload\n      dup2\n      0xffffffffffffffffffffffffffffffffffffffff\n      mul\n      not\n      and\n      swap1\n      dup4\n      0xffffffffffffffffffffffffffffffffffffffff\n      and\n      mul\n      or\n      swap1\n      sstore\n      pop\n        /* \"bank.sol\":1209:1217  balances */\n      0x01\n        /* \"bank.sol\":1209:1229  balances[msg.sender] */\n      0x00\n        /* \"bank.sol\":1218:1228  msg.sender */\n      caller\n        /* \"bank.sol\":1209:1229  balances[msg.sender] */\n      0xffffffffffffffffffffffffffffffffffffffff\n      and\n      0xffffffffffffffffffffffffffffffffffffffff\n      and\n      dup2\n      mstore\n      0x20\n      add\n      swap1\n      dup2\n      mstore\n      0x20\n      add\n      0x00\n      keccak256\n      sload\n        /* \"bank.sol\":1187:1195  topUsers */\n      0x02\n        /* \"bank.sol\":1196:1197  1 */\n      0x01\n        /* \"bank.sol\":1187:1198  topUsers[1] */\n      0x03\n      dup2\n      lt\n      tag_43\n      jumpi\n      tag_44\n      tag_18\n      jump\t// in\n    tag_44:\n    tag_43:\n      0x02\n      mul\n      add\n        /* \"bank.sol\":1187:1206  topUsers[1].balance */\n      0x01\n      add\n        /* \"bank.sol\":1187:1229  topUsers[1].balance = balances[msg.sender] */\n      dup2\n      swap1\n      sstore\n      pop\n        /* \"bank.sol\":1074:1420  if (balances[msg.sender] > topUsers[1].balance) {... */\n      jump(tag_46)\n    tag_39:\n        /* \"bank.sol\":1277:1285  topUsers */\n      0x02\n        /* \"bank.sol\":1286:1287  2 */\n      dup1\n        /* \"bank.sol\":1277:1288  topUsers[2] */\n      0x03\n      dup2\n      lt\n      tag_47\n      jumpi\n      tag_48\n      tag_18\n      jump\t// in\n    tag_48:\n    tag_47:\n      0x02\n      mul\n      add\n        /* \"bank.sol\":1277:1296  topUsers[2].balance */\n      0x01\n      add\n      sload\n        /* \"bank.sol\":1254:1262  balances */\n      0x01\n        /* \"bank.sol\":1254:1274  balances[msg.sender] */\n      0x00\n        /* \"bank.sol\":1263:1273  msg.sender */\n      caller\n        /* \"bank.sol\":1254:1274  balances[msg.sender] */\n      0xffffffffffffffffffffffffffffffffffffffff\n      and\n      0xffffffffffffffffffffffffffffffffffffffff\n      and\n      dup2\n      mstore\n      0x20\n      add\n      swap1\n      dup2\n      mstore\n      0x20\n      add\n      0x00\n      keccak256\n      sload\n        /* \"bank.sol\":1254:1296  balances[msg.sender] > topUsers[2].balance */\n      gt\n        /* \"bank.sol\":1250:1420  if (balances[msg.sender] > topUsers[2].balance) {... */\n      iszero\n      tag_50\n      jumpi\n        /* \"bank.sol\":1335:1345  msg.sender */\n      caller\n        /* \"bank.sol\":1316:1324  topUsers */\n      0x02\n        /* \"bank.sol\":1325:1326  2 */\n      dup1\n        /* \"bank.sol\":1316:1327  topUsers[2] */\n      0x03\n      dup2\n      lt\n      tag_51\n      jumpi\n      tag_52\n      tag_18\n      jump\t// in\n    tag_52:\n    tag_51:\n      0x02\n      mul\n      add\n        /* \"bank.sol\":1316:1332  topUsers[2].addr */\n      0x00\n      add\n      0x00\n        /* \"bank.sol\":1316:1345  topUsers[2].addr = msg.sender */\n      0x0100\n      exp\n      dup2\n      sload\n      dup2\n      0xffffffffffffffffffffffffffffffffffffffff\n      mul\n      not\n      and\n      swap1\n      dup4\n      0xffffffffffffffffffffffffffffffffffffffff\n      and\n      mul\n      or\n      swap1\n      sstore\n      pop\n        /* \"bank.sol\":1385:1393  balances */\n      0x01\n        /* \"bank.sol\":1385:1405  balances[msg.sender] */\n      0x00\n        /* \"bank.sol\":1394:1404  msg.sender */\n      caller\n        /* \"bank.sol\":1385:1405  balances[msg.sender] */\n      0xffffffffffffffffffffffffffffffffffffffff\n      and\n      0xffffffffffffffffffffffffffffffffffffffff\n      and\n      dup2\n      mstore\n      0x20\n      add\n      swap1\n      dup2\n      mstore\n      0x20\n      add\n      0x00\n      keccak256\n      sload\n        /* \"bank.sol\":1363:1371  topUsers */\n      0x02\n        /* \"bank.sol\":1372:1373  2 */\n      dup1\n        /* \"bank.sol\":1363:1374  topUsers[2] */\n      0x03\n      dup2\n      lt\n      tag_54\n      jumpi\n      tag_55\n      tag_18\n      jump\t// in\n    tag_55:\n    tag_54:\n      0x02\n      mul\n      add\n        /* \"bank.sol\":1363:1382  topUsers[2].balance */\n      0x01\n      add\n        /* \"bank.sol\":1363:1405  topUsers[2].balance = balances[msg.sender] */\n      dup2\n      swap1\n      sstore\n      pop\n        /* \"bank.sol\":1250:1420  if (balances[msg.sender] > topUsers[2].balance) {... */\n    tag_50:\n        /* \"bank.sol\":1074:1420  if (balances[msg.sender] > topUsers[1].balance) {... */\n    tag_46:\n        /* \"bank.sol\":898:1420  if (balances[msg.sender] > topUsers[0].balance) {... */\n    tag_35:\n        /* \"bank.sol\":1433:1445  bubbleSort() */\n      tag_57\n        /* \"bank.sol\":1433:1443  bubbleSort */\n      tag_58\n        /* \"bank.sol\":1433:1445  bubbleSort() */\n      jump\t// in\n    tag_57:\n        /* \"bank.sol\":873:1456  if (!flag) {... */\n    tag_24:\n        /* \"bank.sol\":543:1462  {... */\n      stop\n        /* \"bank.sol\":57:3106  contract Bank {... */\n    tag_2:\n      0x00\n      dup1\n      revert\n        /* \"bank.sol\":111:154  mapping(address => uint256) public balances */\n    tag_3:\n      callvalue\n      dup1\n      iszero\n      tag_59\n      jumpi\n      0x00\n      dup1\n      revert\n    tag_59:\n      pop\n      tag_60\n      0x04\n      dup1\n      calldatasize\n      sub\n      dup2\n      add\n      swap1\n      tag_61\n      swap2\n      swap1\n      tag_62\n      jump\t// in\n    tag_61:\n      tag_63\n      jump\t// in\n    tag_60:\n      mload(0x40)\n      tag_64\n      swap2\n      swap1\n      tag_65\n      jump\t// in\n    tag_64:\n      mload(0x40)\n      dup1\n      swap2\n      sub\n      swap1\n      return\n        /* \"bank.sol\":2610:2711  function getRankings() public view returns (RankingStruct[3] memory) {... */\n    tag_4:\n      callvalue\n      dup1\n      iszero\n      tag_66\n      jumpi\n      0x00\n      dup1\n      revert\n    tag_66:\n      pop\n      tag_67\n      tag_68\n      jump\t// in\n    tag_67:\n      mload(0x40)\n      tag_69\n      swap2\n      swap1\n      tag_70\n      jump\t// in\n    tag_69:\n      mload(0x40)\n      dup1\n      swap2\n      sub\n      swap1\n      return\n        /* \"bank.sol\":1468:1658  function withdraw() public returns (uint256) {... */\n    tag_5:\n      callvalue\n      dup1\n      iszero\n      tag_71\n      jumpi\n      0x00\n      dup1\n      revert\n    tag_71:\n      pop\n      tag_72\n      tag_73\n      jump\t// in\n    tag_72:\n      mload(0x40)\n      tag_74\n      swap2\n      swap1\n      tag_65\n      jump\t// in\n    tag_74:\n      mload(0x40)\n      dup1\n      swap2\n      sub\n      swap1\n      return\n        /* \"bank.sol\":160:192  RankingStruct[3] public topUsers */\n    tag_6:\n      callvalue\n      dup1\n      iszero\n      tag_75\n      jumpi\n      0x00\n      dup1\n      revert\n    tag_75:\n      pop\n      tag_76\n      0x04\n      dup1\n      calldatasize\n      sub\n      dup2\n      add\n      swap1\n      tag_77\n      swap2\n      swap1\n      tag_78\n      jump\t// in\n    tag_77:\n      tag_79\n      jump\t// in\n    tag_76:\n      mload(0x40)\n      tag_80\n      swap3\n      swap2\n      swap1\n      tag_81\n      jump\t// in\n    tag_80:\n      mload(0x40)\n      dup1\n      swap2\n      sub\n      swap1\n      return\n        /* \"bank.sol\":2717:3104  function checkUserInTopUsers(address user)... */\n    tag_7:\n      callvalue\n      dup1\n      iszero\n      tag_82\n      jumpi\n      0x00\n      dup1\n      revert\n    tag_82:\n      pop\n      tag_83\n      0x04\n      dup1\n      calldatasize\n      sub\n      dup2\n      add\n      swap1\n      tag_84\n      swap2\n      swap1\n      tag_62\n      jump\t// in\n    tag_84:\n      tag_85\n      jump\t// in\n    tag_83:\n      mload(0x40)\n      tag_86\n      swap4\n      swap3\n      swap2\n      swap1\n      tag_87\n      jump\t// in\n    tag_86:\n      mload(0x40)\n      dup1\n      swap2\n      sub\n      swap1\n      return\n        /* \"bank.sol\":77:105  address payable public admin */\n    tag_8:\n      callvalue\n      dup1\n      iszero\n      tag_88\n      jumpi\n      0x00\n      dup1\n      revert\n    tag_88:\n      pop\n      tag_89\n      tag_90\n      jump\t// in\n    tag_89:\n      mload(0x40)\n      tag_91\n      swap2\n      swap1\n      tag_92\n      jump\t// in\n    tag_91:\n      mload(0x40)\n      dup1\n      swap2\n      sub\n      swap1\n      return\n        /* \"bank.sol\":2138:2604  function bubbleSort() internal {... */\n    tag_58:\n        /* \"bank.sol\":2179:2190  uint256 num */\n      0x00\n        /* \"bank.sol\":2193:2208  topUsers.length */\n      0x03\n        /* \"bank.sol\":2179:2208  uint256 num = topUsers.length */\n      swap1\n      pop\n        /* \"bank.sol\":2223:2232  uint256 i */\n      0x00\n        /* \"bank.sol\":2218:2598  for (uint256 i = 0; i < num - 1; i++) {... */\n    tag_94:\n        /* \"bank.sol\":2248:2249  1 */\n      0x01\n        /* \"bank.sol\":2242:2245  num */\n      dup3\n        /* \"bank.sol\":2242:2249  num - 1 */\n      tag_97\n      swap2\n      swap1\n      tag_98\n      jump\t// in\n    tag_97:\n        /* \"bank.sol\":2238:2239  i */\n      dup2\n        /* \"bank.sol\":2238:2249  i < num - 1 */\n      lt\n        /* \"bank.sol\":2218:2598  for (uint256 i = 0; i < num - 1; i++) {... */\n      iszero\n      tag_95\n      jumpi\n        /* \"bank.sol\":2275:2284  uint256 j */\n      0x00\n        /* \"bank.sol\":2270:2588  for (uint256 j = 0; j < num - 1 - i; j++) {... */\n    tag_99:\n        /* \"bank.sol\":2304:2305  i */\n      dup2\n        /* \"bank.sol\":2300:2301  1 */\n      0x01\n        /* \"bank.sol\":2294:2297  num */\n      dup5\n        /* \"bank.sol\":2294:2301  num - 1 */\n      tag_102\n      swap2\n      swap1\n      tag_98\n      jump\t// in\n    tag_102:\n        /* \"bank.sol\":2294:2305  num - 1 - i */\n      tag_103\n      swap2\n      swap1\n      tag_98\n      jump\t// in\n    tag_103:\n        /* \"bank.sol\":2290:2291  j */\n      dup2\n        /* \"bank.sol\":2290:2305  j < num - 1 - i */\n      lt\n        /* \"bank.sol\":2270:2588  for (uint256 j = 0; j < num - 1 - i; j++) {... */\n      iszero\n      tag_100\n      jumpi\n        /* \"bank.sol\":2352:2377  RankingStruct memory left */\n      0x00\n        /* \"bank.sol\":2399:2425  RankingStruct memory right */\n      dup1\n        /* \"bank.sol\":2446:2496  rightBigger(topUsers[j], topUsers[j + 1], compare) */\n      tag_104\n        /* \"bank.sol\":2458:2466  topUsers */\n      0x02\n        /* \"bank.sol\":2467:2468  j */\n      dup5\n        /* \"bank.sol\":2458:2469  topUsers[j] */\n      0x03\n      dup2\n      lt\n      tag_105\n      jumpi\n      tag_106\n      tag_18\n      jump\t// in\n    tag_106:\n    tag_105:\n      0x02\n      mul\n      add\n        /* \"bank.sol\":2446:2496  rightBigger(topUsers[j], topUsers[j + 1], compare) */\n      mload(0x40)\n      dup1\n      0x40\n      add\n      0x40\n      mstore\n      swap1\n      dup2\n      0x00\n      dup3\n      add\n      0x00\n      swap1\n      sload\n      swap1\n      0x0100\n      exp\n      swap1\n      div\n      0xffffffffffffffffffffffffffffffffffffffff\n      and\n      0xffffffffffffffffffffffffffffffffffffffff\n      and\n      0xffffffffffffffffffffffffffffffffffffffff\n      and\n      dup2\n      mstore\n      0x20\n      add\n      0x01\n      dup3\n      add\n      sload\n      dup2\n      mstore\n      pop\n      pop\n        /* \"bank.sol\":2471:2479  topUsers */\n      0x02\n        /* \"bank.sol\":2484:2485  1 */\n      0x01\n        /* \"bank.sol\":2480:2481  j */\n      dup7\n        /* \"bank.sol\":2480:2485  j + 1 */\n      tag_108\n      swap2\n      swap1\n      tag_12\n      jump\t// in\n    tag_108:\n        /* \"bank.sol\":2471:2486  topUsers[j + 1] */\n      0x03\n      dup2\n      lt\n      tag_109\n      jumpi\n      tag_110\n      tag_18\n      jump\t// in\n    tag_110:\n    tag_109:\n      0x02\n      mul\n      add\n        /* \"bank.sol\":2446:2496  rightBigger(topUsers[j], topUsers[j + 1], compare) */\n      mload(0x40)\n      dup1\n      0x40\n      add\n      0x40\n      mstore\n      swap1\n      dup2\n      0x00\n      dup3\n      add\n      0x00\n      swap1\n      sload\n      swap1\n      0x0100\n      exp\n      swap1\n      div\n      0xffffffffffffffffffffffffffffffffffffffff\n      and\n      0xffffffffffffffffffffffffffffffffffffffff\n      and\n      0xffffffffffffffffffffffffffffffffffffffff\n      and\n      dup2\n      mstore\n      0x20\n      add\n      0x01\n      dup3\n      add\n      sload\n      dup2\n      mstore\n      pop\n      pop\n        /* \"bank.sol\":2488:2495  compare */\n      tag_112\n        /* \"bank.sol\":2446:2457  rightBigger */\n      tag_113\n        /* \"bank.sol\":2446:2496  rightBigger(topUsers[j], topUsers[j + 1], compare) */\n      jump\t// in\n    tag_104:\n        /* \"bank.sol\":2330:2496  (... */\n      swap2\n      pop\n      swap2\n      pop\n        /* \"bank.sol\":2528:2532  left */\n      dup2\n        /* \"bank.sol\":2514:2522  topUsers */\n      0x02\n        /* \"bank.sol\":2523:2524  j */\n      dup5\n        /* \"bank.sol\":2514:2525  topUsers[j] */\n      0x03\n      dup2\n      lt\n      tag_114\n      jumpi\n      tag_115\n      tag_18\n      jump\t// in\n    tag_115:\n    tag_114:\n      0x02\n      mul\n      add\n        /* \"bank.sol\":2514:2532  topUsers[j] = left */\n      0x00\n      dup3\n      add\n      mload\n      dup2\n      0x00\n      add\n      exp(0x0100, 0x00)\n      dup2\n      sload\n      dup2\n      0xffffffffffffffffffffffffffffffffffffffff\n      mul\n      not\n      and\n      swap1\n      dup4\n      0xffffffffffffffffffffffffffffffffffffffff\n      and\n      mul\n      or\n      swap1\n      sstore\n      pop\n      0x20\n      dup3\n      add\n      mload\n      dup2\n      0x01\n      add\n      sstore\n      swap1\n      pop\n      pop\n        /* \"bank.sol\":2568:2573  right */\n      dup1\n        /* \"bank.sol\":2550:2558  topUsers */\n      0x02\n        /* \"bank.sol\":2563:2564  1 */\n      0x01\n        /* \"bank.sol\":2559:2560  j */\n      dup6\n        /* \"bank.sol\":2559:2564  j + 1 */\n      tag_117\n      swap2\n      swap1\n      tag_12\n      jump\t// in\n    tag_117:\n        /* \"bank.sol\":2550:2565  topUsers[j + 1] */\n      0x03\n      dup2\n      lt\n      tag_118\n      jumpi\n      tag_119\n      tag_18\n      jump\t// in\n    tag_119:\n    tag_118:\n      0x02\n      mul\n      add\n        /* \"bank.sol\":2550:2573  topUsers[j + 1] = right */\n      0x00\n      dup3\n      add\n      mload\n      dup2\n      0x00\n      add\n      exp(0x0100, 0x00)\n      dup2\n      sload\n      dup2\n      0xffffffffffffffffffffffffffffffffffffffff\n      mul\n      not\n      and\n      swap1\n      dup4\n      0xffffffffffffffffffffffffffffffffffffffff\n      and\n      mul\n      or\n      swap1\n      sstore\n      pop\n      0x20\n      dup3\n      add\n      mload\n      dup2\n      0x01\n      add\n      sstore\n      swap1\n      pop\n      pop\n        /* \"bank.sol\":2312:2588  {... */\n      pop\n      pop\n        /* \"bank.sol\":2307:2310  j++ */\n      dup1\n      dup1\n      0x01\n      add\n      swap2\n      pop\n      pop\n        /* \"bank.sol\":2270:2588  for (uint256 j = 0; j < num - 1 - i; j++) {... */\n      jump(tag_99)\n    tag_100:\n      pop\n        /* \"bank.sol\":2251:2254  i++ */\n      dup1\n      dup1\n      0x01\n      add\n      swap2\n      pop\n      pop\n        /* \"bank.sol\":2218:2598  for (uint256 i = 0; i < num - 1; i++) {... */\n      jump(tag_94)\n    tag_95:\n      pop\n        /* \"bank.sol\":2169:2604  {... */\n      pop\n        /* \"bank.sol\":2138:2604  function bubbleSort() internal {... */\n      jump\t// out\n        /* \"bank.sol\":111:154  mapping(address => uint256) public balances */\n    tag_63:\n      mstore(0x20, 0x01)\n      dup1\n      0x00\n      mstore\n      keccak256(0x00, 0x40)\n      0x00\n      swap2\n      pop\n      swap1\n      pop\n      sload\n      dup2\n      jump\t// out\n        /* \"bank.sol\":2610:2711  function getRankings() public view returns (RankingStruct[3] memory) {... */\n    tag_68:\n        /* \"bank.sol\":2654:2677  RankingStruct[3] memory */\n      tag_121\n      tag_122\n      jump\t// in\n    tag_121:\n        /* \"bank.sol\":2696:2704  topUsers */\n      0x02\n        /* \"bank.sol\":2689:2704  return topUsers */\n      0x03\n      dup1\n      0x20\n      mul\n      mload(0x40)\n      swap1\n      dup2\n      add\n      0x40\n      mstore\n      dup1\n      swap3\n      swap2\n      swap1\n      0x00\n      swap1\n    tag_124:\n      dup3\n      dup3\n      lt\n      iszero\n      tag_125\n      jumpi\n      dup4\n      dup3\n      0x02\n      mul\n      add\n      mload(0x40)\n      dup1\n      0x40\n      add\n      0x40\n      mstore\n      swap1\n      dup2\n      0x00\n      dup3\n      add\n      0x00\n      swap1\n      sload\n      swap1\n      0x0100\n      exp\n      swap1\n      div\n      0xffffffffffffffffffffffffffffffffffffffff\n      and\n      0xffffffffffffffffffffffffffffffffffffffff\n      and\n      0xffffffffffffffffffffffffffffffffffffffff\n      and\n      dup2\n      mstore\n      0x20\n      add\n      0x01\n      dup3\n      add\n      sload\n      dup2\n      mstore\n      pop\n      pop\n      dup2\n      mstore\n      0x20\n      add\n      swap1\n      0x01\n      add\n      swap1\n      jump(tag_124)\n    tag_125:\n      pop\n      pop\n      pop\n      pop\n      swap1\n      pop\n        /* \"bank.sol\":2610:2711  function getRankings() public view returns (RankingStruct[3] memory) {... */\n      swap1\n      jump\t// out\n        /* \"bank.sol\":1468:1658  function withdraw() public returns (uint256) {... */\n    tag_73:\n        /* \"bank.sol\":1504:1511  uint256 */\n      0x00\n        /* \"bank.sol\":1545:1550  admin */\n      dup1\n      0x00\n      swap1\n      sload\n      swap1\n      0x0100\n      exp\n      swap1\n      div\n      0xffffffffffffffffffffffffffffffffffffffff\n      and\n        /* \"bank.sol\":1531:1550  msg.sender == admin */\n      0xffffffffffffffffffffffffffffffffffffffff\n      and\n        /* \"bank.sol\":1531:1541  msg.sender */\n      caller\n        /* \"bank.sol\":1531:1550  msg.sender == admin */\n      0xffffffffffffffffffffffffffffffffffffffff\n      and\n      eq\n        /* \"bank.sol\":1523:1566  require(msg.sender == admin, \"admin wrong\") */\n      tag_128\n      jumpi\n      mload(0x40)\n      0x08c379a000000000000000000000000000000000000000000000000000000000\n      dup2\n      mstore\n      0x04\n      add\n      tag_129\n      swap1\n      tag_130\n      jump\t// in\n    tag_129:\n      mload(0x40)\n      dup1\n      swap2\n      sub\n      swap1\n      revert\n    tag_128:\n        /* \"bank.sol\":1576:1581  admin */\n      0x00\n      dup1\n      sload\n      swap1\n      0x0100\n      exp\n      swap1\n      div\n      0xffffffffffffffffffffffffffffffffffffffff\n      and\n        /* \"bank.sol\":1576:1590  admin.transfer */\n      0xffffffffffffffffffffffffffffffffffffffff\n      and\n        /* \"bank.sol\":1576:1613  admin.transfer(address(this).balance) */\n      0x08fc\n        /* \"bank.sol\":1591:1612  address(this).balance */\n      selfbalance\n        /* \"bank.sol\":1576:1613  admin.transfer(address(this).balance) */\n      swap1\n      dup2\n      iszero\n      mul\n      swap1\n      mload(0x40)\n      0x00\n      mload(0x40)\n      dup1\n      dup4\n      sub\n      dup2\n      dup6\n      dup9\n      dup9\n      call\n      swap4\n      pop\n      pop\n      pop\n      pop\n      iszero\n      dup1\n      iszero\n      tag_132\n      jumpi\n      returndatasize\n      0x00\n      dup1\n      returndatacopy\n      revert(0x00, returndatasize)\n    tag_132:\n      pop\n        /* \"bank.sol\":1630:1651  address(this).balance */\n      selfbalance\n        /* \"bank.sol\":1623:1651  return address(this).balance */\n      swap1\n      pop\n        /* \"bank.sol\":1468:1658  function withdraw() public returns (uint256) {... */\n      swap1\n      jump\t// out\n        /* \"bank.sol\":160:192  RankingStruct[3] public topUsers */\n    tag_79:\n      0x02\n      dup2\n      0x03\n      dup2\n      lt\n      tag_133\n      jumpi\n      0x00\n      dup1\n      revert\n    tag_133:\n      0x02\n      mul\n      add\n      0x00\n      swap2\n      pop\n      swap1\n      pop\n      dup1\n      0x00\n      add\n      0x00\n      swap1\n      sload\n      swap1\n      0x0100\n      exp\n      swap1\n      div\n      0xffffffffffffffffffffffffffffffffffffffff\n      and\n      swap1\n      dup1\n      0x01\n      add\n      sload\n      swap1\n      pop\n      dup3\n      jump\t// out\n        /* \"bank.sol\":2717:3104  function checkUserInTopUsers(address user)... */\n    tag_85:\n        /* \"bank.sol\":2818:2828  bool found */\n      0x00\n        /* \"bank.sol\":2842:2857  uint256 balance */\n      dup1\n        /* \"bank.sol\":2871:2887  uint256 position */\n      0x00\n        /* \"bank.sol\":2917:2926  uint256 i */\n      dup1\n        /* \"bank.sol\":2929:2930  0 */\n      0x00\n        /* \"bank.sol\":2917:2930  uint256 i = 0 */\n      swap1\n      pop\n        /* \"bank.sol\":2912:3068  for (uint256 i = 0; i < 3; i++) {... */\n    tag_136:\n        /* \"bank.sol\":2936:2937  3 */\n      0x03\n        /* \"bank.sol\":2932:2933  i */\n      dup2\n        /* \"bank.sol\":2932:2937  i < 3 */\n      lt\n        /* \"bank.sol\":2912:3068  for (uint256 i = 0; i < 3; i++) {... */\n      iszero\n      tag_137\n      jumpi\n        /* \"bank.sol\":2970:2978  topUsers */\n      0x02\n        /* \"bank.sol\":2979:2980  i */\n      dup2\n        /* \"bank.sol\":2970:2981  topUsers[i] */\n      0x03\n      dup2\n      lt\n      tag_139\n      jumpi\n      tag_140\n      tag_18\n      jump\t// in\n    tag_140:\n    tag_139:\n      0x02\n      mul\n      add\n        /* \"bank.sol\":2970:2986  topUsers[i].addr */\n      0x00\n      add\n      0x00\n      swap1\n      sload\n      swap1\n      0x0100\n      exp\n      swap1\n      div\n      0xffffffffffffffffffffffffffffffffffffffff\n      and\n        /* \"bank.sol\":2962:2986  user == topUsers[i].addr */\n      0xffffffffffffffffffffffffffffffffffffffff\n      and\n        /* \"bank.sol\":2962:2966  user */\n      dup6\n        /* \"bank.sol\":2962:2986  user == topUsers[i].addr */\n      0xffffffffffffffffffffffffffffffffffffffff\n      and\n      sub\n        /* \"bank.sol\":2958:3058  if (user == topUsers[i].addr) {... */\n      tag_142\n      jumpi\n        /* \"bank.sol\":3014:3018  true */\n      0x01\n        /* \"bank.sol\":3020:3028  topUsers */\n      0x02\n        /* \"bank.sol\":3029:3030  i */\n      dup3\n        /* \"bank.sol\":3020:3031  topUsers[i] */\n      0x03\n      dup2\n      lt\n      tag_143\n      jumpi\n      tag_144\n      tag_18\n      jump\t// in\n    tag_144:\n    tag_143:\n      0x02\n      mul\n      add\n        /* \"bank.sol\":3020:3039  topUsers[i].balance */\n      0x01\n      add\n      sload\n        /* \"bank.sol\":3041:3042  i */\n      dup3\n        /* \"bank.sol\":3006:3043  return (true, topUsers[i].balance, i) */\n      swap4\n      pop\n      swap4\n      pop\n      swap4\n      pop\n      pop\n      jump(tag_135)\n        /* \"bank.sol\":2958:3058  if (user == topUsers[i].addr) {... */\n    tag_142:\n        /* \"bank.sol\":2939:2942  i++ */\n      dup1\n      dup1\n      0x01\n      add\n      swap2\n      pop\n      pop\n        /* \"bank.sol\":2912:3068  for (uint256 i = 0; i < 3; i++) {... */\n      jump(tag_136)\n    tag_137:\n      pop\n        /* \"bank.sol\":3085:3090  false */\n      0x00\n        /* \"bank.sol\":3092:3093  0 */\n      dup1\n        /* \"bank.sol\":3095:3096  0 */\n      0x00\n        /* \"bank.sol\":3077:3097  return (false, 0, 0) */\n      swap3\n      pop\n      swap3\n      pop\n      swap3\n      pop\n        /* \"bank.sol\":2717:3104  function checkUserInTopUsers(address user)... */\n    tag_135:\n      swap2\n      swap4\n      swap1\n      swap3\n      pop\n      jump\t// out\n        /* \"bank.sol\":77:105  address payable public admin */\n    tag_90:\n      0x00\n      dup1\n      sload\n      swap1\n      0x0100\n      exp\n      swap1\n      div\n      0xffffffffffffffffffffffffffffffffffffffff\n      and\n      dup2\n      jump\t// out\n        /* \"bank.sol\":1664:1761  function compare(uint256 a, uint256 b) internal pure returns (bool) {... */\n    tag_112:\n        /* \"bank.sol\":1726:1730  bool */\n      0x00\n        /* \"bank.sol\":1753:1754  b */\n      dup2\n        /* \"bank.sol\":1749:1750  a */\n      dup4\n        /* \"bank.sol\":1749:1754  a > b */\n      gt\n        /* \"bank.sol\":1742:1754  return a > b */\n      swap1\n      pop\n        /* \"bank.sol\":1664:1761  function compare(uint256 a, uint256 b) internal pure returns (bool) {... */\n      swap3\n      swap2\n      pop\n      pop\n      jump\t// out\n        /* \"bank.sol\":1767:2132  function rightBigger(... */\n    tag_113:\n        /* \"bank.sol\":1958:1978  RankingStruct memory */\n      tag_147\n      tag_148\n      jump\t// in\n    tag_147:\n        /* \"bank.sol\":1980:2000  RankingStruct memory */\n      tag_149\n      tag_148\n      jump\t// in\n    tag_149:\n        /* \"bank.sol\":2016:2049  func(left.balance, right.balance) */\n      tag_151\n        /* \"bank.sol\":2021:2025  left */\n      dup6\n        /* \"bank.sol\":2021:2033  left.balance */\n      0x20\n      add\n      mload\n        /* \"bank.sol\":2035:2040  right */\n      dup6\n        /* \"bank.sol\":2035:2048  right.balance */\n      0x20\n      add\n      mload\n        /* \"bank.sol\":2016:2020  func */\n      dup6\n        /* \"bank.sol\":2016:2049  func(left.balance, right.balance) */\n      0xffffffff\n      and\n      jump\t// in\n    tag_151:\n        /* \"bank.sol\":2012:2096  if (func(left.balance, right.balance)) {... */\n      iszero\n      tag_152\n      jumpi\n        /* \"bank.sol\":2073:2078  right */\n      dup4\n        /* \"bank.sol\":2080:2084  left */\n      dup6\n        /* \"bank.sol\":2065:2085  return (right, left) */\n      swap2\n      pop\n      swap2\n      pop\n      jump(tag_150)\n        /* \"bank.sol\":2012:2096  if (func(left.balance, right.balance)) {... */\n    tag_152:\n        /* \"bank.sol\":2113:2117  left */\n      dup5\n        /* \"bank.sol\":2119:2124  right */\n      dup5\n        /* \"bank.sol\":2105:2125  return (left, right) */\n      swap2\n      pop\n      swap2\n      pop\n        /* \"bank.sol\":1767:2132  function rightBigger(... */\n    tag_150:\n      swap4\n      pop\n      swap4\n      swap2\n      pop\n      pop\n      jump\t// out\n    tag_122:\n      mload(0x40)\n      dup1\n      0x60\n      add\n      0x40\n      mstore\n      dup1\n      0x03\n      swap1\n    tag_153:\n      tag_154\n      tag_148\n      jump\t// in\n    tag_154:\n      dup2\n      mstore\n      0x20\n      add\n      swap1\n      0x01\n      swap1\n      sub\n      swap1\n      dup2\n      tag_153\n      jumpi\n      swap1\n      pop\n      pop\n      swap1\n      jump\t// out\n    tag_148:\n      mload(0x40)\n      dup1\n      0x40\n      add\n      0x40\n      mstore\n      dup1\n      and(0xffffffffffffffffffffffffffffffffffffffff, 0x00)\n      dup2\n      mstore\n      0x20\n      add\n      0x00\n      dup2\n      mstore\n      pop\n      swap1\n      jump\t// out\n        /* \"#utility.yul\":7:84   */\n    tag_155:\n        /* \"#utility.yul\":44:51   */\n      0x00\n        /* \"#utility.yul\":73:78   */\n      dup2\n        /* \"#utility.yul\":62:78   */\n      swap1\n      pop\n        /* \"#utility.yul\":7:84   */\n      swap2\n      swap1\n      pop\n      jump\t// out\n        /* \"#utility.yul\":90:270   */\n    tag_156:\n        /* \"#utility.yul\":138:215   */\n      0x4e487b7100000000000000000000000000000000000000000000000000000000\n        /* \"#utility.yul\":135:136   */\n      0x00\n        /* \"#utility.yul\":128:216   */\n      mstore\n        /* \"#utility.yul\":235:239   */\n      0x11\n        /* \"#utility.yul\":232:233   */\n      0x04\n        /* \"#utility.yul\":225:240   */\n      mstore\n        /* \"#utility.yul\":259:263   */\n      0x24\n        /* \"#utility.yul\":256:257   */\n      0x00\n        /* \"#utility.yul\":249:264   */\n      revert\n        /* \"#utility.yul\":276:467   */\n    tag_12:\n        /* \"#utility.yul\":316:319   */\n      0x00\n        /* \"#utility.yul\":335:355   */\n      tag_188\n        /* \"#utility.yul\":353:354   */\n      dup3\n        /* \"#utility.yul\":335:355   */\n      tag_155\n      jump\t// in\n    tag_188:\n        /* \"#utility.yul\":330:355   */\n      swap2\n      pop\n        /* \"#utility.yul\":369:389   */\n      tag_189\n        /* \"#utility.yul\":387:388   */\n      dup4\n        /* \"#utility.yul\":369:389   */\n      tag_155\n      jump\t// in\n    tag_189:\n        /* \"#utility.yul\":364:389   */\n      swap3\n      pop\n        /* \"#utility.yul\":412:413   */\n      dup3\n        /* \"#utility.yul\":409:410   */\n      dup3\n        /* \"#utility.yul\":405:414   */\n      add\n        /* \"#utility.yul\":398:414   */\n      swap1\n      pop\n        /* \"#utility.yul\":433:436   */\n      dup1\n        /* \"#utility.yul\":430:431   */\n      dup3\n        /* \"#utility.yul\":427:437   */\n      gt\n        /* \"#utility.yul\":424:460   */\n      iszero\n      tag_190\n      jumpi\n        /* \"#utility.yul\":440:458   */\n      tag_191\n      tag_156\n      jump\t// in\n    tag_191:\n        /* \"#utility.yul\":424:460   */\n    tag_190:\n        /* \"#utility.yul\":276:467   */\n      swap3\n      swap2\n      pop\n      pop\n      jump\t// out\n        /* \"#utility.yul\":473:653   */\n    tag_18:\n        /* \"#utility.yul\":521:598   */\n      0x4e487b7100000000000000000000000000000000000000000000000000000000\n        /* \"#utility.yul\":518:519   */\n      0x00\n        /* \"#utility.yul\":511:599   */\n      mstore\n        /* \"#utility.yul\":618:622   */\n      0x32\n        /* \"#utility.yul\":615:616   */\n      0x04\n        /* \"#utility.yul\":608:623   */\n      mstore\n        /* \"#utility.yul\":642:646   */\n      0x24\n        /* \"#utility.yul\":639:640   */\n      0x00\n        /* \"#utility.yul\":632:647   */\n      revert\n        /* \"#utility.yul\":740:857   */\n    tag_158:\n        /* \"#utility.yul\":849:850   */\n      0x00\n        /* \"#utility.yul\":846:847   */\n      dup1\n        /* \"#utility.yul\":839:851   */\n      revert\n        /* \"#utility.yul\":986:1112   */\n    tag_160:\n        /* \"#utility.yul\":1023:1030   */\n      0x00\n        /* \"#utility.yul\":1063:1105   */\n      0xffffffffffffffffffffffffffffffffffffffff\n        /* \"#utility.yul\":1056:1061   */\n      dup3\n        /* \"#utility.yul\":1052:1106   */\n      and\n        /* \"#utility.yul\":1041:1106   */\n      swap1\n      pop\n        /* \"#utility.yul\":986:1112   */\n      swap2\n      swap1\n      pop\n      jump\t// out\n        /* \"#utility.yul\":1118:1214   */\n    tag_161:\n        /* \"#utility.yul\":1155:1162   */\n      0x00\n        /* \"#utility.yul\":1184:1208   */\n      tag_198\n        /* \"#utility.yul\":1202:1207   */\n      dup3\n        /* \"#utility.yul\":1184:1208   */\n      tag_160\n      jump\t// in\n    tag_198:\n        /* \"#utility.yul\":1173:1208   */\n      swap1\n      pop\n        /* \"#utility.yul\":1118:1214   */\n      swap2\n      swap1\n      pop\n      jump\t// out\n        /* \"#utility.yul\":1220:1342   */\n    tag_162:\n        /* \"#utility.yul\":1293:1317   */\n      tag_200\n        /* \"#utility.yul\":1311:1316   */\n      dup2\n        /* \"#utility.yul\":1293:1317   */\n      tag_161\n      jump\t// in\n    tag_200:\n        /* \"#utility.yul\":1286:1291   */\n      dup2\n        /* \"#utility.yul\":1283:1318   */\n      eq\n        /* \"#utility.yul\":1273:1336   */\n      tag_201\n      jumpi\n        /* \"#utility.yul\":1332:1333   */\n      0x00\n        /* \"#utility.yul\":1329:1330   */\n      dup1\n        /* \"#utility.yul\":1322:1334   */\n      revert\n        /* \"#utility.yul\":1273:1336   */\n    tag_201:\n        /* \"#utility.yul\":1220:1342   */\n      pop\n      jump\t// out\n        /* \"#utility.yul\":1348:1487   */\n    tag_163:\n        /* \"#utility.yul\":1394:1399   */\n      0x00\n        /* \"#utility.yul\":1432:1438   */\n      dup2\n        /* \"#utility.yul\":1419:1439   */\n      calldataload\n        /* \"#utility.yul\":1410:1439   */\n      swap1\n      pop\n        /* \"#utility.yul\":1448:1481   */\n      tag_203\n        /* \"#utility.yul\":1475:1480   */\n      dup2\n        /* \"#utility.yul\":1448:1481   */\n      tag_162\n      jump\t// in\n    tag_203:\n        /* \"#utility.yul\":1348:1487   */\n      swap3\n      swap2\n      pop\n      pop\n      jump\t// out\n        /* \"#utility.yul\":1493:1822   */\n    tag_62:\n        /* \"#utility.yul\":1552:1558   */\n      0x00\n        /* \"#utility.yul\":1601:1603   */\n      0x20\n        /* \"#utility.yul\":1589:1598   */\n      dup3\n        /* \"#utility.yul\":1580:1587   */\n      dup5\n        /* \"#utility.yul\":1576:1599   */\n      sub\n        /* \"#utility.yul\":1572:1604   */\n      slt\n        /* \"#utility.yul\":1569:1688   */\n      iszero\n      tag_205\n      jumpi\n        /* \"#utility.yul\":1607:1686   */\n      tag_206\n      tag_158\n      jump\t// in\n    tag_206:\n        /* \"#utility.yul\":1569:1688   */\n    tag_205:\n        /* \"#utility.yul\":1727:1728   */\n      0x00\n        /* \"#utility.yul\":1752:1805   */\n      tag_207\n        /* \"#utility.yul\":1797:1804   */\n      dup5\n        /* \"#utility.yul\":1788:1794   */\n      dup3\n        /* \"#utility.yul\":1777:1786   */\n      dup6\n        /* \"#utility.yul\":1773:1795   */\n      add\n        /* \"#utility.yul\":1752:1805   */\n      tag_163\n      jump\t// in\n    tag_207:\n        /* \"#utility.yul\":1742:1805   */\n      swap2\n      pop\n        /* \"#utility.yul\":1698:1815   */\n      pop\n        /* \"#utility.yul\":1493:1822   */\n      swap3\n      swap2\n      pop\n      pop\n      jump\t// out\n        /* \"#utility.yul\":1828:1946   */\n    tag_164:\n        /* \"#utility.yul\":1915:1939   */\n      tag_209\n        /* \"#utility.yul\":1933:1938   */\n      dup2\n        /* \"#utility.yul\":1915:1939   */\n      tag_155\n      jump\t// in\n    tag_209:\n        /* \"#utility.yul\":1910:1913   */\n      dup3\n        /* \"#utility.yul\":1903:1940   */\n      mstore\n        /* \"#utility.yul\":1828:1946   */\n      pop\n      pop\n      jump\t// out\n        /* \"#utility.yul\":1952:2174   */\n    tag_65:\n        /* \"#utility.yul\":2045:2049   */\n      0x00\n        /* \"#utility.yul\":2083:2085   */\n      0x20\n        /* \"#utility.yul\":2072:2081   */\n      dup3\n        /* \"#utility.yul\":2068:2086   */\n      add\n        /* \"#utility.yul\":2060:2086   */\n      swap1\n      pop\n        /* \"#utility.yul\":2096:2167   */\n      tag_211\n        /* \"#utility.yul\":2164:2165   */\n      0x00\n        /* \"#utility.yul\":2153:2162   */\n      dup4\n        /* \"#utility.yul\":2149:2166   */\n      add\n        /* \"#utility.yul\":2140:2146   */\n      dup5\n        /* \"#utility.yul\":2096:2167   */\n      tag_164\n      jump\t// in\n    tag_211:\n        /* \"#utility.yul\":1952:2174   */\n      swap3\n      swap2\n      pop\n      pop\n      jump\t// out\n        /* \"#utility.yul\":2180:2313   */\n    tag_165:\n        /* \"#utility.yul\":2274:2280   */\n      0x00\n        /* \"#utility.yul\":2302:2306   */\n      0x03\n        /* \"#utility.yul\":2292:2306   */\n      swap1\n      pop\n        /* \"#utility.yul\":2180:2313   */\n      swap2\n      swap1\n      pop\n      jump\t// out\n        /* \"#utility.yul\":2319:2491   */\n    tag_166:\n        /* \"#utility.yul\":2445:2456   */\n      0x00\n        /* \"#utility.yul\":2482:2485   */\n      dup2\n        /* \"#utility.yul\":2467:2485   */\n      swap1\n      pop\n        /* \"#utility.yul\":2319:2491   */\n      swap3\n      swap2\n      pop\n      pop\n      jump\t// out\n        /* \"#utility.yul\":2497:2624   */\n    tag_167:\n        /* \"#utility.yul\":2591:2595   */\n      0x00\n        /* \"#utility.yul\":2614:2617   */\n      dup2\n        /* \"#utility.yul\":2606:2617   */\n      swap1\n      pop\n        /* \"#utility.yul\":2497:2624   */\n      swap2\n      swap1\n      pop\n      jump\t// out\n        /* \"#utility.yul\":2630:2738   */\n    tag_168:\n        /* \"#utility.yul\":2707:2731   */\n      tag_216\n        /* \"#utility.yul\":2725:2730   */\n      dup2\n        /* \"#utility.yul\":2707:2731   */\n      tag_161\n      jump\t// in\n    tag_216:\n        /* \"#utility.yul\":2702:2705   */\n      dup3\n        /* \"#utility.yul\":2695:2732   */\n      mstore\n        /* \"#utility.yul\":2630:2738   */\n      pop\n      pop\n      jump\t// out\n        /* \"#utility.yul\":2744:2852   */\n    tag_169:\n        /* \"#utility.yul\":2821:2845   */\n      tag_218\n        /* \"#utility.yul\":2839:2844   */\n      dup2\n        /* \"#utility.yul\":2821:2845   */\n      tag_155\n      jump\t// in\n    tag_218:\n        /* \"#utility.yul\":2816:2819   */\n      dup3\n        /* \"#utility.yul\":2809:2846   */\n      mstore\n        /* \"#utility.yul\":2744:2852   */\n      pop\n      pop\n      jump\t// out\n        /* \"#utility.yul\":2920:3428   */\n    tag_170:\n        /* \"#utility.yul\":3065:3069   */\n      0x40\n        /* \"#utility.yul\":3060:3063   */\n      dup3\n        /* \"#utility.yul\":3056:3070   */\n      add\n        /* \"#utility.yul\":3152:3156   */\n      0x00\n        /* \"#utility.yul\":3145:3150   */\n      dup3\n        /* \"#utility.yul\":3141:3157   */\n      add\n        /* \"#utility.yul\":3135:3158   */\n      mload\n        /* \"#utility.yul\":3171:3234   */\n      tag_220\n        /* \"#utility.yul\":3228:3232   */\n      0x00\n        /* \"#utility.yul\":3223:3226   */\n      dup6\n        /* \"#utility.yul\":3219:3233   */\n      add\n        /* \"#utility.yul\":3205:3217   */\n      dup3\n        /* \"#utility.yul\":3171:3234   */\n      tag_168\n      jump\t// in\n    tag_220:\n        /* \"#utility.yul\":3080:3244   */\n      pop\n        /* \"#utility.yul\":3329:3333   */\n      0x20\n        /* \"#utility.yul\":3322:3327   */\n      dup3\n        /* \"#utility.yul\":3318:3334   */\n      add\n        /* \"#utility.yul\":3312:3335   */\n      mload\n        /* \"#utility.yul\":3348:3411   */\n      tag_221\n        /* \"#utility.yul\":3405:3409   */\n      0x20\n        /* \"#utility.yul\":3400:3403   */\n      dup6\n        /* \"#utility.yul\":3396:3410   */\n      add\n        /* \"#utility.yul\":3382:3394   */\n      dup3\n        /* \"#utility.yul\":3348:3411   */\n      tag_169\n      jump\t// in\n    tag_221:\n        /* \"#utility.yul\":3254:3421   */\n      pop\n        /* \"#utility.yul\":3034:3428   */\n      pop\n        /* \"#utility.yul\":2920:3428   */\n      pop\n      pop\n      jump\t// out\n        /* \"#utility.yul\":3434:3729   */\n    tag_171:\n        /* \"#utility.yul\":3561:3571   */\n      0x00\n        /* \"#utility.yul\":3582:3686   */\n      tag_223\n        /* \"#utility.yul\":3682:3685   */\n      dup4\n        /* \"#utility.yul\":3674:3680   */\n      dup4\n        /* \"#utility.yul\":3582:3686   */\n      tag_170\n      jump\t// in\n    tag_223:\n        /* \"#utility.yul\":3718:3722   */\n      0x40\n        /* \"#utility.yul\":3713:3716   */\n      dup4\n        /* \"#utility.yul\":3709:3723   */\n      add\n        /* \"#utility.yul\":3695:3723   */\n      swap1\n      pop\n        /* \"#utility.yul\":3434:3729   */\n      swap3\n      swap2\n      pop\n      pop\n      jump\t// out\n        /* \"#utility.yul\":3735:3875   */\n    tag_172:\n        /* \"#utility.yul\":3832:3836   */\n      0x00\n        /* \"#utility.yul\":3864:3868   */\n      0x20\n        /* \"#utility.yul\":3859:3862   */\n      dup3\n        /* \"#utility.yul\":3855:3869   */\n      add\n        /* \"#utility.yul\":3847:3869   */\n      swap1\n      pop\n        /* \"#utility.yul\":3735:3875   */\n      swap2\n      swap1\n      pop\n      jump\t// out\n        /* \"#utility.yul\":3949:4875   */\n    tag_173:\n        /* \"#utility.yul\":4143:4224   */\n      tag_226\n        /* \"#utility.yul\":4218:4223   */\n      dup2\n        /* \"#utility.yul\":4143:4224   */\n      tag_165\n      jump\t// in\n    tag_226:\n        /* \"#utility.yul\":4240:4353   */\n      tag_227\n        /* \"#utility.yul\":4346:4352   */\n      dup2\n        /* \"#utility.yul\":4341:4344   */\n      dup5\n        /* \"#utility.yul\":4240:4353   */\n      tag_166\n      jump\t// in\n    tag_227:\n        /* \"#utility.yul\":4233:4353   */\n      swap3\n      pop\n        /* \"#utility.yul\":4377:4460   */\n      tag_228\n        /* \"#utility.yul\":4454:4459   */\n      dup3\n        /* \"#utility.yul\":4377:4460   */\n      tag_167\n      jump\t// in\n    tag_228:\n        /* \"#utility.yul\":4483:4490   */\n      dup1\n        /* \"#utility.yul\":4514:4515   */\n      0x00\n        /* \"#utility.yul\":4499:4868   */\n    tag_229:\n        /* \"#utility.yul\":4524:4530   */\n      dup4\n        /* \"#utility.yul\":4521:4522   */\n      dup2\n        /* \"#utility.yul\":4518:4531   */\n      lt\n        /* \"#utility.yul\":4499:4868   */\n      iszero\n      tag_231\n      jumpi\n        /* \"#utility.yul\":4600:4606   */\n      dup2\n        /* \"#utility.yul\":4594:4607   */\n      mload\n        /* \"#utility.yul\":4627:4748   */\n      tag_232\n        /* \"#utility.yul\":4744:4747   */\n      dup8\n        /* \"#utility.yul\":4729:4742   */\n      dup3\n        /* \"#utility.yul\":4627:4748   */\n      tag_171\n      jump\t// in\n    tag_232:\n        /* \"#utility.yul\":4620:4748   */\n      swap7\n      pop\n        /* \"#utility.yul\":4771:4858   */\n      tag_233\n        /* \"#utility.yul\":4851:4857   */\n      dup4\n        /* \"#utility.yul\":4771:4858   */\n      tag_172\n      jump\t// in\n    tag_233:\n        /* \"#utility.yul\":4761:4858   */\n      swap3\n      pop\n        /* \"#utility.yul\":4559:4868   */\n      pop\n        /* \"#utility.yul\":4546:4547   */\n      0x01\n        /* \"#utility.yul\":4543:4544   */\n      dup2\n        /* \"#utility.yul\":4539:4548   */\n      add\n        /* \"#utility.yul\":4534:4548   */\n      swap1\n      pop\n        /* \"#utility.yul\":4499:4868   */\n      jump(tag_229)\n    tag_231:\n        /* \"#utility.yul\":4503:4517   */\n      pop\n        /* \"#utility.yul\":4119:4875   */\n      pop\n      pop\n      pop\n        /* \"#utility.yul\":3949:4875   */\n      pop\n      pop\n      jump\t// out\n        /* \"#utility.yul\":4881:5312   */\n    tag_70:\n        /* \"#utility.yul\":5078:5082   */\n      0x00\n        /* \"#utility.yul\":5116:5119   */\n      0xc0\n        /* \"#utility.yul\":5105:5114   */\n      dup3\n        /* \"#utility.yul\":5101:5120   */\n      add\n        /* \"#utility.yul\":5093:5120   */\n      swap1\n      pop\n        /* \"#utility.yul\":5130:5305   */\n      tag_235\n        /* \"#utility.yul\":5302:5303   */\n      0x00\n        /* \"#utility.yul\":5291:5300   */\n      dup4\n        /* \"#utility.yul\":5287:5304   */\n      add\n        /* \"#utility.yul\":5278:5284   */\n      dup5\n        /* \"#utility.yul\":5130:5305   */\n      tag_173\n      jump\t// in\n    tag_235:\n        /* \"#utility.yul\":4881:5312   */\n      swap3\n      swap2\n      pop\n      pop\n      jump\t// out\n        /* \"#utility.yul\":5318:5440   */\n    tag_174:\n        /* \"#utility.yul\":5391:5415   */\n      tag_237\n        /* \"#utility.yul\":5409:5414   */\n      dup2\n        /* \"#utility.yul\":5391:5415   */\n      tag_155\n      jump\t// in\n    tag_237:\n        /* \"#utility.yul\":5384:5389   */\n      dup2\n        /* \"#utility.yul\":5381:5416   */\n      eq\n        /* \"#utility.yul\":5371:5434   */\n      tag_238\n      jumpi\n        /* \"#utility.yul\":5430:5431   */\n      0x00\n        /* \"#utility.yul\":5427:5428   */\n      dup1\n        /* \"#utility.yul\":5420:5432   */\n      revert\n        /* \"#utility.yul\":5371:5434   */\n    tag_238:\n        /* \"#utility.yul\":5318:5440   */\n      pop\n      jump\t// out\n        /* \"#utility.yul\":5446:5585   */\n    tag_175:\n        /* \"#utility.yul\":5492:5497   */\n      0x00\n        /* \"#utility.yul\":5530:5536   */\n      dup2\n        /* \"#utility.yul\":5517:5537   */\n      calldataload\n        /* \"#utility.yul\":5508:5537   */\n      swap1\n      pop\n        /* \"#utility.yul\":5546:5579   */\n      tag_240\n        /* \"#utility.yul\":5573:5578   */\n      dup2\n        /* \"#utility.yul\":5546:5579   */\n      tag_174\n      jump\t// in\n    tag_240:\n        /* \"#utility.yul\":5446:5585   */\n      swap3\n      swap2\n      pop\n      pop\n      jump\t// out\n        /* \"#utility.yul\":5591:5920   */\n    tag_78:\n        /* \"#utility.yul\":5650:5656   */\n      0x00\n        /* \"#utility.yul\":5699:5701   */\n      0x20\n        /* \"#utility.yul\":5687:5696   */\n      dup3\n        /* \"#utility.yul\":5678:5685   */\n      dup5\n        /* \"#utility.yul\":5674:5697   */\n      sub\n        /* \"#utility.yul\":5670:5702   */\n      slt\n        /* \"#utility.yul\":5667:5786   */\n      iszero\n      tag_242\n      jumpi\n        /* \"#utility.yul\":5705:5784   */\n      tag_243\n      tag_158\n      jump\t// in\n    tag_243:\n        /* \"#utility.yul\":5667:5786   */\n    tag_242:\n        /* \"#utility.yul\":5825:5826   */\n      0x00\n        /* \"#utility.yul\":5850:5903   */\n      tag_244\n        /* \"#utility.yul\":5895:5902   */\n      dup5\n        /* \"#utility.yul\":5886:5892   */\n      dup3\n        /* \"#utility.yul\":5875:5884   */\n      dup6\n        /* \"#utility.yul\":5871:5893   */\n      add\n        /* \"#utility.yul\":5850:5903   */\n      tag_175\n      jump\t// in\n    tag_244:\n        /* \"#utility.yul\":5840:5903   */\n      swap2\n      pop\n        /* \"#utility.yul\":5796:5913   */\n      pop\n        /* \"#utility.yul\":5591:5920   */\n      swap3\n      swap2\n      pop\n      pop\n      jump\t// out\n        /* \"#utility.yul\":5926:6044   */\n    tag_176:\n        /* \"#utility.yul\":6013:6037   */\n      tag_246\n        /* \"#utility.yul\":6031:6036   */\n      dup2\n        /* \"#utility.yul\":6013:6037   */\n      tag_161\n      jump\t// in\n    tag_246:\n        /* \"#utility.yul\":6008:6011   */\n      dup3\n        /* \"#utility.yul\":6001:6038   */\n      mstore\n        /* \"#utility.yul\":5926:6044   */\n      pop\n      pop\n      jump\t// out\n        /* \"#utility.yul\":6050:6382   */\n    tag_81:\n        /* \"#utility.yul\":6171:6175   */\n      0x00\n        /* \"#utility.yul\":6209:6211   */\n      0x40\n        /* \"#utility.yul\":6198:6207   */\n      dup3\n        /* \"#utility.yul\":6194:6212   */\n      add\n        /* \"#utility.yul\":6186:6212   */\n      swap1\n      pop\n        /* \"#utility.yul\":6222:6293   */\n      tag_248\n        /* \"#utility.yul\":6290:6291   */\n      0x00\n        /* \"#utility.yul\":6279:6288   */\n      dup4\n        /* \"#utility.yul\":6275:6292   */\n      add\n        /* \"#utility.yul\":6266:6272   */\n      dup6\n        /* \"#utility.yul\":6222:6293   */\n      tag_176\n      jump\t// in\n    tag_248:\n        /* \"#utility.yul\":6303:6375   */\n      tag_249\n        /* \"#utility.yul\":6371:6373   */\n      0x20\n        /* \"#utility.yul\":6360:6369   */\n      dup4\n        /* \"#utility.yul\":6356:6374   */\n      add\n        /* \"#utility.yul\":6347:6353   */\n      dup5\n        /* \"#utility.yul\":6303:6375   */\n      tag_164\n      jump\t// in\n    tag_249:\n        /* \"#utility.yul\":6050:6382   */\n      swap4\n      swap3\n      pop\n      pop\n      pop\n      jump\t// out\n        /* \"#utility.yul\":6388:6478   */\n    tag_177:\n        /* \"#utility.yul\":6422:6429   */\n      0x00\n        /* \"#utility.yul\":6465:6470   */\n      dup2\n        /* \"#utility.yul\":6458:6471   */\n      iszero\n        /* \"#utility.yul\":6451:6472   */\n      iszero\n        /* \"#utility.yul\":6440:6472   */\n      swap1\n      pop\n        /* \"#utility.yul\":6388:6478   */\n      swap2\n      swap1\n      pop\n      jump\t// out\n        /* \"#utility.yul\":6484:6593   */\n    tag_178:\n        /* \"#utility.yul\":6565:6586   */\n      tag_252\n        /* \"#utility.yul\":6580:6585   */\n      dup2\n        /* \"#utility.yul\":6565:6586   */\n      tag_177\n      jump\t// in\n    tag_252:\n        /* \"#utility.yul\":6560:6563   */\n      dup3\n        /* \"#utility.yul\":6553:6587   */\n      mstore\n        /* \"#utility.yul\":6484:6593   */\n      pop\n      pop\n      jump\t// out\n        /* \"#utility.yul\":6599:7029   */\n    tag_87:\n        /* \"#utility.yul\":6742:6746   */\n      0x00\n        /* \"#utility.yul\":6780:6782   */\n      0x60\n        /* \"#utility.yul\":6769:6778   */\n      dup3\n        /* \"#utility.yul\":6765:6783   */\n      add\n        /* \"#utility.yul\":6757:6783   */\n      swap1\n      pop\n        /* \"#utility.yul\":6793:6858   */\n      tag_254\n        /* \"#utility.yul\":6855:6856   */\n      0x00\n        /* \"#utility.yul\":6844:6853   */\n      dup4\n        /* \"#utility.yul\":6840:6857   */\n      add\n        /* \"#utility.yul\":6831:6837   */\n      dup7\n        /* \"#utility.yul\":6793:6858   */\n      tag_178\n      jump\t// in\n    tag_254:\n        /* \"#utility.yul\":6868:6940   */\n      tag_255\n        /* \"#utility.yul\":6936:6938   */\n      0x20\n        /* \"#utility.yul\":6925:6934   */\n      dup4\n        /* \"#utility.yul\":6921:6939   */\n      add\n        /* \"#utility.yul\":6912:6918   */\n      dup6\n        /* \"#utility.yul\":6868:6940   */\n      tag_164\n      jump\t// in\n    tag_255:\n        /* \"#utility.yul\":6950:7022   */\n      tag_256\n        /* \"#utility.yul\":7018:7020   */\n      0x40\n        /* \"#utility.yul\":7007:7016   */\n      dup4\n        /* \"#utility.yul\":7003:7021   */\n      add\n        /* \"#utility.yul\":6994:7000   */\n      dup5\n        /* \"#utility.yul\":6950:7022   */\n      tag_164\n      jump\t// in\n    tag_256:\n        /* \"#utility.yul\":6599:7029   */\n      swap5\n      swap4\n      pop\n      pop\n      pop\n      pop\n      jump\t// out\n        /* \"#utility.yul\":7035:7139   */\n    tag_179:\n        /* \"#utility.yul\":7080:7087   */\n      0x00\n        /* \"#utility.yul\":7109:7133   */\n      tag_258\n        /* \"#utility.yul\":7127:7132   */\n      dup3\n        /* \"#utility.yul\":7109:7133   */\n      tag_160\n      jump\t// in\n    tag_258:\n        /* \"#utility.yul\":7098:7133   */\n      swap1\n      pop\n        /* \"#utility.yul\":7035:7139   */\n      swap2\n      swap1\n      pop\n      jump\t// out\n        /* \"#utility.yul\":7145:7287   */\n    tag_180:\n        /* \"#utility.yul\":7248:7280   */\n      tag_260\n        /* \"#utility.yul\":7274:7279   */\n      dup2\n        /* \"#utility.yul\":7248:7280   */\n      tag_179\n      jump\t// in\n    tag_260:\n        /* \"#utility.yul\":7243:7246   */\n      dup3\n        /* \"#utility.yul\":7236:7281   */\n      mstore\n        /* \"#utility.yul\":7145:7287   */\n      pop\n      pop\n      jump\t// out\n        /* \"#utility.yul\":7293:7547   */\n    tag_92:\n        /* \"#utility.yul\":7402:7406   */\n      0x00\n        /* \"#utility.yul\":7440:7442   */\n      0x20\n        /* \"#utility.yul\":7429:7438   */\n      dup3\n        /* \"#utility.yul\":7425:7443   */\n      add\n        /* \"#utility.yul\":7417:7443   */\n      swap1\n      pop\n        /* \"#utility.yul\":7453:7540   */\n      tag_262\n        /* \"#utility.yul\":7537:7538   */\n      0x00\n        /* \"#utility.yul\":7526:7535   */\n      dup4\n        /* \"#utility.yul\":7522:7539   */\n      add\n        /* \"#utility.yul\":7513:7519   */\n      dup5\n        /* \"#utility.yul\":7453:7540   */\n      tag_180\n      jump\t// in\n    tag_262:\n        /* \"#utility.yul\":7293:7547   */\n      swap3\n      swap2\n      pop\n      pop\n      jump\t// out\n        /* \"#utility.yul\":7553:7747   */\n    tag_98:\n        /* \"#utility.yul\":7593:7597   */\n      0x00\n        /* \"#utility.yul\":7613:7633   */\n      tag_264\n        /* \"#utility.yul\":7631:7632   */\n      dup3\n        /* \"#utility.yul\":7613:7633   */\n      tag_155\n      jump\t// in\n    tag_264:\n        /* \"#utility.yul\":7608:7633   */\n      swap2\n      pop\n        /* \"#utility.yul\":7647:7667   */\n      tag_265\n        /* \"#utility.yul\":7665:7666   */\n      dup4\n        /* \"#utility.yul\":7647:7667   */\n      tag_155\n      jump\t// in\n    tag_265:\n        /* \"#utility.yul\":7642:7667   */\n      swap3\n      pop\n        /* \"#utility.yul\":7691:7692   */\n      dup3\n        /* \"#utility.yul\":7688:7689   */\n      dup3\n        /* \"#utility.yul\":7684:7693   */\n      sub\n        /* \"#utility.yul\":7676:7693   */\n      swap1\n      pop\n        /* \"#utility.yul\":7715:7716   */\n      dup2\n        /* \"#utility.yul\":7709:7713   */\n      dup2\n        /* \"#utility.yul\":7706:7717   */\n      gt\n        /* \"#utility.yul\":7703:7740   */\n      iszero\n      tag_266\n      jumpi\n        /* \"#utility.yul\":7720:7738   */\n      tag_267\n      tag_156\n      jump\t// in\n    tag_267:\n        /* \"#utility.yul\":7703:7740   */\n    tag_266:\n        /* \"#utility.yul\":7553:7747   */\n      swap3\n      swap2\n      pop\n      pop\n      jump\t// out\n        /* \"#utility.yul\":7753:7922   */\n    tag_181:\n        /* \"#utility.yul\":7837:7848   */\n      0x00\n        /* \"#utility.yul\":7871:7877   */\n      dup3\n        /* \"#utility.yul\":7866:7869   */\n      dup3\n        /* \"#utility.yul\":7859:7878   */\n      mstore\n        /* \"#utility.yul\":7911:7915   */\n      0x20\n        /* \"#utility.yul\":7906:7909   */\n      dup3\n        /* \"#utility.yul\":7902:7916   */\n      add\n        /* \"#utility.yul\":7887:7916   */\n      swap1\n      pop\n        /* \"#utility.yul\":7753:7922   */\n      swap3\n      swap2\n      pop\n      pop\n      jump\t// out\n        /* \"#utility.yul\":7928:8089   */\n    tag_182:\n        /* \"#utility.yul\":8068:8081   */\n      0x61646d696e2077726f6e67000000000000000000000000000000000000000000\n        /* \"#utility.yul\":8064:8065   */\n      0x00\n        /* \"#utility.yul\":8056:8062   */\n      dup3\n        /* \"#utility.yul\":8052:8066   */\n      add\n        /* \"#utility.yul\":8045:8082   */\n      mstore\n        /* \"#utility.yul\":7928:8089   */\n      pop\n      jump\t// out\n        /* \"#utility.yul\":8095:8461   */\n    tag_183:\n        /* \"#utility.yul\":8237:8240   */\n      0x00\n        /* \"#utility.yul\":8258:8325   */\n      tag_271\n        /* \"#utility.yul\":8322:8324   */\n      0x0b\n        /* \"#utility.yul\":8317:8320   */\n      dup4\n        /* \"#utility.yul\":8258:8325   */\n      tag_181\n      jump\t// in\n    tag_271:\n        /* \"#utility.yul\":8251:8325   */\n      swap2\n      pop\n        /* \"#utility.yul\":8334:8427   */\n      tag_272\n        /* \"#utility.yul\":8423:8426   */\n      dup3\n        /* \"#utility.yul\":8334:8427   */\n      tag_182\n      jump\t// in\n    tag_272:\n        /* \"#utility.yul\":8452:8454   */\n      0x20\n        /* \"#utility.yul\":8447:8450   */\n      dup3\n        /* \"#utility.yul\":8443:8455   */\n      add\n        /* \"#utility.yul\":8436:8455   */\n      swap1\n      pop\n        /* \"#utility.yul\":8095:8461   */\n      swap2\n      swap1\n      pop\n      jump\t// out\n        /* \"#utility.yul\":8467:8886   */\n    tag_130:\n        /* \"#utility.yul\":8633:8637   */\n      0x00\n        /* \"#utility.yul\":8671:8673   */\n      0x20\n        /* \"#utility.yul\":8660:8669   */\n      dup3\n        /* \"#utility.yul\":8656:8674   */\n      add\n        /* \"#utility.yul\":8648:8674   */\n      swap1\n      pop\n        /* \"#utility.yul\":8720:8729   */\n      dup2\n        /* \"#utility.yul\":8714:8718   */\n      dup2\n        /* \"#utility.yul\":8710:8730   */\n      sub\n        /* \"#utility.yul\":8706:8707   */\n      0x00\n        /* \"#utility.yul\":8695:8704   */\n      dup4\n        /* \"#utility.yul\":8691:8708   */\n      add\n        /* \"#utility.yul\":8684:8731   */\n      mstore\n        /* \"#utility.yul\":8748:8879   */\n      tag_274\n        /* \"#utility.yul\":8874:8878   */\n      dup2\n        /* \"#utility.yul\":8748:8879   */\n      tag_183\n      jump\t// in\n    tag_274:\n        /* \"#utility.yul\":8740:8879   */\n      swap1\n      pop\n        /* \"#utility.yul\":8467:8886   */\n      swap2\n      swap1\n      pop\n      jump\t// out\n\n    auxdata: 0xa26469706673582212202260fe21d49f10a816614c380b11827fb8a0316f17c7313b417ae3606bcf461264736f6c634300081a0033\n}\n",
				"bytecode": {
					"linkReferences": {},
					"object": "608060405260405161137e38038061137e83398181016040528101906100259190610285565b805f806101000a81548173ffffffffffffffffffffffffffffffffffffffff021916908373ffffffffffffffffffffffffffffffffffffffff16021790555060405180604001604052805f73ffffffffffffffffffffffffffffffffffffffff1681526020015f81525060025f600381106100a3576100a26102b0565b5b600202015f820151815f015f6101000a81548173ffffffffffffffffffffffffffffffffffffffff021916908373ffffffffffffffffffffffffffffffffffffffff1602179055506020820151816001015590505060405180604001604052805f73ffffffffffffffffffffffffffffffffffffffff1681526020015f8152506002600160038110610138576101376102b0565b5b600202015f820151815f015f6101000a81548173ffffffffffffffffffffffffffffffffffffffff021916908373ffffffffffffffffffffffffffffffffffffffff1602179055506020820151816001015590505060405180604001604052805f73ffffffffffffffffffffffffffffffffffffffff1681526020015f815250600280600381106101cc576101cb6102b0565b5b600202015f820151815f015f6101000a81548173ffffffffffffffffffffffffffffffffffffffff021916908373ffffffffffffffffffffffffffffffffffffffff16021790555060208201518160010155905050506102dd565b5f80fd5b5f73ffffffffffffffffffffffffffffffffffffffff82169050919050565b5f6102548261022b565b9050919050565b6102648161024a565b811461026e575f80fd5b50565b5f8151905061027f8161025b565b92915050565b5f6020828403121561029a57610299610227565b5b5f6102a784828501610271565b91505092915050565b7f4e487b71000000000000000000000000000000000000000000000000000000005f52603260045260245ffd5b611094806102ea5f395ff3fe608060405260043610610058575f3560e01c806327e235e3146105365780632c83b4b2146105725780633ccfd60b1461059c578063689dbf4e146105c6578063b5fc70f714610603578063f851a4401461064157610532565b36610532573460015f3373ffffffffffffffffffffffffffffffffffffffff1673ffffffffffffffffffffffffffffffffffffffff1681526020019081526020015f20546100a69190610c95565b60015f3373ffffffffffffffffffffffffffffffffffffffff1673ffffffffffffffffffffffffffffffffffffffff1681526020019081526020015f20819055505f805b60038110156101d2576002816003811061010757610106610cc8565b5b600202015f015f9054906101000a900473ffffffffffffffffffffffffffffffffffffffff1673ffffffffffffffffffffffffffffffffffffffff163373ffffffffffffffffffffffffffffffffffffffff16036101c5576001915060015f3373ffffffffffffffffffffffffffffffffffffffff1673ffffffffffffffffffffffffffffffffffffffff1681526020019081526020015f2054600282600381106101b5576101b4610cc8565b5b60020201600101819055506101d2565b80806001019150506100ea565b50806105305760025f600381106101ec576101eb610cc8565b5b600202016001015460015f3373ffffffffffffffffffffffffffffffffffffffff1673ffffffffffffffffffffffffffffffffffffffff1681526020019081526020015f205411156102f2573360025f6003811061024d5761024c610cc8565b5b600202015f015f6101000a81548173ffffffffffffffffffffffffffffffffffffffff021916908373ffffffffffffffffffffffffffffffffffffffff16021790555060015f3373ffffffffffffffffffffffffffffffffffffffff1673ffffffffffffffffffffffffffffffffffffffff1681526020019081526020015f205460025f600381106102e2576102e1610cc8565b5b6002020160010181905550610527565b600260016003811061030757610306610cc8565b5b600202016001015460015f3373ffffffffffffffffffffffffffffffffffffffff1673ffffffffffffffffffffffffffffffffffffffff1681526020019081526020015f2054111561040f5733600260016003811061036957610368610cc8565b5b600202015f015f6101000a81548173ffffffffffffffffffffffffffffffffffffffff021916908373ffffffffffffffffffffffffffffffffffffffff16021790555060015f3373ffffffffffffffffffffffffffffffffffffffff1673ffffffffffffffffffffffffffffffffffffffff1681526020019081526020015f205460026001600381106103ff576103fe610cc8565b5b6002020160010181905550610526565b6002806003811061042357610422610cc8565b5b600202016001015460015f3373ffffffffffffffffffffffffffffffffffffffff1673ffffffffffffffffffffffffffffffffffffffff1681526020019081526020015f2054111561052557336002806003811061048457610483610cc8565b5b600202015f015f6101000a81548173ffffffffffffffffffffffffffffffffffffffff021916908373ffffffffffffffffffffffffffffffffffffffff16021790555060015f3373ffffffffffffffffffffffffffffffffffffffff1673ffffffffffffffffffffffffffffffffffffffff1681526020019081526020015f20546002806003811061051957610518610cc8565b5b60020201600101819055505b5b5b61052f61066b565b5b005b5f80fd5b348015610541575f80fd5b5061055c60048036038101906105579190610d53565b6108c7565b6040516105699190610d8d565b60405180910390f35b34801561057d575f80fd5b506105866108dc565b6040516105939190610e87565b60405180910390f35b3480156105a7575f80fd5b506105b061098b565b6040516105bd9190610d8d565b60405180910390f35b3480156105d1575f80fd5b506105ec60048036038101906105e79190610eca565b610a83565b6040516105fa929190610f04565b60405180910390f35b34801561060e575f80fd5b5061062960048036038101906106249190610d53565b610ac9565b60405161063893929190610f45565b60405180910390f35b34801561064c575f80fd5b50610655610b90565b6040516106629190610f9a565b60405180910390f35b5f600390505f5b60018261067f9190610fb3565b8110156108c3575f5b816001846106969190610fb3565b6106a09190610fb3565b8110156108b5575f806107c2600284600381106106c0576106bf610cc8565b5b600202016040518060400160405290815f82015f9054906101000a900473ffffffffffffffffffffffffffffffffffffffff1673ffffffffffffffffffffffffffffffffffffffff1673ffffffffffffffffffffffffffffffffffffffff168152602001600182015481525050600260018661073c9190610c95565b6003811061074d5761074c610cc8565b5b600202016040518060400160405290815f82015f9054906101000a900473ffffffffffffffffffffffffffffffffffffffff1673ffffffffffffffffffffffffffffffffffffffff1673ffffffffffffffffffffffffffffffffffffffff168152602001600182015481525050610bb3610bbf565b9150915081600284600381106107db576107da610cc8565b5b600202015f820151815f015f6101000a81548173ffffffffffffffffffffffffffffffffffffffff021916908373ffffffffffffffffffffffffffffffffffffffff160217905550602082015181600101559050508060026001856108409190610c95565b6003811061085157610850610cc8565b5b600202015f820151815f015f6101000a81548173ffffffffffffffffffffffffffffffffffffffff021916908373ffffffffffffffffffffffffffffffffffffffff1602179055506020820151816001015590505050508080600101915050610688565b508080600101915050610672565b5050565b6001602052805f5260405f205f915090505481565b6108e4610c04565b6002600380602002604051908101604052809291905f905b82821015610982578382600202016040518060400160405290815f82015f9054906101000a900473ffffffffffffffffffffffffffffffffffffffff1673ffffffffffffffffffffffffffffffffffffffff1673ffffffffffffffffffffffffffffffffffffffff168152602001600182015481525050815260200190600101906108fc565b50505050905090565b5f805f9054906101000a900473ffffffffffffffffffffffffffffffffffffffff1673ffffffffffffffffffffffffffffffffffffffff163373ffffffffffffffffffffffffffffffffffffffff1614610a1a576040517f08c379a0000000000000000000000000000000000000000000000000000000008152600401610a1190611040565b60405180910390fd5b5f8054906101000a900473ffffffffffffffffffffffffffffffffffffffff1673ffffffffffffffffffffffffffffffffffffffff166108fc4790811502906040515f60405180830381858888f19350505050158015610a7c573d5f803e3d5ffd5b5047905090565b60028160038110610a92575f80fd5b600202015f91509050805f015f9054906101000a900473ffffffffffffffffffffffffffffffffffffffff16908060010154905082565b5f805f805f90505b6003811015610b7e5760028160038110610aee57610aed610cc8565b5b600202015f015f9054906101000a900473ffffffffffffffffffffffffffffffffffffffff1673ffffffffffffffffffffffffffffffffffffffff168573ffffffffffffffffffffffffffffffffffffffff1603610b7157600160028260038110610b5c57610b5b610cc8565b5b60020201600101548293509350935050610b89565b8080600101915050610ad1565b505f805f9250925092505b9193909250565b5f8054906101000a900473ffffffffffffffffffffffffffffffffffffffff1681565b5f818311905092915050565b610bc7610c31565b610bcf610c31565b610be5856020015185602001518563ffffffff16565b15610bf557838591509150610bfc565b8484915091505b935093915050565b60405180606001604052806003905b610c1b610c31565b815260200190600190039081610c135790505090565b60405180604001604052805f73ffffffffffffffffffffffffffffffffffffffff1681526020015f81525090565b5f819050919050565b7f4e487b71000000000000000000000000000000000000000000000000000000005f52601160045260245ffd5b5f610c9f82610c5f565b9150610caa83610c5f565b9250828201905080821115610cc257610cc1610c68565b5b92915050565b7f4e487b71000000000000000000000000000000000000000000000000000000005f52603260045260245ffd5b5f80fd5b5f73ffffffffffffffffffffffffffffffffffffffff82169050919050565b5f610d2282610cf9565b9050919050565b610d3281610d18565b8114610d3c575f80fd5b50565b5f81359050610d4d81610d29565b92915050565b5f60208284031215610d6857610d67610cf5565b5b5f610d7584828501610d3f565b91505092915050565b610d8781610c5f565b82525050565b5f602082019050610da05f830184610d7e565b92915050565b5f60039050919050565b5f81905092915050565b5f819050919050565b610dcc81610d18565b82525050565b610ddb81610c5f565b82525050565b604082015f820151610df55f850182610dc3565b506020820151610e086020850182610dd2565b50505050565b5f610e198383610de1565b60408301905092915050565b5f602082019050919050565b610e3a81610da6565b610e448184610db0565b9250610e4f82610dba565b805f5b83811015610e7f578151610e668782610e0e565b9650610e7183610e25565b925050600181019050610e52565b505050505050565b5f60c082019050610e9a5f830184610e31565b92915050565b610ea981610c5f565b8114610eb3575f80fd5b50565b5f81359050610ec481610ea0565b92915050565b5f60208284031215610edf57610ede610cf5565b5b5f610eec84828501610eb6565b91505092915050565b610efe81610d18565b82525050565b5f604082019050610f175f830185610ef5565b610f246020830184610d7e565b9392505050565b5f8115159050919050565b610f3f81610f2b565b82525050565b5f606082019050610f585f830186610f36565b610f656020830185610d7e565b610f726040830184610d7e565b949350505050565b5f610f8482610cf9565b9050919050565b610f9481610f7a565b82525050565b5f602082019050610fad5f830184610f8b565b92915050565b5f610fbd82610c5f565b9150610fc883610c5f565b9250828203905081811115610fe057610fdf610c68565b5b92915050565b5f82825260208201905092915050565b7f61646d696e2077726f6e670000000000000000000000000000000000000000005f82015250565b5f61102a600b83610fe6565b915061103582610ff6565b602082019050919050565b5f6020820190508181035f8301526110578161101e565b905091905056fea26469706673582212202260fe21d49f10a816614c380b11827fb8a0316f17c7313b417ae3606bcf461264736f6c634300081a0033",
					"opcodes": "PUSH1 0x80 PUSH1 0x40 MSTORE PUSH1 0x40 MLOAD PUSH2 0x137E CODESIZE SUB DUP1 PUSH2 0x137E DUP4 CODECOPY DUP2 DUP2 ADD PUSH1 0x40 MSTORE DUP2 ADD SWAP1 PUSH2 0x25 SWAP2 SWAP1 PUSH2 0x285 JUMP JUMPDEST DUP1 PUSH0 DUP1 PUSH2 0x100 EXP DUP2 SLOAD DUP2 PUSH20 0xFFFFFFFFFFFFFFFFFFFFFFFFFFFFFFFFFFFFFFFF MUL NOT AND SWAP1 DUP4 PUSH20 0xFFFFFFFFFFFFFFFFFFFFFFFFFFFFFFFFFFFFFFFF AND MUL OR SWAP1 SSTORE POP PUSH1 0x40 MLOAD DUP1 PUSH1 0x40 ADD PUSH1 0x40 MSTORE DUP1 PUSH0 PUSH20 0xFFFFFFFFFFFFFFFFFFFFFFFFFFFFFFFFFFFFFFFF AND DUP2 MSTORE PUSH1 0x20 ADD PUSH0 DUP2 MSTORE POP PUSH1 0x2 PUSH0 PUSH1 0x3 DUP2 LT PUSH2 0xA3 JUMPI PUSH2 0xA2 PUSH2 0x2B0 JUMP JUMPDEST JUMPDEST PUSH1 0x2 MUL ADD PUSH0 DUP3 ADD MLOAD DUP2 PUSH0 ADD PUSH0 PUSH2 0x100 EXP DUP2 SLOAD DUP2 PUSH20 0xFFFFFFFFFFFFFFFFFFFFFFFFFFFFFFFFFFFFFFFF MUL NOT AND SWAP1 DUP4 PUSH20 0xFFFFFFFFFFFFFFFFFFFFFFFFFFFFFFFFFFFFFFFF AND MUL OR SWAP1 SSTORE POP PUSH1 0x20 DUP3 ADD MLOAD DUP2 PUSH1 0x1 ADD SSTORE SWAP1 POP POP PUSH1 0x40 MLOAD DUP1 PUSH1 0x40 ADD PUSH1 0x40 MSTORE DUP1 PUSH0 PUSH20 0xFFFFFFFFFFFFFFFFFFFFFFFFFFFFFFFFFFFFFFFF AND DUP2 MSTORE PUSH1 0x20 ADD PUSH0 DUP2 MSTORE POP PUSH1 0x2 PUSH1 0x1 PUSH1 0x3 DUP2 LT PUSH2 0x138 JUMPI PUSH2 0x137 PUSH2 0x2B0 JUMP JUMPDEST JUMPDEST PUSH1 0x2 MUL ADD PUSH0 DUP3 ADD MLOAD DUP2 PUSH0 ADD PUSH0 PUSH2 0x100 EXP DUP2 SLOAD DUP2 PUSH20 0xFFFFFFFFFFFFFFFFFFFFFFFFFFFFFFFFFFFFFFFF MUL NOT AND SWAP1 DUP4 PUSH20 0xFFFFFFFFFFFFFFFFFFFFFFFFFFFFFFFFFFFFFFFF AND MUL OR SWAP1 SSTORE POP PUSH1 0x20 DUP3 ADD MLOAD DUP2 PUSH1 0x1 ADD SSTORE SWAP1 POP POP PUSH1 0x40 MLOAD DUP1 PUSH1 0x40 ADD PUSH1 0x40 MSTORE DUP1 PUSH0 PUSH20 0xFFFFFFFFFFFFFFFFFFFFFFFFFFFFFFFFFFFFFFFF AND DUP2 MSTORE PUSH1 0x20 ADD PUSH0 DUP2 MSTORE POP PUSH1 0x2 DUP1 PUSH1 0x3 DUP2 LT PUSH2 0x1CC JUMPI PUSH2 0x1CB PUSH2 0x2B0 JUMP JUMPDEST JUMPDEST PUSH1 0x2 MUL ADD PUSH0 DUP3 ADD MLOAD DUP2 PUSH0 ADD PUSH0 PUSH2 0x100 EXP DUP2 SLOAD DUP2 PUSH20 0xFFFFFFFFFFFFFFFFFFFFFFFFFFFFFFFFFFFFFFFF MUL NOT AND SWAP1 DUP4 PUSH20 0xFFFFFFFFFFFFFFFFFFFFFFFFFFFFFFFFFFFFFFFF AND MUL OR SWAP1 SSTORE POP PUSH1 0x20 DUP3 ADD MLOAD DUP2 PUSH1 0x1 ADD SSTORE SWAP1 POP POP POP PUSH2 0x2DD JUMP JUMPDEST PUSH0 DUP1 REVERT JUMPDEST PUSH0 PUSH20 0xFFFFFFFFFFFFFFFFFFFFFFFFFFFFFFFFFFFFFFFF DUP3 AND SWAP1 POP SWAP2 SWAP1 POP JUMP JUMPDEST PUSH0 PUSH2 0x254 DUP3 PUSH2 0x22B JUMP JUMPDEST SWAP1 POP SWAP2 SWAP1 POP JUMP JUMPDEST PUSH2 0x264 DUP2 PUSH2 0x24A JUMP JUMPDEST DUP2 EQ PUSH2 0x26E JUMPI PUSH0 DUP1 REVERT JUMPDEST POP JUMP JUMPDEST PUSH0 DUP2 MLOAD SWAP1 POP PUSH2 0x27F DUP2 PUSH2 0x25B JUMP JUMPDEST SWAP3 SWAP2 POP POP JUMP JUMPDEST PUSH0 PUSH1 0x20 DUP3 DUP5 SUB SLT ISZERO PUSH2 0x29A JUMPI PUSH2 0x299 PUSH2 0x227 JUMP JUMPDEST JUMPDEST PUSH0 PUSH2 0x2A7 DUP5 DUP3 DUP6 ADD PUSH2 0x271 JUMP JUMPDEST SWAP2 POP POP SWAP3 SWAP2 POP POP JUMP JUMPDEST PUSH32 0x4E487B7100000000000000000000000000000000000000000000000000000000 PUSH0 MSTORE PUSH1 0x32 PUSH1 0x4 MSTORE PUSH1 0x24 PUSH0 REVERT JUMPDEST PUSH2 0x1094 DUP1 PUSH2 0x2EA PUSH0 CODECOPY PUSH0 RETURN INVALID PUSH1 0x80 PUSH1 0x40 MSTORE PUSH1 0x4 CALLDATASIZE LT PUSH2 0x58 JUMPI PUSH0 CALLDATALOAD PUSH1 0xE0 SHR DUP1 PUSH4 0x27E235E3 EQ PUSH2 0x536 JUMPI DUP1 PUSH4 0x2C83B4B2 EQ PUSH2 0x572 JUMPI DUP1 PUSH4 0x3CCFD60B EQ PUSH2 0x59C JUMPI DUP1 PUSH4 0x689DBF4E EQ PUSH2 0x5C6 JUMPI DUP1 PUSH4 0xB5FC70F7 EQ PUSH2 0x603 JUMPI DUP1 PUSH4 0xF851A440 EQ PUSH2 0x641 JUMPI PUSH2 0x532 JUMP JUMPDEST CALLDATASIZE PUSH2 0x532 JUMPI CALLVALUE PUSH1 0x1 PUSH0 CALLER PUSH20 0xFFFFFFFFFFFFFFFFFFFFFFFFFFFFFFFFFFFFFFFF AND PUSH20 0xFFFFFFFFFFFFFFFFFFFFFFFFFFFFFFFFFFFFFFFF AND DUP2 MSTORE PUSH1 0x20 ADD SWAP1 DUP2 MSTORE PUSH1 0x20 ADD PUSH0 KECCAK256 SLOAD PUSH2 0xA6 SWAP2 SWAP1 PUSH2 0xC95 JUMP JUMPDEST PUSH1 0x1 PUSH0 CALLER PUSH20 0xFFFFFFFFFFFFFFFFFFFFFFFFFFFFFFFFFFFFFFFF AND PUSH20 0xFFFFFFFFFFFFFFFFFFFFFFFFFFFFFFFFFFFFFFFF AND DUP2 MSTORE PUSH1 0x20 ADD SWAP1 DUP2 MSTORE PUSH1 0x20 ADD PUSH0 KECCAK256 DUP2 SWAP1 SSTORE POP PUSH0 DUP1 JUMPDEST PUSH1 0x3 DUP2 LT ISZERO PUSH2 0x1D2 JUMPI PUSH1 0x2 DUP2 PUSH1 0x3 DUP2 LT PUSH2 0x107 JUMPI PUSH2 0x106 PUSH2 0xCC8 JUMP JUMPDEST JUMPDEST PUSH1 0x2 MUL ADD PUSH0 ADD PUSH0 SWAP1 SLOAD SWAP1 PUSH2 0x100 EXP SWAP1 DIV PUSH20 0xFFFFFFFFFFFFFFFFFFFFFFFFFFFFFFFFFFFFFFFF AND PUSH20 0xFFFFFFFFFFFFFFFFFFFFFFFFFFFFFFFFFFFFFFFF AND CALLER PUSH20 0xFFFFFFFFFFFFFFFFFFFFFFFFFFFFFFFFFFFFFFFF AND SUB PUSH2 0x1C5 JUMPI PUSH1 0x1 SWAP2 POP PUSH1 0x1 PUSH0 CALLER PUSH20 0xFFFFFFFFFFFFFFFFFFFFFFFFFFFFFFFFFFFFFFFF AND PUSH20 0xFFFFFFFFFFFFFFFFFFFFFFFFFFFFFFFFFFFFFFFF AND DUP2 MSTORE PUSH1 0x20 ADD SWAP1 DUP2 MSTORE PUSH1 0x20 ADD PUSH0 KECCAK256 SLOAD PUSH1 0x2 DUP3 PUSH1 0x3 DUP2 LT PUSH2 0x1B5 JUMPI PUSH2 0x1B4 PUSH2 0xCC8 JUMP JUMPDEST JUMPDEST PUSH1 0x2 MUL ADD PUSH1 0x1 ADD DUP2 SWAP1 SSTORE POP PUSH2 0x1D2 JUMP JUMPDEST DUP1 DUP1 PUSH1 0x1 ADD SWAP2 POP POP PUSH2 0xEA JUMP JUMPDEST POP DUP1 PUSH2 0x530 JUMPI PUSH1 0x2 PUSH0 PUSH1 0x3 DUP2 LT PUSH2 0x1EC JUMPI PUSH2 0x1EB PUSH2 0xCC8 JUMP JUMPDEST JUMPDEST PUSH1 0x2 MUL ADD PUSH1 0x1 ADD SLOAD PUSH1 0x1 PUSH0 CALLER PUSH20 0xFFFFFFFFFFFFFFFFFFFFFFFFFFFFFFFFFFFFFFFF AND PUSH20 0xFFFFFFFFFFFFFFFFFFFFFFFFFFFFFFFFFFFFFFFF AND DUP2 MSTORE PUSH1 0x20 ADD SWAP1 DUP2 MSTORE PUSH1 0x20 ADD PUSH0 KECCAK256 SLOAD GT ISZERO PUSH2 0x2F2 JUMPI CALLER PUSH1 0x2 PUSH0 PUSH1 0x3 DUP2 LT PUSH2 0x24D JUMPI PUSH2 0x24C PUSH2 0xCC8 JUMP JUMPDEST JUMPDEST PUSH1 0x2 MUL ADD PUSH0 ADD PUSH0 PUSH2 0x100 EXP DUP2 SLOAD DUP2 PUSH20 0xFFFFFFFFFFFFFFFFFFFFFFFFFFFFFFFFFFFFFFFF MUL NOT AND SWAP1 DUP4 PUSH20 0xFFFFFFFFFFFFFFFFFFFFFFFFFFFFFFFFFFFFFFFF AND MUL OR SWAP1 SSTORE POP PUSH1 0x1 PUSH0 CALLER PUSH20 0xFFFFFFFFFFFFFFFFFFFFFFFFFFFFFFFFFFFFFFFF AND PUSH20 0xFFFFFFFFFFFFFFFFFFFFFFFFFFFFFFFFFFFFFFFF AND DUP2 MSTORE PUSH1 0x20 ADD SWAP1 DUP2 MSTORE PUSH1 0x20 ADD PUSH0 KECCAK256 SLOAD PUSH1 0x2 PUSH0 PUSH1 0x3 DUP2 LT PUSH2 0x2E2 JUMPI PUSH2 0x2E1 PUSH2 0xCC8 JUMP JUMPDEST JUMPDEST PUSH1 0x2 MUL ADD PUSH1 0x1 ADD DUP2 SWAP1 SSTORE POP PUSH2 0x527 JUMP JUMPDEST PUSH1 0x2 PUSH1 0x1 PUSH1 0x3 DUP2 LT PUSH2 0x307 JUMPI PUSH2 0x306 PUSH2 0xCC8 JUMP JUMPDEST JUMPDEST PUSH1 0x2 MUL ADD PUSH1 0x1 ADD SLOAD PUSH1 0x1 PUSH0 CALLER PUSH20 0xFFFFFFFFFFFFFFFFFFFFFFFFFFFFFFFFFFFFFFFF AND PUSH20 0xFFFFFFFFFFFFFFFFFFFFFFFFFFFFFFFFFFFFFFFF AND DUP2 MSTORE PUSH1 0x20 ADD SWAP1 DUP2 MSTORE PUSH1 0x20 ADD PUSH0 KECCAK256 SLOAD GT ISZERO PUSH2 0x40F JUMPI CALLER PUSH1 0x2 PUSH1 0x1 PUSH1 0x3 DUP2 LT PUSH2 0x369 JUMPI PUSH2 0x368 PUSH2 0xCC8 JUMP JUMPDEST JUMPDEST PUSH1 0x2 MUL ADD PUSH0 ADD PUSH0 PUSH2 0x100 EXP DUP2 SLOAD DUP2 PUSH20 0xFFFFFFFFFFFFFFFFFFFFFFFFFFFFFFFFFFFFFFFF MUL NOT AND SWAP1 DUP4 PUSH20 0xFFFFFFFFFFFFFFFFFFFFFFFFFFFFFFFFFFFFFFFF AND MUL OR SWAP1 SSTORE POP PUSH1 0x1 PUSH0 CALLER PUSH20 0xFFFFFFFFFFFFFFFFFFFFFFFFFFFFFFFFFFFFFFFF AND PUSH20 0xFFFFFFFFFFFFFFFFFFFFFFFFFFFFFFFFFFFFFFFF AND DUP2 MSTORE PUSH1 0x20 ADD SWAP1 DUP2 MSTORE PUSH1 0x20 ADD PUSH0 KECCAK256 SLOAD PUSH1 0x2 PUSH1 0x1 PUSH1 0x3 DUP2 LT PUSH2 0x3FF JUMPI PUSH2 0x3FE PUSH2 0xCC8 JUMP JUMPDEST JUMPDEST PUSH1 0x2 MUL ADD PUSH1 0x1 ADD DUP2 SWAP1 SSTORE POP PUSH2 0x526 JUMP JUMPDEST PUSH1 0x2 DUP1 PUSH1 0x3 DUP2 LT PUSH2 0x423 JUMPI PUSH2 0x422 PUSH2 0xCC8 JUMP JUMPDEST JUMPDEST PUSH1 0x2 MUL ADD PUSH1 0x1 ADD SLOAD PUSH1 0x1 PUSH0 CALLER PUSH20 0xFFFFFFFFFFFFFFFFFFFFFFFFFFFFFFFFFFFFFFFF AND PUSH20 0xFFFFFFFFFFFFFFFFFFFFFFFFFFFFFFFFFFFFFFFF AND DUP2 MSTORE PUSH1 0x20 ADD SWAP1 DUP2 MSTORE PUSH1 0x20 ADD PUSH0 KECCAK256 SLOAD GT ISZERO PUSH2 0x525 JUMPI CALLER PUSH1 0x2 DUP1 PUSH1 0x3 DUP2 LT PUSH2 0x484 JUMPI PUSH2 0x483 PUSH2 0xCC8 JUMP JUMPDEST JUMPDEST PUSH1 0x2 MUL ADD PUSH0 ADD PUSH0 PUSH2 0x100 EXP DUP2 SLOAD DUP2 PUSH20 0xFFFFFFFFFFFFFFFFFFFFFFFFFFFFFFFFFFFFFFFF MUL NOT AND SWAP1 DUP4 PUSH20 0xFFFFFFFFFFFFFFFFFFFFFFFFFFFFFFFFFFFFFFFF AND MUL OR SWAP1 SSTORE POP PUSH1 0x1 PUSH0 CALLER PUSH20 0xFFFFFFFFFFFFFFFFFFFFFFFFFFFFFFFFFFFFFFFF AND PUSH20 0xFFFFFFFFFFFFFFFFFFFFFFFFFFFFFFFFFFFFFFFF AND DUP2 MSTORE PUSH1 0x20 ADD SWAP1 DUP2 MSTORE PUSH1 0x20 ADD PUSH0 KECCAK256 SLOAD PUSH1 0x2 DUP1 PUSH1 0x3 DUP2 LT PUSH2 0x519 JUMPI PUSH2 0x518 PUSH2 0xCC8 JUMP JUMPDEST JUMPDEST PUSH1 0x2 MUL ADD PUSH1 0x1 ADD DUP2 SWAP1 SSTORE POP JUMPDEST JUMPDEST JUMPDEST PUSH2 0x52F PUSH2 0x66B JUMP JUMPDEST JUMPDEST STOP JUMPDEST PUSH0 DUP1 REVERT JUMPDEST CALLVALUE DUP1 ISZERO PUSH2 0x541 JUMPI PUSH0 DUP1 REVERT JUMPDEST POP PUSH2 0x55C PUSH1 0x4 DUP1 CALLDATASIZE SUB DUP2 ADD SWAP1 PUSH2 0x557 SWAP2 SWAP1 PUSH2 0xD53 JUMP JUMPDEST PUSH2 0x8C7 JUMP JUMPDEST PUSH1 0x40 MLOAD PUSH2 0x569 SWAP2 SWAP1 PUSH2 0xD8D JUMP JUMPDEST PUSH1 0x40 MLOAD DUP1 SWAP2 SUB SWAP1 RETURN JUMPDEST CALLVALUE DUP1 ISZERO PUSH2 0x57D JUMPI PUSH0 DUP1 REVERT JUMPDEST POP PUSH2 0x586 PUSH2 0x8DC JUMP JUMPDEST PUSH1 0x40 MLOAD PUSH2 0x593 SWAP2 SWAP1 PUSH2 0xE87 JUMP JUMPDEST PUSH1 0x40 MLOAD DUP1 SWAP2 SUB SWAP1 RETURN JUMPDEST CALLVALUE DUP1 ISZERO PUSH2 0x5A7 JUMPI PUSH0 DUP1 REVERT JUMPDEST POP PUSH2 0x5B0 PUSH2 0x98B JUMP JUMPDEST PUSH1 0x40 MLOAD PUSH2 0x5BD SWAP2 SWAP1 PUSH2 0xD8D JUMP JUMPDEST PUSH1 0x40 MLOAD DUP1 SWAP2 SUB SWAP1 RETURN JUMPDEST CALLVALUE DUP1 ISZERO PUSH2 0x5D1 JUMPI PUSH0 DUP1 REVERT JUMPDEST POP PUSH2 0x5EC PUSH1 0x4 DUP1 CALLDATASIZE SUB DUP2 ADD SWAP1 PUSH2 0x5E7 SWAP2 SWAP1 PUSH2 0xECA JUMP JUMPDEST PUSH2 0xA83 JUMP JUMPDEST PUSH1 0x40 MLOAD PUSH2 0x5FA SWAP3 SWAP2 SWAP1 PUSH2 0xF04 JUMP JUMPDEST PUSH1 0x40 MLOAD DUP1 SWAP2 SUB SWAP1 RETURN JUMPDEST CALLVALUE DUP1 ISZERO PUSH2 0x60E JUMPI PUSH0 DUP1 REVERT JUMPDEST POP PUSH2 0x629 PUSH1 0x4 DUP1 CALLDATASIZE SUB DUP2 ADD SWAP1 PUSH2 0x624 SWAP2 SWAP1 PUSH2 0xD53 JUMP JUMPDEST PUSH2 0xAC9 JUMP JUMPDEST PUSH1 0x40 MLOAD PUSH2 0x638 SWAP4 SWAP3 SWAP2 SWAP1 PUSH2 0xF45 JUMP JUMPDEST PUSH1 0x40 MLOAD DUP1 SWAP2 SUB SWAP1 RETURN JUMPDEST CALLVALUE DUP1 ISZERO PUSH2 0x64C JUMPI PUSH0 DUP1 REVERT JUMPDEST POP PUSH2 0x655 PUSH2 0xB90 JUMP JUMPDEST PUSH1 0x40 MLOAD PUSH2 0x662 SWAP2 SWAP1 PUSH2 0xF9A JUMP JUMPDEST PUSH1 0x40 MLOAD DUP1 SWAP2 SUB SWAP1 RETURN JUMPDEST PUSH0 PUSH1 0x3 SWAP1 POP PUSH0 JUMPDEST PUSH1 0x1 DUP3 PUSH2 0x67F SWAP2 SWAP1 PUSH2 0xFB3 JUMP JUMPDEST DUP2 LT ISZERO PUSH2 0x8C3 JUMPI PUSH0 JUMPDEST DUP2 PUSH1 0x1 DUP5 PUSH2 0x696 SWAP2 SWAP1 PUSH2 0xFB3 JUMP JUMPDEST PUSH2 0x6A0 SWAP2 SWAP1 PUSH2 0xFB3 JUMP JUMPDEST DUP2 LT ISZERO PUSH2 0x8B5 JUMPI PUSH0 DUP1 PUSH2 0x7C2 PUSH1 0x2 DUP5 PUSH1 0x3 DUP2 LT PUSH2 0x6C0 JUMPI PUSH2 0x6BF PUSH2 0xCC8 JUMP JUMPDEST JUMPDEST PUSH1 0x2 MUL ADD PUSH1 0x40 MLOAD DUP1 PUSH1 0x40 ADD PUSH1 0x40 MSTORE SWAP1 DUP2 PUSH0 DUP3 ADD PUSH0 SWAP1 SLOAD SWAP1 PUSH2 0x100 EXP SWAP1 DIV PUSH20 0xFFFFFFFFFFFFFFFFFFFFFFFFFFFFFFFFFFFFFFFF AND PUSH20 0xFFFFFFFFFFFFFFFFFFFFFFFFFFFFFFFFFFFFFFFF AND PUSH20 0xFFFFFFFFFFFFFFFFFFFFFFFFFFFFFFFFFFFFFFFF AND DUP2 MSTORE PUSH1 0x20 ADD PUSH1 0x1 DUP3 ADD SLOAD DUP2 MSTORE POP POP PUSH1 0x2 PUSH1 0x1 DUP7 PUSH2 0x73C SWAP2 SWAP1 PUSH2 0xC95 JUMP JUMPDEST PUSH1 0x3 DUP2 LT PUSH2 0x74D JUMPI PUSH2 0x74C PUSH2 0xCC8 JUMP JUMPDEST JUMPDEST PUSH1 0x2 MUL ADD PUSH1 0x40 MLOAD DUP1 PUSH1 0x40 ADD PUSH1 0x40 MSTORE SWAP1 DUP2 PUSH0 DUP3 ADD PUSH0 SWAP1 SLOAD SWAP1 PUSH2 0x100 EXP SWAP1 DIV PUSH20 0xFFFFFFFFFFFFFFFFFFFFFFFFFFFFFFFFFFFFFFFF AND PUSH20 0xFFFFFFFFFFFFFFFFFFFFFFFFFFFFFFFFFFFFFFFF AND PUSH20 0xFFFFFFFFFFFFFFFFFFFFFFFFFFFFFFFFFFFFFFFF AND DUP2 MSTORE PUSH1 0x20 ADD PUSH1 0x1 DUP3 ADD SLOAD DUP2 MSTORE POP POP PUSH2 0xBB3 PUSH2 0xBBF JUMP JUMPDEST SWAP2 POP SWAP2 POP DUP2 PUSH1 0x2 DUP5 PUSH1 0x3 DUP2 LT PUSH2 0x7DB JUMPI PUSH2 0x7DA PUSH2 0xCC8 JUMP JUMPDEST JUMPDEST PUSH1 0x2 MUL ADD PUSH0 DUP3 ADD MLOAD DUP2 PUSH0 ADD PUSH0 PUSH2 0x100 EXP DUP2 SLOAD DUP2 PUSH20 0xFFFFFFFFFFFFFFFFFFFFFFFFFFFFFFFFFFFFFFFF MUL NOT AND SWAP1 DUP4 PUSH20 0xFFFFFFFFFFFFFFFFFFFFFFFFFFFFFFFFFFFFFFFF AND MUL OR SWAP1 SSTORE POP PUSH1 0x20 DUP3 ADD MLOAD DUP2 PUSH1 0x1 ADD SSTORE SWAP1 POP POP DUP1 PUSH1 0x2 PUSH1 0x1 DUP6 PUSH2 0x840 SWAP2 SWAP1 PUSH2 0xC95 JUMP JUMPDEST PUSH1 0x3 DUP2 LT PUSH2 0x851 JUMPI PUSH2 0x850 PUSH2 0xCC8 JUMP JUMPDEST JUMPDEST PUSH1 0x2 MUL ADD PUSH0 DUP3 ADD MLOAD DUP2 PUSH0 ADD PUSH0 PUSH2 0x100 EXP DUP2 SLOAD DUP2 PUSH20 0xFFFFFFFFFFFFFFFFFFFFFFFFFFFFFFFFFFFFFFFF MUL NOT AND SWAP1 DUP4 PUSH20 0xFFFFFFFFFFFFFFFFFFFFFFFFFFFFFFFFFFFFFFFF AND MUL OR SWAP1 SSTORE POP PUSH1 0x20 DUP3 ADD MLOAD DUP2 PUSH1 0x1 ADD SSTORE SWAP1 POP POP POP POP DUP1 DUP1 PUSH1 0x1 ADD SWAP2 POP POP PUSH2 0x688 JUMP JUMPDEST POP DUP1 DUP1 PUSH1 0x1 ADD SWAP2 POP POP PUSH2 0x672 JUMP JUMPDEST POP POP JUMP JUMPDEST PUSH1 0x1 PUSH1 0x20 MSTORE DUP1 PUSH0 MSTORE PUSH1 0x40 PUSH0 KECCAK256 PUSH0 SWAP2 POP SWAP1 POP SLOAD DUP2 JUMP JUMPDEST PUSH2 0x8E4 PUSH2 0xC04 JUMP JUMPDEST PUSH1 0x2 PUSH1 0x3 DUP1 PUSH1 0x20 MUL PUSH1 0x40 MLOAD SWAP1 DUP2 ADD PUSH1 0x40 MSTORE DUP1 SWAP3 SWAP2 SWAP1 PUSH0 SWAP1 JUMPDEST DUP3 DUP3 LT ISZERO PUSH2 0x982 JUMPI DUP4 DUP3 PUSH1 0x2 MUL ADD PUSH1 0x40 MLOAD DUP1 PUSH1 0x40 ADD PUSH1 0x40 MSTORE SWAP1 DUP2 PUSH0 DUP3 ADD PUSH0 SWAP1 SLOAD SWAP1 PUSH2 0x100 EXP SWAP1 DIV PUSH20 0xFFFFFFFFFFFFFFFFFFFFFFFFFFFFFFFFFFFFFFFF AND PUSH20 0xFFFFFFFFFFFFFFFFFFFFFFFFFFFFFFFFFFFFFFFF AND PUSH20 0xFFFFFFFFFFFFFFFFFFFFFFFFFFFFFFFFFFFFFFFF AND DUP2 MSTORE PUSH1 0x20 ADD PUSH1 0x1 DUP3 ADD SLOAD DUP2 MSTORE POP POP DUP2 MSTORE PUSH1 0x20 ADD SWAP1 PUSH1 0x1 ADD SWAP1 PUSH2 0x8FC JUMP JUMPDEST POP POP POP POP SWAP1 POP SWAP1 JUMP JUMPDEST PUSH0 DUP1 PUSH0 SWAP1 SLOAD SWAP1 PUSH2 0x100 EXP SWAP1 DIV PUSH20 0xFFFFFFFFFFFFFFFFFFFFFFFFFFFFFFFFFFFFFFFF AND PUSH20 0xFFFFFFFFFFFFFFFFFFFFFFFFFFFFFFFFFFFFFFFF AND CALLER PUSH20 0xFFFFFFFFFFFFFFFFFFFFFFFFFFFFFFFFFFFFFFFF AND EQ PUSH2 0xA1A JUMPI PUSH1 0x40 MLOAD PUSH32 0x8C379A000000000000000000000000000000000000000000000000000000000 DUP2 MSTORE PUSH1 0x4 ADD PUSH2 0xA11 SWAP1 PUSH2 0x1040 JUMP JUMPDEST PUSH1 0x40 MLOAD DUP1 SWAP2 SUB SWAP1 REVERT JUMPDEST PUSH0 DUP1 SLOAD SWAP1 PUSH2 0x100 EXP SWAP1 DIV PUSH20 0xFFFFFFFFFFFFFFFFFFFFFFFFFFFFFFFFFFFFFFFF AND PUSH20 0xFFFFFFFFFFFFFFFFFFFFFFFFFFFFFFFFFFFFFFFF AND PUSH2 0x8FC SELFBALANCE SWAP1 DUP2 ISZERO MUL SWAP1 PUSH1 0x40 MLOAD PUSH0 PUSH1 0x40 MLOAD DUP1 DUP4 SUB DUP2 DUP6 DUP9 DUP9 CALL SWAP4 POP POP POP POP ISZERO DUP1 ISZERO PUSH2 0xA7C JUMPI RETURNDATASIZE PUSH0 DUP1 RETURNDATACOPY RETURNDATASIZE PUSH0 REVERT JUMPDEST POP SELFBALANCE SWAP1 POP SWAP1 JUMP JUMPDEST PUSH1 0x2 DUP2 PUSH1 0x3 DUP2 LT PUSH2 0xA92 JUMPI PUSH0 DUP1 REVERT JUMPDEST PUSH1 0x2 MUL ADD PUSH0 SWAP2 POP SWAP1 POP DUP1 PUSH0 ADD PUSH0 SWAP1 SLOAD SWAP1 PUSH2 0x100 EXP SWAP1 DIV PUSH20 0xFFFFFFFFFFFFFFFFFFFFFFFFFFFFFFFFFFFFFFFF AND SWAP1 DUP1 PUSH1 0x1 ADD SLOAD SWAP1 POP DUP3 JUMP JUMPDEST PUSH0 DUP1 PUSH0 DUP1 PUSH0 SWAP1 POP JUMPDEST PUSH1 0x3 DUP2 LT ISZERO PUSH2 0xB7E JUMPI PUSH1 0x2 DUP2 PUSH1 0x3 DUP2 LT PUSH2 0xAEE JUMPI PUSH2 0xAED PUSH2 0xCC8 JUMP JUMPDEST JUMPDEST PUSH1 0x2 MUL ADD PUSH0 ADD PUSH0 SWAP1 SLOAD SWAP1 PUSH2 0x100 EXP SWAP1 DIV PUSH20 0xFFFFFFFFFFFFFFFFFFFFFFFFFFFFFFFFFFFFFFFF AND PUSH20 0xFFFFFFFFFFFFFFFFFFFFFFFFFFFFFFFFFFFFFFFF AND DUP6 PUSH20 0xFFFFFFFFFFFFFFFFFFFFFFFFFFFFFFFFFFFFFFFF AND SUB PUSH2 0xB71 JUMPI PUSH1 0x1 PUSH1 0x2 DUP3 PUSH1 0x3 DUP2 LT PUSH2 0xB5C JUMPI PUSH2 0xB5B PUSH2 0xCC8 JUMP JUMPDEST JUMPDEST PUSH1 0x2 MUL ADD PUSH1 0x1 ADD SLOAD DUP3 SWAP4 POP SWAP4 POP SWAP4 POP POP PUSH2 0xB89 JUMP JUMPDEST DUP1 DUP1 PUSH1 0x1 ADD SWAP2 POP POP PUSH2 0xAD1 JUMP JUMPDEST POP PUSH0 DUP1 PUSH0 SWAP3 POP SWAP3 POP SWAP3 POP JUMPDEST SWAP2 SWAP4 SWAP1 SWAP3 POP JUMP JUMPDEST PUSH0 DUP1 SLOAD SWAP1 PUSH2 0x100 EXP SWAP1 DIV PUSH20 0xFFFFFFFFFFFFFFFFFFFFFFFFFFFFFFFFFFFFFFFF AND DUP2 JUMP JUMPDEST PUSH0 DUP2 DUP4 GT SWAP1 POP SWAP3 SWAP2 POP POP JUMP JUMPDEST PUSH2 0xBC7 PUSH2 0xC31 JUMP JUMPDEST PUSH2 0xBCF PUSH2 0xC31 JUMP JUMPDEST PUSH2 0xBE5 DUP6 PUSH1 0x20 ADD MLOAD DUP6 PUSH1 0x20 ADD MLOAD DUP6 PUSH4 0xFFFFFFFF AND JUMP JUMPDEST ISZERO PUSH2 0xBF5 JUMPI DUP4 DUP6 SWAP2 POP SWAP2 POP PUSH2 0xBFC JUMP JUMPDEST DUP5 DUP5 SWAP2 POP SWAP2 POP JUMPDEST SWAP4 POP SWAP4 SWAP2 POP POP JUMP JUMPDEST PUSH1 0x40 MLOAD DUP1 PUSH1 0x60 ADD PUSH1 0x40 MSTORE DUP1 PUSH1 0x3 SWAP1 JUMPDEST PUSH2 0xC1B PUSH2 0xC31 JUMP JUMPDEST DUP2 MSTORE PUSH1 0x20 ADD SWAP1 PUSH1 0x1 SWAP1 SUB SWAP1 DUP2 PUSH2 0xC13 JUMPI SWAP1 POP POP SWAP1 JUMP JUMPDEST PUSH1 0x40 MLOAD DUP1 PUSH1 0x40 ADD PUSH1 0x40 MSTORE DUP1 PUSH0 PUSH20 0xFFFFFFFFFFFFFFFFFFFFFFFFFFFFFFFFFFFFFFFF AND DUP2 MSTORE PUSH1 0x20 ADD PUSH0 DUP2 MSTORE POP SWAP1 JUMP JUMPDEST PUSH0 DUP2 SWAP1 POP SWAP2 SWAP1 POP JUMP JUMPDEST PUSH32 0x4E487B7100000000000000000000000000000000000000000000000000000000 PUSH0 MSTORE PUSH1 0x11 PUSH1 0x4 MSTORE PUSH1 0x24 PUSH0 REVERT JUMPDEST PUSH0 PUSH2 0xC9F DUP3 PUSH2 0xC5F JUMP JUMPDEST SWAP2 POP PUSH2 0xCAA DUP4 PUSH2 0xC5F JUMP JUMPDEST SWAP3 POP DUP3 DUP3 ADD SWAP1 POP DUP1 DUP3 GT ISZERO PUSH2 0xCC2 JUMPI PUSH2 0xCC1 PUSH2 0xC68 JUMP JUMPDEST JUMPDEST SWAP3 SWAP2 POP POP JUMP JUMPDEST PUSH32 0x4E487B7100000000000000000000000000000000000000000000000000000000 PUSH0 MSTORE PUSH1 0x32 PUSH1 0x4 MSTORE PUSH1 0x24 PUSH0 REVERT JUMPDEST PUSH0 DUP1 REVERT JUMPDEST PUSH0 PUSH20 0xFFFFFFFFFFFFFFFFFFFFFFFFFFFFFFFFFFFFFFFF DUP3 AND SWAP1 POP SWAP2 SWAP1 POP JUMP JUMPDEST PUSH0 PUSH2 0xD22 DUP3 PUSH2 0xCF9 JUMP JUMPDEST SWAP1 POP SWAP2 SWAP1 POP JUMP JUMPDEST PUSH2 0xD32 DUP2 PUSH2 0xD18 JUMP JUMPDEST DUP2 EQ PUSH2 0xD3C JUMPI PUSH0 DUP1 REVERT JUMPDEST POP JUMP JUMPDEST PUSH0 DUP2 CALLDATALOAD SWAP1 POP PUSH2 0xD4D DUP2 PUSH2 0xD29 JUMP JUMPDEST SWAP3 SWAP2 POP POP JUMP JUMPDEST PUSH0 PUSH1 0x20 DUP3 DUP5 SUB SLT ISZERO PUSH2 0xD68 JUMPI PUSH2 0xD67 PUSH2 0xCF5 JUMP JUMPDEST JUMPDEST PUSH0 PUSH2 0xD75 DUP5 DUP3 DUP6 ADD PUSH2 0xD3F JUMP JUMPDEST SWAP2 POP POP SWAP3 SWAP2 POP POP JUMP JUMPDEST PUSH2 0xD87 DUP2 PUSH2 0xC5F JUMP JUMPDEST DUP3 MSTORE POP POP JUMP JUMPDEST PUSH0 PUSH1 0x20 DUP3 ADD SWAP1 POP PUSH2 0xDA0 PUSH0 DUP4 ADD DUP5 PUSH2 0xD7E JUMP JUMPDEST SWAP3 SWAP2 POP POP JUMP JUMPDEST PUSH0 PUSH1 0x3 SWAP1 POP SWAP2 SWAP1 POP JUMP JUMPDEST PUSH0 DUP2 SWAP1 POP SWAP3 SWAP2 POP POP JUMP JUMPDEST PUSH0 DUP2 SWAP1 POP SWAP2 SWAP1 POP JUMP JUMPDEST PUSH2 0xDCC DUP2 PUSH2 0xD18 JUMP JUMPDEST DUP3 MSTORE POP POP JUMP JUMPDEST PUSH2 0xDDB DUP2 PUSH2 0xC5F JUMP JUMPDEST DUP3 MSTORE POP POP JUMP JUMPDEST PUSH1 0x40 DUP3 ADD PUSH0 DUP3 ADD MLOAD PUSH2 0xDF5 PUSH0 DUP6 ADD DUP3 PUSH2 0xDC3 JUMP JUMPDEST POP PUSH1 0x20 DUP3 ADD MLOAD PUSH2 0xE08 PUSH1 0x20 DUP6 ADD DUP3 PUSH2 0xDD2 JUMP JUMPDEST POP POP POP POP JUMP JUMPDEST PUSH0 PUSH2 0xE19 DUP4 DUP4 PUSH2 0xDE1 JUMP JUMPDEST PUSH1 0x40 DUP4 ADD SWAP1 POP SWAP3 SWAP2 POP POP JUMP JUMPDEST PUSH0 PUSH1 0x20 DUP3 ADD SWAP1 POP SWAP2 SWAP1 POP JUMP JUMPDEST PUSH2 0xE3A DUP2 PUSH2 0xDA6 JUMP JUMPDEST PUSH2 0xE44 DUP2 DUP5 PUSH2 0xDB0 JUMP JUMPDEST SWAP3 POP PUSH2 0xE4F DUP3 PUSH2 0xDBA JUMP JUMPDEST DUP1 PUSH0 JUMPDEST DUP4 DUP2 LT ISZERO PUSH2 0xE7F JUMPI DUP2 MLOAD PUSH2 0xE66 DUP8 DUP3 PUSH2 0xE0E JUMP JUMPDEST SWAP7 POP PUSH2 0xE71 DUP4 PUSH2 0xE25 JUMP JUMPDEST SWAP3 POP POP PUSH1 0x1 DUP2 ADD SWAP1 POP PUSH2 0xE52 JUMP JUMPDEST POP POP POP POP POP POP JUMP JUMPDEST PUSH0 PUSH1 0xC0 DUP3 ADD SWAP1 POP PUSH2 0xE9A PUSH0 DUP4 ADD DUP5 PUSH2 0xE31 JUMP JUMPDEST SWAP3 SWAP2 POP POP JUMP JUMPDEST PUSH2 0xEA9 DUP2 PUSH2 0xC5F JUMP JUMPDEST DUP2 EQ PUSH2 0xEB3 JUMPI PUSH0 DUP1 REVERT JUMPDEST POP JUMP JUMPDEST PUSH0 DUP2 CALLDATALOAD SWAP1 POP PUSH2 0xEC4 DUP2 PUSH2 0xEA0 JUMP JUMPDEST SWAP3 SWAP2 POP POP JUMP JUMPDEST PUSH0 PUSH1 0x20 DUP3 DUP5 SUB SLT ISZERO PUSH2 0xEDF JUMPI PUSH2 0xEDE PUSH2 0xCF5 JUMP JUMPDEST JUMPDEST PUSH0 PUSH2 0xEEC DUP5 DUP3 DUP6 ADD PUSH2 0xEB6 JUMP JUMPDEST SWAP2 POP POP SWAP3 SWAP2 POP POP JUMP JUMPDEST PUSH2 0xEFE DUP2 PUSH2 0xD18 JUMP JUMPDEST DUP3 MSTORE POP POP JUMP JUMPDEST PUSH0 PUSH1 0x40 DUP3 ADD SWAP1 POP PUSH2 0xF17 PUSH0 DUP4 ADD DUP6 PUSH2 0xEF5 JUMP JUMPDEST PUSH2 0xF24 PUSH1 0x20 DUP4 ADD DUP5 PUSH2 0xD7E JUMP JUMPDEST SWAP4 SWAP3 POP POP POP JUMP JUMPDEST PUSH0 DUP2 ISZERO ISZERO SWAP1 POP SWAP2 SWAP1 POP JUMP JUMPDEST PUSH2 0xF3F DUP2 PUSH2 0xF2B JUMP JUMPDEST DUP3 MSTORE POP POP JUMP JUMPDEST PUSH0 PUSH1 0x60 DUP3 ADD SWAP1 POP PUSH2 0xF58 PUSH0 DUP4 ADD DUP7 PUSH2 0xF36 JUMP JUMPDEST PUSH2 0xF65 PUSH1 0x20 DUP4 ADD DUP6 PUSH2 0xD7E JUMP JUMPDEST PUSH2 0xF72 PUSH1 0x40 DUP4 ADD DUP5 PUSH2 0xD7E JUMP JUMPDEST SWAP5 SWAP4 POP POP POP POP JUMP JUMPDEST PUSH0 PUSH2 0xF84 DUP3 PUSH2 0xCF9 JUMP JUMPDEST SWAP1 POP SWAP2 SWAP1 POP JUMP JUMPDEST PUSH2 0xF94 DUP2 PUSH2 0xF7A JUMP JUMPDEST DUP3 MSTORE POP POP JUMP JUMPDEST PUSH0 PUSH1 0x20 DUP3 ADD SWAP1 POP PUSH2 0xFAD PUSH0 DUP4 ADD DUP5 PUSH2 0xF8B JUMP JUMPDEST SWAP3 SWAP2 POP POP JUMP JUMPDEST PUSH0 PUSH2 0xFBD DUP3 PUSH2 0xC5F JUMP JUMPDEST SWAP2 POP PUSH2 0xFC8 DUP4 PUSH2 0xC5F JUMP JUMPDEST SWAP3 POP DUP3 DUP3 SUB SWAP1 POP DUP2 DUP2 GT ISZERO PUSH2 0xFE0 JUMPI PUSH2 0xFDF PUSH2 0xC68 JUMP JUMPDEST JUMPDEST SWAP3 SWAP2 POP POP JUMP JUMPDEST PUSH0 DUP3 DUP3 MSTORE PUSH1 0x20 DUP3 ADD SWAP1 POP SWAP3 SWAP2 POP POP JUMP JUMPDEST PUSH32 0x61646D696E2077726F6E67000000000000000000000000000000000000000000 PUSH0 DUP3 ADD MSTORE POP JUMP JUMPDEST PUSH0 PUSH2 0x102A PUSH1 0xB DUP4 PUSH2 0xFE6 JUMP JUMPDEST SWAP2 POP PUSH2 0x1035 DUP3 PUSH2 0xFF6 JUMP JUMPDEST PUSH1 0x20 DUP3 ADD SWAP1 POP SWAP2 SWAP1 POP JUMP JUMPDEST PUSH0 PUSH1 0x20 DUP3 ADD SWAP1 POP DUP2 DUP2 SUB PUSH0 DUP4 ADD MSTORE PUSH2 0x1057 DUP2 PUSH2 0x101E JUMP JUMPDEST SWAP1 POP SWAP2 SWAP1 POP JUMP INVALID LOG2 PUSH5 0x6970667358 0x22 SLT KECCAK256 0x22 PUSH1 0xFE 0x21 0xD4 SWAP16 LT 0xA8 AND PUSH2 0x4C38 SIGNEXTEND GT DUP3 PUSH32 0xB8A0316F17C7313B417AE3606BCF461264736F6C634300081A00330000000000 "
				},
				"gasEstimates": {
					"creation": {
						"codeDepositCost": "848800",
						"executionCost": "infinite",
						"totalCost": "infinite"
					},
					"external": {
						"admin()": "2593",
						"balances(address)": "2780",
						"checkUserInTopUsers(address)": "infinite",
						"getRankings()": "infinite",
						"topUsers(uint256)": "infinite",
						"withdraw()": "infinite"
					},
					"internal": {
						"bubbleSort()": "infinite",
						"compare(uint256,uint256)": "35",
						"rightBigger(struct Bank.RankingStruct memory,struct Bank.RankingStruct memory,function (uint256,uint256) pure returns (bool))": "infinite"
					}
				},
				"methodIdentifiers": {
					"admin()": "f851a440",
					"balances(address)": "27e235e3",
					"checkUserInTopUsers(address)": "b5fc70f7",
					"getRankings()": "2c83b4b2",
					"topUsers(uint256)": "689dbf4e",
					"withdraw()": "3ccfd60b"
				}
			},
			"storageLayout": {
				"storage": [
					{
						"astId": 3,
						"contract": "bank.sol:Bank",
						"label": "admin",
						"offset": 0,
						"slot": "0",
						"type": "t_address_payable"
					},
					{
						"astId": 7,
						"contract": "bank.sol:Bank",
						"label": "balances",
						"offset": 0,
						"slot": "1",
						"type": "t_mapping(t_address,t_uint256)"
					},
					{
						"astId": 12,
						"contract": "bank.sol:Bank",
						"label": "topUsers",
						"offset": 0,
						"slot": "2",
						"type": "t_array(t_struct(RankingStruct)17_storage)3_storage"
					}
				],
				"types": {
					"t_address": {
						"encoding": "inplace",
						"label": "address",
						"numberOfBytes": "20"
					},
					"t_address_payable": {
						"encoding": "inplace",
						"label": "address payable",
						"numberOfBytes": "20"
					},
					"t_array(t_struct(RankingStruct)17_storage)3_storage": {
						"base": "t_struct(RankingStruct)17_storage",
						"encoding": "inplace",
						"label": "struct Bank.RankingStruct[3]",
						"numberOfBytes": "192"
					},
					"t_mapping(t_address,t_uint256)": {
						"encoding": "mapping",
						"key": "t_address",
						"label": "mapping(address => uint256)",
						"numberOfBytes": "32",
						"value": "t_uint256"
					},
					"t_struct(RankingStruct)17_storage": {
						"encoding": "inplace",
						"label": "struct Bank.RankingStruct",
						"members": [
							{
								"astId": 14,
								"contract": "bank.sol:Bank",
								"label": "addr",
								"offset": 0,
								"slot": "0",
								"type": "t_address"
							},
							{
								"astId": 16,
								"contract": "bank.sol:Bank",
								"label": "balance",
								"offset": 0,
								"slot": "1",
								"type": "t_uint256"
							}
						],
						"numberOfBytes": "64"
					},
					"t_uint256": {
						"encoding": "inplace",
						"label": "uint256",
						"numberOfBytes": "32"
					}
				}
			},
			"userdoc": {
				"kind": "user",
				"methods": {},
				"version": 1
			}
		}
	}
}