{
	"bank.sol": {
		"Admin": {
			"abi": [
				{
					"inputs": [],
					"stateMutability": "nonpayable",
					"type": "constructor"
				},
				{
					"inputs": [],
					"name": "_owner",
					"outputs": [
						{
							"internalType": "address",
							"name": "",
							"type": "address"
						}
					],
					"stateMutability": "view",
					"type": "function"
				},
				{
					"inputs": [
						{
							"internalType": "contract IBank",
							"name": "bank",
							"type": "address"
						}
					],
					"name": "adminWithdraw",
					"outputs": [],
					"stateMutability": "nonpayable",
					"type": "function"
				},
				{
					"stateMutability": "payable",
					"type": "receive"
				}
			],
			"devdoc": {
				"kind": "dev",
				"methods": {},
				"version": 1
			},
			"evm": {
				"assembly": "    /* \"bank.sol\":4733:5137  contract Admin {... */\n  mstore(0x40, 0x80)\n    /* \"bank.sol\":4781:4832  constructor () {... */\n  callvalue\n  dup1\n  iszero\n  tag_1\n  jumpi\n  0x00\n  dup1\n  revert\ntag_1:\n  pop\n    /* \"bank.sol\":4806:4812  _owner */\n  0x00\n    /* \"bank.sol\":4806:4825  _owner = msg.sender */\n  dup1\n  sload\n  not(sub(shl(0xa0, 0x01), 0x01))\n  and\n    /* \"bank.sol\":4815:4825  msg.sender */\n  caller\n    /* \"bank.sol\":4806:4825  _owner = msg.sender */\n  or\n  swap1\n  sstore\n    /* \"bank.sol\":4733:5137  contract Admin {... */\n  dataSize(sub_0)\n  dup1\n  dataOffset(sub_0)\n  0x00\n  codecopy\n  0x00\n  return\nstop\n\nsub_0: assembly {\n        /* \"bank.sol\":4733:5137  contract Admin {... */\n      mstore(0x40, 0x80)\n      jumpi(tag_1, lt(calldatasize, 0x04))\n      shr(0xe0, calldataload(0x00))\n      dup1\n      0xa28835b6\n      eq\n      tag_3\n      jumpi\n      dup1\n      0xb2bdfa7b\n      eq\n      tag_4\n      jumpi\n      0x00\n      dup1\n      revert\n    tag_1:\n      jumpi(tag_2, calldatasize)\n      stop\n    tag_2:\n      0x00\n      dup1\n      revert\n        /* \"bank.sol\":4935:5100  function adminWithdraw(IBank bank) public Owner{... */\n    tag_3:\n      callvalue\n      dup1\n      iszero\n      tag_7\n      jumpi\n      0x00\n      dup1\n      revert\n    tag_7:\n      pop\n      tag_8\n      tag_9\n      calldatasize\n      0x04\n      tag_10\n      jump\t// in\n    tag_9:\n      tag_11\n      jump\t// in\n    tag_8:\n      stop\n        /* \"bank.sol\":4754:4775  address public _owner */\n    tag_4:\n      callvalue\n      dup1\n      iszero\n      tag_12\n      jumpi\n      0x00\n      dup1\n      revert\n    tag_12:\n      pop\n      sload(0x00)\n      tag_13\n      swap1\n      sub(shl(0xa0, 0x01), 0x01)\n      and\n      dup2\n      jump\n    tag_13:\n      mload(0x40)\n      sub(shl(0xa0, 0x01), 0x01)\n        /* \"#utility.yul\":480:512   */\n      swap1\n      swap2\n      and\n        /* \"#utility.yul\":462:513   */\n      dup2\n      mstore\n        /* \"#utility.yul\":450:452   */\n      0x20\n        /* \"#utility.yul\":435:453   */\n      add\n        /* \"bank.sol\":4754:4775  address public _owner */\n      mload(0x40)\n      dup1\n      swap2\n      sub\n      swap1\n      return\n        /* \"bank.sol\":4935:5100  function adminWithdraw(IBank bank) public Owner{... */\n    tag_11:\n        /* \"bank.sol\":4873:4879  _owner */\n      and(sub(shl(0xa0, 0x01), 0x01), sload(0x00))\n        /* \"bank.sol\":4883:4893  msg.sender */\n      caller\n        /* \"bank.sol\":4873:4893  _owner == msg.sender */\n      eq\n        /* \"bank.sol\":4865:4911  require(_owner == msg.sender, \"must be owner\") */\n      tag_18\n      jumpi\n      mload(0x40)\n      shl(0xe5, 0x461bcd)\n      dup2\n      mstore\n        /* \"#utility.yul\":726:728   */\n      0x20\n        /* \"bank.sol\":4865:4911  require(_owner == msg.sender, \"must be owner\") */\n      0x04\n      dup3\n      add\n        /* \"#utility.yul\":708:729   */\n      mstore\n        /* \"#utility.yul\":765:767   */\n      0x0d\n        /* \"#utility.yul\":745:763   */\n      0x24\n      dup3\n      add\n        /* \"#utility.yul\":738:768   */\n      mstore\n      shl(0x99, 0x36bab9ba1031329037bbb732b9)\n        /* \"#utility.yul\":784:802   */\n      0x44\n      dup3\n      add\n        /* \"#utility.yul\":777:820   */\n      mstore\n        /* \"#utility.yul\":837:855   */\n      0x64\n      add\n        /* \"bank.sol\":4865:4911  require(_owner == msg.sender, \"must be owner\") */\n      mload(0x40)\n      dup1\n      swap2\n      sub\n      swap1\n      revert\n    tag_18:\n        /* \"bank.sol\":5077:5081  bank */\n      dup1\n      sub(shl(0xa0, 0x01), 0x01)\n        /* \"bank.sol\":5071:5091  IBank(bank).withdraw */\n      and\n      0x3ccfd60b\n        /* \"bank.sol\":5071:5093  IBank(bank).withdraw() */\n      mload(0x40)\n      dup2\n      0xffffffff\n      and\n      0xe0\n      shl\n      dup2\n      mstore\n      0x04\n      add\n      0x20\n      mload(0x40)\n      dup1\n      dup4\n      sub\n      dup2\n      0x00\n      dup8\n      gas\n      call\n      iszero\n      dup1\n      iszero\n      tag_23\n      jumpi\n      returndatasize\n      0x00\n      dup1\n      returndatacopy\n      revert(0x00, returndatasize)\n    tag_23:\n      pop\n      pop\n      pop\n      pop\n      mload(0x40)\n      returndatasize\n      not(0x1f)\n      0x1f\n      dup3\n      add\n      and\n      dup3\n      add\n      dup1\n      0x40\n      mstore\n      pop\n      dup2\n      add\n      swap1\n      tag_24\n      swap2\n      swap1\n      tag_25\n      jump\t// in\n    tag_24:\n      pop\n        /* \"bank.sol\":4935:5100  function adminWithdraw(IBank bank) public Owner{... */\n      pop\n      jump\t// out\n        /* \"#utility.yul\":14:311   */\n    tag_10:\n        /* \"#utility.yul\":84:90   */\n      0x00\n        /* \"#utility.yul\":137:139   */\n      0x20\n        /* \"#utility.yul\":125:134   */\n      dup3\n        /* \"#utility.yul\":116:123   */\n      dup5\n        /* \"#utility.yul\":112:135   */\n      sub\n        /* \"#utility.yul\":108:140   */\n      slt\n        /* \"#utility.yul\":105:157   */\n      iszero\n      tag_28\n      jumpi\n        /* \"#utility.yul\":153:154   */\n      0x00\n        /* \"#utility.yul\":150:151   */\n      dup1\n        /* \"#utility.yul\":143:155   */\n      revert\n        /* \"#utility.yul\":105:157   */\n    tag_28:\n        /* \"#utility.yul\":179:202   */\n      dup2\n      calldataload\n      sub(shl(0xa0, 0x01), 0x01)\n        /* \"#utility.yul\":231:262   */\n      dup2\n      and\n        /* \"#utility.yul\":221:263   */\n      dup2\n      eq\n        /* \"#utility.yul\":211:281   */\n      tag_29\n      jumpi\n        /* \"#utility.yul\":277:278   */\n      0x00\n        /* \"#utility.yul\":274:275   */\n      dup1\n        /* \"#utility.yul\":267:279   */\n      revert\n        /* \"#utility.yul\":211:281   */\n    tag_29:\n        /* \"#utility.yul\":300:305   */\n      swap4\n        /* \"#utility.yul\":14:311   */\n      swap3\n      pop\n      pop\n      pop\n      jump\t// out\n        /* \"#utility.yul\":866:1050   */\n    tag_25:\n        /* \"#utility.yul\":936:942   */\n      0x00\n        /* \"#utility.yul\":989:991   */\n      0x20\n        /* \"#utility.yul\":977:986   */\n      dup3\n        /* \"#utility.yul\":968:975   */\n      dup5\n        /* \"#utility.yul\":964:987   */\n      sub\n        /* \"#utility.yul\":960:992   */\n      slt\n        /* \"#utility.yul\":957:1009   */\n      iszero\n      tag_33\n      jumpi\n        /* \"#utility.yul\":1005:1006   */\n      0x00\n        /* \"#utility.yul\":1002:1003   */\n      dup1\n        /* \"#utility.yul\":995:1007   */\n      revert\n        /* \"#utility.yul\":957:1009   */\n    tag_33:\n      pop\n        /* \"#utility.yul\":1028:1044   */\n      mload\n      swap2\n        /* \"#utility.yul\":866:1050   */\n      swap1\n      pop\n      jump\t// out\n\n    auxdata: 0xa264697066735822122083e4ac3cc053c7c1a16115f9b3c9f33174c3cf9532b63cb3aa117c1b8f3971b164736f6c634300081a0033\n}\n",
				"bytecode": {
					"linkReferences": {},
					"object": "6080604052348015600e575f80fd5b505f80546001600160a01b031916331790556101bd8061002d5f395ff3fe60806040526004361061002b575f3560e01c8063a28835b614610036578063b2bdfa7b14610057575f80fd5b3661003257005b5f80fd5b348015610041575f80fd5b50610055610050366004610143565b610091565b005b348015610062575f80fd5b505f54610075906001600160a01b031681565b6040516001600160a01b03909116815260200160405180910390f35b5f546001600160a01b031633146100de5760405162461bcd60e51b815260206004820152600d60248201526c36bab9ba1031329037bbb732b960991b604482015260640160405180910390fd5b806001600160a01b0316633ccfd60b6040518163ffffffff1660e01b81526004016020604051808303815f875af115801561011b573d5f803e3d5ffd5b505050506040513d601f19601f8201168201806040525081019061013f9190610170565b5050565b5f60208284031215610153575f80fd5b81356001600160a01b0381168114610169575f80fd5b9392505050565b5f60208284031215610180575f80fd5b505191905056fea264697066735822122083e4ac3cc053c7c1a16115f9b3c9f33174c3cf9532b63cb3aa117c1b8f3971b164736f6c634300081a0033",
					"opcodes": "PUSH1 0x80 PUSH1 0x40 MSTORE CALLVALUE DUP1 ISZERO PUSH1 0xE JUMPI PUSH0 DUP1 REVERT JUMPDEST POP PUSH0 DUP1 SLOAD PUSH1 0x1 PUSH1 0x1 PUSH1 0xA0 SHL SUB NOT AND CALLER OR SWAP1 SSTORE PUSH2 0x1BD DUP1 PUSH2 0x2D PUSH0 CODECOPY PUSH0 RETURN INVALID PUSH1 0x80 PUSH1 0x40 MSTORE PUSH1 0x4 CALLDATASIZE LT PUSH2 0x2B JUMPI PUSH0 CALLDATALOAD PUSH1 0xE0 SHR DUP1 PUSH4 0xA28835B6 EQ PUSH2 0x36 JUMPI DUP1 PUSH4 0xB2BDFA7B EQ PUSH2 0x57 JUMPI PUSH0 DUP1 REVERT JUMPDEST CALLDATASIZE PUSH2 0x32 JUMPI STOP JUMPDEST PUSH0 DUP1 REVERT JUMPDEST CALLVALUE DUP1 ISZERO PUSH2 0x41 JUMPI PUSH0 DUP1 REVERT JUMPDEST POP PUSH2 0x55 PUSH2 0x50 CALLDATASIZE PUSH1 0x4 PUSH2 0x143 JUMP JUMPDEST PUSH2 0x91 JUMP JUMPDEST STOP JUMPDEST CALLVALUE DUP1 ISZERO PUSH2 0x62 JUMPI PUSH0 DUP1 REVERT JUMPDEST POP PUSH0 SLOAD PUSH2 0x75 SWAP1 PUSH1 0x1 PUSH1 0x1 PUSH1 0xA0 SHL SUB AND DUP2 JUMP JUMPDEST PUSH1 0x40 MLOAD PUSH1 0x1 PUSH1 0x1 PUSH1 0xA0 SHL SUB SWAP1 SWAP2 AND DUP2 MSTORE PUSH1 0x20 ADD PUSH1 0x40 MLOAD DUP1 SWAP2 SUB SWAP1 RETURN JUMPDEST PUSH0 SLOAD PUSH1 0x1 PUSH1 0x1 PUSH1 0xA0 SHL SUB AND CALLER EQ PUSH2 0xDE JUMPI PUSH1 0x40 MLOAD PUSH3 0x461BCD PUSH1 0xE5 SHL DUP2 MSTORE PUSH1 0x20 PUSH1 0x4 DUP3 ADD MSTORE PUSH1 0xD PUSH1 0x24 DUP3 ADD MSTORE PUSH13 0x36BAB9BA1031329037BBB732B9 PUSH1 0x99 SHL PUSH1 0x44 DUP3 ADD MSTORE PUSH1 0x64 ADD PUSH1 0x40 MLOAD DUP1 SWAP2 SUB SWAP1 REVERT JUMPDEST DUP1 PUSH1 0x1 PUSH1 0x1 PUSH1 0xA0 SHL SUB AND PUSH4 0x3CCFD60B PUSH1 0x40 MLOAD DUP2 PUSH4 0xFFFFFFFF AND PUSH1 0xE0 SHL DUP2 MSTORE PUSH1 0x4 ADD PUSH1 0x20 PUSH1 0x40 MLOAD DUP1 DUP4 SUB DUP2 PUSH0 DUP8 GAS CALL ISZERO DUP1 ISZERO PUSH2 0x11B JUMPI RETURNDATASIZE PUSH0 DUP1 RETURNDATACOPY RETURNDATASIZE PUSH0 REVERT JUMPDEST POP POP POP POP PUSH1 0x40 MLOAD RETURNDATASIZE PUSH1 0x1F NOT PUSH1 0x1F DUP3 ADD AND DUP3 ADD DUP1 PUSH1 0x40 MSTORE POP DUP2 ADD SWAP1 PUSH2 0x13F SWAP2 SWAP1 PUSH2 0x170 JUMP JUMPDEST POP POP JUMP JUMPDEST PUSH0 PUSH1 0x20 DUP3 DUP5 SUB SLT ISZERO PUSH2 0x153 JUMPI PUSH0 DUP1 REVERT JUMPDEST DUP2 CALLDATALOAD PUSH1 0x1 PUSH1 0x1 PUSH1 0xA0 SHL SUB DUP2 AND DUP2 EQ PUSH2 0x169 JUMPI PUSH0 DUP1 REVERT JUMPDEST SWAP4 SWAP3 POP POP POP JUMP JUMPDEST PUSH0 PUSH1 0x20 DUP3 DUP5 SUB SLT ISZERO PUSH2 0x180 JUMPI PUSH0 DUP1 REVERT JUMPDEST POP MLOAD SWAP2 SWAP1 POP JUMP INVALID LOG2 PUSH5 0x6970667358 0x22 SLT KECCAK256 DUP4 0xE4 0xAC EXTCODECOPY 0xC0 MSTORE8 0xC7 0xC1 LOG1 PUSH2 0x15F9 0xB3 0xC9 RETURN BALANCE PUSH21 0xC3CF9532B63CB3AA117C1B8F3971B164736F6C6343 STOP ADDMOD BYTE STOP CALLER "
				},
				"gasEstimates": {
					"creation": {
						"codeDepositCost": "89000",
						"executionCost": "24367",
						"totalCost": "113367"
					},
					"external": {
						"_owner()": "2323",
						"adminWithdraw(address)": "infinite"
					}
				},
				"methodIdentifiers": {
					"_owner()": "b2bdfa7b",
					"adminWithdraw(address)": "a28835b6"
				}
			},
			"storageLayout": {
				"storage": [
					{
						"astId": 534,
						"contract": "bank.sol:Admin",
						"label": "_owner",
						"offset": 0,
						"slot": "0",
						"type": "t_address"
					}
				],
				"types": {
					"t_address": {
						"encoding": "inplace",
						"label": "address",
						"numberOfBytes": "20"
					}
				}
			},
			"userdoc": {
				"kind": "user",
				"methods": {},
				"version": 1
			}
		}
	}
}