{
	"bank.sol": {
		"BigBank": {
			"abi": [
				{
					"inputs": [],
					"stateMutability": "payable",
					"type": "constructor"
				},
				{
					"inputs": [],
					"name": "admin",
					"outputs": [
						{
							"internalType": "address payable",
							"name": "",
							"type": "address"
						}
					],
					"stateMutability": "view",
					"type": "function"
				},
				{
					"inputs": [
						{
							"internalType": "address",
							"name": "",
							"type": "address"
						}
					],
					"name": "balances",
					"outputs": [
						{
							"internalType": "uint256",
							"name": "",
							"type": "uint256"
						}
					],
					"stateMutability": "view",
					"type": "function"
				},
				{
					"inputs": [
						{
							"internalType": "address payable",
							"name": "_admin",
							"type": "address"
						}
					],
					"name": "changeAdmin",
					"outputs": [],
					"stateMutability": "nonpayable",
					"type": "function"
				},
				{
					"inputs": [
						{
							"internalType": "address",
							"name": "user",
							"type": "address"
						}
					],
					"name": "checkUserInTopUsers",
					"outputs": [
						{
							"internalType": "bool",
							"name": "found",
							"type": "bool"
						},
						{
							"internalType": "uint256",
							"name": "balance",
							"type": "uint256"
						},
						{
							"internalType": "uint256",
							"name": "position",
							"type": "uint256"
						}
					],
					"stateMutability": "view",
					"type": "function"
				},
				{
					"inputs": [
						{
							"internalType": "address",
							"name": "sender",
							"type": "address"
						},
						{
							"internalType": "uint256",
							"name": "value",
							"type": "uint256"
						}
					],
					"name": "deposit",
					"outputs": [],
					"stateMutability": "nonpayable",
					"type": "function"
				},
				{
					"inputs": [],
					"name": "getRankings",
					"outputs": [
						{
							"components": [
								{
									"internalType": "address",
									"name": "addr",
									"type": "address"
								},
								{
									"internalType": "uint256",
									"name": "balance",
									"type": "uint256"
								}
							],
							"internalType": "struct Bank.RankingStruct[3]",
							"name": "",
							"type": "tuple[3]"
						}
					],
					"stateMutability": "view",
					"type": "function"
				},
				{
					"inputs": [
						{
							"internalType": "uint256",
							"name": "",
							"type": "uint256"
						}
					],
					"name": "topUsers",
					"outputs": [
						{
							"internalType": "address",
							"name": "addr",
							"type": "address"
						},
						{
							"internalType": "uint256",
							"name": "balance",
							"type": "uint256"
						}
					],
					"stateMutability": "view",
					"type": "function"
				},
				{
					"inputs": [],
					"name": "withdraw",
					"outputs": [
						{
							"internalType": "uint256",
							"name": "",
							"type": "uint256"
						}
					],
					"stateMutability": "nonpayable",
					"type": "function"
				},
				{
					"stateMutability": "payable",
					"type": "receive"
				}
			],
			"devdoc": {
				"kind": "dev",
				"methods": {},
				"version": 1
			},
			"evm": {
				"assembly": "    /* \"bank.sol\":415:420  admin */\n  0x00\n    /* \"bank.sol\":415:429  admin = _admin */\n  dup1\n  sload\n    /* \"bank.sol\":4254:4264  msg.sender */\n  caller\n  not(sub(shl(0xa0, 0x01), 0x01))\n    /* \"bank.sol\":415:429  admin = _admin */\n  swap2\n  dup3\n  and\n  or\n  dup3\n  sstore\n    /* \"bank.sol\":4143:4731  contract BigBank is Bank {... */\n  0x80\n    /* \"bank.sol\":453:481  RankingStruct(address(0), 0) */\n  dup3\n  swap1\n  mstore\n  0xa0\n  dup3\n  swap1\n  mstore\n    /* \"bank.sol\":439:447  topUsers */\n  0x02\n    /* \"bank.sol\":439:481  topUsers[0] = RankingStruct(address(0), 0) */\n  dup1\n  sload\n  dup3\n  and\n  swap1\n  sstore\n  0x03\n  dup3\n  swap1\n  sstore\n    /* \"bank.sol\":453:481  RankingStruct(address(0), 0) */\n  0xc0\n    /* \"bank.sol\":505:533  RankingStruct(address(0), 0) */\n  dup3\n  swap1\n  mstore\n  0xe0\n  dup3\n  swap1\n  mstore\n    /* \"bank.sol\":491:502  topUsers[1] */\n  0x04\n    /* \"bank.sol\":491:533  topUsers[1] = RankingStruct(address(0), 0) */\n  dup1\n  sload\n  dup3\n  and\n  swap1\n  sstore\n  0x05\n  dup3\n  swap1\n  sstore\n    /* \"bank.sol\":557:585  RankingStruct(address(0), 0) */\n  0x0140\n    /* \"bank.sol\":4143:4731  contract BigBank is Bank {... */\n  0x40\n    /* \"bank.sol\":557:585  RankingStruct(address(0), 0) */\n  mstore\n    /* \"bank.sol\":505:533  RankingStruct(address(0), 0) */\n  0x0100\n    /* \"bank.sol\":557:585  RankingStruct(address(0), 0) */\n  dup3\n  swap1\n  mstore\n  0x0120\n  dup3\n  swap1\n  mstore\n    /* \"bank.sol\":543:554  topUsers[2] */\n  0x06\n    /* \"bank.sol\":543:585  topUsers[2] = RankingStruct(address(0), 0) */\n  dup1\n  sload\n  swap1\n  swap2\n  and\n  swap1\n  sstore\n  0x07\n  sstore\n    /* \"bank.sol\":4143:4731  contract BigBank is Bank {... */\n  dataSize(sub_0)\n  dup1\n  dataOffset(sub_0)\n  0x00\n  codecopy\n  0x00\n  return\nstop\n\nsub_0: assembly {\n        /* \"bank.sol\":4143:4731  contract BigBank is Bank {... */\n      mstore(0x40, 0x80)\n      jumpi(tag_1, lt(calldatasize, 0x04))\n      shr(0xe0, calldataload(0x00))\n      dup1\n      0x689dbf4e\n      gt\n      tag_11\n      jumpi\n      dup1\n      0x689dbf4e\n      eq\n      tag_7\n      jumpi\n      dup1\n      0x8f283970\n      eq\n      tag_8\n      jumpi\n      dup1\n      0xb5fc70f7\n      eq\n      tag_9\n      jumpi\n      dup1\n      0xf851a440\n      eq\n      tag_10\n      jumpi\n      0x00\n      dup1\n      revert\n    tag_11:\n      dup1\n      0x27e235e3\n      eq\n      tag_3\n      jumpi\n      dup1\n      0x2c83b4b2\n      eq\n      tag_4\n      jumpi\n      dup1\n      0x3ccfd60b\n      eq\n      tag_5\n      jumpi\n      dup1\n      0x47e7ef24\n      eq\n      tag_6\n      jumpi\n      0x00\n      dup1\n      revert\n    tag_1:\n      jumpi(tag_2, calldatasize)\n        /* \"bank.sol\":4691:4721  deposit(msg.sender, msg.value) */\n      tag_14\n        /* \"bank.sol\":4699:4709  msg.sender */\n      caller\n        /* \"bank.sol\":4711:4720  msg.value */\n      callvalue\n        /* \"bank.sol\":4691:4698  deposit */\n      tag_15\n        /* \"bank.sol\":4691:4721  deposit(msg.sender, msg.value) */\n      jump\t// in\n    tag_14:\n        /* \"bank.sol\":4143:4731  contract BigBank is Bank {... */\n      stop\n    tag_2:\n      0x00\n      dup1\n      revert\n        /* \"bank.sol\":193:236  mapping(address => uint256) public balances */\n    tag_3:\n      callvalue\n      dup1\n      iszero\n      tag_16\n      jumpi\n      0x00\n      dup1\n      revert\n    tag_16:\n      pop\n      tag_17\n      tag_18\n      calldatasize\n      0x04\n      tag_19\n      jump\t// in\n    tag_18:\n      mstore(0x20, 0x01)\n      0x00\n      swap1\n      dup2\n      mstore\n      0x40\n      swap1\n      keccak256\n      sload\n      dup2\n      jump\n    tag_17:\n      mload(0x40)\n        /* \"#utility.yul\":548:573   */\n      swap1\n      dup2\n      mstore\n        /* \"#utility.yul\":536:538   */\n      0x20\n        /* \"#utility.yul\":521:539   */\n      add\n        /* \"bank.sol\":193:236  mapping(address => uint256) public balances */\n    tag_21:\n      mload(0x40)\n      dup1\n      swap2\n      sub\n      swap1\n      return\n        /* \"bank.sol\":2881:2982  function getRankings() public view returns (RankingStruct[3] memory) {... */\n    tag_4:\n      callvalue\n      dup1\n      iszero\n      tag_23\n      jumpi\n      0x00\n      dup1\n      revert\n    tag_23:\n      pop\n      tag_24\n      tag_25\n      jump\t// in\n    tag_24:\n      mload(0x40)\n      tag_21\n      swap2\n      swap1\n      tag_27\n      jump\t// in\n        /* \"bank.sol\":1718:1929  function withdraw() external override returns (uint256)  {... */\n    tag_5:\n      callvalue\n      dup1\n      iszero\n      tag_28\n      jumpi\n      0x00\n      dup1\n      revert\n    tag_28:\n      pop\n      tag_17\n      tag_30\n      jump\t// in\n        /* \"bank.sol\":4515:4638  function deposit(address sender, uint value) public oneFinney(value) override {... */\n    tag_6:\n      callvalue\n      dup1\n      iszero\n      tag_32\n      jumpi\n      0x00\n      dup1\n      revert\n    tag_32:\n      pop\n      tag_14\n      tag_34\n      calldatasize\n      0x04\n      tag_35\n      jump\t// in\n    tag_34:\n      tag_15\n      jump\t// in\n        /* \"bank.sol\":242:274  RankingStruct[3] public topUsers */\n    tag_7:\n      callvalue\n      dup1\n      iszero\n      tag_36\n      jumpi\n      0x00\n      dup1\n      revert\n    tag_36:\n      pop\n      tag_37\n      tag_38\n      calldatasize\n      0x04\n      tag_39\n      jump\t// in\n    tag_38:\n      tag_40\n      jump\t// in\n    tag_37:\n      0x40\n      dup1\n      mload\n      sub(shl(0xa0, 0x01), 0x01)\n        /* \"#utility.yul\":2029:2061   */\n      swap1\n      swap4\n      and\n        /* \"#utility.yul\":2011:2062   */\n      dup4\n      mstore\n        /* \"#utility.yul\":2093:2095   */\n      0x20\n        /* \"#utility.yul\":2078:2096   */\n      dup4\n      add\n        /* \"#utility.yul\":2071:2105   */\n      swap2\n      swap1\n      swap2\n      mstore\n        /* \"#utility.yul\":1984:2002   */\n      add\n        /* \"bank.sol\":242:274  RankingStruct[3] public topUsers */\n      tag_21\n        /* \"#utility.yul\":1837:2111   */\n      jump\n        /* \"bank.sol\":4416:4509  function changeAdmin(address payable _admin) public onlyAdmin {... */\n    tag_8:\n      callvalue\n      dup1\n      iszero\n      tag_43\n      jumpi\n      0x00\n      dup1\n      revert\n    tag_43:\n      pop\n      tag_14\n      tag_45\n      calldatasize\n      0x04\n      tag_19\n      jump\t// in\n    tag_45:\n      tag_47\n      jump\t// in\n        /* \"bank.sol\":2988:3375  function checkUserInTopUsers(address user)... */\n    tag_9:\n      callvalue\n      dup1\n      iszero\n      tag_48\n      jumpi\n      0x00\n      dup1\n      revert\n    tag_48:\n      pop\n      tag_49\n      tag_50\n      calldatasize\n      0x04\n      tag_19\n      jump\t// in\n    tag_50:\n      tag_51\n      jump\t// in\n    tag_49:\n      0x40\n      dup1\n      mload\n        /* \"#utility.yul\":2597:2611   */\n      swap4\n      iszero\n        /* \"#utility.yul\":2590:2612   */\n      iszero\n        /* \"#utility.yul\":2572:2613   */\n      dup5\n      mstore\n        /* \"#utility.yul\":2644:2646   */\n      0x20\n        /* \"#utility.yul\":2629:2647   */\n      dup5\n      add\n        /* \"#utility.yul\":2622:2656   */\n      swap3\n      swap1\n      swap3\n      mstore\n        /* \"#utility.yul\":2672:2690   */\n      swap1\n      dup3\n      add\n        /* \"#utility.yul\":2665:2699   */\n      mstore\n        /* \"#utility.yul\":2560:2562   */\n      0x60\n        /* \"#utility.yul\":2545:2563   */\n      add\n        /* \"bank.sol\":2988:3375  function checkUserInTopUsers(address user)... */\n      tag_21\n        /* \"#utility.yul\":2376:2705   */\n      jump\n        /* \"bank.sol\":159:187  address payable public admin */\n    tag_10:\n      callvalue\n      dup1\n      iszero\n      tag_54\n      jumpi\n      0x00\n      dup1\n      revert\n    tag_54:\n      pop\n      sload(0x00)\n      tag_55\n      swap1\n      sub(shl(0xa0, 0x01), 0x01)\n      and\n      dup2\n      jump\n    tag_55:\n      mload(0x40)\n      sub(shl(0xa0, 0x01), 0x01)\n        /* \"#utility.yul\":2890:2922   */\n      swap1\n      swap2\n      and\n        /* \"#utility.yul\":2872:2923   */\n      dup2\n      mstore\n        /* \"#utility.yul\":2860:2862   */\n      0x20\n        /* \"#utility.yul\":2845:2863   */\n      add\n        /* \"bank.sol\":159:187  address payable public admin */\n      tag_21\n        /* \"#utility.yul\":2710:2929   */\n      jump\n        /* \"bank.sol\":4515:4638  function deposit(address sender, uint value) public oneFinney(value) override {... */\n    tag_15:\n        /* \"bank.sol\":4577:4582  value */\n      dup1\n        /* \"bank.sol\":4347:4364  1 * DEPOSIT_LIMIT */\n      tag_60\n        /* \"bank.sol\":4204:4212  10 ** 15 */\n      0x038d7ea4c68000\n        /* \"bank.sol\":4347:4348  1 */\n      0x01\n        /* \"bank.sol\":4347:4364  1 * DEPOSIT_LIMIT */\n      tag_61\n      jump\t// in\n    tag_60:\n        /* \"bank.sol\":4339:4344  value */\n      dup2\n        /* \"bank.sol\":4339:4364  value > 1 * DEPOSIT_LIMIT */\n      gt\n        /* \"bank.sol\":4331:4392  require(value > 1 * DEPOSIT_LIMIT, \"must more than 1 Finney\") */\n      tag_62\n      jumpi\n      mload(0x40)\n      shl(0xe5, 0x461bcd)\n      dup2\n      mstore\n        /* \"#utility.yul\":3441:3443   */\n      0x20\n        /* \"bank.sol\":4331:4392  require(value > 1 * DEPOSIT_LIMIT, \"must more than 1 Finney\") */\n      0x04\n      dup3\n      add\n        /* \"#utility.yul\":3423:3444   */\n      mstore\n        /* \"#utility.yul\":3480:3482   */\n      0x17\n        /* \"#utility.yul\":3460:3478   */\n      0x24\n      dup3\n      add\n        /* \"#utility.yul\":3453:3483   */\n      mstore\n        /* \"#utility.yul\":3519:3544   */\n      0x6d757374206d6f7265207468616e20312046696e6e6579000000000000000000\n        /* \"#utility.yul\":3499:3517   */\n      0x44\n      dup3\n      add\n        /* \"#utility.yul\":3492:3545   */\n      mstore\n        /* \"#utility.yul\":3562:3580   */\n      0x64\n      add\n        /* \"bank.sol\":4331:4392  require(value > 1 * DEPOSIT_LIMIT, \"must more than 1 Finney\") */\n    tag_63:\n      mload(0x40)\n      dup1\n      swap2\n      sub\n      swap1\n      revert\n    tag_62:\n        /* \"bank.sol\":4603:4631  super.deposit(sender, value) */\n      tag_66\n        /* \"bank.sol\":4617:4623  sender */\n      dup4\n        /* \"bank.sol\":4625:4630  value */\n      dup4\n        /* \"bank.sol\":4603:4616  super.deposit */\n      tag_67\n        /* \"bank.sol\":4603:4631  super.deposit(sender, value) */\n      jump\t// in\n    tag_66:\n        /* \"bank.sol\":4515:4638  function deposit(address sender, uint value) public oneFinney(value) override {... */\n      pop\n      pop\n      pop\n      jump\t// out\n        /* \"bank.sol\":2881:2982  function getRankings() public view returns (RankingStruct[3] memory) {... */\n    tag_25:\n        /* \"bank.sol\":2925:2948  RankingStruct[3] memory */\n      tag_68\n      tag_69\n      jump\t// in\n    tag_68:\n        /* \"bank.sol\":2960:2975  return topUsers */\n      0x40\n      dup1\n      mload\n      0x60\n      dup2\n      add\n      swap1\n      swap2\n      mstore\n        /* \"bank.sol\":2967:2975  topUsers */\n      0x02\n        /* \"bank.sol\":2960:2975  return topUsers */\n      0x03\n      0x00\n      dup4\n    tag_71:\n      dup3\n      dup3\n      lt\n      iszero\n      tag_72\n      jumpi\n      0x40\n      dup1\n      mload\n      dup1\n      dup3\n      add\n      swap1\n      swap2\n      mstore\n      0x02\n      dup4\n      mul\n      dup6\n      add\n      dup1\n      sload\n      sub(shl(0xa0, 0x01), 0x01)\n      and\n      dup3\n      mstore\n      0x01\n      swap1\n      dup2\n      add\n      sload\n      0x20\n      dup1\n      dup5\n      add\n      swap2\n      swap1\n      swap2\n      mstore\n      swap2\n      dup4\n      mstore\n      swap1\n      swap3\n      add\n      swap2\n      add\n      jump(tag_71)\n    tag_72:\n      pop\n      pop\n      pop\n      pop\n      swap1\n      pop\n        /* \"bank.sol\":2881:2982  function getRankings() public view returns (RankingStruct[3] memory) {... */\n      swap1\n      jump\t// out\n        /* \"bank.sol\":1718:1929  function withdraw() external override returns (uint256)  {... */\n    tag_30:\n        /* \"bank.sol\":1765:1772  uint256 */\n      0x00\n        /* \"bank.sol\":1807:1812  admin */\n      dup1\n      sload\n      sub(shl(0xa0, 0x01), 0x01)\n      and\n        /* \"bank.sol\":1793:1803  msg.sender */\n      caller\n        /* \"bank.sol\":1793:1812  msg.sender == admin */\n      eq\n        /* \"bank.sol\":1785:1828  require(msg.sender == admin, \"admin wrong\") */\n      tag_75\n      jumpi\n      mload(0x40)\n      shl(0xe5, 0x461bcd)\n      dup2\n      mstore\n        /* \"#utility.yul\":3793:3795   */\n      0x20\n        /* \"bank.sol\":1785:1828  require(msg.sender == admin, \"admin wrong\") */\n      0x04\n      dup3\n      add\n        /* \"#utility.yul\":3775:3796   */\n      mstore\n        /* \"#utility.yul\":3832:3834   */\n      0x0b\n        /* \"#utility.yul\":3812:3830   */\n      0x24\n      dup3\n      add\n        /* \"#utility.yul\":3805:3835   */\n      mstore\n      shl(0xa8, 0x61646d696e2077726f6e67)\n        /* \"#utility.yul\":3851:3869   */\n      0x44\n      dup3\n      add\n        /* \"#utility.yul\":3844:3885   */\n      mstore\n        /* \"#utility.yul\":3902:3920   */\n      0x64\n      add\n        /* \"bank.sol\":1785:1828  require(msg.sender == admin, \"admin wrong\") */\n      tag_63\n        /* \"#utility.yul\":3591:3926   */\n      jump\n        /* \"bank.sol\":1785:1828  require(msg.sender == admin, \"admin wrong\") */\n    tag_75:\n        /* \"bank.sol\":1846:1851  admin */\n      0x00\n      dup1\n      sload\n        /* \"bank.sol\":1838:1884  payable(admin).transfer(address(this).balance) */\n      mload(0x40)\n      sub(shl(0xa0, 0x01), 0x01)\n        /* \"bank.sol\":1846:1851  admin */\n      swap1\n      swap2\n      and\n      swap2\n        /* \"bank.sol\":1862:1883  address(this).balance */\n      selfbalance\n        /* \"bank.sol\":1838:1884  payable(admin).transfer(address(this).balance) */\n      dup1\n      iszero\n      0x08fc\n      mul\n      swap3\n        /* \"bank.sol\":1862:1883  address(this).balance */\n      swap1\n      swap2\n        /* \"bank.sol\":1838:1884  payable(admin).transfer(address(this).balance) */\n      dup2\n        /* \"bank.sol\":1846:1851  admin */\n      dup2\n        /* \"bank.sol\":1838:1884  payable(admin).transfer(address(this).balance) */\n      dup2\n        /* \"bank.sol\":1862:1883  address(this).balance */\n      dup6\n        /* \"bank.sol\":1846:1851  admin */\n      dup9\n        /* \"bank.sol\":1838:1884  payable(admin).transfer(address(this).balance) */\n      dup9\n      call\n      swap4\n      pop\n      pop\n      pop\n      pop\n      iszero\n      dup1\n      iszero\n      tag_79\n      jumpi\n      returndatasize\n      0x00\n      dup1\n      returndatacopy\n      revert(0x00, returndatasize)\n    tag_79:\n      pop\n        /* \"bank.sol\":1901:1922  address(this).balance */\n      selfbalance\n        /* \"bank.sol\":1894:1922  return address(this).balance */\n      swap1\n      pop\n        /* \"bank.sol\":1718:1929  function withdraw() external override returns (uint256)  {... */\n      swap1\n      jump\t// out\n        /* \"bank.sol\":242:274  RankingStruct[3] public topUsers */\n    tag_40:\n      0x02\n      dup2\n      0x03\n      dup2\n      lt\n      tag_80\n      jumpi\n      0x00\n      dup1\n      revert\n    tag_80:\n      0x02\n      mul\n      add\n      dup1\n      sload\n      0x01\n      swap1\n      swap2\n      add\n      sload\n      sub(shl(0xa0, 0x01), 0x01)\n      swap1\n      swap2\n      and\n      swap2\n      pop\n      dup3\n      jump\t// out\n        /* \"bank.sol\":4416:4509  function changeAdmin(address payable _admin) public onlyAdmin {... */\n    tag_47:\n        /* \"bank.sol\":650:655  admin */\n      and(sub(shl(0xa0, 0x01), 0x01), sload(0x00))\n        /* \"bank.sol\":636:646  msg.sender */\n      caller\n        /* \"bank.sol\":636:655  msg.sender == admin */\n      eq\n        /* \"bank.sol\":628:670  require(msg.sender == admin, \"must admin\") */\n      tag_83\n      jumpi\n      mload(0x40)\n      shl(0xe5, 0x461bcd)\n      dup2\n      mstore\n        /* \"#utility.yul\":4133:4135   */\n      0x20\n        /* \"bank.sol\":628:670  require(msg.sender == admin, \"must admin\") */\n      0x04\n      dup3\n      add\n        /* \"#utility.yul\":4115:4136   */\n      mstore\n        /* \"#utility.yul\":4172:4174   */\n      0x0a\n        /* \"#utility.yul\":4152:4170   */\n      0x24\n      dup3\n      add\n        /* \"#utility.yul\":4145:4175   */\n      mstore\n      shl(0xb1, 0x36bab9ba1030b236b4b7)\n        /* \"#utility.yul\":4191:4209   */\n      0x44\n      dup3\n      add\n        /* \"#utility.yul\":4184:4224   */\n      mstore\n        /* \"#utility.yul\":4241:4259   */\n      0x64\n      add\n        /* \"bank.sol\":628:670  require(msg.sender == admin, \"must admin\") */\n      tag_63\n        /* \"#utility.yul\":3931:4265   */\n      jump\n        /* \"bank.sol\":628:670  require(msg.sender == admin, \"must admin\") */\n    tag_83:\n        /* \"bank.sol\":4488:4493  admin */\n      0x00\n        /* \"bank.sol\":4488:4502  admin = _admin */\n      dup1\n      sload\n      not(sub(shl(0xa0, 0x01), 0x01))\n      and\n      sub(shl(0xa0, 0x01), 0x01)\n      swap3\n      swap1\n      swap3\n      and\n      swap2\n      swap1\n      swap2\n      or\n      swap1\n      sstore\n        /* \"bank.sol\":4416:4509  function changeAdmin(address payable _admin) public onlyAdmin {... */\n      jump\t// out\n        /* \"bank.sol\":2988:3375  function checkUserInTopUsers(address user)... */\n    tag_51:\n        /* \"bank.sol\":3089:3099  bool found */\n      0x00\n      dup1\n      dup1\n      dup1\n        /* \"bank.sol\":3183:3339  for (uint256 i = 0; i < 3; i++) {... */\n    tag_88:\n        /* \"bank.sol\":3207:3208  3 */\n      0x03\n        /* \"bank.sol\":3203:3204  i */\n      dup2\n        /* \"bank.sol\":3203:3208  i < 3 */\n      lt\n        /* \"bank.sol\":3183:3339  for (uint256 i = 0; i < 3; i++) {... */\n      iszero\n      tag_89\n      jumpi\n        /* \"bank.sol\":3241:3249  topUsers */\n      0x02\n        /* \"bank.sol\":3250:3251  i */\n      dup2\n        /* \"bank.sol\":3241:3252  topUsers[i] */\n      0x03\n      dup2\n      lt\n      tag_92\n      jumpi\n      tag_92\n      tag_93\n      jump\t// in\n    tag_92:\n      0x02\n      mul\n      add\n        /* \"bank.sol\":3241:3257  topUsers[i].addr */\n      sload\n      sub(shl(0xa0, 0x01), 0x01)\n      swap1\n      dup2\n      and\n        /* \"bank.sol\":3233:3257  user == topUsers[i].addr */\n      swap1\n      dup7\n      and\n      sub\n        /* \"bank.sol\":3229:3329  if (user == topUsers[i].addr) {... */\n      tag_95\n      jumpi\n        /* \"bank.sol\":3285:3289  true */\n      0x01\n        /* \"bank.sol\":3291:3299  topUsers */\n      0x02\n        /* \"bank.sol\":3300:3301  i */\n      dup3\n        /* \"bank.sol\":3291:3302  topUsers[i] */\n      0x03\n      dup2\n      lt\n      tag_97\n      jumpi\n      tag_97\n      tag_93\n      jump\t// in\n    tag_97:\n      0x02\n      mul\n      add\n        /* \"bank.sol\":3291:3310  topUsers[i].balance */\n      0x01\n      add\n      sload\n        /* \"bank.sol\":3312:3313  i */\n      dup3\n        /* \"bank.sol\":3277:3314  return (true, topUsers[i].balance, i) */\n      swap4\n      pop\n      swap4\n      pop\n      swap4\n      pop\n      pop\n      jump(tag_87)\n        /* \"bank.sol\":3229:3329  if (user == topUsers[i].addr) {... */\n    tag_95:\n        /* \"bank.sol\":3210:3213  i++ */\n      0x01\n      add\n        /* \"bank.sol\":3183:3339  for (uint256 i = 0; i < 3; i++) {... */\n      jump(tag_88)\n    tag_89:\n      pop\n        /* \"bank.sol\":3356:3361  false */\n      0x00\n        /* \"bank.sol\":3363:3364  0 */\n      dup1\n        /* \"bank.sol\":3366:3367  0 */\n      0x00\n        /* \"bank.sol\":3348:3368  return (false, 0, 0) */\n      swap3\n      pop\n      swap3\n      pop\n      swap3\n      pop\n        /* \"bank.sol\":2988:3375  function checkUserInTopUsers(address user)... */\n    tag_87:\n      swap2\n      swap4\n      swap1\n      swap3\n      pop\n      jump\t// out\n        /* \"bank.sol\":698:1622  function deposit(address sender, uint value) public virtual {... */\n    tag_67:\n      sub(shl(0xa0, 0x01), 0x01)\n        /* \"bank.sol\":787:803  balances[sender] */\n      dup3\n      and\n      0x00\n      swap1\n      dup2\n      mstore\n        /* \"bank.sol\":787:795  balances */\n      0x01\n        /* \"bank.sol\":787:803  balances[sender] */\n      0x20\n      mstore\n      0x40\n      swap1\n      keccak256\n      sload\n        /* \"bank.sol\":787:811  balances[sender] + value */\n      tag_100\n      swap1\n        /* \"bank.sol\":806:811  value */\n      dup3\n      swap1\n        /* \"bank.sol\":787:811  balances[sender] + value */\n      tag_101\n      jump\t// in\n    tag_100:\n      sub(shl(0xa0, 0x01), 0x01)\n        /* \"bank.sol\":768:784  balances[sender] */\n      dup4\n      and\n      0x00\n      swap1\n      dup2\n      mstore\n        /* \"bank.sol\":768:776  balances */\n      0x01\n        /* \"bank.sol\":768:784  balances[sender] */\n      0x20\n      mstore\n      0x40\n      dup2\n      keccak256\n        /* \"bank.sol\":768:811  balances[sender] = balances[sender] + value */\n      swap2\n      swap1\n      swap2\n      sstore\n        /* \"bank.sol\":768:784  balances[sender] */\n      dup1\n        /* \"bank.sol\":848:1059  for (uint256 i = 0; i < 3; i++) {... */\n    tag_102:\n        /* \"bank.sol\":872:873  3 */\n      0x03\n        /* \"bank.sol\":868:869  i */\n      dup2\n        /* \"bank.sol\":868:873  i < 3 */\n      lt\n        /* \"bank.sol\":848:1059  for (uint256 i = 0; i < 3; i++) {... */\n      iszero\n      tag_103\n      jumpi\n        /* \"bank.sol\":908:916  topUsers */\n      0x02\n        /* \"bank.sol\":917:918  i */\n      dup2\n        /* \"bank.sol\":908:919  topUsers[i] */\n      0x03\n      dup2\n      lt\n      tag_106\n      jumpi\n      tag_106\n      tag_93\n      jump\t// in\n    tag_106:\n      0x02\n      mul\n      add\n        /* \"bank.sol\":908:924  topUsers[i].addr */\n      sload\n      sub(shl(0xa0, 0x01), 0x01)\n      swap1\n      dup2\n      and\n        /* \"bank.sol\":898:924  sender == topUsers[i].addr */\n      swap1\n      dup6\n      and\n      sub\n        /* \"bank.sol\":894:1049  if (sender == topUsers[i].addr) {... */\n      tag_108\n      jumpi\n      sub(shl(0xa0, 0x01), 0x01)\n        /* \"bank.sol\":995:1011  balances[sender] */\n      dup5\n      and\n      0x00\n      swap1\n      dup2\n      mstore\n        /* \"bank.sol\":951:955  true */\n      0x01\n        /* \"bank.sol\":995:1011  balances[sender] */\n      0x20\n      dup2\n      swap1\n      mstore\n      0x40\n      swap1\n      swap2\n      keccak256\n      sload\n        /* \"bank.sol\":951:955  true */\n      swap1\n      swap3\n      pop\n        /* \"bank.sol\":973:981  topUsers */\n      0x02\n        /* \"bank.sol\":982:983  i */\n      dup3\n        /* \"bank.sol\":973:984  topUsers[i] */\n      0x03\n      dup2\n      lt\n      tag_110\n      jumpi\n      tag_110\n      tag_93\n      jump\t// in\n    tag_110:\n      0x02\n      mul\n      add\n        /* \"bank.sol\":973:992  topUsers[i].balance */\n      0x01\n      add\n        /* \"bank.sol\":973:1011  topUsers[i].balance = balances[sender] */\n      dup2\n      swap1\n      sstore\n      pop\n        /* \"bank.sol\":1029:1034  break */\n      jump(tag_103)\n        /* \"bank.sol\":894:1049  if (sender == topUsers[i].addr) {... */\n    tag_108:\n        /* \"bank.sol\":875:878  i++ */\n      0x01\n      add\n        /* \"bank.sol\":848:1059  for (uint256 i = 0; i < 3; i++) {... */\n      jump(tag_102)\n    tag_103:\n      pop\n        /* \"bank.sol\":1074:1078  flag */\n      dup1\n        /* \"bank.sol\":1069:1616  if (!flag) {... */\n      tag_66\n      jumpi\n        /* \"bank.sol\":1117:1136  topUsers[0].balance */\n      sload(0x03)\n      sub(shl(0xa0, 0x01), 0x01)\n        /* \"bank.sol\":1098:1114  balances[sender] */\n      dup5\n      and\n        /* \"bank.sol\":1126:1127  0 */\n      0x00\n        /* \"bank.sol\":1098:1114  balances[sender] */\n      swap1\n      dup2\n      mstore\n        /* \"bank.sol\":1117:1136  topUsers[0].balance */\n      0x01\n        /* \"bank.sol\":1098:1114  balances[sender] */\n      0x20\n      mstore\n      0x40\n      swap1\n      keccak256\n      sload\n        /* \"bank.sol\":1098:1136  balances[sender] > topUsers[0].balance */\n      gt\n        /* \"bank.sol\":1094:1580  if (balances[sender] > topUsers[0].balance) {... */\n      iszero\n      tag_116\n      jumpi\n        /* \"bank.sol\":1156:1164  topUsers */\n      0x02\n        /* \"bank.sol\":1156:1181  topUsers[0].addr = sender */\n      dup1\n      sload\n      not(sub(shl(0xa0, 0x01), 0x01))\n      and\n      sub(shl(0xa0, 0x01), 0x01)\n      dup6\n      and\n      swap1\n      dup2\n      or\n      dup3\n      sstore\n      0x00\n        /* \"bank.sol\":1221:1237  balances[sender] */\n      swap1\n      dup2\n      mstore\n      mstore(0x20, 0x01)\n      0x40\n      dup2\n      keccak256\n      sload\n      swap2\n        /* \"bank.sol\":1156:1164  topUsers */\n      swap1\n        /* \"bank.sol\":1199:1210  topUsers[0] */\n    tag_121:\n      0x02\n      mul\n      add\n        /* \"bank.sol\":1199:1218  topUsers[0].balance */\n      0x01\n      add\n        /* \"bank.sol\":1199:1237  topUsers[0].balance = balances[sender] */\n      dup2\n      swap1\n      sstore\n      pop\n        /* \"bank.sol\":1094:1580  if (balances[sender] > topUsers[0].balance) {... */\n      jump(tag_138)\n    tag_116:\n        /* \"bank.sol\":1281:1300  topUsers[1].balance */\n      sload(0x05)\n      sub(shl(0xa0, 0x01), 0x01)\n        /* \"bank.sol\":1262:1278  balances[sender] */\n      dup5\n      and\n      0x00\n      swap1\n      dup2\n      mstore\n        /* \"bank.sol\":1290:1291  1 */\n      0x01\n        /* \"bank.sol\":1262:1278  balances[sender] */\n      0x20\n      mstore\n      0x40\n      swap1\n      keccak256\n      sload\n        /* \"bank.sol\":1262:1300  balances[sender] > topUsers[1].balance */\n      gt\n        /* \"bank.sol\":1258:1580  if (balances[sender] > topUsers[1].balance) {... */\n      iszero\n      tag_127\n      jumpi\n        /* \"bank.sol\":1320:1331  topUsers[1] */\n      0x04\n        /* \"bank.sol\":1320:1345  topUsers[1].addr = sender */\n      dup1\n      sload\n      not(sub(shl(0xa0, 0x01), 0x01))\n      and\n      sub(shl(0xa0, 0x01), 0x01)\n      dup6\n      and\n      swap1\n      dup2\n      or\n      swap1\n      swap2\n      sstore\n      0x00\n        /* \"bank.sol\":1385:1401  balances[sender] */\n      swap1\n      dup2\n      mstore\n      0x01\n      0x20\n      dup2\n      swap1\n      mstore\n      0x40\n      swap1\n      swap2\n      keccak256\n      sload\n      swap1\n        /* \"bank.sol\":1320:1328  topUsers */\n      0x02\n      swap1\n        /* \"bank.sol\":1363:1374  topUsers[1] */\n      jump(tag_121)\n        /* \"bank.sol\":1258:1580  if (balances[sender] > topUsers[1].balance) {... */\n    tag_127:\n        /* \"bank.sol\":1445:1464  topUsers[2].balance */\n      sload(0x07)\n      sub(shl(0xa0, 0x01), 0x01)\n        /* \"bank.sol\":1426:1442  balances[sender] */\n      dup5\n      and\n      0x00\n      swap1\n      dup2\n      mstore\n        /* \"bank.sol\":1445:1464  topUsers[2].balance */\n      0x01\n        /* \"bank.sol\":1426:1442  balances[sender] */\n      0x20\n      mstore\n      0x40\n      swap1\n      keccak256\n      sload\n        /* \"bank.sol\":1426:1464  balances[sender] > topUsers[2].balance */\n      gt\n        /* \"bank.sol\":1422:1580  if (balances[sender] > topUsers[2].balance) {... */\n      iszero\n      tag_138\n      jumpi\n        /* \"bank.sol\":1484:1495  topUsers[2] */\n      0x06\n        /* \"bank.sol\":1484:1509  topUsers[2].addr = sender */\n      dup1\n      sload\n      not(sub(shl(0xa0, 0x01), 0x01))\n      and\n      sub(shl(0xa0, 0x01), 0x01)\n      dup6\n      and\n      swap1\n      dup2\n      or\n      swap1\n      swap2\n      sstore\n      0x00\n        /* \"bank.sol\":1549:1565  balances[sender] */\n      swap1\n      dup2\n      mstore\n      mstore(0x20, 0x01)\n      0x40\n      swap1\n      keccak256\n      sload\n        /* \"bank.sol\":1527:1546  topUsers[2].balance */\n      0x07\n        /* \"bank.sol\":1527:1565  topUsers[2].balance = balances[sender] */\n      sstore\n        /* \"bank.sol\":1422:1580  if (balances[sender] > topUsers[2].balance) {... */\n    tag_138:\n        /* \"bank.sol\":1593:1605  bubbleSort() */\n      tag_66\n        /* \"bank.sol\":2464:2479  topUsers.length */\n      0x03\n        /* \"bank.sol\":2450:2461  uint256 num */\n      0x00\n        /* \"bank.sol\":2489:2869  for (uint256 i = 0; i < num - 1; i++) {... */\n    tag_148:\n        /* \"bank.sol\":2513:2520  num - 1 */\n      tag_151\n        /* \"bank.sol\":2519:2520  1 */\n      0x01\n        /* \"bank.sol\":2513:2516  num */\n      dup4\n        /* \"bank.sol\":2513:2520  num - 1 */\n      tag_152\n      jump\t// in\n    tag_151:\n        /* \"bank.sol\":2509:2510  i */\n      dup2\n        /* \"bank.sol\":2509:2520  i < num - 1 */\n      lt\n        /* \"bank.sol\":2489:2869  for (uint256 i = 0; i < num - 1; i++) {... */\n      iszero\n      tag_149\n      jumpi\n        /* \"bank.sol\":2546:2555  uint256 j */\n      0x00\n        /* \"bank.sol\":2541:2859  for (uint256 j = 0; j < num - 1 - i; j++) {... */\n    tag_153:\n        /* \"bank.sol\":2575:2576  i */\n      dup2\n        /* \"bank.sol\":2565:2572  num - 1 */\n      tag_156\n        /* \"bank.sol\":2571:2572  1 */\n      0x01\n        /* \"bank.sol\":2565:2568  num */\n      dup6\n        /* \"bank.sol\":2565:2572  num - 1 */\n      tag_152\n      jump\t// in\n    tag_156:\n        /* \"bank.sol\":2565:2576  num - 1 - i */\n      tag_157\n      swap2\n      swap1\n      tag_152\n      jump\t// in\n    tag_157:\n        /* \"bank.sol\":2561:2562  j */\n      dup2\n        /* \"bank.sol\":2561:2576  j < num - 1 - i */\n      lt\n        /* \"bank.sol\":2541:2859  for (uint256 j = 0; j < num - 1 - i; j++) {... */\n      iszero\n      tag_154\n      jumpi\n        /* \"bank.sol\":2623:2648  RankingStruct memory left */\n      0x00\n        /* \"bank.sol\":2670:2696  RankingStruct memory right */\n      dup1\n        /* \"bank.sol\":2717:2767  rightBigger(topUsers[j], topUsers[j + 1], compare) */\n      tag_158\n        /* \"bank.sol\":2729:2737  topUsers */\n      0x02\n        /* \"bank.sol\":2738:2739  j */\n      dup5\n        /* \"bank.sol\":2729:2740  topUsers[j] */\n      0x03\n      dup2\n      lt\n      tag_160\n      jumpi\n      tag_160\n      tag_93\n      jump\t// in\n    tag_160:\n        /* \"bank.sol\":2717:2767  rightBigger(topUsers[j], topUsers[j + 1], compare) */\n      0x40\n      dup1\n      mload\n      dup1\n      dup3\n      add\n      swap1\n      swap2\n      mstore\n        /* \"bank.sol\":2729:2740  topUsers[j] */\n      0x02\n      swap2\n      dup3\n      mul\n      swap3\n      swap1\n      swap3\n      add\n        /* \"bank.sol\":2717:2767  rightBigger(topUsers[j], topUsers[j + 1], compare) */\n      dup1\n      sload\n      sub(shl(0xa0, 0x01), 0x01)\n      and\n      dup4\n      mstore\n      0x01\n      swap1\n      dup2\n      add\n      sload\n      0x20\n      dup5\n      add\n      mstore\n        /* \"bank.sol\":2751:2756  j + 1 */\n      tag_162\n      swap1\n        /* \"bank.sol\":2751:2752  j */\n      dup8\n      swap1\n        /* \"bank.sol\":2751:2756  j + 1 */\n      tag_101\n      jump\t// in\n    tag_162:\n        /* \"bank.sol\":2742:2757  topUsers[j + 1] */\n      0x03\n      dup2\n      lt\n      tag_164\n      jumpi\n      tag_164\n      tag_93\n      jump\t// in\n    tag_164:\n        /* \"bank.sol\":2717:2767  rightBigger(topUsers[j], topUsers[j + 1], compare) */\n      0x40\n      dup1\n      mload\n      dup1\n      dup3\n      add\n      swap1\n      swap2\n      mstore\n        /* \"bank.sol\":2742:2757  topUsers[j + 1] */\n      0x02\n      swap2\n      swap1\n      swap2\n      mul\n      swap2\n      swap1\n      swap2\n      add\n        /* \"bank.sol\":2717:2767  rightBigger(topUsers[j], topUsers[j + 1], compare) */\n      dup1\n      sload\n      sub(shl(0xa0, 0x01), 0x01)\n      and\n      dup3\n      mstore\n      0x01\n      add\n      sload\n      0x20\n      dup3\n      add\n      mstore\n        /* \"bank.sol\":2759:2766  compare */\n      tag_166\n        /* \"bank.sol\":2717:2728  rightBigger */\n      tag_167\n        /* \"bank.sol\":2717:2767  rightBigger(topUsers[j], topUsers[j + 1], compare) */\n      jump\t// in\n    tag_158:\n        /* \"bank.sol\":2601:2767  (... */\n      swap2\n      pop\n      swap2\n      pop\n        /* \"bank.sol\":2799:2803  left */\n      dup2\n        /* \"bank.sol\":2785:2793  topUsers */\n      0x02\n        /* \"bank.sol\":2794:2795  j */\n      dup5\n        /* \"bank.sol\":2785:2796  topUsers[j] */\n      0x03\n      dup2\n      lt\n      tag_169\n      jumpi\n      tag_169\n      tag_93\n      jump\t// in\n    tag_169:\n        /* \"bank.sol\":2785:2803  topUsers[j] = left */\n      dup3\n      mload\n        /* \"bank.sol\":2785:2796  topUsers[j] */\n      0x02\n      swap2\n      dup3\n      mul\n      swap3\n      swap1\n      swap3\n      add\n        /* \"bank.sol\":2785:2803  topUsers[j] = left */\n      dup1\n      sload\n      not(sub(shl(0xa0, 0x01), 0x01))\n      and\n      sub(shl(0xa0, 0x01), 0x01)\n      swap1\n      swap4\n      and\n      swap3\n      swap1\n      swap3\n      or\n      dup3\n      sstore\n      0x20\n      swap1\n      swap3\n      add\n      mload\n      0x01\n      swap2\n      dup3\n      add\n      sstore\n        /* \"bank.sol\":2839:2844  right */\n      dup3\n      swap2\n        /* \"bank.sol\":2785:2796  topUsers[j] */\n      swap1\n        /* \"bank.sol\":2830:2835  j + 1 */\n      tag_171\n      swap1\n        /* \"bank.sol\":2830:2831  j */\n      dup7\n      swap1\n        /* \"bank.sol\":2830:2835  j + 1 */\n      tag_101\n      jump\t// in\n    tag_171:\n        /* \"bank.sol\":2821:2836  topUsers[j + 1] */\n      0x03\n      dup2\n      lt\n      tag_173\n      jumpi\n      tag_173\n      tag_93\n      jump\t// in\n    tag_173:\n        /* \"bank.sol\":2821:2844  topUsers[j + 1] = right */\n      dup3\n      mload\n        /* \"bank.sol\":2821:2836  topUsers[j + 1] */\n      0x02\n      swap2\n      swap1\n      swap2\n      mul\n      swap2\n      swap1\n      swap2\n      add\n        /* \"bank.sol\":2821:2844  topUsers[j + 1] = right */\n      dup1\n      sload\n      not(sub(shl(0xa0, 0x01), 0x01))\n      and\n      sub(shl(0xa0, 0x01), 0x01)\n      swap1\n      swap3\n      and\n      swap2\n      swap1\n      swap2\n      or\n      dup2\n      sstore\n      0x20\n      swap1\n      swap2\n      add\n      mload\n      0x01\n      swap2\n      dup3\n      add\n      sstore\n        /* \"bank.sol\":2578:2581  j++ */\n      swap3\n      swap1\n      swap3\n      add\n      swap2\n      pop\n        /* \"bank.sol\":2541:2859  for (uint256 j = 0; j < num - 1 - i; j++) {... */\n      tag_153\n      swap1\n      pop\n      jump\n    tag_154:\n      pop\n        /* \"bank.sol\":2522:2525  i++ */\n      0x01\n      add\n        /* \"bank.sol\":2489:2869  for (uint256 i = 0; i < num - 1; i++) {... */\n      jump(tag_148)\n    tag_149:\n      pop\n        /* \"bank.sol\":2440:2875  {... */\n      pop\n        /* \"bank.sol\":2409:2875  function bubbleSort() internal {... */\n      jump\t// out\n        /* \"bank.sol\":1935:2032  function compare(uint256 a, uint256 b) internal pure returns (bool) {... */\n    tag_166:\n        /* \"bank.sol\":2020:2025  a > b */\n      dup1\n      dup3\n      gt\n        /* \"bank.sol\":1935:2032  function compare(uint256 a, uint256 b) internal pure returns (bool) {... */\n    tag_175:\n      swap3\n      swap2\n      pop\n      pop\n      jump\t// out\n        /* \"bank.sol\":2038:2403  function rightBigger(... */\n    tag_167:\n      0x40\n      dup1\n      mload\n      dup1\n      dup3\n      add\n      swap1\n      swap2\n      mstore\n      0x00\n      dup1\n      dup3\n      mstore\n      0x20\n      dup3\n      add\n      mstore\n      0x40\n      dup1\n      mload\n      dup1\n      dup3\n      add\n      swap1\n      swap2\n      mstore\n      0x00\n      dup1\n      dup3\n      mstore\n      0x20\n      dup3\n      add\n      mstore\n        /* \"bank.sol\":2287:2320  func(left.balance, right.balance) */\n      tag_180\n        /* \"bank.sol\":2292:2296  left */\n      dup6\n        /* \"bank.sol\":2292:2304  left.balance */\n      0x20\n      add\n      mload\n        /* \"bank.sol\":2306:2311  right */\n      dup6\n        /* \"bank.sol\":2306:2319  right.balance */\n      0x20\n      add\n      mload\n        /* \"bank.sol\":2287:2291  func */\n      dup6\n        /* \"bank.sol\":2287:2320  func(left.balance, right.balance) */\n      0xffffffff\n      and\n      jump\t// in\n    tag_180:\n        /* \"bank.sol\":2283:2367  if (func(left.balance, right.balance)) {... */\n      iszero\n      tag_181\n      jumpi\n      pop\n        /* \"bank.sol\":2344:2349  right */\n      dup3\n      swap1\n      pop\n        /* \"bank.sol\":2351:2355  left */\n      dup4\n        /* \"bank.sol\":2336:2356  return (right, left) */\n      jump(tag_179)\n        /* \"bank.sol\":2283:2367  if (func(left.balance, right.balance)) {... */\n    tag_181:\n      pop\n        /* \"bank.sol\":2384:2388  left */\n      dup4\n      swap1\n      pop\n        /* \"bank.sol\":2390:2395  right */\n      dup3\n        /* \"bank.sol\":2038:2403  function rightBigger(... */\n    tag_179:\n      swap4\n      pop\n      swap4\n      swap2\n      pop\n      pop\n      jump\t// out\n    tag_69:\n      mload(0x40)\n      dup1\n      0x60\n      add\n      0x40\n      mstore\n      dup1\n      0x03\n      swap1\n    tag_182:\n      0x40\n      dup1\n      mload\n      dup1\n      dup3\n      add\n      swap1\n      swap2\n      mstore\n      0x00\n      dup1\n      dup3\n      mstore\n      0x20\n      dup3\n      add\n      mstore\n      dup2\n      mstore\n      0x20\n      add\n      swap1\n      0x01\n      swap1\n      sub\n      swap1\n      dup2\n      tag_182\n      jumpi\n      swap1\n      pop\n      pop\n      swap1\n      jump\t// out\n        /* \"#utility.yul\":14:145   */\n    tag_184:\n      sub(shl(0xa0, 0x01), 0x01)\n        /* \"#utility.yul\":89:120   */\n      dup2\n      and\n        /* \"#utility.yul\":79:121   */\n      dup2\n      eq\n        /* \"#utility.yul\":69:139   */\n      tag_188\n      jumpi\n        /* \"#utility.yul\":135:136   */\n      0x00\n        /* \"#utility.yul\":132:133   */\n      dup1\n        /* \"#utility.yul\":125:137   */\n      revert\n        /* \"#utility.yul\":69:139   */\n    tag_188:\n        /* \"#utility.yul\":14:145   */\n      pop\n      jump\t// out\n        /* \"#utility.yul\":150:397   */\n    tag_19:\n        /* \"#utility.yul\":209:215   */\n      0x00\n        /* \"#utility.yul\":262:264   */\n      0x20\n        /* \"#utility.yul\":250:259   */\n      dup3\n        /* \"#utility.yul\":241:248   */\n      dup5\n        /* \"#utility.yul\":237:260   */\n      sub\n        /* \"#utility.yul\":233:265   */\n      slt\n        /* \"#utility.yul\":230:282   */\n      iszero\n      tag_190\n      jumpi\n        /* \"#utility.yul\":278:279   */\n      0x00\n        /* \"#utility.yul\":275:276   */\n      dup1\n        /* \"#utility.yul\":268:280   */\n      revert\n        /* \"#utility.yul\":230:282   */\n    tag_190:\n        /* \"#utility.yul\":317:326   */\n      dup2\n        /* \"#utility.yul\":304:327   */\n      calldataload\n        /* \"#utility.yul\":336:367   */\n      tag_191\n        /* \"#utility.yul\":361:366   */\n      dup2\n        /* \"#utility.yul\":336:367   */\n      tag_184\n      jump\t// in\n    tag_191:\n        /* \"#utility.yul\":386:391   */\n      swap4\n        /* \"#utility.yul\":150:397   */\n      swap3\n      pop\n      pop\n      pop\n      jump\t// out\n        /* \"#utility.yul\":584:1229   */\n    tag_27:\n        /* \"#utility.yul\":822:825   */\n      0xc0\n        /* \"#utility.yul\":807:826   */\n      dup2\n      add\n        /* \"#utility.yul\":811:820   */\n      dup2\n        /* \"#utility.yul\":903:909   */\n      dup4\n        /* \"#utility.yul\":780:784   */\n      0x00\n        /* \"#utility.yul\":937:1223   */\n    tag_194:\n        /* \"#utility.yul\":951:955   */\n      0x03\n        /* \"#utility.yul\":948:949   */\n      dup2\n        /* \"#utility.yul\":945:956   */\n      lt\n        /* \"#utility.yul\":937:1223   */\n      iszero\n      tag_196\n      jumpi\n        /* \"#utility.yul\":1008:1021   */\n      dup2\n      mload\n        /* \"#utility.yul\":1050:1059   */\n      dup1\n      mload\n      sub(shl(0xa0, 0x01), 0x01)\n        /* \"#utility.yul\":1046:1081   */\n      and\n        /* \"#utility.yul\":1034:1082   */\n      dup5\n      mstore\n        /* \"#utility.yul\":1132:1136   */\n      0x20\n        /* \"#utility.yul\":1124:1137   */\n      swap1\n      dup2\n      add\n        /* \"#utility.yul\":1118:1138   */\n      mload\n        /* \"#utility.yul\":1102:1116   */\n      dup2\n      dup6\n      add\n        /* \"#utility.yul\":1095:1139   */\n      mstore\n        /* \"#utility.yul\":1168:1172   */\n      0x40\n        /* \"#utility.yul\":1159:1173   */\n      swap1\n      swap4\n      add\n      swap3\n        /* \"#utility.yul\":1196:1213   */\n      swap1\n      swap2\n      add\n      swap1\n        /* \"#utility.yul\":1078:1079   */\n      0x01\n        /* \"#utility.yul\":964:973   */\n      add\n        /* \"#utility.yul\":937:1223   */\n      jump(tag_194)\n    tag_196:\n        /* \"#utility.yul\":941:944   */\n      pop\n      pop\n      pop\n        /* \"#utility.yul\":584:1229   */\n      swap3\n      swap2\n      pop\n      pop\n      jump\t// out\n        /* \"#utility.yul\":1234:1601   */\n    tag_35:\n        /* \"#utility.yul\":1302:1308   */\n      0x00\n        /* \"#utility.yul\":1310:1316   */\n      dup1\n        /* \"#utility.yul\":1363:1365   */\n      0x40\n        /* \"#utility.yul\":1351:1360   */\n      dup4\n        /* \"#utility.yul\":1342:1349   */\n      dup6\n        /* \"#utility.yul\":1338:1361   */\n      sub\n        /* \"#utility.yul\":1334:1366   */\n      slt\n        /* \"#utility.yul\":1331:1383   */\n      iszero\n      tag_198\n      jumpi\n        /* \"#utility.yul\":1379:1380   */\n      0x00\n        /* \"#utility.yul\":1376:1377   */\n      dup1\n        /* \"#utility.yul\":1369:1381   */\n      revert\n        /* \"#utility.yul\":1331:1383   */\n    tag_198:\n        /* \"#utility.yul\":1418:1427   */\n      dup3\n        /* \"#utility.yul\":1405:1428   */\n      calldataload\n        /* \"#utility.yul\":1437:1468   */\n      tag_199\n        /* \"#utility.yul\":1462:1467   */\n      dup2\n        /* \"#utility.yul\":1437:1468   */\n      tag_184\n      jump\t// in\n    tag_199:\n        /* \"#utility.yul\":1487:1492   */\n      swap5\n        /* \"#utility.yul\":1565:1567   */\n      0x20\n        /* \"#utility.yul\":1550:1568   */\n      swap4\n      swap1\n      swap4\n      add\n        /* \"#utility.yul\":1537:1569   */\n      calldataload\n      swap4\n      pop\n      pop\n      pop\n        /* \"#utility.yul\":1234:1601   */\n      jump\t// out\n        /* \"#utility.yul\":1606:1832   */\n    tag_39:\n        /* \"#utility.yul\":1665:1671   */\n      0x00\n        /* \"#utility.yul\":1718:1720   */\n      0x20\n        /* \"#utility.yul\":1706:1715   */\n      dup3\n        /* \"#utility.yul\":1697:1704   */\n      dup5\n        /* \"#utility.yul\":1693:1716   */\n      sub\n        /* \"#utility.yul\":1689:1721   */\n      slt\n        /* \"#utility.yul\":1686:1738   */\n      iszero\n      tag_201\n      jumpi\n        /* \"#utility.yul\":1734:1735   */\n      0x00\n        /* \"#utility.yul\":1731:1732   */\n      dup1\n        /* \"#utility.yul\":1724:1736   */\n      revert\n        /* \"#utility.yul\":1686:1738   */\n    tag_201:\n      pop\n        /* \"#utility.yul\":1779:1802   */\n      calldataload\n      swap2\n        /* \"#utility.yul\":1606:1832   */\n      swap1\n      pop\n      jump\t// out\n        /* \"#utility.yul\":2934:3061   */\n    tag_185:\n        /* \"#utility.yul\":2995:3005   */\n      0x4e487b71\n        /* \"#utility.yul\":2990:2993   */\n      0xe0\n        /* \"#utility.yul\":2986:3006   */\n      shl\n        /* \"#utility.yul\":2983:2984   */\n      0x00\n        /* \"#utility.yul\":2976:3007   */\n      mstore\n        /* \"#utility.yul\":3026:3030   */\n      0x11\n        /* \"#utility.yul\":3023:3024   */\n      0x04\n        /* \"#utility.yul\":3016:3031   */\n      mstore\n        /* \"#utility.yul\":3050:3054   */\n      0x24\n        /* \"#utility.yul\":3047:3048   */\n      0x00\n        /* \"#utility.yul\":3040:3055   */\n      revert\n        /* \"#utility.yul\":3066:3234   */\n    tag_61:\n        /* \"#utility.yul\":3139:3148   */\n      dup1\n      dup3\n      mul\n        /* \"#utility.yul\":3170:3179   */\n      dup2\n      iszero\n        /* \"#utility.yul\":3187:3202   */\n      dup3\n      dup3\n      div\n        /* \"#utility.yul\":3181:3203   */\n      dup5\n      eq\n        /* \"#utility.yul\":3167:3204   */\n      or\n        /* \"#utility.yul\":3157:3228   */\n      tag_175\n      jumpi\n        /* \"#utility.yul\":3208:3226   */\n      tag_175\n      tag_185\n      jump\t// in\n        /* \"#utility.yul\":4270:4397   */\n    tag_93:\n        /* \"#utility.yul\":4331:4341   */\n      0x4e487b71\n        /* \"#utility.yul\":4326:4329   */\n      0xe0\n        /* \"#utility.yul\":4322:4342   */\n      shl\n        /* \"#utility.yul\":4319:4320   */\n      0x00\n        /* \"#utility.yul\":4312:4343   */\n      mstore\n        /* \"#utility.yul\":4362:4366   */\n      0x32\n        /* \"#utility.yul\":4359:4360   */\n      0x04\n        /* \"#utility.yul\":4352:4367   */\n      mstore\n        /* \"#utility.yul\":4386:4390   */\n      0x24\n        /* \"#utility.yul\":4383:4384   */\n      0x00\n        /* \"#utility.yul\":4376:4391   */\n      revert\n        /* \"#utility.yul\":4402:4527   */\n    tag_101:\n        /* \"#utility.yul\":4467:4476   */\n      dup1\n      dup3\n      add\n        /* \"#utility.yul\":4488:4498   */\n      dup1\n      dup3\n      gt\n        /* \"#utility.yul\":4485:4521   */\n      iszero\n      tag_175\n      jumpi\n        /* \"#utility.yul\":4501:4519   */\n      tag_175\n      tag_185\n      jump\t// in\n        /* \"#utility.yul\":4532:4660   */\n    tag_152:\n        /* \"#utility.yul\":4599:4608   */\n      dup2\n      dup2\n      sub\n        /* \"#utility.yul\":4620:4631   */\n      dup2\n      dup2\n      gt\n        /* \"#utility.yul\":4617:4654   */\n      iszero\n      tag_175\n      jumpi\n        /* \"#utility.yul\":4634:4652   */\n      tag_175\n      tag_185\n      jump\t// in\n\n    auxdata: 0xa26469706673582212203986da9d19044efa58e063aeb9342fcc41d268c6812882036c53c03d04f605fb64736f6c634300081a0033\n}\n",
				"bytecode": {
					"linkReferences": {},
					"object": "5f8054336001600160a01b0319918216178255608082905260a08290526002805482169055600382905560c082905260e0829052600480548216905560058290556101406040526101008290526101208290526006805490911690556007556109a28061006b5f395ff3fe60806040526004361061007c575f3560e01c8063689dbf4e1161004c578063689dbf4e146101235780638f28397014610161578063b5fc70f714610180578063f851a440146101bc575f80fd5b806327e235e3146100915780632c83b4b2146100cf5780633ccfd60b146100f057806347e7ef2414610104575f80fd5b3661008d5761008b33346101f2565b005b5f80fd5b34801561009c575f80fd5b506100bc6100ab36600461085f565b60016020525f908152604090205481565b6040519081526020015b60405180910390f35b3480156100da575f80fd5b506100e3610267565b6040516100c69190610881565b3480156100fb575f80fd5b506100bc6102cb565b34801561010f575f80fd5b5061008b61011e3660046108c6565b6101f2565b34801561012e575f80fd5b5061014261013d3660046108f0565b610351565b604080516001600160a01b0390931683526020830191909152016100c6565b34801561016c575f80fd5b5061008b61017b36600461085f565b61037c565b34801561018b575f80fd5b5061019f61019a36600461085f565b6103e3565b6040805193151584526020840192909252908201526060016100c6565b3480156101c7575f80fd5b505f546101da906001600160a01b031681565b6040516001600160a01b0390911681526020016100c6565b8061020566038d7ea4c68000600161091b565b81116102585760405162461bcd60e51b815260206004820152601760248201527f6d757374206d6f7265207468616e20312046696e6e657900000000000000000060448201526064015b60405180910390fd5b6102628383610460565b505050565b61026f610810565b6040805160608101909152600260035f835b828210156102c2576040805180820190915260028302850180546001600160a01b031682526001908101546020808401919091529183529092019101610281565b50505050905090565b5f80546001600160a01b031633146103135760405162461bcd60e51b815260206004820152600b60248201526a61646d696e2077726f6e6760a81b604482015260640161024f565b5f80546040516001600160a01b03909116914780156108fc02929091818181858888f1935050505015801561034a573d5f803e3d5ffd5b5047905090565b60028160038110610360575f80fd5b6002020180546001909101546001600160a01b03909116915082565b5f546001600160a01b031633146103c25760405162461bcd60e51b815260206004820152600a60248201526936bab9ba1030b236b4b760b11b604482015260640161024f565b5f80546001600160a01b0319166001600160a01b0392909216919091179055565b5f8080805b600381101561044e576002816003811061040457610404610932565b60020201546001600160a01b03908116908616036104465760016002826003811061043157610431610932565b60020201600101548293509350935050610459565b6001016103e8565b505f805f9250925092505b9193909250565b6001600160a01b0382165f90815260016020526040902054610483908290610946565b6001600160a01b0383165f90815260016020526040812091909155805b600381101561051d57600281600381106104bc576104bc610932565b60020201546001600160a01b0390811690851603610515576001600160a01b0384165f908152600160208190526040909120549092506002826003811061050557610505610932565b600202016001018190555061051d565b6001016104a0565b5080610262576003546001600160a01b0384165f90815260016020526040902054111561058257600280546001600160a01b0319166001600160a01b03851690811782555f9081526001602052604081205491905b600202016001018190555061062c565b6005546001600160a01b0384165f9081526001602052604090205411156105db57600480546001600160a01b0319166001600160a01b0385169081179091555f9081526001602081905260409091205490600290610572565b6007546001600160a01b0384165f90815260016020526040902054111561062c57600680546001600160a01b0319166001600160a01b0385169081179091555f908152600160205260409020546007555b61026260035f5b61063e600183610959565b8110156107a9575f5b81610653600185610959565b61065d9190610959565b8110156107a0575f806106f46002846003811061067c5761067c610932565b6040805180820190915260029182029290920180546001600160a01b0316835260019081015460208401526106b2908790610946565b600381106106c2576106c2610932565b604080518082019091526002919091029190910180546001600160a01b031682526001015460208201526107ad6107b7565b91509150816002846003811061070c5761070c610932565b825160029182029290920180546001600160a01b0319166001600160a01b0390931692909217825560209092015160019182015582919061074e908690610946565b6003811061075e5761075e610932565b82516002919091029190910180546001600160a01b0319166001600160a01b039092169190911781556020909101516001918201559290920191506106479050565b50600101610633565b5050565b8082115b92915050565b604080518082019091525f8082526020820152604080518082019091525f80825260208201526107f3856020015185602001518563ffffffff16565b15610802575082905083610808565b50839050825b935093915050565b60405180606001604052806003905b604080518082019091525f808252602082015281526020019060019003908161081f5790505090565b6001600160a01b038116811461085c575f80fd5b50565b5f6020828403121561086f575f80fd5b813561087a81610848565b9392505050565b60c0810181835f5b60038110156108bd57815180516001600160a01b031684526020908101518185015260409093019290910190600101610889565b50505092915050565b5f80604083850312156108d7575f80fd5b82356108e281610848565b946020939093013593505050565b5f60208284031215610900575f80fd5b5035919050565b634e487b7160e01b5f52601160045260245ffd5b80820281158282048414176107b1576107b1610907565b634e487b7160e01b5f52603260045260245ffd5b808201808211156107b1576107b1610907565b818103818111156107b1576107b161090756fea26469706673582212203986da9d19044efa58e063aeb9342fcc41d268c6812882036c53c03d04f605fb64736f6c634300081a0033",
					"opcodes": "PUSH0 DUP1 SLOAD CALLER PUSH1 0x1 PUSH1 0x1 PUSH1 0xA0 SHL SUB NOT SWAP2 DUP3 AND OR DUP3 SSTORE PUSH1 0x80 DUP3 SWAP1 MSTORE PUSH1 0xA0 DUP3 SWAP1 MSTORE PUSH1 0x2 DUP1 SLOAD DUP3 AND SWAP1 SSTORE PUSH1 0x3 DUP3 SWAP1 SSTORE PUSH1 0xC0 DUP3 SWAP1 MSTORE PUSH1 0xE0 DUP3 SWAP1 MSTORE PUSH1 0x4 DUP1 SLOAD DUP3 AND SWAP1 SSTORE PUSH1 0x5 DUP3 SWAP1 SSTORE PUSH2 0x140 PUSH1 0x40 MSTORE PUSH2 0x100 DUP3 SWAP1 MSTORE PUSH2 0x120 DUP3 SWAP1 MSTORE PUSH1 0x6 DUP1 SLOAD SWAP1 SWAP2 AND SWAP1 SSTORE PUSH1 0x7 SSTORE PUSH2 0x9A2 DUP1 PUSH2 0x6B PUSH0 CODECOPY PUSH0 RETURN INVALID PUSH1 0x80 PUSH1 0x40 MSTORE PUSH1 0x4 CALLDATASIZE LT PUSH2 0x7C JUMPI PUSH0 CALLDATALOAD PUSH1 0xE0 SHR DUP1 PUSH4 0x689DBF4E GT PUSH2 0x4C JUMPI DUP1 PUSH4 0x689DBF4E EQ PUSH2 0x123 JUMPI DUP1 PUSH4 0x8F283970 EQ PUSH2 0x161 JUMPI DUP1 PUSH4 0xB5FC70F7 EQ PUSH2 0x180 JUMPI DUP1 PUSH4 0xF851A440 EQ PUSH2 0x1BC JUMPI PUSH0 DUP1 REVERT JUMPDEST DUP1 PUSH4 0x27E235E3 EQ PUSH2 0x91 JUMPI DUP1 PUSH4 0x2C83B4B2 EQ PUSH2 0xCF JUMPI DUP1 PUSH4 0x3CCFD60B EQ PUSH2 0xF0 JUMPI DUP1 PUSH4 0x47E7EF24 EQ PUSH2 0x104 JUMPI PUSH0 DUP1 REVERT JUMPDEST CALLDATASIZE PUSH2 0x8D JUMPI PUSH2 0x8B CALLER CALLVALUE PUSH2 0x1F2 JUMP JUMPDEST STOP JUMPDEST PUSH0 DUP1 REVERT JUMPDEST CALLVALUE DUP1 ISZERO PUSH2 0x9C JUMPI PUSH0 DUP1 REVERT JUMPDEST POP PUSH2 0xBC PUSH2 0xAB CALLDATASIZE PUSH1 0x4 PUSH2 0x85F JUMP JUMPDEST PUSH1 0x1 PUSH1 0x20 MSTORE PUSH0 SWAP1 DUP2 MSTORE PUSH1 0x40 SWAP1 KECCAK256 SLOAD DUP2 JUMP JUMPDEST PUSH1 0x40 MLOAD SWAP1 DUP2 MSTORE PUSH1 0x20 ADD JUMPDEST PUSH1 0x40 MLOAD DUP1 SWAP2 SUB SWAP1 RETURN JUMPDEST CALLVALUE DUP1 ISZERO PUSH2 0xDA JUMPI PUSH0 DUP1 REVERT JUMPDEST POP PUSH2 0xE3 PUSH2 0x267 JUMP JUMPDEST PUSH1 0x40 MLOAD PUSH2 0xC6 SWAP2 SWAP1 PUSH2 0x881 JUMP JUMPDEST CALLVALUE DUP1 ISZERO PUSH2 0xFB JUMPI PUSH0 DUP1 REVERT JUMPDEST POP PUSH2 0xBC PUSH2 0x2CB JUMP JUMPDEST CALLVALUE DUP1 ISZERO PUSH2 0x10F JUMPI PUSH0 DUP1 REVERT JUMPDEST POP PUSH2 0x8B PUSH2 0x11E CALLDATASIZE PUSH1 0x4 PUSH2 0x8C6 JUMP JUMPDEST PUSH2 0x1F2 JUMP JUMPDEST CALLVALUE DUP1 ISZERO PUSH2 0x12E JUMPI PUSH0 DUP1 REVERT JUMPDEST POP PUSH2 0x142 PUSH2 0x13D CALLDATASIZE PUSH1 0x4 PUSH2 0x8F0 JUMP JUMPDEST PUSH2 0x351 JUMP JUMPDEST PUSH1 0x40 DUP1 MLOAD PUSH1 0x1 PUSH1 0x1 PUSH1 0xA0 SHL SUB SWAP1 SWAP4 AND DUP4 MSTORE PUSH1 0x20 DUP4 ADD SWAP2 SWAP1 SWAP2 MSTORE ADD PUSH2 0xC6 JUMP JUMPDEST CALLVALUE DUP1 ISZERO PUSH2 0x16C JUMPI PUSH0 DUP1 REVERT JUMPDEST POP PUSH2 0x8B PUSH2 0x17B CALLDATASIZE PUSH1 0x4 PUSH2 0x85F JUMP JUMPDEST PUSH2 0x37C JUMP JUMPDEST CALLVALUE DUP1 ISZERO PUSH2 0x18B JUMPI PUSH0 DUP1 REVERT JUMPDEST POP PUSH2 0x19F PUSH2 0x19A CALLDATASIZE PUSH1 0x4 PUSH2 0x85F JUMP JUMPDEST PUSH2 0x3E3 JUMP JUMPDEST PUSH1 0x40 DUP1 MLOAD SWAP4 ISZERO ISZERO DUP5 MSTORE PUSH1 0x20 DUP5 ADD SWAP3 SWAP1 SWAP3 MSTORE SWAP1 DUP3 ADD MSTORE PUSH1 0x60 ADD PUSH2 0xC6 JUMP JUMPDEST CALLVALUE DUP1 ISZERO PUSH2 0x1C7 JUMPI PUSH0 DUP1 REVERT JUMPDEST POP PUSH0 SLOAD PUSH2 0x1DA SWAP1 PUSH1 0x1 PUSH1 0x1 PUSH1 0xA0 SHL SUB AND DUP2 JUMP JUMPDEST PUSH1 0x40 MLOAD PUSH1 0x1 PUSH1 0x1 PUSH1 0xA0 SHL SUB SWAP1 SWAP2 AND DUP2 MSTORE PUSH1 0x20 ADD PUSH2 0xC6 JUMP JUMPDEST DUP1 PUSH2 0x205 PUSH7 0x38D7EA4C68000 PUSH1 0x1 PUSH2 0x91B JUMP JUMPDEST DUP2 GT PUSH2 0x258 JUMPI PUSH1 0x40 MLOAD PUSH3 0x461BCD PUSH1 0xE5 SHL DUP2 MSTORE PUSH1 0x20 PUSH1 0x4 DUP3 ADD MSTORE PUSH1 0x17 PUSH1 0x24 DUP3 ADD MSTORE PUSH32 0x6D757374206D6F7265207468616E20312046696E6E6579000000000000000000 PUSH1 0x44 DUP3 ADD MSTORE PUSH1 0x64 ADD JUMPDEST PUSH1 0x40 MLOAD DUP1 SWAP2 SUB SWAP1 REVERT JUMPDEST PUSH2 0x262 DUP4 DUP4 PUSH2 0x460 JUMP JUMPDEST POP POP POP JUMP JUMPDEST PUSH2 0x26F PUSH2 0x810 JUMP JUMPDEST PUSH1 0x40 DUP1 MLOAD PUSH1 0x60 DUP2 ADD SWAP1 SWAP2 MSTORE PUSH1 0x2 PUSH1 0x3 PUSH0 DUP4 JUMPDEST DUP3 DUP3 LT ISZERO PUSH2 0x2C2 JUMPI PUSH1 0x40 DUP1 MLOAD DUP1 DUP3 ADD SWAP1 SWAP2 MSTORE PUSH1 0x2 DUP4 MUL DUP6 ADD DUP1 SLOAD PUSH1 0x1 PUSH1 0x1 PUSH1 0xA0 SHL SUB AND DUP3 MSTORE PUSH1 0x1 SWAP1 DUP2 ADD SLOAD PUSH1 0x20 DUP1 DUP5 ADD SWAP2 SWAP1 SWAP2 MSTORE SWAP2 DUP4 MSTORE SWAP1 SWAP3 ADD SWAP2 ADD PUSH2 0x281 JUMP JUMPDEST POP POP POP POP SWAP1 POP SWAP1 JUMP JUMPDEST PUSH0 DUP1 SLOAD PUSH1 0x1 PUSH1 0x1 PUSH1 0xA0 SHL SUB AND CALLER EQ PUSH2 0x313 JUMPI PUSH1 0x40 MLOAD PUSH3 0x461BCD PUSH1 0xE5 SHL DUP2 MSTORE PUSH1 0x20 PUSH1 0x4 DUP3 ADD MSTORE PUSH1 0xB PUSH1 0x24 DUP3 ADD MSTORE PUSH11 0x61646D696E2077726F6E67 PUSH1 0xA8 SHL PUSH1 0x44 DUP3 ADD MSTORE PUSH1 0x64 ADD PUSH2 0x24F JUMP JUMPDEST PUSH0 DUP1 SLOAD PUSH1 0x40 MLOAD PUSH1 0x1 PUSH1 0x1 PUSH1 0xA0 SHL SUB SWAP1 SWAP2 AND SWAP2 SELFBALANCE DUP1 ISZERO PUSH2 0x8FC MUL SWAP3 SWAP1 SWAP2 DUP2 DUP2 DUP2 DUP6 DUP9 DUP9 CALL SWAP4 POP POP POP POP ISZERO DUP1 ISZERO PUSH2 0x34A JUMPI RETURNDATASIZE PUSH0 DUP1 RETURNDATACOPY RETURNDATASIZE PUSH0 REVERT JUMPDEST POP SELFBALANCE SWAP1 POP SWAP1 JUMP JUMPDEST PUSH1 0x2 DUP2 PUSH1 0x3 DUP2 LT PUSH2 0x360 JUMPI PUSH0 DUP1 REVERT JUMPDEST PUSH1 0x2 MUL ADD DUP1 SLOAD PUSH1 0x1 SWAP1 SWAP2 ADD SLOAD PUSH1 0x1 PUSH1 0x1 PUSH1 0xA0 SHL SUB SWAP1 SWAP2 AND SWAP2 POP DUP3 JUMP JUMPDEST PUSH0 SLOAD PUSH1 0x1 PUSH1 0x1 PUSH1 0xA0 SHL SUB AND CALLER EQ PUSH2 0x3C2 JUMPI PUSH1 0x40 MLOAD PUSH3 0x461BCD PUSH1 0xE5 SHL DUP2 MSTORE PUSH1 0x20 PUSH1 0x4 DUP3 ADD MSTORE PUSH1 0xA PUSH1 0x24 DUP3 ADD MSTORE PUSH10 0x36BAB9BA1030B236B4B7 PUSH1 0xB1 SHL PUSH1 0x44 DUP3 ADD MSTORE PUSH1 0x64 ADD PUSH2 0x24F JUMP JUMPDEST PUSH0 DUP1 SLOAD PUSH1 0x1 PUSH1 0x1 PUSH1 0xA0 SHL SUB NOT AND PUSH1 0x1 PUSH1 0x1 PUSH1 0xA0 SHL SUB SWAP3 SWAP1 SWAP3 AND SWAP2 SWAP1 SWAP2 OR SWAP1 SSTORE JUMP JUMPDEST PUSH0 DUP1 DUP1 DUP1 JUMPDEST PUSH1 0x3 DUP2 LT ISZERO PUSH2 0x44E JUMPI PUSH1 0x2 DUP2 PUSH1 0x3 DUP2 LT PUSH2 0x404 JUMPI PUSH2 0x404 PUSH2 0x932 JUMP JUMPDEST PUSH1 0x2 MUL ADD SLOAD PUSH1 0x1 PUSH1 0x1 PUSH1 0xA0 SHL SUB SWAP1 DUP2 AND SWAP1 DUP7 AND SUB PUSH2 0x446 JUMPI PUSH1 0x1 PUSH1 0x2 DUP3 PUSH1 0x3 DUP2 LT PUSH2 0x431 JUMPI PUSH2 0x431 PUSH2 0x932 JUMP JUMPDEST PUSH1 0x2 MUL ADD PUSH1 0x1 ADD SLOAD DUP3 SWAP4 POP SWAP4 POP SWAP4 POP POP PUSH2 0x459 JUMP JUMPDEST PUSH1 0x1 ADD PUSH2 0x3E8 JUMP JUMPDEST POP PUSH0 DUP1 PUSH0 SWAP3 POP SWAP3 POP SWAP3 POP JUMPDEST SWAP2 SWAP4 SWAP1 SWAP3 POP JUMP JUMPDEST PUSH1 0x1 PUSH1 0x1 PUSH1 0xA0 SHL SUB DUP3 AND PUSH0 SWAP1 DUP2 MSTORE PUSH1 0x1 PUSH1 0x20 MSTORE PUSH1 0x40 SWAP1 KECCAK256 SLOAD PUSH2 0x483 SWAP1 DUP3 SWAP1 PUSH2 0x946 JUMP JUMPDEST PUSH1 0x1 PUSH1 0x1 PUSH1 0xA0 SHL SUB DUP4 AND PUSH0 SWAP1 DUP2 MSTORE PUSH1 0x1 PUSH1 0x20 MSTORE PUSH1 0x40 DUP2 KECCAK256 SWAP2 SWAP1 SWAP2 SSTORE DUP1 JUMPDEST PUSH1 0x3 DUP2 LT ISZERO PUSH2 0x51D JUMPI PUSH1 0x2 DUP2 PUSH1 0x3 DUP2 LT PUSH2 0x4BC JUMPI PUSH2 0x4BC PUSH2 0x932 JUMP JUMPDEST PUSH1 0x2 MUL ADD SLOAD PUSH1 0x1 PUSH1 0x1 PUSH1 0xA0 SHL SUB SWAP1 DUP2 AND SWAP1 DUP6 AND SUB PUSH2 0x515 JUMPI PUSH1 0x1 PUSH1 0x1 PUSH1 0xA0 SHL SUB DUP5 AND PUSH0 SWAP1 DUP2 MSTORE PUSH1 0x1 PUSH1 0x20 DUP2 SWAP1 MSTORE PUSH1 0x40 SWAP1 SWAP2 KECCAK256 SLOAD SWAP1 SWAP3 POP PUSH1 0x2 DUP3 PUSH1 0x3 DUP2 LT PUSH2 0x505 JUMPI PUSH2 0x505 PUSH2 0x932 JUMP JUMPDEST PUSH1 0x2 MUL ADD PUSH1 0x1 ADD DUP2 SWAP1 SSTORE POP PUSH2 0x51D JUMP JUMPDEST PUSH1 0x1 ADD PUSH2 0x4A0 JUMP JUMPDEST POP DUP1 PUSH2 0x262 JUMPI PUSH1 0x3 SLOAD PUSH1 0x1 PUSH1 0x1 PUSH1 0xA0 SHL SUB DUP5 AND PUSH0 SWAP1 DUP2 MSTORE PUSH1 0x1 PUSH1 0x20 MSTORE PUSH1 0x40 SWAP1 KECCAK256 SLOAD GT ISZERO PUSH2 0x582 JUMPI PUSH1 0x2 DUP1 SLOAD PUSH1 0x1 PUSH1 0x1 PUSH1 0xA0 SHL SUB NOT AND PUSH1 0x1 PUSH1 0x1 PUSH1 0xA0 SHL SUB DUP6 AND SWAP1 DUP2 OR DUP3 SSTORE PUSH0 SWAP1 DUP2 MSTORE PUSH1 0x1 PUSH1 0x20 MSTORE PUSH1 0x40 DUP2 KECCAK256 SLOAD SWAP2 SWAP1 JUMPDEST PUSH1 0x2 MUL ADD PUSH1 0x1 ADD DUP2 SWAP1 SSTORE POP PUSH2 0x62C JUMP JUMPDEST PUSH1 0x5 SLOAD PUSH1 0x1 PUSH1 0x1 PUSH1 0xA0 SHL SUB DUP5 AND PUSH0 SWAP1 DUP2 MSTORE PUSH1 0x1 PUSH1 0x20 MSTORE PUSH1 0x40 SWAP1 KECCAK256 SLOAD GT ISZERO PUSH2 0x5DB JUMPI PUSH1 0x4 DUP1 SLOAD PUSH1 0x1 PUSH1 0x1 PUSH1 0xA0 SHL SUB NOT AND PUSH1 0x1 PUSH1 0x1 PUSH1 0xA0 SHL SUB DUP6 AND SWAP1 DUP2 OR SWAP1 SWAP2 SSTORE PUSH0 SWAP1 DUP2 MSTORE PUSH1 0x1 PUSH1 0x20 DUP2 SWAP1 MSTORE PUSH1 0x40 SWAP1 SWAP2 KECCAK256 SLOAD SWAP1 PUSH1 0x2 SWAP1 PUSH2 0x572 JUMP JUMPDEST PUSH1 0x7 SLOAD PUSH1 0x1 PUSH1 0x1 PUSH1 0xA0 SHL SUB DUP5 AND PUSH0 SWAP1 DUP2 MSTORE PUSH1 0x1 PUSH1 0x20 MSTORE PUSH1 0x40 SWAP1 KECCAK256 SLOAD GT ISZERO PUSH2 0x62C JUMPI PUSH1 0x6 DUP1 SLOAD PUSH1 0x1 PUSH1 0x1 PUSH1 0xA0 SHL SUB NOT AND PUSH1 0x1 PUSH1 0x1 PUSH1 0xA0 SHL SUB DUP6 AND SWAP1 DUP2 OR SWAP1 SWAP2 SSTORE PUSH0 SWAP1 DUP2 MSTORE PUSH1 0x1 PUSH1 0x20 MSTORE PUSH1 0x40 SWAP1 KECCAK256 SLOAD PUSH1 0x7 SSTORE JUMPDEST PUSH2 0x262 PUSH1 0x3 PUSH0 JUMPDEST PUSH2 0x63E PUSH1 0x1 DUP4 PUSH2 0x959 JUMP JUMPDEST DUP2 LT ISZERO PUSH2 0x7A9 JUMPI PUSH0 JUMPDEST DUP2 PUSH2 0x653 PUSH1 0x1 DUP6 PUSH2 0x959 JUMP JUMPDEST PUSH2 0x65D SWAP2 SWAP1 PUSH2 0x959 JUMP JUMPDEST DUP2 LT ISZERO PUSH2 0x7A0 JUMPI PUSH0 DUP1 PUSH2 0x6F4 PUSH1 0x2 DUP5 PUSH1 0x3 DUP2 LT PUSH2 0x67C JUMPI PUSH2 0x67C PUSH2 0x932 JUMP JUMPDEST PUSH1 0x40 DUP1 MLOAD DUP1 DUP3 ADD SWAP1 SWAP2 MSTORE PUSH1 0x2 SWAP2 DUP3 MUL SWAP3 SWAP1 SWAP3 ADD DUP1 SLOAD PUSH1 0x1 PUSH1 0x1 PUSH1 0xA0 SHL SUB AND DUP4 MSTORE PUSH1 0x1 SWAP1 DUP2 ADD SLOAD PUSH1 0x20 DUP5 ADD MSTORE PUSH2 0x6B2 SWAP1 DUP8 SWAP1 PUSH2 0x946 JUMP JUMPDEST PUSH1 0x3 DUP2 LT PUSH2 0x6C2 JUMPI PUSH2 0x6C2 PUSH2 0x932 JUMP JUMPDEST PUSH1 0x40 DUP1 MLOAD DUP1 DUP3 ADD SWAP1 SWAP2 MSTORE PUSH1 0x2 SWAP2 SWAP1 SWAP2 MUL SWAP2 SWAP1 SWAP2 ADD DUP1 SLOAD PUSH1 0x1 PUSH1 0x1 PUSH1 0xA0 SHL SUB AND DUP3 MSTORE PUSH1 0x1 ADD SLOAD PUSH1 0x20 DUP3 ADD MSTORE PUSH2 0x7AD PUSH2 0x7B7 JUMP JUMPDEST SWAP2 POP SWAP2 POP DUP2 PUSH1 0x2 DUP5 PUSH1 0x3 DUP2 LT PUSH2 0x70C JUMPI PUSH2 0x70C PUSH2 0x932 JUMP JUMPDEST DUP3 MLOAD PUSH1 0x2 SWAP2 DUP3 MUL SWAP3 SWAP1 SWAP3 ADD DUP1 SLOAD PUSH1 0x1 PUSH1 0x1 PUSH1 0xA0 SHL SUB NOT AND PUSH1 0x1 PUSH1 0x1 PUSH1 0xA0 SHL SUB SWAP1 SWAP4 AND SWAP3 SWAP1 SWAP3 OR DUP3 SSTORE PUSH1 0x20 SWAP1 SWAP3 ADD MLOAD PUSH1 0x1 SWAP2 DUP3 ADD SSTORE DUP3 SWAP2 SWAP1 PUSH2 0x74E SWAP1 DUP7 SWAP1 PUSH2 0x946 JUMP JUMPDEST PUSH1 0x3 DUP2 LT PUSH2 0x75E JUMPI PUSH2 0x75E PUSH2 0x932 JUMP JUMPDEST DUP3 MLOAD PUSH1 0x2 SWAP2 SWAP1 SWAP2 MUL SWAP2 SWAP1 SWAP2 ADD DUP1 SLOAD PUSH1 0x1 PUSH1 0x1 PUSH1 0xA0 SHL SUB NOT AND PUSH1 0x1 PUSH1 0x1 PUSH1 0xA0 SHL SUB SWAP1 SWAP3 AND SWAP2 SWAP1 SWAP2 OR DUP2 SSTORE PUSH1 0x20 SWAP1 SWAP2 ADD MLOAD PUSH1 0x1 SWAP2 DUP3 ADD SSTORE SWAP3 SWAP1 SWAP3 ADD SWAP2 POP PUSH2 0x647 SWAP1 POP JUMP JUMPDEST POP PUSH1 0x1 ADD PUSH2 0x633 JUMP JUMPDEST POP POP JUMP JUMPDEST DUP1 DUP3 GT JUMPDEST SWAP3 SWAP2 POP POP JUMP JUMPDEST PUSH1 0x40 DUP1 MLOAD DUP1 DUP3 ADD SWAP1 SWAP2 MSTORE PUSH0 DUP1 DUP3 MSTORE PUSH1 0x20 DUP3 ADD MSTORE PUSH1 0x40 DUP1 MLOAD DUP1 DUP3 ADD SWAP1 SWAP2 MSTORE PUSH0 DUP1 DUP3 MSTORE PUSH1 0x20 DUP3 ADD MSTORE PUSH2 0x7F3 DUP6 PUSH1 0x20 ADD MLOAD DUP6 PUSH1 0x20 ADD MLOAD DUP6 PUSH4 0xFFFFFFFF AND JUMP JUMPDEST ISZERO PUSH2 0x802 JUMPI POP DUP3 SWAP1 POP DUP4 PUSH2 0x808 JUMP JUMPDEST POP DUP4 SWAP1 POP DUP3 JUMPDEST SWAP4 POP SWAP4 SWAP2 POP POP JUMP JUMPDEST PUSH1 0x40 MLOAD DUP1 PUSH1 0x60 ADD PUSH1 0x40 MSTORE DUP1 PUSH1 0x3 SWAP1 JUMPDEST PUSH1 0x40 DUP1 MLOAD DUP1 DUP3 ADD SWAP1 SWAP2 MSTORE PUSH0 DUP1 DUP3 MSTORE PUSH1 0x20 DUP3 ADD MSTORE DUP2 MSTORE PUSH1 0x20 ADD SWAP1 PUSH1 0x1 SWAP1 SUB SWAP1 DUP2 PUSH2 0x81F JUMPI SWAP1 POP POP SWAP1 JUMP JUMPDEST PUSH1 0x1 PUSH1 0x1 PUSH1 0xA0 SHL SUB DUP2 AND DUP2 EQ PUSH2 0x85C JUMPI PUSH0 DUP1 REVERT JUMPDEST POP JUMP JUMPDEST PUSH0 PUSH1 0x20 DUP3 DUP5 SUB SLT ISZERO PUSH2 0x86F JUMPI PUSH0 DUP1 REVERT JUMPDEST DUP2 CALLDATALOAD PUSH2 0x87A DUP2 PUSH2 0x848 JUMP JUMPDEST SWAP4 SWAP3 POP POP POP JUMP JUMPDEST PUSH1 0xC0 DUP2 ADD DUP2 DUP4 PUSH0 JUMPDEST PUSH1 0x3 DUP2 LT ISZERO PUSH2 0x8BD JUMPI DUP2 MLOAD DUP1 MLOAD PUSH1 0x1 PUSH1 0x1 PUSH1 0xA0 SHL SUB AND DUP5 MSTORE PUSH1 0x20 SWAP1 DUP2 ADD MLOAD DUP2 DUP6 ADD MSTORE PUSH1 0x40 SWAP1 SWAP4 ADD SWAP3 SWAP1 SWAP2 ADD SWAP1 PUSH1 0x1 ADD PUSH2 0x889 JUMP JUMPDEST POP POP POP SWAP3 SWAP2 POP POP JUMP JUMPDEST PUSH0 DUP1 PUSH1 0x40 DUP4 DUP6 SUB SLT ISZERO PUSH2 0x8D7 JUMPI PUSH0 DUP1 REVERT JUMPDEST DUP3 CALLDATALOAD PUSH2 0x8E2 DUP2 PUSH2 0x848 JUMP JUMPDEST SWAP5 PUSH1 0x20 SWAP4 SWAP1 SWAP4 ADD CALLDATALOAD SWAP4 POP POP POP JUMP JUMPDEST PUSH0 PUSH1 0x20 DUP3 DUP5 SUB SLT ISZERO PUSH2 0x900 JUMPI PUSH0 DUP1 REVERT JUMPDEST POP CALLDATALOAD SWAP2 SWAP1 POP JUMP JUMPDEST PUSH4 0x4E487B71 PUSH1 0xE0 SHL PUSH0 MSTORE PUSH1 0x11 PUSH1 0x4 MSTORE PUSH1 0x24 PUSH0 REVERT JUMPDEST DUP1 DUP3 MUL DUP2 ISZERO DUP3 DUP3 DIV DUP5 EQ OR PUSH2 0x7B1 JUMPI PUSH2 0x7B1 PUSH2 0x907 JUMP JUMPDEST PUSH4 0x4E487B71 PUSH1 0xE0 SHL PUSH0 MSTORE PUSH1 0x32 PUSH1 0x4 MSTORE PUSH1 0x24 PUSH0 REVERT JUMPDEST DUP1 DUP3 ADD DUP1 DUP3 GT ISZERO PUSH2 0x7B1 JUMPI PUSH2 0x7B1 PUSH2 0x907 JUMP JUMPDEST DUP2 DUP2 SUB DUP2 DUP2 GT ISZERO PUSH2 0x7B1 JUMPI PUSH2 0x7B1 PUSH2 0x907 JUMP INVALID LOG2 PUSH5 0x6970667358 0x22 SLT KECCAK256 CODECOPY DUP7 0xDA SWAP14 NOT DIV 0x4E STATICCALL PC 0xE0 PUSH4 0xAEB9342F 0xCC COINBASE 0xD2 PUSH9 0xC6812882036C53C03D DIV 0xF6 SDIV 0xFB PUSH5 0x736F6C6343 STOP ADDMOD BYTE STOP CALLER "
				},
				"gasEstimates": {
					"creation": {
						"codeDepositCost": "493200",
						"executionCost": "112485",
						"totalCost": "605685"
					},
					"external": {
						"admin()": "2401",
						"balances(address)": "2500",
						"changeAdmin(address)": "26723",
						"checkUserInTopUsers(address)": "infinite",
						"deposit(address,uint256)": "infinite",
						"getRankings()": "infinite",
						"topUsers(uint256)": "4608",
						"withdraw()": "infinite"
					}
				},
				"methodIdentifiers": {
					"admin()": "f851a440",
					"balances(address)": "27e235e3",
					"changeAdmin(address)": "8f283970",
					"checkUserInTopUsers(address)": "b5fc70f7",
					"deposit(address,uint256)": "47e7ef24",
					"getRankings()": "2c83b4b2",
					"topUsers(uint256)": "689dbf4e",
					"withdraw()": "3ccfd60b"
				}
			},
			"storageLayout": {
				"storage": [
					{
						"astId": 11,
						"contract": "bank.sol:BigBank",
						"label": "admin",
						"offset": 0,
						"slot": "0",
						"type": "t_address_payable"
					},
					{
						"astId": 15,
						"contract": "bank.sol:BigBank",
						"label": "balances",
						"offset": 0,
						"slot": "1",
						"type": "t_mapping(t_address,t_uint256)"
					},
					{
						"astId": 20,
						"contract": "bank.sol:BigBank",
						"label": "topUsers",
						"offset": 0,
						"slot": "2",
						"type": "t_array(t_struct(RankingStruct)25_storage)3_storage"
					}
				],
				"types": {
					"t_address": {
						"encoding": "inplace",
						"label": "address",
						"numberOfBytes": "20"
					},
					"t_address_payable": {
						"encoding": "inplace",
						"label": "address payable",
						"numberOfBytes": "20"
					},
					"t_array(t_struct(RankingStruct)25_storage)3_storage": {
						"base": "t_struct(RankingStruct)25_storage",
						"encoding": "inplace",
						"label": "struct Bank.RankingStruct[3]",
						"numberOfBytes": "192"
					},
					"t_mapping(t_address,t_uint256)": {
						"encoding": "mapping",
						"key": "t_address",
						"label": "mapping(address => uint256)",
						"numberOfBytes": "32",
						"value": "t_uint256"
					},
					"t_struct(RankingStruct)25_storage": {
						"encoding": "inplace",
						"label": "struct Bank.RankingStruct",
						"members": [
							{
								"astId": 22,
								"contract": "bank.sol:BigBank",
								"label": "addr",
								"offset": 0,
								"slot": "0",
								"type": "t_address"
							},
							{
								"astId": 24,
								"contract": "bank.sol:BigBank",
								"label": "balance",
								"offset": 0,
								"slot": "1",
								"type": "t_uint256"
							}
						],
						"numberOfBytes": "64"
					},
					"t_uint256": {
						"encoding": "inplace",
						"label": "uint256",
						"numberOfBytes": "32"
					}
				}
			},
			"userdoc": {
				"kind": "user",
				"methods": {},
				"version": 1
			}
		}
	}
}