{
	"bank.sol": {
		"Bank": {
			"abi": [
				{
					"inputs": [
						{
							"internalType": "address payable",
							"name": "_admin",
							"type": "address"
						}
					],
					"stateMutability": "payable",
					"type": "constructor"
				},
				{
					"inputs": [],
					"name": "admin",
					"outputs": [
						{
							"internalType": "address payable",
							"name": "",
							"type": "address"
						}
					],
					"stateMutability": "view",
					"type": "function"
				},
				{
					"inputs": [
						{
							"internalType": "address",
							"name": "",
							"type": "address"
						}
					],
					"name": "balances",
					"outputs": [
						{
							"internalType": "uint256",
							"name": "",
							"type": "uint256"
						}
					],
					"stateMutability": "view",
					"type": "function"
				},
				{
					"inputs": [
						{
							"internalType": "address",
							"name": "user",
							"type": "address"
						}
					],
					"name": "checkUserInTopUsers",
					"outputs": [
						{
							"internalType": "bool",
							"name": "found",
							"type": "bool"
						},
						{
							"internalType": "uint256",
							"name": "balance",
							"type": "uint256"
						},
						{
							"internalType": "uint256",
							"name": "position",
							"type": "uint256"
						}
					],
					"stateMutability": "view",
					"type": "function"
				},
				{
					"inputs": [
						{
							"internalType": "address",
							"name": "sender",
							"type": "address"
						},
						{
							"internalType": "uint256",
							"name": "value",
							"type": "uint256"
						}
					],
					"name": "deposit",
					"outputs": [],
					"stateMutability": "nonpayable",
					"type": "function"
				},
				{
					"inputs": [],
					"name": "getRankings",
					"outputs": [
						{
							"components": [
								{
									"internalType": "address",
									"name": "addr",
									"type": "address"
								},
								{
									"internalType": "uint256",
									"name": "balance",
									"type": "uint256"
								}
							],
							"internalType": "struct Bank.RankingStruct[3]",
							"name": "",
							"type": "tuple[3]"
						}
					],
					"stateMutability": "view",
					"type": "function"
				},
				{
					"inputs": [
						{
							"internalType": "uint256",
							"name": "",
							"type": "uint256"
						}
					],
					"name": "topUsers",
					"outputs": [
						{
							"internalType": "address",
							"name": "addr",
							"type": "address"
						},
						{
							"internalType": "uint256",
							"name": "balance",
							"type": "uint256"
						}
					],
					"stateMutability": "view",
					"type": "function"
				},
				{
					"inputs": [],
					"name": "withdraw",
					"outputs": [
						{
							"internalType": "uint256",
							"name": "",
							"type": "uint256"
						}
					],
					"stateMutability": "nonpayable",
					"type": "function"
				},
				{
					"stateMutability": "payable",
					"type": "receive"
				}
			],
			"devdoc": {
				"kind": "dev",
				"methods": {},
				"version": 1
			},
			"evm": {
				"assembly": "    /* \"bank.sol\":130:3377  contract Bank is IBank {... */\n  mstore(0x40, 0x80)\n    /* \"bank.sol\":361:592  constructor(address payable _admin) payable {... */\n  mload(0x40)\n  sub(codesize, bytecodeSize)\n  dup1\n  bytecodeSize\n  dup4\n  codecopy\n  dup2\n  add\n  0x40\n  dup2\n  swap1\n  mstore\n  tag_1\n  swap2\n  tag_2\n  jump\t// in\ntag_1:\n    /* \"bank.sol\":415:420  admin */\n  0x00\n    /* \"bank.sol\":415:429  admin = _admin */\n  dup1\n  sload\n  sub(shl(0xa0, 0x01), 0x01)\n  swap3\n  swap1\n  swap3\n  and\n  not(sub(shl(0xa0, 0x01), 0x01))\n  swap3\n  dup4\n  and\n  or\n  dup2\n  sstore\n    /* \"bank.sol\":453:481  RankingStruct(address(0), 0) */\n  0x40\n  dup1\n  mload\n  dup1\n  dup3\n  add\n  dup3\n  mstore\n  dup3\n  dup2\n  mstore\n  0x20\n  swap1\n  dup2\n  add\n  dup4\n  swap1\n  mstore\n    /* \"bank.sol\":439:447  topUsers */\n  0x02\n    /* \"bank.sol\":439:481  topUsers[0] = RankingStruct(address(0), 0) */\n  dup1\n  sload\n  dup6\n  and\n  swap1\n  sstore\n  0x03\n  dup4\n  swap1\n  sstore\n    /* \"bank.sol\":505:533  RankingStruct(address(0), 0) */\n  dup2\n  mload\n  dup1\n  dup4\n  add\n  dup4\n  mstore\n  dup4\n  dup2\n  mstore\n  dup2\n  add\n  dup4\n  swap1\n  mstore\n    /* \"bank.sol\":491:502  topUsers[1] */\n  0x04\n    /* \"bank.sol\":491:533  topUsers[1] = RankingStruct(address(0), 0) */\n  dup1\n  sload\n  dup6\n  and\n  swap1\n  sstore\n  0x05\n  dup4\n  swap1\n  sstore\n    /* \"bank.sol\":557:585  RankingStruct(address(0), 0) */\n  dup2\n  mload\n  dup1\n  dup4\n  add\n  swap1\n  swap3\n  mstore\n  dup3\n  dup3\n  mstore\n  add\n  dup2\n  swap1\n  mstore\n    /* \"bank.sol\":543:554  topUsers[2] */\n  0x06\n    /* \"bank.sol\":543:585  topUsers[2] = RankingStruct(address(0), 0) */\n  dup1\n  sload\n  swap1\n  swap3\n  and\n  swap1\n  swap2\n  sstore\n  0x07\n  sstore\n    /* \"bank.sol\":130:3377  contract Bank is IBank {... */\n  jump(tag_16)\n    /* \"#utility.yul\":14:312   */\ntag_2:\n    /* \"#utility.yul\":92:98   */\n  0x00\n    /* \"#utility.yul\":145:147   */\n  0x20\n    /* \"#utility.yul\":133:142   */\n  dup3\n    /* \"#utility.yul\":124:131   */\n  dup5\n    /* \"#utility.yul\":120:143   */\n  sub\n    /* \"#utility.yul\":116:148   */\n  slt\n    /* \"#utility.yul\":113:165   */\n  iszero\n  tag_18\n  jumpi\n    /* \"#utility.yul\":161:162   */\n  0x00\n    /* \"#utility.yul\":158:159   */\n  dup1\n    /* \"#utility.yul\":151:163   */\n  revert\n    /* \"#utility.yul\":113:165   */\ntag_18:\n    /* \"#utility.yul\":187:203   */\n  dup2\n  mload\n  sub(shl(0xa0, 0x01), 0x01)\n    /* \"#utility.yul\":232:263   */\n  dup2\n  and\n    /* \"#utility.yul\":222:264   */\n  dup2\n  eq\n    /* \"#utility.yul\":212:282   */\n  tag_19\n  jumpi\n    /* \"#utility.yul\":278:279   */\n  0x00\n    /* \"#utility.yul\":275:276   */\n  dup1\n    /* \"#utility.yul\":268:280   */\n  revert\n    /* \"#utility.yul\":212:282   */\ntag_19:\n    /* \"#utility.yul\":301:306   */\n  swap4\n    /* \"#utility.yul\":14:312   */\n  swap3\n  pop\n  pop\n  pop\n  jump\t// out\n    /* \"#utility.yul\":317:444   */\ntag_16:\n    /* \"bank.sol\":130:3377  contract Bank is IBank {... */\n  dataSize(sub_0)\n  dup1\n  dataOffset(sub_0)\n  0x00\n  codecopy\n  0x00\n  return\nstop\n\nsub_0: assembly {\n        /* \"bank.sol\":130:3377  contract Bank is IBank {... */\n      mstore(0x40, 0x80)\n      jumpi(tag_1, lt(calldatasize, 0x04))\n      shr(0xe0, calldataload(0x00))\n      dup1\n      0x47e7ef24\n      gt\n      tag_10\n      jumpi\n      dup1\n      0x47e7ef24\n      eq\n      tag_6\n      jumpi\n      dup1\n      0x689dbf4e\n      eq\n      tag_7\n      jumpi\n      dup1\n      0xb5fc70f7\n      eq\n      tag_8\n      jumpi\n      dup1\n      0xf851a440\n      eq\n      tag_9\n      jumpi\n      0x00\n      dup1\n      revert\n    tag_10:\n      dup1\n      0x27e235e3\n      eq\n      tag_3\n      jumpi\n      dup1\n      0x2c83b4b2\n      eq\n      tag_4\n      jumpi\n      dup1\n      0x3ccfd60b\n      eq\n      tag_5\n      jumpi\n      0x00\n      dup1\n      revert\n    tag_1:\n      jumpi(tag_2, calldatasize)\n        /* \"bank.sol\":1674:1704  deposit(msg.sender, msg.value) */\n      tag_13\n        /* \"bank.sol\":1682:1692  msg.sender */\n      caller\n        /* \"bank.sol\":1694:1703  msg.value */\n      callvalue\n        /* \"bank.sol\":1674:1681  deposit */\n      tag_14\n        /* \"bank.sol\":1674:1704  deposit(msg.sender, msg.value) */\n      jump\t// in\n    tag_13:\n        /* \"bank.sol\":130:3377  contract Bank is IBank {... */\n      stop\n    tag_2:\n      0x00\n      dup1\n      revert\n        /* \"bank.sol\":193:236  mapping(address => uint256) public balances */\n    tag_3:\n      callvalue\n      dup1\n      iszero\n      tag_15\n      jumpi\n      0x00\n      dup1\n      revert\n    tag_15:\n      pop\n      tag_16\n      tag_17\n      calldatasize\n      0x04\n      tag_18\n      jump\t// in\n    tag_17:\n      mstore(0x20, 0x01)\n      0x00\n      swap1\n      dup2\n      mstore\n      0x40\n      swap1\n      keccak256\n      sload\n      dup2\n      jump\n    tag_16:\n      mload(0x40)\n        /* \"#utility.yul\":529:554   */\n      swap1\n      dup2\n      mstore\n        /* \"#utility.yul\":517:519   */\n      0x20\n        /* \"#utility.yul\":502:520   */\n      add\n        /* \"bank.sol\":193:236  mapping(address => uint256) public balances */\n    tag_20:\n      mload(0x40)\n      dup1\n      swap2\n      sub\n      swap1\n      return\n        /* \"bank.sol\":2881:2982  function getRankings() public view returns (RankingStruct[3] memory) {... */\n    tag_4:\n      callvalue\n      dup1\n      iszero\n      tag_22\n      jumpi\n      0x00\n      dup1\n      revert\n    tag_22:\n      pop\n      tag_23\n      tag_24\n      jump\t// in\n    tag_23:\n      mload(0x40)\n      tag_20\n      swap2\n      swap1\n      tag_26\n      jump\t// in\n        /* \"bank.sol\":1718:1929  function withdraw() external override returns (uint256)  {... */\n    tag_5:\n      callvalue\n      dup1\n      iszero\n      tag_27\n      jumpi\n      0x00\n      dup1\n      revert\n    tag_27:\n      pop\n      tag_16\n      tag_29\n      jump\t// in\n        /* \"bank.sol\":698:1622  function deposit(address sender, uint value) public virtual {... */\n    tag_6:\n      callvalue\n      dup1\n      iszero\n      tag_31\n      jumpi\n      0x00\n      dup1\n      revert\n    tag_31:\n      pop\n      tag_13\n      tag_33\n      calldatasize\n      0x04\n      tag_34\n      jump\t// in\n    tag_33:\n      tag_14\n      jump\t// in\n        /* \"bank.sol\":242:274  RankingStruct[3] public topUsers */\n    tag_7:\n      callvalue\n      dup1\n      iszero\n      tag_35\n      jumpi\n      0x00\n      dup1\n      revert\n    tag_35:\n      pop\n      tag_36\n      tag_37\n      calldatasize\n      0x04\n      tag_38\n      jump\t// in\n    tag_37:\n      tag_39\n      jump\t// in\n    tag_36:\n      0x40\n      dup1\n      mload\n      sub(shl(0xa0, 0x01), 0x01)\n        /* \"#utility.yul\":1943:1975   */\n      swap1\n      swap4\n      and\n        /* \"#utility.yul\":1925:1976   */\n      dup4\n      mstore\n        /* \"#utility.yul\":2007:2009   */\n      0x20\n        /* \"#utility.yul\":1992:2010   */\n      dup4\n      add\n        /* \"#utility.yul\":1985:2019   */\n      swap2\n      swap1\n      swap2\n      mstore\n        /* \"#utility.yul\":1898:1916   */\n      add\n        /* \"bank.sol\":242:274  RankingStruct[3] public topUsers */\n      tag_20\n        /* \"#utility.yul\":1751:2025   */\n      jump\n        /* \"bank.sol\":2988:3375  function checkUserInTopUsers(address user)... */\n    tag_8:\n      callvalue\n      dup1\n      iszero\n      tag_42\n      jumpi\n      0x00\n      dup1\n      revert\n    tag_42:\n      pop\n      tag_43\n      tag_44\n      calldatasize\n      0x04\n      tag_18\n      jump\t// in\n    tag_44:\n      tag_45\n      jump\t// in\n    tag_43:\n      0x40\n      dup1\n      mload\n        /* \"#utility.yul\":2251:2265   */\n      swap4\n      iszero\n        /* \"#utility.yul\":2244:2266   */\n      iszero\n        /* \"#utility.yul\":2226:2267   */\n      dup5\n      mstore\n        /* \"#utility.yul\":2298:2300   */\n      0x20\n        /* \"#utility.yul\":2283:2301   */\n      dup5\n      add\n        /* \"#utility.yul\":2276:2310   */\n      swap3\n      swap1\n      swap3\n      mstore\n        /* \"#utility.yul\":2326:2344   */\n      swap1\n      dup3\n      add\n        /* \"#utility.yul\":2319:2353   */\n      mstore\n        /* \"#utility.yul\":2214:2216   */\n      0x60\n        /* \"#utility.yul\":2199:2217   */\n      add\n        /* \"bank.sol\":2988:3375  function checkUserInTopUsers(address user)... */\n      tag_20\n        /* \"#utility.yul\":2030:2359   */\n      jump\n        /* \"bank.sol\":159:187  address payable public admin */\n    tag_9:\n      callvalue\n      dup1\n      iszero\n      tag_48\n      jumpi\n      0x00\n      dup1\n      revert\n    tag_48:\n      pop\n      sload(0x00)\n      tag_49\n      swap1\n      sub(shl(0xa0, 0x01), 0x01)\n      and\n      dup2\n      jump\n    tag_49:\n      mload(0x40)\n      sub(shl(0xa0, 0x01), 0x01)\n        /* \"#utility.yul\":2544:2576   */\n      swap1\n      swap2\n      and\n        /* \"#utility.yul\":2526:2577   */\n      dup2\n      mstore\n        /* \"#utility.yul\":2514:2516   */\n      0x20\n        /* \"#utility.yul\":2499:2517   */\n      add\n        /* \"bank.sol\":159:187  address payable public admin */\n      tag_20\n        /* \"#utility.yul\":2364:2583   */\n      jump\n        /* \"bank.sol\":698:1622  function deposit(address sender, uint value) public virtual {... */\n    tag_14:\n      sub(shl(0xa0, 0x01), 0x01)\n        /* \"bank.sol\":787:803  balances[sender] */\n      dup3\n      and\n      0x00\n      swap1\n      dup2\n      mstore\n        /* \"bank.sol\":787:795  balances */\n      0x01\n        /* \"bank.sol\":787:803  balances[sender] */\n      0x20\n      mstore\n      0x40\n      swap1\n      keccak256\n      sload\n        /* \"bank.sol\":787:811  balances[sender] + value */\n      tag_54\n      swap1\n        /* \"bank.sol\":806:811  value */\n      dup3\n      swap1\n        /* \"bank.sol\":787:811  balances[sender] + value */\n      tag_55\n      jump\t// in\n    tag_54:\n      sub(shl(0xa0, 0x01), 0x01)\n        /* \"bank.sol\":768:784  balances[sender] */\n      dup4\n      and\n      0x00\n      swap1\n      dup2\n      mstore\n        /* \"bank.sol\":768:776  balances */\n      0x01\n        /* \"bank.sol\":768:784  balances[sender] */\n      0x20\n      mstore\n      0x40\n      dup2\n      keccak256\n        /* \"bank.sol\":768:811  balances[sender] = balances[sender] + value */\n      swap2\n      swap1\n      swap2\n      sstore\n        /* \"bank.sol\":768:784  balances[sender] */\n      dup1\n        /* \"bank.sol\":848:1059  for (uint256 i = 0; i < 3; i++) {... */\n    tag_56:\n        /* \"bank.sol\":872:873  3 */\n      0x03\n        /* \"bank.sol\":868:869  i */\n      dup2\n        /* \"bank.sol\":868:873  i < 3 */\n      lt\n        /* \"bank.sol\":848:1059  for (uint256 i = 0; i < 3; i++) {... */\n      iszero\n      tag_57\n      jumpi\n        /* \"bank.sol\":908:916  topUsers */\n      0x02\n        /* \"bank.sol\":917:918  i */\n      dup2\n        /* \"bank.sol\":908:919  topUsers[i] */\n      0x03\n      dup2\n      lt\n      tag_60\n      jumpi\n      tag_60\n      tag_61\n      jump\t// in\n    tag_60:\n      0x02\n      mul\n      add\n        /* \"bank.sol\":908:924  topUsers[i].addr */\n      sload\n      sub(shl(0xa0, 0x01), 0x01)\n      swap1\n      dup2\n      and\n        /* \"bank.sol\":898:924  sender == topUsers[i].addr */\n      swap1\n      dup6\n      and\n      sub\n        /* \"bank.sol\":894:1049  if (sender == topUsers[i].addr) {... */\n      tag_63\n      jumpi\n      sub(shl(0xa0, 0x01), 0x01)\n        /* \"bank.sol\":995:1011  balances[sender] */\n      dup5\n      and\n      0x00\n      swap1\n      dup2\n      mstore\n        /* \"bank.sol\":951:955  true */\n      0x01\n        /* \"bank.sol\":995:1011  balances[sender] */\n      0x20\n      dup2\n      swap1\n      mstore\n      0x40\n      swap1\n      swap2\n      keccak256\n      sload\n        /* \"bank.sol\":951:955  true */\n      swap1\n      swap3\n      pop\n        /* \"bank.sol\":973:981  topUsers */\n      0x02\n        /* \"bank.sol\":982:983  i */\n      dup3\n        /* \"bank.sol\":973:984  topUsers[i] */\n      0x03\n      dup2\n      lt\n      tag_65\n      jumpi\n      tag_65\n      tag_61\n      jump\t// in\n    tag_65:\n      0x02\n      mul\n      add\n        /* \"bank.sol\":973:992  topUsers[i].balance */\n      0x01\n      add\n        /* \"bank.sol\":973:1011  topUsers[i].balance = balances[sender] */\n      dup2\n      swap1\n      sstore\n      pop\n        /* \"bank.sol\":1029:1034  break */\n      jump(tag_57)\n        /* \"bank.sol\":894:1049  if (sender == topUsers[i].addr) {... */\n    tag_63:\n        /* \"bank.sol\":875:878  i++ */\n      0x01\n      add\n        /* \"bank.sol\":848:1059  for (uint256 i = 0; i < 3; i++) {... */\n      jump(tag_56)\n    tag_57:\n      pop\n        /* \"bank.sol\":1074:1078  flag */\n      dup1\n        /* \"bank.sol\":1069:1616  if (!flag) {... */\n      tag_100\n      jumpi\n        /* \"bank.sol\":1117:1136  topUsers[0].balance */\n      sload(0x03)\n      sub(shl(0xa0, 0x01), 0x01)\n        /* \"bank.sol\":1098:1114  balances[sender] */\n      dup5\n      and\n        /* \"bank.sol\":1126:1127  0 */\n      0x00\n        /* \"bank.sol\":1098:1114  balances[sender] */\n      swap1\n      dup2\n      mstore\n        /* \"bank.sol\":1117:1136  topUsers[0].balance */\n      0x01\n        /* \"bank.sol\":1098:1114  balances[sender] */\n      0x20\n      mstore\n      0x40\n      swap1\n      keccak256\n      sload\n        /* \"bank.sol\":1098:1136  balances[sender] > topUsers[0].balance */\n      gt\n        /* \"bank.sol\":1094:1580  if (balances[sender] > topUsers[0].balance) {... */\n      iszero\n      tag_71\n      jumpi\n        /* \"bank.sol\":1156:1164  topUsers */\n      0x02\n        /* \"bank.sol\":1156:1181  topUsers[0].addr = sender */\n      dup1\n      sload\n      not(sub(shl(0xa0, 0x01), 0x01))\n      and\n      sub(shl(0xa0, 0x01), 0x01)\n      dup6\n      and\n      swap1\n      dup2\n      or\n      dup3\n      sstore\n      0x00\n        /* \"bank.sol\":1221:1237  balances[sender] */\n      swap1\n      dup2\n      mstore\n      mstore(0x20, 0x01)\n      0x40\n      dup2\n      keccak256\n      sload\n      swap2\n        /* \"bank.sol\":1156:1164  topUsers */\n      swap1\n        /* \"bank.sol\":1199:1210  topUsers[0] */\n    tag_76:\n      0x02\n      mul\n      add\n        /* \"bank.sol\":1199:1218  topUsers[0].balance */\n      0x01\n      add\n        /* \"bank.sol\":1199:1237  topUsers[0].balance = balances[sender] */\n      dup2\n      swap1\n      sstore\n      pop\n        /* \"bank.sol\":1094:1580  if (balances[sender] > topUsers[0].balance) {... */\n      jump(tag_93)\n    tag_71:\n        /* \"bank.sol\":1281:1300  topUsers[1].balance */\n      sload(0x05)\n      sub(shl(0xa0, 0x01), 0x01)\n        /* \"bank.sol\":1262:1278  balances[sender] */\n      dup5\n      and\n      0x00\n      swap1\n      dup2\n      mstore\n        /* \"bank.sol\":1290:1291  1 */\n      0x01\n        /* \"bank.sol\":1262:1278  balances[sender] */\n      0x20\n      mstore\n      0x40\n      swap1\n      keccak256\n      sload\n        /* \"bank.sol\":1262:1300  balances[sender] > topUsers[1].balance */\n      gt\n        /* \"bank.sol\":1258:1580  if (balances[sender] > topUsers[1].balance) {... */\n      iszero\n      tag_82\n      jumpi\n        /* \"bank.sol\":1320:1331  topUsers[1] */\n      0x04\n        /* \"bank.sol\":1320:1345  topUsers[1].addr = sender */\n      dup1\n      sload\n      not(sub(shl(0xa0, 0x01), 0x01))\n      and\n      sub(shl(0xa0, 0x01), 0x01)\n      dup6\n      and\n      swap1\n      dup2\n      or\n      swap1\n      swap2\n      sstore\n      0x00\n        /* \"bank.sol\":1385:1401  balances[sender] */\n      swap1\n      dup2\n      mstore\n      0x01\n      0x20\n      dup2\n      swap1\n      mstore\n      0x40\n      swap1\n      swap2\n      keccak256\n      sload\n      swap1\n        /* \"bank.sol\":1320:1328  topUsers */\n      0x02\n      swap1\n        /* \"bank.sol\":1363:1374  topUsers[1] */\n      jump(tag_76)\n        /* \"bank.sol\":1258:1580  if (balances[sender] > topUsers[1].balance) {... */\n    tag_82:\n        /* \"bank.sol\":1445:1464  topUsers[2].balance */\n      sload(0x07)\n      sub(shl(0xa0, 0x01), 0x01)\n        /* \"bank.sol\":1426:1442  balances[sender] */\n      dup5\n      and\n      0x00\n      swap1\n      dup2\n      mstore\n        /* \"bank.sol\":1445:1464  topUsers[2].balance */\n      0x01\n        /* \"bank.sol\":1426:1442  balances[sender] */\n      0x20\n      mstore\n      0x40\n      swap1\n      keccak256\n      sload\n        /* \"bank.sol\":1426:1464  balances[sender] > topUsers[2].balance */\n      gt\n        /* \"bank.sol\":1422:1580  if (balances[sender] > topUsers[2].balance) {... */\n      iszero\n      tag_93\n      jumpi\n        /* \"bank.sol\":1484:1495  topUsers[2] */\n      0x06\n        /* \"bank.sol\":1484:1509  topUsers[2].addr = sender */\n      dup1\n      sload\n      not(sub(shl(0xa0, 0x01), 0x01))\n      and\n      sub(shl(0xa0, 0x01), 0x01)\n      dup6\n      and\n      swap1\n      dup2\n      or\n      swap1\n      swap2\n      sstore\n      0x00\n        /* \"bank.sol\":1549:1565  balances[sender] */\n      swap1\n      dup2\n      mstore\n      mstore(0x20, 0x01)\n      0x40\n      swap1\n      keccak256\n      sload\n        /* \"bank.sol\":1527:1546  topUsers[2].balance */\n      0x07\n        /* \"bank.sol\":1527:1565  topUsers[2].balance = balances[sender] */\n      sstore\n        /* \"bank.sol\":1422:1580  if (balances[sender] > topUsers[2].balance) {... */\n    tag_93:\n        /* \"bank.sol\":1593:1605  bubbleSort() */\n      tag_100\n        /* \"bank.sol\":1593:1603  bubbleSort */\n      tag_101\n        /* \"bank.sol\":1593:1605  bubbleSort() */\n      jump\t// in\n    tag_100:\n        /* \"bank.sol\":758:1622  {... */\n      pop\n        /* \"bank.sol\":698:1622  function deposit(address sender, uint value) public virtual {... */\n      pop\n      pop\n      jump\t// out\n        /* \"bank.sol\":2881:2982  function getRankings() public view returns (RankingStruct[3] memory) {... */\n    tag_24:\n        /* \"bank.sol\":2925:2948  RankingStruct[3] memory */\n      tag_102\n      tag_103\n      jump\t// in\n    tag_102:\n        /* \"bank.sol\":2960:2975  return topUsers */\n      0x40\n      dup1\n      mload\n      0x60\n      dup2\n      add\n      swap1\n      swap2\n      mstore\n        /* \"bank.sol\":2967:2975  topUsers */\n      0x02\n        /* \"bank.sol\":2960:2975  return topUsers */\n      0x03\n      0x00\n      dup4\n    tag_105:\n      dup3\n      dup3\n      lt\n      iszero\n      tag_106\n      jumpi\n      0x40\n      dup1\n      mload\n      dup1\n      dup3\n      add\n      swap1\n      swap2\n      mstore\n      0x02\n      dup4\n      mul\n      dup6\n      add\n      dup1\n      sload\n      sub(shl(0xa0, 0x01), 0x01)\n      and\n      dup3\n      mstore\n      0x01\n      swap1\n      dup2\n      add\n      sload\n      0x20\n      dup1\n      dup5\n      add\n      swap2\n      swap1\n      swap2\n      mstore\n      swap2\n      dup4\n      mstore\n      swap1\n      swap3\n      add\n      swap2\n      add\n      jump(tag_105)\n    tag_106:\n      pop\n      pop\n      pop\n      pop\n      swap1\n      pop\n        /* \"bank.sol\":2881:2982  function getRankings() public view returns (RankingStruct[3] memory) {... */\n      swap1\n      jump\t// out\n        /* \"bank.sol\":1718:1929  function withdraw() external override returns (uint256)  {... */\n    tag_29:\n        /* \"bank.sol\":1765:1772  uint256 */\n      0x00\n        /* \"bank.sol\":1807:1812  admin */\n      dup1\n      sload\n      sub(shl(0xa0, 0x01), 0x01)\n      and\n        /* \"bank.sol\":1793:1803  msg.sender */\n      caller\n        /* \"bank.sol\":1793:1812  msg.sender == admin */\n      eq\n        /* \"bank.sol\":1785:1828  require(msg.sender == admin, \"admin wrong\") */\n      tag_109\n      jumpi\n      mload(0x40)\n      shl(0xe5, 0x461bcd)\n      dup2\n      mstore\n        /* \"#utility.yul\":3184:3186   */\n      0x20\n        /* \"bank.sol\":1785:1828  require(msg.sender == admin, \"admin wrong\") */\n      0x04\n      dup3\n      add\n        /* \"#utility.yul\":3166:3187   */\n      mstore\n        /* \"#utility.yul\":3223:3225   */\n      0x0b\n        /* \"#utility.yul\":3203:3221   */\n      0x24\n      dup3\n      add\n        /* \"#utility.yul\":3196:3226   */\n      mstore\n      shl(0xa8, 0x61646d696e2077726f6e67)\n        /* \"#utility.yul\":3242:3260   */\n      0x44\n      dup3\n      add\n        /* \"#utility.yul\":3235:3276   */\n      mstore\n        /* \"#utility.yul\":3293:3311   */\n      0x64\n      add\n        /* \"bank.sol\":1785:1828  require(msg.sender == admin, \"admin wrong\") */\n      mload(0x40)\n      dup1\n      swap2\n      sub\n      swap1\n      revert\n    tag_109:\n        /* \"bank.sol\":1846:1851  admin */\n      0x00\n      dup1\n      sload\n        /* \"bank.sol\":1838:1884  payable(admin).transfer(address(this).balance) */\n      mload(0x40)\n      sub(shl(0xa0, 0x01), 0x01)\n        /* \"bank.sol\":1846:1851  admin */\n      swap1\n      swap2\n      and\n      swap2\n        /* \"bank.sol\":1862:1883  address(this).balance */\n      selfbalance\n        /* \"bank.sol\":1838:1884  payable(admin).transfer(address(this).balance) */\n      dup1\n      iszero\n      0x08fc\n      mul\n      swap3\n        /* \"bank.sol\":1862:1883  address(this).balance */\n      swap1\n      swap2\n        /* \"bank.sol\":1838:1884  payable(admin).transfer(address(this).balance) */\n      dup2\n        /* \"bank.sol\":1846:1851  admin */\n      dup2\n        /* \"bank.sol\":1838:1884  payable(admin).transfer(address(this).balance) */\n      dup2\n        /* \"bank.sol\":1862:1883  address(this).balance */\n      dup6\n        /* \"bank.sol\":1846:1851  admin */\n      dup9\n        /* \"bank.sol\":1838:1884  payable(admin).transfer(address(this).balance) */\n      dup9\n      call\n      swap4\n      pop\n      pop\n      pop\n      pop\n      iszero\n      dup1\n      iszero\n      tag_113\n      jumpi\n      returndatasize\n      0x00\n      dup1\n      returndatacopy\n      revert(0x00, returndatasize)\n    tag_113:\n      pop\n        /* \"bank.sol\":1901:1922  address(this).balance */\n      selfbalance\n        /* \"bank.sol\":1894:1922  return address(this).balance */\n      swap1\n      pop\n        /* \"bank.sol\":1718:1929  function withdraw() external override returns (uint256)  {... */\n      swap1\n      jump\t// out\n        /* \"bank.sol\":242:274  RankingStruct[3] public topUsers */\n    tag_39:\n      0x02\n      dup2\n      0x03\n      dup2\n      lt\n      tag_114\n      jumpi\n      0x00\n      dup1\n      revert\n    tag_114:\n      0x02\n      mul\n      add\n      dup1\n      sload\n      0x01\n      swap1\n      swap2\n      add\n      sload\n      sub(shl(0xa0, 0x01), 0x01)\n      swap1\n      swap2\n      and\n      swap2\n      pop\n      dup3\n      jump\t// out\n        /* \"bank.sol\":2988:3375  function checkUserInTopUsers(address user)... */\n    tag_45:\n        /* \"bank.sol\":3089:3099  bool found */\n      0x00\n      dup1\n      dup1\n      dup1\n        /* \"bank.sol\":3183:3339  for (uint256 i = 0; i < 3; i++) {... */\n    tag_117:\n        /* \"bank.sol\":3207:3208  3 */\n      0x03\n        /* \"bank.sol\":3203:3204  i */\n      dup2\n        /* \"bank.sol\":3203:3208  i < 3 */\n      lt\n        /* \"bank.sol\":3183:3339  for (uint256 i = 0; i < 3; i++) {... */\n      iszero\n      tag_118\n      jumpi\n        /* \"bank.sol\":3241:3249  topUsers */\n      0x02\n        /* \"bank.sol\":3250:3251  i */\n      dup2\n        /* \"bank.sol\":3241:3252  topUsers[i] */\n      0x03\n      dup2\n      lt\n      tag_121\n      jumpi\n      tag_121\n      tag_61\n      jump\t// in\n    tag_121:\n      0x02\n      mul\n      add\n        /* \"bank.sol\":3241:3257  topUsers[i].addr */\n      sload\n      sub(shl(0xa0, 0x01), 0x01)\n      swap1\n      dup2\n      and\n        /* \"bank.sol\":3233:3257  user == topUsers[i].addr */\n      swap1\n      dup7\n      and\n      sub\n        /* \"bank.sol\":3229:3329  if (user == topUsers[i].addr) {... */\n      tag_123\n      jumpi\n        /* \"bank.sol\":3285:3289  true */\n      0x01\n        /* \"bank.sol\":3291:3299  topUsers */\n      0x02\n        /* \"bank.sol\":3300:3301  i */\n      dup3\n        /* \"bank.sol\":3291:3302  topUsers[i] */\n      0x03\n      dup2\n      lt\n      tag_125\n      jumpi\n      tag_125\n      tag_61\n      jump\t// in\n    tag_125:\n      0x02\n      mul\n      add\n        /* \"bank.sol\":3291:3310  topUsers[i].balance */\n      0x01\n      add\n      sload\n        /* \"bank.sol\":3312:3313  i */\n      dup3\n        /* \"bank.sol\":3277:3314  return (true, topUsers[i].balance, i) */\n      swap4\n      pop\n      swap4\n      pop\n      swap4\n      pop\n      pop\n      jump(tag_116)\n        /* \"bank.sol\":3229:3329  if (user == topUsers[i].addr) {... */\n    tag_123:\n        /* \"bank.sol\":3210:3213  i++ */\n      0x01\n      add\n        /* \"bank.sol\":3183:3339  for (uint256 i = 0; i < 3; i++) {... */\n      jump(tag_117)\n    tag_118:\n      pop\n        /* \"bank.sol\":3356:3361  false */\n      0x00\n        /* \"bank.sol\":3363:3364  0 */\n      dup1\n        /* \"bank.sol\":3366:3367  0 */\n      0x00\n        /* \"bank.sol\":3348:3368  return (false, 0, 0) */\n      swap3\n      pop\n      swap3\n      pop\n      swap3\n      pop\n        /* \"bank.sol\":2988:3375  function checkUserInTopUsers(address user)... */\n    tag_116:\n      swap2\n      swap4\n      swap1\n      swap3\n      pop\n      jump\t// out\n        /* \"bank.sol\":2409:2875  function bubbleSort() internal {... */\n    tag_101:\n        /* \"bank.sol\":2464:2479  topUsers.length */\n      0x03\n        /* \"bank.sol\":2450:2461  uint256 num */\n      0x00\n        /* \"bank.sol\":2489:2869  for (uint256 i = 0; i < num - 1; i++) {... */\n    tag_128:\n        /* \"bank.sol\":2513:2520  num - 1 */\n      tag_131\n        /* \"bank.sol\":2519:2520  1 */\n      0x01\n        /* \"bank.sol\":2513:2516  num */\n      dup4\n        /* \"bank.sol\":2513:2520  num - 1 */\n      tag_132\n      jump\t// in\n    tag_131:\n        /* \"bank.sol\":2509:2510  i */\n      dup2\n        /* \"bank.sol\":2509:2520  i < num - 1 */\n      lt\n        /* \"bank.sol\":2489:2869  for (uint256 i = 0; i < num - 1; i++) {... */\n      iszero\n      tag_129\n      jumpi\n        /* \"bank.sol\":2546:2555  uint256 j */\n      0x00\n        /* \"bank.sol\":2541:2859  for (uint256 j = 0; j < num - 1 - i; j++) {... */\n    tag_133:\n        /* \"bank.sol\":2575:2576  i */\n      dup2\n        /* \"bank.sol\":2565:2572  num - 1 */\n      tag_136\n        /* \"bank.sol\":2571:2572  1 */\n      0x01\n        /* \"bank.sol\":2565:2568  num */\n      dup6\n        /* \"bank.sol\":2565:2572  num - 1 */\n      tag_132\n      jump\t// in\n    tag_136:\n        /* \"bank.sol\":2565:2576  num - 1 - i */\n      tag_137\n      swap2\n      swap1\n      tag_132\n      jump\t// in\n    tag_137:\n        /* \"bank.sol\":2561:2562  j */\n      dup2\n        /* \"bank.sol\":2561:2576  j < num - 1 - i */\n      lt\n        /* \"bank.sol\":2541:2859  for (uint256 j = 0; j < num - 1 - i; j++) {... */\n      iszero\n      tag_134\n      jumpi\n        /* \"bank.sol\":2623:2648  RankingStruct memory left */\n      0x00\n        /* \"bank.sol\":2670:2696  RankingStruct memory right */\n      dup1\n        /* \"bank.sol\":2717:2767  rightBigger(topUsers[j], topUsers[j + 1], compare) */\n      tag_138\n        /* \"bank.sol\":2729:2737  topUsers */\n      0x02\n        /* \"bank.sol\":2738:2739  j */\n      dup5\n        /* \"bank.sol\":2729:2740  topUsers[j] */\n      0x03\n      dup2\n      lt\n      tag_140\n      jumpi\n      tag_140\n      tag_61\n      jump\t// in\n    tag_140:\n        /* \"bank.sol\":2717:2767  rightBigger(topUsers[j], topUsers[j + 1], compare) */\n      0x40\n      dup1\n      mload\n      dup1\n      dup3\n      add\n      swap1\n      swap2\n      mstore\n        /* \"bank.sol\":2729:2740  topUsers[j] */\n      0x02\n      swap2\n      dup3\n      mul\n      swap3\n      swap1\n      swap3\n      add\n        /* \"bank.sol\":2717:2767  rightBigger(topUsers[j], topUsers[j + 1], compare) */\n      dup1\n      sload\n      sub(shl(0xa0, 0x01), 0x01)\n      and\n      dup4\n      mstore\n      0x01\n      swap1\n      dup2\n      add\n      sload\n      0x20\n      dup5\n      add\n      mstore\n        /* \"bank.sol\":2751:2756  j + 1 */\n      tag_142\n      swap1\n        /* \"bank.sol\":2751:2752  j */\n      dup8\n      swap1\n        /* \"bank.sol\":2751:2756  j + 1 */\n      tag_55\n      jump\t// in\n    tag_142:\n        /* \"bank.sol\":2742:2757  topUsers[j + 1] */\n      0x03\n      dup2\n      lt\n      tag_144\n      jumpi\n      tag_144\n      tag_61\n      jump\t// in\n    tag_144:\n        /* \"bank.sol\":2717:2767  rightBigger(topUsers[j], topUsers[j + 1], compare) */\n      0x40\n      dup1\n      mload\n      dup1\n      dup3\n      add\n      swap1\n      swap2\n      mstore\n        /* \"bank.sol\":2742:2757  topUsers[j + 1] */\n      0x02\n      swap2\n      swap1\n      swap2\n      mul\n      swap2\n      swap1\n      swap2\n      add\n        /* \"bank.sol\":2717:2767  rightBigger(topUsers[j], topUsers[j + 1], compare) */\n      dup1\n      sload\n      sub(shl(0xa0, 0x01), 0x01)\n      and\n      dup3\n      mstore\n      0x01\n      add\n      sload\n      0x20\n      dup3\n      add\n      mstore\n        /* \"bank.sol\":2759:2766  compare */\n      tag_146\n        /* \"bank.sol\":2717:2728  rightBigger */\n      tag_147\n        /* \"bank.sol\":2717:2767  rightBigger(topUsers[j], topUsers[j + 1], compare) */\n      jump\t// in\n    tag_138:\n        /* \"bank.sol\":2601:2767  (... */\n      swap2\n      pop\n      swap2\n      pop\n        /* \"bank.sol\":2799:2803  left */\n      dup2\n        /* \"bank.sol\":2785:2793  topUsers */\n      0x02\n        /* \"bank.sol\":2794:2795  j */\n      dup5\n        /* \"bank.sol\":2785:2796  topUsers[j] */\n      0x03\n      dup2\n      lt\n      tag_149\n      jumpi\n      tag_149\n      tag_61\n      jump\t// in\n    tag_149:\n        /* \"bank.sol\":2785:2803  topUsers[j] = left */\n      dup3\n      mload\n        /* \"bank.sol\":2785:2796  topUsers[j] */\n      0x02\n      swap2\n      dup3\n      mul\n      swap3\n      swap1\n      swap3\n      add\n        /* \"bank.sol\":2785:2803  topUsers[j] = left */\n      dup1\n      sload\n      not(sub(shl(0xa0, 0x01), 0x01))\n      and\n      sub(shl(0xa0, 0x01), 0x01)\n      swap1\n      swap4\n      and\n      swap3\n      swap1\n      swap3\n      or\n      dup3\n      sstore\n      0x20\n      swap1\n      swap3\n      add\n      mload\n      0x01\n      swap2\n      dup3\n      add\n      sstore\n        /* \"bank.sol\":2839:2844  right */\n      dup3\n      swap2\n        /* \"bank.sol\":2785:2796  topUsers[j] */\n      swap1\n        /* \"bank.sol\":2830:2835  j + 1 */\n      tag_151\n      swap1\n        /* \"bank.sol\":2830:2831  j */\n      dup7\n      swap1\n        /* \"bank.sol\":2830:2835  j + 1 */\n      tag_55\n      jump\t// in\n    tag_151:\n        /* \"bank.sol\":2821:2836  topUsers[j + 1] */\n      0x03\n      dup2\n      lt\n      tag_153\n      jumpi\n      tag_153\n      tag_61\n      jump\t// in\n    tag_153:\n        /* \"bank.sol\":2821:2844  topUsers[j + 1] = right */\n      dup3\n      mload\n        /* \"bank.sol\":2821:2836  topUsers[j + 1] */\n      0x02\n      swap2\n      swap1\n      swap2\n      mul\n      swap2\n      swap1\n      swap2\n      add\n        /* \"bank.sol\":2821:2844  topUsers[j + 1] = right */\n      dup1\n      sload\n      not(sub(shl(0xa0, 0x01), 0x01))\n      and\n      sub(shl(0xa0, 0x01), 0x01)\n      swap1\n      swap3\n      and\n      swap2\n      swap1\n      swap2\n      or\n      dup2\n      sstore\n      0x20\n      swap1\n      swap2\n      add\n      mload\n      0x01\n      swap2\n      dup3\n      add\n      sstore\n        /* \"bank.sol\":2578:2581  j++ */\n      swap3\n      swap1\n      swap3\n      add\n      swap2\n      pop\n        /* \"bank.sol\":2541:2859  for (uint256 j = 0; j < num - 1 - i; j++) {... */\n      tag_133\n      swap1\n      pop\n      jump\n    tag_134:\n      pop\n        /* \"bank.sol\":2522:2525  i++ */\n      0x01\n      add\n        /* \"bank.sol\":2489:2869  for (uint256 i = 0; i < num - 1; i++) {... */\n      jump(tag_128)\n    tag_129:\n      pop\n        /* \"bank.sol\":2440:2875  {... */\n      pop\n        /* \"bank.sol\":2409:2875  function bubbleSort() internal {... */\n      jump\t// out\n        /* \"bank.sol\":1935:2032  function compare(uint256 a, uint256 b) internal pure returns (bool) {... */\n    tag_146:\n        /* \"bank.sol\":2020:2025  a > b */\n      dup1\n      dup3\n      gt\n        /* \"bank.sol\":1935:2032  function compare(uint256 a, uint256 b) internal pure returns (bool) {... */\n    tag_155:\n      swap3\n      swap2\n      pop\n      pop\n      jump\t// out\n        /* \"bank.sol\":2038:2403  function rightBigger(... */\n    tag_147:\n      0x40\n      dup1\n      mload\n      dup1\n      dup3\n      add\n      swap1\n      swap2\n      mstore\n      0x00\n      dup1\n      dup3\n      mstore\n      0x20\n      dup3\n      add\n      mstore\n      0x40\n      dup1\n      mload\n      dup1\n      dup3\n      add\n      swap1\n      swap2\n      mstore\n      0x00\n      dup1\n      dup3\n      mstore\n      0x20\n      dup3\n      add\n      mstore\n        /* \"bank.sol\":2287:2320  func(left.balance, right.balance) */\n      tag_160\n        /* \"bank.sol\":2292:2296  left */\n      dup6\n        /* \"bank.sol\":2292:2304  left.balance */\n      0x20\n      add\n      mload\n        /* \"bank.sol\":2306:2311  right */\n      dup6\n        /* \"bank.sol\":2306:2319  right.balance */\n      0x20\n      add\n      mload\n        /* \"bank.sol\":2287:2291  func */\n      dup6\n        /* \"bank.sol\":2287:2320  func(left.balance, right.balance) */\n      0xffffffff\n      and\n      jump\t// in\n    tag_160:\n        /* \"bank.sol\":2283:2367  if (func(left.balance, right.balance)) {... */\n      iszero\n      tag_161\n      jumpi\n      pop\n        /* \"bank.sol\":2344:2349  right */\n      dup3\n      swap1\n      pop\n        /* \"bank.sol\":2351:2355  left */\n      dup4\n        /* \"bank.sol\":2336:2356  return (right, left) */\n      jump(tag_159)\n        /* \"bank.sol\":2283:2367  if (func(left.balance, right.balance)) {... */\n    tag_161:\n      pop\n        /* \"bank.sol\":2384:2388  left */\n      dup4\n      swap1\n      pop\n        /* \"bank.sol\":2390:2395  right */\n      dup3\n        /* \"bank.sol\":2038:2403  function rightBigger(... */\n    tag_159:\n      swap4\n      pop\n      swap4\n      swap2\n      pop\n      pop\n      jump\t// out\n    tag_103:\n      mload(0x40)\n      dup1\n      0x60\n      add\n      0x40\n      mstore\n      dup1\n      0x03\n      swap1\n    tag_162:\n      0x40\n      dup1\n      mload\n      dup1\n      dup3\n      add\n      swap1\n      swap2\n      mstore\n      0x00\n      dup1\n      dup3\n      mstore\n      0x20\n      dup3\n      add\n      mstore\n      dup2\n      mstore\n      0x20\n      add\n      swap1\n      0x01\n      swap1\n      sub\n      swap1\n      dup2\n      tag_162\n      jumpi\n      swap1\n      pop\n      pop\n      swap1\n      jump\t// out\n        /* \"#utility.yul\":14:187   */\n    tag_164:\n        /* \"#utility.yul\":82:102   */\n      dup1\n      calldataload\n      sub(shl(0xa0, 0x01), 0x01)\n        /* \"#utility.yul\":131:162   */\n      dup2\n      and\n        /* \"#utility.yul\":121:163   */\n      dup2\n      eq\n        /* \"#utility.yul\":111:181   */\n      tag_168\n      jumpi\n        /* \"#utility.yul\":177:178   */\n      0x00\n        /* \"#utility.yul\":174:175   */\n      dup1\n        /* \"#utility.yul\":167:179   */\n      revert\n        /* \"#utility.yul\":111:181   */\n    tag_168:\n        /* \"#utility.yul\":14:187   */\n      swap2\n      swap1\n      pop\n      jump\t// out\n        /* \"#utility.yul\":192:378   */\n    tag_18:\n        /* \"#utility.yul\":251:257   */\n      0x00\n        /* \"#utility.yul\":304:306   */\n      0x20\n        /* \"#utility.yul\":292:301   */\n      dup3\n        /* \"#utility.yul\":283:290   */\n      dup5\n        /* \"#utility.yul\":279:302   */\n      sub\n        /* \"#utility.yul\":275:307   */\n      slt\n        /* \"#utility.yul\":272:324   */\n      iszero\n      tag_170\n      jumpi\n        /* \"#utility.yul\":320:321   */\n      0x00\n        /* \"#utility.yul\":317:318   */\n      dup1\n        /* \"#utility.yul\":310:322   */\n      revert\n        /* \"#utility.yul\":272:324   */\n    tag_170:\n        /* \"#utility.yul\":343:372   */\n      tag_171\n        /* \"#utility.yul\":362:371   */\n      dup3\n        /* \"#utility.yul\":343:372   */\n      tag_164\n      jump\t// in\n    tag_171:\n        /* \"#utility.yul\":333:372   */\n      swap4\n        /* \"#utility.yul\":192:378   */\n      swap3\n      pop\n      pop\n      pop\n      jump\t// out\n        /* \"#utility.yul\":565:1210   */\n    tag_26:\n        /* \"#utility.yul\":803:806   */\n      0xc0\n        /* \"#utility.yul\":788:807   */\n      dup2\n      add\n        /* \"#utility.yul\":792:801   */\n      dup2\n        /* \"#utility.yul\":884:890   */\n      dup4\n        /* \"#utility.yul\":761:765   */\n      0x00\n        /* \"#utility.yul\":918:1204   */\n    tag_174:\n        /* \"#utility.yul\":932:936   */\n      0x03\n        /* \"#utility.yul\":929:930   */\n      dup2\n        /* \"#utility.yul\":926:937   */\n      lt\n        /* \"#utility.yul\":918:1204   */\n      iszero\n      tag_176\n      jumpi\n        /* \"#utility.yul\":989:1002   */\n      dup2\n      mload\n        /* \"#utility.yul\":1031:1040   */\n      dup1\n      mload\n      sub(shl(0xa0, 0x01), 0x01)\n        /* \"#utility.yul\":1027:1062   */\n      and\n        /* \"#utility.yul\":1015:1063   */\n      dup5\n      mstore\n        /* \"#utility.yul\":1113:1117   */\n      0x20\n        /* \"#utility.yul\":1105:1118   */\n      swap1\n      dup2\n      add\n        /* \"#utility.yul\":1099:1119   */\n      mload\n        /* \"#utility.yul\":1083:1097   */\n      dup2\n      dup6\n      add\n        /* \"#utility.yul\":1076:1120   */\n      mstore\n        /* \"#utility.yul\":1149:1153   */\n      0x40\n        /* \"#utility.yul\":1140:1154   */\n      swap1\n      swap4\n      add\n      swap3\n        /* \"#utility.yul\":1177:1194   */\n      swap1\n      swap2\n      add\n      swap1\n        /* \"#utility.yul\":1059:1060   */\n      0x01\n        /* \"#utility.yul\":945:954   */\n      add\n        /* \"#utility.yul\":918:1204   */\n      jump(tag_174)\n    tag_176:\n        /* \"#utility.yul\":922:925   */\n      pop\n      pop\n      pop\n        /* \"#utility.yul\":565:1210   */\n      swap3\n      swap2\n      pop\n      pop\n      jump\t// out\n        /* \"#utility.yul\":1215:1515   */\n    tag_34:\n        /* \"#utility.yul\":1283:1289   */\n      0x00\n        /* \"#utility.yul\":1291:1297   */\n      dup1\n        /* \"#utility.yul\":1344:1346   */\n      0x40\n        /* \"#utility.yul\":1332:1341   */\n      dup4\n        /* \"#utility.yul\":1323:1330   */\n      dup6\n        /* \"#utility.yul\":1319:1342   */\n      sub\n        /* \"#utility.yul\":1315:1347   */\n      slt\n        /* \"#utility.yul\":1312:1364   */\n      iszero\n      tag_178\n      jumpi\n        /* \"#utility.yul\":1360:1361   */\n      0x00\n        /* \"#utility.yul\":1357:1358   */\n      dup1\n        /* \"#utility.yul\":1350:1362   */\n      revert\n        /* \"#utility.yul\":1312:1364   */\n    tag_178:\n        /* \"#utility.yul\":1383:1412   */\n      tag_179\n        /* \"#utility.yul\":1402:1411   */\n      dup4\n        /* \"#utility.yul\":1383:1412   */\n      tag_164\n      jump\t// in\n    tag_179:\n        /* \"#utility.yul\":1373:1412   */\n      swap5\n        /* \"#utility.yul\":1481:1483   */\n      0x20\n        /* \"#utility.yul\":1466:1484   */\n      swap4\n      swap1\n      swap4\n      add\n        /* \"#utility.yul\":1453:1485   */\n      calldataload\n      swap4\n      pop\n      pop\n      pop\n        /* \"#utility.yul\":1215:1515   */\n      jump\t// out\n        /* \"#utility.yul\":1520:1746   */\n    tag_38:\n        /* \"#utility.yul\":1579:1585   */\n      0x00\n        /* \"#utility.yul\":1632:1634   */\n      0x20\n        /* \"#utility.yul\":1620:1629   */\n      dup3\n        /* \"#utility.yul\":1611:1618   */\n      dup5\n        /* \"#utility.yul\":1607:1630   */\n      sub\n        /* \"#utility.yul\":1603:1635   */\n      slt\n        /* \"#utility.yul\":1600:1652   */\n      iszero\n      tag_181\n      jumpi\n        /* \"#utility.yul\":1648:1649   */\n      0x00\n        /* \"#utility.yul\":1645:1646   */\n      dup1\n        /* \"#utility.yul\":1638:1650   */\n      revert\n        /* \"#utility.yul\":1600:1652   */\n    tag_181:\n      pop\n        /* \"#utility.yul\":1693:1716   */\n      calldataload\n      swap2\n        /* \"#utility.yul\":1520:1746   */\n      swap1\n      pop\n      jump\t// out\n        /* \"#utility.yul\":2588:2715   */\n    tag_165:\n        /* \"#utility.yul\":2649:2659   */\n      0x4e487b71\n        /* \"#utility.yul\":2644:2647   */\n      0xe0\n        /* \"#utility.yul\":2640:2660   */\n      shl\n        /* \"#utility.yul\":2637:2638   */\n      0x00\n        /* \"#utility.yul\":2630:2661   */\n      mstore\n        /* \"#utility.yul\":2680:2684   */\n      0x11\n        /* \"#utility.yul\":2677:2678   */\n      0x04\n        /* \"#utility.yul\":2670:2685   */\n      mstore\n        /* \"#utility.yul\":2704:2708   */\n      0x24\n        /* \"#utility.yul\":2701:2702   */\n      0x00\n        /* \"#utility.yul\":2694:2709   */\n      revert\n        /* \"#utility.yul\":2720:2845   */\n    tag_55:\n        /* \"#utility.yul\":2785:2794   */\n      dup1\n      dup3\n      add\n        /* \"#utility.yul\":2806:2816   */\n      dup1\n      dup3\n      gt\n        /* \"#utility.yul\":2803:2839   */\n      iszero\n      tag_155\n      jumpi\n        /* \"#utility.yul\":2819:2837   */\n      tag_155\n      tag_165\n      jump\t// in\n        /* \"#utility.yul\":2850:2977   */\n    tag_61:\n        /* \"#utility.yul\":2911:2921   */\n      0x4e487b71\n        /* \"#utility.yul\":2906:2909   */\n      0xe0\n        /* \"#utility.yul\":2902:2922   */\n      shl\n        /* \"#utility.yul\":2899:2900   */\n      0x00\n        /* \"#utility.yul\":2892:2923   */\n      mstore\n        /* \"#utility.yul\":2942:2946   */\n      0x32\n        /* \"#utility.yul\":2939:2940   */\n      0x04\n        /* \"#utility.yul\":2932:2947   */\n      mstore\n        /* \"#utility.yul\":2966:2970   */\n      0x24\n        /* \"#utility.yul\":2963:2964   */\n      0x00\n        /* \"#utility.yul\":2956:2971   */\n      revert\n        /* \"#utility.yul\":3322:3450   */\n    tag_132:\n        /* \"#utility.yul\":3389:3398   */\n      dup2\n      dup2\n      sub\n        /* \"#utility.yul\":3410:3421   */\n      dup2\n      dup2\n      gt\n        /* \"#utility.yul\":3407:3444   */\n      iszero\n      tag_155\n      jumpi\n        /* \"#utility.yul\":3424:3442   */\n      tag_155\n      tag_165\n      jump\t// in\n\n    auxdata: 0xa2646970667358221220bd3eec12af1b649ebe8440257ae98f4146d3e31085816d30d16a17506045182964736f6c634300081a0033\n}\n",
				"bytecode": {
					"linkReferences": {},
					"object": "6080604052604051610966380380610966833981016040819052602091609b565b5f80546001600160a01b03929092166001600160a01b0319928316178155604080518082018252828152602090810183905260028054851690556003839055815180830183528381528101839052600480548516905560058390558151808301909252828252018190526006805490921690915560075560c6565b5f6020828403121560aa575f80fd5b81516001600160a01b038116811460bf575f80fd5b9392505050565b610893806100d35f395ff3fe608060405260043610610071575f3560e01c806347e7ef241161004c57806347e7ef24146100f9578063689dbf4e14610118578063b5fc70f714610156578063f851a44014610192575f80fd5b806327e235e3146100865780632c83b4b2146100c45780633ccfd60b146100e5575f80fd5b366100825761008033346101c8565b005b5f80fd5b348015610091575f80fd5b506100b16100a036600461076b565b60016020525f908152604090205481565b6040519081526020015b60405180910390f35b3480156100cf575f80fd5b506100d86103a1565b6040516100bb919061078b565b3480156100f0575f80fd5b506100b1610405565b348015610104575f80fd5b506100806101133660046107d0565b6101c8565b348015610123575f80fd5b506101376101323660046107f8565b61048f565b604080516001600160a01b0390931683526020830191909152016100bb565b348015610161575f80fd5b5061017561017036600461076b565b6104ba565b6040805193151584526020840192909252908201526060016100bb565b34801561019d575f80fd5b505f546101b0906001600160a01b031681565b6040516001600160a01b0390911681526020016100bb565b6001600160a01b0382165f908152600160205260409020546101eb908290610823565b6001600160a01b0383165f90815260016020526040812091909155805b6003811015610285576002816003811061022457610224610836565b60020201546001600160a01b039081169085160361027d576001600160a01b0384165f908152600160208190526040909120549092506002826003811061026d5761026d610836565b6002020160010181905550610285565b600101610208565b508061039c576003546001600160a01b0384165f9081526001602052604090205411156102ea57600280546001600160a01b0319166001600160a01b03851690811782555f9081526001602052604081205491905b6002020160010181905550610394565b6005546001600160a01b0384165f90815260016020526040902054111561034357600480546001600160a01b0319166001600160a01b0385169081179091555f90815260016020819052604090912054906002906102da565b6007546001600160a01b0384165f90815260016020526040902054111561039457600680546001600160a01b0319166001600160a01b0385169081179091555f908152600160205260409020546007555b61039c610537565b505050565b6103a9610718565b6040805160608101909152600260035f835b828210156103fc576040805180820190915260028302850180546001600160a01b0316825260019081015460208084019190915291835290920191016103bb565b50505050905090565b5f80546001600160a01b031633146104515760405162461bcd60e51b815260206004820152600b60248201526a61646d696e2077726f6e6760a81b604482015260640160405180910390fd5b5f80546040516001600160a01b03909116914780156108fc02929091818181858888f19350505050158015610488573d5f803e3d5ffd5b5047905090565b6002816003811061049e575f80fd5b6002020180546001909101546001600160a01b03909116915082565b5f8080805b600381101561052557600281600381106104db576104db610836565b60020201546001600160a01b039081169086160361051d5760016002826003811061050857610508610836565b60020201600101548293509350935050610530565b6001016104bf565b505f805f9250925092505b9193909250565b60035f5b61054660018361084a565b8110156106b1575f5b8161055b60018561084a565b610565919061084a565b8110156106a8575f806105fc6002846003811061058457610584610836565b6040805180820190915260029182029290920180546001600160a01b0316835260019081015460208401526105ba908790610823565b600381106105ca576105ca610836565b604080518082019091526002919091029190910180546001600160a01b031682526001015460208201526106b56106bf565b91509150816002846003811061061457610614610836565b825160029182029290920180546001600160a01b0319166001600160a01b03909316929092178255602090920151600191820155829190610656908690610823565b6003811061066657610666610836565b82516002919091029190910180546001600160a01b0319166001600160a01b0390921691909117815560209091015160019182015592909201915061054f9050565b5060010161053b565b5050565b8082115b92915050565b604080518082019091525f8082526020820152604080518082019091525f80825260208201526106fb856020015185602001518563ffffffff16565b1561070a575082905083610710565b50839050825b935093915050565b60405180606001604052806003905b604080518082019091525f80825260208201528152602001906001900390816107275790505090565b80356001600160a01b0381168114610766575f80fd5b919050565b5f6020828403121561077b575f80fd5b61078482610750565b9392505050565b60c0810181835f5b60038110156107c757815180516001600160a01b031684526020908101518185015260409093019290910190600101610793565b50505092915050565b5f80604083850312156107e1575f80fd5b6107ea83610750565b946020939093013593505050565b5f60208284031215610808575f80fd5b5035919050565b634e487b7160e01b5f52601160045260245ffd5b808201808211156106b9576106b961080f565b634e487b7160e01b5f52603260045260245ffd5b818103818111156106b9576106b961080f56fea2646970667358221220bd3eec12af1b649ebe8440257ae98f4146d3e31085816d30d16a17506045182964736f6c634300081a0033",
					"opcodes": "PUSH1 0x80 PUSH1 0x40 MSTORE PUSH1 0x40 MLOAD PUSH2 0x966 CODESIZE SUB DUP1 PUSH2 0x966 DUP4 CODECOPY DUP2 ADD PUSH1 0x40 DUP2 SWAP1 MSTORE PUSH1 0x20 SWAP2 PUSH1 0x9B JUMP JUMPDEST PUSH0 DUP1 SLOAD PUSH1 0x1 PUSH1 0x1 PUSH1 0xA0 SHL SUB SWAP3 SWAP1 SWAP3 AND PUSH1 0x1 PUSH1 0x1 PUSH1 0xA0 SHL SUB NOT SWAP3 DUP4 AND OR DUP2 SSTORE PUSH1 0x40 DUP1 MLOAD DUP1 DUP3 ADD DUP3 MSTORE DUP3 DUP2 MSTORE PUSH1 0x20 SWAP1 DUP2 ADD DUP4 SWAP1 MSTORE PUSH1 0x2 DUP1 SLOAD DUP6 AND SWAP1 SSTORE PUSH1 0x3 DUP4 SWAP1 SSTORE DUP2 MLOAD DUP1 DUP4 ADD DUP4 MSTORE DUP4 DUP2 MSTORE DUP2 ADD DUP4 SWAP1 MSTORE PUSH1 0x4 DUP1 SLOAD DUP6 AND SWAP1 SSTORE PUSH1 0x5 DUP4 SWAP1 SSTORE DUP2 MLOAD DUP1 DUP4 ADD SWAP1 SWAP3 MSTORE DUP3 DUP3 MSTORE ADD DUP2 SWAP1 MSTORE PUSH1 0x6 DUP1 SLOAD SWAP1 SWAP3 AND SWAP1 SWAP2 SSTORE PUSH1 0x7 SSTORE PUSH1 0xC6 JUMP JUMPDEST PUSH0 PUSH1 0x20 DUP3 DUP5 SUB SLT ISZERO PUSH1 0xAA JUMPI PUSH0 DUP1 REVERT JUMPDEST DUP2 MLOAD PUSH1 0x1 PUSH1 0x1 PUSH1 0xA0 SHL SUB DUP2 AND DUP2 EQ PUSH1 0xBF JUMPI PUSH0 DUP1 REVERT JUMPDEST SWAP4 SWAP3 POP POP POP JUMP JUMPDEST PUSH2 0x893 DUP1 PUSH2 0xD3 PUSH0 CODECOPY PUSH0 RETURN INVALID PUSH1 0x80 PUSH1 0x40 MSTORE PUSH1 0x4 CALLDATASIZE LT PUSH2 0x71 JUMPI PUSH0 CALLDATALOAD PUSH1 0xE0 SHR DUP1 PUSH4 0x47E7EF24 GT PUSH2 0x4C JUMPI DUP1 PUSH4 0x47E7EF24 EQ PUSH2 0xF9 JUMPI DUP1 PUSH4 0x689DBF4E EQ PUSH2 0x118 JUMPI DUP1 PUSH4 0xB5FC70F7 EQ PUSH2 0x156 JUMPI DUP1 PUSH4 0xF851A440 EQ PUSH2 0x192 JUMPI PUSH0 DUP1 REVERT JUMPDEST DUP1 PUSH4 0x27E235E3 EQ PUSH2 0x86 JUMPI DUP1 PUSH4 0x2C83B4B2 EQ PUSH2 0xC4 JUMPI DUP1 PUSH4 0x3CCFD60B EQ PUSH2 0xE5 JUMPI PUSH0 DUP1 REVERT JUMPDEST CALLDATASIZE PUSH2 0x82 JUMPI PUSH2 0x80 CALLER CALLVALUE PUSH2 0x1C8 JUMP JUMPDEST STOP JUMPDEST PUSH0 DUP1 REVERT JUMPDEST CALLVALUE DUP1 ISZERO PUSH2 0x91 JUMPI PUSH0 DUP1 REVERT JUMPDEST POP PUSH2 0xB1 PUSH2 0xA0 CALLDATASIZE PUSH1 0x4 PUSH2 0x76B JUMP JUMPDEST PUSH1 0x1 PUSH1 0x20 MSTORE PUSH0 SWAP1 DUP2 MSTORE PUSH1 0x40 SWAP1 KECCAK256 SLOAD DUP2 JUMP JUMPDEST PUSH1 0x40 MLOAD SWAP1 DUP2 MSTORE PUSH1 0x20 ADD JUMPDEST PUSH1 0x40 MLOAD DUP1 SWAP2 SUB SWAP1 RETURN JUMPDEST CALLVALUE DUP1 ISZERO PUSH2 0xCF JUMPI PUSH0 DUP1 REVERT JUMPDEST POP PUSH2 0xD8 PUSH2 0x3A1 JUMP JUMPDEST PUSH1 0x40 MLOAD PUSH2 0xBB SWAP2 SWAP1 PUSH2 0x78B JUMP JUMPDEST CALLVALUE DUP1 ISZERO PUSH2 0xF0 JUMPI PUSH0 DUP1 REVERT JUMPDEST POP PUSH2 0xB1 PUSH2 0x405 JUMP JUMPDEST CALLVALUE DUP1 ISZERO PUSH2 0x104 JUMPI PUSH0 DUP1 REVERT JUMPDEST POP PUSH2 0x80 PUSH2 0x113 CALLDATASIZE PUSH1 0x4 PUSH2 0x7D0 JUMP JUMPDEST PUSH2 0x1C8 JUMP JUMPDEST CALLVALUE DUP1 ISZERO PUSH2 0x123 JUMPI PUSH0 DUP1 REVERT JUMPDEST POP PUSH2 0x137 PUSH2 0x132 CALLDATASIZE PUSH1 0x4 PUSH2 0x7F8 JUMP JUMPDEST PUSH2 0x48F JUMP JUMPDEST PUSH1 0x40 DUP1 MLOAD PUSH1 0x1 PUSH1 0x1 PUSH1 0xA0 SHL SUB SWAP1 SWAP4 AND DUP4 MSTORE PUSH1 0x20 DUP4 ADD SWAP2 SWAP1 SWAP2 MSTORE ADD PUSH2 0xBB JUMP JUMPDEST CALLVALUE DUP1 ISZERO PUSH2 0x161 JUMPI PUSH0 DUP1 REVERT JUMPDEST POP PUSH2 0x175 PUSH2 0x170 CALLDATASIZE PUSH1 0x4 PUSH2 0x76B JUMP JUMPDEST PUSH2 0x4BA JUMP JUMPDEST PUSH1 0x40 DUP1 MLOAD SWAP4 ISZERO ISZERO DUP5 MSTORE PUSH1 0x20 DUP5 ADD SWAP3 SWAP1 SWAP3 MSTORE SWAP1 DUP3 ADD MSTORE PUSH1 0x60 ADD PUSH2 0xBB JUMP JUMPDEST CALLVALUE DUP1 ISZERO PUSH2 0x19D JUMPI PUSH0 DUP1 REVERT JUMPDEST POP PUSH0 SLOAD PUSH2 0x1B0 SWAP1 PUSH1 0x1 PUSH1 0x1 PUSH1 0xA0 SHL SUB AND DUP2 JUMP JUMPDEST PUSH1 0x40 MLOAD PUSH1 0x1 PUSH1 0x1 PUSH1 0xA0 SHL SUB SWAP1 SWAP2 AND DUP2 MSTORE PUSH1 0x20 ADD PUSH2 0xBB JUMP JUMPDEST PUSH1 0x1 PUSH1 0x1 PUSH1 0xA0 SHL SUB DUP3 AND PUSH0 SWAP1 DUP2 MSTORE PUSH1 0x1 PUSH1 0x20 MSTORE PUSH1 0x40 SWAP1 KECCAK256 SLOAD PUSH2 0x1EB SWAP1 DUP3 SWAP1 PUSH2 0x823 JUMP JUMPDEST PUSH1 0x1 PUSH1 0x1 PUSH1 0xA0 SHL SUB DUP4 AND PUSH0 SWAP1 DUP2 MSTORE PUSH1 0x1 PUSH1 0x20 MSTORE PUSH1 0x40 DUP2 KECCAK256 SWAP2 SWAP1 SWAP2 SSTORE DUP1 JUMPDEST PUSH1 0x3 DUP2 LT ISZERO PUSH2 0x285 JUMPI PUSH1 0x2 DUP2 PUSH1 0x3 DUP2 LT PUSH2 0x224 JUMPI PUSH2 0x224 PUSH2 0x836 JUMP JUMPDEST PUSH1 0x2 MUL ADD SLOAD PUSH1 0x1 PUSH1 0x1 PUSH1 0xA0 SHL SUB SWAP1 DUP2 AND SWAP1 DUP6 AND SUB PUSH2 0x27D JUMPI PUSH1 0x1 PUSH1 0x1 PUSH1 0xA0 SHL SUB DUP5 AND PUSH0 SWAP1 DUP2 MSTORE PUSH1 0x1 PUSH1 0x20 DUP2 SWAP1 MSTORE PUSH1 0x40 SWAP1 SWAP2 KECCAK256 SLOAD SWAP1 SWAP3 POP PUSH1 0x2 DUP3 PUSH1 0x3 DUP2 LT PUSH2 0x26D JUMPI PUSH2 0x26D PUSH2 0x836 JUMP JUMPDEST PUSH1 0x2 MUL ADD PUSH1 0x1 ADD DUP2 SWAP1 SSTORE POP PUSH2 0x285 JUMP JUMPDEST PUSH1 0x1 ADD PUSH2 0x208 JUMP JUMPDEST POP DUP1 PUSH2 0x39C JUMPI PUSH1 0x3 SLOAD PUSH1 0x1 PUSH1 0x1 PUSH1 0xA0 SHL SUB DUP5 AND PUSH0 SWAP1 DUP2 MSTORE PUSH1 0x1 PUSH1 0x20 MSTORE PUSH1 0x40 SWAP1 KECCAK256 SLOAD GT ISZERO PUSH2 0x2EA JUMPI PUSH1 0x2 DUP1 SLOAD PUSH1 0x1 PUSH1 0x1 PUSH1 0xA0 SHL SUB NOT AND PUSH1 0x1 PUSH1 0x1 PUSH1 0xA0 SHL SUB DUP6 AND SWAP1 DUP2 OR DUP3 SSTORE PUSH0 SWAP1 DUP2 MSTORE PUSH1 0x1 PUSH1 0x20 MSTORE PUSH1 0x40 DUP2 KECCAK256 SLOAD SWAP2 SWAP1 JUMPDEST PUSH1 0x2 MUL ADD PUSH1 0x1 ADD DUP2 SWAP1 SSTORE POP PUSH2 0x394 JUMP JUMPDEST PUSH1 0x5 SLOAD PUSH1 0x1 PUSH1 0x1 PUSH1 0xA0 SHL SUB DUP5 AND PUSH0 SWAP1 DUP2 MSTORE PUSH1 0x1 PUSH1 0x20 MSTORE PUSH1 0x40 SWAP1 KECCAK256 SLOAD GT ISZERO PUSH2 0x343 JUMPI PUSH1 0x4 DUP1 SLOAD PUSH1 0x1 PUSH1 0x1 PUSH1 0xA0 SHL SUB NOT AND PUSH1 0x1 PUSH1 0x1 PUSH1 0xA0 SHL SUB DUP6 AND SWAP1 DUP2 OR SWAP1 SWAP2 SSTORE PUSH0 SWAP1 DUP2 MSTORE PUSH1 0x1 PUSH1 0x20 DUP2 SWAP1 MSTORE PUSH1 0x40 SWAP1 SWAP2 KECCAK256 SLOAD SWAP1 PUSH1 0x2 SWAP1 PUSH2 0x2DA JUMP JUMPDEST PUSH1 0x7 SLOAD PUSH1 0x1 PUSH1 0x1 PUSH1 0xA0 SHL SUB DUP5 AND PUSH0 SWAP1 DUP2 MSTORE PUSH1 0x1 PUSH1 0x20 MSTORE PUSH1 0x40 SWAP1 KECCAK256 SLOAD GT ISZERO PUSH2 0x394 JUMPI PUSH1 0x6 DUP1 SLOAD PUSH1 0x1 PUSH1 0x1 PUSH1 0xA0 SHL SUB NOT AND PUSH1 0x1 PUSH1 0x1 PUSH1 0xA0 SHL SUB DUP6 AND SWAP1 DUP2 OR SWAP1 SWAP2 SSTORE PUSH0 SWAP1 DUP2 MSTORE PUSH1 0x1 PUSH1 0x20 MSTORE PUSH1 0x40 SWAP1 KECCAK256 SLOAD PUSH1 0x7 SSTORE JUMPDEST PUSH2 0x39C PUSH2 0x537 JUMP JUMPDEST POP POP POP JUMP JUMPDEST PUSH2 0x3A9 PUSH2 0x718 JUMP JUMPDEST PUSH1 0x40 DUP1 MLOAD PUSH1 0x60 DUP2 ADD SWAP1 SWAP2 MSTORE PUSH1 0x2 PUSH1 0x3 PUSH0 DUP4 JUMPDEST DUP3 DUP3 LT ISZERO PUSH2 0x3FC JUMPI PUSH1 0x40 DUP1 MLOAD DUP1 DUP3 ADD SWAP1 SWAP2 MSTORE PUSH1 0x2 DUP4 MUL DUP6 ADD DUP1 SLOAD PUSH1 0x1 PUSH1 0x1 PUSH1 0xA0 SHL SUB AND DUP3 MSTORE PUSH1 0x1 SWAP1 DUP2 ADD SLOAD PUSH1 0x20 DUP1 DUP5 ADD SWAP2 SWAP1 SWAP2 MSTORE SWAP2 DUP4 MSTORE SWAP1 SWAP3 ADD SWAP2 ADD PUSH2 0x3BB JUMP JUMPDEST POP POP POP POP SWAP1 POP SWAP1 JUMP JUMPDEST PUSH0 DUP1 SLOAD PUSH1 0x1 PUSH1 0x1 PUSH1 0xA0 SHL SUB AND CALLER EQ PUSH2 0x451 JUMPI PUSH1 0x40 MLOAD PUSH3 0x461BCD PUSH1 0xE5 SHL DUP2 MSTORE PUSH1 0x20 PUSH1 0x4 DUP3 ADD MSTORE PUSH1 0xB PUSH1 0x24 DUP3 ADD MSTORE PUSH11 0x61646D696E2077726F6E67 PUSH1 0xA8 SHL PUSH1 0x44 DUP3 ADD MSTORE PUSH1 0x64 ADD PUSH1 0x40 MLOAD DUP1 SWAP2 SUB SWAP1 REVERT JUMPDEST PUSH0 DUP1 SLOAD PUSH1 0x40 MLOAD PUSH1 0x1 PUSH1 0x1 PUSH1 0xA0 SHL SUB SWAP1 SWAP2 AND SWAP2 SELFBALANCE DUP1 ISZERO PUSH2 0x8FC MUL SWAP3 SWAP1 SWAP2 DUP2 DUP2 DUP2 DUP6 DUP9 DUP9 CALL SWAP4 POP POP POP POP ISZERO DUP1 ISZERO PUSH2 0x488 JUMPI RETURNDATASIZE PUSH0 DUP1 RETURNDATACOPY RETURNDATASIZE PUSH0 REVERT JUMPDEST POP SELFBALANCE SWAP1 POP SWAP1 JUMP JUMPDEST PUSH1 0x2 DUP2 PUSH1 0x3 DUP2 LT PUSH2 0x49E JUMPI PUSH0 DUP1 REVERT JUMPDEST PUSH1 0x2 MUL ADD DUP1 SLOAD PUSH1 0x1 SWAP1 SWAP2 ADD SLOAD PUSH1 0x1 PUSH1 0x1 PUSH1 0xA0 SHL SUB SWAP1 SWAP2 AND SWAP2 POP DUP3 JUMP JUMPDEST PUSH0 DUP1 DUP1 DUP1 JUMPDEST PUSH1 0x3 DUP2 LT ISZERO PUSH2 0x525 JUMPI PUSH1 0x2 DUP2 PUSH1 0x3 DUP2 LT PUSH2 0x4DB JUMPI PUSH2 0x4DB PUSH2 0x836 JUMP JUMPDEST PUSH1 0x2 MUL ADD SLOAD PUSH1 0x1 PUSH1 0x1 PUSH1 0xA0 SHL SUB SWAP1 DUP2 AND SWAP1 DUP7 AND SUB PUSH2 0x51D JUMPI PUSH1 0x1 PUSH1 0x2 DUP3 PUSH1 0x3 DUP2 LT PUSH2 0x508 JUMPI PUSH2 0x508 PUSH2 0x836 JUMP JUMPDEST PUSH1 0x2 MUL ADD PUSH1 0x1 ADD SLOAD DUP3 SWAP4 POP SWAP4 POP SWAP4 POP POP PUSH2 0x530 JUMP JUMPDEST PUSH1 0x1 ADD PUSH2 0x4BF JUMP JUMPDEST POP PUSH0 DUP1 PUSH0 SWAP3 POP SWAP3 POP SWAP3 POP JUMPDEST SWAP2 SWAP4 SWAP1 SWAP3 POP JUMP JUMPDEST PUSH1 0x3 PUSH0 JUMPDEST PUSH2 0x546 PUSH1 0x1 DUP4 PUSH2 0x84A JUMP JUMPDEST DUP2 LT ISZERO PUSH2 0x6B1 JUMPI PUSH0 JUMPDEST DUP2 PUSH2 0x55B PUSH1 0x1 DUP6 PUSH2 0x84A JUMP JUMPDEST PUSH2 0x565 SWAP2 SWAP1 PUSH2 0x84A JUMP JUMPDEST DUP2 LT ISZERO PUSH2 0x6A8 JUMPI PUSH0 DUP1 PUSH2 0x5FC PUSH1 0x2 DUP5 PUSH1 0x3 DUP2 LT PUSH2 0x584 JUMPI PUSH2 0x584 PUSH2 0x836 JUMP JUMPDEST PUSH1 0x40 DUP1 MLOAD DUP1 DUP3 ADD SWAP1 SWAP2 MSTORE PUSH1 0x2 SWAP2 DUP3 MUL SWAP3 SWAP1 SWAP3 ADD DUP1 SLOAD PUSH1 0x1 PUSH1 0x1 PUSH1 0xA0 SHL SUB AND DUP4 MSTORE PUSH1 0x1 SWAP1 DUP2 ADD SLOAD PUSH1 0x20 DUP5 ADD MSTORE PUSH2 0x5BA SWAP1 DUP8 SWAP1 PUSH2 0x823 JUMP JUMPDEST PUSH1 0x3 DUP2 LT PUSH2 0x5CA JUMPI PUSH2 0x5CA PUSH2 0x836 JUMP JUMPDEST PUSH1 0x40 DUP1 MLOAD DUP1 DUP3 ADD SWAP1 SWAP2 MSTORE PUSH1 0x2 SWAP2 SWAP1 SWAP2 MUL SWAP2 SWAP1 SWAP2 ADD DUP1 SLOAD PUSH1 0x1 PUSH1 0x1 PUSH1 0xA0 SHL SUB AND DUP3 MSTORE PUSH1 0x1 ADD SLOAD PUSH1 0x20 DUP3 ADD MSTORE PUSH2 0x6B5 PUSH2 0x6BF JUMP JUMPDEST SWAP2 POP SWAP2 POP DUP2 PUSH1 0x2 DUP5 PUSH1 0x3 DUP2 LT PUSH2 0x614 JUMPI PUSH2 0x614 PUSH2 0x836 JUMP JUMPDEST DUP3 MLOAD PUSH1 0x2 SWAP2 DUP3 MUL SWAP3 SWAP1 SWAP3 ADD DUP1 SLOAD PUSH1 0x1 PUSH1 0x1 PUSH1 0xA0 SHL SUB NOT AND PUSH1 0x1 PUSH1 0x1 PUSH1 0xA0 SHL SUB SWAP1 SWAP4 AND SWAP3 SWAP1 SWAP3 OR DUP3 SSTORE PUSH1 0x20 SWAP1 SWAP3 ADD MLOAD PUSH1 0x1 SWAP2 DUP3 ADD SSTORE DUP3 SWAP2 SWAP1 PUSH2 0x656 SWAP1 DUP7 SWAP1 PUSH2 0x823 JUMP JUMPDEST PUSH1 0x3 DUP2 LT PUSH2 0x666 JUMPI PUSH2 0x666 PUSH2 0x836 JUMP JUMPDEST DUP3 MLOAD PUSH1 0x2 SWAP2 SWAP1 SWAP2 MUL SWAP2 SWAP1 SWAP2 ADD DUP1 SLOAD PUSH1 0x1 PUSH1 0x1 PUSH1 0xA0 SHL SUB NOT AND PUSH1 0x1 PUSH1 0x1 PUSH1 0xA0 SHL SUB SWAP1 SWAP3 AND SWAP2 SWAP1 SWAP2 OR DUP2 SSTORE PUSH1 0x20 SWAP1 SWAP2 ADD MLOAD PUSH1 0x1 SWAP2 DUP3 ADD SSTORE SWAP3 SWAP1 SWAP3 ADD SWAP2 POP PUSH2 0x54F SWAP1 POP JUMP JUMPDEST POP PUSH1 0x1 ADD PUSH2 0x53B JUMP JUMPDEST POP POP JUMP JUMPDEST DUP1 DUP3 GT JUMPDEST SWAP3 SWAP2 POP POP JUMP JUMPDEST PUSH1 0x40 DUP1 MLOAD DUP1 DUP3 ADD SWAP1 SWAP2 MSTORE PUSH0 DUP1 DUP3 MSTORE PUSH1 0x20 DUP3 ADD MSTORE PUSH1 0x40 DUP1 MLOAD DUP1 DUP3 ADD SWAP1 SWAP2 MSTORE PUSH0 DUP1 DUP3 MSTORE PUSH1 0x20 DUP3 ADD MSTORE PUSH2 0x6FB DUP6 PUSH1 0x20 ADD MLOAD DUP6 PUSH1 0x20 ADD MLOAD DUP6 PUSH4 0xFFFFFFFF AND JUMP JUMPDEST ISZERO PUSH2 0x70A JUMPI POP DUP3 SWAP1 POP DUP4 PUSH2 0x710 JUMP JUMPDEST POP DUP4 SWAP1 POP DUP3 JUMPDEST SWAP4 POP SWAP4 SWAP2 POP POP JUMP JUMPDEST PUSH1 0x40 MLOAD DUP1 PUSH1 0x60 ADD PUSH1 0x40 MSTORE DUP1 PUSH1 0x3 SWAP1 JUMPDEST PUSH1 0x40 DUP1 MLOAD DUP1 DUP3 ADD SWAP1 SWAP2 MSTORE PUSH0 DUP1 DUP3 MSTORE PUSH1 0x20 DUP3 ADD MSTORE DUP2 MSTORE PUSH1 0x20 ADD SWAP1 PUSH1 0x1 SWAP1 SUB SWAP1 DUP2 PUSH2 0x727 JUMPI SWAP1 POP POP SWAP1 JUMP JUMPDEST DUP1 CALLDATALOAD PUSH1 0x1 PUSH1 0x1 PUSH1 0xA0 SHL SUB DUP2 AND DUP2 EQ PUSH2 0x766 JUMPI PUSH0 DUP1 REVERT JUMPDEST SWAP2 SWAP1 POP JUMP JUMPDEST PUSH0 PUSH1 0x20 DUP3 DUP5 SUB SLT ISZERO PUSH2 0x77B JUMPI PUSH0 DUP1 REVERT JUMPDEST PUSH2 0x784 DUP3 PUSH2 0x750 JUMP JUMPDEST SWAP4 SWAP3 POP POP POP JUMP JUMPDEST PUSH1 0xC0 DUP2 ADD DUP2 DUP4 PUSH0 JUMPDEST PUSH1 0x3 DUP2 LT ISZERO PUSH2 0x7C7 JUMPI DUP2 MLOAD DUP1 MLOAD PUSH1 0x1 PUSH1 0x1 PUSH1 0xA0 SHL SUB AND DUP5 MSTORE PUSH1 0x20 SWAP1 DUP2 ADD MLOAD DUP2 DUP6 ADD MSTORE PUSH1 0x40 SWAP1 SWAP4 ADD SWAP3 SWAP1 SWAP2 ADD SWAP1 PUSH1 0x1 ADD PUSH2 0x793 JUMP JUMPDEST POP POP POP SWAP3 SWAP2 POP POP JUMP JUMPDEST PUSH0 DUP1 PUSH1 0x40 DUP4 DUP6 SUB SLT ISZERO PUSH2 0x7E1 JUMPI PUSH0 DUP1 REVERT JUMPDEST PUSH2 0x7EA DUP4 PUSH2 0x750 JUMP JUMPDEST SWAP5 PUSH1 0x20 SWAP4 SWAP1 SWAP4 ADD CALLDATALOAD SWAP4 POP POP POP JUMP JUMPDEST PUSH0 PUSH1 0x20 DUP3 DUP5 SUB SLT ISZERO PUSH2 0x808 JUMPI PUSH0 DUP1 REVERT JUMPDEST POP CALLDATALOAD SWAP2 SWAP1 POP JUMP JUMPDEST PUSH4 0x4E487B71 PUSH1 0xE0 SHL PUSH0 MSTORE PUSH1 0x11 PUSH1 0x4 MSTORE PUSH1 0x24 PUSH0 REVERT JUMPDEST DUP1 DUP3 ADD DUP1 DUP3 GT ISZERO PUSH2 0x6B9 JUMPI PUSH2 0x6B9 PUSH2 0x80F JUMP JUMPDEST PUSH4 0x4E487B71 PUSH1 0xE0 SHL PUSH0 MSTORE PUSH1 0x32 PUSH1 0x4 MSTORE PUSH1 0x24 PUSH0 REVERT JUMPDEST DUP2 DUP2 SUB DUP2 DUP2 GT ISZERO PUSH2 0x6B9 JUMPI PUSH2 0x6B9 PUSH2 0x80F JUMP INVALID LOG2 PUSH5 0x6970667358 0x22 SLT KECCAK256 0xBD RETURNDATACOPY 0xEC SLT 0xAF SHL PUSH5 0x9EBE844025 PUSH27 0xE98F4146D3E31085816D30D16A17506045182964736F6C63430008 BYTE STOP CALLER "
				},
				"gasEstimates": {
					"creation": {
						"codeDepositCost": "439000",
						"executionCost": "infinite",
						"totalCost": "infinite"
					},
					"external": {
						"admin()": "2401",
						"balances(address)": "2506",
						"checkUserInTopUsers(address)": "infinite",
						"deposit(address,uint256)": "infinite",
						"getRankings()": "infinite",
						"topUsers(uint256)": "4630",
						"withdraw()": "infinite"
					},
					"internal": {
						"bubbleSort()": "infinite",
						"compare(uint256,uint256)": "29",
						"rightBigger(struct Bank.RankingStruct memory,struct Bank.RankingStruct memory,function (uint256,uint256) pure returns (bool))": "infinite"
					}
				},
				"methodIdentifiers": {
					"admin()": "f851a440",
					"balances(address)": "27e235e3",
					"checkUserInTopUsers(address)": "b5fc70f7",
					"deposit(address,uint256)": "47e7ef24",
					"getRankings()": "2c83b4b2",
					"topUsers(uint256)": "689dbf4e",
					"withdraw()": "3ccfd60b"
				}
			},
			"storageLayout": {
				"storage": [
					{
						"astId": 11,
						"contract": "bank.sol:Bank",
						"label": "admin",
						"offset": 0,
						"slot": "0",
						"type": "t_address_payable"
					},
					{
						"astId": 15,
						"contract": "bank.sol:Bank",
						"label": "balances",
						"offset": 0,
						"slot": "1",
						"type": "t_mapping(t_address,t_uint256)"
					},
					{
						"astId": 20,
						"contract": "bank.sol:Bank",
						"label": "topUsers",
						"offset": 0,
						"slot": "2",
						"type": "t_array(t_struct(RankingStruct)25_storage)3_storage"
					}
				],
				"types": {
					"t_address": {
						"encoding": "inplace",
						"label": "address",
						"numberOfBytes": "20"
					},
					"t_address_payable": {
						"encoding": "inplace",
						"label": "address payable",
						"numberOfBytes": "20"
					},
					"t_array(t_struct(RankingStruct)25_storage)3_storage": {
						"base": "t_struct(RankingStruct)25_storage",
						"encoding": "inplace",
						"label": "struct Bank.RankingStruct[3]",
						"numberOfBytes": "192"
					},
					"t_mapping(t_address,t_uint256)": {
						"encoding": "mapping",
						"key": "t_address",
						"label": "mapping(address => uint256)",
						"numberOfBytes": "32",
						"value": "t_uint256"
					},
					"t_struct(RankingStruct)25_storage": {
						"encoding": "inplace",
						"label": "struct Bank.RankingStruct",
						"members": [
							{
								"astId": 22,
								"contract": "bank.sol:Bank",
								"label": "addr",
								"offset": 0,
								"slot": "0",
								"type": "t_address"
							},
							{
								"astId": 24,
								"contract": "bank.sol:Bank",
								"label": "balance",
								"offset": 0,
								"slot": "1",
								"type": "t_uint256"
							}
						],
						"numberOfBytes": "64"
					},
					"t_uint256": {
						"encoding": "inplace",
						"label": "uint256",
						"numberOfBytes": "32"
					}
				}
			},
			"userdoc": {
				"kind": "user",
				"methods": {},
				"version": 1
			}
		}
	}
}