{
	"multiwallet.sol": {
		"MultiSigWallet": {
			"abi": [
				{
					"inputs": [
						{
							"internalType": "address[]",
							"name": "_owners",
							"type": "address[]"
						},
						{
							"internalType": "uint256",
							"name": "_threshold",
							"type": "uint256"
						}
					],
					"stateMutability": "nonpayable",
					"type": "constructor"
				},
				{
					"inputs": [
						{
							"internalType": "uint256",
							"name": "_proposalId",
							"type": "uint256"
						}
					],
					"name": "confirmProposal",
					"outputs": [],
					"stateMutability": "nonpayable",
					"type": "function"
				},
				{
					"inputs": [
						{
							"internalType": "address",
							"name": "",
							"type": "address"
						},
						{
							"internalType": "uint256",
							"name": "",
							"type": "uint256"
						}
					],
					"name": "confirmations",
					"outputs": [
						{
							"internalType": "bool",
							"name": "",
							"type": "bool"
						}
					],
					"stateMutability": "view",
					"type": "function"
				},
				{
					"inputs": [],
					"name": "getBalance",
					"outputs": [
						{
							"internalType": "uint256",
							"name": "",
							"type": "uint256"
						}
					],
					"stateMutability": "view",
					"type": "function"
				},
				{
					"inputs": [],
					"name": "getProposalCount",
					"outputs": [
						{
							"internalType": "uint256",
							"name": "",
							"type": "uint256"
						}
					],
					"stateMutability": "view",
					"type": "function"
				},
				{
					"inputs": [
						{
							"internalType": "uint256",
							"name": "",
							"type": "uint256"
						}
					],
					"name": "owners",
					"outputs": [
						{
							"internalType": "address",
							"name": "",
							"type": "address"
						}
					],
					"stateMutability": "view",
					"type": "function"
				},
				{
					"inputs": [
						{
							"internalType": "uint256",
							"name": "",
							"type": "uint256"
						}
					],
					"name": "proposals",
					"outputs": [
						{
							"internalType": "address",
							"name": "recipient",
							"type": "address"
						},
						{
							"internalType": "uint256",
							"name": "amount",
							"type": "uint256"
						},
						{
							"internalType": "bytes",
							"name": "data",
							"type": "bytes"
						},
						{
							"internalType": "uint256",
							"name": "confirmations",
							"type": "uint256"
						},
						{
							"internalType": "bool",
							"name": "executed",
							"type": "bool"
						}
					],
					"stateMutability": "view",
					"type": "function"
				},
				{
					"inputs": [
						{
							"internalType": "address",
							"name": "_recipient",
							"type": "address"
						},
						{
							"internalType": "uint256",
							"name": "_amount",
							"type": "uint256"
						},
						{
							"internalType": "bytes",
							"name": "_data",
							"type": "bytes"
						}
					],
					"name": "submitProposal",
					"outputs": [],
					"stateMutability": "nonpayable",
					"type": "function"
				},
				{
					"inputs": [],
					"name": "threshold",
					"outputs": [
						{
							"internalType": "uint256",
							"name": "",
							"type": "uint256"
						}
					],
					"stateMutability": "view",
					"type": "function"
				},
				{
					"stateMutability": "payable",
					"type": "receive"
				}
			],
			"devdoc": {
				"kind": "dev",
				"methods": {},
				"version": 1
			},
			"evm": {
				"assembly": "    /* \"multiwallet.sol\":60:3010  contract MultiSigWallet {... */\n  mstore(0x40, 0x80)\n    /* \"multiwallet.sol\":1149:1430  constructor(address[] memory _owners, uint _threshold) {... */\n  callvalue\n  dup1\n  iszero\n  tag_1\n  jumpi\n  0x00\n  dup1\n  revert\ntag_1:\n  pop\n  mload(0x40)\n  sub(codesize, bytecodeSize)\n  dup1\n  bytecodeSize\n  dup4\n  codecopy\n  dup2\n  dup2\n  add\n  0x40\n  mstore\n  dup2\n  add\n  swap1\n  tag_2\n  swap2\n  swap1\n  tag_3\n  jump\t// in\ntag_2:\n    /* \"multiwallet.sol\":1240:1241  0 */\n  0x00\n    /* \"multiwallet.sol\":1223:1230  _owners */\n  dup3\n    /* \"multiwallet.sol\":1223:1237  _owners.length */\n  mload\n    /* \"multiwallet.sol\":1223:1241  _owners.length > 0 */\n  gt\n    /* \"multiwallet.sol\":1215:1273  require(_owners.length > 0, \"At least one owner required\") */\n  tag_6\n  jumpi\n  mload(0x40)\n  0x08c379a000000000000000000000000000000000000000000000000000000000\n  dup2\n  mstore\n  0x04\n  add\n  tag_7\n  swap1\n  tag_8\n  jump\t// in\ntag_7:\n  mload(0x40)\n  dup1\n  swap2\n  sub\n  swap1\n  revert\ntag_6:\n    /* \"multiwallet.sol\":1305:1306  0 */\n  0x00\n    /* \"multiwallet.sol\":1292:1302  _threshold */\n  dup2\n    /* \"multiwallet.sol\":1292:1306  _threshold > 0 */\n  gt\n    /* \"multiwallet.sol\":1292:1338  _threshold > 0 && _threshold <= _owners.length */\n  dup1\n  iszero\n  tag_9\n  jumpi\n  pop\n    /* \"multiwallet.sol\":1324:1331  _owners */\n  dup2\n    /* \"multiwallet.sol\":1324:1338  _owners.length */\n  mload\n    /* \"multiwallet.sol\":1310:1320  _threshold */\n  dup2\n    /* \"multiwallet.sol\":1310:1338  _threshold <= _owners.length */\n  gt\n  iszero\n    /* \"multiwallet.sol\":1292:1338  _threshold > 0 && _threshold <= _owners.length */\ntag_9:\n    /* \"multiwallet.sol\":1284:1360  require(_threshold > 0 && _threshold <= _owners.length, \"Invalid threshold\") */\n  tag_10\n  jumpi\n  mload(0x40)\n  0x08c379a000000000000000000000000000000000000000000000000000000000\n  dup2\n  mstore\n  0x04\n  add\n  tag_11\n  swap1\n  tag_12\n  jump\t// in\ntag_11:\n  mload(0x40)\n  dup1\n  swap2\n  sub\n  swap1\n  revert\ntag_10:\n    /* \"multiwallet.sol\":1382:1389  _owners */\n  dup2\n    /* \"multiwallet.sol\":1373:1379  owners */\n  0x00\n    /* \"multiwallet.sol\":1373:1389  owners = _owners */\n  swap1\n  dup1\n  mload\n  swap1\n  0x20\n  add\n  swap1\n  tag_13\n  swap3\n  swap2\n  swap1\n  tag_14\n  jump\t// in\ntag_13:\n  pop\n    /* \"multiwallet.sol\":1412:1422  _threshold */\n  dup1\n    /* \"multiwallet.sol\":1400:1409  threshold */\n  0x01\n    /* \"multiwallet.sol\":1400:1422  threshold = _threshold */\n  dup2\n  swap1\n  sstore\n  pop\n    /* \"multiwallet.sol\":1149:1430  constructor(address[] memory _owners, uint _threshold) {... */\n  pop\n  pop\n    /* \"multiwallet.sol\":60:3010  contract MultiSigWallet {... */\n  jump(tag_15)\ntag_14:\n  dup3\n  dup1\n  sload\n  dup3\n  dup3\n  sstore\n  swap1\n  0x00\n  mstore\n  keccak256(0x00, 0x20)\n  swap1\n  dup2\n  add\n  swap3\n  dup3\n  iszero\n  tag_16\n  jumpi\n  swap2\n  0x20\n  mul\n  dup3\n  add\ntag_17:\n  dup3\n  dup2\n  gt\n  iszero\n  tag_18\n  jumpi\n  dup3\n  mload\n  dup3\n  exp(0x0100, 0x00)\n  dup2\n  sload\n  dup2\n  0xffffffffffffffffffffffffffffffffffffffff\n  mul\n  not\n  and\n  swap1\n  dup4\n  0xffffffffffffffffffffffffffffffffffffffff\n  and\n  mul\n  or\n  swap1\n  sstore\n  pop\n  swap2\n  0x20\n  add\n  swap2\n  swap1\n  0x01\n  add\n  swap1\n  jump(tag_17)\ntag_18:\ntag_16:\n  pop\n  swap1\n  pop\n  tag_19\n  swap2\n  swap1\n  tag_20\n  jump\t// in\ntag_19:\n  pop\n  swap1\n  jump\t// out\ntag_20:\ntag_21:\n  dup1\n  dup3\n  gt\n  iszero\n  tag_22\n  jumpi\n  0x00\n  dup2\n  0x00\n  swap1\n  sstore\n  pop\n  0x01\n  add\n  jump(tag_21)\ntag_22:\n  pop\n  swap1\n  jump\t// out\n    /* \"#utility.yul\":7:82   */\ntag_23:\n    /* \"#utility.yul\":40:46   */\n  0x00\n    /* \"#utility.yul\":73:75   */\n  0x40\n    /* \"#utility.yul\":67:76   */\n  mload\n    /* \"#utility.yul\":57:76   */\n  swap1\n  pop\n    /* \"#utility.yul\":7:82   */\n  swap1\n  jump\t// out\n    /* \"#utility.yul\":88:205   */\ntag_24:\n    /* \"#utility.yul\":197:198   */\n  0x00\n    /* \"#utility.yul\":194:195   */\n  dup1\n    /* \"#utility.yul\":187:199   */\n  revert\n    /* \"#utility.yul\":211:328   */\ntag_25:\n    /* \"#utility.yul\":320:321   */\n  0x00\n    /* \"#utility.yul\":317:318   */\n  dup1\n    /* \"#utility.yul\":310:322   */\n  revert\n    /* \"#utility.yul\":334:451   */\ntag_26:\n    /* \"#utility.yul\":443:444   */\n  0x00\n    /* \"#utility.yul\":440:441   */\n  dup1\n    /* \"#utility.yul\":433:445   */\n  revert\n    /* \"#utility.yul\":457:559   */\ntag_27:\n    /* \"#utility.yul\":498:504   */\n  0x00\n    /* \"#utility.yul\":549:551   */\n  0x1f\n    /* \"#utility.yul\":545:552   */\n  not\n    /* \"#utility.yul\":540:542   */\n  0x1f\n    /* \"#utility.yul\":533:538   */\n  dup4\n    /* \"#utility.yul\":529:543   */\n  add\n    /* \"#utility.yul\":525:553   */\n  and\n    /* \"#utility.yul\":515:553   */\n  swap1\n  pop\n    /* \"#utility.yul\":457:559   */\n  swap2\n  swap1\n  pop\n  jump\t// out\n    /* \"#utility.yul\":565:745   */\ntag_28:\n    /* \"#utility.yul\":613:690   */\n  0x4e487b7100000000000000000000000000000000000000000000000000000000\n    /* \"#utility.yul\":610:611   */\n  0x00\n    /* \"#utility.yul\":603:691   */\n  mstore\n    /* \"#utility.yul\":710:714   */\n  0x41\n    /* \"#utility.yul\":707:708   */\n  0x04\n    /* \"#utility.yul\":700:715   */\n  mstore\n    /* \"#utility.yul\":734:738   */\n  0x24\n    /* \"#utility.yul\":731:732   */\n  0x00\n    /* \"#utility.yul\":724:739   */\n  revert\n    /* \"#utility.yul\":751:1032   */\ntag_29:\n    /* \"#utility.yul\":834:861   */\n  tag_55\n    /* \"#utility.yul\":856:860   */\n  dup3\n    /* \"#utility.yul\":834:861   */\n  tag_27\n  jump\t// in\ntag_55:\n    /* \"#utility.yul\":826:832   */\n  dup2\n    /* \"#utility.yul\":822:862   */\n  add\n    /* \"#utility.yul\":964:970   */\n  dup2\n    /* \"#utility.yul\":952:962   */\n  dup2\n    /* \"#utility.yul\":949:971   */\n  lt\n    /* \"#utility.yul\":928:946   */\n  0xffffffffffffffff\n    /* \"#utility.yul\":916:926   */\n  dup3\n    /* \"#utility.yul\":913:947   */\n  gt\n    /* \"#utility.yul\":910:972   */\n  or\n    /* \"#utility.yul\":907:995   */\n  iszero\n  tag_56\n  jumpi\n    /* \"#utility.yul\":975:993   */\n  tag_57\n  tag_28\n  jump\t// in\ntag_57:\n    /* \"#utility.yul\":907:995   */\ntag_56:\n    /* \"#utility.yul\":1015:1025   */\n  dup1\n    /* \"#utility.yul\":1011:1013   */\n  0x40\n    /* \"#utility.yul\":1004:1026   */\n  mstore\n    /* \"#utility.yul\":794:1032   */\n  pop\n    /* \"#utility.yul\":751:1032   */\n  pop\n  pop\n  jump\t// out\n    /* \"#utility.yul\":1038:1167   */\ntag_30:\n    /* \"#utility.yul\":1072:1078   */\n  0x00\n    /* \"#utility.yul\":1099:1119   */\n  tag_59\n  tag_23\n  jump\t// in\ntag_59:\n    /* \"#utility.yul\":1089:1119   */\n  swap1\n  pop\n    /* \"#utility.yul\":1128:1161   */\n  tag_60\n    /* \"#utility.yul\":1156:1160   */\n  dup3\n    /* \"#utility.yul\":1148:1154   */\n  dup3\n    /* \"#utility.yul\":1128:1161   */\n  tag_29\n  jump\t// in\ntag_60:\n    /* \"#utility.yul\":1038:1167   */\n  swap2\n  swap1\n  pop\n  jump\t// out\n    /* \"#utility.yul\":1173:1484   */\ntag_31:\n    /* \"#utility.yul\":1250:1254   */\n  0x00\n    /* \"#utility.yul\":1340:1358   */\n  0xffffffffffffffff\n    /* \"#utility.yul\":1332:1338   */\n  dup3\n    /* \"#utility.yul\":1329:1359   */\n  gt\n    /* \"#utility.yul\":1326:1382   */\n  iszero\n  tag_62\n  jumpi\n    /* \"#utility.yul\":1362:1380   */\n  tag_63\n  tag_28\n  jump\t// in\ntag_63:\n    /* \"#utility.yul\":1326:1382   */\ntag_62:\n    /* \"#utility.yul\":1412:1416   */\n  0x20\n    /* \"#utility.yul\":1404:1410   */\n  dup3\n    /* \"#utility.yul\":1400:1417   */\n  mul\n    /* \"#utility.yul\":1392:1417   */\n  swap1\n  pop\n    /* \"#utility.yul\":1472:1476   */\n  0x20\n    /* \"#utility.yul\":1466:1470   */\n  dup2\n    /* \"#utility.yul\":1462:1477   */\n  add\n    /* \"#utility.yul\":1454:1477   */\n  swap1\n  pop\n    /* \"#utility.yul\":1173:1484   */\n  swap2\n  swap1\n  pop\n  jump\t// out\n    /* \"#utility.yul\":1490:1607   */\ntag_32:\n    /* \"#utility.yul\":1599:1600   */\n  0x00\n    /* \"#utility.yul\":1596:1597   */\n  dup1\n    /* \"#utility.yul\":1589:1601   */\n  revert\n    /* \"#utility.yul\":1613:1739   */\ntag_33:\n    /* \"#utility.yul\":1650:1657   */\n  0x00\n    /* \"#utility.yul\":1690:1732   */\n  0xffffffffffffffffffffffffffffffffffffffff\n    /* \"#utility.yul\":1683:1688   */\n  dup3\n    /* \"#utility.yul\":1679:1733   */\n  and\n    /* \"#utility.yul\":1668:1733   */\n  swap1\n  pop\n    /* \"#utility.yul\":1613:1739   */\n  swap2\n  swap1\n  pop\n  jump\t// out\n    /* \"#utility.yul\":1745:1841   */\ntag_34:\n    /* \"#utility.yul\":1782:1789   */\n  0x00\n    /* \"#utility.yul\":1811:1835   */\n  tag_67\n    /* \"#utility.yul\":1829:1834   */\n  dup3\n    /* \"#utility.yul\":1811:1835   */\n  tag_33\n  jump\t// in\ntag_67:\n    /* \"#utility.yul\":1800:1835   */\n  swap1\n  pop\n    /* \"#utility.yul\":1745:1841   */\n  swap2\n  swap1\n  pop\n  jump\t// out\n    /* \"#utility.yul\":1847:1969   */\ntag_35:\n    /* \"#utility.yul\":1920:1944   */\n  tag_69\n    /* \"#utility.yul\":1938:1943   */\n  dup2\n    /* \"#utility.yul\":1920:1944   */\n  tag_34\n  jump\t// in\ntag_69:\n    /* \"#utility.yul\":1913:1918   */\n  dup2\n    /* \"#utility.yul\":1910:1945   */\n  eq\n    /* \"#utility.yul\":1900:1963   */\n  tag_70\n  jumpi\n    /* \"#utility.yul\":1959:1960   */\n  0x00\n    /* \"#utility.yul\":1956:1957   */\n  dup1\n    /* \"#utility.yul\":1949:1961   */\n  revert\n    /* \"#utility.yul\":1900:1963   */\ntag_70:\n    /* \"#utility.yul\":1847:1969   */\n  pop\n  jump\t// out\n    /* \"#utility.yul\":1975:2118   */\ntag_36:\n    /* \"#utility.yul\":2032:2037   */\n  0x00\n    /* \"#utility.yul\":2063:2069   */\n  dup2\n    /* \"#utility.yul\":2057:2070   */\n  mload\n    /* \"#utility.yul\":2048:2070   */\n  swap1\n  pop\n    /* \"#utility.yul\":2079:2112   */\n  tag_72\n    /* \"#utility.yul\":2106:2111   */\n  dup2\n    /* \"#utility.yul\":2079:2112   */\n  tag_35\n  jump\t// in\ntag_72:\n    /* \"#utility.yul\":1975:2118   */\n  swap3\n  swap2\n  pop\n  pop\n  jump\t// out\n    /* \"#utility.yul\":2141:2873   */\ntag_37:\n    /* \"#utility.yul\":2248:2253   */\n  0x00\n    /* \"#utility.yul\":2273:2354   */\n  tag_74\n    /* \"#utility.yul\":2289:2353   */\n  tag_75\n    /* \"#utility.yul\":2346:2352   */\n  dup5\n    /* \"#utility.yul\":2289:2353   */\n  tag_31\n  jump\t// in\ntag_75:\n    /* \"#utility.yul\":2273:2354   */\n  tag_30\n  jump\t// in\ntag_74:\n    /* \"#utility.yul\":2264:2354   */\n  swap1\n  pop\n    /* \"#utility.yul\":2374:2379   */\n  dup1\n    /* \"#utility.yul\":2403:2409   */\n  dup4\n    /* \"#utility.yul\":2396:2401   */\n  dup3\n    /* \"#utility.yul\":2389:2410   */\n  mstore\n    /* \"#utility.yul\":2437:2441   */\n  0x20\n    /* \"#utility.yul\":2430:2435   */\n  dup3\n    /* \"#utility.yul\":2426:2442   */\n  add\n    /* \"#utility.yul\":2419:2442   */\n  swap1\n  pop\n    /* \"#utility.yul\":2490:2494   */\n  0x20\n    /* \"#utility.yul\":2482:2488   */\n  dup5\n    /* \"#utility.yul\":2478:2495   */\n  mul\n    /* \"#utility.yul\":2470:2476   */\n  dup4\n    /* \"#utility.yul\":2466:2496   */\n  add\n    /* \"#utility.yul\":2519:2522   */\n  dup6\n    /* \"#utility.yul\":2511:2517   */\n  dup2\n    /* \"#utility.yul\":2508:2523   */\n  gt\n    /* \"#utility.yul\":2505:2627   */\n  iszero\n  tag_76\n  jumpi\n    /* \"#utility.yul\":2538:2617   */\n  tag_77\n  tag_32\n  jump\t// in\ntag_77:\n    /* \"#utility.yul\":2505:2627   */\ntag_76:\n    /* \"#utility.yul\":2653:2659   */\n  dup4\n    /* \"#utility.yul\":2636:2867   */\ntag_78:\n    /* \"#utility.yul\":2670:2676   */\n  dup2\n    /* \"#utility.yul\":2665:2668   */\n  dup2\n    /* \"#utility.yul\":2662:2677   */\n  lt\n    /* \"#utility.yul\":2636:2867   */\n  iszero\n  tag_80\n  jumpi\n    /* \"#utility.yul\":2745:2748   */\n  dup1\n    /* \"#utility.yul\":2774:2822   */\n  tag_81\n    /* \"#utility.yul\":2818:2821   */\n  dup9\n    /* \"#utility.yul\":2806:2816   */\n  dup3\n    /* \"#utility.yul\":2774:2822   */\n  tag_36\n  jump\t// in\ntag_81:\n    /* \"#utility.yul\":2769:2772   */\n  dup5\n    /* \"#utility.yul\":2762:2823   */\n  mstore\n    /* \"#utility.yul\":2852:2856   */\n  0x20\n    /* \"#utility.yul\":2847:2850   */\n  dup5\n    /* \"#utility.yul\":2843:2857   */\n  add\n    /* \"#utility.yul\":2836:2857   */\n  swap4\n  pop\n    /* \"#utility.yul\":2712:2867   */\n  pop\n    /* \"#utility.yul\":2696:2700   */\n  0x20\n    /* \"#utility.yul\":2691:2694   */\n  dup2\n    /* \"#utility.yul\":2687:2701   */\n  add\n    /* \"#utility.yul\":2680:2701   */\n  swap1\n  pop\n    /* \"#utility.yul\":2636:2867   */\n  jump(tag_78)\ntag_80:\n    /* \"#utility.yul\":2640:2661   */\n  pop\n    /* \"#utility.yul\":2254:2873   */\n  pop\n  pop\n    /* \"#utility.yul\":2141:2873   */\n  swap4\n  swap3\n  pop\n  pop\n  pop\n  jump\t// out\n    /* \"#utility.yul\":2896:3281   */\ntag_38:\n    /* \"#utility.yul\":2978:2983   */\n  0x00\n    /* \"#utility.yul\":3027:3030   */\n  dup3\n    /* \"#utility.yul\":3020:3024   */\n  0x1f\n    /* \"#utility.yul\":3012:3018   */\n  dup4\n    /* \"#utility.yul\":3008:3025   */\n  add\n    /* \"#utility.yul\":3004:3031   */\n  slt\n    /* \"#utility.yul\":2994:3116   */\n  tag_83\n  jumpi\n    /* \"#utility.yul\":3035:3114   */\n  tag_84\n  tag_26\n  jump\t// in\ntag_84:\n    /* \"#utility.yul\":2994:3116   */\ntag_83:\n    /* \"#utility.yul\":3145:3151   */\n  dup2\n    /* \"#utility.yul\":3139:3152   */\n  mload\n    /* \"#utility.yul\":3170:3275   */\n  tag_85\n    /* \"#utility.yul\":3271:3274   */\n  dup5\n    /* \"#utility.yul\":3263:3269   */\n  dup3\n    /* \"#utility.yul\":3256:3260   */\n  0x20\n    /* \"#utility.yul\":3248:3254   */\n  dup7\n    /* \"#utility.yul\":3244:3261   */\n  add\n    /* \"#utility.yul\":3170:3275   */\n  tag_37\n  jump\t// in\ntag_85:\n    /* \"#utility.yul\":3161:3275   */\n  swap2\n  pop\n    /* \"#utility.yul\":2984:3281   */\n  pop\n    /* \"#utility.yul\":2896:3281   */\n  swap3\n  swap2\n  pop\n  pop\n  jump\t// out\n    /* \"#utility.yul\":3287:3364   */\ntag_39:\n    /* \"#utility.yul\":3324:3331   */\n  0x00\n    /* \"#utility.yul\":3353:3358   */\n  dup2\n    /* \"#utility.yul\":3342:3358   */\n  swap1\n  pop\n    /* \"#utility.yul\":3287:3364   */\n  swap2\n  swap1\n  pop\n  jump\t// out\n    /* \"#utility.yul\":3370:3492   */\ntag_40:\n    /* \"#utility.yul\":3443:3467   */\n  tag_88\n    /* \"#utility.yul\":3461:3466   */\n  dup2\n    /* \"#utility.yul\":3443:3467   */\n  tag_39\n  jump\t// in\ntag_88:\n    /* \"#utility.yul\":3436:3441   */\n  dup2\n    /* \"#utility.yul\":3433:3468   */\n  eq\n    /* \"#utility.yul\":3423:3486   */\n  tag_89\n  jumpi\n    /* \"#utility.yul\":3482:3483   */\n  0x00\n    /* \"#utility.yul\":3479:3480   */\n  dup1\n    /* \"#utility.yul\":3472:3484   */\n  revert\n    /* \"#utility.yul\":3423:3486   */\ntag_89:\n    /* \"#utility.yul\":3370:3492   */\n  pop\n  jump\t// out\n    /* \"#utility.yul\":3498:3641   */\ntag_41:\n    /* \"#utility.yul\":3555:3560   */\n  0x00\n    /* \"#utility.yul\":3586:3592   */\n  dup2\n    /* \"#utility.yul\":3580:3593   */\n  mload\n    /* \"#utility.yul\":3571:3593   */\n  swap1\n  pop\n    /* \"#utility.yul\":3602:3635   */\n  tag_91\n    /* \"#utility.yul\":3629:3634   */\n  dup2\n    /* \"#utility.yul\":3602:3635   */\n  tag_40\n  jump\t// in\ntag_91:\n    /* \"#utility.yul\":3498:3641   */\n  swap3\n  swap2\n  pop\n  pop\n  jump\t// out\n    /* \"#utility.yul\":3647:4357   */\ntag_3:\n    /* \"#utility.yul\":3751:3757   */\n  0x00\n    /* \"#utility.yul\":3759:3765   */\n  dup1\n    /* \"#utility.yul\":3808:3810   */\n  0x40\n    /* \"#utility.yul\":3796:3805   */\n  dup4\n    /* \"#utility.yul\":3787:3794   */\n  dup6\n    /* \"#utility.yul\":3783:3806   */\n  sub\n    /* \"#utility.yul\":3779:3811   */\n  slt\n    /* \"#utility.yul\":3776:3895   */\n  iszero\n  tag_93\n  jumpi\n    /* \"#utility.yul\":3814:3893   */\n  tag_94\n  tag_24\n  jump\t// in\ntag_94:\n    /* \"#utility.yul\":3776:3895   */\ntag_93:\n    /* \"#utility.yul\":3955:3956   */\n  0x00\n    /* \"#utility.yul\":3944:3953   */\n  dup4\n    /* \"#utility.yul\":3940:3957   */\n  add\n    /* \"#utility.yul\":3934:3958   */\n  mload\n    /* \"#utility.yul\":3985:4003   */\n  0xffffffffffffffff\n    /* \"#utility.yul\":3977:3983   */\n  dup2\n    /* \"#utility.yul\":3974:4004   */\n  gt\n    /* \"#utility.yul\":3971:4088   */\n  iszero\n  tag_95\n  jumpi\n    /* \"#utility.yul\":4007:4086   */\n  tag_96\n  tag_25\n  jump\t// in\ntag_96:\n    /* \"#utility.yul\":3971:4088   */\ntag_95:\n    /* \"#utility.yul\":4112:4201   */\n  tag_97\n    /* \"#utility.yul\":4193:4200   */\n  dup6\n    /* \"#utility.yul\":4184:4190   */\n  dup3\n    /* \"#utility.yul\":4173:4182   */\n  dup7\n    /* \"#utility.yul\":4169:4191   */\n  add\n    /* \"#utility.yul\":4112:4201   */\n  tag_38\n  jump\t// in\ntag_97:\n    /* \"#utility.yul\":4102:4201   */\n  swap3\n  pop\n    /* \"#utility.yul\":3905:4211   */\n  pop\n    /* \"#utility.yul\":4250:4252   */\n  0x20\n    /* \"#utility.yul\":4276:4340   */\n  tag_98\n    /* \"#utility.yul\":4332:4339   */\n  dup6\n    /* \"#utility.yul\":4323:4329   */\n  dup3\n    /* \"#utility.yul\":4312:4321   */\n  dup7\n    /* \"#utility.yul\":4308:4330   */\n  add\n    /* \"#utility.yul\":4276:4340   */\n  tag_41\n  jump\t// in\ntag_98:\n    /* \"#utility.yul\":4266:4340   */\n  swap2\n  pop\n    /* \"#utility.yul\":4221:4350   */\n  pop\n    /* \"#utility.yul\":3647:4357   */\n  swap3\n  pop\n  swap3\n  swap1\n  pop\n  jump\t// out\n    /* \"#utility.yul\":4363:4532   */\ntag_42:\n    /* \"#utility.yul\":4447:4458   */\n  0x00\n    /* \"#utility.yul\":4481:4487   */\n  dup3\n    /* \"#utility.yul\":4476:4479   */\n  dup3\n    /* \"#utility.yul\":4469:4488   */\n  mstore\n    /* \"#utility.yul\":4521:4525   */\n  0x20\n    /* \"#utility.yul\":4516:4519   */\n  dup3\n    /* \"#utility.yul\":4512:4526   */\n  add\n    /* \"#utility.yul\":4497:4526   */\n  swap1\n  pop\n    /* \"#utility.yul\":4363:4532   */\n  swap3\n  swap2\n  pop\n  pop\n  jump\t// out\n    /* \"#utility.yul\":4538:4715   */\ntag_43:\n    /* \"#utility.yul\":4678:4707   */\n  0x4174206c65617374206f6e65206f776e65722072657175697265640000000000\n    /* \"#utility.yul\":4674:4675   */\n  0x00\n    /* \"#utility.yul\":4666:4672   */\n  dup3\n    /* \"#utility.yul\":4662:4676   */\n  add\n    /* \"#utility.yul\":4655:4708   */\n  mstore\n    /* \"#utility.yul\":4538:4715   */\n  pop\n  jump\t// out\n    /* \"#utility.yul\":4721:5087   */\ntag_44:\n    /* \"#utility.yul\":4863:4866   */\n  0x00\n    /* \"#utility.yul\":4884:4951   */\n  tag_102\n    /* \"#utility.yul\":4948:4950   */\n  0x1b\n    /* \"#utility.yul\":4943:4946   */\n  dup4\n    /* \"#utility.yul\":4884:4951   */\n  tag_42\n  jump\t// in\ntag_102:\n    /* \"#utility.yul\":4877:4951   */\n  swap2\n  pop\n    /* \"#utility.yul\":4960:5053   */\n  tag_103\n    /* \"#utility.yul\":5049:5052   */\n  dup3\n    /* \"#utility.yul\":4960:5053   */\n  tag_43\n  jump\t// in\ntag_103:\n    /* \"#utility.yul\":5078:5080   */\n  0x20\n    /* \"#utility.yul\":5073:5076   */\n  dup3\n    /* \"#utility.yul\":5069:5081   */\n  add\n    /* \"#utility.yul\":5062:5081   */\n  swap1\n  pop\n    /* \"#utility.yul\":4721:5087   */\n  swap2\n  swap1\n  pop\n  jump\t// out\n    /* \"#utility.yul\":5093:5512   */\ntag_8:\n    /* \"#utility.yul\":5259:5263   */\n  0x00\n    /* \"#utility.yul\":5297:5299   */\n  0x20\n    /* \"#utility.yul\":5286:5295   */\n  dup3\n    /* \"#utility.yul\":5282:5300   */\n  add\n    /* \"#utility.yul\":5274:5300   */\n  swap1\n  pop\n    /* \"#utility.yul\":5346:5355   */\n  dup2\n    /* \"#utility.yul\":5340:5344   */\n  dup2\n    /* \"#utility.yul\":5336:5356   */\n  sub\n    /* \"#utility.yul\":5332:5333   */\n  0x00\n    /* \"#utility.yul\":5321:5330   */\n  dup4\n    /* \"#utility.yul\":5317:5334   */\n  add\n    /* \"#utility.yul\":5310:5357   */\n  mstore\n    /* \"#utility.yul\":5374:5505   */\n  tag_105\n    /* \"#utility.yul\":5500:5504   */\n  dup2\n    /* \"#utility.yul\":5374:5505   */\n  tag_44\n  jump\t// in\ntag_105:\n    /* \"#utility.yul\":5366:5505   */\n  swap1\n  pop\n    /* \"#utility.yul\":5093:5512   */\n  swap2\n  swap1\n  pop\n  jump\t// out\n    /* \"#utility.yul\":5518:5685   */\ntag_45:\n    /* \"#utility.yul\":5658:5677   */\n  0x496e76616c6964207468726573686f6c64000000000000000000000000000000\n    /* \"#utility.yul\":5654:5655   */\n  0x00\n    /* \"#utility.yul\":5646:5652   */\n  dup3\n    /* \"#utility.yul\":5642:5656   */\n  add\n    /* \"#utility.yul\":5635:5678   */\n  mstore\n    /* \"#utility.yul\":5518:5685   */\n  pop\n  jump\t// out\n    /* \"#utility.yul\":5691:6057   */\ntag_46:\n    /* \"#utility.yul\":5833:5836   */\n  0x00\n    /* \"#utility.yul\":5854:5921   */\n  tag_108\n    /* \"#utility.yul\":5918:5920   */\n  0x11\n    /* \"#utility.yul\":5913:5916   */\n  dup4\n    /* \"#utility.yul\":5854:5921   */\n  tag_42\n  jump\t// in\ntag_108:\n    /* \"#utility.yul\":5847:5921   */\n  swap2\n  pop\n    /* \"#utility.yul\":5930:6023   */\n  tag_109\n    /* \"#utility.yul\":6019:6022   */\n  dup3\n    /* \"#utility.yul\":5930:6023   */\n  tag_45\n  jump\t// in\ntag_109:\n    /* \"#utility.yul\":6048:6050   */\n  0x20\n    /* \"#utility.yul\":6043:6046   */\n  dup3\n    /* \"#utility.yul\":6039:6051   */\n  add\n    /* \"#utility.yul\":6032:6051   */\n  swap1\n  pop\n    /* \"#utility.yul\":5691:6057   */\n  swap2\n  swap1\n  pop\n  jump\t// out\n    /* \"#utility.yul\":6063:6482   */\ntag_12:\n    /* \"#utility.yul\":6229:6233   */\n  0x00\n    /* \"#utility.yul\":6267:6269   */\n  0x20\n    /* \"#utility.yul\":6256:6265   */\n  dup3\n    /* \"#utility.yul\":6252:6270   */\n  add\n    /* \"#utility.yul\":6244:6270   */\n  swap1\n  pop\n    /* \"#utility.yul\":6316:6325   */\n  dup2\n    /* \"#utility.yul\":6310:6314   */\n  dup2\n    /* \"#utility.yul\":6306:6326   */\n  sub\n    /* \"#utility.yul\":6302:6303   */\n  0x00\n    /* \"#utility.yul\":6291:6300   */\n  dup4\n    /* \"#utility.yul\":6287:6304   */\n  add\n    /* \"#utility.yul\":6280:6327   */\n  mstore\n    /* \"#utility.yul\":6344:6475   */\n  tag_111\n    /* \"#utility.yul\":6470:6474   */\n  dup2\n    /* \"#utility.yul\":6344:6475   */\n  tag_46\n  jump\t// in\ntag_111:\n    /* \"#utility.yul\":6336:6475   */\n  swap1\n  pop\n    /* \"#utility.yul\":6063:6482   */\n  swap2\n  swap1\n  pop\n  jump\t// out\n    /* \"multiwallet.sol\":60:3010  contract MultiSigWallet {... */\ntag_15:\n  dataSize(sub_0)\n  dup1\n  dataOffset(sub_0)\n  0x00\n  codecopy\n  0x00\n  return\nstop\n\nsub_0: assembly {\n        /* \"multiwallet.sol\":60:3010  contract MultiSigWallet {... */\n      mstore(0x40, 0x80)\n      jumpi(tag_1, lt(calldatasize, 0x04))\n      shr(0xe0, calldataload(0x00))\n      dup1\n      0x42cde4e8\n      gt\n      tag_11\n      jumpi\n      dup1\n      0x42cde4e8\n      eq\n      tag_7\n      jumpi\n      dup1\n      0xc08cc02d\n      eq\n      tag_8\n      jumpi\n      dup1\n      0xf4a4f4d2\n      eq\n      tag_9\n      jumpi\n      dup1\n      0xf84fd9ef\n      eq\n      tag_10\n      jumpi\n      jump(tag_2)\n    tag_11:\n      dup1\n      0x013cf08b\n      eq\n      tag_3\n      jumpi\n      dup1\n      0x025e7c27\n      eq\n      tag_4\n      jumpi\n      dup1\n      0x11d03015\n      eq\n      tag_5\n      jumpi\n      dup1\n      0x12065fe0\n      eq\n      tag_6\n      jumpi\n      jump(tag_2)\n    tag_1:\n      jumpi(tag_2, calldatasize)\n      stop\n    tag_2:\n      0x00\n      dup1\n      revert\n        /* \"multiwallet.sol\":400:427  Proposal[] public proposals */\n    tag_3:\n      callvalue\n      dup1\n      iszero\n      tag_14\n      jumpi\n      0x00\n      dup1\n      revert\n    tag_14:\n      pop\n      tag_15\n      0x04\n      dup1\n      calldatasize\n      sub\n      dup2\n      add\n      swap1\n      tag_16\n      swap2\n      swap1\n      tag_17\n      jump\t// in\n    tag_16:\n      tag_18\n      jump\t// in\n    tag_15:\n      mload(0x40)\n      tag_19\n      swap6\n      swap5\n      swap4\n      swap3\n      swap2\n      swap1\n      tag_20\n      jump\t// in\n    tag_19:\n      mload(0x40)\n      dup1\n      swap2\n      sub\n      swap1\n      return\n        /* \"multiwallet.sol\":91:114  address[] public owners */\n    tag_4:\n      callvalue\n      dup1\n      iszero\n      tag_21\n      jumpi\n      0x00\n      dup1\n      revert\n    tag_21:\n      pop\n      tag_22\n      0x04\n      dup1\n      calldatasize\n      sub\n      dup2\n      add\n      swap1\n      tag_23\n      swap2\n      swap1\n      tag_17\n      jump\t// in\n    tag_23:\n      tag_24\n      jump\t// in\n    tag_22:\n      mload(0x40)\n      tag_25\n      swap2\n      swap1\n      tag_26\n      jump\t// in\n    tag_25:\n      mload(0x40)\n      dup1\n      swap2\n      sub\n      swap1\n      return\n        /* \"multiwallet.sol\":1459:1763  function submitProposal(address _recipient, uint _amount, bytes memory _data) public onlyOwner {... */\n    tag_5:\n      callvalue\n      dup1\n      iszero\n      tag_27\n      jumpi\n      0x00\n      dup1\n      revert\n    tag_27:\n      pop\n      tag_28\n      0x04\n      dup1\n      calldatasize\n      sub\n      dup2\n      add\n      swap1\n      tag_29\n      swap2\n      swap1\n      tag_30\n      jump\t// in\n    tag_29:\n      tag_31\n      jump\t// in\n    tag_28:\n      stop\n        /* \"multiwallet.sol\":2850:2946  function getBalance() public view returns (uint) {... */\n    tag_6:\n      callvalue\n      dup1\n      iszero\n      tag_32\n      jumpi\n      0x00\n      dup1\n      revert\n    tag_32:\n      pop\n      tag_33\n      tag_34\n      jump\t// in\n    tag_33:\n      mload(0x40)\n      tag_35\n      swap2\n      swap1\n      tag_36\n      jump\t// in\n    tag_35:\n      mload(0x40)\n      dup1\n      swap2\n      sub\n      swap1\n      return\n        /* \"multiwallet.sol\":151:172  uint public threshold */\n    tag_7:\n      callvalue\n      dup1\n      iszero\n      tag_37\n      jumpi\n      0x00\n      dup1\n      revert\n    tag_37:\n      pop\n      tag_38\n      tag_39\n      jump\t// in\n    tag_38:\n      mload(0x40)\n      tag_40\n      swap2\n      swap1\n      tag_36\n      jump\t// in\n    tag_40:\n      mload(0x40)\n      dup1\n      swap2\n      sub\n      swap1\n      return\n        /* \"multiwallet.sol\":2718:2815  function getProposalCount() public view returns (uint) {... */\n    tag_8:\n      callvalue\n      dup1\n      iszero\n      tag_41\n      jumpi\n      0x00\n      dup1\n      revert\n    tag_41:\n      pop\n      tag_42\n      tag_43\n      jump\t// in\n    tag_42:\n      mload(0x40)\n      tag_44\n      swap2\n      swap1\n      tag_36\n      jump\t// in\n    tag_44:\n      mload(0x40)\n      dup1\n      swap2\n      sub\n      swap1\n      return\n        /* \"multiwallet.sol\":1792:2296  function confirmProposal(uint _proposalId) public onlyOwner proposalExists(_proposalId) notExecuted(_proposalId) {... */\n    tag_9:\n      callvalue\n      dup1\n      iszero\n      tag_45\n      jumpi\n      0x00\n      dup1\n      revert\n    tag_45:\n      pop\n      tag_46\n      0x04\n      dup1\n      calldatasize\n      sub\n      dup2\n      add\n      swap1\n      tag_47\n      swap2\n      swap1\n      tag_17\n      jump\t// in\n    tag_47:\n      tag_48\n      jump\t// in\n    tag_46:\n      stop\n        /* \"multiwallet.sol\":434:496  mapping(address => mapping(uint => bool)) public confirmations */\n    tag_10:\n      callvalue\n      dup1\n      iszero\n      tag_49\n      jumpi\n      0x00\n      dup1\n      revert\n    tag_49:\n      pop\n      tag_50\n      0x04\n      dup1\n      calldatasize\n      sub\n      dup2\n      add\n      swap1\n      tag_51\n      swap2\n      swap1\n      tag_52\n      jump\t// in\n    tag_51:\n      tag_53\n      jump\t// in\n    tag_50:\n      mload(0x40)\n      tag_54\n      swap2\n      swap1\n      tag_55\n      jump\t// in\n    tag_54:\n      mload(0x40)\n      dup1\n      swap2\n      sub\n      swap1\n      return\n        /* \"multiwallet.sol\":400:427  Proposal[] public proposals */\n    tag_18:\n      0x02\n      dup2\n      dup2\n      sload\n      dup2\n      lt\n      tag_56\n      jumpi\n      0x00\n      dup1\n      revert\n    tag_56:\n      swap1\n      0x00\n      mstore\n      keccak256(0x00, 0x20)\n      swap1\n      0x05\n      mul\n      add\n      0x00\n      swap2\n      pop\n      swap1\n      pop\n      dup1\n      0x00\n      add\n      0x00\n      swap1\n      sload\n      swap1\n      0x0100\n      exp\n      swap1\n      div\n      0xffffffffffffffffffffffffffffffffffffffff\n      and\n      swap1\n      dup1\n      0x01\n      add\n      sload\n      swap1\n      dup1\n      0x02\n      add\n      dup1\n      sload\n      tag_58\n      swap1\n      tag_59\n      jump\t// in\n    tag_58:\n      dup1\n      0x1f\n      add\n      0x20\n      dup1\n      swap2\n      div\n      mul\n      0x20\n      add\n      mload(0x40)\n      swap1\n      dup2\n      add\n      0x40\n      mstore\n      dup1\n      swap3\n      swap2\n      swap1\n      dup2\n      dup2\n      mstore\n      0x20\n      add\n      dup3\n      dup1\n      sload\n      tag_60\n      swap1\n      tag_59\n      jump\t// in\n    tag_60:\n      dup1\n      iszero\n      tag_61\n      jumpi\n      dup1\n      0x1f\n      lt\n      tag_62\n      jumpi\n      0x0100\n      dup1\n      dup4\n      sload\n      div\n      mul\n      dup4\n      mstore\n      swap2\n      0x20\n      add\n      swap2\n      jump(tag_61)\n    tag_62:\n      dup3\n      add\n      swap2\n      swap1\n      0x00\n      mstore\n      keccak256(0x00, 0x20)\n      swap1\n    tag_63:\n      dup2\n      sload\n      dup2\n      mstore\n      swap1\n      0x01\n      add\n      swap1\n      0x20\n      add\n      dup1\n      dup4\n      gt\n      tag_63\n      jumpi\n      dup3\n      swap1\n      sub\n      0x1f\n      and\n      dup3\n      add\n      swap2\n    tag_61:\n      pop\n      pop\n      pop\n      pop\n      pop\n      swap1\n      dup1\n      0x03\n      add\n      sload\n      swap1\n      dup1\n      0x04\n      add\n      0x00\n      swap1\n      sload\n      swap1\n      0x0100\n      exp\n      swap1\n      div\n      0xff\n      and\n      swap1\n      pop\n      dup6\n      jump\t// out\n        /* \"multiwallet.sol\":91:114  address[] public owners */\n    tag_24:\n      0x00\n      dup2\n      dup2\n      sload\n      dup2\n      lt\n      tag_64\n      jumpi\n      0x00\n      dup1\n      revert\n    tag_64:\n      swap1\n      0x00\n      mstore\n      keccak256(0x00, 0x20)\n      add\n      0x00\n      swap2\n      pop\n      sload\n      swap1\n      0x0100\n      exp\n      swap1\n      div\n      0xffffffffffffffffffffffffffffffffffffffff\n      and\n      dup2\n      jump\t// out\n        /* \"multiwallet.sol\":1459:1763  function submitProposal(address _recipient, uint _amount, bytes memory _data) public onlyOwner {... */\n    tag_31:\n        /* \"multiwallet.sol\":584:596  bool isOwner */\n      0x00\n        /* \"multiwallet.sol\":620:626  uint i */\n      dup1\n        /* \"multiwallet.sol\":615:784  for (uint i = 0; i < owners.length; i++) {... */\n    tag_67:\n        /* \"multiwallet.sol\":636:642  owners */\n      0x00\n        /* \"multiwallet.sol\":636:649  owners.length */\n      dup1\n      sload\n      swap1\n      pop\n        /* \"multiwallet.sol\":632:633  i */\n      dup2\n        /* \"multiwallet.sol\":632:649  i < owners.length */\n      lt\n        /* \"multiwallet.sol\":615:784  for (uint i = 0; i < owners.length; i++) {... */\n      iszero\n      tag_68\n      jumpi\n        /* \"multiwallet.sol\":689:695  owners */\n      0x00\n        /* \"multiwallet.sol\":696:697  i */\n      dup2\n        /* \"multiwallet.sol\":689:698  owners[i] */\n      dup2\n      sload\n      dup2\n      lt\n      tag_70\n      jumpi\n      tag_71\n      tag_72\n      jump\t// in\n    tag_71:\n    tag_70:\n      swap1\n      0x00\n      mstore\n      keccak256(0x00, 0x20)\n      add\n      0x00\n      swap1\n      sload\n      swap1\n      0x0100\n      exp\n      swap1\n      div\n      0xffffffffffffffffffffffffffffffffffffffff\n      and\n        /* \"multiwallet.sol\":675:698  msg.sender == owners[i] */\n      0xffffffffffffffffffffffffffffffffffffffff\n      and\n        /* \"multiwallet.sol\":675:685  msg.sender */\n      caller\n        /* \"multiwallet.sol\":675:698  msg.sender == owners[i] */\n      0xffffffffffffffffffffffffffffffffffffffff\n      and\n      sub\n        /* \"multiwallet.sol\":671:773  if (msg.sender == owners[i]) {... */\n      tag_74\n      jumpi\n        /* \"multiwallet.sol\":729:733  true */\n      0x01\n        /* \"multiwallet.sol\":719:733  isOwner = true */\n      swap2\n      pop\n        /* \"multiwallet.sol\":752:757  break */\n      jump(tag_68)\n        /* \"multiwallet.sol\":671:773  if (msg.sender == owners[i]) {... */\n    tag_74:\n        /* \"multiwallet.sol\":651:654  i++ */\n      dup1\n      dup1\n      0x01\n      add\n      swap2\n      pop\n      pop\n        /* \"multiwallet.sol\":615:784  for (uint i = 0; i < owners.length; i++) {... */\n      jump(tag_67)\n    tag_68:\n      pop\n        /* \"multiwallet.sol\":802:809  isOwner */\n      dup1\n        /* \"multiwallet.sol\":794:826  require(isOwner, \"Not an owner\") */\n      tag_75\n      jumpi\n      mload(0x40)\n      0x08c379a000000000000000000000000000000000000000000000000000000000\n      dup2\n      mstore\n      0x04\n      add\n      tag_76\n      swap1\n      tag_77\n      jump\t// in\n    tag_76:\n      mload(0x40)\n      dup1\n      swap2\n      sub\n      swap1\n      revert\n    tag_75:\n        /* \"multiwallet.sol\":1565:1574  proposals */\n      0x02\n        /* \"multiwallet.sol\":1580:1754  Proposal({... */\n      mload(0x40)\n      dup1\n      0xa0\n      add\n      0x40\n      mstore\n      dup1\n        /* \"multiwallet.sol\":1615:1625  _recipient */\n      dup7\n        /* \"multiwallet.sol\":1580:1754  Proposal({... */\n      0xffffffffffffffffffffffffffffffffffffffff\n      and\n      dup2\n      mstore\n      0x20\n      add\n        /* \"multiwallet.sol\":1648:1655  _amount */\n      dup6\n        /* \"multiwallet.sol\":1580:1754  Proposal({... */\n      dup2\n      mstore\n      0x20\n      add\n        /* \"multiwallet.sol\":1676:1681  _data */\n      dup5\n        /* \"multiwallet.sol\":1580:1754  Proposal({... */\n      dup2\n      mstore\n      0x20\n      add\n        /* \"multiwallet.sol\":1711:1712  0 */\n      0x00\n        /* \"multiwallet.sol\":1580:1754  Proposal({... */\n      dup2\n      mstore\n      0x20\n      add\n        /* \"multiwallet.sol\":1737:1742  false */\n      0x00\n        /* \"multiwallet.sol\":1580:1754  Proposal({... */\n      iszero\n      iszero\n      dup2\n      mstore\n      pop\n        /* \"multiwallet.sol\":1565:1755  proposals.push(Proposal({... */\n      swap1\n      dup1\n      0x01\n      dup2\n      sload\n      add\n      dup1\n      dup3\n      sstore\n      dup1\n      swap2\n      pop\n      pop\n      0x01\n      swap1\n      sub\n      swap1\n      0x00\n      mstore\n      keccak256(0x00, 0x20)\n      swap1\n      0x05\n      mul\n      add\n      0x00\n      swap1\n      swap2\n      swap1\n      swap2\n      swap1\n      swap2\n      pop\n      0x00\n      dup3\n      add\n      mload\n      dup2\n      0x00\n      add\n      exp(0x0100, 0x00)\n      dup2\n      sload\n      dup2\n      0xffffffffffffffffffffffffffffffffffffffff\n      mul\n      not\n      and\n      swap1\n      dup4\n      0xffffffffffffffffffffffffffffffffffffffff\n      and\n      mul\n      or\n      swap1\n      sstore\n      pop\n      0x20\n      dup3\n      add\n      mload\n      dup2\n      0x01\n      add\n      sstore\n      0x40\n      dup3\n      add\n      mload\n      dup2\n      0x02\n      add\n      swap1\n      dup2\n      tag_80\n      swap2\n      swap1\n      tag_81\n      jump\t// in\n    tag_80:\n      pop\n      0x60\n      dup3\n      add\n      mload\n      dup2\n      0x03\n      add\n      sstore\n      0x80\n      dup3\n      add\n      mload\n      dup2\n      0x04\n      add\n      exp(0x0100, 0x00)\n      dup2\n      sload\n      dup2\n      0xff\n      mul\n      not\n      and\n      swap1\n      dup4\n      iszero\n      iszero\n      mul\n      or\n      swap1\n      sstore\n      pop\n      pop\n      pop\n        /* \"multiwallet.sol\":573:846  {... */\n      pop\n        /* \"multiwallet.sol\":1459:1763  function submitProposal(address _recipient, uint _amount, bytes memory _data) public onlyOwner {... */\n      pop\n      pop\n      pop\n      jump\t// out\n        /* \"multiwallet.sol\":2850:2946  function getBalance() public view returns (uint) {... */\n    tag_34:\n        /* \"multiwallet.sol\":2893:2897  uint */\n      0x00\n        /* \"multiwallet.sol\":2917:2938  address(this).balance */\n      selfbalance\n        /* \"multiwallet.sol\":2910:2938  return address(this).balance */\n      swap1\n      pop\n        /* \"multiwallet.sol\":2850:2946  function getBalance() public view returns (uint) {... */\n      swap1\n      jump\t// out\n        /* \"multiwallet.sol\":151:172  uint public threshold */\n    tag_39:\n      sload(0x01)\n      dup2\n      jump\t// out\n        /* \"multiwallet.sol\":2718:2815  function getProposalCount() public view returns (uint) {... */\n    tag_43:\n        /* \"multiwallet.sol\":2767:2771  uint */\n      0x00\n        /* \"multiwallet.sol\":2791:2800  proposals */\n      0x02\n        /* \"multiwallet.sol\":2791:2807  proposals.length */\n      dup1\n      sload\n      swap1\n      pop\n        /* \"multiwallet.sol\":2784:2807  return proposals.length */\n      swap1\n      pop\n        /* \"multiwallet.sol\":2718:2815  function getProposalCount() public view returns (uint) {... */\n      swap1\n      jump\t// out\n        /* \"multiwallet.sol\":1792:2296  function confirmProposal(uint _proposalId) public onlyOwner proposalExists(_proposalId) notExecuted(_proposalId) {... */\n    tag_48:\n        /* \"multiwallet.sol\":584:596  bool isOwner */\n      0x00\n        /* \"multiwallet.sol\":620:626  uint i */\n      dup1\n        /* \"multiwallet.sol\":615:784  for (uint i = 0; i < owners.length; i++) {... */\n    tag_85:\n        /* \"multiwallet.sol\":636:642  owners */\n      0x00\n        /* \"multiwallet.sol\":636:649  owners.length */\n      dup1\n      sload\n      swap1\n      pop\n        /* \"multiwallet.sol\":632:633  i */\n      dup2\n        /* \"multiwallet.sol\":632:649  i < owners.length */\n      lt\n        /* \"multiwallet.sol\":615:784  for (uint i = 0; i < owners.length; i++) {... */\n      iszero\n      tag_86\n      jumpi\n        /* \"multiwallet.sol\":689:695  owners */\n      0x00\n        /* \"multiwallet.sol\":696:697  i */\n      dup2\n        /* \"multiwallet.sol\":689:698  owners[i] */\n      dup2\n      sload\n      dup2\n      lt\n      tag_88\n      jumpi\n      tag_89\n      tag_72\n      jump\t// in\n    tag_89:\n    tag_88:\n      swap1\n      0x00\n      mstore\n      keccak256(0x00, 0x20)\n      add\n      0x00\n      swap1\n      sload\n      swap1\n      0x0100\n      exp\n      swap1\n      div\n      0xffffffffffffffffffffffffffffffffffffffff\n      and\n        /* \"multiwallet.sol\":675:698  msg.sender == owners[i] */\n      0xffffffffffffffffffffffffffffffffffffffff\n      and\n        /* \"multiwallet.sol\":675:685  msg.sender */\n      caller\n        /* \"multiwallet.sol\":675:698  msg.sender == owners[i] */\n      0xffffffffffffffffffffffffffffffffffffffff\n      and\n      sub\n        /* \"multiwallet.sol\":671:773  if (msg.sender == owners[i]) {... */\n      tag_91\n      jumpi\n        /* \"multiwallet.sol\":729:733  true */\n      0x01\n        /* \"multiwallet.sol\":719:733  isOwner = true */\n      swap2\n      pop\n        /* \"multiwallet.sol\":752:757  break */\n      jump(tag_86)\n        /* \"multiwallet.sol\":671:773  if (msg.sender == owners[i]) {... */\n    tag_91:\n        /* \"multiwallet.sol\":651:654  i++ */\n      dup1\n      dup1\n      0x01\n      add\n      swap2\n      pop\n      pop\n        /* \"multiwallet.sol\":615:784  for (uint i = 0; i < owners.length; i++) {... */\n      jump(tag_85)\n    tag_86:\n      pop\n        /* \"multiwallet.sol\":802:809  isOwner */\n      dup1\n        /* \"multiwallet.sol\":794:826  require(isOwner, \"Not an owner\") */\n      tag_92\n      jumpi\n      mload(0x40)\n      0x08c379a000000000000000000000000000000000000000000000000000000000\n      dup2\n      mstore\n      0x04\n      add\n      tag_93\n      swap1\n      tag_77\n      jump\t// in\n    tag_93:\n      mload(0x40)\n      dup1\n      swap2\n      sub\n      swap1\n      revert\n    tag_92:\n        /* \"multiwallet.sol\":1867:1878  _proposalId */\n      dup2\n        /* \"multiwallet.sol\":929:938  proposals */\n      0x02\n        /* \"multiwallet.sol\":929:945  proposals.length */\n      dup1\n      sload\n      swap1\n      pop\n        /* \"multiwallet.sol\":915:926  _proposalId */\n      dup2\n        /* \"multiwallet.sol\":915:945  _proposalId < proposals.length */\n      lt\n        /* \"multiwallet.sol\":907:973  require(_proposalId < proposals.length, \"Proposal does not exist\") */\n      tag_95\n      jumpi\n      mload(0x40)\n      0x08c379a000000000000000000000000000000000000000000000000000000000\n      dup2\n      mstore\n      0x04\n      add\n      tag_96\n      swap1\n      tag_97\n      jump\t// in\n    tag_96:\n      mload(0x40)\n      dup1\n      swap2\n      sub\n      swap1\n      revert\n    tag_95:\n        /* \"multiwallet.sol\":1892:1903  _proposalId */\n      dup3\n        /* \"multiwallet.sol\":1060:1069  proposals */\n      0x02\n        /* \"multiwallet.sol\":1070:1081  _proposalId */\n      dup2\n        /* \"multiwallet.sol\":1060:1082  proposals[_proposalId] */\n      dup2\n      sload\n      dup2\n      lt\n      tag_99\n      jumpi\n      tag_100\n      tag_72\n      jump\t// in\n    tag_100:\n    tag_99:\n      swap1\n      0x00\n      mstore\n      keccak256(0x00, 0x20)\n      swap1\n      0x05\n      mul\n      add\n        /* \"multiwallet.sol\":1060:1091  proposals[_proposalId].executed */\n      0x04\n      add\n      0x00\n      swap1\n      sload\n      swap1\n      0x0100\n      exp\n      swap1\n      div\n      0xff\n      and\n        /* \"multiwallet.sol\":1059:1091  !proposals[_proposalId].executed */\n      iszero\n        /* \"multiwallet.sol\":1051:1121  require(!proposals[_proposalId].executed, \"Proposal already executed\") */\n      tag_102\n      jumpi\n      mload(0x40)\n      0x08c379a000000000000000000000000000000000000000000000000000000000\n      dup2\n      mstore\n      0x04\n      add\n      tag_103\n      swap1\n      tag_104\n      jump\t// in\n    tag_103:\n      mload(0x40)\n      dup1\n      swap2\n      sub\n      swap1\n      revert\n    tag_102:\n        /* \"multiwallet.sol\":1925:1938  confirmations */\n      0x03\n        /* \"multiwallet.sol\":1925:1950  confirmations[msg.sender] */\n      0x00\n        /* \"multiwallet.sol\":1939:1949  msg.sender */\n      caller\n        /* \"multiwallet.sol\":1925:1950  confirmations[msg.sender] */\n      0xffffffffffffffffffffffffffffffffffffffff\n      and\n      0xffffffffffffffffffffffffffffffffffffffff\n      and\n      dup2\n      mstore\n      0x20\n      add\n      swap1\n      dup2\n      mstore\n      0x20\n      add\n      0x00\n      keccak256\n        /* \"multiwallet.sol\":1925:1963  confirmations[msg.sender][_proposalId] */\n      0x00\n        /* \"multiwallet.sol\":1951:1962  _proposalId */\n      dup6\n        /* \"multiwallet.sol\":1925:1963  confirmations[msg.sender][_proposalId] */\n      dup2\n      mstore\n      0x20\n      add\n      swap1\n      dup2\n      mstore\n      0x20\n      add\n      0x00\n      keccak256\n      0x00\n      swap1\n      sload\n      swap1\n      0x0100\n      exp\n      swap1\n      div\n      0xff\n      and\n        /* \"multiwallet.sol\":1924:1963  !confirmations[msg.sender][_proposalId] */\n      iszero\n        /* \"multiwallet.sol\":1916:2001  require(!confirmations[msg.sender][_proposalId], \"Proposal already confirmed by you\") */\n      tag_106\n      jumpi\n      mload(0x40)\n      0x08c379a000000000000000000000000000000000000000000000000000000000\n      dup2\n      mstore\n      0x04\n      add\n      tag_107\n      swap1\n      tag_108\n      jump\t// in\n    tag_107:\n      mload(0x40)\n      dup1\n      swap2\n      sub\n      swap1\n      revert\n    tag_106:\n        /* \"multiwallet.sol\":2054:2055  1 */\n      0x01\n        /* \"multiwallet.sol\":2014:2023  proposals */\n      0x02\n        /* \"multiwallet.sol\":2024:2035  _proposalId */\n      dup6\n        /* \"multiwallet.sol\":2014:2036  proposals[_proposalId] */\n      dup2\n      sload\n      dup2\n      lt\n      tag_109\n      jumpi\n      tag_110\n      tag_72\n      jump\t// in\n    tag_110:\n    tag_109:\n      swap1\n      0x00\n      mstore\n      keccak256(0x00, 0x20)\n      swap1\n      0x05\n      mul\n      add\n        /* \"multiwallet.sol\":2014:2050  proposals[_proposalId].confirmations */\n      0x03\n      add\n      0x00\n        /* \"multiwallet.sol\":2014:2055  proposals[_proposalId].confirmations += 1 */\n      dup3\n      dup3\n      sload\n      tag_112\n      swap2\n      swap1\n      tag_113\n      jump\t// in\n    tag_112:\n      swap3\n      pop\n      pop\n      dup2\n      swap1\n      sstore\n      pop\n        /* \"multiwallet.sol\":2107:2111  true */\n      0x01\n        /* \"multiwallet.sol\":2066:2079  confirmations */\n      0x03\n        /* \"multiwallet.sol\":2066:2091  confirmations[msg.sender] */\n      0x00\n        /* \"multiwallet.sol\":2080:2090  msg.sender */\n      caller\n        /* \"multiwallet.sol\":2066:2091  confirmations[msg.sender] */\n      0xffffffffffffffffffffffffffffffffffffffff\n      and\n      0xffffffffffffffffffffffffffffffffffffffff\n      and\n      dup2\n      mstore\n      0x20\n      add\n      swap1\n      dup2\n      mstore\n      0x20\n      add\n      0x00\n      keccak256\n        /* \"multiwallet.sol\":2066:2104  confirmations[msg.sender][_proposalId] */\n      0x00\n        /* \"multiwallet.sol\":2092:2103  _proposalId */\n      dup7\n        /* \"multiwallet.sol\":2066:2104  confirmations[msg.sender][_proposalId] */\n      dup2\n      mstore\n      0x20\n      add\n      swap1\n      dup2\n      mstore\n      0x20\n      add\n      0x00\n      keccak256\n      0x00\n        /* \"multiwallet.sol\":2066:2111  confirmations[msg.sender][_proposalId] = true */\n      0x0100\n      exp\n      dup2\n      sload\n      dup2\n      0xff\n      mul\n      not\n      and\n      swap1\n      dup4\n      iszero\n      iszero\n      mul\n      or\n      swap1\n      sstore\n      pop\n        /* \"multiwallet.sol\":2223:2232  threshold */\n      sload(0x01)\n        /* \"multiwallet.sol\":2183:2192  proposals */\n      0x02\n        /* \"multiwallet.sol\":2193:2204  _proposalId */\n      dup6\n        /* \"multiwallet.sol\":2183:2205  proposals[_proposalId] */\n      dup2\n      sload\n      dup2\n      lt\n      tag_114\n      jumpi\n      tag_115\n      tag_72\n      jump\t// in\n    tag_115:\n    tag_114:\n      swap1\n      0x00\n      mstore\n      keccak256(0x00, 0x20)\n      swap1\n      0x05\n      mul\n      add\n        /* \"multiwallet.sol\":2183:2219  proposals[_proposalId].confirmations */\n      0x03\n      add\n      sload\n        /* \"multiwallet.sol\":2183:2232  proposals[_proposalId].confirmations >= threshold */\n      lt\n        /* \"multiwallet.sol\":2179:2289  if (proposals[_proposalId].confirmations >= threshold) {... */\n      tag_117\n      jumpi\n        /* \"multiwallet.sol\":2249:2277  executeProposal(_proposalId) */\n      tag_118\n        /* \"multiwallet.sol\":2265:2276  _proposalId */\n      dup5\n        /* \"multiwallet.sol\":2249:2264  executeProposal */\n      tag_119\n        /* \"multiwallet.sol\":2249:2277  executeProposal(_proposalId) */\n      jump\t// in\n    tag_118:\n        /* \"multiwallet.sol\":2179:2289  if (proposals[_proposalId].confirmations >= threshold) {... */\n    tag_117:\n        /* \"multiwallet.sol\":984:985  _ */\n      pop\n        /* \"multiwallet.sol\":837:838  _ */\n      pop\n        /* \"multiwallet.sol\":573:846  {... */\n      pop\n        /* \"multiwallet.sol\":1792:2296  function confirmProposal(uint _proposalId) public onlyOwner proposalExists(_proposalId) notExecuted(_proposalId) {... */\n      pop\n      jump\t// out\n        /* \"multiwallet.sol\":434:496  mapping(address => mapping(uint => bool)) public confirmations */\n    tag_53:\n      mstore(0x20, 0x03)\n      dup2\n      0x00\n      mstore\n      mstore(0x20, keccak256(0x00, 0x40))\n      dup1\n      0x00\n      mstore\n      keccak256(0x00, 0x40)\n      0x00\n      swap2\n      pop\n      swap2\n      pop\n      swap1\n      sload\n      swap1\n      0x0100\n      exp\n      swap1\n      div\n      0xff\n      and\n      dup2\n      jump\t// out\n        /* \"multiwallet.sol\":2325:2677  function executeProposal(uint _proposalId) internal proposalExists(_proposalId) notExecuted(_proposalId) {... */\n    tag_119:\n        /* \"multiwallet.sol\":2392:2403  _proposalId */\n      dup1\n        /* \"multiwallet.sol\":929:938  proposals */\n      0x02\n        /* \"multiwallet.sol\":929:945  proposals.length */\n      dup1\n      sload\n      swap1\n      pop\n        /* \"multiwallet.sol\":915:926  _proposalId */\n      dup2\n        /* \"multiwallet.sol\":915:945  _proposalId < proposals.length */\n      lt\n        /* \"multiwallet.sol\":907:973  require(_proposalId < proposals.length, \"Proposal does not exist\") */\n      tag_121\n      jumpi\n      mload(0x40)\n      0x08c379a000000000000000000000000000000000000000000000000000000000\n      dup2\n      mstore\n      0x04\n      add\n      tag_122\n      swap1\n      tag_97\n      jump\t// in\n    tag_122:\n      mload(0x40)\n      dup1\n      swap2\n      sub\n      swap1\n      revert\n    tag_121:\n        /* \"multiwallet.sol\":2417:2428  _proposalId */\n      dup2\n        /* \"multiwallet.sol\":1060:1069  proposals */\n      0x02\n        /* \"multiwallet.sol\":1070:1081  _proposalId */\n      dup2\n        /* \"multiwallet.sol\":1060:1082  proposals[_proposalId] */\n      dup2\n      sload\n      dup2\n      lt\n      tag_124\n      jumpi\n      tag_125\n      tag_72\n      jump\t// in\n    tag_125:\n    tag_124:\n      swap1\n      0x00\n      mstore\n      keccak256(0x00, 0x20)\n      swap1\n      0x05\n      mul\n      add\n        /* \"multiwallet.sol\":1060:1091  proposals[_proposalId].executed */\n      0x04\n      add\n      0x00\n      swap1\n      sload\n      swap1\n      0x0100\n      exp\n      swap1\n      div\n      0xff\n      and\n        /* \"multiwallet.sol\":1059:1091  !proposals[_proposalId].executed */\n      iszero\n        /* \"multiwallet.sol\":1051:1121  require(!proposals[_proposalId].executed, \"Proposal already executed\") */\n      tag_127\n      jumpi\n      mload(0x40)\n      0x08c379a000000000000000000000000000000000000000000000000000000000\n      dup2\n      mstore\n      0x04\n      add\n      tag_128\n      swap1\n      tag_104\n      jump\t// in\n    tag_128:\n      mload(0x40)\n      dup1\n      swap2\n      sub\n      swap1\n      revert\n    tag_127:\n        /* \"multiwallet.sol\":2441:2466  Proposal storage proposal */\n      0x00\n        /* \"multiwallet.sol\":2469:2478  proposals */\n      0x02\n        /* \"multiwallet.sol\":2479:2490  _proposalId */\n      dup5\n        /* \"multiwallet.sol\":2469:2491  proposals[_proposalId] */\n      dup2\n      sload\n      dup2\n      lt\n      tag_130\n      jumpi\n      tag_131\n      tag_72\n      jump\t// in\n    tag_131:\n    tag_130:\n      swap1\n      0x00\n      mstore\n      keccak256(0x00, 0x20)\n      swap1\n      0x05\n      mul\n      add\n        /* \"multiwallet.sol\":2441:2491  Proposal storage proposal = proposals[_proposalId] */\n      swap1\n      pop\n        /* \"multiwallet.sol\":2503:2515  bool success */\n      0x00\n        /* \"multiwallet.sol\":2521:2529  proposal */\n      dup2\n        /* \"multiwallet.sol\":2521:2539  proposal.recipient */\n      0x00\n      add\n      0x00\n      swap1\n      sload\n      swap1\n      0x0100\n      exp\n      swap1\n      div\n      0xffffffffffffffffffffffffffffffffffffffff\n      and\n        /* \"multiwallet.sol\":2521:2544  proposal.recipient.call */\n      0xffffffffffffffffffffffffffffffffffffffff\n      and\n        /* \"multiwallet.sol\":2552:2560  proposal */\n      dup3\n        /* \"multiwallet.sol\":2552:2567  proposal.amount */\n      0x01\n      add\n      sload\n        /* \"multiwallet.sol\":2569:2577  proposal */\n      dup4\n        /* \"multiwallet.sol\":2569:2582  proposal.data */\n      0x02\n      add\n        /* \"multiwallet.sol\":2521:2583  proposal.recipient.call{value: proposal.amount}(proposal.data) */\n      mload(0x40)\n      tag_133\n      swap2\n      swap1\n      tag_134\n      jump\t// in\n    tag_133:\n      0x00\n      mload(0x40)\n      dup1\n      dup4\n      sub\n      dup2\n      dup6\n      dup8\n      gas\n      call\n      swap3\n      pop\n      pop\n      pop\n      returndatasize\n      dup1\n      0x00\n      dup2\n      eq\n      tag_137\n      jumpi\n      mload(0x40)\n      swap2\n      pop\n      and(add(returndatasize, 0x3f), not(0x1f))\n      dup3\n      add\n      0x40\n      mstore\n      returndatasize\n      dup3\n      mstore\n      returndatasize\n      0x00\n      0x20\n      dup5\n      add\n      returndatacopy\n      jump(tag_136)\n    tag_137:\n      0x60\n      swap2\n      pop\n    tag_136:\n      pop\n        /* \"multiwallet.sol\":2502:2583  (bool success, ) = proposal.recipient.call{value: proposal.amount}(proposal.data) */\n      pop\n      swap1\n      pop\n        /* \"multiwallet.sol\":2602:2609  success */\n      dup1\n        /* \"multiwallet.sol\":2594:2632  require(success, \"Transaction failed\") */\n      tag_138\n      jumpi\n      mload(0x40)\n      0x08c379a000000000000000000000000000000000000000000000000000000000\n      dup2\n      mstore\n      0x04\n      add\n      tag_139\n      swap1\n      tag_140\n      jump\t// in\n    tag_139:\n      mload(0x40)\n      dup1\n      swap2\n      sub\n      swap1\n      revert\n    tag_138:\n        /* \"multiwallet.sol\":2665:2669  true */\n      0x01\n        /* \"multiwallet.sol\":2645:2653  proposal */\n      dup3\n        /* \"multiwallet.sol\":2645:2662  proposal.executed */\n      0x04\n      add\n      0x00\n        /* \"multiwallet.sol\":2645:2669  proposal.executed = true */\n      0x0100\n      exp\n      dup2\n      sload\n      dup2\n      0xff\n      mul\n      not\n      and\n      swap1\n      dup4\n      iszero\n      iszero\n      mul\n      or\n      swap1\n      sstore\n      pop\n        /* \"multiwallet.sol\":2430:2677  {... */\n      pop\n      pop\n        /* \"multiwallet.sol\":984:985  _ */\n      pop\n        /* \"multiwallet.sol\":2325:2677  function executeProposal(uint _proposalId) internal proposalExists(_proposalId) notExecuted(_proposalId) {... */\n      pop\n      pop\n      jump\t// out\n        /* \"#utility.yul\":7:82   */\n    tag_141:\n        /* \"#utility.yul\":40:46   */\n      0x00\n        /* \"#utility.yul\":73:75   */\n      0x40\n        /* \"#utility.yul\":67:76   */\n      mload\n        /* \"#utility.yul\":57:76   */\n      swap1\n      pop\n        /* \"#utility.yul\":7:82   */\n      swap1\n      jump\t// out\n        /* \"#utility.yul\":88:205   */\n    tag_142:\n        /* \"#utility.yul\":197:198   */\n      0x00\n        /* \"#utility.yul\":194:195   */\n      dup1\n        /* \"#utility.yul\":187:199   */\n      revert\n        /* \"#utility.yul\":211:328   */\n    tag_143:\n        /* \"#utility.yul\":320:321   */\n      0x00\n        /* \"#utility.yul\":317:318   */\n      dup1\n        /* \"#utility.yul\":310:322   */\n      revert\n        /* \"#utility.yul\":334:411   */\n    tag_144:\n        /* \"#utility.yul\":371:378   */\n      0x00\n        /* \"#utility.yul\":400:405   */\n      dup2\n        /* \"#utility.yul\":389:405   */\n      swap1\n      pop\n        /* \"#utility.yul\":334:411   */\n      swap2\n      swap1\n      pop\n      jump\t// out\n        /* \"#utility.yul\":417:539   */\n    tag_145:\n        /* \"#utility.yul\":490:514   */\n      tag_205\n        /* \"#utility.yul\":508:513   */\n      dup2\n        /* \"#utility.yul\":490:514   */\n      tag_144\n      jump\t// in\n    tag_205:\n        /* \"#utility.yul\":483:488   */\n      dup2\n        /* \"#utility.yul\":480:515   */\n      eq\n        /* \"#utility.yul\":470:533   */\n      tag_206\n      jumpi\n        /* \"#utility.yul\":529:530   */\n      0x00\n        /* \"#utility.yul\":526:527   */\n      dup1\n        /* \"#utility.yul\":519:531   */\n      revert\n        /* \"#utility.yul\":470:533   */\n    tag_206:\n        /* \"#utility.yul\":417:539   */\n      pop\n      jump\t// out\n        /* \"#utility.yul\":545:684   */\n    tag_146:\n        /* \"#utility.yul\":591:596   */\n      0x00\n        /* \"#utility.yul\":629:635   */\n      dup2\n        /* \"#utility.yul\":616:636   */\n      calldataload\n        /* \"#utility.yul\":607:636   */\n      swap1\n      pop\n        /* \"#utility.yul\":645:678   */\n      tag_208\n        /* \"#utility.yul\":672:677   */\n      dup2\n        /* \"#utility.yul\":645:678   */\n      tag_145\n      jump\t// in\n    tag_208:\n        /* \"#utility.yul\":545:684   */\n      swap3\n      swap2\n      pop\n      pop\n      jump\t// out\n        /* \"#utility.yul\":690:1019   */\n    tag_17:\n        /* \"#utility.yul\":749:755   */\n      0x00\n        /* \"#utility.yul\":798:800   */\n      0x20\n        /* \"#utility.yul\":786:795   */\n      dup3\n        /* \"#utility.yul\":777:784   */\n      dup5\n        /* \"#utility.yul\":773:796   */\n      sub\n        /* \"#utility.yul\":769:801   */\n      slt\n        /* \"#utility.yul\":766:885   */\n      iszero\n      tag_210\n      jumpi\n        /* \"#utility.yul\":804:883   */\n      tag_211\n      tag_142\n      jump\t// in\n    tag_211:\n        /* \"#utility.yul\":766:885   */\n    tag_210:\n        /* \"#utility.yul\":924:925   */\n      0x00\n        /* \"#utility.yul\":949:1002   */\n      tag_212\n        /* \"#utility.yul\":994:1001   */\n      dup5\n        /* \"#utility.yul\":985:991   */\n      dup3\n        /* \"#utility.yul\":974:983   */\n      dup6\n        /* \"#utility.yul\":970:992   */\n      add\n        /* \"#utility.yul\":949:1002   */\n      tag_146\n      jump\t// in\n    tag_212:\n        /* \"#utility.yul\":939:1002   */\n      swap2\n      pop\n        /* \"#utility.yul\":895:1012   */\n      pop\n        /* \"#utility.yul\":690:1019   */\n      swap3\n      swap2\n      pop\n      pop\n      jump\t// out\n        /* \"#utility.yul\":1025:1151   */\n    tag_147:\n        /* \"#utility.yul\":1062:1069   */\n      0x00\n        /* \"#utility.yul\":1102:1144   */\n      0xffffffffffffffffffffffffffffffffffffffff\n        /* \"#utility.yul\":1095:1100   */\n      dup3\n        /* \"#utility.yul\":1091:1145   */\n      and\n        /* \"#utility.yul\":1080:1145   */\n      swap1\n      pop\n        /* \"#utility.yul\":1025:1151   */\n      swap2\n      swap1\n      pop\n      jump\t// out\n        /* \"#utility.yul\":1157:1253   */\n    tag_148:\n        /* \"#utility.yul\":1194:1201   */\n      0x00\n        /* \"#utility.yul\":1223:1247   */\n      tag_215\n        /* \"#utility.yul\":1241:1246   */\n      dup3\n        /* \"#utility.yul\":1223:1247   */\n      tag_147\n      jump\t// in\n    tag_215:\n        /* \"#utility.yul\":1212:1247   */\n      swap1\n      pop\n        /* \"#utility.yul\":1157:1253   */\n      swap2\n      swap1\n      pop\n      jump\t// out\n        /* \"#utility.yul\":1259:1377   */\n    tag_149:\n        /* \"#utility.yul\":1346:1370   */\n      tag_217\n        /* \"#utility.yul\":1364:1369   */\n      dup2\n        /* \"#utility.yul\":1346:1370   */\n      tag_148\n      jump\t// in\n    tag_217:\n        /* \"#utility.yul\":1341:1344   */\n      dup3\n        /* \"#utility.yul\":1334:1371   */\n      mstore\n        /* \"#utility.yul\":1259:1377   */\n      pop\n      pop\n      jump\t// out\n        /* \"#utility.yul\":1383:1501   */\n    tag_150:\n        /* \"#utility.yul\":1470:1494   */\n      tag_219\n        /* \"#utility.yul\":1488:1493   */\n      dup2\n        /* \"#utility.yul\":1470:1494   */\n      tag_144\n      jump\t// in\n    tag_219:\n        /* \"#utility.yul\":1465:1468   */\n      dup3\n        /* \"#utility.yul\":1458:1495   */\n      mstore\n        /* \"#utility.yul\":1383:1501   */\n      pop\n      pop\n      jump\t// out\n        /* \"#utility.yul\":1507:1605   */\n    tag_151:\n        /* \"#utility.yul\":1558:1564   */\n      0x00\n        /* \"#utility.yul\":1592:1597   */\n      dup2\n        /* \"#utility.yul\":1586:1598   */\n      mload\n        /* \"#utility.yul\":1576:1598   */\n      swap1\n      pop\n        /* \"#utility.yul\":1507:1605   */\n      swap2\n      swap1\n      pop\n      jump\t// out\n        /* \"#utility.yul\":1611:1779   */\n    tag_152:\n        /* \"#utility.yul\":1694:1705   */\n      0x00\n        /* \"#utility.yul\":1728:1734   */\n      dup3\n        /* \"#utility.yul\":1723:1726   */\n      dup3\n        /* \"#utility.yul\":1716:1735   */\n      mstore\n        /* \"#utility.yul\":1768:1772   */\n      0x20\n        /* \"#utility.yul\":1763:1766   */\n      dup3\n        /* \"#utility.yul\":1759:1773   */\n      add\n        /* \"#utility.yul\":1744:1773   */\n      swap1\n      pop\n        /* \"#utility.yul\":1611:1779   */\n      swap3\n      swap2\n      pop\n      pop\n      jump\t// out\n        /* \"#utility.yul\":1785:1924   */\n    tag_153:\n        /* \"#utility.yul\":1874:1880   */\n      dup3\n        /* \"#utility.yul\":1869:1872   */\n      dup2\n        /* \"#utility.yul\":1864:1867   */\n      dup4\n        /* \"#utility.yul\":1858:1881   */\n      mcopy\n        /* \"#utility.yul\":1915:1916   */\n      0x00\n        /* \"#utility.yul\":1906:1912   */\n      dup4\n        /* \"#utility.yul\":1901:1904   */\n      dup4\n        /* \"#utility.yul\":1897:1913   */\n      add\n        /* \"#utility.yul\":1890:1917   */\n      mstore\n        /* \"#utility.yul\":1785:1924   */\n      pop\n      pop\n      pop\n      jump\t// out\n        /* \"#utility.yul\":1930:2032   */\n    tag_154:\n        /* \"#utility.yul\":1971:1977   */\n      0x00\n        /* \"#utility.yul\":2022:2024   */\n      0x1f\n        /* \"#utility.yul\":2018:2025   */\n      not\n        /* \"#utility.yul\":2013:2015   */\n      0x1f\n        /* \"#utility.yul\":2006:2011   */\n      dup4\n        /* \"#utility.yul\":2002:2016   */\n      add\n        /* \"#utility.yul\":1998:2026   */\n      and\n        /* \"#utility.yul\":1988:2026   */\n      swap1\n      pop\n        /* \"#utility.yul\":1930:2032   */\n      swap2\n      swap1\n      pop\n      jump\t// out\n        /* \"#utility.yul\":2038:2411   */\n    tag_155:\n        /* \"#utility.yul\":2124:2127   */\n      0x00\n        /* \"#utility.yul\":2152:2190   */\n      tag_225\n        /* \"#utility.yul\":2184:2189   */\n      dup3\n        /* \"#utility.yul\":2152:2190   */\n      tag_151\n      jump\t// in\n    tag_225:\n        /* \"#utility.yul\":2206:2276   */\n      tag_226\n        /* \"#utility.yul\":2269:2275   */\n      dup2\n        /* \"#utility.yul\":2264:2267   */\n      dup6\n        /* \"#utility.yul\":2206:2276   */\n      tag_152\n      jump\t// in\n    tag_226:\n        /* \"#utility.yul\":2199:2276   */\n      swap4\n      pop\n        /* \"#utility.yul\":2285:2350   */\n      tag_227\n        /* \"#utility.yul\":2343:2349   */\n      dup2\n        /* \"#utility.yul\":2338:2341   */\n      dup6\n        /* \"#utility.yul\":2331:2335   */\n      0x20\n        /* \"#utility.yul\":2324:2329   */\n      dup7\n        /* \"#utility.yul\":2320:2336   */\n      add\n        /* \"#utility.yul\":2285:2350   */\n      tag_153\n      jump\t// in\n    tag_227:\n        /* \"#utility.yul\":2375:2404   */\n      tag_228\n        /* \"#utility.yul\":2397:2403   */\n      dup2\n        /* \"#utility.yul\":2375:2404   */\n      tag_154\n      jump\t// in\n    tag_228:\n        /* \"#utility.yul\":2370:2373   */\n      dup5\n        /* \"#utility.yul\":2366:2405   */\n      add\n        /* \"#utility.yul\":2359:2405   */\n      swap2\n      pop\n        /* \"#utility.yul\":2128:2411   */\n      pop\n        /* \"#utility.yul\":2038:2411   */\n      swap3\n      swap2\n      pop\n      pop\n      jump\t// out\n        /* \"#utility.yul\":2417:2507   */\n    tag_156:\n        /* \"#utility.yul\":2451:2458   */\n      0x00\n        /* \"#utility.yul\":2494:2499   */\n      dup2\n        /* \"#utility.yul\":2487:2500   */\n      iszero\n        /* \"#utility.yul\":2480:2501   */\n      iszero\n        /* \"#utility.yul\":2469:2501   */\n      swap1\n      pop\n        /* \"#utility.yul\":2417:2507   */\n      swap2\n      swap1\n      pop\n      jump\t// out\n        /* \"#utility.yul\":2513:2622   */\n    tag_157:\n        /* \"#utility.yul\":2594:2615   */\n      tag_231\n        /* \"#utility.yul\":2609:2614   */\n      dup2\n        /* \"#utility.yul\":2594:2615   */\n      tag_156\n      jump\t// in\n    tag_231:\n        /* \"#utility.yul\":2589:2592   */\n      dup3\n        /* \"#utility.yul\":2582:2616   */\n      mstore\n        /* \"#utility.yul\":2513:2622   */\n      pop\n      pop\n      jump\t// out\n        /* \"#utility.yul\":2628:3367   */\n    tag_20:\n        /* \"#utility.yul\":2845:2849   */\n      0x00\n        /* \"#utility.yul\":2883:2886   */\n      0xa0\n        /* \"#utility.yul\":2872:2881   */\n      dup3\n        /* \"#utility.yul\":2868:2887   */\n      add\n        /* \"#utility.yul\":2860:2887   */\n      swap1\n      pop\n        /* \"#utility.yul\":2897:2968   */\n      tag_233\n        /* \"#utility.yul\":2965:2966   */\n      0x00\n        /* \"#utility.yul\":2954:2963   */\n      dup4\n        /* \"#utility.yul\":2950:2967   */\n      add\n        /* \"#utility.yul\":2941:2947   */\n      dup9\n        /* \"#utility.yul\":2897:2968   */\n      tag_149\n      jump\t// in\n    tag_233:\n        /* \"#utility.yul\":2978:3050   */\n      tag_234\n        /* \"#utility.yul\":3046:3048   */\n      0x20\n        /* \"#utility.yul\":3035:3044   */\n      dup4\n        /* \"#utility.yul\":3031:3049   */\n      add\n        /* \"#utility.yul\":3022:3028   */\n      dup8\n        /* \"#utility.yul\":2978:3050   */\n      tag_150\n      jump\t// in\n    tag_234:\n        /* \"#utility.yul\":3097:3106   */\n      dup2\n        /* \"#utility.yul\":3091:3095   */\n      dup2\n        /* \"#utility.yul\":3087:3107   */\n      sub\n        /* \"#utility.yul\":3082:3084   */\n      0x40\n        /* \"#utility.yul\":3071:3080   */\n      dup4\n        /* \"#utility.yul\":3067:3085   */\n      add\n        /* \"#utility.yul\":3060:3108   */\n      mstore\n        /* \"#utility.yul\":3125:3201   */\n      tag_235\n        /* \"#utility.yul\":3196:3200   */\n      dup2\n        /* \"#utility.yul\":3187:3193   */\n      dup7\n        /* \"#utility.yul\":3125:3201   */\n      tag_155\n      jump\t// in\n    tag_235:\n        /* \"#utility.yul\":3117:3201   */\n      swap1\n      pop\n        /* \"#utility.yul\":3211:3283   */\n      tag_236\n        /* \"#utility.yul\":3279:3281   */\n      0x60\n        /* \"#utility.yul\":3268:3277   */\n      dup4\n        /* \"#utility.yul\":3264:3282   */\n      add\n        /* \"#utility.yul\":3255:3261   */\n      dup6\n        /* \"#utility.yul\":3211:3283   */\n      tag_150\n      jump\t// in\n    tag_236:\n        /* \"#utility.yul\":3293:3360   */\n      tag_237\n        /* \"#utility.yul\":3355:3358   */\n      0x80\n        /* \"#utility.yul\":3344:3353   */\n      dup4\n        /* \"#utility.yul\":3340:3359   */\n      add\n        /* \"#utility.yul\":3331:3337   */\n      dup5\n        /* \"#utility.yul\":3293:3360   */\n      tag_157\n      jump\t// in\n    tag_237:\n        /* \"#utility.yul\":2628:3367   */\n      swap7\n      swap6\n      pop\n      pop\n      pop\n      pop\n      pop\n      pop\n      jump\t// out\n        /* \"#utility.yul\":3373:3595   */\n    tag_26:\n        /* \"#utility.yul\":3466:3470   */\n      0x00\n        /* \"#utility.yul\":3504:3506   */\n      0x20\n        /* \"#utility.yul\":3493:3502   */\n      dup3\n        /* \"#utility.yul\":3489:3507   */\n      add\n        /* \"#utility.yul\":3481:3507   */\n      swap1\n      pop\n        /* \"#utility.yul\":3517:3588   */\n      tag_239\n        /* \"#utility.yul\":3585:3586   */\n      0x00\n        /* \"#utility.yul\":3574:3583   */\n      dup4\n        /* \"#utility.yul\":3570:3587   */\n      add\n        /* \"#utility.yul\":3561:3567   */\n      dup5\n        /* \"#utility.yul\":3517:3588   */\n      tag_149\n      jump\t// in\n    tag_239:\n        /* \"#utility.yul\":3373:3595   */\n      swap3\n      swap2\n      pop\n      pop\n      jump\t// out\n        /* \"#utility.yul\":3601:3723   */\n    tag_158:\n        /* \"#utility.yul\":3674:3698   */\n      tag_241\n        /* \"#utility.yul\":3692:3697   */\n      dup2\n        /* \"#utility.yul\":3674:3698   */\n      tag_148\n      jump\t// in\n    tag_241:\n        /* \"#utility.yul\":3667:3672   */\n      dup2\n        /* \"#utility.yul\":3664:3699   */\n      eq\n        /* \"#utility.yul\":3654:3717   */\n      tag_242\n      jumpi\n        /* \"#utility.yul\":3713:3714   */\n      0x00\n        /* \"#utility.yul\":3710:3711   */\n      dup1\n        /* \"#utility.yul\":3703:3715   */\n      revert\n        /* \"#utility.yul\":3654:3717   */\n    tag_242:\n        /* \"#utility.yul\":3601:3723   */\n      pop\n      jump\t// out\n        /* \"#utility.yul\":3729:3868   */\n    tag_159:\n        /* \"#utility.yul\":3775:3780   */\n      0x00\n        /* \"#utility.yul\":3813:3819   */\n      dup2\n        /* \"#utility.yul\":3800:3820   */\n      calldataload\n        /* \"#utility.yul\":3791:3820   */\n      swap1\n      pop\n        /* \"#utility.yul\":3829:3862   */\n      tag_244\n        /* \"#utility.yul\":3856:3861   */\n      dup2\n        /* \"#utility.yul\":3829:3862   */\n      tag_158\n      jump\t// in\n    tag_244:\n        /* \"#utility.yul\":3729:3868   */\n      swap3\n      swap2\n      pop\n      pop\n      jump\t// out\n        /* \"#utility.yul\":3874:3991   */\n    tag_160:\n        /* \"#utility.yul\":3983:3984   */\n      0x00\n        /* \"#utility.yul\":3980:3981   */\n      dup1\n        /* \"#utility.yul\":3973:3985   */\n      revert\n        /* \"#utility.yul\":3997:4114   */\n    tag_161:\n        /* \"#utility.yul\":4106:4107   */\n      0x00\n        /* \"#utility.yul\":4103:4104   */\n      dup1\n        /* \"#utility.yul\":4096:4108   */\n      revert\n        /* \"#utility.yul\":4120:4300   */\n    tag_162:\n        /* \"#utility.yul\":4168:4245   */\n      0x4e487b7100000000000000000000000000000000000000000000000000000000\n        /* \"#utility.yul\":4165:4166   */\n      0x00\n        /* \"#utility.yul\":4158:4246   */\n      mstore\n        /* \"#utility.yul\":4265:4269   */\n      0x41\n        /* \"#utility.yul\":4262:4263   */\n      0x04\n        /* \"#utility.yul\":4255:4270   */\n      mstore\n        /* \"#utility.yul\":4289:4293   */\n      0x24\n        /* \"#utility.yul\":4286:4287   */\n      0x00\n        /* \"#utility.yul\":4279:4294   */\n      revert\n        /* \"#utility.yul\":4306:4587   */\n    tag_163:\n        /* \"#utility.yul\":4389:4416   */\n      tag_249\n        /* \"#utility.yul\":4411:4415   */\n      dup3\n        /* \"#utility.yul\":4389:4416   */\n      tag_154\n      jump\t// in\n    tag_249:\n        /* \"#utility.yul\":4381:4387   */\n      dup2\n        /* \"#utility.yul\":4377:4417   */\n      add\n        /* \"#utility.yul\":4519:4525   */\n      dup2\n        /* \"#utility.yul\":4507:4517   */\n      dup2\n        /* \"#utility.yul\":4504:4526   */\n      lt\n        /* \"#utility.yul\":4483:4501   */\n      0xffffffffffffffff\n        /* \"#utility.yul\":4471:4481   */\n      dup3\n        /* \"#utility.yul\":4468:4502   */\n      gt\n        /* \"#utility.yul\":4465:4527   */\n      or\n        /* \"#utility.yul\":4462:4550   */\n      iszero\n      tag_250\n      jumpi\n        /* \"#utility.yul\":4530:4548   */\n      tag_251\n      tag_162\n      jump\t// in\n    tag_251:\n        /* \"#utility.yul\":4462:4550   */\n    tag_250:\n        /* \"#utility.yul\":4570:4580   */\n      dup1\n        /* \"#utility.yul\":4566:4568   */\n      0x40\n        /* \"#utility.yul\":4559:4581   */\n      mstore\n        /* \"#utility.yul\":4349:4587   */\n      pop\n        /* \"#utility.yul\":4306:4587   */\n      pop\n      pop\n      jump\t// out\n        /* \"#utility.yul\":4593:4722   */\n    tag_164:\n        /* \"#utility.yul\":4627:4633   */\n      0x00\n        /* \"#utility.yul\":4654:4674   */\n      tag_253\n      tag_141\n      jump\t// in\n    tag_253:\n        /* \"#utility.yul\":4644:4674   */\n      swap1\n      pop\n        /* \"#utility.yul\":4683:4716   */\n      tag_254\n        /* \"#utility.yul\":4711:4715   */\n      dup3\n        /* \"#utility.yul\":4703:4709   */\n      dup3\n        /* \"#utility.yul\":4683:4716   */\n      tag_163\n      jump\t// in\n    tag_254:\n        /* \"#utility.yul\":4593:4722   */\n      swap2\n      swap1\n      pop\n      jump\t// out\n        /* \"#utility.yul\":4728:5035   */\n    tag_165:\n        /* \"#utility.yul\":4789:4793   */\n      0x00\n        /* \"#utility.yul\":4879:4897   */\n      0xffffffffffffffff\n        /* \"#utility.yul\":4871:4877   */\n      dup3\n        /* \"#utility.yul\":4868:4898   */\n      gt\n        /* \"#utility.yul\":4865:4921   */\n      iszero\n      tag_256\n      jumpi\n        /* \"#utility.yul\":4901:4919   */\n      tag_257\n      tag_162\n      jump\t// in\n    tag_257:\n        /* \"#utility.yul\":4865:4921   */\n    tag_256:\n        /* \"#utility.yul\":4939:4968   */\n      tag_258\n        /* \"#utility.yul\":4961:4967   */\n      dup3\n        /* \"#utility.yul\":4939:4968   */\n      tag_154\n      jump\t// in\n    tag_258:\n        /* \"#utility.yul\":4931:4968   */\n      swap1\n      pop\n        /* \"#utility.yul\":5023:5027   */\n      0x20\n        /* \"#utility.yul\":5017:5021   */\n      dup2\n        /* \"#utility.yul\":5013:5028   */\n      add\n        /* \"#utility.yul\":5005:5028   */\n      swap1\n      pop\n        /* \"#utility.yul\":4728:5035   */\n      swap2\n      swap1\n      pop\n      jump\t// out\n        /* \"#utility.yul\":5041:5189   */\n    tag_166:\n        /* \"#utility.yul\":5139:5145   */\n      dup3\n        /* \"#utility.yul\":5134:5137   */\n      dup2\n        /* \"#utility.yul\":5129:5132   */\n      dup4\n        /* \"#utility.yul\":5116:5146   */\n      calldatacopy\n        /* \"#utility.yul\":5180:5181   */\n      0x00\n        /* \"#utility.yul\":5171:5177   */\n      dup4\n        /* \"#utility.yul\":5166:5169   */\n      dup4\n        /* \"#utility.yul\":5162:5178   */\n      add\n        /* \"#utility.yul\":5155:5182   */\n      mstore\n        /* \"#utility.yul\":5041:5189   */\n      pop\n      pop\n      pop\n      jump\t// out\n        /* \"#utility.yul\":5195:5618   */\n    tag_167:\n        /* \"#utility.yul\":5272:5277   */\n      0x00\n        /* \"#utility.yul\":5297:5362   */\n      tag_261\n        /* \"#utility.yul\":5313:5361   */\n      tag_262\n        /* \"#utility.yul\":5354:5360   */\n      dup5\n        /* \"#utility.yul\":5313:5361   */\n      tag_165\n      jump\t// in\n    tag_262:\n        /* \"#utility.yul\":5297:5362   */\n      tag_164\n      jump\t// in\n    tag_261:\n        /* \"#utility.yul\":5288:5362   */\n      swap1\n      pop\n        /* \"#utility.yul\":5385:5391   */\n      dup3\n        /* \"#utility.yul\":5378:5383   */\n      dup2\n        /* \"#utility.yul\":5371:5392   */\n      mstore\n        /* \"#utility.yul\":5423:5427   */\n      0x20\n        /* \"#utility.yul\":5416:5421   */\n      dup2\n        /* \"#utility.yul\":5412:5428   */\n      add\n        /* \"#utility.yul\":5461:5464   */\n      dup5\n        /* \"#utility.yul\":5452:5458   */\n      dup5\n        /* \"#utility.yul\":5447:5450   */\n      dup5\n        /* \"#utility.yul\":5443:5459   */\n      add\n        /* \"#utility.yul\":5440:5465   */\n      gt\n        /* \"#utility.yul\":5437:5549   */\n      iszero\n      tag_263\n      jumpi\n        /* \"#utility.yul\":5468:5547   */\n      tag_264\n      tag_161\n      jump\t// in\n    tag_264:\n        /* \"#utility.yul\":5437:5549   */\n    tag_263:\n        /* \"#utility.yul\":5558:5612   */\n      tag_265\n        /* \"#utility.yul\":5605:5611   */\n      dup5\n        /* \"#utility.yul\":5600:5603   */\n      dup3\n        /* \"#utility.yul\":5595:5598   */\n      dup6\n        /* \"#utility.yul\":5558:5612   */\n      tag_166\n      jump\t// in\n    tag_265:\n        /* \"#utility.yul\":5278:5618   */\n      pop\n        /* \"#utility.yul\":5195:5618   */\n      swap4\n      swap3\n      pop\n      pop\n      pop\n      jump\t// out\n        /* \"#utility.yul\":5637:5975   */\n    tag_168:\n        /* \"#utility.yul\":5692:5697   */\n      0x00\n        /* \"#utility.yul\":5741:5744   */\n      dup3\n        /* \"#utility.yul\":5734:5738   */\n      0x1f\n        /* \"#utility.yul\":5726:5732   */\n      dup4\n        /* \"#utility.yul\":5722:5739   */\n      add\n        /* \"#utility.yul\":5718:5745   */\n      slt\n        /* \"#utility.yul\":5708:5830   */\n      tag_267\n      jumpi\n        /* \"#utility.yul\":5749:5828   */\n      tag_268\n      tag_160\n      jump\t// in\n    tag_268:\n        /* \"#utility.yul\":5708:5830   */\n    tag_267:\n        /* \"#utility.yul\":5866:5872   */\n      dup2\n        /* \"#utility.yul\":5853:5873   */\n      calldataload\n        /* \"#utility.yul\":5891:5969   */\n      tag_269\n        /* \"#utility.yul\":5965:5968   */\n      dup5\n        /* \"#utility.yul\":5957:5963   */\n      dup3\n        /* \"#utility.yul\":5950:5954   */\n      0x20\n        /* \"#utility.yul\":5942:5948   */\n      dup7\n        /* \"#utility.yul\":5938:5955   */\n      add\n        /* \"#utility.yul\":5891:5969   */\n      tag_167\n      jump\t// in\n    tag_269:\n        /* \"#utility.yul\":5882:5969   */\n      swap2\n      pop\n        /* \"#utility.yul\":5698:5975   */\n      pop\n        /* \"#utility.yul\":5637:5975   */\n      swap3\n      swap2\n      pop\n      pop\n      jump\t// out\n        /* \"#utility.yul\":5981:6778   */\n    tag_30:\n        /* \"#utility.yul\":6067:6073   */\n      0x00\n        /* \"#utility.yul\":6075:6081   */\n      dup1\n        /* \"#utility.yul\":6083:6089   */\n      0x00\n        /* \"#utility.yul\":6132:6134   */\n      0x60\n        /* \"#utility.yul\":6120:6129   */\n      dup5\n        /* \"#utility.yul\":6111:6118   */\n      dup7\n        /* \"#utility.yul\":6107:6130   */\n      sub\n        /* \"#utility.yul\":6103:6135   */\n      slt\n        /* \"#utility.yul\":6100:6219   */\n      iszero\n      tag_271\n      jumpi\n        /* \"#utility.yul\":6138:6217   */\n      tag_272\n      tag_142\n      jump\t// in\n    tag_272:\n        /* \"#utility.yul\":6100:6219   */\n    tag_271:\n        /* \"#utility.yul\":6258:6259   */\n      0x00\n        /* \"#utility.yul\":6283:6336   */\n      tag_273\n        /* \"#utility.yul\":6328:6335   */\n      dup7\n        /* \"#utility.yul\":6319:6325   */\n      dup3\n        /* \"#utility.yul\":6308:6317   */\n      dup8\n        /* \"#utility.yul\":6304:6326   */\n      add\n        /* \"#utility.yul\":6283:6336   */\n      tag_159\n      jump\t// in\n    tag_273:\n        /* \"#utility.yul\":6273:6336   */\n      swap4\n      pop\n        /* \"#utility.yul\":6229:6346   */\n      pop\n        /* \"#utility.yul\":6385:6387   */\n      0x20\n        /* \"#utility.yul\":6411:6464   */\n      tag_274\n        /* \"#utility.yul\":6456:6463   */\n      dup7\n        /* \"#utility.yul\":6447:6453   */\n      dup3\n        /* \"#utility.yul\":6436:6445   */\n      dup8\n        /* \"#utility.yul\":6432:6454   */\n      add\n        /* \"#utility.yul\":6411:6464   */\n      tag_146\n      jump\t// in\n    tag_274:\n        /* \"#utility.yul\":6401:6464   */\n      swap3\n      pop\n        /* \"#utility.yul\":6356:6474   */\n      pop\n        /* \"#utility.yul\":6541:6543   */\n      0x40\n        /* \"#utility.yul\":6530:6539   */\n      dup5\n        /* \"#utility.yul\":6526:6544   */\n      add\n        /* \"#utility.yul\":6513:6545   */\n      calldataload\n        /* \"#utility.yul\":6572:6590   */\n      0xffffffffffffffff\n        /* \"#utility.yul\":6564:6570   */\n      dup2\n        /* \"#utility.yul\":6561:6591   */\n      gt\n        /* \"#utility.yul\":6558:6675   */\n      iszero\n      tag_275\n      jumpi\n        /* \"#utility.yul\":6594:6673   */\n      tag_276\n      tag_143\n      jump\t// in\n    tag_276:\n        /* \"#utility.yul\":6558:6675   */\n    tag_275:\n        /* \"#utility.yul\":6699:6761   */\n      tag_277\n        /* \"#utility.yul\":6753:6760   */\n      dup7\n        /* \"#utility.yul\":6744:6750   */\n      dup3\n        /* \"#utility.yul\":6733:6742   */\n      dup8\n        /* \"#utility.yul\":6729:6751   */\n      add\n        /* \"#utility.yul\":6699:6761   */\n      tag_168\n      jump\t// in\n    tag_277:\n        /* \"#utility.yul\":6689:6761   */\n      swap2\n      pop\n        /* \"#utility.yul\":6484:6771   */\n      pop\n        /* \"#utility.yul\":5981:6778   */\n      swap3\n      pop\n      swap3\n      pop\n      swap3\n      jump\t// out\n        /* \"#utility.yul\":6784:7006   */\n    tag_36:\n        /* \"#utility.yul\":6877:6881   */\n      0x00\n        /* \"#utility.yul\":6915:6917   */\n      0x20\n        /* \"#utility.yul\":6904:6913   */\n      dup3\n        /* \"#utility.yul\":6900:6918   */\n      add\n        /* \"#utility.yul\":6892:6918   */\n      swap1\n      pop\n        /* \"#utility.yul\":6928:6999   */\n      tag_279\n        /* \"#utility.yul\":6996:6997   */\n      0x00\n        /* \"#utility.yul\":6985:6994   */\n      dup4\n        /* \"#utility.yul\":6981:6998   */\n      add\n        /* \"#utility.yul\":6972:6978   */\n      dup5\n        /* \"#utility.yul\":6928:6999   */\n      tag_150\n      jump\t// in\n    tag_279:\n        /* \"#utility.yul\":6784:7006   */\n      swap3\n      swap2\n      pop\n      pop\n      jump\t// out\n        /* \"#utility.yul\":7012:7486   */\n    tag_52:\n        /* \"#utility.yul\":7080:7086   */\n      0x00\n        /* \"#utility.yul\":7088:7094   */\n      dup1\n        /* \"#utility.yul\":7137:7139   */\n      0x40\n        /* \"#utility.yul\":7125:7134   */\n      dup4\n        /* \"#utility.yul\":7116:7123   */\n      dup6\n        /* \"#utility.yul\":7112:7135   */\n      sub\n        /* \"#utility.yul\":7108:7140   */\n      slt\n        /* \"#utility.yul\":7105:7224   */\n      iszero\n      tag_281\n      jumpi\n        /* \"#utility.yul\":7143:7222   */\n      tag_282\n      tag_142\n      jump\t// in\n    tag_282:\n        /* \"#utility.yul\":7105:7224   */\n    tag_281:\n        /* \"#utility.yul\":7263:7264   */\n      0x00\n        /* \"#utility.yul\":7288:7341   */\n      tag_283\n        /* \"#utility.yul\":7333:7340   */\n      dup6\n        /* \"#utility.yul\":7324:7330   */\n      dup3\n        /* \"#utility.yul\":7313:7322   */\n      dup7\n        /* \"#utility.yul\":7309:7331   */\n      add\n        /* \"#utility.yul\":7288:7341   */\n      tag_159\n      jump\t// in\n    tag_283:\n        /* \"#utility.yul\":7278:7341   */\n      swap3\n      pop\n        /* \"#utility.yul\":7234:7351   */\n      pop\n        /* \"#utility.yul\":7390:7392   */\n      0x20\n        /* \"#utility.yul\":7416:7469   */\n      tag_284\n        /* \"#utility.yul\":7461:7468   */\n      dup6\n        /* \"#utility.yul\":7452:7458   */\n      dup3\n        /* \"#utility.yul\":7441:7450   */\n      dup7\n        /* \"#utility.yul\":7437:7459   */\n      add\n        /* \"#utility.yul\":7416:7469   */\n      tag_146\n      jump\t// in\n    tag_284:\n        /* \"#utility.yul\":7406:7469   */\n      swap2\n      pop\n        /* \"#utility.yul\":7361:7479   */\n      pop\n        /* \"#utility.yul\":7012:7486   */\n      swap3\n      pop\n      swap3\n      swap1\n      pop\n      jump\t// out\n        /* \"#utility.yul\":7492:7702   */\n    tag_55:\n        /* \"#utility.yul\":7579:7583   */\n      0x00\n        /* \"#utility.yul\":7617:7619   */\n      0x20\n        /* \"#utility.yul\":7606:7615   */\n      dup3\n        /* \"#utility.yul\":7602:7620   */\n      add\n        /* \"#utility.yul\":7594:7620   */\n      swap1\n      pop\n        /* \"#utility.yul\":7630:7695   */\n      tag_286\n        /* \"#utility.yul\":7692:7693   */\n      0x00\n        /* \"#utility.yul\":7681:7690   */\n      dup4\n        /* \"#utility.yul\":7677:7694   */\n      add\n        /* \"#utility.yul\":7668:7674   */\n      dup5\n        /* \"#utility.yul\":7630:7695   */\n      tag_157\n      jump\t// in\n    tag_286:\n        /* \"#utility.yul\":7492:7702   */\n      swap3\n      swap2\n      pop\n      pop\n      jump\t// out\n        /* \"#utility.yul\":7708:7888   */\n    tag_169:\n        /* \"#utility.yul\":7756:7833   */\n      0x4e487b7100000000000000000000000000000000000000000000000000000000\n        /* \"#utility.yul\":7753:7754   */\n      0x00\n        /* \"#utility.yul\":7746:7834   */\n      mstore\n        /* \"#utility.yul\":7853:7857   */\n      0x22\n        /* \"#utility.yul\":7850:7851   */\n      0x04\n        /* \"#utility.yul\":7843:7858   */\n      mstore\n        /* \"#utility.yul\":7877:7881   */\n      0x24\n        /* \"#utility.yul\":7874:7875   */\n      0x00\n        /* \"#utility.yul\":7867:7882   */\n      revert\n        /* \"#utility.yul\":7894:8214   */\n    tag_59:\n        /* \"#utility.yul\":7938:7944   */\n      0x00\n        /* \"#utility.yul\":7975:7976   */\n      0x02\n        /* \"#utility.yul\":7969:7973   */\n      dup3\n        /* \"#utility.yul\":7965:7977   */\n      div\n        /* \"#utility.yul\":7955:7977   */\n      swap1\n      pop\n        /* \"#utility.yul\":8022:8023   */\n      0x01\n        /* \"#utility.yul\":8016:8020   */\n      dup3\n        /* \"#utility.yul\":8012:8024   */\n      and\n        /* \"#utility.yul\":8043:8061   */\n      dup1\n        /* \"#utility.yul\":8033:8114   */\n      tag_289\n      jumpi\n        /* \"#utility.yul\":8099:8103   */\n      0x7f\n        /* \"#utility.yul\":8091:8097   */\n      dup3\n        /* \"#utility.yul\":8087:8104   */\n      and\n        /* \"#utility.yul\":8077:8104   */\n      swap2\n      pop\n        /* \"#utility.yul\":8033:8114   */\n    tag_289:\n        /* \"#utility.yul\":8161:8163   */\n      0x20\n        /* \"#utility.yul\":8153:8159   */\n      dup3\n        /* \"#utility.yul\":8150:8164   */\n      lt\n        /* \"#utility.yul\":8130:8148   */\n      dup2\n        /* \"#utility.yul\":8127:8165   */\n      sub\n        /* \"#utility.yul\":8124:8208   */\n      tag_290\n      jumpi\n        /* \"#utility.yul\":8180:8198   */\n      tag_291\n      tag_169\n      jump\t// in\n    tag_291:\n        /* \"#utility.yul\":8124:8208   */\n    tag_290:\n        /* \"#utility.yul\":7945:8214   */\n      pop\n        /* \"#utility.yul\":7894:8214   */\n      swap2\n      swap1\n      pop\n      jump\t// out\n        /* \"#utility.yul\":8220:8400   */\n    tag_72:\n        /* \"#utility.yul\":8268:8345   */\n      0x4e487b7100000000000000000000000000000000000000000000000000000000\n        /* \"#utility.yul\":8265:8266   */\n      0x00\n        /* \"#utility.yul\":8258:8346   */\n      mstore\n        /* \"#utility.yul\":8365:8369   */\n      0x32\n        /* \"#utility.yul\":8362:8363   */\n      0x04\n        /* \"#utility.yul\":8355:8370   */\n      mstore\n        /* \"#utility.yul\":8389:8393   */\n      0x24\n        /* \"#utility.yul\":8386:8387   */\n      0x00\n        /* \"#utility.yul\":8379:8394   */\n      revert\n        /* \"#utility.yul\":8406:8575   */\n    tag_170:\n        /* \"#utility.yul\":8490:8501   */\n      0x00\n        /* \"#utility.yul\":8524:8530   */\n      dup3\n        /* \"#utility.yul\":8519:8522   */\n      dup3\n        /* \"#utility.yul\":8512:8531   */\n      mstore\n        /* \"#utility.yul\":8564:8568   */\n      0x20\n        /* \"#utility.yul\":8559:8562   */\n      dup3\n        /* \"#utility.yul\":8555:8569   */\n      add\n        /* \"#utility.yul\":8540:8569   */\n      swap1\n      pop\n        /* \"#utility.yul\":8406:8575   */\n      swap3\n      swap2\n      pop\n      pop\n      jump\t// out\n        /* \"#utility.yul\":8581:8743   */\n    tag_171:\n        /* \"#utility.yul\":8721:8735   */\n      0x4e6f7420616e206f776e65720000000000000000000000000000000000000000\n        /* \"#utility.yul\":8717:8718   */\n      0x00\n        /* \"#utility.yul\":8709:8715   */\n      dup3\n        /* \"#utility.yul\":8705:8719   */\n      add\n        /* \"#utility.yul\":8698:8736   */\n      mstore\n        /* \"#utility.yul\":8581:8743   */\n      pop\n      jump\t// out\n        /* \"#utility.yul\":8749:9115   */\n    tag_172:\n        /* \"#utility.yul\":8891:8894   */\n      0x00\n        /* \"#utility.yul\":8912:8979   */\n      tag_296\n        /* \"#utility.yul\":8976:8978   */\n      0x0c\n        /* \"#utility.yul\":8971:8974   */\n      dup4\n        /* \"#utility.yul\":8912:8979   */\n      tag_170\n      jump\t// in\n    tag_296:\n        /* \"#utility.yul\":8905:8979   */\n      swap2\n      pop\n        /* \"#utility.yul\":8988:9081   */\n      tag_297\n        /* \"#utility.yul\":9077:9080   */\n      dup3\n        /* \"#utility.yul\":8988:9081   */\n      tag_171\n      jump\t// in\n    tag_297:\n        /* \"#utility.yul\":9106:9108   */\n      0x20\n        /* \"#utility.yul\":9101:9104   */\n      dup3\n        /* \"#utility.yul\":9097:9109   */\n      add\n        /* \"#utility.yul\":9090:9109   */\n      swap1\n      pop\n        /* \"#utility.yul\":8749:9115   */\n      swap2\n      swap1\n      pop\n      jump\t// out\n        /* \"#utility.yul\":9121:9540   */\n    tag_77:\n        /* \"#utility.yul\":9287:9291   */\n      0x00\n        /* \"#utility.yul\":9325:9327   */\n      0x20\n        /* \"#utility.yul\":9314:9323   */\n      dup3\n        /* \"#utility.yul\":9310:9328   */\n      add\n        /* \"#utility.yul\":9302:9328   */\n      swap1\n      pop\n        /* \"#utility.yul\":9374:9383   */\n      dup2\n        /* \"#utility.yul\":9368:9372   */\n      dup2\n        /* \"#utility.yul\":9364:9384   */\n      sub\n        /* \"#utility.yul\":9360:9361   */\n      0x00\n        /* \"#utility.yul\":9349:9358   */\n      dup4\n        /* \"#utility.yul\":9345:9362   */\n      add\n        /* \"#utility.yul\":9338:9385   */\n      mstore\n        /* \"#utility.yul\":9402:9533   */\n      tag_299\n        /* \"#utility.yul\":9528:9532   */\n      dup2\n        /* \"#utility.yul\":9402:9533   */\n      tag_172\n      jump\t// in\n    tag_299:\n        /* \"#utility.yul\":9394:9533   */\n      swap1\n      pop\n        /* \"#utility.yul\":9121:9540   */\n      swap2\n      swap1\n      pop\n      jump\t// out\n        /* \"#utility.yul\":9546:9686   */\n    tag_173:\n        /* \"#utility.yul\":9594:9598   */\n      0x00\n        /* \"#utility.yul\":9617:9620   */\n      dup2\n        /* \"#utility.yul\":9609:9620   */\n      swap1\n      pop\n        /* \"#utility.yul\":9640:9643   */\n      dup2\n        /* \"#utility.yul\":9637:9638   */\n      0x00\n        /* \"#utility.yul\":9630:9644   */\n      mstore\n        /* \"#utility.yul\":9674:9678   */\n      0x20\n        /* \"#utility.yul\":9671:9672   */\n      0x00\n        /* \"#utility.yul\":9661:9679   */\n      keccak256\n        /* \"#utility.yul\":9653:9679   */\n      swap1\n      pop\n        /* \"#utility.yul\":9546:9686   */\n      swap2\n      swap1\n      pop\n      jump\t// out\n        /* \"#utility.yul\":9692:9785   */\n    tag_174:\n        /* \"#utility.yul\":9729:9735   */\n      0x00\n        /* \"#utility.yul\":9776:9778   */\n      0x20\n        /* \"#utility.yul\":9771:9773   */\n      0x1f\n        /* \"#utility.yul\":9764:9769   */\n      dup4\n        /* \"#utility.yul\":9760:9774   */\n      add\n        /* \"#utility.yul\":9756:9779   */\n      div\n        /* \"#utility.yul\":9746:9779   */\n      swap1\n      pop\n        /* \"#utility.yul\":9692:9785   */\n      swap2\n      swap1\n      pop\n      jump\t// out\n        /* \"#utility.yul\":9791:9898   */\n    tag_175:\n        /* \"#utility.yul\":9835:9843   */\n      0x00\n        /* \"#utility.yul\":9885:9890   */\n      dup3\n        /* \"#utility.yul\":9879:9883   */\n      dup3\n        /* \"#utility.yul\":9875:9891   */\n      shl\n        /* \"#utility.yul\":9854:9891   */\n      swap1\n      pop\n        /* \"#utility.yul\":9791:9898   */\n      swap3\n      swap2\n      pop\n      pop\n      jump\t// out\n        /* \"#utility.yul\":9904:10297   */\n    tag_176:\n        /* \"#utility.yul\":9973:9979   */\n      0x00\n        /* \"#utility.yul\":10023:10024   */\n      0x08\n        /* \"#utility.yul\":10011:10021   */\n      dup4\n        /* \"#utility.yul\":10007:10025   */\n      mul\n        /* \"#utility.yul\":10046:10143   */\n      tag_304\n        /* \"#utility.yul\":10076:10142   */\n      0xffffffffffffffffffffffffffffffffffffffffffffffffffffffffffffffff\n        /* \"#utility.yul\":10065:10074   */\n      dup3\n        /* \"#utility.yul\":10046:10143   */\n      tag_175\n      jump\t// in\n    tag_304:\n        /* \"#utility.yul\":10164:10203   */\n      tag_305\n        /* \"#utility.yul\":10194:10202   */\n      dup7\n        /* \"#utility.yul\":10183:10192   */\n      dup4\n        /* \"#utility.yul\":10164:10203   */\n      tag_175\n      jump\t// in\n    tag_305:\n        /* \"#utility.yul\":10152:10203   */\n      swap6\n      pop\n        /* \"#utility.yul\":10236:10240   */\n      dup1\n        /* \"#utility.yul\":10232:10241   */\n      not\n        /* \"#utility.yul\":10225:10230   */\n      dup5\n        /* \"#utility.yul\":10221:10242   */\n      and\n        /* \"#utility.yul\":10212:10242   */\n      swap4\n      pop\n        /* \"#utility.yul\":10285:10289   */\n      dup1\n        /* \"#utility.yul\":10275:10283   */\n      dup7\n        /* \"#utility.yul\":10271:10290   */\n      and\n        /* \"#utility.yul\":10264:10269   */\n      dup5\n        /* \"#utility.yul\":10261:10291   */\n      or\n        /* \"#utility.yul\":10251:10291   */\n      swap3\n      pop\n        /* \"#utility.yul\":9980:10297   */\n      pop\n      pop\n        /* \"#utility.yul\":9904:10297   */\n      swap4\n      swap3\n      pop\n      pop\n      pop\n      jump\t// out\n        /* \"#utility.yul\":10303:10363   */\n    tag_177:\n        /* \"#utility.yul\":10331:10334   */\n      0x00\n        /* \"#utility.yul\":10352:10357   */\n      dup2\n        /* \"#utility.yul\":10345:10357   */\n      swap1\n      pop\n        /* \"#utility.yul\":10303:10363   */\n      swap2\n      swap1\n      pop\n      jump\t// out\n        /* \"#utility.yul\":10369:10511   */\n    tag_178:\n        /* \"#utility.yul\":10419:10428   */\n      0x00\n        /* \"#utility.yul\":10452:10505   */\n      tag_308\n        /* \"#utility.yul\":10470:10504   */\n      tag_309\n        /* \"#utility.yul\":10479:10503   */\n      tag_310\n        /* \"#utility.yul\":10497:10502   */\n      dup5\n        /* \"#utility.yul\":10479:10503   */\n      tag_144\n      jump\t// in\n    tag_310:\n        /* \"#utility.yul\":10470:10504   */\n      tag_177\n      jump\t// in\n    tag_309:\n        /* \"#utility.yul\":10452:10505   */\n      tag_144\n      jump\t// in\n    tag_308:\n        /* \"#utility.yul\":10439:10505   */\n      swap1\n      pop\n        /* \"#utility.yul\":10369:10511   */\n      swap2\n      swap1\n      pop\n      jump\t// out\n        /* \"#utility.yul\":10517:10592   */\n    tag_179:\n        /* \"#utility.yul\":10560:10563   */\n      0x00\n        /* \"#utility.yul\":10581:10586   */\n      dup2\n        /* \"#utility.yul\":10574:10586   */\n      swap1\n      pop\n        /* \"#utility.yul\":10517:10592   */\n      swap2\n      swap1\n      pop\n      jump\t// out\n        /* \"#utility.yul\":10598:10867   */\n    tag_180:\n        /* \"#utility.yul\":10708:10747   */\n      tag_313\n        /* \"#utility.yul\":10739:10746   */\n      dup4\n        /* \"#utility.yul\":10708:10747   */\n      tag_178\n      jump\t// in\n    tag_313:\n        /* \"#utility.yul\":10769:10860   */\n      tag_314\n        /* \"#utility.yul\":10818:10859   */\n      tag_315\n        /* \"#utility.yul\":10842:10858   */\n      dup3\n        /* \"#utility.yul\":10818:10859   */\n      tag_179\n      jump\t// in\n    tag_315:\n        /* \"#utility.yul\":10810:10816   */\n      dup5\n        /* \"#utility.yul\":10803:10807   */\n      dup5\n        /* \"#utility.yul\":10797:10808   */\n      sload\n        /* \"#utility.yul\":10769:10860   */\n      tag_176\n      jump\t// in\n    tag_314:\n        /* \"#utility.yul\":10763:10767   */\n      dup3\n        /* \"#utility.yul\":10756:10861   */\n      sstore\n        /* \"#utility.yul\":10674:10867   */\n      pop\n        /* \"#utility.yul\":10598:10867   */\n      pop\n      pop\n      pop\n      jump\t// out\n        /* \"#utility.yul\":10873:10946   */\n    tag_181:\n        /* \"#utility.yul\":10918:10921   */\n      0x00\n        /* \"#utility.yul\":10873:10946   */\n      swap1\n      jump\t// out\n        /* \"#utility.yul\":10952:11141   */\n    tag_182:\n        /* \"#utility.yul\":11029:11061   */\n      tag_318\n      tag_181\n      jump\t// in\n    tag_318:\n        /* \"#utility.yul\":11070:11135   */\n      tag_319\n        /* \"#utility.yul\":11128:11134   */\n      dup2\n        /* \"#utility.yul\":11120:11126   */\n      dup5\n        /* \"#utility.yul\":11114:11118   */\n      dup5\n        /* \"#utility.yul\":11070:11135   */\n      tag_180\n      jump\t// in\n    tag_319:\n        /* \"#utility.yul\":11005:11141   */\n      pop\n        /* \"#utility.yul\":10952:11141   */\n      pop\n      pop\n      jump\t// out\n        /* \"#utility.yul\":11147:11333   */\n    tag_183:\n        /* \"#utility.yul\":11207:11327   */\n    tag_321:\n        /* \"#utility.yul\":11224:11227   */\n      dup2\n        /* \"#utility.yul\":11217:11222   */\n      dup2\n        /* \"#utility.yul\":11214:11228   */\n      lt\n        /* \"#utility.yul\":11207:11327   */\n      iszero\n      tag_323\n      jumpi\n        /* \"#utility.yul\":11278:11317   */\n      tag_324\n        /* \"#utility.yul\":11315:11316   */\n      0x00\n        /* \"#utility.yul\":11308:11313   */\n      dup3\n        /* \"#utility.yul\":11278:11317   */\n      tag_182\n      jump\t// in\n    tag_324:\n        /* \"#utility.yul\":11251:11252   */\n      0x01\n        /* \"#utility.yul\":11244:11249   */\n      dup2\n        /* \"#utility.yul\":11240:11253   */\n      add\n        /* \"#utility.yul\":11231:11253   */\n      swap1\n      pop\n        /* \"#utility.yul\":11207:11327   */\n      jump(tag_321)\n    tag_323:\n        /* \"#utility.yul\":11147:11333   */\n      pop\n      pop\n      jump\t// out\n        /* \"#utility.yul\":11339:11880   */\n    tag_184:\n        /* \"#utility.yul\":11439:11441   */\n      0x1f\n        /* \"#utility.yul\":11434:11437   */\n      dup3\n        /* \"#utility.yul\":11431:11442   */\n      gt\n        /* \"#utility.yul\":11428:11873   */\n      iszero\n      tag_326\n      jumpi\n        /* \"#utility.yul\":11473:11510   */\n      tag_327\n        /* \"#utility.yul\":11504:11509   */\n      dup2\n        /* \"#utility.yul\":11473:11510   */\n      tag_173\n      jump\t// in\n    tag_327:\n        /* \"#utility.yul\":11556:11585   */\n      tag_328\n        /* \"#utility.yul\":11574:11584   */\n      dup5\n        /* \"#utility.yul\":11556:11585   */\n      tag_174\n      jump\t// in\n    tag_328:\n        /* \"#utility.yul\":11546:11554   */\n      dup2\n        /* \"#utility.yul\":11542:11586   */\n      add\n        /* \"#utility.yul\":11739:11741   */\n      0x20\n        /* \"#utility.yul\":11727:11737   */\n      dup6\n        /* \"#utility.yul\":11724:11742   */\n      lt\n        /* \"#utility.yul\":11721:11770   */\n      iszero\n      tag_329\n      jumpi\n        /* \"#utility.yul\":11760:11768   */\n      dup2\n        /* \"#utility.yul\":11745:11768   */\n      swap1\n      pop\n        /* \"#utility.yul\":11721:11770   */\n    tag_329:\n        /* \"#utility.yul\":11783:11863   */\n      tag_330\n        /* \"#utility.yul\":11839:11861   */\n      tag_331\n        /* \"#utility.yul\":11857:11860   */\n      dup6\n        /* \"#utility.yul\":11839:11861   */\n      tag_174\n      jump\t// in\n    tag_331:\n        /* \"#utility.yul\":11829:11837   */\n      dup4\n        /* \"#utility.yul\":11825:11862   */\n      add\n        /* \"#utility.yul\":11812:11823   */\n      dup3\n        /* \"#utility.yul\":11783:11863   */\n      tag_183\n      jump\t// in\n    tag_330:\n        /* \"#utility.yul\":11443:11873   */\n      pop\n      pop\n        /* \"#utility.yul\":11428:11873   */\n    tag_326:\n        /* \"#utility.yul\":11339:11880   */\n      pop\n      pop\n      pop\n      jump\t// out\n        /* \"#utility.yul\":11886:12003   */\n    tag_185:\n        /* \"#utility.yul\":11940:11948   */\n      0x00\n        /* \"#utility.yul\":11990:11995   */\n      dup3\n        /* \"#utility.yul\":11984:11988   */\n      dup3\n        /* \"#utility.yul\":11980:11996   */\n      shr\n        /* \"#utility.yul\":11959:11996   */\n      swap1\n      pop\n        /* \"#utility.yul\":11886:12003   */\n      swap3\n      swap2\n      pop\n      pop\n      jump\t// out\n        /* \"#utility.yul\":12009:12178   */\n    tag_186:\n        /* \"#utility.yul\":12053:12059   */\n      0x00\n        /* \"#utility.yul\":12086:12137   */\n      tag_334\n        /* \"#utility.yul\":12134:12135   */\n      0x00\n        /* \"#utility.yul\":12130:12136   */\n      not\n        /* \"#utility.yul\":12122:12127   */\n      dup5\n        /* \"#utility.yul\":12119:12120   */\n      0x08\n        /* \"#utility.yul\":12115:12128   */\n      mul\n        /* \"#utility.yul\":12086:12137   */\n      tag_185\n      jump\t// in\n    tag_334:\n        /* \"#utility.yul\":12082:12138   */\n      not\n        /* \"#utility.yul\":12167:12171   */\n      dup1\n        /* \"#utility.yul\":12161:12165   */\n      dup4\n        /* \"#utility.yul\":12157:12172   */\n      and\n        /* \"#utility.yul\":12147:12172   */\n      swap2\n      pop\n        /* \"#utility.yul\":12060:12178   */\n      pop\n        /* \"#utility.yul\":12009:12178   */\n      swap3\n      swap2\n      pop\n      pop\n      jump\t// out\n        /* \"#utility.yul\":12183:12478   */\n    tag_187:\n        /* \"#utility.yul\":12259:12263   */\n      0x00\n        /* \"#utility.yul\":12405:12434   */\n      tag_336\n        /* \"#utility.yul\":12430:12433   */\n      dup4\n        /* \"#utility.yul\":12424:12428   */\n      dup4\n        /* \"#utility.yul\":12405:12434   */\n      tag_186\n      jump\t// in\n    tag_336:\n        /* \"#utility.yul\":12397:12434   */\n      swap2\n      pop\n        /* \"#utility.yul\":12467:12470   */\n      dup3\n        /* \"#utility.yul\":12464:12465   */\n      0x02\n        /* \"#utility.yul\":12460:12471   */\n      mul\n        /* \"#utility.yul\":12454:12458   */\n      dup3\n        /* \"#utility.yul\":12451:12472   */\n      or\n        /* \"#utility.yul\":12443:12472   */\n      swap1\n      pop\n        /* \"#utility.yul\":12183:12478   */\n      swap3\n      swap2\n      pop\n      pop\n      jump\t// out\n        /* \"#utility.yul\":12483:13873   */\n    tag_81:\n        /* \"#utility.yul\":12598:12634   */\n      tag_338\n        /* \"#utility.yul\":12630:12633   */\n      dup3\n        /* \"#utility.yul\":12598:12634   */\n      tag_151\n      jump\t// in\n    tag_338:\n        /* \"#utility.yul\":12699:12717   */\n      0xffffffffffffffff\n        /* \"#utility.yul\":12691:12697   */\n      dup2\n        /* \"#utility.yul\":12688:12718   */\n      gt\n        /* \"#utility.yul\":12685:12741   */\n      iszero\n      tag_339\n      jumpi\n        /* \"#utility.yul\":12721:12739   */\n      tag_340\n      tag_162\n      jump\t// in\n    tag_340:\n        /* \"#utility.yul\":12685:12741   */\n    tag_339:\n        /* \"#utility.yul\":12765:12803   */\n      tag_341\n        /* \"#utility.yul\":12797:12801   */\n      dup3\n        /* \"#utility.yul\":12791:12802   */\n      sload\n        /* \"#utility.yul\":12765:12803   */\n      tag_59\n      jump\t// in\n    tag_341:\n        /* \"#utility.yul\":12850:12916   */\n      tag_342\n        /* \"#utility.yul\":12909:12915   */\n      dup3\n        /* \"#utility.yul\":12901:12907   */\n      dup3\n        /* \"#utility.yul\":12895:12899   */\n      dup6\n        /* \"#utility.yul\":12850:12916   */\n      tag_184\n      jump\t// in\n    tag_342:\n        /* \"#utility.yul\":12943:12944   */\n      0x00\n        /* \"#utility.yul\":12967:12971   */\n      0x20\n        /* \"#utility.yul\":12954:12971   */\n      swap1\n      pop\n        /* \"#utility.yul\":12999:13001   */\n      0x1f\n        /* \"#utility.yul\":12991:12997   */\n      dup4\n        /* \"#utility.yul\":12988:13002   */\n      gt\n        /* \"#utility.yul\":13016:13017   */\n      0x01\n        /* \"#utility.yul\":13011:13628   */\n      dup2\n      eq\n      tag_344\n      jumpi\n        /* \"#utility.yul\":13672:13673   */\n      0x00\n        /* \"#utility.yul\":13689:13695   */\n      dup5\n        /* \"#utility.yul\":13686:13763   */\n      iszero\n      tag_345\n      jumpi\n        /* \"#utility.yul\":13738:13747   */\n      dup3\n        /* \"#utility.yul\":13733:13736   */\n      dup8\n        /* \"#utility.yul\":13729:13748   */\n      add\n        /* \"#utility.yul\":13723:13749   */\n      mload\n        /* \"#utility.yul\":13714:13749   */\n      swap1\n      pop\n        /* \"#utility.yul\":13686:13763   */\n    tag_345:\n        /* \"#utility.yul\":13789:13856   */\n      tag_346\n        /* \"#utility.yul\":13849:13855   */\n      dup6\n        /* \"#utility.yul\":13842:13847   */\n      dup3\n        /* \"#utility.yul\":13789:13856   */\n      tag_187\n      jump\t// in\n    tag_346:\n        /* \"#utility.yul\":13783:13787   */\n      dup7\n        /* \"#utility.yul\":13776:13857   */\n      sstore\n        /* \"#utility.yul\":13645:13867   */\n      pop\n        /* \"#utility.yul\":12981:13867   */\n      jump(tag_343)\n        /* \"#utility.yul\":13011:13628   */\n    tag_344:\n        /* \"#utility.yul\":13063:13067   */\n      0x1f\n        /* \"#utility.yul\":13059:13068   */\n      not\n        /* \"#utility.yul\":13051:13057   */\n      dup5\n        /* \"#utility.yul\":13047:13069   */\n      and\n        /* \"#utility.yul\":13097:13133   */\n      tag_347\n        /* \"#utility.yul\":13128:13132   */\n      dup7\n        /* \"#utility.yul\":13097:13133   */\n      tag_173\n      jump\t// in\n    tag_347:\n        /* \"#utility.yul\":13155:13156   */\n      0x00\n        /* \"#utility.yul\":13169:13377   */\n    tag_348:\n        /* \"#utility.yul\":13183:13190   */\n      dup3\n        /* \"#utility.yul\":13180:13181   */\n      dup2\n        /* \"#utility.yul\":13177:13191   */\n      lt\n        /* \"#utility.yul\":13169:13377   */\n      iszero\n      tag_350\n      jumpi\n        /* \"#utility.yul\":13262:13271   */\n      dup5\n        /* \"#utility.yul\":13257:13260   */\n      dup10\n        /* \"#utility.yul\":13253:13272   */\n      add\n        /* \"#utility.yul\":13247:13273   */\n      mload\n        /* \"#utility.yul\":13239:13245   */\n      dup3\n        /* \"#utility.yul\":13232:13274   */\n      sstore\n        /* \"#utility.yul\":13313:13314   */\n      0x01\n        /* \"#utility.yul\":13305:13311   */\n      dup3\n        /* \"#utility.yul\":13301:13315   */\n      add\n        /* \"#utility.yul\":13291:13315   */\n      swap2\n      pop\n        /* \"#utility.yul\":13360:13362   */\n      0x20\n        /* \"#utility.yul\":13349:13358   */\n      dup6\n        /* \"#utility.yul\":13345:13363   */\n      add\n        /* \"#utility.yul\":13332:13363   */\n      swap5\n      pop\n        /* \"#utility.yul\":13206:13210   */\n      0x20\n        /* \"#utility.yul\":13203:13204   */\n      dup2\n        /* \"#utility.yul\":13199:13211   */\n      add\n        /* \"#utility.yul\":13194:13211   */\n      swap1\n      pop\n        /* \"#utility.yul\":13169:13377   */\n      jump(tag_348)\n    tag_350:\n        /* \"#utility.yul\":13405:13411   */\n      dup7\n        /* \"#utility.yul\":13396:13403   */\n      dup4\n        /* \"#utility.yul\":13393:13412   */\n      lt\n        /* \"#utility.yul\":13390:13569   */\n      iszero\n      tag_351\n      jumpi\n        /* \"#utility.yul\":13463:13472   */\n      dup5\n        /* \"#utility.yul\":13458:13461   */\n      dup10\n        /* \"#utility.yul\":13454:13473   */\n      add\n        /* \"#utility.yul\":13448:13474   */\n      mload\n        /* \"#utility.yul\":13506:13554   */\n      tag_352\n        /* \"#utility.yul\":13548:13552   */\n      0x1f\n        /* \"#utility.yul\":13540:13546   */\n      dup10\n        /* \"#utility.yul\":13536:13553   */\n      and\n        /* \"#utility.yul\":13525:13534   */\n      dup3\n        /* \"#utility.yul\":13506:13554   */\n      tag_186\n      jump\t// in\n    tag_352:\n        /* \"#utility.yul\":13498:13504   */\n      dup4\n        /* \"#utility.yul\":13491:13555   */\n      sstore\n        /* \"#utility.yul\":13413:13569   */\n      pop\n        /* \"#utility.yul\":13390:13569   */\n    tag_351:\n        /* \"#utility.yul\":13615:13616   */\n      0x01\n        /* \"#utility.yul\":13611:13612   */\n      0x02\n        /* \"#utility.yul\":13603:13609   */\n      dup9\n        /* \"#utility.yul\":13599:13613   */\n      mul\n        /* \"#utility.yul\":13595:13617   */\n      add\n        /* \"#utility.yul\":13589:13593   */\n      dup9\n        /* \"#utility.yul\":13582:13618   */\n      sstore\n        /* \"#utility.yul\":13018:13628   */\n      pop\n      pop\n      pop\n        /* \"#utility.yul\":12981:13867   */\n    tag_343:\n      pop\n        /* \"#utility.yul\":12573:13873   */\n      pop\n      pop\n      pop\n        /* \"#utility.yul\":12483:13873   */\n      pop\n      pop\n      jump\t// out\n        /* \"#utility.yul\":13879:14052   */\n    tag_188:\n        /* \"#utility.yul\":14019:14044   */\n      0x50726f706f73616c20646f6573206e6f74206578697374000000000000000000\n        /* \"#utility.yul\":14015:14016   */\n      0x00\n        /* \"#utility.yul\":14007:14013   */\n      dup3\n        /* \"#utility.yul\":14003:14017   */\n      add\n        /* \"#utility.yul\":13996:14045   */\n      mstore\n        /* \"#utility.yul\":13879:14052   */\n      pop\n      jump\t// out\n        /* \"#utility.yul\":14058:14424   */\n    tag_189:\n        /* \"#utility.yul\":14200:14203   */\n      0x00\n        /* \"#utility.yul\":14221:14288   */\n      tag_355\n        /* \"#utility.yul\":14285:14287   */\n      0x17\n        /* \"#utility.yul\":14280:14283   */\n      dup4\n        /* \"#utility.yul\":14221:14288   */\n      tag_170\n      jump\t// in\n    tag_355:\n        /* \"#utility.yul\":14214:14288   */\n      swap2\n      pop\n        /* \"#utility.yul\":14297:14390   */\n      tag_356\n        /* \"#utility.yul\":14386:14389   */\n      dup3\n        /* \"#utility.yul\":14297:14390   */\n      tag_188\n      jump\t// in\n    tag_356:\n        /* \"#utility.yul\":14415:14417   */\n      0x20\n        /* \"#utility.yul\":14410:14413   */\n      dup3\n        /* \"#utility.yul\":14406:14418   */\n      add\n        /* \"#utility.yul\":14399:14418   */\n      swap1\n      pop\n        /* \"#utility.yul\":14058:14424   */\n      swap2\n      swap1\n      pop\n      jump\t// out\n        /* \"#utility.yul\":14430:14849   */\n    tag_97:\n        /* \"#utility.yul\":14596:14600   */\n      0x00\n        /* \"#utility.yul\":14634:14636   */\n      0x20\n        /* \"#utility.yul\":14623:14632   */\n      dup3\n        /* \"#utility.yul\":14619:14637   */\n      add\n        /* \"#utility.yul\":14611:14637   */\n      swap1\n      pop\n        /* \"#utility.yul\":14683:14692   */\n      dup2\n        /* \"#utility.yul\":14677:14681   */\n      dup2\n        /* \"#utility.yul\":14673:14693   */\n      sub\n        /* \"#utility.yul\":14669:14670   */\n      0x00\n        /* \"#utility.yul\":14658:14667   */\n      dup4\n        /* \"#utility.yul\":14654:14671   */\n      add\n        /* \"#utility.yul\":14647:14694   */\n      mstore\n        /* \"#utility.yul\":14711:14842   */\n      tag_358\n        /* \"#utility.yul\":14837:14841   */\n      dup2\n        /* \"#utility.yul\":14711:14842   */\n      tag_189\n      jump\t// in\n    tag_358:\n        /* \"#utility.yul\":14703:14842   */\n      swap1\n      pop\n        /* \"#utility.yul\":14430:14849   */\n      swap2\n      swap1\n      pop\n      jump\t// out\n        /* \"#utility.yul\":14855:15030   */\n    tag_190:\n        /* \"#utility.yul\":14995:15022   */\n      0x50726f706f73616c20616c726561647920657865637574656400000000000000\n        /* \"#utility.yul\":14991:14992   */\n      0x00\n        /* \"#utility.yul\":14983:14989   */\n      dup3\n        /* \"#utility.yul\":14979:14993   */\n      add\n        /* \"#utility.yul\":14972:15023   */\n      mstore\n        /* \"#utility.yul\":14855:15030   */\n      pop\n      jump\t// out\n        /* \"#utility.yul\":15036:15402   */\n    tag_191:\n        /* \"#utility.yul\":15178:15181   */\n      0x00\n        /* \"#utility.yul\":15199:15266   */\n      tag_361\n        /* \"#utility.yul\":15263:15265   */\n      0x19\n        /* \"#utility.yul\":15258:15261   */\n      dup4\n        /* \"#utility.yul\":15199:15266   */\n      tag_170\n      jump\t// in\n    tag_361:\n        /* \"#utility.yul\":15192:15266   */\n      swap2\n      pop\n        /* \"#utility.yul\":15275:15368   */\n      tag_362\n        /* \"#utility.yul\":15364:15367   */\n      dup3\n        /* \"#utility.yul\":15275:15368   */\n      tag_190\n      jump\t// in\n    tag_362:\n        /* \"#utility.yul\":15393:15395   */\n      0x20\n        /* \"#utility.yul\":15388:15391   */\n      dup3\n        /* \"#utility.yul\":15384:15396   */\n      add\n        /* \"#utility.yul\":15377:15396   */\n      swap1\n      pop\n        /* \"#utility.yul\":15036:15402   */\n      swap2\n      swap1\n      pop\n      jump\t// out\n        /* \"#utility.yul\":15408:15827   */\n    tag_104:\n        /* \"#utility.yul\":15574:15578   */\n      0x00\n        /* \"#utility.yul\":15612:15614   */\n      0x20\n        /* \"#utility.yul\":15601:15610   */\n      dup3\n        /* \"#utility.yul\":15597:15615   */\n      add\n        /* \"#utility.yul\":15589:15615   */\n      swap1\n      pop\n        /* \"#utility.yul\":15661:15670   */\n      dup2\n        /* \"#utility.yul\":15655:15659   */\n      dup2\n        /* \"#utility.yul\":15651:15671   */\n      sub\n        /* \"#utility.yul\":15647:15648   */\n      0x00\n        /* \"#utility.yul\":15636:15645   */\n      dup4\n        /* \"#utility.yul\":15632:15649   */\n      add\n        /* \"#utility.yul\":15625:15672   */\n      mstore\n        /* \"#utility.yul\":15689:15820   */\n      tag_364\n        /* \"#utility.yul\":15815:15819   */\n      dup2\n        /* \"#utility.yul\":15689:15820   */\n      tag_191\n      jump\t// in\n    tag_364:\n        /* \"#utility.yul\":15681:15820   */\n      swap1\n      pop\n        /* \"#utility.yul\":15408:15827   */\n      swap2\n      swap1\n      pop\n      jump\t// out\n        /* \"#utility.yul\":15833:16053   */\n    tag_192:\n        /* \"#utility.yul\":15973:16007   */\n      0x50726f706f73616c20616c726561647920636f6e6669726d656420627920796f\n        /* \"#utility.yul\":15969:15970   */\n      0x00\n        /* \"#utility.yul\":15961:15967   */\n      dup3\n        /* \"#utility.yul\":15957:15971   */\n      add\n        /* \"#utility.yul\":15950:16008   */\n      mstore\n        /* \"#utility.yul\":16042:16045   */\n      0x7500000000000000000000000000000000000000000000000000000000000000\n        /* \"#utility.yul\":16037:16039   */\n      0x20\n        /* \"#utility.yul\":16029:16035   */\n      dup3\n        /* \"#utility.yul\":16025:16040   */\n      add\n        /* \"#utility.yul\":16018:16046   */\n      mstore\n        /* \"#utility.yul\":15833:16053   */\n      pop\n      jump\t// out\n        /* \"#utility.yul\":16059:16425   */\n    tag_193:\n        /* \"#utility.yul\":16201:16204   */\n      0x00\n        /* \"#utility.yul\":16222:16289   */\n      tag_367\n        /* \"#utility.yul\":16286:16288   */\n      0x21\n        /* \"#utility.yul\":16281:16284   */\n      dup4\n        /* \"#utility.yul\":16222:16289   */\n      tag_170\n      jump\t// in\n    tag_367:\n        /* \"#utility.yul\":16215:16289   */\n      swap2\n      pop\n        /* \"#utility.yul\":16298:16391   */\n      tag_368\n        /* \"#utility.yul\":16387:16390   */\n      dup3\n        /* \"#utility.yul\":16298:16391   */\n      tag_192\n      jump\t// in\n    tag_368:\n        /* \"#utility.yul\":16416:16418   */\n      0x40\n        /* \"#utility.yul\":16411:16414   */\n      dup3\n        /* \"#utility.yul\":16407:16419   */\n      add\n        /* \"#utility.yul\":16400:16419   */\n      swap1\n      pop\n        /* \"#utility.yul\":16059:16425   */\n      swap2\n      swap1\n      pop\n      jump\t// out\n        /* \"#utility.yul\":16431:16850   */\n    tag_108:\n        /* \"#utility.yul\":16597:16601   */\n      0x00\n        /* \"#utility.yul\":16635:16637   */\n      0x20\n        /* \"#utility.yul\":16624:16633   */\n      dup3\n        /* \"#utility.yul\":16620:16638   */\n      add\n        /* \"#utility.yul\":16612:16638   */\n      swap1\n      pop\n        /* \"#utility.yul\":16684:16693   */\n      dup2\n        /* \"#utility.yul\":16678:16682   */\n      dup2\n        /* \"#utility.yul\":16674:16694   */\n      sub\n        /* \"#utility.yul\":16670:16671   */\n      0x00\n        /* \"#utility.yul\":16659:16668   */\n      dup4\n        /* \"#utility.yul\":16655:16672   */\n      add\n        /* \"#utility.yul\":16648:16695   */\n      mstore\n        /* \"#utility.yul\":16712:16843   */\n      tag_370\n        /* \"#utility.yul\":16838:16842   */\n      dup2\n        /* \"#utility.yul\":16712:16843   */\n      tag_193\n      jump\t// in\n    tag_370:\n        /* \"#utility.yul\":16704:16843   */\n      swap1\n      pop\n        /* \"#utility.yul\":16431:16850   */\n      swap2\n      swap1\n      pop\n      jump\t// out\n        /* \"#utility.yul\":16856:17036   */\n    tag_194:\n        /* \"#utility.yul\":16904:16981   */\n      0x4e487b7100000000000000000000000000000000000000000000000000000000\n        /* \"#utility.yul\":16901:16902   */\n      0x00\n        /* \"#utility.yul\":16894:16982   */\n      mstore\n        /* \"#utility.yul\":17001:17005   */\n      0x11\n        /* \"#utility.yul\":16998:16999   */\n      0x04\n        /* \"#utility.yul\":16991:17006   */\n      mstore\n        /* \"#utility.yul\":17025:17029   */\n      0x24\n        /* \"#utility.yul\":17022:17023   */\n      0x00\n        /* \"#utility.yul\":17015:17030   */\n      revert\n        /* \"#utility.yul\":17042:17233   */\n    tag_113:\n        /* \"#utility.yul\":17082:17085   */\n      0x00\n        /* \"#utility.yul\":17101:17121   */\n      tag_373\n        /* \"#utility.yul\":17119:17120   */\n      dup3\n        /* \"#utility.yul\":17101:17121   */\n      tag_144\n      jump\t// in\n    tag_373:\n        /* \"#utility.yul\":17096:17121   */\n      swap2\n      pop\n        /* \"#utility.yul\":17135:17155   */\n      tag_374\n        /* \"#utility.yul\":17153:17154   */\n      dup4\n        /* \"#utility.yul\":17135:17155   */\n      tag_144\n      jump\t// in\n    tag_374:\n        /* \"#utility.yul\":17130:17155   */\n      swap3\n      pop\n        /* \"#utility.yul\":17178:17179   */\n      dup3\n        /* \"#utility.yul\":17175:17176   */\n      dup3\n        /* \"#utility.yul\":17171:17180   */\n      add\n        /* \"#utility.yul\":17164:17180   */\n      swap1\n      pop\n        /* \"#utility.yul\":17199:17202   */\n      dup1\n        /* \"#utility.yul\":17196:17197   */\n      dup3\n        /* \"#utility.yul\":17193:17203   */\n      gt\n        /* \"#utility.yul\":17190:17226   */\n      iszero\n      tag_375\n      jumpi\n        /* \"#utility.yul\":17206:17224   */\n      tag_376\n      tag_194\n      jump\t// in\n    tag_376:\n        /* \"#utility.yul\":17190:17226   */\n    tag_375:\n        /* \"#utility.yul\":17042:17233   */\n      swap3\n      swap2\n      pop\n      pop\n      jump\t// out\n        /* \"#utility.yul\":17239:17386   */\n    tag_195:\n        /* \"#utility.yul\":17340:17351   */\n      0x00\n        /* \"#utility.yul\":17377:17380   */\n      dup2\n        /* \"#utility.yul\":17362:17380   */\n      swap1\n      pop\n        /* \"#utility.yul\":17239:17386   */\n      swap3\n      swap2\n      pop\n      pop\n      jump\t// out\n        /* \"#utility.yul\":17414:18284   */\n    tag_196:\n        /* \"#utility.yul\":17515:17518   */\n      0x00\n        /* \"#utility.yul\":17552:17557   */\n      dup2\n        /* \"#utility.yul\":17546:17558   */\n      sload\n        /* \"#utility.yul\":17581:17617   */\n      tag_379\n        /* \"#utility.yul\":17607:17616   */\n      dup2\n        /* \"#utility.yul\":17581:17617   */\n      tag_59\n      jump\t// in\n    tag_379:\n        /* \"#utility.yul\":17633:17721   */\n      tag_380\n        /* \"#utility.yul\":17714:17720   */\n      dup2\n        /* \"#utility.yul\":17709:17712   */\n      dup7\n        /* \"#utility.yul\":17633:17721   */\n      tag_195\n      jump\t// in\n    tag_380:\n        /* \"#utility.yul\":17626:17721   */\n      swap5\n      pop\n        /* \"#utility.yul\":17752:17753   */\n      0x01\n        /* \"#utility.yul\":17741:17750   */\n      dup3\n        /* \"#utility.yul\":17737:17754   */\n      and\n        /* \"#utility.yul\":17768:17769   */\n      0x00\n        /* \"#utility.yul\":17763:17929   */\n      dup2\n      eq\n      tag_382\n      jumpi\n        /* \"#utility.yul\":17943:17944   */\n      0x01\n        /* \"#utility.yul\":17938:18278   */\n      dup2\n      eq\n      tag_383\n      jumpi\n        /* \"#utility.yul\":17730:18278   */\n      jump(tag_381)\n        /* \"#utility.yul\":17763:17929   */\n    tag_382:\n        /* \"#utility.yul\":17847:17851   */\n      0xff\n        /* \"#utility.yul\":17843:17852   */\n      not\n        /* \"#utility.yul\":17832:17841   */\n      dup4\n        /* \"#utility.yul\":17828:17853   */\n      and\n        /* \"#utility.yul\":17823:17826   */\n      dup7\n        /* \"#utility.yul\":17816:17854   */\n      mstore\n        /* \"#utility.yul\":17909:17915   */\n      dup2\n        /* \"#utility.yul\":17902:17916   */\n      iszero\n        /* \"#utility.yul\":17895:17917   */\n      iszero\n        /* \"#utility.yul\":17887:17893   */\n      dup3\n        /* \"#utility.yul\":17883:17918   */\n      mul\n        /* \"#utility.yul\":17878:17881   */\n      dup7\n        /* \"#utility.yul\":17874:17919   */\n      add\n        /* \"#utility.yul\":17867:17919   */\n      swap4\n      pop\n        /* \"#utility.yul\":17763:17929   */\n      jump(tag_381)\n        /* \"#utility.yul\":17938:18278   */\n    tag_383:\n        /* \"#utility.yul\":18005:18042   */\n      tag_384\n        /* \"#utility.yul\":18036:18041   */\n      dup6\n        /* \"#utility.yul\":18005:18042   */\n      tag_173\n      jump\t// in\n    tag_384:\n        /* \"#utility.yul\":18064:18065   */\n      0x00\n        /* \"#utility.yul\":18078:18232   */\n    tag_385:\n        /* \"#utility.yul\":18092:18098   */\n      dup4\n        /* \"#utility.yul\":18089:18090   */\n      dup2\n        /* \"#utility.yul\":18086:18099   */\n      lt\n        /* \"#utility.yul\":18078:18232   */\n      iszero\n      tag_387\n      jumpi\n        /* \"#utility.yul\":18166:18173   */\n      dup2\n        /* \"#utility.yul\":18160:18174   */\n      sload\n        /* \"#utility.yul\":18156:18157   */\n      dup2\n        /* \"#utility.yul\":18151:18154   */\n      dup10\n        /* \"#utility.yul\":18147:18158   */\n      add\n        /* \"#utility.yul\":18140:18175   */\n      mstore\n        /* \"#utility.yul\":18216:18217   */\n      0x01\n        /* \"#utility.yul\":18207:18214   */\n      dup3\n        /* \"#utility.yul\":18203:18218   */\n      add\n        /* \"#utility.yul\":18192:18218   */\n      swap2\n      pop\n        /* \"#utility.yul\":18114:18118   */\n      0x20\n        /* \"#utility.yul\":18111:18112   */\n      dup2\n        /* \"#utility.yul\":18107:18119   */\n      add\n        /* \"#utility.yul\":18102:18119   */\n      swap1\n      pop\n        /* \"#utility.yul\":18078:18232   */\n      jump(tag_385)\n    tag_387:\n        /* \"#utility.yul\":18261:18267   */\n      dup4\n        /* \"#utility.yul\":18256:18259   */\n      dup9\n        /* \"#utility.yul\":18252:18268   */\n      add\n        /* \"#utility.yul\":18245:18268   */\n      swap6\n      pop\n        /* \"#utility.yul\":17945:18278   */\n      pop\n      pop\n        /* \"#utility.yul\":17730:18278   */\n    tag_381:\n      pop\n        /* \"#utility.yul\":17519:18284   */\n      pop\n      pop\n        /* \"#utility.yul\":17414:18284   */\n      swap3\n      swap2\n      pop\n      pop\n      jump\t// out\n        /* \"#utility.yul\":18290:18555   */\n    tag_134:\n        /* \"#utility.yul\":18417:18420   */\n      0x00\n        /* \"#utility.yul\":18439:18529   */\n      tag_389\n        /* \"#utility.yul\":18525:18528   */\n      dup3\n        /* \"#utility.yul\":18516:18522   */\n      dup5\n        /* \"#utility.yul\":18439:18529   */\n      tag_196\n      jump\t// in\n    tag_389:\n        /* \"#utility.yul\":18432:18529   */\n      swap2\n      pop\n        /* \"#utility.yul\":18546:18549   */\n      dup2\n        /* \"#utility.yul\":18539:18549   */\n      swap1\n      pop\n        /* \"#utility.yul\":18290:18555   */\n      swap3\n      swap2\n      pop\n      pop\n      jump\t// out\n        /* \"#utility.yul\":18561:18729   */\n    tag_197:\n        /* \"#utility.yul\":18701:18721   */\n      0x5472616e73616374696f6e206661696c65640000000000000000000000000000\n        /* \"#utility.yul\":18697:18698   */\n      0x00\n        /* \"#utility.yul\":18689:18695   */\n      dup3\n        /* \"#utility.yul\":18685:18699   */\n      add\n        /* \"#utility.yul\":18678:18722   */\n      mstore\n        /* \"#utility.yul\":18561:18729   */\n      pop\n      jump\t// out\n        /* \"#utility.yul\":18735:19101   */\n    tag_198:\n        /* \"#utility.yul\":18877:18880   */\n      0x00\n        /* \"#utility.yul\":18898:18965   */\n      tag_392\n        /* \"#utility.yul\":18962:18964   */\n      0x12\n        /* \"#utility.yul\":18957:18960   */\n      dup4\n        /* \"#utility.yul\":18898:18965   */\n      tag_170\n      jump\t// in\n    tag_392:\n        /* \"#utility.yul\":18891:18965   */\n      swap2\n      pop\n        /* \"#utility.yul\":18974:19067   */\n      tag_393\n        /* \"#utility.yul\":19063:19066   */\n      dup3\n        /* \"#utility.yul\":18974:19067   */\n      tag_197\n      jump\t// in\n    tag_393:\n        /* \"#utility.yul\":19092:19094   */\n      0x20\n        /* \"#utility.yul\":19087:19090   */\n      dup3\n        /* \"#utility.yul\":19083:19095   */\n      add\n        /* \"#utility.yul\":19076:19095   */\n      swap1\n      pop\n        /* \"#utility.yul\":18735:19101   */\n      swap2\n      swap1\n      pop\n      jump\t// out\n        /* \"#utility.yul\":19107:19526   */\n    tag_140:\n        /* \"#utility.yul\":19273:19277   */\n      0x00\n        /* \"#utility.yul\":19311:19313   */\n      0x20\n        /* \"#utility.yul\":19300:19309   */\n      dup3\n        /* \"#utility.yul\":19296:19314   */\n      add\n        /* \"#utility.yul\":19288:19314   */\n      swap1\n      pop\n        /* \"#utility.yul\":19360:19369   */\n      dup2\n        /* \"#utility.yul\":19354:19358   */\n      dup2\n        /* \"#utility.yul\":19350:19370   */\n      sub\n        /* \"#utility.yul\":19346:19347   */\n      0x00\n        /* \"#utility.yul\":19335:19344   */\n      dup4\n        /* \"#utility.yul\":19331:19348   */\n      add\n        /* \"#utility.yul\":19324:19371   */\n      mstore\n        /* \"#utility.yul\":19388:19519   */\n      tag_395\n        /* \"#utility.yul\":19514:19518   */\n      dup2\n        /* \"#utility.yul\":19388:19519   */\n      tag_198\n      jump\t// in\n    tag_395:\n        /* \"#utility.yul\":19380:19519   */\n      swap1\n      pop\n        /* \"#utility.yul\":19107:19526   */\n      swap2\n      swap1\n      pop\n      jump\t// out\n\n    auxdata: 0xa26469706673582212206b0136f499d610fded0d62608d36770e4a2670f60fe8ab23bc9196c1fbf2056f64736f6c634300081a0033\n}\n",
				"bytecode": {
					"linkReferences": {},
					"object": "608060405234801561000f575f80fd5b5060405161193038038061193083398181016040528101906100319190610377565b5f825111610074576040517f08c379a000000000000000000000000000000000000000000000000000000000815260040161006b9061042b565b60405180910390fd5b5f81118015610084575081518111155b6100c3576040517f08c379a00000000000000000000000000000000000000000000000000000000081526004016100ba90610493565b60405180910390fd5b815f90805190602001906100d89291906100e7565b508060018190555050506104b1565b828054828255905f5260205f2090810192821561015d579160200282015b8281111561015c578251825f6101000a81548173ffffffffffffffffffffffffffffffffffffffff021916908373ffffffffffffffffffffffffffffffffffffffff16021790555091602001919060010190610105565b5b50905061016a919061016e565b5090565b5b80821115610185575f815f90555060010161016f565b5090565b5f604051905090565b5f80fd5b5f80fd5b5f80fd5b5f601f19601f8301169050919050565b7f4e487b71000000000000000000000000000000000000000000000000000000005f52604160045260245ffd5b6101e48261019e565b810181811067ffffffffffffffff82111715610203576102026101ae565b5b80604052505050565b5f610215610189565b905061022182826101db565b919050565b5f67ffffffffffffffff8211156102405761023f6101ae565b5b602082029050602081019050919050565b5f80fd5b5f73ffffffffffffffffffffffffffffffffffffffff82169050919050565b5f61027e82610255565b9050919050565b61028e81610274565b8114610298575f80fd5b50565b5f815190506102a981610285565b92915050565b5f6102c16102bc84610226565b61020c565b905080838252602082019050602084028301858111156102e4576102e3610251565b5b835b8181101561030d57806102f9888261029b565b8452602084019350506020810190506102e6565b5050509392505050565b5f82601f83011261032b5761032a61019a565b5b815161033b8482602086016102af565b91505092915050565b5f819050919050565b61035681610344565b8114610360575f80fd5b50565b5f815190506103718161034d565b92915050565b5f806040838503121561038d5761038c610192565b5b5f83015167ffffffffffffffff8111156103aa576103a9610196565b5b6103b685828601610317565b92505060206103c785828601610363565b9150509250929050565b5f82825260208201905092915050565b7f4174206c65617374206f6e65206f776e657220726571756972656400000000005f82015250565b5f610415601b836103d1565b9150610420826103e1565b602082019050919050565b5f6020820190508181035f83015261044281610409565b9050919050565b7f496e76616c6964207468726573686f6c640000000000000000000000000000005f82015250565b5f61047d6011836103d1565b915061048882610449565b602082019050919050565b5f6020820190508181035f8301526104aa81610471565b9050919050565b611472806104be5f395ff3fe60806040526004361061007e575f3560e01c806342cde4e81161004d57806342cde4e814610157578063c08cc02d14610181578063f4a4f4d2146101ab578063f84fd9ef146101d357610085565b8063013cf08b14610089578063025e7c27146100c957806311d030151461010557806312065fe01461012d57610085565b3661008557005b5f80fd5b348015610094575f80fd5b506100af60048036038101906100aa9190610a62565b61020f565b6040516100c0959493929190610b65565b60405180910390f35b3480156100d4575f80fd5b506100ef60048036038101906100ea9190610a62565b610301565b6040516100fc9190610bbd565b60405180910390f35b348015610110575f80fd5b5061012b60048036038101906101269190610d2c565b61033b565b005b348015610138575f80fd5b5061014161050a565b60405161014e9190610d98565b60405180910390f35b348015610162575f80fd5b5061016b610511565b6040516101789190610d98565b60405180910390f35b34801561018c575f80fd5b50610195610517565b6040516101a29190610d98565b60405180910390f35b3480156101b6575f80fd5b506101d160048036038101906101cc9190610a62565b610523565b005b3480156101de575f80fd5b506101f960048036038101906101f49190610db1565b610822565b6040516102069190610def565b60405180910390f35b6002818154811061021e575f80fd5b905f5260205f2090600502015f91509050805f015f9054906101000a900473ffffffffffffffffffffffffffffffffffffffff169080600101549080600201805461026890610e35565b80601f016020809104026020016040519081016040528092919081815260200182805461029490610e35565b80156102df5780601f106102b6576101008083540402835291602001916102df565b820191905f5260205f20905b8154815290600101906020018083116102c257829003601f168201915b505050505090806003015490806004015f9054906101000a900460ff16905085565b5f818154811061030f575f80fd5b905f5260205f20015f915054906101000a900473ffffffffffffffffffffffffffffffffffffffff1681565b5f805b5f805490508110156103cd575f818154811061035d5761035c610e65565b5b905f5260205f20015f9054906101000a900473ffffffffffffffffffffffffffffffffffffffff1673ffffffffffffffffffffffffffffffffffffffff163373ffffffffffffffffffffffffffffffffffffffff16036103c057600191506103cd565b808060010191505061033e565b508061040e576040517f08c379a000000000000000000000000000000000000000000000000000000000815260040161040590610eec565b60405180910390fd5b60026040518060a001604052808673ffffffffffffffffffffffffffffffffffffffff1681526020018581526020018481526020015f81526020015f1515815250908060018154018082558091505060019003905f5260205f2090600502015f909190919091505f820151815f015f6101000a81548173ffffffffffffffffffffffffffffffffffffffff021916908373ffffffffffffffffffffffffffffffffffffffff1602179055506020820151816001015560408201518160020190816104d891906110a7565b50606082015181600301556080820151816004015f6101000a81548160ff021916908315150217905550505050505050565b5f47905090565b60015481565b5f600280549050905090565b5f805b5f805490508110156105b5575f818154811061054557610544610e65565b5b905f5260205f20015f9054906101000a900473ffffffffffffffffffffffffffffffffffffffff1673ffffffffffffffffffffffffffffffffffffffff163373ffffffffffffffffffffffffffffffffffffffff16036105a857600191506105b5565b8080600101915050610526565b50806105f6576040517f08c379a00000000000000000000000000000000000000000000000000000000081526004016105ed90610eec565b60405180910390fd5b81600280549050811061063e576040517f08c379a0000000000000000000000000000000000000000000000000000000008152600401610635906111c0565b60405180910390fd5b826002818154811061065357610652610e65565b5b905f5260205f2090600502016004015f9054906101000a900460ff16156106af576040517f08c379a00000000000000000000000000000000000000000000000000000000081526004016106a690611228565b60405180910390fd5b60035f3373ffffffffffffffffffffffffffffffffffffffff1673ffffffffffffffffffffffffffffffffffffffff1681526020019081526020015f205f8581526020019081526020015f205f9054906101000a900460ff1615610748576040517f08c379a000000000000000000000000000000000000000000000000000000000815260040161073f906112b6565b60405180910390fd5b60016002858154811061075e5761075d610e65565b5b905f5260205f2090600502016003015f82825461077b9190611301565b92505081905550600160035f3373ffffffffffffffffffffffffffffffffffffffff1673ffffffffffffffffffffffffffffffffffffffff1681526020019081526020015f205f8681526020019081526020015f205f6101000a81548160ff021916908315150217905550600154600285815481106107fd576107fc610e65565b5b905f5260205f209060050201600301541061081c5761081b8461084c565b5b50505050565b6003602052815f5260405f20602052805f5260405f205f915091509054906101000a900460ff1681565b806002805490508110610894576040517f08c379a000000000000000000000000000000000000000000000000000000000815260040161088b906111c0565b60405180910390fd5b81600281815481106108a9576108a8610e65565b5b905f5260205f2090600502016004015f9054906101000a900460ff1615610905576040517f08c379a00000000000000000000000000000000000000000000000000000000081526004016108fc90611228565b60405180910390fd5b5f6002848154811061091a57610919610e65565b5b905f5260205f20906005020190505f815f015f9054906101000a900473ffffffffffffffffffffffffffffffffffffffff1673ffffffffffffffffffffffffffffffffffffffff1682600101548360020160405161097891906113be565b5f6040518083038185875af1925050503d805f81146109b2576040519150601f19603f3d011682016040523d82523d5f602084013e6109b7565b606091505b50509050806109fb576040517f08c379a00000000000000000000000000000000000000000000000000000000081526004016109f29061141e565b60405180910390fd5b6001826004015f6101000a81548160ff0219169083151502179055505050505050565b5f604051905090565b5f80fd5b5f80fd5b5f819050919050565b610a4181610a2f565b8114610a4b575f80fd5b50565b5f81359050610a5c81610a38565b92915050565b5f60208284031215610a7757610a76610a27565b5b5f610a8484828501610a4e565b91505092915050565b5f73ffffffffffffffffffffffffffffffffffffffff82169050919050565b5f610ab682610a8d565b9050919050565b610ac681610aac565b82525050565b610ad581610a2f565b82525050565b5f81519050919050565b5f82825260208201905092915050565b8281835e5f83830152505050565b5f601f19601f8301169050919050565b5f610b1d82610adb565b610b278185610ae5565b9350610b37818560208601610af5565b610b4081610b03565b840191505092915050565b5f8115159050919050565b610b5f81610b4b565b82525050565b5f60a082019050610b785f830188610abd565b610b856020830187610acc565b8181036040830152610b978186610b13565b9050610ba66060830185610acc565b610bb36080830184610b56565b9695505050505050565b5f602082019050610bd05f830184610abd565b92915050565b610bdf81610aac565b8114610be9575f80fd5b50565b5f81359050610bfa81610bd6565b92915050565b5f80fd5b5f80fd5b7f4e487b71000000000000000000000000000000000000000000000000000000005f52604160045260245ffd5b610c3e82610b03565b810181811067ffffffffffffffff82111715610c5d57610c5c610c08565b5b80604052505050565b5f610c6f610a1e565b9050610c7b8282610c35565b919050565b5f67ffffffffffffffff821115610c9a57610c99610c08565b5b610ca382610b03565b9050602081019050919050565b828183375f83830152505050565b5f610cd0610ccb84610c80565b610c66565b905082815260208101848484011115610cec57610ceb610c04565b5b610cf7848285610cb0565b509392505050565b5f82601f830112610d1357610d12610c00565b5b8135610d23848260208601610cbe565b91505092915050565b5f805f60608486031215610d4357610d42610a27565b5b5f610d5086828701610bec565b9350506020610d6186828701610a4e565b925050604084013567ffffffffffffffff811115610d8257610d81610a2b565b5b610d8e86828701610cff565b9150509250925092565b5f602082019050610dab5f830184610acc565b92915050565b5f8060408385031215610dc757610dc6610a27565b5b5f610dd485828601610bec565b9250506020610de585828601610a4e565b9150509250929050565b5f602082019050610e025f830184610b56565b92915050565b7f4e487b71000000000000000000000000000000000000000000000000000000005f52602260045260245ffd5b5f6002820490506001821680610e4c57607f821691505b602082108103610e5f57610e5e610e08565b5b50919050565b7f4e487b71000000000000000000000000000000000000000000000000000000005f52603260045260245ffd5b5f82825260208201905092915050565b7f4e6f7420616e206f776e657200000000000000000000000000000000000000005f82015250565b5f610ed6600c83610e92565b9150610ee182610ea2565b602082019050919050565b5f6020820190508181035f830152610f0381610eca565b9050919050565b5f819050815f5260205f209050919050565b5f6020601f8301049050919050565b5f82821b905092915050565b5f60088302610f667fffffffffffffffffffffffffffffffffffffffffffffffffffffffffffffffff82610f2b565b610f708683610f2b565b95508019841693508086168417925050509392505050565b5f819050919050565b5f610fab610fa6610fa184610a2f565b610f88565b610a2f565b9050919050565b5f819050919050565b610fc483610f91565b610fd8610fd082610fb2565b848454610f37565b825550505050565b5f90565b610fec610fe0565b610ff7818484610fbb565b505050565b5b8181101561101a5761100f5f82610fe4565b600181019050610ffd565b5050565b601f82111561105f5761103081610f0a565b61103984610f1c565b81016020851015611048578190505b61105c61105485610f1c565b830182610ffc565b50505b505050565b5f82821c905092915050565b5f61107f5f1984600802611064565b1980831691505092915050565b5f6110978383611070565b9150826002028217905092915050565b6110b082610adb565b67ffffffffffffffff8111156110c9576110c8610c08565b5b6110d38254610e35565b6110de82828561101e565b5f60209050601f83116001811461110f575f84156110fd578287015190505b611107858261108c565b86555061116e565b601f19841661111d86610f0a565b5f5b828110156111445784890151825560018201915060208501945060208101905061111f565b86831015611161578489015161115d601f891682611070565b8355505b6001600288020188555050505b505050505050565b7f50726f706f73616c20646f6573206e6f742065786973740000000000000000005f82015250565b5f6111aa601783610e92565b91506111b582611176565b602082019050919050565b5f6020820190508181035f8301526111d78161119e565b9050919050565b7f50726f706f73616c20616c7265616479206578656375746564000000000000005f82015250565b5f611212601983610e92565b915061121d826111de565b602082019050919050565b5f6020820190508181035f83015261123f81611206565b9050919050565b7f50726f706f73616c20616c726561647920636f6e6669726d656420627920796f5f8201527f7500000000000000000000000000000000000000000000000000000000000000602082015250565b5f6112a0602183610e92565b91506112ab82611246565b604082019050919050565b5f6020820190508181035f8301526112cd81611294565b9050919050565b7f4e487b71000000000000000000000000000000000000000000000000000000005f52601160045260245ffd5b5f61130b82610a2f565b915061131683610a2f565b925082820190508082111561132e5761132d6112d4565b5b92915050565b5f81905092915050565b5f815461134a81610e35565b6113548186611334565b9450600182165f811461136e5760018114611383576113b5565b60ff19831686528115158202860193506113b5565b61138c85610f0a565b5f5b838110156113ad5781548189015260018201915060208101905061138e565b838801955050505b50505092915050565b5f6113c9828461133e565b915081905092915050565b7f5472616e73616374696f6e206661696c656400000000000000000000000000005f82015250565b5f611408601283610e92565b9150611413826113d4565b602082019050919050565b5f6020820190508181035f830152611435816113fc565b905091905056fea26469706673582212206b0136f499d610fded0d62608d36770e4a2670f60fe8ab23bc9196c1fbf2056f64736f6c634300081a0033",
					"opcodes": "PUSH1 0x80 PUSH1 0x40 MSTORE CALLVALUE DUP1 ISZERO PUSH2 0xF JUMPI PUSH0 DUP1 REVERT JUMPDEST POP PUSH1 0x40 MLOAD PUSH2 0x1930 CODESIZE SUB DUP1 PUSH2 0x1930 DUP4 CODECOPY DUP2 DUP2 ADD PUSH1 0x40 MSTORE DUP2 ADD SWAP1 PUSH2 0x31 SWAP2 SWAP1 PUSH2 0x377 JUMP JUMPDEST PUSH0 DUP3 MLOAD GT PUSH2 0x74 JUMPI PUSH1 0x40 MLOAD PUSH32 0x8C379A000000000000000000000000000000000000000000000000000000000 DUP2 MSTORE PUSH1 0x4 ADD PUSH2 0x6B SWAP1 PUSH2 0x42B JUMP JUMPDEST PUSH1 0x40 MLOAD DUP1 SWAP2 SUB SWAP1 REVERT JUMPDEST PUSH0 DUP2 GT DUP1 ISZERO PUSH2 0x84 JUMPI POP DUP2 MLOAD DUP2 GT ISZERO JUMPDEST PUSH2 0xC3 JUMPI PUSH1 0x40 MLOAD PUSH32 0x8C379A000000000000000000000000000000000000000000000000000000000 DUP2 MSTORE PUSH1 0x4 ADD PUSH2 0xBA SWAP1 PUSH2 0x493 JUMP JUMPDEST PUSH1 0x40 MLOAD DUP1 SWAP2 SUB SWAP1 REVERT JUMPDEST DUP2 PUSH0 SWAP1 DUP1 MLOAD SWAP1 PUSH1 0x20 ADD SWAP1 PUSH2 0xD8 SWAP3 SWAP2 SWAP1 PUSH2 0xE7 JUMP JUMPDEST POP DUP1 PUSH1 0x1 DUP2 SWAP1 SSTORE POP POP POP PUSH2 0x4B1 JUMP JUMPDEST DUP3 DUP1 SLOAD DUP3 DUP3 SSTORE SWAP1 PUSH0 MSTORE PUSH1 0x20 PUSH0 KECCAK256 SWAP1 DUP2 ADD SWAP3 DUP3 ISZERO PUSH2 0x15D JUMPI SWAP2 PUSH1 0x20 MUL DUP3 ADD JUMPDEST DUP3 DUP2 GT ISZERO PUSH2 0x15C JUMPI DUP3 MLOAD DUP3 PUSH0 PUSH2 0x100 EXP DUP2 SLOAD DUP2 PUSH20 0xFFFFFFFFFFFFFFFFFFFFFFFFFFFFFFFFFFFFFFFF MUL NOT AND SWAP1 DUP4 PUSH20 0xFFFFFFFFFFFFFFFFFFFFFFFFFFFFFFFFFFFFFFFF AND MUL OR SWAP1 SSTORE POP SWAP2 PUSH1 0x20 ADD SWAP2 SWAP1 PUSH1 0x1 ADD SWAP1 PUSH2 0x105 JUMP JUMPDEST JUMPDEST POP SWAP1 POP PUSH2 0x16A SWAP2 SWAP1 PUSH2 0x16E JUMP JUMPDEST POP SWAP1 JUMP JUMPDEST JUMPDEST DUP1 DUP3 GT ISZERO PUSH2 0x185 JUMPI PUSH0 DUP2 PUSH0 SWAP1 SSTORE POP PUSH1 0x1 ADD PUSH2 0x16F JUMP JUMPDEST POP SWAP1 JUMP JUMPDEST PUSH0 PUSH1 0x40 MLOAD SWAP1 POP SWAP1 JUMP JUMPDEST PUSH0 DUP1 REVERT JUMPDEST PUSH0 DUP1 REVERT JUMPDEST PUSH0 DUP1 REVERT JUMPDEST PUSH0 PUSH1 0x1F NOT PUSH1 0x1F DUP4 ADD AND SWAP1 POP SWAP2 SWAP1 POP JUMP JUMPDEST PUSH32 0x4E487B7100000000000000000000000000000000000000000000000000000000 PUSH0 MSTORE PUSH1 0x41 PUSH1 0x4 MSTORE PUSH1 0x24 PUSH0 REVERT JUMPDEST PUSH2 0x1E4 DUP3 PUSH2 0x19E JUMP JUMPDEST DUP2 ADD DUP2 DUP2 LT PUSH8 0xFFFFFFFFFFFFFFFF DUP3 GT OR ISZERO PUSH2 0x203 JUMPI PUSH2 0x202 PUSH2 0x1AE JUMP JUMPDEST JUMPDEST DUP1 PUSH1 0x40 MSTORE POP POP POP JUMP JUMPDEST PUSH0 PUSH2 0x215 PUSH2 0x189 JUMP JUMPDEST SWAP1 POP PUSH2 0x221 DUP3 DUP3 PUSH2 0x1DB JUMP JUMPDEST SWAP2 SWAP1 POP JUMP JUMPDEST PUSH0 PUSH8 0xFFFFFFFFFFFFFFFF DUP3 GT ISZERO PUSH2 0x240 JUMPI PUSH2 0x23F PUSH2 0x1AE JUMP JUMPDEST JUMPDEST PUSH1 0x20 DUP3 MUL SWAP1 POP PUSH1 0x20 DUP2 ADD SWAP1 POP SWAP2 SWAP1 POP JUMP JUMPDEST PUSH0 DUP1 REVERT JUMPDEST PUSH0 PUSH20 0xFFFFFFFFFFFFFFFFFFFFFFFFFFFFFFFFFFFFFFFF DUP3 AND SWAP1 POP SWAP2 SWAP1 POP JUMP JUMPDEST PUSH0 PUSH2 0x27E DUP3 PUSH2 0x255 JUMP JUMPDEST SWAP1 POP SWAP2 SWAP1 POP JUMP JUMPDEST PUSH2 0x28E DUP2 PUSH2 0x274 JUMP JUMPDEST DUP2 EQ PUSH2 0x298 JUMPI PUSH0 DUP1 REVERT JUMPDEST POP JUMP JUMPDEST PUSH0 DUP2 MLOAD SWAP1 POP PUSH2 0x2A9 DUP2 PUSH2 0x285 JUMP JUMPDEST SWAP3 SWAP2 POP POP JUMP JUMPDEST PUSH0 PUSH2 0x2C1 PUSH2 0x2BC DUP5 PUSH2 0x226 JUMP JUMPDEST PUSH2 0x20C JUMP JUMPDEST SWAP1 POP DUP1 DUP4 DUP3 MSTORE PUSH1 0x20 DUP3 ADD SWAP1 POP PUSH1 0x20 DUP5 MUL DUP4 ADD DUP6 DUP2 GT ISZERO PUSH2 0x2E4 JUMPI PUSH2 0x2E3 PUSH2 0x251 JUMP JUMPDEST JUMPDEST DUP4 JUMPDEST DUP2 DUP2 LT ISZERO PUSH2 0x30D JUMPI DUP1 PUSH2 0x2F9 DUP9 DUP3 PUSH2 0x29B JUMP JUMPDEST DUP5 MSTORE PUSH1 0x20 DUP5 ADD SWAP4 POP POP PUSH1 0x20 DUP2 ADD SWAP1 POP PUSH2 0x2E6 JUMP JUMPDEST POP POP POP SWAP4 SWAP3 POP POP POP JUMP JUMPDEST PUSH0 DUP3 PUSH1 0x1F DUP4 ADD SLT PUSH2 0x32B JUMPI PUSH2 0x32A PUSH2 0x19A JUMP JUMPDEST JUMPDEST DUP2 MLOAD PUSH2 0x33B DUP5 DUP3 PUSH1 0x20 DUP7 ADD PUSH2 0x2AF JUMP JUMPDEST SWAP2 POP POP SWAP3 SWAP2 POP POP JUMP JUMPDEST PUSH0 DUP2 SWAP1 POP SWAP2 SWAP1 POP JUMP JUMPDEST PUSH2 0x356 DUP2 PUSH2 0x344 JUMP JUMPDEST DUP2 EQ PUSH2 0x360 JUMPI PUSH0 DUP1 REVERT JUMPDEST POP JUMP JUMPDEST PUSH0 DUP2 MLOAD SWAP1 POP PUSH2 0x371 DUP2 PUSH2 0x34D JUMP JUMPDEST SWAP3 SWAP2 POP POP JUMP JUMPDEST PUSH0 DUP1 PUSH1 0x40 DUP4 DUP6 SUB SLT ISZERO PUSH2 0x38D JUMPI PUSH2 0x38C PUSH2 0x192 JUMP JUMPDEST JUMPDEST PUSH0 DUP4 ADD MLOAD PUSH8 0xFFFFFFFFFFFFFFFF DUP2 GT ISZERO PUSH2 0x3AA JUMPI PUSH2 0x3A9 PUSH2 0x196 JUMP JUMPDEST JUMPDEST PUSH2 0x3B6 DUP6 DUP3 DUP7 ADD PUSH2 0x317 JUMP JUMPDEST SWAP3 POP POP PUSH1 0x20 PUSH2 0x3C7 DUP6 DUP3 DUP7 ADD PUSH2 0x363 JUMP JUMPDEST SWAP2 POP POP SWAP3 POP SWAP3 SWAP1 POP JUMP JUMPDEST PUSH0 DUP3 DUP3 MSTORE PUSH1 0x20 DUP3 ADD SWAP1 POP SWAP3 SWAP2 POP POP JUMP JUMPDEST PUSH32 0x4174206C65617374206F6E65206F776E65722072657175697265640000000000 PUSH0 DUP3 ADD MSTORE POP JUMP JUMPDEST PUSH0 PUSH2 0x415 PUSH1 0x1B DUP4 PUSH2 0x3D1 JUMP JUMPDEST SWAP2 POP PUSH2 0x420 DUP3 PUSH2 0x3E1 JUMP JUMPDEST PUSH1 0x20 DUP3 ADD SWAP1 POP SWAP2 SWAP1 POP JUMP JUMPDEST PUSH0 PUSH1 0x20 DUP3 ADD SWAP1 POP DUP2 DUP2 SUB PUSH0 DUP4 ADD MSTORE PUSH2 0x442 DUP2 PUSH2 0x409 JUMP JUMPDEST SWAP1 POP SWAP2 SWAP1 POP JUMP JUMPDEST PUSH32 0x496E76616C6964207468726573686F6C64000000000000000000000000000000 PUSH0 DUP3 ADD MSTORE POP JUMP JUMPDEST PUSH0 PUSH2 0x47D PUSH1 0x11 DUP4 PUSH2 0x3D1 JUMP JUMPDEST SWAP2 POP PUSH2 0x488 DUP3 PUSH2 0x449 JUMP JUMPDEST PUSH1 0x20 DUP3 ADD SWAP1 POP SWAP2 SWAP1 POP JUMP JUMPDEST PUSH0 PUSH1 0x20 DUP3 ADD SWAP1 POP DUP2 DUP2 SUB PUSH0 DUP4 ADD MSTORE PUSH2 0x4AA DUP2 PUSH2 0x471 JUMP JUMPDEST SWAP1 POP SWAP2 SWAP1 POP JUMP JUMPDEST PUSH2 0x1472 DUP1 PUSH2 0x4BE PUSH0 CODECOPY PUSH0 RETURN INVALID PUSH1 0x80 PUSH1 0x40 MSTORE PUSH1 0x4 CALLDATASIZE LT PUSH2 0x7E JUMPI PUSH0 CALLDATALOAD PUSH1 0xE0 SHR DUP1 PUSH4 0x42CDE4E8 GT PUSH2 0x4D JUMPI DUP1 PUSH4 0x42CDE4E8 EQ PUSH2 0x157 JUMPI DUP1 PUSH4 0xC08CC02D EQ PUSH2 0x181 JUMPI DUP1 PUSH4 0xF4A4F4D2 EQ PUSH2 0x1AB JUMPI DUP1 PUSH4 0xF84FD9EF EQ PUSH2 0x1D3 JUMPI PUSH2 0x85 JUMP JUMPDEST DUP1 PUSH4 0x13CF08B EQ PUSH2 0x89 JUMPI DUP1 PUSH4 0x25E7C27 EQ PUSH2 0xC9 JUMPI DUP1 PUSH4 0x11D03015 EQ PUSH2 0x105 JUMPI DUP1 PUSH4 0x12065FE0 EQ PUSH2 0x12D JUMPI PUSH2 0x85 JUMP JUMPDEST CALLDATASIZE PUSH2 0x85 JUMPI STOP JUMPDEST PUSH0 DUP1 REVERT JUMPDEST CALLVALUE DUP1 ISZERO PUSH2 0x94 JUMPI PUSH0 DUP1 REVERT JUMPDEST POP PUSH2 0xAF PUSH1 0x4 DUP1 CALLDATASIZE SUB DUP2 ADD SWAP1 PUSH2 0xAA SWAP2 SWAP1 PUSH2 0xA62 JUMP JUMPDEST PUSH2 0x20F JUMP JUMPDEST PUSH1 0x40 MLOAD PUSH2 0xC0 SWAP6 SWAP5 SWAP4 SWAP3 SWAP2 SWAP1 PUSH2 0xB65 JUMP JUMPDEST PUSH1 0x40 MLOAD DUP1 SWAP2 SUB SWAP1 RETURN JUMPDEST CALLVALUE DUP1 ISZERO PUSH2 0xD4 JUMPI PUSH0 DUP1 REVERT JUMPDEST POP PUSH2 0xEF PUSH1 0x4 DUP1 CALLDATASIZE SUB DUP2 ADD SWAP1 PUSH2 0xEA SWAP2 SWAP1 PUSH2 0xA62 JUMP JUMPDEST PUSH2 0x301 JUMP JUMPDEST PUSH1 0x40 MLOAD PUSH2 0xFC SWAP2 SWAP1 PUSH2 0xBBD JUMP JUMPDEST PUSH1 0x40 MLOAD DUP1 SWAP2 SUB SWAP1 RETURN JUMPDEST CALLVALUE DUP1 ISZERO PUSH2 0x110 JUMPI PUSH0 DUP1 REVERT JUMPDEST POP PUSH2 0x12B PUSH1 0x4 DUP1 CALLDATASIZE SUB DUP2 ADD SWAP1 PUSH2 0x126 SWAP2 SWAP1 PUSH2 0xD2C JUMP JUMPDEST PUSH2 0x33B JUMP JUMPDEST STOP JUMPDEST CALLVALUE DUP1 ISZERO PUSH2 0x138 JUMPI PUSH0 DUP1 REVERT JUMPDEST POP PUSH2 0x141 PUSH2 0x50A JUMP JUMPDEST PUSH1 0x40 MLOAD PUSH2 0x14E SWAP2 SWAP1 PUSH2 0xD98 JUMP JUMPDEST PUSH1 0x40 MLOAD DUP1 SWAP2 SUB SWAP1 RETURN JUMPDEST CALLVALUE DUP1 ISZERO PUSH2 0x162 JUMPI PUSH0 DUP1 REVERT JUMPDEST POP PUSH2 0x16B PUSH2 0x511 JUMP JUMPDEST PUSH1 0x40 MLOAD PUSH2 0x178 SWAP2 SWAP1 PUSH2 0xD98 JUMP JUMPDEST PUSH1 0x40 MLOAD DUP1 SWAP2 SUB SWAP1 RETURN JUMPDEST CALLVALUE DUP1 ISZERO PUSH2 0x18C JUMPI PUSH0 DUP1 REVERT JUMPDEST POP PUSH2 0x195 PUSH2 0x517 JUMP JUMPDEST PUSH1 0x40 MLOAD PUSH2 0x1A2 SWAP2 SWAP1 PUSH2 0xD98 JUMP JUMPDEST PUSH1 0x40 MLOAD DUP1 SWAP2 SUB SWAP1 RETURN JUMPDEST CALLVALUE DUP1 ISZERO PUSH2 0x1B6 JUMPI PUSH0 DUP1 REVERT JUMPDEST POP PUSH2 0x1D1 PUSH1 0x4 DUP1 CALLDATASIZE SUB DUP2 ADD SWAP1 PUSH2 0x1CC SWAP2 SWAP1 PUSH2 0xA62 JUMP JUMPDEST PUSH2 0x523 JUMP JUMPDEST STOP JUMPDEST CALLVALUE DUP1 ISZERO PUSH2 0x1DE JUMPI PUSH0 DUP1 REVERT JUMPDEST POP PUSH2 0x1F9 PUSH1 0x4 DUP1 CALLDATASIZE SUB DUP2 ADD SWAP1 PUSH2 0x1F4 SWAP2 SWAP1 PUSH2 0xDB1 JUMP JUMPDEST PUSH2 0x822 JUMP JUMPDEST PUSH1 0x40 MLOAD PUSH2 0x206 SWAP2 SWAP1 PUSH2 0xDEF JUMP JUMPDEST PUSH1 0x40 MLOAD DUP1 SWAP2 SUB SWAP1 RETURN JUMPDEST PUSH1 0x2 DUP2 DUP2 SLOAD DUP2 LT PUSH2 0x21E JUMPI PUSH0 DUP1 REVERT JUMPDEST SWAP1 PUSH0 MSTORE PUSH1 0x20 PUSH0 KECCAK256 SWAP1 PUSH1 0x5 MUL ADD PUSH0 SWAP2 POP SWAP1 POP DUP1 PUSH0 ADD PUSH0 SWAP1 SLOAD SWAP1 PUSH2 0x100 EXP SWAP1 DIV PUSH20 0xFFFFFFFFFFFFFFFFFFFFFFFFFFFFFFFFFFFFFFFF AND SWAP1 DUP1 PUSH1 0x1 ADD SLOAD SWAP1 DUP1 PUSH1 0x2 ADD DUP1 SLOAD PUSH2 0x268 SWAP1 PUSH2 0xE35 JUMP JUMPDEST DUP1 PUSH1 0x1F ADD PUSH1 0x20 DUP1 SWAP2 DIV MUL PUSH1 0x20 ADD PUSH1 0x40 MLOAD SWAP1 DUP2 ADD PUSH1 0x40 MSTORE DUP1 SWAP3 SWAP2 SWAP1 DUP2 DUP2 MSTORE PUSH1 0x20 ADD DUP3 DUP1 SLOAD PUSH2 0x294 SWAP1 PUSH2 0xE35 JUMP JUMPDEST DUP1 ISZERO PUSH2 0x2DF JUMPI DUP1 PUSH1 0x1F LT PUSH2 0x2B6 JUMPI PUSH2 0x100 DUP1 DUP4 SLOAD DIV MUL DUP4 MSTORE SWAP2 PUSH1 0x20 ADD SWAP2 PUSH2 0x2DF JUMP JUMPDEST DUP3 ADD SWAP2 SWAP1 PUSH0 MSTORE PUSH1 0x20 PUSH0 KECCAK256 SWAP1 JUMPDEST DUP2 SLOAD DUP2 MSTORE SWAP1 PUSH1 0x1 ADD SWAP1 PUSH1 0x20 ADD DUP1 DUP4 GT PUSH2 0x2C2 JUMPI DUP3 SWAP1 SUB PUSH1 0x1F AND DUP3 ADD SWAP2 JUMPDEST POP POP POP POP POP SWAP1 DUP1 PUSH1 0x3 ADD SLOAD SWAP1 DUP1 PUSH1 0x4 ADD PUSH0 SWAP1 SLOAD SWAP1 PUSH2 0x100 EXP SWAP1 DIV PUSH1 0xFF AND SWAP1 POP DUP6 JUMP JUMPDEST PUSH0 DUP2 DUP2 SLOAD DUP2 LT PUSH2 0x30F JUMPI PUSH0 DUP1 REVERT JUMPDEST SWAP1 PUSH0 MSTORE PUSH1 0x20 PUSH0 KECCAK256 ADD PUSH0 SWAP2 POP SLOAD SWAP1 PUSH2 0x100 EXP SWAP1 DIV PUSH20 0xFFFFFFFFFFFFFFFFFFFFFFFFFFFFFFFFFFFFFFFF AND DUP2 JUMP JUMPDEST PUSH0 DUP1 JUMPDEST PUSH0 DUP1 SLOAD SWAP1 POP DUP2 LT ISZERO PUSH2 0x3CD JUMPI PUSH0 DUP2 DUP2 SLOAD DUP2 LT PUSH2 0x35D JUMPI PUSH2 0x35C PUSH2 0xE65 JUMP JUMPDEST JUMPDEST SWAP1 PUSH0 MSTORE PUSH1 0x20 PUSH0 KECCAK256 ADD PUSH0 SWAP1 SLOAD SWAP1 PUSH2 0x100 EXP SWAP1 DIV PUSH20 0xFFFFFFFFFFFFFFFFFFFFFFFFFFFFFFFFFFFFFFFF AND PUSH20 0xFFFFFFFFFFFFFFFFFFFFFFFFFFFFFFFFFFFFFFFF AND CALLER PUSH20 0xFFFFFFFFFFFFFFFFFFFFFFFFFFFFFFFFFFFFFFFF AND SUB PUSH2 0x3C0 JUMPI PUSH1 0x1 SWAP2 POP PUSH2 0x3CD JUMP JUMPDEST DUP1 DUP1 PUSH1 0x1 ADD SWAP2 POP POP PUSH2 0x33E JUMP JUMPDEST POP DUP1 PUSH2 0x40E JUMPI PUSH1 0x40 MLOAD PUSH32 0x8C379A000000000000000000000000000000000000000000000000000000000 DUP2 MSTORE PUSH1 0x4 ADD PUSH2 0x405 SWAP1 PUSH2 0xEEC JUMP JUMPDEST PUSH1 0x40 MLOAD DUP1 SWAP2 SUB SWAP1 REVERT JUMPDEST PUSH1 0x2 PUSH1 0x40 MLOAD DUP1 PUSH1 0xA0 ADD PUSH1 0x40 MSTORE DUP1 DUP7 PUSH20 0xFFFFFFFFFFFFFFFFFFFFFFFFFFFFFFFFFFFFFFFF AND DUP2 MSTORE PUSH1 0x20 ADD DUP6 DUP2 MSTORE PUSH1 0x20 ADD DUP5 DUP2 MSTORE PUSH1 0x20 ADD PUSH0 DUP2 MSTORE PUSH1 0x20 ADD PUSH0 ISZERO ISZERO DUP2 MSTORE POP SWAP1 DUP1 PUSH1 0x1 DUP2 SLOAD ADD DUP1 DUP3 SSTORE DUP1 SWAP2 POP POP PUSH1 0x1 SWAP1 SUB SWAP1 PUSH0 MSTORE PUSH1 0x20 PUSH0 KECCAK256 SWAP1 PUSH1 0x5 MUL ADD PUSH0 SWAP1 SWAP2 SWAP1 SWAP2 SWAP1 SWAP2 POP PUSH0 DUP3 ADD MLOAD DUP2 PUSH0 ADD PUSH0 PUSH2 0x100 EXP DUP2 SLOAD DUP2 PUSH20 0xFFFFFFFFFFFFFFFFFFFFFFFFFFFFFFFFFFFFFFFF MUL NOT AND SWAP1 DUP4 PUSH20 0xFFFFFFFFFFFFFFFFFFFFFFFFFFFFFFFFFFFFFFFF AND MUL OR SWAP1 SSTORE POP PUSH1 0x20 DUP3 ADD MLOAD DUP2 PUSH1 0x1 ADD SSTORE PUSH1 0x40 DUP3 ADD MLOAD DUP2 PUSH1 0x2 ADD SWAP1 DUP2 PUSH2 0x4D8 SWAP2 SWAP1 PUSH2 0x10A7 JUMP JUMPDEST POP PUSH1 0x60 DUP3 ADD MLOAD DUP2 PUSH1 0x3 ADD SSTORE PUSH1 0x80 DUP3 ADD MLOAD DUP2 PUSH1 0x4 ADD PUSH0 PUSH2 0x100 EXP DUP2 SLOAD DUP2 PUSH1 0xFF MUL NOT AND SWAP1 DUP4 ISZERO ISZERO MUL OR SWAP1 SSTORE POP POP POP POP POP POP POP JUMP JUMPDEST PUSH0 SELFBALANCE SWAP1 POP SWAP1 JUMP JUMPDEST PUSH1 0x1 SLOAD DUP2 JUMP JUMPDEST PUSH0 PUSH1 0x2 DUP1 SLOAD SWAP1 POP SWAP1 POP SWAP1 JUMP JUMPDEST PUSH0 DUP1 JUMPDEST PUSH0 DUP1 SLOAD SWAP1 POP DUP2 LT ISZERO PUSH2 0x5B5 JUMPI PUSH0 DUP2 DUP2 SLOAD DUP2 LT PUSH2 0x545 JUMPI PUSH2 0x544 PUSH2 0xE65 JUMP JUMPDEST JUMPDEST SWAP1 PUSH0 MSTORE PUSH1 0x20 PUSH0 KECCAK256 ADD PUSH0 SWAP1 SLOAD SWAP1 PUSH2 0x100 EXP SWAP1 DIV PUSH20 0xFFFFFFFFFFFFFFFFFFFFFFFFFFFFFFFFFFFFFFFF AND PUSH20 0xFFFFFFFFFFFFFFFFFFFFFFFFFFFFFFFFFFFFFFFF AND CALLER PUSH20 0xFFFFFFFFFFFFFFFFFFFFFFFFFFFFFFFFFFFFFFFF AND SUB PUSH2 0x5A8 JUMPI PUSH1 0x1 SWAP2 POP PUSH2 0x5B5 JUMP JUMPDEST DUP1 DUP1 PUSH1 0x1 ADD SWAP2 POP POP PUSH2 0x526 JUMP JUMPDEST POP DUP1 PUSH2 0x5F6 JUMPI PUSH1 0x40 MLOAD PUSH32 0x8C379A000000000000000000000000000000000000000000000000000000000 DUP2 MSTORE PUSH1 0x4 ADD PUSH2 0x5ED SWAP1 PUSH2 0xEEC JUMP JUMPDEST PUSH1 0x40 MLOAD DUP1 SWAP2 SUB SWAP1 REVERT JUMPDEST DUP2 PUSH1 0x2 DUP1 SLOAD SWAP1 POP DUP2 LT PUSH2 0x63E JUMPI PUSH1 0x40 MLOAD PUSH32 0x8C379A000000000000000000000000000000000000000000000000000000000 DUP2 MSTORE PUSH1 0x4 ADD PUSH2 0x635 SWAP1 PUSH2 0x11C0 JUMP JUMPDEST PUSH1 0x40 MLOAD DUP1 SWAP2 SUB SWAP1 REVERT JUMPDEST DUP3 PUSH1 0x2 DUP2 DUP2 SLOAD DUP2 LT PUSH2 0x653 JUMPI PUSH2 0x652 PUSH2 0xE65 JUMP JUMPDEST JUMPDEST SWAP1 PUSH0 MSTORE PUSH1 0x20 PUSH0 KECCAK256 SWAP1 PUSH1 0x5 MUL ADD PUSH1 0x4 ADD PUSH0 SWAP1 SLOAD SWAP1 PUSH2 0x100 EXP SWAP1 DIV PUSH1 0xFF AND ISZERO PUSH2 0x6AF JUMPI PUSH1 0x40 MLOAD PUSH32 0x8C379A000000000000000000000000000000000000000000000000000000000 DUP2 MSTORE PUSH1 0x4 ADD PUSH2 0x6A6 SWAP1 PUSH2 0x1228 JUMP JUMPDEST PUSH1 0x40 MLOAD DUP1 SWAP2 SUB SWAP1 REVERT JUMPDEST PUSH1 0x3 PUSH0 CALLER PUSH20 0xFFFFFFFFFFFFFFFFFFFFFFFFFFFFFFFFFFFFFFFF AND PUSH20 0xFFFFFFFFFFFFFFFFFFFFFFFFFFFFFFFFFFFFFFFF AND DUP2 MSTORE PUSH1 0x20 ADD SWAP1 DUP2 MSTORE PUSH1 0x20 ADD PUSH0 KECCAK256 PUSH0 DUP6 DUP2 MSTORE PUSH1 0x20 ADD SWAP1 DUP2 MSTORE PUSH1 0x20 ADD PUSH0 KECCAK256 PUSH0 SWAP1 SLOAD SWAP1 PUSH2 0x100 EXP SWAP1 DIV PUSH1 0xFF AND ISZERO PUSH2 0x748 JUMPI PUSH1 0x40 MLOAD PUSH32 0x8C379A000000000000000000000000000000000000000000000000000000000 DUP2 MSTORE PUSH1 0x4 ADD PUSH2 0x73F SWAP1 PUSH2 0x12B6 JUMP JUMPDEST PUSH1 0x40 MLOAD DUP1 SWAP2 SUB SWAP1 REVERT JUMPDEST PUSH1 0x1 PUSH1 0x2 DUP6 DUP2 SLOAD DUP2 LT PUSH2 0x75E JUMPI PUSH2 0x75D PUSH2 0xE65 JUMP JUMPDEST JUMPDEST SWAP1 PUSH0 MSTORE PUSH1 0x20 PUSH0 KECCAK256 SWAP1 PUSH1 0x5 MUL ADD PUSH1 0x3 ADD PUSH0 DUP3 DUP3 SLOAD PUSH2 0x77B SWAP2 SWAP1 PUSH2 0x1301 JUMP JUMPDEST SWAP3 POP POP DUP2 SWAP1 SSTORE POP PUSH1 0x1 PUSH1 0x3 PUSH0 CALLER PUSH20 0xFFFFFFFFFFFFFFFFFFFFFFFFFFFFFFFFFFFFFFFF AND PUSH20 0xFFFFFFFFFFFFFFFFFFFFFFFFFFFFFFFFFFFFFFFF AND DUP2 MSTORE PUSH1 0x20 ADD SWAP1 DUP2 MSTORE PUSH1 0x20 ADD PUSH0 KECCAK256 PUSH0 DUP7 DUP2 MSTORE PUSH1 0x20 ADD SWAP1 DUP2 MSTORE PUSH1 0x20 ADD PUSH0 KECCAK256 PUSH0 PUSH2 0x100 EXP DUP2 SLOAD DUP2 PUSH1 0xFF MUL NOT AND SWAP1 DUP4 ISZERO ISZERO MUL OR SWAP1 SSTORE POP PUSH1 0x1 SLOAD PUSH1 0x2 DUP6 DUP2 SLOAD DUP2 LT PUSH2 0x7FD JUMPI PUSH2 0x7FC PUSH2 0xE65 JUMP JUMPDEST JUMPDEST SWAP1 PUSH0 MSTORE PUSH1 0x20 PUSH0 KECCAK256 SWAP1 PUSH1 0x5 MUL ADD PUSH1 0x3 ADD SLOAD LT PUSH2 0x81C JUMPI PUSH2 0x81B DUP5 PUSH2 0x84C JUMP JUMPDEST JUMPDEST POP POP POP POP JUMP JUMPDEST PUSH1 0x3 PUSH1 0x20 MSTORE DUP2 PUSH0 MSTORE PUSH1 0x40 PUSH0 KECCAK256 PUSH1 0x20 MSTORE DUP1 PUSH0 MSTORE PUSH1 0x40 PUSH0 KECCAK256 PUSH0 SWAP2 POP SWAP2 POP SWAP1 SLOAD SWAP1 PUSH2 0x100 EXP SWAP1 DIV PUSH1 0xFF AND DUP2 JUMP JUMPDEST DUP1 PUSH1 0x2 DUP1 SLOAD SWAP1 POP DUP2 LT PUSH2 0x894 JUMPI PUSH1 0x40 MLOAD PUSH32 0x8C379A000000000000000000000000000000000000000000000000000000000 DUP2 MSTORE PUSH1 0x4 ADD PUSH2 0x88B SWAP1 PUSH2 0x11C0 JUMP JUMPDEST PUSH1 0x40 MLOAD DUP1 SWAP2 SUB SWAP1 REVERT JUMPDEST DUP2 PUSH1 0x2 DUP2 DUP2 SLOAD DUP2 LT PUSH2 0x8A9 JUMPI PUSH2 0x8A8 PUSH2 0xE65 JUMP JUMPDEST JUMPDEST SWAP1 PUSH0 MSTORE PUSH1 0x20 PUSH0 KECCAK256 SWAP1 PUSH1 0x5 MUL ADD PUSH1 0x4 ADD PUSH0 SWAP1 SLOAD SWAP1 PUSH2 0x100 EXP SWAP1 DIV PUSH1 0xFF AND ISZERO PUSH2 0x905 JUMPI PUSH1 0x40 MLOAD PUSH32 0x8C379A000000000000000000000000000000000000000000000000000000000 DUP2 MSTORE PUSH1 0x4 ADD PUSH2 0x8FC SWAP1 PUSH2 0x1228 JUMP JUMPDEST PUSH1 0x40 MLOAD DUP1 SWAP2 SUB SWAP1 REVERT JUMPDEST PUSH0 PUSH1 0x2 DUP5 DUP2 SLOAD DUP2 LT PUSH2 0x91A JUMPI PUSH2 0x919 PUSH2 0xE65 JUMP JUMPDEST JUMPDEST SWAP1 PUSH0 MSTORE PUSH1 0x20 PUSH0 KECCAK256 SWAP1 PUSH1 0x5 MUL ADD SWAP1 POP PUSH0 DUP2 PUSH0 ADD PUSH0 SWAP1 SLOAD SWAP1 PUSH2 0x100 EXP SWAP1 DIV PUSH20 0xFFFFFFFFFFFFFFFFFFFFFFFFFFFFFFFFFFFFFFFF AND PUSH20 0xFFFFFFFFFFFFFFFFFFFFFFFFFFFFFFFFFFFFFFFF AND DUP3 PUSH1 0x1 ADD SLOAD DUP4 PUSH1 0x2 ADD PUSH1 0x40 MLOAD PUSH2 0x978 SWAP2 SWAP1 PUSH2 0x13BE JUMP JUMPDEST PUSH0 PUSH1 0x40 MLOAD DUP1 DUP4 SUB DUP2 DUP6 DUP8 GAS CALL SWAP3 POP POP POP RETURNDATASIZE DUP1 PUSH0 DUP2 EQ PUSH2 0x9B2 JUMPI PUSH1 0x40 MLOAD SWAP2 POP PUSH1 0x1F NOT PUSH1 0x3F RETURNDATASIZE ADD AND DUP3 ADD PUSH1 0x40 MSTORE RETURNDATASIZE DUP3 MSTORE RETURNDATASIZE PUSH0 PUSH1 0x20 DUP5 ADD RETURNDATACOPY PUSH2 0x9B7 JUMP JUMPDEST PUSH1 0x60 SWAP2 POP JUMPDEST POP POP SWAP1 POP DUP1 PUSH2 0x9FB JUMPI PUSH1 0x40 MLOAD PUSH32 0x8C379A000000000000000000000000000000000000000000000000000000000 DUP2 MSTORE PUSH1 0x4 ADD PUSH2 0x9F2 SWAP1 PUSH2 0x141E JUMP JUMPDEST PUSH1 0x40 MLOAD DUP1 SWAP2 SUB SWAP1 REVERT JUMPDEST PUSH1 0x1 DUP3 PUSH1 0x4 ADD PUSH0 PUSH2 0x100 EXP DUP2 SLOAD DUP2 PUSH1 0xFF MUL NOT AND SWAP1 DUP4 ISZERO ISZERO MUL OR SWAP1 SSTORE POP POP POP POP POP POP JUMP JUMPDEST PUSH0 PUSH1 0x40 MLOAD SWAP1 POP SWAP1 JUMP JUMPDEST PUSH0 DUP1 REVERT JUMPDEST PUSH0 DUP1 REVERT JUMPDEST PUSH0 DUP2 SWAP1 POP SWAP2 SWAP1 POP JUMP JUMPDEST PUSH2 0xA41 DUP2 PUSH2 0xA2F JUMP JUMPDEST DUP2 EQ PUSH2 0xA4B JUMPI PUSH0 DUP1 REVERT JUMPDEST POP JUMP JUMPDEST PUSH0 DUP2 CALLDATALOAD SWAP1 POP PUSH2 0xA5C DUP2 PUSH2 0xA38 JUMP JUMPDEST SWAP3 SWAP2 POP POP JUMP JUMPDEST PUSH0 PUSH1 0x20 DUP3 DUP5 SUB SLT ISZERO PUSH2 0xA77 JUMPI PUSH2 0xA76 PUSH2 0xA27 JUMP JUMPDEST JUMPDEST PUSH0 PUSH2 0xA84 DUP5 DUP3 DUP6 ADD PUSH2 0xA4E JUMP JUMPDEST SWAP2 POP POP SWAP3 SWAP2 POP POP JUMP JUMPDEST PUSH0 PUSH20 0xFFFFFFFFFFFFFFFFFFFFFFFFFFFFFFFFFFFFFFFF DUP3 AND SWAP1 POP SWAP2 SWAP1 POP JUMP JUMPDEST PUSH0 PUSH2 0xAB6 DUP3 PUSH2 0xA8D JUMP JUMPDEST SWAP1 POP SWAP2 SWAP1 POP JUMP JUMPDEST PUSH2 0xAC6 DUP2 PUSH2 0xAAC JUMP JUMPDEST DUP3 MSTORE POP POP JUMP JUMPDEST PUSH2 0xAD5 DUP2 PUSH2 0xA2F JUMP JUMPDEST DUP3 MSTORE POP POP JUMP JUMPDEST PUSH0 DUP2 MLOAD SWAP1 POP SWAP2 SWAP1 POP JUMP JUMPDEST PUSH0 DUP3 DUP3 MSTORE PUSH1 0x20 DUP3 ADD SWAP1 POP SWAP3 SWAP2 POP POP JUMP JUMPDEST DUP3 DUP2 DUP4 MCOPY PUSH0 DUP4 DUP4 ADD MSTORE POP POP POP JUMP JUMPDEST PUSH0 PUSH1 0x1F NOT PUSH1 0x1F DUP4 ADD AND SWAP1 POP SWAP2 SWAP1 POP JUMP JUMPDEST PUSH0 PUSH2 0xB1D DUP3 PUSH2 0xADB JUMP JUMPDEST PUSH2 0xB27 DUP2 DUP6 PUSH2 0xAE5 JUMP JUMPDEST SWAP4 POP PUSH2 0xB37 DUP2 DUP6 PUSH1 0x20 DUP7 ADD PUSH2 0xAF5 JUMP JUMPDEST PUSH2 0xB40 DUP2 PUSH2 0xB03 JUMP JUMPDEST DUP5 ADD SWAP2 POP POP SWAP3 SWAP2 POP POP JUMP JUMPDEST PUSH0 DUP2 ISZERO ISZERO SWAP1 POP SWAP2 SWAP1 POP JUMP JUMPDEST PUSH2 0xB5F DUP2 PUSH2 0xB4B JUMP JUMPDEST DUP3 MSTORE POP POP JUMP JUMPDEST PUSH0 PUSH1 0xA0 DUP3 ADD SWAP1 POP PUSH2 0xB78 PUSH0 DUP4 ADD DUP9 PUSH2 0xABD JUMP JUMPDEST PUSH2 0xB85 PUSH1 0x20 DUP4 ADD DUP8 PUSH2 0xACC JUMP JUMPDEST DUP2 DUP2 SUB PUSH1 0x40 DUP4 ADD MSTORE PUSH2 0xB97 DUP2 DUP7 PUSH2 0xB13 JUMP JUMPDEST SWAP1 POP PUSH2 0xBA6 PUSH1 0x60 DUP4 ADD DUP6 PUSH2 0xACC JUMP JUMPDEST PUSH2 0xBB3 PUSH1 0x80 DUP4 ADD DUP5 PUSH2 0xB56 JUMP JUMPDEST SWAP7 SWAP6 POP POP POP POP POP POP JUMP JUMPDEST PUSH0 PUSH1 0x20 DUP3 ADD SWAP1 POP PUSH2 0xBD0 PUSH0 DUP4 ADD DUP5 PUSH2 0xABD JUMP JUMPDEST SWAP3 SWAP2 POP POP JUMP JUMPDEST PUSH2 0xBDF DUP2 PUSH2 0xAAC JUMP JUMPDEST DUP2 EQ PUSH2 0xBE9 JUMPI PUSH0 DUP1 REVERT JUMPDEST POP JUMP JUMPDEST PUSH0 DUP2 CALLDATALOAD SWAP1 POP PUSH2 0xBFA DUP2 PUSH2 0xBD6 JUMP JUMPDEST SWAP3 SWAP2 POP POP JUMP JUMPDEST PUSH0 DUP1 REVERT JUMPDEST PUSH0 DUP1 REVERT JUMPDEST PUSH32 0x4E487B7100000000000000000000000000000000000000000000000000000000 PUSH0 MSTORE PUSH1 0x41 PUSH1 0x4 MSTORE PUSH1 0x24 PUSH0 REVERT JUMPDEST PUSH2 0xC3E DUP3 PUSH2 0xB03 JUMP JUMPDEST DUP2 ADD DUP2 DUP2 LT PUSH8 0xFFFFFFFFFFFFFFFF DUP3 GT OR ISZERO PUSH2 0xC5D JUMPI PUSH2 0xC5C PUSH2 0xC08 JUMP JUMPDEST JUMPDEST DUP1 PUSH1 0x40 MSTORE POP POP POP JUMP JUMPDEST PUSH0 PUSH2 0xC6F PUSH2 0xA1E JUMP JUMPDEST SWAP1 POP PUSH2 0xC7B DUP3 DUP3 PUSH2 0xC35 JUMP JUMPDEST SWAP2 SWAP1 POP JUMP JUMPDEST PUSH0 PUSH8 0xFFFFFFFFFFFFFFFF DUP3 GT ISZERO PUSH2 0xC9A JUMPI PUSH2 0xC99 PUSH2 0xC08 JUMP JUMPDEST JUMPDEST PUSH2 0xCA3 DUP3 PUSH2 0xB03 JUMP JUMPDEST SWAP1 POP PUSH1 0x20 DUP2 ADD SWAP1 POP SWAP2 SWAP1 POP JUMP JUMPDEST DUP3 DUP2 DUP4 CALLDATACOPY PUSH0 DUP4 DUP4 ADD MSTORE POP POP POP JUMP JUMPDEST PUSH0 PUSH2 0xCD0 PUSH2 0xCCB DUP5 PUSH2 0xC80 JUMP JUMPDEST PUSH2 0xC66 JUMP JUMPDEST SWAP1 POP DUP3 DUP2 MSTORE PUSH1 0x20 DUP2 ADD DUP5 DUP5 DUP5 ADD GT ISZERO PUSH2 0xCEC JUMPI PUSH2 0xCEB PUSH2 0xC04 JUMP JUMPDEST JUMPDEST PUSH2 0xCF7 DUP5 DUP3 DUP6 PUSH2 0xCB0 JUMP JUMPDEST POP SWAP4 SWAP3 POP POP POP JUMP JUMPDEST PUSH0 DUP3 PUSH1 0x1F DUP4 ADD SLT PUSH2 0xD13 JUMPI PUSH2 0xD12 PUSH2 0xC00 JUMP JUMPDEST JUMPDEST DUP2 CALLDATALOAD PUSH2 0xD23 DUP5 DUP3 PUSH1 0x20 DUP7 ADD PUSH2 0xCBE JUMP JUMPDEST SWAP2 POP POP SWAP3 SWAP2 POP POP JUMP JUMPDEST PUSH0 DUP1 PUSH0 PUSH1 0x60 DUP5 DUP7 SUB SLT ISZERO PUSH2 0xD43 JUMPI PUSH2 0xD42 PUSH2 0xA27 JUMP JUMPDEST JUMPDEST PUSH0 PUSH2 0xD50 DUP7 DUP3 DUP8 ADD PUSH2 0xBEC JUMP JUMPDEST SWAP4 POP POP PUSH1 0x20 PUSH2 0xD61 DUP7 DUP3 DUP8 ADD PUSH2 0xA4E JUMP JUMPDEST SWAP3 POP POP PUSH1 0x40 DUP5 ADD CALLDATALOAD PUSH8 0xFFFFFFFFFFFFFFFF DUP2 GT ISZERO PUSH2 0xD82 JUMPI PUSH2 0xD81 PUSH2 0xA2B JUMP JUMPDEST JUMPDEST PUSH2 0xD8E DUP7 DUP3 DUP8 ADD PUSH2 0xCFF JUMP JUMPDEST SWAP2 POP POP SWAP3 POP SWAP3 POP SWAP3 JUMP JUMPDEST PUSH0 PUSH1 0x20 DUP3 ADD SWAP1 POP PUSH2 0xDAB PUSH0 DUP4 ADD DUP5 PUSH2 0xACC JUMP JUMPDEST SWAP3 SWAP2 POP POP JUMP JUMPDEST PUSH0 DUP1 PUSH1 0x40 DUP4 DUP6 SUB SLT ISZERO PUSH2 0xDC7 JUMPI PUSH2 0xDC6 PUSH2 0xA27 JUMP JUMPDEST JUMPDEST PUSH0 PUSH2 0xDD4 DUP6 DUP3 DUP7 ADD PUSH2 0xBEC JUMP JUMPDEST SWAP3 POP POP PUSH1 0x20 PUSH2 0xDE5 DUP6 DUP3 DUP7 ADD PUSH2 0xA4E JUMP JUMPDEST SWAP2 POP POP SWAP3 POP SWAP3 SWAP1 POP JUMP JUMPDEST PUSH0 PUSH1 0x20 DUP3 ADD SWAP1 POP PUSH2 0xE02 PUSH0 DUP4 ADD DUP5 PUSH2 0xB56 JUMP JUMPDEST SWAP3 SWAP2 POP POP JUMP JUMPDEST PUSH32 0x4E487B7100000000000000000000000000000000000000000000000000000000 PUSH0 MSTORE PUSH1 0x22 PUSH1 0x4 MSTORE PUSH1 0x24 PUSH0 REVERT JUMPDEST PUSH0 PUSH1 0x2 DUP3 DIV SWAP1 POP PUSH1 0x1 DUP3 AND DUP1 PUSH2 0xE4C JUMPI PUSH1 0x7F DUP3 AND SWAP2 POP JUMPDEST PUSH1 0x20 DUP3 LT DUP2 SUB PUSH2 0xE5F JUMPI PUSH2 0xE5E PUSH2 0xE08 JUMP JUMPDEST JUMPDEST POP SWAP2 SWAP1 POP JUMP JUMPDEST PUSH32 0x4E487B7100000000000000000000000000000000000000000000000000000000 PUSH0 MSTORE PUSH1 0x32 PUSH1 0x4 MSTORE PUSH1 0x24 PUSH0 REVERT JUMPDEST PUSH0 DUP3 DUP3 MSTORE PUSH1 0x20 DUP3 ADD SWAP1 POP SWAP3 SWAP2 POP POP JUMP JUMPDEST PUSH32 0x4E6F7420616E206F776E65720000000000000000000000000000000000000000 PUSH0 DUP3 ADD MSTORE POP JUMP JUMPDEST PUSH0 PUSH2 0xED6 PUSH1 0xC DUP4 PUSH2 0xE92 JUMP JUMPDEST SWAP2 POP PUSH2 0xEE1 DUP3 PUSH2 0xEA2 JUMP JUMPDEST PUSH1 0x20 DUP3 ADD SWAP1 POP SWAP2 SWAP1 POP JUMP JUMPDEST PUSH0 PUSH1 0x20 DUP3 ADD SWAP1 POP DUP2 DUP2 SUB PUSH0 DUP4 ADD MSTORE PUSH2 0xF03 DUP2 PUSH2 0xECA JUMP JUMPDEST SWAP1 POP SWAP2 SWAP1 POP JUMP JUMPDEST PUSH0 DUP2 SWAP1 POP DUP2 PUSH0 MSTORE PUSH1 0x20 PUSH0 KECCAK256 SWAP1 POP SWAP2 SWAP1 POP JUMP JUMPDEST PUSH0 PUSH1 0x20 PUSH1 0x1F DUP4 ADD DIV SWAP1 POP SWAP2 SWAP1 POP JUMP JUMPDEST PUSH0 DUP3 DUP3 SHL SWAP1 POP SWAP3 SWAP2 POP POP JUMP JUMPDEST PUSH0 PUSH1 0x8 DUP4 MUL PUSH2 0xF66 PUSH32 0xFFFFFFFFFFFFFFFFFFFFFFFFFFFFFFFFFFFFFFFFFFFFFFFFFFFFFFFFFFFFFFFF DUP3 PUSH2 0xF2B JUMP JUMPDEST PUSH2 0xF70 DUP7 DUP4 PUSH2 0xF2B JUMP JUMPDEST SWAP6 POP DUP1 NOT DUP5 AND SWAP4 POP DUP1 DUP7 AND DUP5 OR SWAP3 POP POP POP SWAP4 SWAP3 POP POP POP JUMP JUMPDEST PUSH0 DUP2 SWAP1 POP SWAP2 SWAP1 POP JUMP JUMPDEST PUSH0 PUSH2 0xFAB PUSH2 0xFA6 PUSH2 0xFA1 DUP5 PUSH2 0xA2F JUMP JUMPDEST PUSH2 0xF88 JUMP JUMPDEST PUSH2 0xA2F JUMP JUMPDEST SWAP1 POP SWAP2 SWAP1 POP JUMP JUMPDEST PUSH0 DUP2 SWAP1 POP SWAP2 SWAP1 POP JUMP JUMPDEST PUSH2 0xFC4 DUP4 PUSH2 0xF91 JUMP JUMPDEST PUSH2 0xFD8 PUSH2 0xFD0 DUP3 PUSH2 0xFB2 JUMP JUMPDEST DUP5 DUP5 SLOAD PUSH2 0xF37 JUMP JUMPDEST DUP3 SSTORE POP POP POP POP JUMP JUMPDEST PUSH0 SWAP1 JUMP JUMPDEST PUSH2 0xFEC PUSH2 0xFE0 JUMP JUMPDEST PUSH2 0xFF7 DUP2 DUP5 DUP5 PUSH2 0xFBB JUMP JUMPDEST POP POP POP JUMP JUMPDEST JUMPDEST DUP2 DUP2 LT ISZERO PUSH2 0x101A JUMPI PUSH2 0x100F PUSH0 DUP3 PUSH2 0xFE4 JUMP JUMPDEST PUSH1 0x1 DUP2 ADD SWAP1 POP PUSH2 0xFFD JUMP JUMPDEST POP POP JUMP JUMPDEST PUSH1 0x1F DUP3 GT ISZERO PUSH2 0x105F JUMPI PUSH2 0x1030 DUP2 PUSH2 0xF0A JUMP JUMPDEST PUSH2 0x1039 DUP5 PUSH2 0xF1C JUMP JUMPDEST DUP2 ADD PUSH1 0x20 DUP6 LT ISZERO PUSH2 0x1048 JUMPI DUP2 SWAP1 POP JUMPDEST PUSH2 0x105C PUSH2 0x1054 DUP6 PUSH2 0xF1C JUMP JUMPDEST DUP4 ADD DUP3 PUSH2 0xFFC JUMP JUMPDEST POP POP JUMPDEST POP POP POP JUMP JUMPDEST PUSH0 DUP3 DUP3 SHR SWAP1 POP SWAP3 SWAP2 POP POP JUMP JUMPDEST PUSH0 PUSH2 0x107F PUSH0 NOT DUP5 PUSH1 0x8 MUL PUSH2 0x1064 JUMP JUMPDEST NOT DUP1 DUP4 AND SWAP2 POP POP SWAP3 SWAP2 POP POP JUMP JUMPDEST PUSH0 PUSH2 0x1097 DUP4 DUP4 PUSH2 0x1070 JUMP JUMPDEST SWAP2 POP DUP3 PUSH1 0x2 MUL DUP3 OR SWAP1 POP SWAP3 SWAP2 POP POP JUMP JUMPDEST PUSH2 0x10B0 DUP3 PUSH2 0xADB JUMP JUMPDEST PUSH8 0xFFFFFFFFFFFFFFFF DUP2 GT ISZERO PUSH2 0x10C9 JUMPI PUSH2 0x10C8 PUSH2 0xC08 JUMP JUMPDEST JUMPDEST PUSH2 0x10D3 DUP3 SLOAD PUSH2 0xE35 JUMP JUMPDEST PUSH2 0x10DE DUP3 DUP3 DUP6 PUSH2 0x101E JUMP JUMPDEST PUSH0 PUSH1 0x20 SWAP1 POP PUSH1 0x1F DUP4 GT PUSH1 0x1 DUP2 EQ PUSH2 0x110F JUMPI PUSH0 DUP5 ISZERO PUSH2 0x10FD JUMPI DUP3 DUP8 ADD MLOAD SWAP1 POP JUMPDEST PUSH2 0x1107 DUP6 DUP3 PUSH2 0x108C JUMP JUMPDEST DUP7 SSTORE POP PUSH2 0x116E JUMP JUMPDEST PUSH1 0x1F NOT DUP5 AND PUSH2 0x111D DUP7 PUSH2 0xF0A JUMP JUMPDEST PUSH0 JUMPDEST DUP3 DUP2 LT ISZERO PUSH2 0x1144 JUMPI DUP5 DUP10 ADD MLOAD DUP3 SSTORE PUSH1 0x1 DUP3 ADD SWAP2 POP PUSH1 0x20 DUP6 ADD SWAP5 POP PUSH1 0x20 DUP2 ADD SWAP1 POP PUSH2 0x111F JUMP JUMPDEST DUP7 DUP4 LT ISZERO PUSH2 0x1161 JUMPI DUP5 DUP10 ADD MLOAD PUSH2 0x115D PUSH1 0x1F DUP10 AND DUP3 PUSH2 0x1070 JUMP JUMPDEST DUP4 SSTORE POP JUMPDEST PUSH1 0x1 PUSH1 0x2 DUP9 MUL ADD DUP9 SSTORE POP POP POP JUMPDEST POP POP POP POP POP POP JUMP JUMPDEST PUSH32 0x50726F706F73616C20646F6573206E6F74206578697374000000000000000000 PUSH0 DUP3 ADD MSTORE POP JUMP JUMPDEST PUSH0 PUSH2 0x11AA PUSH1 0x17 DUP4 PUSH2 0xE92 JUMP JUMPDEST SWAP2 POP PUSH2 0x11B5 DUP3 PUSH2 0x1176 JUMP JUMPDEST PUSH1 0x20 DUP3 ADD SWAP1 POP SWAP2 SWAP1 POP JUMP JUMPDEST PUSH0 PUSH1 0x20 DUP3 ADD SWAP1 POP DUP2 DUP2 SUB PUSH0 DUP4 ADD MSTORE PUSH2 0x11D7 DUP2 PUSH2 0x119E JUMP JUMPDEST SWAP1 POP SWAP2 SWAP1 POP JUMP JUMPDEST PUSH32 0x50726F706F73616C20616C726561647920657865637574656400000000000000 PUSH0 DUP3 ADD MSTORE POP JUMP JUMPDEST PUSH0 PUSH2 0x1212 PUSH1 0x19 DUP4 PUSH2 0xE92 JUMP JUMPDEST SWAP2 POP PUSH2 0x121D DUP3 PUSH2 0x11DE JUMP JUMPDEST PUSH1 0x20 DUP3 ADD SWAP1 POP SWAP2 SWAP1 POP JUMP JUMPDEST PUSH0 PUSH1 0x20 DUP3 ADD SWAP1 POP DUP2 DUP2 SUB PUSH0 DUP4 ADD MSTORE PUSH2 0x123F DUP2 PUSH2 0x1206 JUMP JUMPDEST SWAP1 POP SWAP2 SWAP1 POP JUMP JUMPDEST PUSH32 0x50726F706F73616C20616C726561647920636F6E6669726D656420627920796F PUSH0 DUP3 ADD MSTORE PUSH32 0x7500000000000000000000000000000000000000000000000000000000000000 PUSH1 0x20 DUP3 ADD MSTORE POP JUMP JUMPDEST PUSH0 PUSH2 0x12A0 PUSH1 0x21 DUP4 PUSH2 0xE92 JUMP JUMPDEST SWAP2 POP PUSH2 0x12AB DUP3 PUSH2 0x1246 JUMP JUMPDEST PUSH1 0x40 DUP3 ADD SWAP1 POP SWAP2 SWAP1 POP JUMP JUMPDEST PUSH0 PUSH1 0x20 DUP3 ADD SWAP1 POP DUP2 DUP2 SUB PUSH0 DUP4 ADD MSTORE PUSH2 0x12CD DUP2 PUSH2 0x1294 JUMP JUMPDEST SWAP1 POP SWAP2 SWAP1 POP JUMP JUMPDEST PUSH32 0x4E487B7100000000000000000000000000000000000000000000000000000000 PUSH0 MSTORE PUSH1 0x11 PUSH1 0x4 MSTORE PUSH1 0x24 PUSH0 REVERT JUMPDEST PUSH0 PUSH2 0x130B DUP3 PUSH2 0xA2F JUMP JUMPDEST SWAP2 POP PUSH2 0x1316 DUP4 PUSH2 0xA2F JUMP JUMPDEST SWAP3 POP DUP3 DUP3 ADD SWAP1 POP DUP1 DUP3 GT ISZERO PUSH2 0x132E JUMPI PUSH2 0x132D PUSH2 0x12D4 JUMP JUMPDEST JUMPDEST SWAP3 SWAP2 POP POP JUMP JUMPDEST PUSH0 DUP2 SWAP1 POP SWAP3 SWAP2 POP POP JUMP JUMPDEST PUSH0 DUP2 SLOAD PUSH2 0x134A DUP2 PUSH2 0xE35 JUMP JUMPDEST PUSH2 0x1354 DUP2 DUP7 PUSH2 0x1334 JUMP JUMPDEST SWAP5 POP PUSH1 0x1 DUP3 AND PUSH0 DUP2 EQ PUSH2 0x136E JUMPI PUSH1 0x1 DUP2 EQ PUSH2 0x1383 JUMPI PUSH2 0x13B5 JUMP JUMPDEST PUSH1 0xFF NOT DUP4 AND DUP7 MSTORE DUP2 ISZERO ISZERO DUP3 MUL DUP7 ADD SWAP4 POP PUSH2 0x13B5 JUMP JUMPDEST PUSH2 0x138C DUP6 PUSH2 0xF0A JUMP JUMPDEST PUSH0 JUMPDEST DUP4 DUP2 LT ISZERO PUSH2 0x13AD JUMPI DUP2 SLOAD DUP2 DUP10 ADD MSTORE PUSH1 0x1 DUP3 ADD SWAP2 POP PUSH1 0x20 DUP2 ADD SWAP1 POP PUSH2 0x138E JUMP JUMPDEST DUP4 DUP9 ADD SWAP6 POP POP POP JUMPDEST POP POP POP SWAP3 SWAP2 POP POP JUMP JUMPDEST PUSH0 PUSH2 0x13C9 DUP3 DUP5 PUSH2 0x133E JUMP JUMPDEST SWAP2 POP DUP2 SWAP1 POP SWAP3 SWAP2 POP POP JUMP JUMPDEST PUSH32 0x5472616E73616374696F6E206661696C65640000000000000000000000000000 PUSH0 DUP3 ADD MSTORE POP JUMP JUMPDEST PUSH0 PUSH2 0x1408 PUSH1 0x12 DUP4 PUSH2 0xE92 JUMP JUMPDEST SWAP2 POP PUSH2 0x1413 DUP3 PUSH2 0x13D4 JUMP JUMPDEST PUSH1 0x20 DUP3 ADD SWAP1 POP SWAP2 SWAP1 POP JUMP JUMPDEST PUSH0 PUSH1 0x20 DUP3 ADD SWAP1 POP DUP2 DUP2 SUB PUSH0 DUP4 ADD MSTORE PUSH2 0x1435 DUP2 PUSH2 0x13FC JUMP JUMPDEST SWAP1 POP SWAP2 SWAP1 POP JUMP INVALID LOG2 PUSH5 0x6970667358 0x22 SLT KECCAK256 PUSH12 0x136F499D610FDED0D62608D CALLDATASIZE PUSH24 0xE4A2670F60FE8AB23BC9196C1FBF2056F64736F6C634300 ADDMOD BYTE STOP CALLER "
				},
				"gasEstimates": {
					"creation": {
						"codeDepositCost": "1046800",
						"executionCost": "infinite",
						"totalCost": "infinite"
					},
					"external": {
						"confirmProposal(uint256)": "infinite",
						"confirmations(address,uint256)": "3137",
						"getBalance()": "401",
						"getProposalCount()": "2462",
						"owners(uint256)": "4966",
						"proposals(uint256)": "infinite",
						"submitProposal(address,uint256,bytes)": "infinite",
						"threshold()": "2425"
					},
					"internal": {
						"executeProposal(uint256)": "infinite"
					}
				},
				"methodIdentifiers": {
					"confirmProposal(uint256)": "f4a4f4d2",
					"confirmations(address,uint256)": "f84fd9ef",
					"getBalance()": "12065fe0",
					"getProposalCount()": "c08cc02d",
					"owners(uint256)": "025e7c27",
					"proposals(uint256)": "013cf08b",
					"submitProposal(address,uint256,bytes)": "11d03015",
					"threshold()": "42cde4e8"
				}
			},
			"storageLayout": {
				"storage": [
					{
						"astId": 4,
						"contract": "multiwallet.sol:MultiSigWallet",
						"label": "owners",
						"offset": 0,
						"slot": "0",
						"type": "t_array(t_address)dyn_storage"
					},
					{
						"astId": 6,
						"contract": "multiwallet.sol:MultiSigWallet",
						"label": "threshold",
						"offset": 0,
						"slot": "1",
						"type": "t_uint256"
					},
					{
						"astId": 21,
						"contract": "multiwallet.sol:MultiSigWallet",
						"label": "proposals",
						"offset": 0,
						"slot": "2",
						"type": "t_array(t_struct(Proposal)17_storage)dyn_storage"
					},
					{
						"astId": 27,
						"contract": "multiwallet.sol:MultiSigWallet",
						"label": "confirmations",
						"offset": 0,
						"slot": "3",
						"type": "t_mapping(t_address,t_mapping(t_uint256,t_bool))"
					}
				],
				"types": {
					"t_address": {
						"encoding": "inplace",
						"label": "address",
						"numberOfBytes": "20"
					},
					"t_array(t_address)dyn_storage": {
						"base": "t_address",
						"encoding": "dynamic_array",
						"label": "address[]",
						"numberOfBytes": "32"
					},
					"t_array(t_struct(Proposal)17_storage)dyn_storage": {
						"base": "t_struct(Proposal)17_storage",
						"encoding": "dynamic_array",
						"label": "struct MultiSigWallet.Proposal[]",
						"numberOfBytes": "32"
					},
					"t_bool": {
						"encoding": "inplace",
						"label": "bool",
						"numberOfBytes": "1"
					},
					"t_bytes_storage": {
						"encoding": "bytes",
						"label": "bytes",
						"numberOfBytes": "32"
					},
					"t_mapping(t_address,t_mapping(t_uint256,t_bool))": {
						"encoding": "mapping",
						"key": "t_address",
						"label": "mapping(address => mapping(uint256 => bool))",
						"numberOfBytes": "32",
						"value": "t_mapping(t_uint256,t_bool)"
					},
					"t_mapping(t_uint256,t_bool)": {
						"encoding": "mapping",
						"key": "t_uint256",
						"label": "mapping(uint256 => bool)",
						"numberOfBytes": "32",
						"value": "t_bool"
					},
					"t_struct(Proposal)17_storage": {
						"encoding": "inplace",
						"label": "struct MultiSigWallet.Proposal",
						"members": [
							{
								"astId": 8,
								"contract": "multiwallet.sol:MultiSigWallet",
								"label": "recipient",
								"offset": 0,
								"slot": "0",
								"type": "t_address"
							},
							{
								"astId": 10,
								"contract": "multiwallet.sol:MultiSigWallet",
								"label": "amount",
								"offset": 0,
								"slot": "1",
								"type": "t_uint256"
							},
							{
								"astId": 12,
								"contract": "multiwallet.sol:MultiSigWallet",
								"label": "data",
								"offset": 0,
								"slot": "2",
								"type": "t_bytes_storage"
							},
							{
								"astId": 14,
								"contract": "multiwallet.sol:MultiSigWallet",
								"label": "confirmations",
								"offset": 0,
								"slot": "3",
								"type": "t_uint256"
							},
							{
								"astId": 16,
								"contract": "multiwallet.sol:MultiSigWallet",
								"label": "executed",
								"offset": 0,
								"slot": "4",
								"type": "t_bool"
							}
						],
						"numberOfBytes": "160"
					},
					"t_uint256": {
						"encoding": "inplace",
						"label": "uint256",
						"numberOfBytes": "32"
					}
				}
			},
			"userdoc": {
				"kind": "user",
				"methods": {},
				"version": 1
			}
		}
	}
}