{
	"data": {
		"bytecode": {
			"linkReferences": {},
			"object": "5f8054336001600160a01b0319918216178255608082905260a08290526002805482169055600382905560c082905260e0829052600480548216905560058290556101406040526101008290526101208290526006805490911690556007556109a28061006b5f395ff3fe60806040526004361061007c575f3560e01c8063689dbf4e1161004c578063689dbf4e146101235780638f28397014610161578063b5fc70f714610180578063f851a440146101bc575f80fd5b806327e235e3146100915780632c83b4b2146100cf5780633ccfd60b146100f057806347e7ef2414610104575f80fd5b3661008d5761008b33346101f2565b005b5f80fd5b34801561009c575f80fd5b506100bc6100ab36600461085f565b60016020525f908152604090205481565b6040519081526020015b60405180910390f35b3480156100da575f80fd5b506100e3610267565b6040516100c69190610881565b3480156100fb575f80fd5b506100bc6102cb565b34801561010f575f80fd5b5061008b61011e3660046108c6565b6101f2565b34801561012e575f80fd5b5061014261013d3660046108f0565b610351565b604080516001600160a01b0390931683526020830191909152016100c6565b34801561016c575f80fd5b5061008b61017b36600461085f565b61037c565b34801561018b575f80fd5b5061019f61019a36600461085f565b6103e3565b6040805193151584526020840192909252908201526060016100c6565b3480156101c7575f80fd5b505f546101da906001600160a01b031681565b6040516001600160a01b0390911681526020016100c6565b8061020566038d7ea4c68000600161091b565b81116102585760405162461bcd60e51b815260206004820152601760248201527f6d757374206d6f7265207468616e20312046696e6e657900000000000000000060448201526064015b60405180910390fd5b6102628383610460565b505050565b61026f610810565b6040805160608101909152600260035f835b828210156102c2576040805180820190915260028302850180546001600160a01b031682526001908101546020808401919091529183529092019101610281565b50505050905090565b5f80546001600160a01b031633146103135760405162461bcd60e51b815260206004820152600b60248201526a61646d696e2077726f6e6760a81b604482015260640161024f565b5f80546040516001600160a01b03909116914780156108fc02929091818181858888f1935050505015801561034a573d5f803e3d5ffd5b5047905090565b60028160038110610360575f80fd5b6002020180546001909101546001600160a01b03909116915082565b5f546001600160a01b031633146103c25760405162461bcd60e51b815260206004820152600a60248201526936bab9ba1030b236b4b760b11b604482015260640161024f565b5f80546001600160a01b0319166001600160a01b0392909216919091179055565b5f8080805b600381101561044e576002816003811061040457610404610932565b60020201546001600160a01b03908116908616036104465760016002826003811061043157610431610932565b60020201600101548293509350935050610459565b6001016103e8565b505f805f9250925092505b9193909250565b6001600160a01b0382165f90815260016020526040902054610483908290610946565b6001600160a01b0383165f90815260016020526040812091909155805b600381101561051d57600281600381106104bc576104bc610932565b60020201546001600160a01b0390811690851603610515576001600160a01b0384165f908152600160208190526040909120549092506002826003811061050557610505610932565b600202016001018190555061051d565b6001016104a0565b5080610262576003546001600160a01b0384165f90815260016020526040902054111561058257600280546001600160a01b0319166001600160a01b03851690811782555f9081526001602052604081205491905b600202016001018190555061062c565b6005546001600160a01b0384165f9081526001602052604090205411156105db57600480546001600160a01b0319166001600160a01b0385169081179091555f9081526001602081905260409091205490600290610572565b6007546001600160a01b0384165f90815260016020526040902054111561062c57600680546001600160a01b0319166001600160a01b0385169081179091555f908152600160205260409020546007555b61026260035f5b61063e600183610959565b8110156107a9575f5b81610653600185610959565b61065d9190610959565b8110156107a0575f806106f46002846003811061067c5761067c610932565b6040805180820190915260029182029290920180546001600160a01b0316835260019081015460208401526106b2908790610946565b600381106106c2576106c2610932565b604080518082019091526002919091029190910180546001600160a01b031682526001015460208201526107ad6107b7565b91509150816002846003811061070c5761070c610932565b825160029182029290920180546001600160a01b0319166001600160a01b0390931692909217825560209092015160019182015582919061074e908690610946565b6003811061075e5761075e610932565b82516002919091029190910180546001600160a01b0319166001600160a01b039092169190911781556020909101516001918201559290920191506106479050565b50600101610633565b5050565b8082115b92915050565b604080518082019091525f8082526020820152604080518082019091525f80825260208201526107f3856020015185602001518563ffffffff16565b15610802575082905083610808565b50839050825b935093915050565b60405180606001604052806003905b604080518082019091525f808252602082015281526020019060019003908161081f5790505090565b6001600160a01b038116811461085c575f80fd5b50565b5f6020828403121561086f575f80fd5b813561087a81610848565b9392505050565b60c0810181835f5b60038110156108bd57815180516001600160a01b031684526020908101518185015260409093019290910190600101610889565b50505092915050565b5f80604083850312156108d7575f80fd5b82356108e281610848565b946020939093013593505050565b5f60208284031215610900575f80fd5b5035919050565b634e487b7160e01b5f52601160045260245ffd5b80820281158282048414176107b1576107b1610907565b634e487b7160e01b5f52603260045260245ffd5b808201808211156107b1576107b1610907565b818103818111156107b1576107b161090756fea264697066735822122029059f17f8ee80eaf001ad62951272d07be61359d43235c0613e5977c3002b2a64736f6c634300081a0033",
			"opcodes": "PUSH0 DUP1 SLOAD CALLER PUSH1 0x1 PUSH1 0x1 PUSH1 0xA0 SHL SUB NOT SWAP2 DUP3 AND OR DUP3 SSTORE PUSH1 0x80 DUP3 SWAP1 MSTORE PUSH1 0xA0 DUP3 SWAP1 MSTORE PUSH1 0x2 DUP1 SLOAD DUP3 AND SWAP1 SSTORE PUSH1 0x3 DUP3 SWAP1 SSTORE PUSH1 0xC0 DUP3 SWAP1 MSTORE PUSH1 0xE0 DUP3 SWAP1 MSTORE PUSH1 0x4 DUP1 SLOAD DUP3 AND SWAP1 SSTORE PUSH1 0x5 DUP3 SWAP1 SSTORE PUSH2 0x140 PUSH1 0x40 MSTORE PUSH2 0x100 DUP3 SWAP1 MSTORE PUSH2 0x120 DUP3 SWAP1 MSTORE PUSH1 0x6 DUP1 SLOAD SWAP1 SWAP2 AND SWAP1 SSTORE PUSH1 0x7 SSTORE PUSH2 0x9A2 DUP1 PUSH2 0x6B PUSH0 CODECOPY PUSH0 RETURN INVALID PUSH1 0x80 PUSH1 0x40 MSTORE PUSH1 0x4 CALLDATASIZE LT PUSH2 0x7C JUMPI PUSH0 CALLDATALOAD PUSH1 0xE0 SHR DUP1 PUSH4 0x689DBF4E GT PUSH2 0x4C JUMPI DUP1 PUSH4 0x689DBF4E EQ PUSH2 0x123 JUMPI DUP1 PUSH4 0x8F283970 EQ PUSH2 0x161 JUMPI DUP1 PUSH4 0xB5FC70F7 EQ PUSH2 0x180 JUMPI DUP1 PUSH4 0xF851A440 EQ PUSH2 0x1BC JUMPI PUSH0 DUP1 REVERT JUMPDEST DUP1 PUSH4 0x27E235E3 EQ PUSH2 0x91 JUMPI DUP1 PUSH4 0x2C83B4B2 EQ PUSH2 0xCF JUMPI DUP1 PUSH4 0x3CCFD60B EQ PUSH2 0xF0 JUMPI DUP1 PUSH4 0x47E7EF24 EQ PUSH2 0x104 JUMPI PUSH0 DUP1 REVERT JUMPDEST CALLDATASIZE PUSH2 0x8D JUMPI PUSH2 0x8B CALLER CALLVALUE PUSH2 0x1F2 JUMP JUMPDEST STOP JUMPDEST PUSH0 DUP1 REVERT JUMPDEST CALLVALUE DUP1 ISZERO PUSH2 0x9C JUMPI PUSH0 DUP1 REVERT JUMPDEST POP PUSH2 0xBC PUSH2 0xAB CALLDATASIZE PUSH1 0x4 PUSH2 0x85F JUMP JUMPDEST PUSH1 0x1 PUSH1 0x20 MSTORE PUSH0 SWAP1 DUP2 MSTORE PUSH1 0x40 SWAP1 KECCAK256 SLOAD DUP2 JUMP JUMPDEST PUSH1 0x40 MLOAD SWAP1 DUP2 MSTORE PUSH1 0x20 ADD JUMPDEST PUSH1 0x40 MLOAD DUP1 SWAP2 SUB SWAP1 RETURN JUMPDEST CALLVALUE DUP1 ISZERO PUSH2 0xDA JUMPI PUSH0 DUP1 REVERT JUMPDEST POP PUSH2 0xE3 PUSH2 0x267 JUMP JUMPDEST PUSH1 0x40 MLOAD PUSH2 0xC6 SWAP2 SWAP1 PUSH2 0x881 JUMP JUMPDEST CALLVALUE DUP1 ISZERO PUSH2 0xFB JUMPI PUSH0 DUP1 REVERT JUMPDEST POP PUSH2 0xBC PUSH2 0x2CB JUMP JUMPDEST CALLVALUE DUP1 ISZERO PUSH2 0x10F JUMPI PUSH0 DUP1 REVERT JUMPDEST POP PUSH2 0x8B PUSH2 0x11E CALLDATASIZE PUSH1 0x4 PUSH2 0x8C6 JUMP JUMPDEST PUSH2 0x1F2 JUMP JUMPDEST CALLVALUE DUP1 ISZERO PUSH2 0x12E JUMPI PUSH0 DUP1 REVERT JUMPDEST POP PUSH2 0x142 PUSH2 0x13D CALLDATASIZE PUSH1 0x4 PUSH2 0x8F0 JUMP JUMPDEST PUSH2 0x351 JUMP JUMPDEST PUSH1 0x40 DUP1 MLOAD PUSH1 0x1 PUSH1 0x1 PUSH1 0xA0 SHL SUB SWAP1 SWAP4 AND DUP4 MSTORE PUSH1 0x20 DUP4 ADD SWAP2 SWAP1 SWAP2 MSTORE ADD PUSH2 0xC6 JUMP JUMPDEST CALLVALUE DUP1 ISZERO PUSH2 0x16C JUMPI PUSH0 DUP1 REVERT JUMPDEST POP PUSH2 0x8B PUSH2 0x17B CALLDATASIZE PUSH1 0x4 PUSH2 0x85F JUMP JUMPDEST PUSH2 0x37C JUMP JUMPDEST CALLVALUE DUP1 ISZERO PUSH2 0x18B JUMPI PUSH0 DUP1 REVERT JUMPDEST POP PUSH2 0x19F PUSH2 0x19A CALLDATASIZE PUSH1 0x4 PUSH2 0x85F JUMP JUMPDEST PUSH2 0x3E3 JUMP JUMPDEST PUSH1 0x40 DUP1 MLOAD SWAP4 ISZERO ISZERO DUP5 MSTORE PUSH1 0x20 DUP5 ADD SWAP3 SWAP1 SWAP3 MSTORE SWAP1 DUP3 ADD MSTORE PUSH1 0x60 ADD PUSH2 0xC6 JUMP JUMPDEST CALLVALUE DUP1 ISZERO PUSH2 0x1C7 JUMPI PUSH0 DUP1 REVERT JUMPDEST POP PUSH0 SLOAD PUSH2 0x1DA SWAP1 PUSH1 0x1 PUSH1 0x1 PUSH1 0xA0 SHL SUB AND DUP2 JUMP JUMPDEST PUSH1 0x40 MLOAD PUSH1 0x1 PUSH1 0x1 PUSH1 0xA0 SHL SUB SWAP1 SWAP2 AND DUP2 MSTORE PUSH1 0x20 ADD PUSH2 0xC6 JUMP JUMPDEST DUP1 PUSH2 0x205 PUSH7 0x38D7EA4C68000 PUSH1 0x1 PUSH2 0x91B JUMP JUMPDEST DUP2 GT PUSH2 0x258 JUMPI PUSH1 0x40 MLOAD PUSH3 0x461BCD PUSH1 0xE5 SHL DUP2 MSTORE PUSH1 0x20 PUSH1 0x4 DUP3 ADD MSTORE PUSH1 0x17 PUSH1 0x24 DUP3 ADD MSTORE PUSH32 0x6D757374206D6F7265207468616E20312046696E6E6579000000000000000000 PUSH1 0x44 DUP3 ADD MSTORE PUSH1 0x64 ADD JUMPDEST PUSH1 0x40 MLOAD DUP1 SWAP2 SUB SWAP1 REVERT JUMPDEST PUSH2 0x262 DUP4 DUP4 PUSH2 0x460 JUMP JUMPDEST POP POP POP JUMP JUMPDEST PUSH2 0x26F PUSH2 0x810 JUMP JUMPDEST PUSH1 0x40 DUP1 MLOAD PUSH1 0x60 DUP2 ADD SWAP1 SWAP2 MSTORE PUSH1 0x2 PUSH1 0x3 PUSH0 DUP4 JUMPDEST DUP3 DUP3 LT ISZERO PUSH2 0x2C2 JUMPI PUSH1 0x40 DUP1 MLOAD DUP1 DUP3 ADD SWAP1 SWAP2 MSTORE PUSH1 0x2 DUP4 MUL DUP6 ADD DUP1 SLOAD PUSH1 0x1 PUSH1 0x1 PUSH1 0xA0 SHL SUB AND DUP3 MSTORE PUSH1 0x1 SWAP1 DUP2 ADD SLOAD PUSH1 0x20 DUP1 DUP5 ADD SWAP2 SWAP1 SWAP2 MSTORE SWAP2 DUP4 MSTORE SWAP1 SWAP3 ADD SWAP2 ADD PUSH2 0x281 JUMP JUMPDEST POP POP POP POP SWAP1 POP SWAP1 JUMP JUMPDEST PUSH0 DUP1 SLOAD PUSH1 0x1 PUSH1 0x1 PUSH1 0xA0 SHL SUB AND CALLER EQ PUSH2 0x313 JUMPI PUSH1 0x40 MLOAD PUSH3 0x461BCD PUSH1 0xE5 SHL DUP2 MSTORE PUSH1 0x20 PUSH1 0x4 DUP3 ADD MSTORE PUSH1 0xB PUSH1 0x24 DUP3 ADD MSTORE PUSH11 0x61646D696E2077726F6E67 PUSH1 0xA8 SHL PUSH1 0x44 DUP3 ADD MSTORE PUSH1 0x64 ADD PUSH2 0x24F JUMP JUMPDEST PUSH0 DUP1 SLOAD PUSH1 0x40 MLOAD PUSH1 0x1 PUSH1 0x1 PUSH1 0xA0 SHL SUB SWAP1 SWAP2 AND SWAP2 SELFBALANCE DUP1 ISZERO PUSH2 0x8FC MUL SWAP3 SWAP1 SWAP2 DUP2 DUP2 DUP2 DUP6 DUP9 DUP9 CALL SWAP4 POP POP POP POP ISZERO DUP1 ISZERO PUSH2 0x34A JUMPI RETURNDATASIZE PUSH0 DUP1 RETURNDATACOPY RETURNDATASIZE PUSH0 REVERT JUMPDEST POP SELFBALANCE SWAP1 POP SWAP1 JUMP JUMPDEST PUSH1 0x2 DUP2 PUSH1 0x3 DUP2 LT PUSH2 0x360 JUMPI PUSH0 DUP1 REVERT JUMPDEST PUSH1 0x2 MUL ADD DUP1 SLOAD PUSH1 0x1 SWAP1 SWAP2 ADD SLOAD PUSH1 0x1 PUSH1 0x1 PUSH1 0xA0 SHL SUB SWAP1 SWAP2 AND SWAP2 POP DUP3 JUMP JUMPDEST PUSH0 SLOAD PUSH1 0x1 PUSH1 0x1 PUSH1 0xA0 SHL SUB AND CALLER EQ PUSH2 0x3C2 JUMPI PUSH1 0x40 MLOAD PUSH3 0x461BCD PUSH1 0xE5 SHL DUP2 MSTORE PUSH1 0x20 PUSH1 0x4 DUP3 ADD MSTORE PUSH1 0xA PUSH1 0x24 DUP3 ADD MSTORE PUSH10 0x36BAB9BA1030B236B4B7 PUSH1 0xB1 SHL PUSH1 0x44 DUP3 ADD MSTORE PUSH1 0x64 ADD PUSH2 0x24F JUMP JUMPDEST PUSH0 DUP1 SLOAD PUSH1 0x1 PUSH1 0x1 PUSH1 0xA0 SHL SUB NOT AND PUSH1 0x1 PUSH1 0x1 PUSH1 0xA0 SHL SUB SWAP3 SWAP1 SWAP3 AND SWAP2 SWAP1 SWAP2 OR SWAP1 SSTORE JUMP JUMPDEST PUSH0 DUP1 DUP1 DUP1 JUMPDEST PUSH1 0x3 DUP2 LT ISZERO PUSH2 0x44E JUMPI PUSH1 0x2 DUP2 PUSH1 0x3 DUP2 LT PUSH2 0x404 JUMPI PUSH2 0x404 PUSH2 0x932 JUMP JUMPDEST PUSH1 0x2 MUL ADD SLOAD PUSH1 0x1 PUSH1 0x1 PUSH1 0xA0 SHL SUB SWAP1 DUP2 AND SWAP1 DUP7 AND SUB PUSH2 0x446 JUMPI PUSH1 0x1 PUSH1 0x2 DUP3 PUSH1 0x3 DUP2 LT PUSH2 0x431 JUMPI PUSH2 0x431 PUSH2 0x932 JUMP JUMPDEST PUSH1 0x2 MUL ADD PUSH1 0x1 ADD SLOAD DUP3 SWAP4 POP SWAP4 POP SWAP4 POP POP PUSH2 0x459 JUMP JUMPDEST PUSH1 0x1 ADD PUSH2 0x3E8 JUMP JUMPDEST POP PUSH0 DUP1 PUSH0 SWAP3 POP SWAP3 POP SWAP3 POP JUMPDEST SWAP2 SWAP4 SWAP1 SWAP3 POP JUMP JUMPDEST PUSH1 0x1 PUSH1 0x1 PUSH1 0xA0 SHL SUB DUP3 AND PUSH0 SWAP1 DUP2 MSTORE PUSH1 0x1 PUSH1 0x20 MSTORE PUSH1 0x40 SWAP1 KECCAK256 SLOAD PUSH2 0x483 SWAP1 DUP3 SWAP1 PUSH2 0x946 JUMP JUMPDEST PUSH1 0x1 PUSH1 0x1 PUSH1 0xA0 SHL SUB DUP4 AND PUSH0 SWAP1 DUP2 MSTORE PUSH1 0x1 PUSH1 0x20 MSTORE PUSH1 0x40 DUP2 KECCAK256 SWAP2 SWAP1 SWAP2 SSTORE DUP1 JUMPDEST PUSH1 0x3 DUP2 LT ISZERO PUSH2 0x51D JUMPI PUSH1 0x2 DUP2 PUSH1 0x3 DUP2 LT PUSH2 0x4BC JUMPI PUSH2 0x4BC PUSH2 0x932 JUMP JUMPDEST PUSH1 0x2 MUL ADD SLOAD PUSH1 0x1 PUSH1 0x1 PUSH1 0xA0 SHL SUB SWAP1 DUP2 AND SWAP1 DUP6 AND SUB PUSH2 0x515 JUMPI PUSH1 0x1 PUSH1 0x1 PUSH1 0xA0 SHL SUB DUP5 AND PUSH0 SWAP1 DUP2 MSTORE PUSH1 0x1 PUSH1 0x20 DUP2 SWAP1 MSTORE PUSH1 0x40 SWAP1 SWAP2 KECCAK256 SLOAD SWAP1 SWAP3 POP PUSH1 0x2 DUP3 PUSH1 0x3 DUP2 LT PUSH2 0x505 JUMPI PUSH2 0x505 PUSH2 0x932 JUMP JUMPDEST PUSH1 0x2 MUL ADD PUSH1 0x1 ADD DUP2 SWAP1 SSTORE POP PUSH2 0x51D JUMP JUMPDEST PUSH1 0x1 ADD PUSH2 0x4A0 JUMP JUMPDEST POP DUP1 PUSH2 0x262 JUMPI PUSH1 0x3 SLOAD PUSH1 0x1 PUSH1 0x1 PUSH1 0xA0 SHL SUB DUP5 AND PUSH0 SWAP1 DUP2 MSTORE PUSH1 0x1 PUSH1 0x20 MSTORE PUSH1 0x40 SWAP1 KECCAK256 SLOAD GT ISZERO PUSH2 0x582 JUMPI PUSH1 0x2 DUP1 SLOAD PUSH1 0x1 PUSH1 0x1 PUSH1 0xA0 SHL SUB NOT AND PUSH1 0x1 PUSH1 0x1 PUSH1 0xA0 SHL SUB DUP6 AND SWAP1 DUP2 OR DUP3 SSTORE PUSH0 SWAP1 DUP2 MSTORE PUSH1 0x1 PUSH1 0x20 MSTORE PUSH1 0x40 DUP2 KECCAK256 SLOAD SWAP2 SWAP1 JUMPDEST PUSH1 0x2 MUL ADD PUSH1 0x1 ADD DUP2 SWAP1 SSTORE POP PUSH2 0x62C JUMP JUMPDEST PUSH1 0x5 SLOAD PUSH1 0x1 PUSH1 0x1 PUSH1 0xA0 SHL SUB DUP5 AND PUSH0 SWAP1 DUP2 MSTORE PUSH1 0x1 PUSH1 0x20 MSTORE PUSH1 0x40 SWAP1 KECCAK256 SLOAD GT ISZERO PUSH2 0x5DB JUMPI PUSH1 0x4 DUP1 SLOAD PUSH1 0x1 PUSH1 0x1 PUSH1 0xA0 SHL SUB NOT AND PUSH1 0x1 PUSH1 0x1 PUSH1 0xA0 SHL SUB DUP6 AND SWAP1 DUP2 OR SWAP1 SWAP2 SSTORE PUSH0 SWAP1 DUP2 MSTORE PUSH1 0x1 PUSH1 0x20 DUP2 SWAP1 MSTORE PUSH1 0x40 SWAP1 SWAP2 KECCAK256 SLOAD SWAP1 PUSH1 0x2 SWAP1 PUSH2 0x572 JUMP JUMPDEST PUSH1 0x7 SLOAD PUSH1 0x1 PUSH1 0x1 PUSH1 0xA0 SHL SUB DUP5 AND PUSH0 SWAP1 DUP2 MSTORE PUSH1 0x1 PUSH1 0x20 MSTORE PUSH1 0x40 SWAP1 KECCAK256 SLOAD GT ISZERO PUSH2 0x62C JUMPI PUSH1 0x6 DUP1 SLOAD PUSH1 0x1 PUSH1 0x1 PUSH1 0xA0 SHL SUB NOT AND PUSH1 0x1 PUSH1 0x1 PUSH1 0xA0 SHL SUB DUP6 AND SWAP1 DUP2 OR SWAP1 SWAP2 SSTORE PUSH0 SWAP1 DUP2 MSTORE PUSH1 0x1 PUSH1 0x20 MSTORE PUSH1 0x40 SWAP1 KECCAK256 SLOAD PUSH1 0x7 SSTORE JUMPDEST PUSH2 0x262 PUSH1 0x3 PUSH0 JUMPDEST PUSH2 0x63E PUSH1 0x1 DUP4 PUSH2 0x959 JUMP JUMPDEST DUP2 LT ISZERO PUSH2 0x7A9 JUMPI PUSH0 JUMPDEST DUP2 PUSH2 0x653 PUSH1 0x1 DUP6 PUSH2 0x959 JUMP JUMPDEST PUSH2 0x65D SWAP2 SWAP1 PUSH2 0x959 JUMP JUMPDEST DUP2 LT ISZERO PUSH2 0x7A0 JUMPI PUSH0 DUP1 PUSH2 0x6F4 PUSH1 0x2 DUP5 PUSH1 0x3 DUP2 LT PUSH2 0x67C JUMPI PUSH2 0x67C PUSH2 0x932 JUMP JUMPDEST PUSH1 0x40 DUP1 MLOAD DUP1 DUP3 ADD SWAP1 SWAP2 MSTORE PUSH1 0x2 SWAP2 DUP3 MUL SWAP3 SWAP1 SWAP3 ADD DUP1 SLOAD PUSH1 0x1 PUSH1 0x1 PUSH1 0xA0 SHL SUB AND DUP4 MSTORE PUSH1 0x1 SWAP1 DUP2 ADD SLOAD PUSH1 0x20 DUP5 ADD MSTORE PUSH2 0x6B2 SWAP1 DUP8 SWAP1 PUSH2 0x946 JUMP JUMPDEST PUSH1 0x3 DUP2 LT PUSH2 0x6C2 JUMPI PUSH2 0x6C2 PUSH2 0x932 JUMP JUMPDEST PUSH1 0x40 DUP1 MLOAD DUP1 DUP3 ADD SWAP1 SWAP2 MSTORE PUSH1 0x2 SWAP2 SWAP1 SWAP2 MUL SWAP2 SWAP1 SWAP2 ADD DUP1 SLOAD PUSH1 0x1 PUSH1 0x1 PUSH1 0xA0 SHL SUB AND DUP3 MSTORE PUSH1 0x1 ADD SLOAD PUSH1 0x20 DUP3 ADD MSTORE PUSH2 0x7AD PUSH2 0x7B7 JUMP JUMPDEST SWAP2 POP SWAP2 POP DUP2 PUSH1 0x2 DUP5 PUSH1 0x3 DUP2 LT PUSH2 0x70C JUMPI PUSH2 0x70C PUSH2 0x932 JUMP JUMPDEST DUP3 MLOAD PUSH1 0x2 SWAP2 DUP3 MUL SWAP3 SWAP1 SWAP3 ADD DUP1 SLOAD PUSH1 0x1 PUSH1 0x1 PUSH1 0xA0 SHL SUB NOT AND PUSH1 0x1 PUSH1 0x1 PUSH1 0xA0 SHL SUB SWAP1 SWAP4 AND SWAP3 SWAP1 SWAP3 OR DUP3 SSTORE PUSH1 0x20 SWAP1 SWAP3 ADD MLOAD PUSH1 0x1 SWAP2 DUP3 ADD SSTORE DUP3 SWAP2 SWAP1 PUSH2 0x74E SWAP1 DUP7 SWAP1 PUSH2 0x946 JUMP JUMPDEST PUSH1 0x3 DUP2 LT PUSH2 0x75E JUMPI PUSH2 0x75E PUSH2 0x932 JUMP JUMPDEST DUP3 MLOAD PUSH1 0x2 SWAP2 SWAP1 SWAP2 MUL SWAP2 SWAP1 SWAP2 ADD DUP1 SLOAD PUSH1 0x1 PUSH1 0x1 PUSH1 0xA0 SHL SUB NOT AND PUSH1 0x1 PUSH1 0x1 PUSH1 0xA0 SHL SUB SWAP1 SWAP3 AND SWAP2 SWAP1 SWAP2 OR DUP2 SSTORE PUSH1 0x20 SWAP1 SWAP2 ADD MLOAD PUSH1 0x1 SWAP2 DUP3 ADD SSTORE SWAP3 SWAP1 SWAP3 ADD SWAP2 POP PUSH2 0x647 SWAP1 POP JUMP JUMPDEST POP PUSH1 0x1 ADD PUSH2 0x633 JUMP JUMPDEST POP POP JUMP JUMPDEST DUP1 DUP3 GT JUMPDEST SWAP3 SWAP2 POP POP JUMP JUMPDEST PUSH1 0x40 DUP1 MLOAD DUP1 DUP3 ADD SWAP1 SWAP2 MSTORE PUSH0 DUP1 DUP3 MSTORE PUSH1 0x20 DUP3 ADD MSTORE PUSH1 0x40 DUP1 MLOAD DUP1 DUP3 ADD SWAP1 SWAP2 MSTORE PUSH0 DUP1 DUP3 MSTORE PUSH1 0x20 DUP3 ADD MSTORE PUSH2 0x7F3 DUP6 PUSH1 0x20 ADD MLOAD DUP6 PUSH1 0x20 ADD MLOAD DUP6 PUSH4 0xFFFFFFFF AND JUMP JUMPDEST ISZERO PUSH2 0x802 JUMPI POP DUP3 SWAP1 POP DUP4 PUSH2 0x808 JUMP JUMPDEST POP DUP4 SWAP1 POP DUP3 JUMPDEST SWAP4 POP SWAP4 SWAP2 POP POP JUMP JUMPDEST PUSH1 0x40 MLOAD DUP1 PUSH1 0x60 ADD PUSH1 0x40 MSTORE DUP1 PUSH1 0x3 SWAP1 JUMPDEST PUSH1 0x40 DUP1 MLOAD DUP1 DUP3 ADD SWAP1 SWAP2 MSTORE PUSH0 DUP1 DUP3 MSTORE PUSH1 0x20 DUP3 ADD MSTORE DUP2 MSTORE PUSH1 0x20 ADD SWAP1 PUSH1 0x1 SWAP1 SUB SWAP1 DUP2 PUSH2 0x81F JUMPI SWAP1 POP POP SWAP1 JUMP JUMPDEST PUSH1 0x1 PUSH1 0x1 PUSH1 0xA0 SHL SUB DUP2 AND DUP2 EQ PUSH2 0x85C JUMPI PUSH0 DUP1 REVERT JUMPDEST POP JUMP JUMPDEST PUSH0 PUSH1 0x20 DUP3 DUP5 SUB SLT ISZERO PUSH2 0x86F JUMPI PUSH0 DUP1 REVERT JUMPDEST DUP2 CALLDATALOAD PUSH2 0x87A DUP2 PUSH2 0x848 JUMP JUMPDEST SWAP4 SWAP3 POP POP POP JUMP JUMPDEST PUSH1 0xC0 DUP2 ADD DUP2 DUP4 PUSH0 JUMPDEST PUSH1 0x3 DUP2 LT ISZERO PUSH2 0x8BD JUMPI DUP2 MLOAD DUP1 MLOAD PUSH1 0x1 PUSH1 0x1 PUSH1 0xA0 SHL SUB AND DUP5 MSTORE PUSH1 0x20 SWAP1 DUP2 ADD MLOAD DUP2 DUP6 ADD MSTORE PUSH1 0x40 SWAP1 SWAP4 ADD SWAP3 SWAP1 SWAP2 ADD SWAP1 PUSH1 0x1 ADD PUSH2 0x889 JUMP JUMPDEST POP POP POP SWAP3 SWAP2 POP POP JUMP JUMPDEST PUSH0 DUP1 PUSH1 0x40 DUP4 DUP6 SUB SLT ISZERO PUSH2 0x8D7 JUMPI PUSH0 DUP1 REVERT JUMPDEST DUP3 CALLDATALOAD PUSH2 0x8E2 DUP2 PUSH2 0x848 JUMP JUMPDEST SWAP5 PUSH1 0x20 SWAP4 SWAP1 SWAP4 ADD CALLDATALOAD SWAP4 POP POP POP JUMP JUMPDEST PUSH0 PUSH1 0x20 DUP3 DUP5 SUB SLT ISZERO PUSH2 0x900 JUMPI PUSH0 DUP1 REVERT JUMPDEST POP CALLDATALOAD SWAP2 SWAP1 POP JUMP JUMPDEST PUSH4 0x4E487B71 PUSH1 0xE0 SHL PUSH0 MSTORE PUSH1 0x11 PUSH1 0x4 MSTORE PUSH1 0x24 PUSH0 REVERT JUMPDEST DUP1 DUP3 MUL DUP2 ISZERO DUP3 DUP3 DIV DUP5 EQ OR PUSH2 0x7B1 JUMPI PUSH2 0x7B1 PUSH2 0x907 JUMP JUMPDEST PUSH4 0x4E487B71 PUSH1 0xE0 SHL PUSH0 MSTORE PUSH1 0x32 PUSH1 0x4 MSTORE PUSH1 0x24 PUSH0 REVERT JUMPDEST DUP1 DUP3 ADD DUP1 DUP3 GT ISZERO PUSH2 0x7B1 JUMPI PUSH2 0x7B1 PUSH2 0x907 JUMP JUMPDEST DUP2 DUP2 SUB DUP2 DUP2 GT ISZERO PUSH2 0x7B1 JUMPI PUSH2 0x7B1 PUSH2 0x907 JUMP INVALID LOG2 PUSH5 0x6970667358 0x22 SLT KECCAK256 0x29 SDIV SWAP16 OR 0xF8 0xEE DUP1 0xEA CREATE ADD 0xAD PUSH3 0x951272 0xD0 PUSH28 0xE61359D43235C0613E5977C3002B2A64736F6C634300081A00330000 "
		},
		"gasEstimates": {
			"creation": {
				"codeDepositCost": "493200",
				"executionCost": "112485",
				"totalCost": "605685"
			},
			"external": {
				"admin()": "2401",
				"balances(address)": "2500",
				"changeAdmin(address)": "26723",
				"checkUserInTopUsers(address)": "infinite",
				"deposit(address,uint256)": "infinite",
				"getRankings()": "infinite",
				"topUsers(uint256)": "4608",
				"withdraw()": "infinite"
			}
		},
		"methodIdentifiers": {
			"admin()": "f851a440",
			"balances(address)": "27e235e3",
			"changeAdmin(address)": "8f283970",
			"checkUserInTopUsers(address)": "b5fc70f7",
			"deposit(address,uint256)": "47e7ef24",
			"getRankings()": "2c83b4b2",
			"topUsers(uint256)": "689dbf4e",
			"withdraw()": "3ccfd60b"
		}
	},
	"abi": [
		{
			"inputs": [],
			"stateMutability": "payable",
			"type": "constructor"
		},
		{
			"inputs": [],
			"name": "admin",
			"outputs": [
				{
					"internalType": "address payable",
					"name": "",
					"type": "address"
				}
			],
			"stateMutability": "view",
			"type": "function"
		},
		{
			"inputs": [
				{
					"internalType": "address",
					"name": "",
					"type": "address"
				}
			],
			"name": "balances",
			"outputs": [
				{
					"internalType": "uint256",
					"name": "",
					"type": "uint256"
				}
			],
			"stateMutability": "view",
			"type": "function"
		},
		{
			"inputs": [
				{
					"internalType": "address payable",
					"name": "_admin",
					"type": "address"
				}
			],
			"name": "changeAdmin",
			"outputs": [],
			"stateMutability": "nonpayable",
			"type": "function"
		},
		{
			"inputs": [
				{
					"internalType": "address",
					"name": "user",
					"type": "address"
				}
			],
			"name": "checkUserInTopUsers",
			"outputs": [
				{
					"internalType": "bool",
					"name": "found",
					"type": "bool"
				},
				{
					"internalType": "uint256",
					"name": "balance",
					"type": "uint256"
				},
				{
					"internalType": "uint256",
					"name": "position",
					"type": "uint256"
				}
			],
			"stateMutability": "view",
			"type": "function"
		},
		{
			"inputs": [
				{
					"internalType": "address",
					"name": "sender",
					"type": "address"
				},
				{
					"internalType": "uint256",
					"name": "value",
					"type": "uint256"
				}
			],
			"name": "deposit",
			"outputs": [],
			"stateMutability": "nonpayable",
			"type": "function"
		},
		{
			"inputs": [],
			"name": "getRankings",
			"outputs": [
				{
					"components": [
						{
							"internalType": "address",
							"name": "addr",
							"type": "address"
						},
						{
							"internalType": "uint256",
							"name": "balance",
							"type": "uint256"
						}
					],
					"internalType": "struct Bank.RankingStruct[3]",
					"name": "",
					"type": "tuple[3]"
				}
			],
			"stateMutability": "view",
			"type": "function"
		},
		{
			"inputs": [
				{
					"internalType": "uint256",
					"name": "",
					"type": "uint256"
				}
			],
			"name": "topUsers",
			"outputs": [
				{
					"internalType": "address",
					"name": "addr",
					"type": "address"
				},
				{
					"internalType": "uint256",
					"name": "balance",
					"type": "uint256"
				}
			],
			"stateMutability": "view",
			"type": "function"
		},
		{
			"inputs": [],
			"name": "withdraw",
			"outputs": [
				{
					"internalType": "uint256",
					"name": "",
					"type": "uint256"
				}
			],
			"stateMutability": "nonpayable",
			"type": "function"
		},
		{
			"stateMutability": "payable",
			"type": "receive"
		}
	]
}