{
	"data": {
		"bytecode": {
			"linkReferences": {},
			"object": "6080604052348015600e575f80fd5b506113ff8061001c5f395ff3fe608060405234801561000f575f80fd5b506004361061007b575f3560e01c8063a56dfe4a11610059578063a56dfe4a146100d7578063a9bf5633146100f5578063e5906db214610125578063f688a492146101415761007b565b8063437a19951461007f5780635c97a9f91461009d578063933ac084146100bb575b5f80fd5b61008761015f565b6040516100949190610a29565b60405180910390f35b6100a56101eb565b6040516100b29190610a61565b60405180910390f35b6100d560048036038101906100d09190610ab1565b6101f1565b005b6100df61040c565b6040516100ec9190610a61565b60405180910390f35b61010f600480360381019061010a9190610ab1565b610411565b60405161011c9190610a61565b60405180910390f35b61013f600480360381019061013a9190610b36565b6104ed565b005b61014961070e565b6040516101569190610bc6565b60405180910390f35b6001805461016c90610c13565b80601f016020809104026020016040519081016040528092919081815260200182805461019890610c13565b80156101e35780601f106101ba576101008083540402835291602001916101e3565b820191905f5260205f20905b8154815290600101906020018083116101c657829003601f168201915b505050505081565b60035481565b3073ffffffffffffffffffffffffffffffffffffffff1663a9bf563361c350836040518363ffffffff1660e01b815260040161022d9190610a61565b6020604051808303815f8887f19350505050801561026957506040513d601f19601f820116820180604052508101906102669190610c57565b60015b61040157610275610c8e565b806308c379a0036102e95750610289610d0b565b806102945750610335565b80600190816102a39190610f37565b506102e36040518060400160405280602081526020017f6572726f72206f6363757265642077697468207468697320726561736f6e3a208152508261079a565b506103fc565b634e487b7103610335576102fb611006565b906103065750610335565b8060038190555061032f6040518060600160405280602581526020016113a56025913982610836565b506103fc565b3d805f811461035f576040519150601f19603f3d011682016040523d82523d5f602084013e610364565b606091505b505f8151036103ac576103ab6040518060400160405280602081526020017f72657665727420776974686f75742061206d657373616765206f6363757265648152506108d2565b5b80600290816103bb919061107c565b506103fa6040518060400160405280600e81526020017f616e796f74686572206572726f720000000000000000000000000000000000008152506108d2565b505b610409565b805f81905550505b50565b5f5481565b5f80820361044b576040517ff456040300000000000000000000000000000000000000000000000000000000815260040160405180910390fd5b6001820361048e576040517f08c379a000000000000000000000000000000000000000000000000000000000815260040161048590611195565b60405180910390fd5b600282036104a6575f80836104a3919061120d565b50505b600382036104b2575f80fd5b600482036104e4575b6103e85f5410156104e35760015f808282546104d7919061123d565b925050819055506104bb565b5b5f549050919050565b5f8103610550578173ffffffffffffffffffffffffffffffffffffffff166306661abd6040518163ffffffff1660e01b81526004015f604051808303815f87803b158015610539575f80fd5b505af192505050801561054a575060015b5061070a565b60018103610648573073ffffffffffffffffffffffffffffffffffffffff1663a9bf563360016040518263ffffffff1660e01b815260040161059291906112a9565b6020604051808303815f875af19250505080156105cd57506040513d601f19601f820116820180604052508101906105ca9190610c57565b60015b610641576105d9610c8e565b806308c379a00361063a57506105ed610d0b565b806105f8575061063c565b6106366040518060400160405280601081526020017f6361746368207468656e207468726f77000000000000000000000000000000008152506108d2565b5f80fd5b505b610643565b505b610709565b60028103610708573073ffffffffffffffffffffffffffffffffffffffff1663a9bf563360026040518263ffffffff1660e01b815260040161068a91906112fb565b6020604051808303815f875af19250505080156106c557506040513d601f19601f820116820180604052508101906106c29190610c57565b60015b610705576106d1610c8e565b806308c379a0036106f657506106e5610d0b565b806106f057506106f8565b50610700565b505b3d5f803e3d5ffd5b610707565b505b5b5b5b5050565b6002805461071b90610c13565b80601f016020809104026020016040519081016040528092919081815260200182805461074790610c13565b80156107925780601f1061076957610100808354040283529160200191610792565b820191905f5260205f20905b81548152906001019060200180831161077557829003601f168201915b505050505081565b61083282826040516024016107b0929190611314565b6040516020818303038152906040527f4b5c4277000000000000000000000000000000000000000000000000000000007bffffffffffffffffffffffffffffffffffffffffffffffffffffffff19166020820180517bffffffffffffffffffffffffffffffffffffffffffffffffffffffff838183161783525050505061096b565b5050565b6108ce828260405160240161084c929190611349565b6040516020818303038152906040527fb60e72cc000000000000000000000000000000000000000000000000000000007bffffffffffffffffffffffffffffffffffffffffffffffffffffffff19166020820180517bffffffffffffffffffffffffffffffffffffffffffffffffffffffff838183161783525050505061096b565b5050565b610968816040516024016108e69190610a29565b6040516020818303038152906040527f41304fac000000000000000000000000000000000000000000000000000000007bffffffffffffffffffffffffffffffffffffffffffffffffffffffff19166020820180517bffffffffffffffffffffffffffffffffffffffffffffffffffffffff838183161783525050505061096b565b50565b6109828161097a6109856109a4565b63ffffffff16565b50565b5f6a636f6e736f6c652e6c6f6790505f80835160208501845afa505050565b6109af819050919050565b6109b7611377565b565b5f81519050919050565b5f82825260208201905092915050565b8281835e5f83830152505050565b5f601f19601f8301169050919050565b5f6109fb826109b9565b610a0581856109c3565b9350610a158185602086016109d3565b610a1e816109e1565b840191505092915050565b5f6020820190508181035f830152610a4181846109f1565b905092915050565b5f819050919050565b610a5b81610a49565b82525050565b5f602082019050610a745f830184610a52565b92915050565b5f604051905090565b5f80fd5b610a9081610a49565b8114610a9a575f80fd5b50565b5f81359050610aab81610a87565b92915050565b5f60208284031215610ac657610ac5610a83565b5b5f610ad384828501610a9d565b91505092915050565b5f73ffffffffffffffffffffffffffffffffffffffff82169050919050565b5f610b0582610adc565b9050919050565b610b1581610afb565b8114610b1f575f80fd5b50565b5f81359050610b3081610b0c565b92915050565b5f8060408385031215610b4c57610b4b610a83565b5b5f610b5985828601610b22565b9250506020610b6a85828601610a9d565b9150509250929050565b5f81519050919050565b5f82825260208201905092915050565b5f610b9882610b74565b610ba28185610b7e565b9350610bb28185602086016109d3565b610bbb816109e1565b840191505092915050565b5f6020820190508181035f830152610bde8184610b8e565b905092915050565b7f4e487b71000000000000000000000000000000000000000000000000000000005f52602260045260245ffd5b5f6002820490506001821680610c2a57607f821691505b602082108103610c3d57610c3c610be6565b5b50919050565b5f81519050610c5181610a87565b92915050565b5f60208284031215610c6c57610c6b610a83565b5b5f610c7984828501610c43565b91505092915050565b5f8160e01c9050919050565b5f60033d1115610caa5760045f803e610ca75f51610c82565b90505b90565b7f4e487b71000000000000000000000000000000000000000000000000000000005f52604160045260245ffd5b610ce3826109e1565b810181811067ffffffffffffffff82111715610d0257610d01610cad565b5b80604052505050565b5f60443d10610d9757610d1c610a7a565b60043d036004823e80513d602482011167ffffffffffffffff82111715610d44575050610d97565b808201805167ffffffffffffffff811115610d625750505050610d97565b80602083010160043d038501811115610d7f575050505050610d97565b610d8e82602001850186610cda565b82955050505050505b90565b5f819050815f5260205f209050919050565b5f6020601f8301049050919050565b5f82821b905092915050565b5f60088302610df67fffffffffffffffffffffffffffffffffffffffffffffffffffffffffffffffff82610dbb565b610e008683610dbb565b95508019841693508086168417925050509392505050565b5f819050919050565b5f610e3b610e36610e3184610a49565b610e18565b610a49565b9050919050565b5f819050919050565b610e5483610e21565b610e68610e6082610e42565b848454610dc7565b825550505050565b5f90565b610e7c610e70565b610e87818484610e4b565b505050565b5b81811015610eaa57610e9f5f82610e74565b600181019050610e8d565b5050565b601f821115610eef57610ec081610d9a565b610ec984610dac565b81016020851015610ed8578190505b610eec610ee485610dac565b830182610e8c565b50505b505050565b5f82821c905092915050565b5f610f0f5f1984600802610ef4565b1980831691505092915050565b5f610f278383610f00565b9150826002028217905092915050565b610f40826109b9565b67ffffffffffffffff811115610f5957610f58610cad565b5b610f638254610c13565b610f6e828285610eae565b5f60209050601f831160018114610f9f575f8415610f8d578287015190505b610f978582610f1c565b865550610ffe565b601f198416610fad86610d9a565b5f5b82811015610fd457848901518255600182019150602085019450602081019050610faf565b86831015610ff15784890151610fed601f891682610f00565b8355505b6001600288020188555050505b505050505050565b5f8060233d111561102057602060045f3e600191505f5190505b9091565b5f819050815f5260205f209050919050565b601f8211156110775761104881611024565b61105184610dac565b81016020851015611060578190505b61107461106c85610dac565b830182610e8c565b50505b505050565b61108582610b74565b67ffffffffffffffff81111561109e5761109d610cad565b5b6110a88254610c13565b6110b3828285611036565b5f60209050601f8311600181146110e4575f84156110d2578287015190505b6110dc8582610f1c565b865550611143565b601f1984166110f286611024565b5f5b82811015611119578489015182556001820191506020850194506020810190506110f4565b868310156111365784890151611132601f891682610f00565b8355505b6001600288020188555050505b505050505050565b7f6572726f72207768656e203120000000000000000000000000000000000000005f82015250565b5f61117f600d836109c3565b915061118a8261114b565b602082019050919050565b5f6020820190508181035f8301526111ac81611173565b9050919050565b7f4e487b71000000000000000000000000000000000000000000000000000000005f52601260045260245ffd5b7f4e487b71000000000000000000000000000000000000000000000000000000005f52601160045260245ffd5b5f61121782610a49565b915061122283610a49565b925082611232576112316111b3565b5b828204905092915050565b5f61124782610a49565b915061125283610a49565b925082820190508082111561126a576112696111e0565b5b92915050565b5f819050919050565b5f61129361128e61128984611270565b610e18565b610a49565b9050919050565b6112a381611279565b82525050565b5f6020820190506112bc5f83018461129a565b92915050565b5f819050919050565b5f6112e56112e06112db846112c2565b610e18565b610a49565b9050919050565b6112f5816112cb565b82525050565b5f60208201905061130e5f8301846112ec565b92915050565b5f6040820190508181035f83015261132c81856109f1565b9050818103602083015261134081846109f1565b90509392505050565b5f6040820190508181035f83015261136181856109f1565b90506113706020830184610a52565b9392505050565b7f4e487b71000000000000000000000000000000000000000000000000000000005f52605160045260245ffdfe6572726f72206f6363757272656420776974682074686973206572726f7220636f64653a20a26469706673582212201e749f5dd0117b9c715e82bc4cc4c0d9f3e72a456b745629d8f3aa7a3859cac464736f6c634300081a0033",
			"opcodes": "PUSH1 0x80 PUSH1 0x40 MSTORE CALLVALUE DUP1 ISZERO PUSH1 0xE JUMPI PUSH0 DUP1 REVERT JUMPDEST POP PUSH2 0x13FF DUP1 PUSH2 0x1C PUSH0 CODECOPY PUSH0 RETURN INVALID PUSH1 0x80 PUSH1 0x40 MSTORE CALLVALUE DUP1 ISZERO PUSH2 0xF JUMPI PUSH0 DUP1 REVERT JUMPDEST POP PUSH1 0x4 CALLDATASIZE LT PUSH2 0x7B JUMPI PUSH0 CALLDATALOAD PUSH1 0xE0 SHR DUP1 PUSH4 0xA56DFE4A GT PUSH2 0x59 JUMPI DUP1 PUSH4 0xA56DFE4A EQ PUSH2 0xD7 JUMPI DUP1 PUSH4 0xA9BF5633 EQ PUSH2 0xF5 JUMPI DUP1 PUSH4 0xE5906DB2 EQ PUSH2 0x125 JUMPI DUP1 PUSH4 0xF688A492 EQ PUSH2 0x141 JUMPI PUSH2 0x7B JUMP JUMPDEST DUP1 PUSH4 0x437A1995 EQ PUSH2 0x7F JUMPI DUP1 PUSH4 0x5C97A9F9 EQ PUSH2 0x9D JUMPI DUP1 PUSH4 0x933AC084 EQ PUSH2 0xBB JUMPI JUMPDEST PUSH0 DUP1 REVERT JUMPDEST PUSH2 0x87 PUSH2 0x15F JUMP JUMPDEST PUSH1 0x40 MLOAD PUSH2 0x94 SWAP2 SWAP1 PUSH2 0xA29 JUMP JUMPDEST PUSH1 0x40 MLOAD DUP1 SWAP2 SUB SWAP1 RETURN JUMPDEST PUSH2 0xA5 PUSH2 0x1EB JUMP JUMPDEST PUSH1 0x40 MLOAD PUSH2 0xB2 SWAP2 SWAP1 PUSH2 0xA61 JUMP JUMPDEST PUSH1 0x40 MLOAD DUP1 SWAP2 SUB SWAP1 RETURN JUMPDEST PUSH2 0xD5 PUSH1 0x4 DUP1 CALLDATASIZE SUB DUP2 ADD SWAP1 PUSH2 0xD0 SWAP2 SWAP1 PUSH2 0xAB1 JUMP JUMPDEST PUSH2 0x1F1 JUMP JUMPDEST STOP JUMPDEST PUSH2 0xDF PUSH2 0x40C JUMP JUMPDEST PUSH1 0x40 MLOAD PUSH2 0xEC SWAP2 SWAP1 PUSH2 0xA61 JUMP JUMPDEST PUSH1 0x40 MLOAD DUP1 SWAP2 SUB SWAP1 RETURN JUMPDEST PUSH2 0x10F PUSH1 0x4 DUP1 CALLDATASIZE SUB DUP2 ADD SWAP1 PUSH2 0x10A SWAP2 SWAP1 PUSH2 0xAB1 JUMP JUMPDEST PUSH2 0x411 JUMP JUMPDEST PUSH1 0x40 MLOAD PUSH2 0x11C SWAP2 SWAP1 PUSH2 0xA61 JUMP JUMPDEST PUSH1 0x40 MLOAD DUP1 SWAP2 SUB SWAP1 RETURN JUMPDEST PUSH2 0x13F PUSH1 0x4 DUP1 CALLDATASIZE SUB DUP2 ADD SWAP1 PUSH2 0x13A SWAP2 SWAP1 PUSH2 0xB36 JUMP JUMPDEST PUSH2 0x4ED JUMP JUMPDEST STOP JUMPDEST PUSH2 0x149 PUSH2 0x70E JUMP JUMPDEST PUSH1 0x40 MLOAD PUSH2 0x156 SWAP2 SWAP1 PUSH2 0xBC6 JUMP JUMPDEST PUSH1 0x40 MLOAD DUP1 SWAP2 SUB SWAP1 RETURN JUMPDEST PUSH1 0x1 DUP1 SLOAD PUSH2 0x16C SWAP1 PUSH2 0xC13 JUMP JUMPDEST DUP1 PUSH1 0x1F ADD PUSH1 0x20 DUP1 SWAP2 DIV MUL PUSH1 0x20 ADD PUSH1 0x40 MLOAD SWAP1 DUP2 ADD PUSH1 0x40 MSTORE DUP1 SWAP3 SWAP2 SWAP1 DUP2 DUP2 MSTORE PUSH1 0x20 ADD DUP3 DUP1 SLOAD PUSH2 0x198 SWAP1 PUSH2 0xC13 JUMP JUMPDEST DUP1 ISZERO PUSH2 0x1E3 JUMPI DUP1 PUSH1 0x1F LT PUSH2 0x1BA JUMPI PUSH2 0x100 DUP1 DUP4 SLOAD DIV MUL DUP4 MSTORE SWAP2 PUSH1 0x20 ADD SWAP2 PUSH2 0x1E3 JUMP JUMPDEST DUP3 ADD SWAP2 SWAP1 PUSH0 MSTORE PUSH1 0x20 PUSH0 KECCAK256 SWAP1 JUMPDEST DUP2 SLOAD DUP2 MSTORE SWAP1 PUSH1 0x1 ADD SWAP1 PUSH1 0x20 ADD DUP1 DUP4 GT PUSH2 0x1C6 JUMPI DUP3 SWAP1 SUB PUSH1 0x1F AND DUP3 ADD SWAP2 JUMPDEST POP POP POP POP POP DUP2 JUMP JUMPDEST PUSH1 0x3 SLOAD DUP2 JUMP JUMPDEST ADDRESS PUSH20 0xFFFFFFFFFFFFFFFFFFFFFFFFFFFFFFFFFFFFFFFF AND PUSH4 0xA9BF5633 PUSH2 0xC350 DUP4 PUSH1 0x40 MLOAD DUP4 PUSH4 0xFFFFFFFF AND PUSH1 0xE0 SHL DUP2 MSTORE PUSH1 0x4 ADD PUSH2 0x22D SWAP2 SWAP1 PUSH2 0xA61 JUMP JUMPDEST PUSH1 0x20 PUSH1 0x40 MLOAD DUP1 DUP4 SUB DUP2 PUSH0 DUP9 DUP8 CALL SWAP4 POP POP POP POP DUP1 ISZERO PUSH2 0x269 JUMPI POP PUSH1 0x40 MLOAD RETURNDATASIZE PUSH1 0x1F NOT PUSH1 0x1F DUP3 ADD AND DUP3 ADD DUP1 PUSH1 0x40 MSTORE POP DUP2 ADD SWAP1 PUSH2 0x266 SWAP2 SWAP1 PUSH2 0xC57 JUMP JUMPDEST PUSH1 0x1 JUMPDEST PUSH2 0x401 JUMPI PUSH2 0x275 PUSH2 0xC8E JUMP JUMPDEST DUP1 PUSH4 0x8C379A0 SUB PUSH2 0x2E9 JUMPI POP PUSH2 0x289 PUSH2 0xD0B JUMP JUMPDEST DUP1 PUSH2 0x294 JUMPI POP PUSH2 0x335 JUMP JUMPDEST DUP1 PUSH1 0x1 SWAP1 DUP2 PUSH2 0x2A3 SWAP2 SWAP1 PUSH2 0xF37 JUMP JUMPDEST POP PUSH2 0x2E3 PUSH1 0x40 MLOAD DUP1 PUSH1 0x40 ADD PUSH1 0x40 MSTORE DUP1 PUSH1 0x20 DUP2 MSTORE PUSH1 0x20 ADD PUSH32 0x6572726F72206F6363757265642077697468207468697320726561736F6E3A20 DUP2 MSTORE POP DUP3 PUSH2 0x79A JUMP JUMPDEST POP PUSH2 0x3FC JUMP JUMPDEST PUSH4 0x4E487B71 SUB PUSH2 0x335 JUMPI PUSH2 0x2FB PUSH2 0x1006 JUMP JUMPDEST SWAP1 PUSH2 0x306 JUMPI POP PUSH2 0x335 JUMP JUMPDEST DUP1 PUSH1 0x3 DUP2 SWAP1 SSTORE POP PUSH2 0x32F PUSH1 0x40 MLOAD DUP1 PUSH1 0x60 ADD PUSH1 0x40 MSTORE DUP1 PUSH1 0x25 DUP2 MSTORE PUSH1 0x20 ADD PUSH2 0x13A5 PUSH1 0x25 SWAP2 CODECOPY DUP3 PUSH2 0x836 JUMP JUMPDEST POP PUSH2 0x3FC JUMP JUMPDEST RETURNDATASIZE DUP1 PUSH0 DUP2 EQ PUSH2 0x35F JUMPI PUSH1 0x40 MLOAD SWAP2 POP PUSH1 0x1F NOT PUSH1 0x3F RETURNDATASIZE ADD AND DUP3 ADD PUSH1 0x40 MSTORE RETURNDATASIZE DUP3 MSTORE RETURNDATASIZE PUSH0 PUSH1 0x20 DUP5 ADD RETURNDATACOPY PUSH2 0x364 JUMP JUMPDEST PUSH1 0x60 SWAP2 POP JUMPDEST POP PUSH0 DUP2 MLOAD SUB PUSH2 0x3AC JUMPI PUSH2 0x3AB PUSH1 0x40 MLOAD DUP1 PUSH1 0x40 ADD PUSH1 0x40 MSTORE DUP1 PUSH1 0x20 DUP2 MSTORE PUSH1 0x20 ADD PUSH32 0x72657665727420776974686F75742061206D657373616765206F636375726564 DUP2 MSTORE POP PUSH2 0x8D2 JUMP JUMPDEST JUMPDEST DUP1 PUSH1 0x2 SWAP1 DUP2 PUSH2 0x3BB SWAP2 SWAP1 PUSH2 0x107C JUMP JUMPDEST POP PUSH2 0x3FA PUSH1 0x40 MLOAD DUP1 PUSH1 0x40 ADD PUSH1 0x40 MSTORE DUP1 PUSH1 0xE DUP2 MSTORE PUSH1 0x20 ADD PUSH32 0x616E796F74686572206572726F72000000000000000000000000000000000000 DUP2 MSTORE POP PUSH2 0x8D2 JUMP JUMPDEST POP JUMPDEST PUSH2 0x409 JUMP JUMPDEST DUP1 PUSH0 DUP2 SWAP1 SSTORE POP POP JUMPDEST POP JUMP JUMPDEST PUSH0 SLOAD DUP2 JUMP JUMPDEST PUSH0 DUP1 DUP3 SUB PUSH2 0x44B JUMPI PUSH1 0x40 MLOAD PUSH32 0xF456040300000000000000000000000000000000000000000000000000000000 DUP2 MSTORE PUSH1 0x4 ADD PUSH1 0x40 MLOAD DUP1 SWAP2 SUB SWAP1 REVERT JUMPDEST PUSH1 0x1 DUP3 SUB PUSH2 0x48E JUMPI PUSH1 0x40 MLOAD PUSH32 0x8C379A000000000000000000000000000000000000000000000000000000000 DUP2 MSTORE PUSH1 0x4 ADD PUSH2 0x485 SWAP1 PUSH2 0x1195 JUMP JUMPDEST PUSH1 0x40 MLOAD DUP1 SWAP2 SUB SWAP1 REVERT JUMPDEST PUSH1 0x2 DUP3 SUB PUSH2 0x4A6 JUMPI PUSH0 DUP1 DUP4 PUSH2 0x4A3 SWAP2 SWAP1 PUSH2 0x120D JUMP JUMPDEST POP POP JUMPDEST PUSH1 0x3 DUP3 SUB PUSH2 0x4B2 JUMPI PUSH0 DUP1 REVERT JUMPDEST PUSH1 0x4 DUP3 SUB PUSH2 0x4E4 JUMPI JUMPDEST PUSH2 0x3E8 PUSH0 SLOAD LT ISZERO PUSH2 0x4E3 JUMPI PUSH1 0x1 PUSH0 DUP1 DUP3 DUP3 SLOAD PUSH2 0x4D7 SWAP2 SWAP1 PUSH2 0x123D JUMP JUMPDEST SWAP3 POP POP DUP2 SWAP1 SSTORE POP PUSH2 0x4BB JUMP JUMPDEST JUMPDEST PUSH0 SLOAD SWAP1 POP SWAP2 SWAP1 POP JUMP JUMPDEST PUSH0 DUP2 SUB PUSH2 0x550 JUMPI DUP2 PUSH20 0xFFFFFFFFFFFFFFFFFFFFFFFFFFFFFFFFFFFFFFFF AND PUSH4 0x6661ABD PUSH1 0x40 MLOAD DUP2 PUSH4 0xFFFFFFFF AND PUSH1 0xE0 SHL DUP2 MSTORE PUSH1 0x4 ADD PUSH0 PUSH1 0x40 MLOAD DUP1 DUP4 SUB DUP2 PUSH0 DUP8 DUP1 EXTCODESIZE ISZERO DUP1 ISZERO PUSH2 0x539 JUMPI PUSH0 DUP1 REVERT JUMPDEST POP GAS CALL SWAP3 POP POP POP DUP1 ISZERO PUSH2 0x54A JUMPI POP PUSH1 0x1 JUMPDEST POP PUSH2 0x70A JUMP JUMPDEST PUSH1 0x1 DUP2 SUB PUSH2 0x648 JUMPI ADDRESS PUSH20 0xFFFFFFFFFFFFFFFFFFFFFFFFFFFFFFFFFFFFFFFF AND PUSH4 0xA9BF5633 PUSH1 0x1 PUSH1 0x40 MLOAD DUP3 PUSH4 0xFFFFFFFF AND PUSH1 0xE0 SHL DUP2 MSTORE PUSH1 0x4 ADD PUSH2 0x592 SWAP2 SWAP1 PUSH2 0x12A9 JUMP JUMPDEST PUSH1 0x20 PUSH1 0x40 MLOAD DUP1 DUP4 SUB DUP2 PUSH0 DUP8 GAS CALL SWAP3 POP POP POP DUP1 ISZERO PUSH2 0x5CD JUMPI POP PUSH1 0x40 MLOAD RETURNDATASIZE PUSH1 0x1F NOT PUSH1 0x1F DUP3 ADD AND DUP3 ADD DUP1 PUSH1 0x40 MSTORE POP DUP2 ADD SWAP1 PUSH2 0x5CA SWAP2 SWAP1 PUSH2 0xC57 JUMP JUMPDEST PUSH1 0x1 JUMPDEST PUSH2 0x641 JUMPI PUSH2 0x5D9 PUSH2 0xC8E JUMP JUMPDEST DUP1 PUSH4 0x8C379A0 SUB PUSH2 0x63A JUMPI POP PUSH2 0x5ED PUSH2 0xD0B JUMP JUMPDEST DUP1 PUSH2 0x5F8 JUMPI POP PUSH2 0x63C JUMP JUMPDEST PUSH2 0x636 PUSH1 0x40 MLOAD DUP1 PUSH1 0x40 ADD PUSH1 0x40 MSTORE DUP1 PUSH1 0x10 DUP2 MSTORE PUSH1 0x20 ADD PUSH32 0x6361746368207468656E207468726F7700000000000000000000000000000000 DUP2 MSTORE POP PUSH2 0x8D2 JUMP JUMPDEST PUSH0 DUP1 REVERT JUMPDEST POP JUMPDEST PUSH2 0x643 JUMP JUMPDEST POP JUMPDEST PUSH2 0x709 JUMP JUMPDEST PUSH1 0x2 DUP2 SUB PUSH2 0x708 JUMPI ADDRESS PUSH20 0xFFFFFFFFFFFFFFFFFFFFFFFFFFFFFFFFFFFFFFFF AND PUSH4 0xA9BF5633 PUSH1 0x2 PUSH1 0x40 MLOAD DUP3 PUSH4 0xFFFFFFFF AND PUSH1 0xE0 SHL DUP2 MSTORE PUSH1 0x4 ADD PUSH2 0x68A SWAP2 SWAP1 PUSH2 0x12FB JUMP JUMPDEST PUSH1 0x20 PUSH1 0x40 MLOAD DUP1 DUP4 SUB DUP2 PUSH0 DUP8 GAS CALL SWAP3 POP POP POP DUP1 ISZERO PUSH2 0x6C5 JUMPI POP PUSH1 0x40 MLOAD RETURNDATASIZE PUSH1 0x1F NOT PUSH1 0x1F DUP3 ADD AND DUP3 ADD DUP1 PUSH1 0x40 MSTORE POP DUP2 ADD SWAP1 PUSH2 0x6C2 SWAP2 SWAP1 PUSH2 0xC57 JUMP JUMPDEST PUSH1 0x1 JUMPDEST PUSH2 0x705 JUMPI PUSH2 0x6D1 PUSH2 0xC8E JUMP JUMPDEST DUP1 PUSH4 0x8C379A0 SUB PUSH2 0x6F6 JUMPI POP PUSH2 0x6E5 PUSH2 0xD0B JUMP JUMPDEST DUP1 PUSH2 0x6F0 JUMPI POP PUSH2 0x6F8 JUMP JUMPDEST POP PUSH2 0x700 JUMP JUMPDEST POP JUMPDEST RETURNDATASIZE PUSH0 DUP1 RETURNDATACOPY RETURNDATASIZE PUSH0 REVERT JUMPDEST PUSH2 0x707 JUMP JUMPDEST POP JUMPDEST JUMPDEST JUMPDEST JUMPDEST POP POP JUMP JUMPDEST PUSH1 0x2 DUP1 SLOAD PUSH2 0x71B SWAP1 PUSH2 0xC13 JUMP JUMPDEST DUP1 PUSH1 0x1F ADD PUSH1 0x20 DUP1 SWAP2 DIV MUL PUSH1 0x20 ADD PUSH1 0x40 MLOAD SWAP1 DUP2 ADD PUSH1 0x40 MSTORE DUP1 SWAP3 SWAP2 SWAP1 DUP2 DUP2 MSTORE PUSH1 0x20 ADD DUP3 DUP1 SLOAD PUSH2 0x747 SWAP1 PUSH2 0xC13 JUMP JUMPDEST DUP1 ISZERO PUSH2 0x792 JUMPI DUP1 PUSH1 0x1F LT PUSH2 0x769 JUMPI PUSH2 0x100 DUP1 DUP4 SLOAD DIV MUL DUP4 MSTORE SWAP2 PUSH1 0x20 ADD SWAP2 PUSH2 0x792 JUMP JUMPDEST DUP3 ADD SWAP2 SWAP1 PUSH0 MSTORE PUSH1 0x20 PUSH0 KECCAK256 SWAP1 JUMPDEST DUP2 SLOAD DUP2 MSTORE SWAP1 PUSH1 0x1 ADD SWAP1 PUSH1 0x20 ADD DUP1 DUP4 GT PUSH2 0x775 JUMPI DUP3 SWAP1 SUB PUSH1 0x1F AND DUP3 ADD SWAP2 JUMPDEST POP POP POP POP POP DUP2 JUMP JUMPDEST PUSH2 0x832 DUP3 DUP3 PUSH1 0x40 MLOAD PUSH1 0x24 ADD PUSH2 0x7B0 SWAP3 SWAP2 SWAP1 PUSH2 0x1314 JUMP JUMPDEST PUSH1 0x40 MLOAD PUSH1 0x20 DUP2 DUP4 SUB SUB DUP2 MSTORE SWAP1 PUSH1 0x40 MSTORE PUSH32 0x4B5C427700000000000000000000000000000000000000000000000000000000 PUSH28 0xFFFFFFFFFFFFFFFFFFFFFFFFFFFFFFFFFFFFFFFFFFFFFFFFFFFFFFFF NOT AND PUSH1 0x20 DUP3 ADD DUP1 MLOAD PUSH28 0xFFFFFFFFFFFFFFFFFFFFFFFFFFFFFFFFFFFFFFFFFFFFFFFFFFFFFFFF DUP4 DUP2 DUP4 AND OR DUP4 MSTORE POP POP POP POP PUSH2 0x96B JUMP JUMPDEST POP POP JUMP JUMPDEST PUSH2 0x8CE DUP3 DUP3 PUSH1 0x40 MLOAD PUSH1 0x24 ADD PUSH2 0x84C SWAP3 SWAP2 SWAP1 PUSH2 0x1349 JUMP JUMPDEST PUSH1 0x40 MLOAD PUSH1 0x20 DUP2 DUP4 SUB SUB DUP2 MSTORE SWAP1 PUSH1 0x40 MSTORE PUSH32 0xB60E72CC00000000000000000000000000000000000000000000000000000000 PUSH28 0xFFFFFFFFFFFFFFFFFFFFFFFFFFFFFFFFFFFFFFFFFFFFFFFFFFFFFFFF NOT AND PUSH1 0x20 DUP3 ADD DUP1 MLOAD PUSH28 0xFFFFFFFFFFFFFFFFFFFFFFFFFFFFFFFFFFFFFFFFFFFFFFFFFFFFFFFF DUP4 DUP2 DUP4 AND OR DUP4 MSTORE POP POP POP POP PUSH2 0x96B JUMP JUMPDEST POP POP JUMP JUMPDEST PUSH2 0x968 DUP2 PUSH1 0x40 MLOAD PUSH1 0x24 ADD PUSH2 0x8E6 SWAP2 SWAP1 PUSH2 0xA29 JUMP JUMPDEST PUSH1 0x40 MLOAD PUSH1 0x20 DUP2 DUP4 SUB SUB DUP2 MSTORE SWAP1 PUSH1 0x40 MSTORE PUSH32 0x41304FAC00000000000000000000000000000000000000000000000000000000 PUSH28 0xFFFFFFFFFFFFFFFFFFFFFFFFFFFFFFFFFFFFFFFFFFFFFFFFFFFFFFFF NOT AND PUSH1 0x20 DUP3 ADD DUP1 MLOAD PUSH28 0xFFFFFFFFFFFFFFFFFFFFFFFFFFFFFFFFFFFFFFFFFFFFFFFFFFFFFFFF DUP4 DUP2 DUP4 AND OR DUP4 MSTORE POP POP POP POP PUSH2 0x96B JUMP JUMPDEST POP JUMP JUMPDEST PUSH2 0x982 DUP2 PUSH2 0x97A PUSH2 0x985 PUSH2 0x9A4 JUMP JUMPDEST PUSH4 0xFFFFFFFF AND JUMP JUMPDEST POP JUMP JUMPDEST PUSH0 PUSH11 0x636F6E736F6C652E6C6F67 SWAP1 POP PUSH0 DUP1 DUP4 MLOAD PUSH1 0x20 DUP6 ADD DUP5 GAS STATICCALL POP POP POP JUMP JUMPDEST PUSH2 0x9AF DUP2 SWAP1 POP SWAP2 SWAP1 POP JUMP JUMPDEST PUSH2 0x9B7 PUSH2 0x1377 JUMP JUMPDEST JUMP JUMPDEST PUSH0 DUP2 MLOAD SWAP1 POP SWAP2 SWAP1 POP JUMP JUMPDEST PUSH0 DUP3 DUP3 MSTORE PUSH1 0x20 DUP3 ADD SWAP1 POP SWAP3 SWAP2 POP POP JUMP JUMPDEST DUP3 DUP2 DUP4 MCOPY PUSH0 DUP4 DUP4 ADD MSTORE POP POP POP JUMP JUMPDEST PUSH0 PUSH1 0x1F NOT PUSH1 0x1F DUP4 ADD AND SWAP1 POP SWAP2 SWAP1 POP JUMP JUMPDEST PUSH0 PUSH2 0x9FB DUP3 PUSH2 0x9B9 JUMP JUMPDEST PUSH2 0xA05 DUP2 DUP6 PUSH2 0x9C3 JUMP JUMPDEST SWAP4 POP PUSH2 0xA15 DUP2 DUP6 PUSH1 0x20 DUP7 ADD PUSH2 0x9D3 JUMP JUMPDEST PUSH2 0xA1E DUP2 PUSH2 0x9E1 JUMP JUMPDEST DUP5 ADD SWAP2 POP POP SWAP3 SWAP2 POP POP JUMP JUMPDEST PUSH0 PUSH1 0x20 DUP3 ADD SWAP1 POP DUP2 DUP2 SUB PUSH0 DUP4 ADD MSTORE PUSH2 0xA41 DUP2 DUP5 PUSH2 0x9F1 JUMP JUMPDEST SWAP1 POP SWAP3 SWAP2 POP POP JUMP JUMPDEST PUSH0 DUP2 SWAP1 POP SWAP2 SWAP1 POP JUMP JUMPDEST PUSH2 0xA5B DUP2 PUSH2 0xA49 JUMP JUMPDEST DUP3 MSTORE POP POP JUMP JUMPDEST PUSH0 PUSH1 0x20 DUP3 ADD SWAP1 POP PUSH2 0xA74 PUSH0 DUP4 ADD DUP5 PUSH2 0xA52 JUMP JUMPDEST SWAP3 SWAP2 POP POP JUMP JUMPDEST PUSH0 PUSH1 0x40 MLOAD SWAP1 POP SWAP1 JUMP JUMPDEST PUSH0 DUP1 REVERT JUMPDEST PUSH2 0xA90 DUP2 PUSH2 0xA49 JUMP JUMPDEST DUP2 EQ PUSH2 0xA9A JUMPI PUSH0 DUP1 REVERT JUMPDEST POP JUMP JUMPDEST PUSH0 DUP2 CALLDATALOAD SWAP1 POP PUSH2 0xAAB DUP2 PUSH2 0xA87 JUMP JUMPDEST SWAP3 SWAP2 POP POP JUMP JUMPDEST PUSH0 PUSH1 0x20 DUP3 DUP5 SUB SLT ISZERO PUSH2 0xAC6 JUMPI PUSH2 0xAC5 PUSH2 0xA83 JUMP JUMPDEST JUMPDEST PUSH0 PUSH2 0xAD3 DUP5 DUP3 DUP6 ADD PUSH2 0xA9D JUMP JUMPDEST SWAP2 POP POP SWAP3 SWAP2 POP POP JUMP JUMPDEST PUSH0 PUSH20 0xFFFFFFFFFFFFFFFFFFFFFFFFFFFFFFFFFFFFFFFF DUP3 AND SWAP1 POP SWAP2 SWAP1 POP JUMP JUMPDEST PUSH0 PUSH2 0xB05 DUP3 PUSH2 0xADC JUMP JUMPDEST SWAP1 POP SWAP2 SWAP1 POP JUMP JUMPDEST PUSH2 0xB15 DUP2 PUSH2 0xAFB JUMP JUMPDEST DUP2 EQ PUSH2 0xB1F JUMPI PUSH0 DUP1 REVERT JUMPDEST POP JUMP JUMPDEST PUSH0 DUP2 CALLDATALOAD SWAP1 POP PUSH2 0xB30 DUP2 PUSH2 0xB0C JUMP JUMPDEST SWAP3 SWAP2 POP POP JUMP JUMPDEST PUSH0 DUP1 PUSH1 0x40 DUP4 DUP6 SUB SLT ISZERO PUSH2 0xB4C JUMPI PUSH2 0xB4B PUSH2 0xA83 JUMP JUMPDEST JUMPDEST PUSH0 PUSH2 0xB59 DUP6 DUP3 DUP7 ADD PUSH2 0xB22 JUMP JUMPDEST SWAP3 POP POP PUSH1 0x20 PUSH2 0xB6A DUP6 DUP3 DUP7 ADD PUSH2 0xA9D JUMP JUMPDEST SWAP2 POP POP SWAP3 POP SWAP3 SWAP1 POP JUMP JUMPDEST PUSH0 DUP2 MLOAD SWAP1 POP SWAP2 SWAP1 POP JUMP JUMPDEST PUSH0 DUP3 DUP3 MSTORE PUSH1 0x20 DUP3 ADD SWAP1 POP SWAP3 SWAP2 POP POP JUMP JUMPDEST PUSH0 PUSH2 0xB98 DUP3 PUSH2 0xB74 JUMP JUMPDEST PUSH2 0xBA2 DUP2 DUP6 PUSH2 0xB7E JUMP JUMPDEST SWAP4 POP PUSH2 0xBB2 DUP2 DUP6 PUSH1 0x20 DUP7 ADD PUSH2 0x9D3 JUMP JUMPDEST PUSH2 0xBBB DUP2 PUSH2 0x9E1 JUMP JUMPDEST DUP5 ADD SWAP2 POP POP SWAP3 SWAP2 POP POP JUMP JUMPDEST PUSH0 PUSH1 0x20 DUP3 ADD SWAP1 POP DUP2 DUP2 SUB PUSH0 DUP4 ADD MSTORE PUSH2 0xBDE DUP2 DUP5 PUSH2 0xB8E JUMP JUMPDEST SWAP1 POP SWAP3 SWAP2 POP POP JUMP JUMPDEST PUSH32 0x4E487B7100000000000000000000000000000000000000000000000000000000 PUSH0 MSTORE PUSH1 0x22 PUSH1 0x4 MSTORE PUSH1 0x24 PUSH0 REVERT JUMPDEST PUSH0 PUSH1 0x2 DUP3 DIV SWAP1 POP PUSH1 0x1 DUP3 AND DUP1 PUSH2 0xC2A JUMPI PUSH1 0x7F DUP3 AND SWAP2 POP JUMPDEST PUSH1 0x20 DUP3 LT DUP2 SUB PUSH2 0xC3D JUMPI PUSH2 0xC3C PUSH2 0xBE6 JUMP JUMPDEST JUMPDEST POP SWAP2 SWAP1 POP JUMP JUMPDEST PUSH0 DUP2 MLOAD SWAP1 POP PUSH2 0xC51 DUP2 PUSH2 0xA87 JUMP JUMPDEST SWAP3 SWAP2 POP POP JUMP JUMPDEST PUSH0 PUSH1 0x20 DUP3 DUP5 SUB SLT ISZERO PUSH2 0xC6C JUMPI PUSH2 0xC6B PUSH2 0xA83 JUMP JUMPDEST JUMPDEST PUSH0 PUSH2 0xC79 DUP5 DUP3 DUP6 ADD PUSH2 0xC43 JUMP JUMPDEST SWAP2 POP POP SWAP3 SWAP2 POP POP JUMP JUMPDEST PUSH0 DUP2 PUSH1 0xE0 SHR SWAP1 POP SWAP2 SWAP1 POP JUMP JUMPDEST PUSH0 PUSH1 0x3 RETURNDATASIZE GT ISZERO PUSH2 0xCAA JUMPI PUSH1 0x4 PUSH0 DUP1 RETURNDATACOPY PUSH2 0xCA7 PUSH0 MLOAD PUSH2 0xC82 JUMP JUMPDEST SWAP1 POP JUMPDEST SWAP1 JUMP JUMPDEST PUSH32 0x4E487B7100000000000000000000000000000000000000000000000000000000 PUSH0 MSTORE PUSH1 0x41 PUSH1 0x4 MSTORE PUSH1 0x24 PUSH0 REVERT JUMPDEST PUSH2 0xCE3 DUP3 PUSH2 0x9E1 JUMP JUMPDEST DUP2 ADD DUP2 DUP2 LT PUSH8 0xFFFFFFFFFFFFFFFF DUP3 GT OR ISZERO PUSH2 0xD02 JUMPI PUSH2 0xD01 PUSH2 0xCAD JUMP JUMPDEST JUMPDEST DUP1 PUSH1 0x40 MSTORE POP POP POP JUMP JUMPDEST PUSH0 PUSH1 0x44 RETURNDATASIZE LT PUSH2 0xD97 JUMPI PUSH2 0xD1C PUSH2 0xA7A JUMP JUMPDEST PUSH1 0x4 RETURNDATASIZE SUB PUSH1 0x4 DUP3 RETURNDATACOPY DUP1 MLOAD RETURNDATASIZE PUSH1 0x24 DUP3 ADD GT PUSH8 0xFFFFFFFFFFFFFFFF DUP3 GT OR ISZERO PUSH2 0xD44 JUMPI POP POP PUSH2 0xD97 JUMP JUMPDEST DUP1 DUP3 ADD DUP1 MLOAD PUSH8 0xFFFFFFFFFFFFFFFF DUP2 GT ISZERO PUSH2 0xD62 JUMPI POP POP POP POP PUSH2 0xD97 JUMP JUMPDEST DUP1 PUSH1 0x20 DUP4 ADD ADD PUSH1 0x4 RETURNDATASIZE SUB DUP6 ADD DUP2 GT ISZERO PUSH2 0xD7F JUMPI POP POP POP POP POP PUSH2 0xD97 JUMP JUMPDEST PUSH2 0xD8E DUP3 PUSH1 0x20 ADD DUP6 ADD DUP7 PUSH2 0xCDA JUMP JUMPDEST DUP3 SWAP6 POP POP POP POP POP POP JUMPDEST SWAP1 JUMP JUMPDEST PUSH0 DUP2 SWAP1 POP DUP2 PUSH0 MSTORE PUSH1 0x20 PUSH0 KECCAK256 SWAP1 POP SWAP2 SWAP1 POP JUMP JUMPDEST PUSH0 PUSH1 0x20 PUSH1 0x1F DUP4 ADD DIV SWAP1 POP SWAP2 SWAP1 POP JUMP JUMPDEST PUSH0 DUP3 DUP3 SHL SWAP1 POP SWAP3 SWAP2 POP POP JUMP JUMPDEST PUSH0 PUSH1 0x8 DUP4 MUL PUSH2 0xDF6 PUSH32 0xFFFFFFFFFFFFFFFFFFFFFFFFFFFFFFFFFFFFFFFFFFFFFFFFFFFFFFFFFFFFFFFF DUP3 PUSH2 0xDBB JUMP JUMPDEST PUSH2 0xE00 DUP7 DUP4 PUSH2 0xDBB JUMP JUMPDEST SWAP6 POP DUP1 NOT DUP5 AND SWAP4 POP DUP1 DUP7 AND DUP5 OR SWAP3 POP POP POP SWAP4 SWAP3 POP POP POP JUMP JUMPDEST PUSH0 DUP2 SWAP1 POP SWAP2 SWAP1 POP JUMP JUMPDEST PUSH0 PUSH2 0xE3B PUSH2 0xE36 PUSH2 0xE31 DUP5 PUSH2 0xA49 JUMP JUMPDEST PUSH2 0xE18 JUMP JUMPDEST PUSH2 0xA49 JUMP JUMPDEST SWAP1 POP SWAP2 SWAP1 POP JUMP JUMPDEST PUSH0 DUP2 SWAP1 POP SWAP2 SWAP1 POP JUMP JUMPDEST PUSH2 0xE54 DUP4 PUSH2 0xE21 JUMP JUMPDEST PUSH2 0xE68 PUSH2 0xE60 DUP3 PUSH2 0xE42 JUMP JUMPDEST DUP5 DUP5 SLOAD PUSH2 0xDC7 JUMP JUMPDEST DUP3 SSTORE POP POP POP POP JUMP JUMPDEST PUSH0 SWAP1 JUMP JUMPDEST PUSH2 0xE7C PUSH2 0xE70 JUMP JUMPDEST PUSH2 0xE87 DUP2 DUP5 DUP5 PUSH2 0xE4B JUMP JUMPDEST POP POP POP JUMP JUMPDEST JUMPDEST DUP2 DUP2 LT ISZERO PUSH2 0xEAA JUMPI PUSH2 0xE9F PUSH0 DUP3 PUSH2 0xE74 JUMP JUMPDEST PUSH1 0x1 DUP2 ADD SWAP1 POP PUSH2 0xE8D JUMP JUMPDEST POP POP JUMP JUMPDEST PUSH1 0x1F DUP3 GT ISZERO PUSH2 0xEEF JUMPI PUSH2 0xEC0 DUP2 PUSH2 0xD9A JUMP JUMPDEST PUSH2 0xEC9 DUP5 PUSH2 0xDAC JUMP JUMPDEST DUP2 ADD PUSH1 0x20 DUP6 LT ISZERO PUSH2 0xED8 JUMPI DUP2 SWAP1 POP JUMPDEST PUSH2 0xEEC PUSH2 0xEE4 DUP6 PUSH2 0xDAC JUMP JUMPDEST DUP4 ADD DUP3 PUSH2 0xE8C JUMP JUMPDEST POP POP JUMPDEST POP POP POP JUMP JUMPDEST PUSH0 DUP3 DUP3 SHR SWAP1 POP SWAP3 SWAP2 POP POP JUMP JUMPDEST PUSH0 PUSH2 0xF0F PUSH0 NOT DUP5 PUSH1 0x8 MUL PUSH2 0xEF4 JUMP JUMPDEST NOT DUP1 DUP4 AND SWAP2 POP POP SWAP3 SWAP2 POP POP JUMP JUMPDEST PUSH0 PUSH2 0xF27 DUP4 DUP4 PUSH2 0xF00 JUMP JUMPDEST SWAP2 POP DUP3 PUSH1 0x2 MUL DUP3 OR SWAP1 POP SWAP3 SWAP2 POP POP JUMP JUMPDEST PUSH2 0xF40 DUP3 PUSH2 0x9B9 JUMP JUMPDEST PUSH8 0xFFFFFFFFFFFFFFFF DUP2 GT ISZERO PUSH2 0xF59 JUMPI PUSH2 0xF58 PUSH2 0xCAD JUMP JUMPDEST JUMPDEST PUSH2 0xF63 DUP3 SLOAD PUSH2 0xC13 JUMP JUMPDEST PUSH2 0xF6E DUP3 DUP3 DUP6 PUSH2 0xEAE JUMP JUMPDEST PUSH0 PUSH1 0x20 SWAP1 POP PUSH1 0x1F DUP4 GT PUSH1 0x1 DUP2 EQ PUSH2 0xF9F JUMPI PUSH0 DUP5 ISZERO PUSH2 0xF8D JUMPI DUP3 DUP8 ADD MLOAD SWAP1 POP JUMPDEST PUSH2 0xF97 DUP6 DUP3 PUSH2 0xF1C JUMP JUMPDEST DUP7 SSTORE POP PUSH2 0xFFE JUMP JUMPDEST PUSH1 0x1F NOT DUP5 AND PUSH2 0xFAD DUP7 PUSH2 0xD9A JUMP JUMPDEST PUSH0 JUMPDEST DUP3 DUP2 LT ISZERO PUSH2 0xFD4 JUMPI DUP5 DUP10 ADD MLOAD DUP3 SSTORE PUSH1 0x1 DUP3 ADD SWAP2 POP PUSH1 0x20 DUP6 ADD SWAP5 POP PUSH1 0x20 DUP2 ADD SWAP1 POP PUSH2 0xFAF JUMP JUMPDEST DUP7 DUP4 LT ISZERO PUSH2 0xFF1 JUMPI DUP5 DUP10 ADD MLOAD PUSH2 0xFED PUSH1 0x1F DUP10 AND DUP3 PUSH2 0xF00 JUMP JUMPDEST DUP4 SSTORE POP JUMPDEST PUSH1 0x1 PUSH1 0x2 DUP9 MUL ADD DUP9 SSTORE POP POP POP JUMPDEST POP POP POP POP POP POP JUMP JUMPDEST PUSH0 DUP1 PUSH1 0x23 RETURNDATASIZE GT ISZERO PUSH2 0x1020 JUMPI PUSH1 0x20 PUSH1 0x4 PUSH0 RETURNDATACOPY PUSH1 0x1 SWAP2 POP PUSH0 MLOAD SWAP1 POP JUMPDEST SWAP1 SWAP2 JUMP JUMPDEST PUSH0 DUP2 SWAP1 POP DUP2 PUSH0 MSTORE PUSH1 0x20 PUSH0 KECCAK256 SWAP1 POP SWAP2 SWAP1 POP JUMP JUMPDEST PUSH1 0x1F DUP3 GT ISZERO PUSH2 0x1077 JUMPI PUSH2 0x1048 DUP2 PUSH2 0x1024 JUMP JUMPDEST PUSH2 0x1051 DUP5 PUSH2 0xDAC JUMP JUMPDEST DUP2 ADD PUSH1 0x20 DUP6 LT ISZERO PUSH2 0x1060 JUMPI DUP2 SWAP1 POP JUMPDEST PUSH2 0x1074 PUSH2 0x106C DUP6 PUSH2 0xDAC JUMP JUMPDEST DUP4 ADD DUP3 PUSH2 0xE8C JUMP JUMPDEST POP POP JUMPDEST POP POP POP JUMP JUMPDEST PUSH2 0x1085 DUP3 PUSH2 0xB74 JUMP JUMPDEST PUSH8 0xFFFFFFFFFFFFFFFF DUP2 GT ISZERO PUSH2 0x109E JUMPI PUSH2 0x109D PUSH2 0xCAD JUMP JUMPDEST JUMPDEST PUSH2 0x10A8 DUP3 SLOAD PUSH2 0xC13 JUMP JUMPDEST PUSH2 0x10B3 DUP3 DUP3 DUP6 PUSH2 0x1036 JUMP JUMPDEST PUSH0 PUSH1 0x20 SWAP1 POP PUSH1 0x1F DUP4 GT PUSH1 0x1 DUP2 EQ PUSH2 0x10E4 JUMPI PUSH0 DUP5 ISZERO PUSH2 0x10D2 JUMPI DUP3 DUP8 ADD MLOAD SWAP1 POP JUMPDEST PUSH2 0x10DC DUP6 DUP3 PUSH2 0xF1C JUMP JUMPDEST DUP7 SSTORE POP PUSH2 0x1143 JUMP JUMPDEST PUSH1 0x1F NOT DUP5 AND PUSH2 0x10F2 DUP7 PUSH2 0x1024 JUMP JUMPDEST PUSH0 JUMPDEST DUP3 DUP2 LT ISZERO PUSH2 0x1119 JUMPI DUP5 DUP10 ADD MLOAD DUP3 SSTORE PUSH1 0x1 DUP3 ADD SWAP2 POP PUSH1 0x20 DUP6 ADD SWAP5 POP PUSH1 0x20 DUP2 ADD SWAP1 POP PUSH2 0x10F4 JUMP JUMPDEST DUP7 DUP4 LT ISZERO PUSH2 0x1136 JUMPI DUP5 DUP10 ADD MLOAD PUSH2 0x1132 PUSH1 0x1F DUP10 AND DUP3 PUSH2 0xF00 JUMP JUMPDEST DUP4 SSTORE POP JUMPDEST PUSH1 0x1 PUSH1 0x2 DUP9 MUL ADD DUP9 SSTORE POP POP POP JUMPDEST POP POP POP POP POP POP JUMP JUMPDEST PUSH32 0x6572726F72207768656E20312000000000000000000000000000000000000000 PUSH0 DUP3 ADD MSTORE POP JUMP JUMPDEST PUSH0 PUSH2 0x117F PUSH1 0xD DUP4 PUSH2 0x9C3 JUMP JUMPDEST SWAP2 POP PUSH2 0x118A DUP3 PUSH2 0x114B JUMP JUMPDEST PUSH1 0x20 DUP3 ADD SWAP1 POP SWAP2 SWAP1 POP JUMP JUMPDEST PUSH0 PUSH1 0x20 DUP3 ADD SWAP1 POP DUP2 DUP2 SUB PUSH0 DUP4 ADD MSTORE PUSH2 0x11AC DUP2 PUSH2 0x1173 JUMP JUMPDEST SWAP1 POP SWAP2 SWAP1 POP JUMP JUMPDEST PUSH32 0x4E487B7100000000000000000000000000000000000000000000000000000000 PUSH0 MSTORE PUSH1 0x12 PUSH1 0x4 MSTORE PUSH1 0x24 PUSH0 REVERT JUMPDEST PUSH32 0x4E487B7100000000000000000000000000000000000000000000000000000000 PUSH0 MSTORE PUSH1 0x11 PUSH1 0x4 MSTORE PUSH1 0x24 PUSH0 REVERT JUMPDEST PUSH0 PUSH2 0x1217 DUP3 PUSH2 0xA49 JUMP JUMPDEST SWAP2 POP PUSH2 0x1222 DUP4 PUSH2 0xA49 JUMP JUMPDEST SWAP3 POP DUP3 PUSH2 0x1232 JUMPI PUSH2 0x1231 PUSH2 0x11B3 JUMP JUMPDEST JUMPDEST DUP3 DUP3 DIV SWAP1 POP SWAP3 SWAP2 POP POP JUMP JUMPDEST PUSH0 PUSH2 0x1247 DUP3 PUSH2 0xA49 JUMP JUMPDEST SWAP2 POP PUSH2 0x1252 DUP4 PUSH2 0xA49 JUMP JUMPDEST SWAP3 POP DUP3 DUP3 ADD SWAP1 POP DUP1 DUP3 GT ISZERO PUSH2 0x126A JUMPI PUSH2 0x1269 PUSH2 0x11E0 JUMP JUMPDEST JUMPDEST SWAP3 SWAP2 POP POP JUMP JUMPDEST PUSH0 DUP2 SWAP1 POP SWAP2 SWAP1 POP JUMP JUMPDEST PUSH0 PUSH2 0x1293 PUSH2 0x128E PUSH2 0x1289 DUP5 PUSH2 0x1270 JUMP JUMPDEST PUSH2 0xE18 JUMP JUMPDEST PUSH2 0xA49 JUMP JUMPDEST SWAP1 POP SWAP2 SWAP1 POP JUMP JUMPDEST PUSH2 0x12A3 DUP2 PUSH2 0x1279 JUMP JUMPDEST DUP3 MSTORE POP POP JUMP JUMPDEST PUSH0 PUSH1 0x20 DUP3 ADD SWAP1 POP PUSH2 0x12BC PUSH0 DUP4 ADD DUP5 PUSH2 0x129A JUMP JUMPDEST SWAP3 SWAP2 POP POP JUMP JUMPDEST PUSH0 DUP2 SWAP1 POP SWAP2 SWAP1 POP JUMP JUMPDEST PUSH0 PUSH2 0x12E5 PUSH2 0x12E0 PUSH2 0x12DB DUP5 PUSH2 0x12C2 JUMP JUMPDEST PUSH2 0xE18 JUMP JUMPDEST PUSH2 0xA49 JUMP JUMPDEST SWAP1 POP SWAP2 SWAP1 POP JUMP JUMPDEST PUSH2 0x12F5 DUP2 PUSH2 0x12CB JUMP JUMPDEST DUP3 MSTORE POP POP JUMP JUMPDEST PUSH0 PUSH1 0x20 DUP3 ADD SWAP1 POP PUSH2 0x130E PUSH0 DUP4 ADD DUP5 PUSH2 0x12EC JUMP JUMPDEST SWAP3 SWAP2 POP POP JUMP JUMPDEST PUSH0 PUSH1 0x40 DUP3 ADD SWAP1 POP DUP2 DUP2 SUB PUSH0 DUP4 ADD MSTORE PUSH2 0x132C DUP2 DUP6 PUSH2 0x9F1 JUMP JUMPDEST SWAP1 POP DUP2 DUP2 SUB PUSH1 0x20 DUP4 ADD MSTORE PUSH2 0x1340 DUP2 DUP5 PUSH2 0x9F1 JUMP JUMPDEST SWAP1 POP SWAP4 SWAP3 POP POP POP JUMP JUMPDEST PUSH0 PUSH1 0x40 DUP3 ADD SWAP1 POP DUP2 DUP2 SUB PUSH0 DUP4 ADD MSTORE PUSH2 0x1361 DUP2 DUP6 PUSH2 0x9F1 JUMP JUMPDEST SWAP1 POP PUSH2 0x1370 PUSH1 0x20 DUP4 ADD DUP5 PUSH2 0xA52 JUMP JUMPDEST SWAP4 SWAP3 POP POP POP JUMP JUMPDEST PUSH32 0x4E487B7100000000000000000000000000000000000000000000000000000000 PUSH0 MSTORE PUSH1 0x51 PUSH1 0x4 MSTORE PUSH1 0x24 PUSH0 REVERT INVALID PUSH6 0x72726F72206F PUSH4 0x63757272 PUSH6 0x642077697468 KECCAK256 PUSH21 0x686973206572726F7220636F64653A20A264697066 PUSH20 0x582212201E749F5DD0117B9C715E82BC4CC4C0D9 RETURN 0xE7 0x2A GASLIMIT PUSH12 0x745629D8F3AA7A3859CAC464 PUSH20 0x6F6C634300081A00330000000000000000000000 "
		},
		"gasEstimates": {
			"creation": {
				"codeDepositCost": "1023800",
				"executionCost": "1059",
				"totalCost": "1024859"
			},
			"external": {
				"cantCatch(address,uint256)": "infinite",
				"errBytes()": "infinite",
				"errCode()": "2448",
				"errMsg()": "infinite",
				"myFunc(uint256)": "infinite",
				"tryCatchExternalCall(uint256)": "infinite",
				"y()": "2424"
			}
		},
		"methodIdentifiers": {
			"cantCatch(address,uint256)": "e5906db2",
			"errBytes()": "f688a492",
			"errCode()": "5c97a9f9",
			"errMsg()": "437a1995",
			"myFunc(uint256)": "a9bf5633",
			"tryCatchExternalCall(uint256)": "933ac084",
			"y()": "a56dfe4a"
		}
	},
	"abi": [
		{
			"inputs": [],
			"stateMutability": "nonpayable",
			"type": "constructor"
		},
		{
			"inputs": [],
			"name": "Zero",
			"type": "error"
		},
		{
			"inputs": [
				{
					"internalType": "address",
					"name": "addr",
					"type": "address"
				},
				{
					"internalType": "uint256",
					"name": "cases",
					"type": "uint256"
				}
			],
			"name": "cantCatch",
			"outputs": [],
			"stateMutability": "nonpayable",
			"type": "function"
		},
		{
			"inputs": [],
			"name": "errBytes",
			"outputs": [
				{
					"internalType": "bytes",
					"name": "",
					"type": "bytes"
				}
			],
			"stateMutability": "view",
			"type": "function"
		},
		{
			"inputs": [],
			"name": "errCode",
			"outputs": [
				{
					"internalType": "uint256",
					"name": "",
					"type": "uint256"
				}
			],
			"stateMutability": "view",
			"type": "function"
		},
		{
			"inputs": [],
			"name": "errMsg",
			"outputs": [
				{
					"internalType": "string",
					"name": "",
					"type": "string"
				}
			],
			"stateMutability": "view",
			"type": "function"
		},
		{
			"inputs": [
				{
					"internalType": "uint256",
					"name": "x",
					"type": "uint256"
				}
			],
			"name": "myFunc",
			"outputs": [
				{
					"internalType": "uint256",
					"name": "",
					"type": "uint256"
				}
			],
			"stateMutability": "nonpayable",
			"type": "function"
		},
		{
			"inputs": [
				{
					"internalType": "uint256",
					"name": "_i",
					"type": "uint256"
				}
			],
			"name": "tryCatchExternalCall",
			"outputs": [],
			"stateMutability": "nonpayable",
			"type": "function"
		},
		{
			"inputs": [],
			"name": "y",
			"outputs": [
				{
					"internalType": "uint256",
					"name": "",
					"type": "uint256"
				}
			],
			"stateMutability": "view",
			"type": "function"
		}
	]
}